{"contracts/IDO.sol":{"IDO":{"abi":[{"inputs":[{"internalType":"address","name":"_rewardAddress","type":"address"},{"internalType":"bytes32","name":"_rootHash","type":"bytes32"}],"stateMutability":"nonpayable","type":"constructor"},{"anonymous":false,"inputs":[{"indexed":false,"internalType":"address","name":"to","type":"address"},{"indexed":false,"internalType":"uint256","name":"amount","type":"uint256"}],"name":"Buy","type":"event"},{"anonymous":false,"inputs":[{"indexed":false,"internalType":"address","name":"to","type":"address"},{"indexed":false,"internalType":"uint256","name":"amount","type":"uint256"}],"name":"Claim","type":"event"},{"anonymous":false,"inputs":[{"indexed":true,"internalType":"address","name":"previousOwner","type":"address"},{"indexed":true,"internalType":"address","name":"newOwner","type":"address"}],"name":"OwnershipTransferred","type":"event"},{"stateMutability":"payable","type":"fallback"},{"inputs":[{"internalType":"bytes32[]","name":"proof","type":"bytes32[]"}],"name":"buy","outputs":[],"stateMutability":"payable","type":"function"},{"inputs":[{"internalType":"uint256","name":"_ethAmount","type":"uint256"}],"name":"calcTokenAmount","outputs":[{"internalType":"uint256","name":"amount","type":"uint256"}],"stateMutability":"nonpayable","type":"function"},{"inputs":[{"internalType":"uint256","name":"amount","type":"uint256"}],"name":"claimETH","outputs":[],"stateMutability":"nonpayable","type":"function"},{"inputs":[],"name":"claimRewardToken","outputs":[],"stateMutability":"nonpayable","type":"function"},{"inputs":[{"internalType":"address","name":"tokenAddress","type":"address"},{"internalType":"uint256","name":"amount","type":"uint256"}],"name":"claimToken","outputs":[],"stateMutability":"nonpayable","type":"function"},{"inputs":[{"internalType":"address","name":"userAddress","type":"address"}],"name":"getClaimAmount","outputs":[{"internalType":"uint256","name":"claimAmount","type":"uint256"}],"stateMutability":"view","type":"function"},{"inputs":[],"name":"getPrice","outputs":[{"internalType":"uint256","name":"price","type":"uint256"}],"stateMutability":"view","type":"function"},{"inputs":[],"name":"owner","outputs":[{"internalType":"address","name":"","type":"address"}],"stateMutability":"view","type":"function"},{"inputs":[],"name":"privateSaleAllocation","outputs":[{"internalType":"uint256","name":"","type":"uint256"}],"stateMutability":"view","type":"function"},{"inputs":[],"name":"privateSaleTotalSaled","outputs":[{"internalType":"uint256","name":"","type":"uint256"}],"stateMutability":"view","type":"function"},{"inputs":[],"name":"publicSaleAllocation","outputs":[{"internalType":"uint256","name":"","type":"uint256"}],"stateMutability":"view","type":"function"},{"inputs":[],"name":"publicSaleTotalSaled","outputs":[{"internalType":"uint256","name":"","type":"uint256"}],"stateMutability":"view","type":"function"},{"inputs":[],"name":"renounceOwnership","outputs":[],"stateMutability":"nonpayable","type":"function"},{"inputs":[{"internalType":"uint256","name":"_price","type":"uint256"}],"name":"resetPrice","outputs":[],"stateMutability":"nonpayable","type":"function"},{"inputs":[],"name":"rootHash","outputs":[{"internalType":"bytes32","name":"","type":"bytes32"}],"stateMutability":"view","type":"function"},{"inputs":[],"name":"saleIndex","outputs":[{"internalType":"uint256","name":"","type":"uint256"}],"stateMutability":"view","type":"function"},{"inputs":[{"internalType":"bytes32","name":"_rootHash","type":"bytes32"}],"name":"setRootHash","outputs":[],"stateMutability":"nonpayable","type":"function"},{"inputs":[{"internalType":"uint256","name":"_saleIndex","type":"uint256"}],"name":"startSale","outputs":[],"stateMutability":"nonpayable","type":"function"},{"inputs":[],"name":"stopSale","outputs":[],"stateMutability":"nonpayable","type":"function"},{"inputs":[{"internalType":"address","name":"newOwner","type":"address"}],"name":"transferOwnership","outputs":[],"stateMutability":"nonpayable","type":"function"},{"inputs":[{"internalType":"address","name":"","type":"address"}],"name":"userDeposited","outputs":[{"internalType":"uint256","name":"","type":"uint256"}],"stateMutability":"view","type":"function"},{"inputs":[{"internalType":"address","name":"","type":"address"}],"name":"userRewards","outputs":[{"internalType":"uint256","name":"","type":"uint256"}],"stateMutability":"view","type":"function"},{"stateMutability":"payable","type":"receive"}],"devdoc":{"kind":"dev","methods":{},"version":1},"evm":{"bytecode":{"linkReferences":{},"object":"608060405260006001556802df85d331a7b40000600355662386f26fc10000600455678ac7230489e800006005556803860e639d8064000060065560006008556504944d62ee006009556000600a5565047e2ef1f800600b5534801561006457600080fd5b506040516110bb3803806110bb8339810160408190526100839161011e565b600080546001600160a01b031916339081178255604051909182917f8be0079c531659141344cd1fd0a4f28419497f9722a3daafe3b4186f6b6457e0908290a3506100df60095460035461010b60201b610b8c1790919060201c565b600755600c80546001600160a01b0319166001600160a01b03939093169290921790915560025561017a565b60006101178284610158565b9392505050565b6000806040838503121561013157600080fd5b82516001600160a01b038116811461014857600080fd5b6020939093015192949293505050565b60008261017557634e487b7160e01b600052601260045260246000fd5b500490565b610f32806101896000396000f3fe60806040526004361061012d5760003560e01c80638092be4a116100a5578063dde070e81161006c578063dde070e81461030b578063de8e81ed14610341578063e36b0b3714610361578063e7a6ac5514610376578063f2fde38b1461038c578063fe96973a146103ac57005b80638092be4a146102765780638da5cb5b146102a357806398d5fdca146102cb578063afd18916146102e0578063c8aad250146102f557005b80632d7eae66116100f45780632d7eae66146101df57806334ad1f32146101ff5780636ec012e714610215578063715018a61461022b57806378442876146102405780637b7902dd1461025657005b80630660f1e8146101365780630e3ab61d146101765780631698755f146101965780631d80009a146101b657806329ec7eed146101cc57005b3661013457005b005b34801561014257600080fd5b50610163610151366004610d58565b600d6020526000908152604090205481565b6040519081526020015b60405180910390f35b34801561018257600080fd5b50610134610191366004610d73565b6103cc565b3480156101a257600080fd5b506101346101b1366004610d8c565b61043c565b3480156101c257600080fd5b5061016360025481565b6101346101da366004610db6565b6104fd565b3480156101eb57600080fd5b506101346101fa366004610d73565b61084d565b34801561020b57600080fd5b50610163600b5481565b34801561022157600080fd5b5061016360015481565b34801561023757600080fd5b5061013461087c565b34801561024c57600080fd5b5061016360085481565b34801561026257600080fd5b50610163610271366004610d73565b6108f0565b34801561028257600080fd5b50610163610291366004610d58565b600e6020526000908152604090205481565b3480156102af57600080fd5b506000546040516001600160a01b03909116815260200161016d565b3480156102d757600080fd5b50600754610163565b3480156102ec57600080fd5b50610134610953565b34801561030157600080fd5b5061016360095481565b34801561031757600080fd5b50610163610326366004610d58565b6001600160a01b03166000908152600d602052604090205490565b34801561034d57600080fd5b5061013461035c366004610d73565b610a31565b34801561036d57600080fd5b50610134610a60565b34801561038257600080fd5b50610163600a5481565b34801561039857600080fd5b506101346103a7366004610d58565b610a91565b3480156103b857600080fd5b506101346103c7366004610d73565b610ac4565b6000546001600160a01b031633146103ff5760405162461bcd60e51b81526004016103f690610e2b565b60405180910390fd5b60018181558190036104205760095460035461041a91610b8c565b60075550565b60015460020361043957600b5460065461041a91610b8c565b50565b6000546001600160a01b031633146104665760405162461bcd60e51b81526004016103f690610e2b565b816001600160a01b031663a9059cbb6104876000546001600160a01b031690565b6040516001600160e01b031960e084901b1681526001600160a01b039091166004820152602481018490526044016020604051808303816000875af11580156104d4573d6000803e3d6000fd5b505050506040513d601f19601f820116820180604052508101906104f89190610e60565b505050565b6040516bffffffffffffffffffffffff193360601b16602082015282908290610542908390839060340160405160208183030381529060405280519060200120610b9f565b8061054f57506001546002145b61059b5760405162461bcd60e51b815260206004820152601760248201527f4e6f742057686974654c6973746564204164647265737300000000000000000060448201526064016103f6565b60006001541180156105af57506003600154105b6105fb5760405162461bcd60e51b815260206004820152601760248201527f4e6f7420616c6c6f77656420746f20627579206e6f772e00000000000000000060448201526064016103f6565b60015460010361071757336000908152600e6020526040902054610620903490610e98565b6005541015801561064d5750600454336000908152600e602052604090205461064a903490610e98565b10155b6106bf5760405162461bcd60e51b815260206004820152603d60248201527f416d6f756e7420697320616c6c6f77656420302e30312065746820746f20313060448201527f2065746820666f72206f6e6c79206c697374656420616464726573732e00000060648201526084016103f6565b346008546106cd9190610e98565b60035410156107175760405162461bcd60e51b815260206004820152601660248201527510d85b9b9bdd08189d5e481d1a1a5cc8185b5bdd5b9d60521b60448201526064016103f6565b6000610722346108f0565b905060015460010361074b5734600860008282546107409190610e98565b909155506107639050565b34600a600082825461075d9190610e98565b90915550505b600080546040516001600160a01b039091169034908381818185875af1925050503d80600081146107b0576040519150601f19603f3d011682016040523d82523d6000602084013e6107b5565b606091505b50509050806107fd5760405162461bcd60e51b81526020600482015260146024820152732330b4b632b2103a379039b2b7321022ba3432b960611b60448201526064016103f6565b336000908152600d60205260408120805484929061081c908490610e98565b9091555050336000908152600e602052604081208054349290610840908490610e98565b9091555050505050505050565b6000546001600160a01b031633146108775760405162461bcd60e51b81526004016103f690610e2b565b600255565b6000546001600160a01b031633146108a65760405162461bcd60e51b81526004016103f690610e2b565b600080546040516001600160a01b03909116907f8be0079c531659141344cd1fd0a4f28419497f9722a3daafe3b4186f6b6457e0908390a3600080546001600160a01b0319169055565b60006001546002148015610912575060065482600a546109109190610e98565b115b1561093f57610931600b5483600a5461092b9190610e98565b90610b8c565b600781905561093f90610a31565b60075461094d908390610b8c565b92915050565b33600052600d602052600c54336000818152600d60205260409081902054905163a9059cbb60e01b8152600481019290925260248201526001600160a01b039091169063a9059cbb906044016020604051808303816000875af11580156109be573d6000803e3d6000fd5b505050506040513d601f19601f820116820180604052508101906109e29190610e60565b50336000818152600d602090815260408083208390558051938452908301919091527f47cee97cb7acd717b3c0aa1435d004cd5b3c8c57d70dbceb4e4458bbd60e39d4910160405180910390a1565b6000546001600160a01b03163314610a5b5760405162461bcd60e51b81526004016103f690610e2b565b600755565b6000546001600160a01b03163314610a8a5760405162461bcd60e51b81526004016103f690610e2b565b6003600155565b6000546001600160a01b03163314610abb5760405162461bcd60e51b81526004016103f690610e2b565b61043981610bea565b6000546001600160a01b03163314610aee5760405162461bcd60e51b81526004016103f690610e2b565b600080546040516001600160a01b039091169083908381818185875af1925050503d8060008114610b3b576040519150601f19603f3d011682016040523d82523d6000602084013e610b40565b606091505b5050905080610b885760405162461bcd60e51b81526020600482015260146024820152732330b4b632b2103a379039b2b7321022ba3432b960611b60448201526064016103f6565b5050565b6000610b988284610eab565b9392505050565b6000610be2848480806020026020016040519081016040528093929190818152602001838360200280828437600092019190915250506002549150859050610caa565b949350505050565b6001600160a01b038116610c4f5760405162461bcd60e51b815260206004820152602660248201527f4f776e61626c653a206e6577206f776e657220697320746865207a65726f206160448201526564647265737360d01b60648201526084016103f6565b600080546040516001600160a01b03808516939216917f8be0079c531659141344cd1fd0a4f28419497f9722a3daafe3b4186f6b6457e091a3600080546001600160a01b0319166001600160a01b0392909216919091179055565b600082610cb78584610cc0565b14949350505050565b600081815b8451811015610d0557610cf182868381518110610ce457610ce4610ecd565b6020026020010151610d0d565b915080610cfd81610ee3565b915050610cc5565b509392505050565b6000818310610d29576000828152602084905260409020610b98565b6000838152602083905260409020610b98565b80356001600160a01b0381168114610d5357600080fd5b919050565b600060208284031215610d6a57600080fd5b610b9882610d3c565b600060208284031215610d8557600080fd5b5035919050565b60008060408385031215610d9f57600080fd5b610da883610d3c565b946020939093013593505050565b60008060208385031215610dc957600080fd5b823567ffffffffffffffff80821115610de157600080fd5b818501915085601f830112610df557600080fd5b813581811115610e0457600080fd5b8660208260051b8501011115610e1957600080fd5b60209290920196919550909350505050565b6020808252818101527f4f776e61626c653a2063616c6c6572206973206e6f7420746865206f776e6572604082015260600190565b600060208284031215610e7257600080fd5b81518015158114610b9857600080fd5b634e487b7160e01b600052601160045260246000fd5b8082018082111561094d5761094d610e82565b600082610ec857634e487b7160e01b600052601260045260246000fd5b500490565b634e487b7160e01b600052603260045260246000fd5b600060018201610ef557610ef5610e82565b506001019056fea2646970667358221220e5deae4b837dbb786c0d7b1e7823031fc68431b503adbb0d85274b51a37818f964736f6c63430008120033","opcodes":"PUSH1 0x80 PUSH1 0x40 MSTORE PUSH1 0x0 PUSH1 0x1 SSTORE PUSH9 0x2DF85D331A7B40000 PUSH1 0x3 SSTORE PUSH7 0x2386F26FC10000 PUSH1 0x4 SSTORE PUSH8 0x8AC7230489E80000 PUSH1 0x5 SSTORE PUSH9 0x3860E639D80640000 PUSH1 0x6 SSTORE PUSH1 0x0 PUSH1 0x8 SSTORE PUSH6 0x4944D62EE00 PUSH1 0x9 SSTORE PUSH1 0x0 PUSH1 0xA SSTORE PUSH6 0x47E2EF1F800 PUSH1 0xB SSTORE CALLVALUE DUP1 ISZERO PUSH2 0x64 JUMPI PUSH1 0x0 DUP1 REVERT JUMPDEST POP PUSH1 0x40 MLOAD PUSH2 0x10BB CODESIZE SUB DUP1 PUSH2 0x10BB DUP4 CODECOPY DUP2 ADD PUSH1 0x40 DUP2 SWAP1 MSTORE PUSH2 0x83 SWAP2 PUSH2 0x11E JUMP JUMPDEST PUSH1 0x0 DUP1 SLOAD PUSH1 0x1 PUSH1 0x1 PUSH1 0xA0 SHL SUB NOT AND CALLER SWAP1 DUP2 OR DUP3 SSTORE PUSH1 0x40 MLOAD SWAP1 SWAP2 DUP3 SWAP2 PUSH32 0x8BE0079C531659141344CD1FD0A4F28419497F9722A3DAAFE3B4186F6B6457E0 SWAP1 DUP3 SWAP1 LOG3 POP PUSH2 0xDF PUSH1 0x9 SLOAD PUSH1 0x3 SLOAD PUSH2 0x10B PUSH1 0x20 SHL PUSH2 0xB8C OR SWAP1 SWAP2 SWAP1 PUSH1 0x20 SHR JUMP JUMPDEST PUSH1 0x7 SSTORE PUSH1 0xC DUP1 SLOAD PUSH1 0x1 PUSH1 0x1 PUSH1 0xA0 SHL SUB NOT AND PUSH1 0x1 PUSH1 0x1 PUSH1 0xA0 SHL SUB SWAP4 SWAP1 SWAP4 AND SWAP3 SWAP1 SWAP3 OR SWAP1 SWAP2 SSTORE PUSH1 0x2 SSTORE PUSH2 0x17A JUMP JUMPDEST PUSH1 0x0 PUSH2 0x117 DUP3 DUP5 PUSH2 0x158 JUMP JUMPDEST SWAP4 SWAP3 POP POP POP JUMP JUMPDEST PUSH1 0x0 DUP1 PUSH1 0x40 DUP4 DUP6 SUB SLT ISZERO PUSH2 0x131 JUMPI PUSH1 0x0 DUP1 REVERT JUMPDEST DUP3 MLOAD PUSH1 0x1 PUSH1 0x1 PUSH1 0xA0 SHL SUB DUP2 AND DUP2 EQ PUSH2 0x148 JUMPI PUSH1 0x0 DUP1 REVERT JUMPDEST PUSH1 0x20 SWAP4 SWAP1 SWAP4 ADD MLOAD SWAP3 SWAP5 SWAP3 SWAP4 POP POP POP JUMP JUMPDEST PUSH1 0x0 DUP3 PUSH2 0x175 JUMPI PUSH4 0x4E487B71 PUSH1 0xE0 SHL PUSH1 0x0 MSTORE PUSH1 0x12 PUSH1 0x4 MSTORE PUSH1 0x24 PUSH1 0x0 REVERT JUMPDEST POP DIV SWAP1 JUMP JUMPDEST PUSH2 0xF32 DUP1 PUSH2 0x189 PUSH1 0x0 CODECOPY PUSH1 0x0 RETURN INVALID PUSH1 0x80 PUSH1 0x40 MSTORE PUSH1 0x4 CALLDATASIZE LT PUSH2 0x12D JUMPI PUSH1 0x0 CALLDATALOAD PUSH1 0xE0 SHR DUP1 PUSH4 0x8092BE4A GT PUSH2 0xA5 JUMPI DUP1 PUSH4 0xDDE070E8 GT PUSH2 0x6C JUMPI DUP1 PUSH4 0xDDE070E8 EQ PUSH2 0x30B JUMPI DUP1 PUSH4 0xDE8E81ED EQ PUSH2 0x341 JUMPI DUP1 PUSH4 0xE36B0B37 EQ PUSH2 0x361 JUMPI DUP1 PUSH4 0xE7A6AC55 EQ PUSH2 0x376 JUMPI DUP1 PUSH4 0xF2FDE38B EQ PUSH2 0x38C JUMPI DUP1 PUSH4 0xFE96973A EQ PUSH2 0x3AC JUMPI STOP JUMPDEST DUP1 PUSH4 0x8092BE4A EQ PUSH2 0x276 JUMPI DUP1 PUSH4 0x8DA5CB5B EQ PUSH2 0x2A3 JUMPI DUP1 PUSH4 0x98D5FDCA EQ PUSH2 0x2CB JUMPI DUP1 PUSH4 0xAFD18916 EQ PUSH2 0x2E0 JUMPI DUP1 PUSH4 0xC8AAD250 EQ PUSH2 0x2F5 JUMPI STOP JUMPDEST DUP1 PUSH4 0x2D7EAE66 GT PUSH2 0xF4 JUMPI DUP1 PUSH4 0x2D7EAE66 EQ PUSH2 0x1DF JUMPI DUP1 PUSH4 0x34AD1F32 EQ PUSH2 0x1FF JUMPI DUP1 PUSH4 0x6EC012E7 EQ PUSH2 0x215 JUMPI DUP1 PUSH4 0x715018A6 EQ PUSH2 0x22B JUMPI DUP1 PUSH4 0x78442876 EQ PUSH2 0x240 JUMPI DUP1 PUSH4 0x7B7902DD EQ PUSH2 0x256 JUMPI STOP JUMPDEST DUP1 PUSH4 0x660F1E8 EQ PUSH2 0x136 JUMPI DUP1 PUSH4 0xE3AB61D EQ PUSH2 0x176 JUMPI DUP1 PUSH4 0x1698755F EQ PUSH2 0x196 JUMPI DUP1 PUSH4 0x1D80009A EQ PUSH2 0x1B6 JUMPI DUP1 PUSH4 0x29EC7EED EQ PUSH2 0x1CC JUMPI STOP JUMPDEST CALLDATASIZE PUSH2 0x134 JUMPI STOP JUMPDEST STOP JUMPDEST CALLVALUE DUP1 ISZERO PUSH2 0x142 JUMPI PUSH1 0x0 DUP1 REVERT JUMPDEST POP PUSH2 0x163 PUSH2 0x151 CALLDATASIZE PUSH1 0x4 PUSH2 0xD58 JUMP JUMPDEST PUSH1 0xD PUSH1 0x20 MSTORE PUSH1 0x0 SWAP1 DUP2 MSTORE PUSH1 0x40 SWAP1 KECCAK256 SLOAD DUP2 JUMP JUMPDEST PUSH1 0x40 MLOAD SWAP1 DUP2 MSTORE PUSH1 0x20 ADD JUMPDEST PUSH1 0x40 MLOAD DUP1 SWAP2 SUB SWAP1 RETURN JUMPDEST CALLVALUE DUP1 ISZERO PUSH2 0x182 JUMPI PUSH1 0x0 DUP1 REVERT JUMPDEST POP PUSH2 0x134 PUSH2 0x191 CALLDATASIZE PUSH1 0x4 PUSH2 0xD73 JUMP JUMPDEST PUSH2 0x3CC JUMP JUMPDEST CALLVALUE DUP1 ISZERO PUSH2 0x1A2 JUMPI PUSH1 0x0 DUP1 REVERT JUMPDEST POP PUSH2 0x134 PUSH2 0x1B1 CALLDATASIZE PUSH1 0x4 PUSH2 0xD8C JUMP JUMPDEST PUSH2 0x43C JUMP JUMPDEST CALLVALUE DUP1 ISZERO PUSH2 0x1C2 JUMPI PUSH1 0x0 DUP1 REVERT JUMPDEST POP PUSH2 0x163 PUSH1 0x2 SLOAD DUP2 JUMP JUMPDEST PUSH2 0x134 PUSH2 0x1DA CALLDATASIZE PUSH1 0x4 PUSH2 0xDB6 JUMP JUMPDEST PUSH2 0x4FD JUMP JUMPDEST CALLVALUE DUP1 ISZERO PUSH2 0x1EB JUMPI PUSH1 0x0 DUP1 REVERT JUMPDEST POP PUSH2 0x134 PUSH2 0x1FA CALLDATASIZE PUSH1 0x4 PUSH2 0xD73 JUMP JUMPDEST PUSH2 0x84D JUMP JUMPDEST CALLVALUE DUP1 ISZERO PUSH2 0x20B JUMPI PUSH1 0x0 DUP1 REVERT JUMPDEST POP PUSH2 0x163 PUSH1 0xB SLOAD DUP2 JUMP JUMPDEST CALLVALUE DUP1 ISZERO PUSH2 0x221 JUMPI PUSH1 0x0 DUP1 REVERT JUMPDEST POP PUSH2 0x163 PUSH1 0x1 SLOAD DUP2 JUMP JUMPDEST CALLVALUE DUP1 ISZERO PUSH2 0x237 JUMPI PUSH1 0x0 DUP1 REVERT JUMPDEST POP PUSH2 0x134 PUSH2 0x87C JUMP JUMPDEST CALLVALUE DUP1 ISZERO PUSH2 0x24C JUMPI PUSH1 0x0 DUP1 REVERT JUMPDEST POP PUSH2 0x163 PUSH1 0x8 SLOAD DUP2 JUMP JUMPDEST CALLVALUE DUP1 ISZERO PUSH2 0x262 JUMPI PUSH1 0x0 DUP1 REVERT JUMPDEST POP PUSH2 0x163 PUSH2 0x271 CALLDATASIZE PUSH1 0x4 PUSH2 0xD73 JUMP JUMPDEST PUSH2 0x8F0 JUMP JUMPDEST CALLVALUE DUP1 ISZERO PUSH2 0x282 JUMPI PUSH1 0x0 DUP1 REVERT JUMPDEST POP PUSH2 0x163 PUSH2 0x291 CALLDATASIZE PUSH1 0x4 PUSH2 0xD58 JUMP JUMPDEST PUSH1 0xE PUSH1 0x20 MSTORE PUSH1 0x0 SWAP1 DUP2 MSTORE PUSH1 0x40 SWAP1 KECCAK256 SLOAD DUP2 JUMP JUMPDEST CALLVALUE DUP1 ISZERO PUSH2 0x2AF JUMPI PUSH1 0x0 DUP1 REVERT JUMPDEST POP PUSH1 0x0 SLOAD PUSH1 0x40 MLOAD PUSH1 0x1 PUSH1 0x1 PUSH1 0xA0 SHL SUB SWAP1 SWAP2 AND DUP2 MSTORE PUSH1 0x20 ADD PUSH2 0x16D JUMP JUMPDEST CALLVALUE DUP1 ISZERO PUSH2 0x2D7 JUMPI PUSH1 0x0 DUP1 REVERT JUMPDEST POP PUSH1 0x7 SLOAD PUSH2 0x163 JUMP JUMPDEST CALLVALUE DUP1 ISZERO PUSH2 0x2EC JUMPI PUSH1 0x0 DUP1 REVERT JUMPDEST POP PUSH2 0x134 PUSH2 0x953 JUMP JUMPDEST CALLVALUE DUP1 ISZERO PUSH2 0x301 JUMPI PUSH1 0x0 DUP1 REVERT JUMPDEST POP PUSH2 0x163 PUSH1 0x9 SLOAD DUP2 JUMP JUMPDEST CALLVALUE DUP1 ISZERO PUSH2 0x317 JUMPI PUSH1 0x0 DUP1 REVERT JUMPDEST POP PUSH2 0x163 PUSH2 0x326 CALLDATASIZE PUSH1 0x4 PUSH2 0xD58 JUMP JUMPDEST PUSH1 0x1 PUSH1 0x1 PUSH1 0xA0 SHL SUB AND PUSH1 0x0 SWAP1 DUP2 MSTORE PUSH1 0xD PUSH1 0x20 MSTORE PUSH1 0x40 SWAP1 KECCAK256 SLOAD SWAP1 JUMP JUMPDEST CALLVALUE DUP1 ISZERO PUSH2 0x34D JUMPI PUSH1 0x0 DUP1 REVERT JUMPDEST POP PUSH2 0x134 PUSH2 0x35C CALLDATASIZE PUSH1 0x4 PUSH2 0xD73 JUMP JUMPDEST PUSH2 0xA31 JUMP JUMPDEST CALLVALUE DUP1 ISZERO PUSH2 0x36D JUMPI PUSH1 0x0 DUP1 REVERT JUMPDEST POP PUSH2 0x134 PUSH2 0xA60 JUMP JUMPDEST CALLVALUE DUP1 ISZERO PUSH2 0x382 JUMPI PUSH1 0x0 DUP1 REVERT JUMPDEST POP PUSH2 0x163 PUSH1 0xA SLOAD DUP2 JUMP JUMPDEST CALLVALUE DUP1 ISZERO PUSH2 0x398 JUMPI PUSH1 0x0 DUP1 REVERT JUMPDEST POP PUSH2 0x134 PUSH2 0x3A7 CALLDATASIZE PUSH1 0x4 PUSH2 0xD58 JUMP JUMPDEST PUSH2 0xA91 JUMP JUMPDEST CALLVALUE DUP1 ISZERO PUSH2 0x3B8 JUMPI PUSH1 0x0 DUP1 REVERT JUMPDEST POP PUSH2 0x134 PUSH2 0x3C7 CALLDATASIZE PUSH1 0x4 PUSH2 0xD73 JUMP JUMPDEST PUSH2 0xAC4 JUMP JUMPDEST PUSH1 0x0 SLOAD PUSH1 0x1 PUSH1 0x1 PUSH1 0xA0 SHL SUB AND CALLER EQ PUSH2 0x3FF JUMPI PUSH1 0x40 MLOAD PUSH3 0x461BCD PUSH1 0xE5 SHL DUP2 MSTORE PUSH1 0x4 ADD PUSH2 0x3F6 SWAP1 PUSH2 0xE2B JUMP JUMPDEST PUSH1 0x40 MLOAD DUP1 SWAP2 SUB SWAP1 REVERT JUMPDEST PUSH1 0x1 DUP2 DUP2 SSTORE DUP2 SWAP1 SUB PUSH2 0x420 JUMPI PUSH1 0x9 SLOAD PUSH1 0x3 SLOAD PUSH2 0x41A SWAP2 PUSH2 0xB8C JUMP JUMPDEST PUSH1 0x7 SSTORE POP JUMP JUMPDEST PUSH1 0x1 SLOAD PUSH1 0x2 SUB PUSH2 0x439 JUMPI PUSH1 0xB SLOAD PUSH1 0x6 SLOAD PUSH2 0x41A SWAP2 PUSH2 0xB8C JUMP JUMPDEST POP JUMP JUMPDEST PUSH1 0x0 SLOAD PUSH1 0x1 PUSH1 0x1 PUSH1 0xA0 SHL SUB AND CALLER EQ PUSH2 0x466 JUMPI PUSH1 0x40 MLOAD PUSH3 0x461BCD PUSH1 0xE5 SHL DUP2 MSTORE PUSH1 0x4 ADD PUSH2 0x3F6 SWAP1 PUSH2 0xE2B JUMP JUMPDEST DUP2 PUSH1 0x1 PUSH1 0x1 PUSH1 0xA0 SHL SUB AND PUSH4 0xA9059CBB PUSH2 0x487 PUSH1 0x0 SLOAD PUSH1 0x1 PUSH1 0x1 PUSH1 0xA0 SHL SUB AND SWAP1 JUMP JUMPDEST PUSH1 0x40 MLOAD PUSH1 0x1 PUSH1 0x1 PUSH1 0xE0 SHL SUB NOT PUSH1 0xE0 DUP5 SWAP1 SHL AND DUP2 MSTORE PUSH1 0x1 PUSH1 0x1 PUSH1 0xA0 SHL SUB SWAP1 SWAP2 AND PUSH1 0x4 DUP3 ADD MSTORE PUSH1 0x24 DUP2 ADD DUP5 SWAP1 MSTORE PUSH1 0x44 ADD PUSH1 0x20 PUSH1 0x40 MLOAD DUP1 DUP4 SUB DUP2 PUSH1 0x0 DUP8 GAS CALL ISZERO DUP1 ISZERO PUSH2 0x4D4 JUMPI RETURNDATASIZE PUSH1 0x0 DUP1 RETURNDATACOPY RETURNDATASIZE PUSH1 0x0 REVERT JUMPDEST POP POP POP POP PUSH1 0x40 MLOAD RETURNDATASIZE PUSH1 0x1F NOT PUSH1 0x1F DUP3 ADD AND DUP3 ADD DUP1 PUSH1 0x40 MSTORE POP DUP2 ADD SWAP1 PUSH2 0x4F8 SWAP2 SWAP1 PUSH2 0xE60 JUMP JUMPDEST POP POP POP JUMP JUMPDEST PUSH1 0x40 MLOAD PUSH12 0xFFFFFFFFFFFFFFFFFFFFFFFF NOT CALLER PUSH1 0x60 SHL AND PUSH1 0x20 DUP3 ADD MSTORE DUP3 SWAP1 DUP3 SWAP1 PUSH2 0x542 SWAP1 DUP4 SWAP1 DUP4 SWAP1 PUSH1 0x34 ADD PUSH1 0x40 MLOAD PUSH1 0x20 DUP2 DUP4 SUB SUB DUP2 MSTORE SWAP1 PUSH1 0x40 MSTORE DUP1 MLOAD SWAP1 PUSH1 0x20 ADD KECCAK256 PUSH2 0xB9F JUMP JUMPDEST DUP1 PUSH2 0x54F JUMPI POP PUSH1 0x1 SLOAD PUSH1 0x2 EQ JUMPDEST PUSH2 0x59B JUMPI PUSH1 0x40 MLOAD PUSH3 0x461BCD PUSH1 0xE5 SHL DUP2 MSTORE PUSH1 0x20 PUSH1 0x4 DUP3 ADD MSTORE PUSH1 0x17 PUSH1 0x24 DUP3 ADD MSTORE PUSH32 0x4E6F742057686974654C69737465642041646472657373000000000000000000 PUSH1 0x44 DUP3 ADD MSTORE PUSH1 0x64 ADD PUSH2 0x3F6 JUMP JUMPDEST PUSH1 0x0 PUSH1 0x1 SLOAD GT DUP1 ISZERO PUSH2 0x5AF JUMPI POP PUSH1 0x3 PUSH1 0x1 SLOAD LT JUMPDEST PUSH2 0x5FB JUMPI PUSH1 0x40 MLOAD PUSH3 0x461BCD PUSH1 0xE5 SHL DUP2 MSTORE PUSH1 0x20 PUSH1 0x4 DUP3 ADD MSTORE PUSH1 0x17 PUSH1 0x24 DUP3 ADD MSTORE PUSH32 0x4E6F7420616C6C6F77656420746F20627579206E6F772E000000000000000000 PUSH1 0x44 DUP3 ADD MSTORE PUSH1 0x64 ADD PUSH2 0x3F6 JUMP JUMPDEST PUSH1 0x1 SLOAD PUSH1 0x1 SUB PUSH2 0x717 JUMPI CALLER PUSH1 0x0 SWAP1 DUP2 MSTORE PUSH1 0xE PUSH1 0x20 MSTORE PUSH1 0x40 SWAP1 KECCAK256 SLOAD PUSH2 0x620 SWAP1 CALLVALUE SWAP1 PUSH2 0xE98 JUMP JUMPDEST PUSH1 0x5 SLOAD LT ISZERO DUP1 ISZERO PUSH2 0x64D JUMPI POP PUSH1 0x4 SLOAD CALLER PUSH1 0x0 SWAP1 DUP2 MSTORE PUSH1 0xE PUSH1 0x20 MSTORE PUSH1 0x40 SWAP1 KECCAK256 SLOAD PUSH2 0x64A SWAP1 CALLVALUE SWAP1 PUSH2 0xE98 JUMP JUMPDEST LT ISZERO JUMPDEST PUSH2 0x6BF JUMPI PUSH1 0x40 MLOAD PUSH3 0x461BCD PUSH1 0xE5 SHL DUP2 MSTORE PUSH1 0x20 PUSH1 0x4 DUP3 ADD MSTORE PUSH1 0x3D PUSH1 0x24 DUP3 ADD MSTORE PUSH32 0x416D6F756E7420697320616C6C6F77656420302E30312065746820746F203130 PUSH1 0x44 DUP3 ADD MSTORE PUSH32 0x2065746820666F72206F6E6C79206C697374656420616464726573732E000000 PUSH1 0x64 DUP3 ADD MSTORE PUSH1 0x84 ADD PUSH2 0x3F6 JUMP JUMPDEST CALLVALUE PUSH1 0x8 SLOAD PUSH2 0x6CD SWAP2 SWAP1 PUSH2 0xE98 JUMP JUMPDEST PUSH1 0x3 SLOAD LT ISZERO PUSH2 0x717 JUMPI PUSH1 0x40 MLOAD PUSH3 0x461BCD PUSH1 0xE5 SHL DUP2 MSTORE PUSH1 0x20 PUSH1 0x4 DUP3 ADD MSTORE PUSH1 0x16 PUSH1 0x24 DUP3 ADD MSTORE PUSH22 0x10D85B9B9BDD08189D5E481D1A1A5CC8185B5BDD5B9D PUSH1 0x52 SHL PUSH1 0x44 DUP3 ADD MSTORE PUSH1 0x64 ADD PUSH2 0x3F6 JUMP JUMPDEST PUSH1 0x0 PUSH2 0x722 CALLVALUE PUSH2 0x8F0 JUMP JUMPDEST SWAP1 POP PUSH1 0x1 SLOAD PUSH1 0x1 SUB PUSH2 0x74B JUMPI CALLVALUE PUSH1 0x8 PUSH1 0x0 DUP3 DUP3 SLOAD PUSH2 0x740 SWAP2 SWAP1 PUSH2 0xE98 JUMP JUMPDEST SWAP1 SWAP2 SSTORE POP PUSH2 0x763 SWAP1 POP JUMP JUMPDEST CALLVALUE PUSH1 0xA PUSH1 0x0 DUP3 DUP3 SLOAD PUSH2 0x75D SWAP2 SWAP1 PUSH2 0xE98 JUMP JUMPDEST SWAP1 SWAP2 SSTORE POP POP JUMPDEST PUSH1 0x0 DUP1 SLOAD PUSH1 0x40 MLOAD PUSH1 0x1 PUSH1 0x1 PUSH1 0xA0 SHL SUB SWAP1 SWAP2 AND SWAP1 CALLVALUE SWAP1 DUP4 DUP2 DUP2 DUP2 DUP6 DUP8 GAS CALL SWAP3 POP POP POP RETURNDATASIZE DUP1 PUSH1 0x0 DUP2 EQ PUSH2 0x7B0 JUMPI PUSH1 0x40 MLOAD SWAP2 POP PUSH1 0x1F NOT PUSH1 0x3F RETURNDATASIZE ADD AND DUP3 ADD PUSH1 0x40 MSTORE RETURNDATASIZE DUP3 MSTORE RETURNDATASIZE PUSH1 0x0 PUSH1 0x20 DUP5 ADD RETURNDATACOPY PUSH2 0x7B5 JUMP JUMPDEST PUSH1 0x60 SWAP2 POP JUMPDEST POP POP SWAP1 POP DUP1 PUSH2 0x7FD JUMPI PUSH1 0x40 MLOAD PUSH3 0x461BCD PUSH1 0xE5 SHL DUP2 MSTORE PUSH1 0x20 PUSH1 0x4 DUP3 ADD MSTORE PUSH1 0x14 PUSH1 0x24 DUP3 ADD MSTORE PUSH20 0x2330B4B632B2103A379039B2B7321022BA3432B9 PUSH1 0x61 SHL PUSH1 0x44 DUP3 ADD MSTORE PUSH1 0x64 ADD PUSH2 0x3F6 JUMP JUMPDEST CALLER PUSH1 0x0 SWAP1 DUP2 MSTORE PUSH1 0xD PUSH1 0x20 MSTORE PUSH1 0x40 DUP2 KECCAK256 DUP1 SLOAD DUP5 SWAP3 SWAP1 PUSH2 0x81C SWAP1 DUP5 SWAP1 PUSH2 0xE98 JUMP JUMPDEST SWAP1 SWAP2 SSTORE POP POP CALLER PUSH1 0x0 SWAP1 DUP2 MSTORE PUSH1 0xE PUSH1 0x20 MSTORE PUSH1 0x40 DUP2 KECCAK256 DUP1 SLOAD CALLVALUE SWAP3 SWAP1 PUSH2 0x840 SWAP1 DUP5 SWAP1 PUSH2 0xE98 JUMP JUMPDEST SWAP1 SWAP2 SSTORE POP POP POP POP POP POP POP POP JUMP JUMPDEST PUSH1 0x0 SLOAD PUSH1 0x1 PUSH1 0x1 PUSH1 0xA0 SHL SUB AND CALLER EQ PUSH2 0x877 JUMPI PUSH1 0x40 MLOAD PUSH3 0x461BCD PUSH1 0xE5 SHL DUP2 MSTORE PUSH1 0x4 ADD PUSH2 0x3F6 SWAP1 PUSH2 0xE2B JUMP JUMPDEST PUSH1 0x2 SSTORE JUMP JUMPDEST PUSH1 0x0 SLOAD PUSH1 0x1 PUSH1 0x1 PUSH1 0xA0 SHL SUB AND CALLER EQ PUSH2 0x8A6 JUMPI PUSH1 0x40 MLOAD PUSH3 0x461BCD PUSH1 0xE5 SHL DUP2 MSTORE PUSH1 0x4 ADD PUSH2 0x3F6 SWAP1 PUSH2 0xE2B JUMP JUMPDEST PUSH1 0x0 DUP1 SLOAD PUSH1 0x40 MLOAD PUSH1 0x1 PUSH1 0x1 PUSH1 0xA0 SHL SUB SWAP1 SWAP2 AND SWAP1 PUSH32 0x8BE0079C531659141344CD1FD0A4F28419497F9722A3DAAFE3B4186F6B6457E0 SWAP1 DUP4 SWAP1 LOG3 PUSH1 0x0 DUP1 SLOAD PUSH1 0x1 PUSH1 0x1 PUSH1 0xA0 SHL SUB NOT AND SWAP1 SSTORE JUMP JUMPDEST PUSH1 0x0 PUSH1 0x1 SLOAD PUSH1 0x2 EQ DUP1 ISZERO PUSH2 0x912 JUMPI POP PUSH1 0x6 SLOAD DUP3 PUSH1 0xA SLOAD PUSH2 0x910 SWAP2 SWAP1 PUSH2 0xE98 JUMP JUMPDEST GT JUMPDEST ISZERO PUSH2 0x93F JUMPI PUSH2 0x931 PUSH1 0xB SLOAD DUP4 PUSH1 0xA SLOAD PUSH2 0x92B SWAP2 SWAP1 PUSH2 0xE98 JUMP JUMPDEST SWAP1 PUSH2 0xB8C JUMP JUMPDEST PUSH1 0x7 DUP2 SWAP1 SSTORE PUSH2 0x93F SWAP1 PUSH2 0xA31 JUMP JUMPDEST PUSH1 0x7 SLOAD PUSH2 0x94D SWAP1 DUP4 SWAP1 PUSH2 0xB8C JUMP JUMPDEST SWAP3 SWAP2 POP POP JUMP JUMPDEST CALLER PUSH1 0x0 MSTORE PUSH1 0xD PUSH1 0x20 MSTORE PUSH1 0xC SLOAD CALLER PUSH1 0x0 DUP2 DUP2 MSTORE PUSH1 0xD PUSH1 0x20 MSTORE PUSH1 0x40 SWAP1 DUP2 SWAP1 KECCAK256 SLOAD SWAP1 MLOAD PUSH4 0xA9059CBB PUSH1 0xE0 SHL DUP2 MSTORE PUSH1 0x4 DUP2 ADD SWAP3 SWAP1 SWAP3 MSTORE PUSH1 0x24 DUP3 ADD MSTORE PUSH1 0x1 PUSH1 0x1 PUSH1 0xA0 SHL SUB SWAP1 SWAP2 AND SWAP1 PUSH4 0xA9059CBB SWAP1 PUSH1 0x44 ADD PUSH1 0x20 PUSH1 0x40 MLOAD DUP1 DUP4 SUB DUP2 PUSH1 0x0 DUP8 GAS CALL ISZERO DUP1 ISZERO PUSH2 0x9BE JUMPI RETURNDATASIZE PUSH1 0x0 DUP1 RETURNDATACOPY RETURNDATASIZE PUSH1 0x0 REVERT JUMPDEST POP POP POP POP PUSH1 0x40 MLOAD RETURNDATASIZE PUSH1 0x1F NOT PUSH1 0x1F DUP3 ADD AND DUP3 ADD DUP1 PUSH1 0x40 MSTORE POP DUP2 ADD SWAP1 PUSH2 0x9E2 SWAP2 SWAP1 PUSH2 0xE60 JUMP JUMPDEST POP CALLER PUSH1 0x0 DUP2 DUP2 MSTORE PUSH1 0xD PUSH1 0x20 SWAP1 DUP2 MSTORE PUSH1 0x40 DUP1 DUP4 KECCAK256 DUP4 SWAP1 SSTORE DUP1 MLOAD SWAP4 DUP5 MSTORE SWAP1 DUP4 ADD SWAP2 SWAP1 SWAP2 MSTORE PUSH32 0x47CEE97CB7ACD717B3C0AA1435D004CD5B3C8C57D70DBCEB4E4458BBD60E39D4 SWAP2 ADD PUSH1 0x40 MLOAD DUP1 SWAP2 SUB SWAP1 LOG1 JUMP JUMPDEST PUSH1 0x0 SLOAD PUSH1 0x1 PUSH1 0x1 PUSH1 0xA0 SHL SUB AND CALLER EQ PUSH2 0xA5B JUMPI PUSH1 0x40 MLOAD PUSH3 0x461BCD PUSH1 0xE5 SHL DUP2 MSTORE PUSH1 0x4 ADD PUSH2 0x3F6 SWAP1 PUSH2 0xE2B JUMP JUMPDEST PUSH1 0x7 SSTORE JUMP JUMPDEST PUSH1 0x0 SLOAD PUSH1 0x1 PUSH1 0x1 PUSH1 0xA0 SHL SUB AND CALLER EQ PUSH2 0xA8A JUMPI PUSH1 0x40 MLOAD PUSH3 0x461BCD PUSH1 0xE5 SHL DUP2 MSTORE PUSH1 0x4 ADD PUSH2 0x3F6 SWAP1 PUSH2 0xE2B JUMP JUMPDEST PUSH1 0x3 PUSH1 0x1 SSTORE JUMP JUMPDEST PUSH1 0x0 SLOAD PUSH1 0x1 PUSH1 0x1 PUSH1 0xA0 SHL SUB AND CALLER EQ PUSH2 0xABB JUMPI PUSH1 0x40 MLOAD PUSH3 0x461BCD PUSH1 0xE5 SHL DUP2 MSTORE PUSH1 0x4 ADD PUSH2 0x3F6 SWAP1 PUSH2 0xE2B JUMP JUMPDEST PUSH2 0x439 DUP2 PUSH2 0xBEA JUMP JUMPDEST PUSH1 0x0 SLOAD PUSH1 0x1 PUSH1 0x1 PUSH1 0xA0 SHL SUB AND CALLER EQ PUSH2 0xAEE JUMPI PUSH1 0x40 MLOAD PUSH3 0x461BCD PUSH1 0xE5 SHL DUP2 MSTORE PUSH1 0x4 ADD PUSH2 0x3F6 SWAP1 PUSH2 0xE2B JUMP JUMPDEST PUSH1 0x0 DUP1 SLOAD PUSH1 0x40 MLOAD PUSH1 0x1 PUSH1 0x1 PUSH1 0xA0 SHL SUB SWAP1 SWAP2 AND SWAP1 DUP4 SWAP1 DUP4 DUP2 DUP2 DUP2 DUP6 DUP8 GAS CALL SWAP3 POP POP POP RETURNDATASIZE DUP1 PUSH1 0x0 DUP2 EQ PUSH2 0xB3B JUMPI PUSH1 0x40 MLOAD SWAP2 POP PUSH1 0x1F NOT PUSH1 0x3F RETURNDATASIZE ADD AND DUP3 ADD PUSH1 0x40 MSTORE RETURNDATASIZE DUP3 MSTORE RETURNDATASIZE PUSH1 0x0 PUSH1 0x20 DUP5 ADD RETURNDATACOPY PUSH2 0xB40 JUMP JUMPDEST PUSH1 0x60 SWAP2 POP JUMPDEST POP POP SWAP1 POP DUP1 PUSH2 0xB88 JUMPI PUSH1 0x40 MLOAD PUSH3 0x461BCD PUSH1 0xE5 SHL DUP2 MSTORE PUSH1 0x20 PUSH1 0x4 DUP3 ADD MSTORE PUSH1 0x14 PUSH1 0x24 DUP3 ADD MSTORE PUSH20 0x2330B4B632B2103A379039B2B7321022BA3432B9 PUSH1 0x61 SHL PUSH1 0x44 DUP3 ADD MSTORE PUSH1 0x64 ADD PUSH2 0x3F6 JUMP JUMPDEST POP POP JUMP JUMPDEST PUSH1 0x0 PUSH2 0xB98 DUP3 DUP5 PUSH2 0xEAB JUMP JUMPDEST SWAP4 SWAP3 POP POP POP JUMP JUMPDEST PUSH1 0x0 PUSH2 0xBE2 DUP5 DUP5 DUP1 DUP1 PUSH1 0x20 MUL PUSH1 0x20 ADD PUSH1 0x40 MLOAD SWAP1 DUP2 ADD PUSH1 0x40 MSTORE DUP1 SWAP4 SWAP3 SWAP2 SWAP1 DUP2 DUP2 MSTORE PUSH1 0x20 ADD DUP4 DUP4 PUSH1 0x20 MUL DUP1 DUP3 DUP5 CALLDATACOPY PUSH1 0x0 SWAP3 ADD SWAP2 SWAP1 SWAP2 MSTORE POP POP PUSH1 0x2 SLOAD SWAP2 POP DUP6 SWAP1 POP PUSH2 0xCAA JUMP JUMPDEST SWAP5 SWAP4 POP POP POP POP JUMP JUMPDEST PUSH1 0x1 PUSH1 0x1 PUSH1 0xA0 SHL SUB DUP2 AND PUSH2 0xC4F JUMPI PUSH1 0x40 MLOAD PUSH3 0x461BCD PUSH1 0xE5 SHL DUP2 MSTORE PUSH1 0x20 PUSH1 0x4 DUP3 ADD MSTORE PUSH1 0x26 PUSH1 0x24 DUP3 ADD MSTORE PUSH32 0x4F776E61626C653A206E6577206F776E657220697320746865207A65726F2061 PUSH1 0x44 DUP3 ADD MSTORE PUSH6 0x646472657373 PUSH1 0xD0 SHL PUSH1 0x64 DUP3 ADD MSTORE PUSH1 0x84 ADD PUSH2 0x3F6 JUMP JUMPDEST PUSH1 0x0 DUP1 SLOAD PUSH1 0x40 MLOAD PUSH1 0x1 PUSH1 0x1 PUSH1 0xA0 SHL SUB DUP1 DUP6 AND SWAP4 SWAP3 AND SWAP2 PUSH32 0x8BE0079C531659141344CD1FD0A4F28419497F9722A3DAAFE3B4186F6B6457E0 SWAP2 LOG3 PUSH1 0x0 DUP1 SLOAD PUSH1 0x1 PUSH1 0x1 PUSH1 0xA0 SHL SUB NOT AND PUSH1 0x1 PUSH1 0x1 PUSH1 0xA0 SHL SUB SWAP3 SWAP1 SWAP3 AND SWAP2 SWAP1 SWAP2 OR SWAP1 SSTORE JUMP JUMPDEST PUSH1 0x0 DUP3 PUSH2 0xCB7 DUP6 DUP5 PUSH2 0xCC0 JUMP JUMPDEST EQ SWAP5 SWAP4 POP POP POP POP JUMP JUMPDEST PUSH1 0x0 DUP2 DUP2 JUMPDEST DUP5 MLOAD DUP2 LT ISZERO PUSH2 0xD05 JUMPI PUSH2 0xCF1 DUP3 DUP7 DUP4 DUP2 MLOAD DUP2 LT PUSH2 0xCE4 JUMPI PUSH2 0xCE4 PUSH2 0xECD JUMP JUMPDEST PUSH1 0x20 MUL PUSH1 0x20 ADD ADD MLOAD PUSH2 0xD0D JUMP JUMPDEST SWAP2 POP DUP1 PUSH2 0xCFD DUP2 PUSH2 0xEE3 JUMP JUMPDEST SWAP2 POP POP PUSH2 0xCC5 JUMP JUMPDEST POP SWAP4 SWAP3 POP POP POP JUMP JUMPDEST PUSH1 0x0 DUP2 DUP4 LT PUSH2 0xD29 JUMPI PUSH1 0x0 DUP3 DUP2 MSTORE PUSH1 0x20 DUP5 SWAP1 MSTORE PUSH1 0x40 SWAP1 KECCAK256 PUSH2 0xB98 JUMP JUMPDEST PUSH1 0x0 DUP4 DUP2 MSTORE PUSH1 0x20 DUP4 SWAP1 MSTORE PUSH1 0x40 SWAP1 KECCAK256 PUSH2 0xB98 JUMP JUMPDEST DUP1 CALLDATALOAD PUSH1 0x1 PUSH1 0x1 PUSH1 0xA0 SHL SUB DUP2 AND DUP2 EQ PUSH2 0xD53 JUMPI PUSH1 0x0 DUP1 REVERT JUMPDEST SWAP2 SWAP1 POP JUMP JUMPDEST PUSH1 0x0 PUSH1 0x20 DUP3 DUP5 SUB SLT ISZERO PUSH2 0xD6A JUMPI PUSH1 0x0 DUP1 REVERT JUMPDEST PUSH2 0xB98 DUP3 PUSH2 0xD3C JUMP JUMPDEST PUSH1 0x0 PUSH1 0x20 DUP3 DUP5 SUB SLT ISZERO PUSH2 0xD85 JUMPI PUSH1 0x0 DUP1 REVERT JUMPDEST POP CALLDATALOAD SWAP2 SWAP1 POP JUMP JUMPDEST PUSH1 0x0 DUP1 PUSH1 0x40 DUP4 DUP6 SUB SLT ISZERO PUSH2 0xD9F JUMPI PUSH1 0x0 DUP1 REVERT JUMPDEST PUSH2 0xDA8 DUP4 PUSH2 0xD3C JUMP JUMPDEST SWAP5 PUSH1 0x20 SWAP4 SWAP1 SWAP4 ADD CALLDATALOAD SWAP4 POP POP POP JUMP JUMPDEST PUSH1 0x0 DUP1 PUSH1 0x20 DUP4 DUP6 SUB SLT ISZERO PUSH2 0xDC9 JUMPI PUSH1 0x0 DUP1 REVERT JUMPDEST DUP3 CALLDATALOAD PUSH8 0xFFFFFFFFFFFFFFFF DUP1 DUP3 GT ISZERO PUSH2 0xDE1 JUMPI PUSH1 0x0 DUP1 REVERT JUMPDEST DUP2 DUP6 ADD SWAP2 POP DUP6 PUSH1 0x1F DUP4 ADD SLT PUSH2 0xDF5 JUMPI PUSH1 0x0 DUP1 REVERT JUMPDEST DUP2 CALLDATALOAD DUP2 DUP2 GT ISZERO PUSH2 0xE04 JUMPI PUSH1 0x0 DUP1 REVERT JUMPDEST DUP7 PUSH1 0x20 DUP3 PUSH1 0x5 SHL DUP6 ADD ADD GT ISZERO PUSH2 0xE19 JUMPI PUSH1 0x0 DUP1 REVERT JUMPDEST PUSH1 0x20 SWAP3 SWAP1 SWAP3 ADD SWAP7 SWAP2 SWAP6 POP SWAP1 SWAP4 POP POP POP POP JUMP JUMPDEST PUSH1 0x20 DUP1 DUP3 MSTORE DUP2 DUP2 ADD MSTORE PUSH32 0x4F776E61626C653A2063616C6C6572206973206E6F7420746865206F776E6572 PUSH1 0x40 DUP3 ADD MSTORE PUSH1 0x60 ADD SWAP1 JUMP JUMPDEST PUSH1 0x0 PUSH1 0x20 DUP3 DUP5 SUB SLT ISZERO PUSH2 0xE72 JUMPI PUSH1 0x0 DUP1 REVERT JUMPDEST DUP2 MLOAD DUP1 ISZERO ISZERO DUP2 EQ PUSH2 0xB98 JUMPI PUSH1 0x0 DUP1 REVERT JUMPDEST PUSH4 0x4E487B71 PUSH1 0xE0 SHL PUSH1 0x0 MSTORE PUSH1 0x11 PUSH1 0x4 MSTORE PUSH1 0x24 PUSH1 0x0 REVERT JUMPDEST DUP1 DUP3 ADD DUP1 DUP3 GT ISZERO PUSH2 0x94D JUMPI PUSH2 0x94D PUSH2 0xE82 JUMP JUMPDEST PUSH1 0x0 DUP3 PUSH2 0xEC8 JUMPI PUSH4 0x4E487B71 PUSH1 0xE0 SHL PUSH1 0x0 MSTORE PUSH1 0x12 PUSH1 0x4 MSTORE PUSH1 0x24 PUSH1 0x0 REVERT JUMPDEST POP DIV SWAP1 JUMP JUMPDEST PUSH4 0x4E487B71 PUSH1 0xE0 SHL PUSH1 0x0 MSTORE PUSH1 0x32 PUSH1 0x4 MSTORE PUSH1 0x24 PUSH1 0x0 REVERT JUMPDEST PUSH1 0x0 PUSH1 0x1 DUP3 ADD PUSH2 0xEF5 JUMPI PUSH2 0xEF5 PUSH2 0xE82 JUMP JUMPDEST POP PUSH1 0x1 ADD SWAP1 JUMP INVALID LOG2 PUSH5 0x6970667358 0x22 SLT KECCAK256 0xE5 0xDE 0xAE 0x4B DUP4 PUSH30 0xBB786C0D7B1E7823031FC68431B503ADBB0D85274B51A37818F964736F6C PUSH4 0x43000812 STOP CALLER "},"gasEstimates":{"creation":{"codeDepositCost":"778000","executionCost":"infinite","totalCost":"infinite"},"external":{"":"207","buy(bytes32[])":"infinite","calcTokenAmount(uint256)":"infinite","claimETH(uint256)":"infinite","claimRewardToken()":"infinite","claimToken(address,uint256)":"infinite","getClaimAmount(address)":"2548","getPrice()":"2348","owner()":"2346","privateSaleAllocation()":"2395","privateSaleTotalSaled()":"2395","publicSaleAllocation()":"2329","publicSaleTotalSaled()":"2372","renounceOwnership()":"30254","resetPrice(uint256)":"24508","rootHash()":"2374","saleIndex()":"2351","setRootHash(bytes32)":"24487","startSale(uint256)":"53074","stopSale()":"24456","transferOwnership(address)":"30539","userDeposited(address)":"2531","userRewards(address)":"2532"},"internal":{"isValidProof(bytes32[] calldata,bytes32)":"infinite"}},"methodIdentifiers":{"buy(bytes32[])":"29ec7eed","calcTokenAmount(uint256)":"7b7902dd","claimETH(uint256)":"fe96973a","claimRewardToken()":"afd18916","claimToken(address,uint256)":"1698755f","getClaimAmount(address)":"dde070e8","getPrice()":"98d5fdca","owner()":"8da5cb5b","privateSaleAllocation()":"c8aad250","privateSaleTotalSaled()":"78442876","publicSaleAllocation()":"34ad1f32","publicSaleTotalSaled()":"e7a6ac55","renounceOwnership()":"715018a6","resetPrice(uint256)":"de8e81ed","rootHash()":"1d80009a","saleIndex()":"6ec012e7","setRootHash(bytes32)":"2d7eae66","startSale(uint256)":"0e3ab61d","stopSale()":"e36b0b37","transferOwnership(address)":"f2fde38b","userDeposited(address)":"8092be4a","userRewards(address)":"0660f1e8"}},"storageLayout":{"storage":[{"astId":418,"contract":"contracts/IDO.sol:IDO","label":"_owner","offset":0,"slot":"0","type":"t_address"},{"astId":529,"contract":"contracts/IDO.sol:IDO","label":"saleIndex","offset":0,"slot":"1","type":"t_uint256"},{"astId":1126,"contract":"contracts/IDO.sol:IDO","label":"rootHash","offset":0,"slot":"2","type":"t_bytes32"},{"astId":1131,"contract":"contracts/IDO.sol:IDO","label":"privateSaleHardcap","offset":0,"slot":"3","type":"t_uint256"},{"astId":1134,"contract":"contracts/IDO.sol:IDO","label":"minETHAmount","offset":0,"slot":"4","type":"t_uint256"},{"astId":1137,"contract":"contracts/IDO.sol:IDO","label":"maxETHAmount","offset":0,"slot":"5","type":"t_uint256"},{"astId":1142,"contract":"contracts/IDO.sol:IDO","label":"publicSaleHardcap","offset":0,"slot":"6","type":"t_uint256"},{"astId":1144,"contract":"contracts/IDO.sol:IDO","label":"tokenPrice","offset":0,"slot":"7","type":"t_uint256"},{"astId":1147,"contract":"contracts/IDO.sol:IDO","label":"privateSaleTotalSaled","offset":0,"slot":"8","type":"t_uint256"},{"astId":1152,"contract":"contracts/IDO.sol:IDO","label":"privateSaleAllocation","offset":0,"slot":"9","type":"t_uint256"},{"astId":1155,"contract":"contracts/IDO.sol:IDO","label":"publicSaleTotalSaled","offset":0,"slot":"10","type":"t_uint256"},{"astId":1160,"contract":"contracts/IDO.sol:IDO","label":"publicSaleAllocation","offset":0,"slot":"11","type":"t_uint256"},{"astId":1162,"contract":"contracts/IDO.sol:IDO","label":"rewardAddress","offset":0,"slot":"12","type":"t_address"},{"astId":1166,"contract":"contracts/IDO.sol:IDO","label":"userRewards","offset":0,"slot":"13","type":"t_mapping(t_address,t_uint256)"},{"astId":1170,"contract":"contracts/IDO.sol:IDO","label":"userDeposited","offset":0,"slot":"14","type":"t_mapping(t_address,t_uint256)"}],"types":{"t_address":{"encoding":"inplace","label":"address","numberOfBytes":"20"},"t_bytes32":{"encoding":"inplace","label":"bytes32","numberOfBytes":"32"},"t_mapping(t_address,t_uint256)":{"encoding":"mapping","key":"t_address","label":"mapping(address => uint256)","numberOfBytes":"32","value":"t_uint256"},"t_uint256":{"encoding":"inplace","label":"uint256","numberOfBytes":"32"}}},"userdoc":{"kind":"user","methods":{},"version":1}}}}