{"contracts/Lending.sol":{"Lending":{"abi":[{"inputs":[{"internalType":"address","name":"_rewardAddress","type":"address"},{"internalType":"address","name":"_ethAdddress","type":"address"},{"internalType":"address","name":"_usdtAddress","type":"address"}],"stateMutability":"nonpayable","type":"constructor"},{"anonymous":false,"inputs":[{"indexed":true,"internalType":"address","name":"previousOwner","type":"address"},{"indexed":true,"internalType":"address","name":"newOwner","type":"address"}],"name":"OwnershipTransferred","type":"event"},{"stateMutability":"payable","type":"fallback"},{"inputs":[{"internalType":"address","name":"_tokenAddress","type":"address"},{"internalType":"uint256","name":"_amount","type":"uint256"}],"name":"borrow","outputs":[],"stateMutability":"nonpayable","type":"function"},{"inputs":[{"internalType":"address","name":"_tokenAddress","type":"address"},{"internalType":"uint256","name":"_amount","type":"uint256"}],"name":"calcTokenPrice","outputs":[{"internalType":"uint256","name":"","type":"uint256"}],"stateMutability":"view","type":"function"},{"inputs":[{"internalType":"uint256","name":"amount","type":"uint256"}],"name":"claimETH","outputs":[],"stateMutability":"nonpayable","type":"function"},{"inputs":[],"name":"claimPeko","outputs":[],"stateMutability":"nonpayable","type":"function"},{"inputs":[{"internalType":"address","name":"tokenAddress","type":"address"},{"internalType":"uint256","name":"amount","type":"uint256"}],"name":"claimToken","outputs":[],"stateMutability":"nonpayable","type":"function"},{"inputs":[{"internalType":"address","name":"_account","type":"address"}],"name":"collateral","outputs":[{"internalType":"uint256","name":"","type":"uint256"}],"stateMutability":"nonpayable","type":"function"},{"inputs":[{"internalType":"address","name":"_account","type":"address"}],"name":"debt","outputs":[{"internalType":"uint256","name":"","type":"uint256"}],"stateMutability":"nonpayable","type":"function"},{"inputs":[{"internalType":"address","name":"_tokenAddress","type":"address"},{"internalType":"uint256","name":"_amount","type":"uint256"}],"name":"deposit","outputs":[],"stateMutability":"payable","type":"function"},{"inputs":[],"name":"getEthValue","outputs":[{"internalType":"uint256","name":"","type":"uint256"}],"stateMutability":"view","type":"function"},{"inputs":[],"name":"getLiquidationThreshhold","outputs":[{"internalType":"uint256","name":"","type":"uint256"}],"stateMutability":"view","type":"function"},{"inputs":[],"name":"getMarketInfo","outputs":[{"internalType":"uint256","name":"","type":"uint256"},{"internalType":"uint256","name":"","type":"uint256"}],"stateMutability":"view","type":"function"},{"inputs":[{"internalType":"address","name":"_poolAddress","type":"address"}],"name":"getPoolInfo","outputs":[{"components":[{"internalType":"uint256","name":"LTV","type":"uint256"},{"internalType":"uint256","name":"depositApy","type":"uint256"},{"internalType":"uint256","name":"borrowApy","type":"uint256"},{"internalType":"uint256","name":"totalAmount","type":"uint256"},{"internalType":"uint256","name":"borrowAmount","type":"uint256"}],"internalType":"struct Lending.PoolInfo","name":"","type":"tuple"}],"stateMutability":"view","type":"function"},{"inputs":[{"internalType":"address","name":"_account","type":"address"}],"name":"getUserInfo","outputs":[{"components":[{"internalType":"uint256","name":"ethDepositAmount","type":"uint256"},{"internalType":"uint256","name":"usdtDepositAmount","type":"uint256"},{"internalType":"uint256","name":"ethBorrowAmount","type":"uint256"},{"internalType":"uint256","name":"usdtBorrowAmount","type":"uint256"},{"internalType":"uint256","name":"ethInterestAmount","type":"uint256"},{"internalType":"uint256","name":"usdtInterestAmount","type":"uint256"},{"internalType":"uint256","name":"ethRewardAmount","type":"uint256"},{"internalType":"uint256","name":"usdtRewardAmount","type":"uint256"},{"internalType":"uint256","name":"pekoRewardAmount","type":"uint256"},{"internalType":"uint256","name":"ethDepositTotalInUsdtAmount","type":"uint256"},{"internalType":"uint256","name":"usdtDepositTotalAmount","type":"uint256"},{"internalType":"uint256","name":"ethBorrowTotalInUsdtAmount","type":"uint256"},{"internalType":"uint256","name":"usdtBorrowTotalAmount","type":"uint256"},{"internalType":"address","name":"accountAddress","type":"address"}],"internalType":"struct Lending.UserInfoForDisplay","name":"","type":"tuple"}],"stateMutability":"view","type":"function"},{"inputs":[{"internalType":"address","name":"_account","type":"address"}],"name":"liquidate","outputs":[],"stateMutability":"payable","type":"function"},{"inputs":[],"name":"listPools","outputs":[{"components":[{"internalType":"uint256","name":"LTV","type":"uint256"},{"internalType":"uint256","name":"depositApy","type":"uint256"},{"internalType":"uint256","name":"borrowApy","type":"uint256"},{"internalType":"uint256","name":"totalAmount","type":"uint256"},{"internalType":"uint256","name":"borrowAmount","type":"uint256"}],"internalType":"struct Lending.PoolInfo[]","name":"","type":"tuple[]"}],"stateMutability":"view","type":"function"},{"inputs":[],"name":"listUserInfo","outputs":[{"components":[{"internalType":"uint256","name":"ethDepositAmount","type":"uint256"},{"internalType":"uint256","name":"usdtDepositAmount","type":"uint256"},{"internalType":"uint256","name":"ethBorrowAmount","type":"uint256"},{"internalType":"uint256","name":"usdtBorrowAmount","type":"uint256"},{"internalType":"uint256","name":"ethInterestAmount","type":"uint256"},{"internalType":"uint256","name":"usdtInterestAmount","type":"uint256"},{"internalType":"uint256","name":"ethRewardAmount","type":"uint256"},{"internalType":"uint256","name":"usdtRewardAmount","type":"uint256"},{"internalType":"uint256","name":"pekoRewardAmount","type":"uint256"},{"internalType":"uint256","name":"ethDepositTotalInUsdtAmount","type":"uint256"},{"internalType":"uint256","name":"usdtDepositTotalAmount","type":"uint256"},{"internalType":"uint256","name":"ethBorrowTotalInUsdtAmount","type":"uint256"},{"internalType":"uint256","name":"usdtBorrowTotalAmount","type":"uint256"},{"internalType":"address","name":"accountAddress","type":"address"}],"internalType":"struct Lending.UserInfoForDisplay[]","name":"","type":"tuple[]"}],"stateMutability":"view","type":"function"},{"inputs":[],"name":"owner","outputs":[{"internalType":"address","name":"","type":"address"}],"stateMutability":"view","type":"function"},{"inputs":[],"name":"renounceOwnership","outputs":[],"stateMutability":"nonpayable","type":"function"},{"inputs":[{"internalType":"address","name":"_tokenAddress","type":"address"},{"internalType":"uint256","name":"_amount","type":"uint256"}],"name":"repay","outputs":[],"stateMutability":"payable","type":"function"},{"inputs":[{"internalType":"uint256","name":"_r0","type":"uint256"},{"internalType":"uint256","name":"_uOption","type":"uint256"},{"internalType":"uint256","name":"_rSlope1","type":"uint256"},{"internalType":"uint256","name":"_rSlope2","type":"uint256"}],"name":"setBorrowApy","outputs":[],"stateMutability":"nonpayable","type":"function"},{"inputs":[{"internalType":"uint256","name":"limit","type":"uint256"}],"name":"setLiquidationThreshhold","outputs":[],"stateMutability":"nonpayable","type":"function"},{"inputs":[{"internalType":"uint256","name":"_r0","type":"uint256"},{"internalType":"uint256","name":"_uOption","type":"uint256"},{"internalType":"uint256","name":"_rSlope1","type":"uint256"},{"internalType":"uint256","name":"_rSlope2","type":"uint256"}],"name":"setSupplyApy","outputs":[],"stateMutability":"nonpayable","type":"function"},{"inputs":[{"internalType":"address","name":"newOwner","type":"address"}],"name":"transferOwnership","outputs":[],"stateMutability":"nonpayable","type":"function"},{"inputs":[{"internalType":"address","name":"_tokenAddress","type":"address"},{"internalType":"uint256","name":"_amount","type":"uint256"}],"name":"withdraw","outputs":[],"stateMutability":"nonpayable","type":"function"},{"stateMutability":"payable","type":"receive"}],"devdoc":{"kind":"dev","methods":{},"version":1},"evm":{"bytecode":{"linkReferences":{},"object":"60806040526003601055655af3107a400060115561013d601255601380546001600160a01b03191673245e775a46b1aadacbd48279cf0731cf186cf2b21790553480156200004c57600080fd5b5060405162003487380380620034878339810160408190526200006f916200028a565b600080546001600160a01b031916339081178255604051909182917f8be0079c531659141344cd1fd0a4f28419497f9722a3daafe3b4186f6b6457e0908290a350600d80546001600160a01b038086166001600160a01b031992831617909255600e80548584169083168117909155600f80549385169390921692909217905562000103906050606460c860008062000154565b600f5462000123906001600160a01b03166050606460c860008062000154565b6200013760c860466107d0610ed8620001ab565b6200014b606460466103e86103846200020e565b50505062000300565b6001600160a01b03861660009081526009602052604090208581556012546200017e9086620002d4565b6001820155601254620001929085620002d4565b6002820155600381019290925560049091015550505050565b6000546001600160a01b03163314620001fa5760405162461bcd60e51b815260206004820181905260248201526000805160206200346783398151915260448201526064015b60405180910390fd5b600593909355600691909155600755600855565b6000546001600160a01b03163314620002595760405162461bcd60e51b81526020600482018190526024820152600080516020620034678339815191526044820152606401620001f1565b600193909355600291909155600355600455565b80516001600160a01b03811681146200028557600080fd5b919050565b600080600060608486031215620002a057600080fd5b620002ab846200026d565b9250620002bb602085016200026d565b9150620002cb604085016200026d565b90509250925092565b8082028115828204841417620002fa57634e487b7160e01b600052601160045260246000fd5b92915050565b61315780620003106000396000f3fe6080604052600436106101435760003560e01c8063660fd831116100b0578063a079722d1161006c578063a079722d14610387578063a5fdc5de146103a7578063e124787f146103c7578063f2fde38b146103dc578063f3fef3a3146103fc578063fe96973a1461041c57005b8063660fd831146102d357806368795862146102f3578063715018a614610315578063838afb1e1461032a5780638da5cb5b1461033f5780639b6c56ec1461036757005b80632f865568116100ff5780632f8655681461021e57806347e7ef24146102315780634b8a3529146102445780635063e91a14610264578063616571e7146102865780636386c1c7146102a657005b806305cb9fde1461014c57806306bfa9381461017f5780631698755f146101ac5780631c5a859b146101cc57806322867d78146101e157806323341a05146101f457005b3661014a57005b005b34801561015857600080fd5b5061016c610167366004612ca9565b61043c565b6040519081526020015b60405180910390f35b34801561018b57600080fd5b5061019f61019a366004612cd3565b610491565b6040516101769190612cee565b3480156101b857600080fd5b5061014a6101c7366004612ca9565b610543565b3480156101d857600080fd5b5061016c61060d565b61014a6101ef366004612ca9565b61069e565b34801561020057600080fd5b50610209610a33565b60408051928352602083019190915201610176565b61014a61022c366004612cd3565b610aba565b61014a61023f366004612ca9565b6110af565b34801561025057600080fd5b5061014a61025f366004612ca9565b6112f0565b34801561027057600080fd5b5061027961163d565b6040516101769190612dc8565b34801561029257600080fd5b5061014a6102a1366004612e17565b6116f9565b3480156102b257600080fd5b506102c66102c1366004612cd3565b611728565b6040516101769190612e30565b3480156102df57600080fd5b5061014a6102ee366004612e3f565b61175b565b3480156102ff57600080fd5b50610308611799565b6040516101769190612e71565b34801561032157600080fd5b5061014a611941565b34801561033657600080fd5b5061014a6119b5565b34801561034b57600080fd5b506000546040516001600160a01b039091168152602001610176565b34801561037357600080fd5b5061016c610382366004612cd3565b611a80565b34801561039357600080fd5b5061014a6103a2366004612e3f565b611b2e565b3480156103b357600080fd5b5061016c6103c2366004612cd3565b611b6c565b3480156103d357600080fd5b5060105461016c565b3480156103e857600080fd5b5061014a6103f7366004612cd3565b611c05565b34801561040857600080fd5b5061014a610417366004612ca9565b611c3b565b34801561042857600080fd5b5061014a610437366004612e17565b611ff0565b600f546000906001600160a01b039081169084160361045c57508061048b565b683635c9adc5dea000006104876c0c9f2c9cd04674edea400000006104818584612ef4565b906120b8565b9150505b92915050565b6104c36040518060a0016040528060008152602001600081526020016000815260200160008152602001600081525090565b6001600160a01b038216600090815260096020908152604091829020825160a0810184528154815260018201549281018390526002820154938101939093526003810154606084015260040154608083015260125461052291906120b8565b60208201526012546040820151610538916120b8565b604082015292915050565b6000546001600160a01b031633146105765760405162461bcd60e51b815260040161056d90612f0b565b60405180910390fd5b816001600160a01b031663a9059cbb6105976000546001600160a01b031690565b6040516001600160e01b031960e084901b1681526001600160a01b039091166004820152602481018490526044016020604051808303816000875af11580156105e4573d6000803e3d6000fd5b505050506040513d601f19601f820116820180604052508101906106089190612f40565b505050565b600080601360009054906101000a90046001600160a01b03166001600160a01b031663feaf968c6040518163ffffffff1660e01b815260040160a060405180830381865afa158015610663573d6000803e3d6000fd5b505050506040513d601f19601f820116820180604052508101906106879190612f7c565b505050915050806402540be40061048b9190612fcc565b6106a7336120cb565b600081116106e75760405162461bcd60e51b815260206004820152600d60248201526c063616e2774207265706179203609c1b604482015260640161056d565b336000908152600c6020526040902054806107145760405162461bcd60e51b815260040161056d90612ffc565b6000818152600b602090815260408083206001600160a01b0387168452600581019092528220549091908410156107aa576001600160a01b03851660009081526005830160205260408120805486929061076f90849061303f565b90915550506001600160a01b0385166000908152600960205260408120600301805486929061079f908490613052565b9091555061090f9050565b6001600160a01b038516600090815260038301602090815260408083205460058601909252909120546107dd9190613052565b84111561080557506001600160a01b038416600090815260038201602052604090205461082d565b6001600160a01b038516600090815260058301602052604090205461082a908561303f565b90505b61085a6040518060400160405280600b81526020016a1c995c185e585b5bdd5b9d60aa1b81525082612255565b6001600160a01b03851660009081526003830160205260408120805483929061088490849061303f565b90915550506001600160a01b03851660009081526005830160205260408120556108ae818561303f565b6001600160a01b038616600090815260096020526040812060030180549091906108d9908490613052565b90915550506001600160a01b0385166000908152600960205260408120600401805483929061090990849061303f565b90915550505b600f546001600160a01b03908116908616036109e057600f546040516323b872dd60e01b8152336004820152306024820152604481018690526001600160a01b03909116906323b872dd906064016020604051808303816000875af115801561097c573d6000803e3d6000fd5b505050506040513d601f19601f820116820180604052508101906109a09190612f40565b6109db5760405162461bcd60e51b815260206004820152600c60248201526b14995c185e4819985a5b195960a21b604482015260640161056d565b610a23565b83341015610a235760405162461bcd60e51b815260206004820152601060248201526f283632b0b9b2903830bc9036b7b9329760811b604482015260640161056d565b610a2c336120cb565b5050505050565b600e546001600160a01b03908116600081815260096020526040808220600f549094168252812060038082015490850154929485949093610a74919061043c565b610a7e9190613052565b8160040154610aa6600e60009054906101000a90046001600160a01b0316856004015461043c565b610ab09190613052565b9350935050509091565b6001600160a01b0381166000908152600c602052604090205480610af05760405162461bcd60e51b815260040161056d90612ffc565b6000818152600b6020526040812090610b0884611b6c565b90506000610b1585611a80565b90506000610b4060105484610b2a9190612ef4565b610b35846064612ef4565b610481906064612ef4565b905060648111610b925760405162461bcd60e51b815260206004820152601f60248201527f54686973206973206e6f7420656e61626c6564206c69717569646174696f6e00604482015260640161056d565b600e546001600160a01b0316600090815260048501602090815260408083205460028801909252822054610bc69190613052565b600f546001600160a01b0316600090815260048701602090815260408083205460028a019092528220549293509091610bff9190613052565b600e546001600160a01b0316600090815260058801602090815260408083205460038b019092528220549293509091610c389190613052565b600f546001600160a01b0316600090815260058901602090815260408083205460038c019092528220549293509091610c719190613052565b600e546001600160a01b0316600090815260058a01602090815260408083205460099092529091206003015491925090610cac90869061303f565b610cb69190613052565b600e546001600160a01b039081166000908152600960208181526040808420600390810196909655600f54909416835260058d0181528383205491905291902090910154610d0590859061303f565b610d0f9190613052565b600f546001600160a01b039081166000908152600960209081526040808320600390810195909555600e54909316825282822060040154938c0190522054610d57919061229a565b600e546001600160a01b0316600090815260038901602090815260408083205460099092528220600401805491929091610d9290849061303f565b9091555050600f546001600160a01b0316600090815260038901602090815260408083205460099092528220600401805491929091610dd290849061303f565b90915550610de49050826127106120b8565b610df09061270f612ef4565b341015610e305760405162461bcd60e51b815260206004820152600e60248201526d09cdee840cadcdeeaced040cae8d60931b604482015260640161056d565b600f546001600160a01b03166323b872dd3330610e4f856127106120b8565b610e5b9061270f612ef4565b6040516001600160e01b031960e086901b1681526001600160a01b03938416600482015292909116602483015260448201526064016020604051808303816000875af1158015610eaf573d6000803e3d6000fd5b505050506040513d601f19601f82011682018060405250810190610ed39190612f40565b610f105760405162461bcd60e51b815260206004820152600e60248201526d19195c1bdcda5d0819985a5b195960921b604482015260640161056d565b604051600090339086908381818185875af1925050503d8060008114610f52576040519150601f19603f3d011682016040523d82523d6000602084013e610f57565b606091505b5050905080610f9e5760405162461bcd60e51b81526020600482015260136024820152723330b4b632b2103a379039b2b7321032ba341760691b604482015260640161056d565b600f5460405163a9059cbb60e01b8152336004820152602481018690526001600160a01b039091169063a9059cbb906044016020604051808303816000875af1158015610fef573d6000803e3d6000fd5b505050506040513d601f19601f820116820180604052508101906110139190612f40565b50600d5460068a015460405163a9059cbb60e01b815233600482015260248101919091526001600160a01b039091169063a9059cbb906044016020604051808303816000875af115801561106b573d6000803e3d6000fd5b505050506040513d601f19601f8201168201806040525081019061108f9190612f40565b506110998b6122e1565b6110a2336120cb565b5050505050505050505050565b600081116110f15760405162461bcd60e51b815260206004820152600f60248201526e063616e2774206465706f736974203608c1b604482015260640161056d565b336000908152600c6020526040812054810361113b576001600a600082825461111a9190613052565b9091555050600a54336000908152600c602052604090208190559050611156565b50336000818152600c602052604090205490611156906120cb565b6000818152600b6020908152604080832080546001600160a01b031916331781554260018201556001600160a01b03871684526002810190925282208054919285926111a3908490613052565b9091555050600f546001600160a01b03908116908516036112ae57600f546040516323b872dd60e01b8152336004820152306024820152604481018590526001600160a01b03909116906323b872dd906064016020604051808303816000875af1158015611215573d6000803e3d6000fd5b505050506040513d601f19601f820116820180604052508101906112399190612f40565b6112765760405162461bcd60e51b815260206004820152600e60248201526d19195c1bdcda5d0819985a5b195960921b604482015260640161056d565b600f546001600160a01b0316600090815260096020526040812060030180548592906112a3908490613052565b909155506112e19050565b600e546001600160a01b0316600090815260096020526040812060030180548592906112db908490613052565b90915550505b6112ea336120cb565b50505050565b600081116113315760405162461bcd60e51b815260206004820152600e60248201526d063616e277420626f72726f7720360941b604482015260640161056d565b336000908152600c60205260409020548061135e5760405162461bcd60e51b815260040161056d90612ffc565b6000818152600b602052604081209061137633611b6c565b9050600061138333611a80565b9050808210156113d55760405162461bcd60e51b815260206004820152601e60248201527f596f7520646f6e6f74206861766520616e7920636f6c6c61746572616c2e0000604482015260640161056d565b60006113e1878761043c565b6001600160a01b0388166000908152600960205260409020549091506114078383613052565b60646114138387612ef4565b61141d9190613065565b116114615760405162461bcd60e51b8152602060048201526014602482015273283632b0b9b2903232b837b9b4ba1036b7b9329760611b604482015260640161056d565b6001600160a01b03881660009081526003860160205260408120805489929061148b908490613052565b9091555061149a9050336120cb565b600e546001600160a01b039081169089160361158157604051600090339089908381818185875af1925050503d80600081146114f2576040519150601f19603f3d011682016040523d82523d6000602084013e6114f7565b606091505b50509050806115485760405162461bcd60e51b815260206004820152601c60248201527f6661696c656420746f2073656e642065746820696e7465726573742e00000000604482015260640161056d565b600e546001600160a01b0316600090815260096020526040812060040180548a9290611575908490613052565b9091555061162a915050565b600f5460405163a9059cbb60e01b8152336004820152602481018990526001600160a01b039091169063a9059cbb906044016020604051808303816000875af11580156115d2573d6000803e3d6000fd5b505050506040513d601f19601f820116820180604052508101906115f69190612f40565b50600f546001600160a01b031660009081526009602052604081206004018054899290611624908490613052565b90915550505b611633336120cb565b5050505050505050565b60606000600a5467ffffffffffffffff81111561165c5761165c613087565b60405190808252806020026020018201604052801561169557816020015b611682612c1a565b81526020019060019003908161167a5790505b50905060015b600a546116a9906001613052565b8110156116f3576116b981612400565b826116c560018461303f565b815181106116d5576116d561309d565b602002602001018190525080806116eb906130b3565b91505061169b565b50919050565b6000546001600160a01b031633146117235760405162461bcd60e51b815260040161056d90612f0b565b601055565b611730612c1a565b6001600160a01b0382166000908152600c60205260408120549061175382612400565b949350505050565b6000546001600160a01b031633146117855760405162461bcd60e51b815260040161056d90612f0b565b600593909355600691909155600755600855565b600e546001600160a01b0316600090815260096020908152604091829020825160a08101845281548152600182015492810183905260028201549381019390935260038101546060848101919091526004909101546080840152601254909291611802916120b8565b60208201526012546040820151611818916120b8565b604080830191909152600f546001600160a01b031660009081526009602090815290829020825160a0810184528154815260018201549281018390526002820154938101939093526003810154606084015260040154608083015260125461188091906120b8565b60208201526012546040820151611896916120b8565b6040828101919091528051600280825260608201909252600091816020015b6118e76040518060a0016040528060008152602001600081526020016000815260200160008152602001600081525090565b8152602001906001900390816118b557905050905082816000815181106119105761191061309d565b6020026020010181905250818160018151811061192f5761192f61309d565b60209081029190910101529392505050565b6000546001600160a01b0316331461196b5760405162461bcd60e51b815260040161056d90612f0b565b600080546040516001600160a01b03909116907f8be0079c531659141344cd1fd0a4f28419497f9722a3daafe3b4186f6b6457e0908390a3600080546001600160a01b0319169055565b336000908152600c6020526040902054806119e25760405162461bcd60e51b815260040161056d90612ffc565b6000818152600b602052604090206119f9336120cb565b600d54600682015460405163a9059cbb60e01b815233600482015260248101919091526001600160a01b039091169063a9059cbb906044016020604051808303816000875af1158015611a50573d6000803e3d6000fd5b505050506040513d601f19601f82011682018060405250810190611a749190612f40565b50600060069091015550565b6000611a8b826120cb565b6001600160a01b038083166000908152600c60209081526040808320548352600b8252808320600e54909416808452600385018352818420546005860190935290832054611adc9261016791613052565b600f546001600160a01b03166000818152600385016020908152604080832054600588019092528220549394509092611b19929161016791613052565b9050611b258183613052565b95945050505050565b6000546001600160a01b03163314611b585760405162461bcd60e51b815260040161056d90612f0b565b600193909355600291909155600355600455565b6000611b77826120cb565b6001600160a01b038083166000908152600c60209081526040808320548352600b8252808320600e54909416808452600285018352818420546004860190935290832054611bc89261016791613052565b600f546001600160a01b03166000818152600285016020908152604080832054600488019092528220549394509092611b19929161016791613052565b6000546001600160a01b03163314611c2f5760405162461bcd60e51b815260040161056d90612f0b565b611c38816129b4565b50565b60008111611c7e5760405162461bcd60e51b815260206004820152601060248201526f063616e277420776974686472617720360841b604482015260640161056d565b336000908152600c602052604090205480611cab5760405162461bcd60e51b815260040161056d90612ffc565b6000818152600b60205260409020611cc2336120cb565b6000611ccd33611b6c565b90506000611cda33611a80565b6001600160a01b0387166000908152600960205260409020549091508190606490611d05898961043c565b611d0f908661303f565b611d199190612ef4565b611d239190613065565b11611d875760405162461bcd60e51b815260206004820152602e60248201527f5769746864726177206661696c65642e596f7520646f6e6f742068617665206160448201526d373c9031b7b63630ba32b930b61760911b606482015260840161056d565b6001600160a01b0386166000908152600484016020526040902054851015611e0e576001600160a01b03861660009081526009602052604081206003018054879290611dd490849061303f565b90915550506001600160a01b038616600090815260048401602052604081208054879290611e0390849061303f565b90915550611e849050565b6001600160a01b0386166000908152600484016020526040812054611e33908761303f565b6001600160a01b0388166000908152600286016020526040812080549293508392909190611e6290849061303f565b9091555050506001600160a01b03861660009081526004840160205260408120555b6001600160a01b03861660009081526009602052604081206003018054879290611eaf90849061303f565b9091555050600e546001600160a01b0390811690871603611f6857604051600090339087908381818185875af1925050503d8060008114611f0c576040519150601f19603f3d011682016040523d82523d6000602084013e611f11565b606091505b5050905080611f625760405162461bcd60e51b815260206004820152601c60248201527f6661696c656420746f2073656e642065746820696e7465726573742e00000000604482015260640161056d565b50611fdf565b600f5460405163a9059cbb60e01b8152336004820152602481018790526001600160a01b039091169063a9059cbb906044016020604051808303816000875af1158015611fb9573d6000803e3d6000fd5b505050506040513d601f19601f82011682018060405250810190611fdd9190612f40565b505b611fe8336120cb565b505050505050565b6000546001600160a01b0316331461201a5760405162461bcd60e51b815260040161056d90612f0b565b600080546040516001600160a01b039091169083908381818185875af1925050503d8060008114612067576040519150601f19603f3d011682016040523d82523d6000602084013e61206c565b606091505b50509050806120b45760405162461bcd60e51b81526020600482015260146024820152732330b4b632b2103a379039b2b7321022ba3432b960611b604482015260640161056d565b5050565b60006120c48284613065565b9392505050565b6001600160a01b0381166000908152600c60205260409020546121305760405162461bcd60e51b815260206004820152601a60248201527f557365722073686f756c64206465706f736974206265666f7265000000000000604482015260640161056d565b6001600160a01b0381166000818152600c6020818152604080842054808552600b835290842094845291905261216590612400565b610100810151600684015560c0810151600e80546001600160a01b039081166000908152600487016020818152604080842096909655608087015185548516845260058a018083528785209190915560e0880151600f8054871686529383528785205560a0880151925485168452905293902092909255426001860155549192506121f09116612a74565b600e546001600160a01b0390811660009081526009602052604090206002810192909255600190910191909155600f5461222a9116612a74565b600f546001600160a01b03166000908152600960205260409020600281019190915560010155505050565b6120b4828260405160240161226b9291906130cc565b60408051601f198184030181529190526020810180516001600160e01b0316632d839cb360e21b179052612bf9565b60405160248101839052604481018290526120b49060640160408051601f198184030181529190526020810180516001600160e01b0316637b3338ad60e11b179052612bf9565b6001600160a01b0381166000908152600c60205260409020546123465760405162461bcd60e51b815260206004820152601a60248201527f557365722073686f756c64206465706f736974206265666f7265000000000000604482015260640161056d565b6001600160a01b039081166000908152600c60209081526040808320548352600b8252808320600e80548616855260028201808552838620869055815487168652600383018086528487208790558254881687526004840180875285882088905592548816875260058401808752858820889055600f80548a168952928752858820889055825489168852908652848720879055815488168752918552838620869055549095168452939091528120819055600690910155565b612408612c1a565b8115612934576000828152600b602052604081206001810154909161242d824261303f565b600e546011546001600160a01b0390911660008181526009602090815260408083206001015460028a019092528220549495509093612487939186916124739190612ef4565b61247d9190612ef4565b6101679190613065565b84600601546124969190613052565b601154600e546001600160a01b031660009081526009602090815260408083206001015460028a01909252822054939450909285916124d491612ef4565b6124de9190612ef4565b6124e89190613065565b600e546001600160a01b0316600090815260048701602052604090205461250f9190613052565b601154600e546001600160a01b031660009081526009602090815260408083206002015460038b019092528220549394509092869161254d91612ef4565b6125579190612ef4565b6125619190613065565b600e546001600160a01b031660009081526005880160205260409020546125889190613052565b600f546011546001600160a01b0390911660008181526009602090815260408083206001015460028d01909252909120549394506125ce93919291889161247391612ef4565b86600601546125dd9190613052565b6125e79084613052565b601154600f546001600160a01b031660009081526009602090815260408083206001015460028c019092528220549396509092879161262591612ef4565b61262f9190612ef4565b6126399190613065565b600f546001600160a01b031660009081526004890160205260409020546126609190613052565b601154600f546001600160a01b031660009081526009602090815260408083206002015460038d019092528220549394509092889161269e91612ef4565b6126a89190612ef4565b6126b29190613065565b600f546001600160a01b0316600090815260058a0160205260409020546126d99190613052565b90506000604051806101c001604052808a6002016000600e60009054906101000a90046001600160a01b03166001600160a01b03166001600160a01b031681526020019081526020016000205481526020018a6002016000600f60009054906101000a90046001600160a01b03166001600160a01b03166001600160a01b031681526020019081526020016000205481526020018a6003016000600e60009054906101000a90046001600160a01b03166001600160a01b03166001600160a01b031681526020019081526020016000205481526020018a6003016000600f60009054906101000a90046001600160a01b03166001600160a01b03166001600160a01b03168152602001908152602001600020548152602001858152602001838152602001868152602001848152602001878152602001612870600e60009054906101000a90046001600160a01b0316888d6002016000600e60009054906101000a90046001600160a01b03166001600160a01b03166001600160a01b03168152602001908152602001600020546101679190613052565b8152600f546001600160a01b0316600081815260028d0160209081526040909120549201916128a59190610167908890613052565b8152600e546001600160a01b0316600081815260038d0160209081526040909120549201916128da9190610167908990613052565b8152600f546001600160a01b0316600081815260038d01602090815260409091205492019161290f9190610167908790613052565b815299546001600160a01b03166020909a019990995250969998505050505050505050565b604051806101c0016040528060008152602001600081526020016000815260200160008152602001600081526020016000815260200160008152602001600081526020016000815260200160008152602001600081526020016000815260200160008152602001336001600160a01b03168152509050919050565b919050565b6001600160a01b038116612a195760405162461bcd60e51b815260206004820152602660248201527f4f776e61626c653a206e6577206f776e657220697320746865207a65726f206160448201526564647265737360d01b606482015260840161056d565b600080546040516001600160a01b03808516939216917f8be0079c531659141344cd1fd0a4f28419497f9722a3daafe3b4186f6b6457e091a3600080546001600160a01b0319166001600160a01b0392909216919091179055565b6000806000806000612a8586610491565b60608101516080820151909450925090506000808415612bc8576000612ab086610481876064612ef4565b9050806005600101541115612ae857600654600754612ad491906104819084612ef4565b600554612ae19190613052565b9250612b31565b600654612b1490612afa90606461303f565b600854600654612b0a908561303f565b6104819190612ef4565b600754600554612b249190613052565b612b2e9190613052565b92505b600254811015612b6457600254600354612b5091906104819084612ef4565b600154612b5d9190613052565b9150612ba3565b600254612b8690612b7690606461303f565b600454600254612b0a908561303f565b600354600154612b969190613052565b612ba09190613052565b91505b601254612bb09083612ef4565b915060125483612bc09190612ef4565b925050612bed565b601254600154612bd89190612ef4565b601254600554919250612bea91612ef4565b91505b97909650945050505050565b60006a636f6e736f6c652e6c6f679050600080835160208501845afa505050565b604051806101c001604052806000815260200160008152602001600081526020016000815260200160008152602001600081526020016000815260200160008152602001600081526020016000815260200160008152602001600081526020016000815260200160006001600160a01b031681525090565b80356001600160a01b03811681146129af57600080fd5b60008060408385031215612cbc57600080fd5b612cc583612c92565b946020939093013593505050565b600060208284031215612ce557600080fd5b6120c482612c92565b60a0810161048b828480518252602081015160208301526040810151604083015260608101516060830152608081015160808301525050565b805182526020810151602083015260408101516040830152606081015160608301526080810151608083015260a081015160a083015260c081015160c083015260e081015160e08301526101008082015181840152506101208082015181840152506101408082015181840152506101608082015181840152506101808082015181840152506101a0808201516112ea828501826001600160a01b03169052565b6020808252825182820181905260009190848201906040850190845b81811015612e0b57612df7838551612d27565b928401926101c09290920191600101612de4565b50909695505050505050565b600060208284031215612e2957600080fd5b5035919050565b6101c0810161048b8284612d27565b60008060008060808587031215612e5557600080fd5b5050823594602084013594506040840135936060013592509050565b6020808252825182820181905260009190848201906040850190845b81811015612e0b57612ecb83855180518252602081015160208301526040810151604083015260608101516060830152608081015160808301525050565b9284019260a09290920191600101612e8d565b634e487b7160e01b600052601160045260246000fd5b808202811582820484141761048b5761048b612ede565b6020808252818101527f4f776e61626c653a2063616c6c6572206973206e6f7420746865206f776e6572604082015260600190565b600060208284031215612f5257600080fd5b815180151581146120c457600080fd5b805169ffffffffffffffffffff811681146129af57600080fd5b600080600080600060a08688031215612f9457600080fd5b612f9d86612f62565b9450602086015193506040860151925060608601519150612fc060808701612f62565b90509295509295909350565b80820260008212600160ff1b84141615612fe857612fe8612ede565b818105831482151761048b5761048b612ede565b60208082526023908201527f5573657220696e6465782073686f756c6420626520626967676572207468616e60408201526210181760e91b606082015260800190565b8181038181111561048b5761048b612ede565b8082018082111561048b5761048b612ede565b60008261308257634e487b7160e01b600052601260045260246000fd5b500490565b634e487b7160e01b600052604160045260246000fd5b634e487b7160e01b600052603260045260246000fd5b6000600182016130c5576130c5612ede565b5060010190565b604081526000835180604084015260005b818110156130fa57602081870181015160608684010152016130dd565b506000606082850101526060601f19601f830116840101915050826020830152939250505056fea2646970667358221220e2d8cba127dad887fcbef43aeb231120367151e9d8ed6a75ad1ffb70cea9066264736f6c634300081200334f776e61626c653a2063616c6c6572206973206e6f7420746865206f776e6572","opcodes":"PUSH1 0x80 PUSH1 0x40 MSTORE PUSH1 0x3 PUSH1 0x10 SSTORE PUSH6 0x5AF3107A4000 PUSH1 0x11 SSTORE PUSH2 0x13D PUSH1 0x12 SSTORE PUSH1 0x13 DUP1 SLOAD PUSH1 0x1 PUSH1 0x1 PUSH1 0xA0 SHL SUB NOT AND PUSH20 0x245E775A46B1AADACBD48279CF0731CF186CF2B2 OR SWAP1 SSTORE CALLVALUE DUP1 ISZERO PUSH3 0x4C JUMPI PUSH1 0x0 DUP1 REVERT JUMPDEST POP PUSH1 0x40 MLOAD PUSH3 0x3487 CODESIZE SUB DUP1 PUSH3 0x3487 DUP4 CODECOPY DUP2 ADD PUSH1 0x40 DUP2 SWAP1 MSTORE PUSH3 0x6F SWAP2 PUSH3 0x28A JUMP JUMPDEST PUSH1 0x0 DUP1 SLOAD PUSH1 0x1 PUSH1 0x1 PUSH1 0xA0 SHL SUB NOT AND CALLER SWAP1 DUP2 OR DUP3 SSTORE PUSH1 0x40 MLOAD SWAP1 SWAP2 DUP3 SWAP2 PUSH32 0x8BE0079C531659141344CD1FD0A4F28419497F9722A3DAAFE3B4186F6B6457E0 SWAP1 DUP3 SWAP1 LOG3 POP PUSH1 0xD DUP1 SLOAD PUSH1 0x1 PUSH1 0x1 PUSH1 0xA0 SHL SUB DUP1 DUP7 AND PUSH1 0x1 PUSH1 0x1 PUSH1 0xA0 SHL SUB NOT SWAP3 DUP4 AND OR SWAP1 SWAP3 SSTORE PUSH1 0xE DUP1 SLOAD DUP6 DUP5 AND SWAP1 DUP4 AND DUP2 OR SWAP1 SWAP2 SSTORE PUSH1 0xF DUP1 SLOAD SWAP4 DUP6 AND SWAP4 SWAP1 SWAP3 AND SWAP3 SWAP1 SWAP3 OR SWAP1 SSTORE PUSH3 0x103 SWAP1 PUSH1 0x50 PUSH1 0x64 PUSH1 0xC8 PUSH1 0x0 DUP1 PUSH3 0x154 JUMP JUMPDEST PUSH1 0xF SLOAD PUSH3 0x123 SWAP1 PUSH1 0x1 PUSH1 0x1 PUSH1 0xA0 SHL SUB AND PUSH1 0x50 PUSH1 0x64 PUSH1 0xC8 PUSH1 0x0 DUP1 PUSH3 0x154 JUMP JUMPDEST PUSH3 0x137 PUSH1 0xC8 PUSH1 0x46 PUSH2 0x7D0 PUSH2 0xED8 PUSH3 0x1AB JUMP JUMPDEST PUSH3 0x14B PUSH1 0x64 PUSH1 0x46 PUSH2 0x3E8 PUSH2 0x384 PUSH3 0x20E JUMP JUMPDEST POP POP POP PUSH3 0x300 JUMP JUMPDEST PUSH1 0x1 PUSH1 0x1 PUSH1 0xA0 SHL SUB DUP7 AND PUSH1 0x0 SWAP1 DUP2 MSTORE PUSH1 0x9 PUSH1 0x20 MSTORE PUSH1 0x40 SWAP1 KECCAK256 DUP6 DUP2 SSTORE PUSH1 0x12 SLOAD PUSH3 0x17E SWAP1 DUP7 PUSH3 0x2D4 JUMP JUMPDEST PUSH1 0x1 DUP3 ADD SSTORE PUSH1 0x12 SLOAD PUSH3 0x192 SWAP1 DUP6 PUSH3 0x2D4 JUMP JUMPDEST PUSH1 0x2 DUP3 ADD SSTORE PUSH1 0x3 DUP2 ADD SWAP3 SWAP1 SWAP3 SSTORE PUSH1 0x4 SWAP1 SWAP2 ADD SSTORE POP POP POP POP JUMP JUMPDEST PUSH1 0x0 SLOAD PUSH1 0x1 PUSH1 0x1 PUSH1 0xA0 SHL SUB AND CALLER EQ PUSH3 0x1FA JUMPI PUSH1 0x40 MLOAD PUSH3 0x461BCD PUSH1 0xE5 SHL DUP2 MSTORE PUSH1 0x20 PUSH1 0x4 DUP3 ADD DUP2 SWAP1 MSTORE PUSH1 0x24 DUP3 ADD MSTORE PUSH1 0x0 DUP1 MLOAD PUSH1 0x20 PUSH3 0x3467 DUP4 CODECOPY DUP2 MLOAD SWAP2 MSTORE PUSH1 0x44 DUP3 ADD MSTORE PUSH1 0x64 ADD JUMPDEST PUSH1 0x40 MLOAD DUP1 SWAP2 SUB SWAP1 REVERT JUMPDEST PUSH1 0x5 SWAP4 SWAP1 SWAP4 SSTORE PUSH1 0x6 SWAP2 SWAP1 SWAP2 SSTORE PUSH1 0x7 SSTORE PUSH1 0x8 SSTORE JUMP JUMPDEST PUSH1 0x0 SLOAD PUSH1 0x1 PUSH1 0x1 PUSH1 0xA0 SHL SUB AND CALLER EQ PUSH3 0x259 JUMPI PUSH1 0x40 MLOAD PUSH3 0x461BCD PUSH1 0xE5 SHL DUP2 MSTORE PUSH1 0x20 PUSH1 0x4 DUP3 ADD DUP2 SWAP1 MSTORE PUSH1 0x24 DUP3 ADD MSTORE PUSH1 0x0 DUP1 MLOAD PUSH1 0x20 PUSH3 0x3467 DUP4 CODECOPY DUP2 MLOAD SWAP2 MSTORE PUSH1 0x44 DUP3 ADD MSTORE PUSH1 0x64 ADD PUSH3 0x1F1 JUMP JUMPDEST PUSH1 0x1 SWAP4 SWAP1 SWAP4 SSTORE PUSH1 0x2 SWAP2 SWAP1 SWAP2 SSTORE PUSH1 0x3 SSTORE PUSH1 0x4 SSTORE JUMP JUMPDEST DUP1 MLOAD PUSH1 0x1 PUSH1 0x1 PUSH1 0xA0 SHL SUB DUP2 AND DUP2 EQ PUSH3 0x285 JUMPI PUSH1 0x0 DUP1 REVERT JUMPDEST SWAP2 SWAP1 POP JUMP JUMPDEST PUSH1 0x0 DUP1 PUSH1 0x0 PUSH1 0x60 DUP5 DUP7 SUB SLT ISZERO PUSH3 0x2A0 JUMPI PUSH1 0x0 DUP1 REVERT JUMPDEST PUSH3 0x2AB DUP5 PUSH3 0x26D JUMP JUMPDEST SWAP3 POP PUSH3 0x2BB PUSH1 0x20 DUP6 ADD PUSH3 0x26D JUMP JUMPDEST SWAP2 POP PUSH3 0x2CB PUSH1 0x40 DUP6 ADD PUSH3 0x26D JUMP JUMPDEST SWAP1 POP SWAP3 POP SWAP3 POP SWAP3 JUMP JUMPDEST DUP1 DUP3 MUL DUP2 ISZERO DUP3 DUP3 DIV DUP5 EQ OR PUSH3 0x2FA JUMPI PUSH4 0x4E487B71 PUSH1 0xE0 SHL PUSH1 0x0 MSTORE PUSH1 0x11 PUSH1 0x4 MSTORE PUSH1 0x24 PUSH1 0x0 REVERT JUMPDEST SWAP3 SWAP2 POP POP JUMP JUMPDEST PUSH2 0x3157 DUP1 PUSH3 0x310 PUSH1 0x0 CODECOPY PUSH1 0x0 RETURN INVALID PUSH1 0x80 PUSH1 0x40 MSTORE PUSH1 0x4 CALLDATASIZE LT PUSH2 0x143 JUMPI PUSH1 0x0 CALLDATALOAD PUSH1 0xE0 SHR DUP1 PUSH4 0x660FD831 GT PUSH2 0xB0 JUMPI DUP1 PUSH4 0xA079722D GT PUSH2 0x6C JUMPI DUP1 PUSH4 0xA079722D EQ PUSH2 0x387 JUMPI DUP1 PUSH4 0xA5FDC5DE EQ PUSH2 0x3A7 JUMPI DUP1 PUSH4 0xE124787F EQ PUSH2 0x3C7 JUMPI DUP1 PUSH4 0xF2FDE38B EQ PUSH2 0x3DC JUMPI DUP1 PUSH4 0xF3FEF3A3 EQ PUSH2 0x3FC JUMPI DUP1 PUSH4 0xFE96973A EQ PUSH2 0x41C JUMPI STOP JUMPDEST DUP1 PUSH4 0x660FD831 EQ PUSH2 0x2D3 JUMPI DUP1 PUSH4 0x68795862 EQ PUSH2 0x2F3 JUMPI DUP1 PUSH4 0x715018A6 EQ PUSH2 0x315 JUMPI DUP1 PUSH4 0x838AFB1E EQ PUSH2 0x32A JUMPI DUP1 PUSH4 0x8DA5CB5B EQ PUSH2 0x33F JUMPI DUP1 PUSH4 0x9B6C56EC EQ PUSH2 0x367 JUMPI STOP JUMPDEST DUP1 PUSH4 0x2F865568 GT PUSH2 0xFF JUMPI DUP1 PUSH4 0x2F865568 EQ PUSH2 0x21E JUMPI DUP1 PUSH4 0x47E7EF24 EQ PUSH2 0x231 JUMPI DUP1 PUSH4 0x4B8A3529 EQ PUSH2 0x244 JUMPI DUP1 PUSH4 0x5063E91A EQ PUSH2 0x264 JUMPI DUP1 PUSH4 0x616571E7 EQ PUSH2 0x286 JUMPI DUP1 PUSH4 0x6386C1C7 EQ PUSH2 0x2A6 JUMPI STOP JUMPDEST DUP1 PUSH4 0x5CB9FDE EQ PUSH2 0x14C JUMPI DUP1 PUSH4 0x6BFA938 EQ PUSH2 0x17F JUMPI DUP1 PUSH4 0x1698755F EQ PUSH2 0x1AC JUMPI DUP1 PUSH4 0x1C5A859B EQ PUSH2 0x1CC JUMPI DUP1 PUSH4 0x22867D78 EQ PUSH2 0x1E1 JUMPI DUP1 PUSH4 0x23341A05 EQ PUSH2 0x1F4 JUMPI STOP JUMPDEST CALLDATASIZE PUSH2 0x14A JUMPI STOP JUMPDEST STOP JUMPDEST CALLVALUE DUP1 ISZERO PUSH2 0x158 JUMPI PUSH1 0x0 DUP1 REVERT JUMPDEST POP PUSH2 0x16C PUSH2 0x167 CALLDATASIZE PUSH1 0x4 PUSH2 0x2CA9 JUMP JUMPDEST PUSH2 0x43C JUMP JUMPDEST PUSH1 0x40 MLOAD SWAP1 DUP2 MSTORE PUSH1 0x20 ADD JUMPDEST PUSH1 0x40 MLOAD DUP1 SWAP2 SUB SWAP1 RETURN JUMPDEST CALLVALUE DUP1 ISZERO PUSH2 0x18B JUMPI PUSH1 0x0 DUP1 REVERT JUMPDEST POP PUSH2 0x19F PUSH2 0x19A CALLDATASIZE PUSH1 0x4 PUSH2 0x2CD3 JUMP JUMPDEST PUSH2 0x491 JUMP JUMPDEST PUSH1 0x40 MLOAD PUSH2 0x176 SWAP2 SWAP1 PUSH2 0x2CEE JUMP JUMPDEST CALLVALUE DUP1 ISZERO PUSH2 0x1B8 JUMPI PUSH1 0x0 DUP1 REVERT JUMPDEST POP PUSH2 0x14A PUSH2 0x1C7 CALLDATASIZE PUSH1 0x4 PUSH2 0x2CA9 JUMP JUMPDEST PUSH2 0x543 JUMP JUMPDEST CALLVALUE DUP1 ISZERO PUSH2 0x1D8 JUMPI PUSH1 0x0 DUP1 REVERT JUMPDEST POP PUSH2 0x16C PUSH2 0x60D JUMP JUMPDEST PUSH2 0x14A PUSH2 0x1EF CALLDATASIZE PUSH1 0x4 PUSH2 0x2CA9 JUMP JUMPDEST PUSH2 0x69E JUMP JUMPDEST CALLVALUE DUP1 ISZERO PUSH2 0x200 JUMPI PUSH1 0x0 DUP1 REVERT JUMPDEST POP PUSH2 0x209 PUSH2 0xA33 JUMP JUMPDEST PUSH1 0x40 DUP1 MLOAD SWAP3 DUP4 MSTORE PUSH1 0x20 DUP4 ADD SWAP2 SWAP1 SWAP2 MSTORE ADD PUSH2 0x176 JUMP JUMPDEST PUSH2 0x14A PUSH2 0x22C CALLDATASIZE PUSH1 0x4 PUSH2 0x2CD3 JUMP JUMPDEST PUSH2 0xABA JUMP JUMPDEST PUSH2 0x14A PUSH2 0x23F CALLDATASIZE PUSH1 0x4 PUSH2 0x2CA9 JUMP JUMPDEST PUSH2 0x10AF JUMP JUMPDEST CALLVALUE DUP1 ISZERO PUSH2 0x250 JUMPI PUSH1 0x0 DUP1 REVERT JUMPDEST POP PUSH2 0x14A PUSH2 0x25F CALLDATASIZE PUSH1 0x4 PUSH2 0x2CA9 JUMP JUMPDEST PUSH2 0x12F0 JUMP JUMPDEST CALLVALUE DUP1 ISZERO PUSH2 0x270 JUMPI PUSH1 0x0 DUP1 REVERT JUMPDEST POP PUSH2 0x279 PUSH2 0x163D JUMP JUMPDEST PUSH1 0x40 MLOAD PUSH2 0x176 SWAP2 SWAP1 PUSH2 0x2DC8 JUMP JUMPDEST CALLVALUE DUP1 ISZERO PUSH2 0x292 JUMPI PUSH1 0x0 DUP1 REVERT JUMPDEST POP PUSH2 0x14A PUSH2 0x2A1 CALLDATASIZE PUSH1 0x4 PUSH2 0x2E17 JUMP JUMPDEST PUSH2 0x16F9 JUMP JUMPDEST CALLVALUE DUP1 ISZERO PUSH2 0x2B2 JUMPI PUSH1 0x0 DUP1 REVERT JUMPDEST POP PUSH2 0x2C6 PUSH2 0x2C1 CALLDATASIZE PUSH1 0x4 PUSH2 0x2CD3 JUMP JUMPDEST PUSH2 0x1728 JUMP JUMPDEST PUSH1 0x40 MLOAD PUSH2 0x176 SWAP2 SWAP1 PUSH2 0x2E30 JUMP JUMPDEST CALLVALUE DUP1 ISZERO PUSH2 0x2DF JUMPI PUSH1 0x0 DUP1 REVERT JUMPDEST POP PUSH2 0x14A PUSH2 0x2EE CALLDATASIZE PUSH1 0x4 PUSH2 0x2E3F JUMP JUMPDEST PUSH2 0x175B JUMP JUMPDEST CALLVALUE DUP1 ISZERO PUSH2 0x2FF JUMPI PUSH1 0x0 DUP1 REVERT JUMPDEST POP PUSH2 0x308 PUSH2 0x1799 JUMP JUMPDEST PUSH1 0x40 MLOAD PUSH2 0x176 SWAP2 SWAP1 PUSH2 0x2E71 JUMP JUMPDEST CALLVALUE DUP1 ISZERO PUSH2 0x321 JUMPI PUSH1 0x0 DUP1 REVERT JUMPDEST POP PUSH2 0x14A PUSH2 0x1941 JUMP JUMPDEST CALLVALUE DUP1 ISZERO PUSH2 0x336 JUMPI PUSH1 0x0 DUP1 REVERT JUMPDEST POP PUSH2 0x14A PUSH2 0x19B5 JUMP JUMPDEST CALLVALUE DUP1 ISZERO PUSH2 0x34B JUMPI PUSH1 0x0 DUP1 REVERT JUMPDEST POP PUSH1 0x0 SLOAD PUSH1 0x40 MLOAD PUSH1 0x1 PUSH1 0x1 PUSH1 0xA0 SHL SUB SWAP1 SWAP2 AND DUP2 MSTORE PUSH1 0x20 ADD PUSH2 0x176 JUMP JUMPDEST CALLVALUE DUP1 ISZERO PUSH2 0x373 JUMPI PUSH1 0x0 DUP1 REVERT JUMPDEST POP PUSH2 0x16C PUSH2 0x382 CALLDATASIZE PUSH1 0x4 PUSH2 0x2CD3 JUMP JUMPDEST PUSH2 0x1A80 JUMP JUMPDEST CALLVALUE DUP1 ISZERO PUSH2 0x393 JUMPI PUSH1 0x0 DUP1 REVERT JUMPDEST POP PUSH2 0x14A PUSH2 0x3A2 CALLDATASIZE PUSH1 0x4 PUSH2 0x2E3F JUMP JUMPDEST PUSH2 0x1B2E JUMP JUMPDEST CALLVALUE DUP1 ISZERO PUSH2 0x3B3 JUMPI PUSH1 0x0 DUP1 REVERT JUMPDEST POP PUSH2 0x16C PUSH2 0x3C2 CALLDATASIZE PUSH1 0x4 PUSH2 0x2CD3 JUMP JUMPDEST PUSH2 0x1B6C JUMP JUMPDEST CALLVALUE DUP1 ISZERO PUSH2 0x3D3 JUMPI PUSH1 0x0 DUP1 REVERT JUMPDEST POP PUSH1 0x10 SLOAD PUSH2 0x16C JUMP JUMPDEST CALLVALUE DUP1 ISZERO PUSH2 0x3E8 JUMPI PUSH1 0x0 DUP1 REVERT JUMPDEST POP PUSH2 0x14A PUSH2 0x3F7 CALLDATASIZE PUSH1 0x4 PUSH2 0x2CD3 JUMP JUMPDEST PUSH2 0x1C05 JUMP JUMPDEST CALLVALUE DUP1 ISZERO PUSH2 0x408 JUMPI PUSH1 0x0 DUP1 REVERT JUMPDEST POP PUSH2 0x14A PUSH2 0x417 CALLDATASIZE PUSH1 0x4 PUSH2 0x2CA9 JUMP JUMPDEST PUSH2 0x1C3B JUMP JUMPDEST CALLVALUE DUP1 ISZERO PUSH2 0x428 JUMPI PUSH1 0x0 DUP1 REVERT JUMPDEST POP PUSH2 0x14A PUSH2 0x437 CALLDATASIZE PUSH1 0x4 PUSH2 0x2E17 JUMP JUMPDEST PUSH2 0x1FF0 JUMP JUMPDEST PUSH1 0xF SLOAD PUSH1 0x0 SWAP1 PUSH1 0x1 PUSH1 0x1 PUSH1 0xA0 SHL SUB SWAP1 DUP2 AND SWAP1 DUP5 AND SUB PUSH2 0x45C JUMPI POP DUP1 PUSH2 0x48B JUMP JUMPDEST PUSH9 0x3635C9ADC5DEA00000 PUSH2 0x487 PUSH13 0xC9F2C9CD04674EDEA40000000 PUSH2 0x481 DUP6 DUP5 PUSH2 0x2EF4 JUMP JUMPDEST SWAP1 PUSH2 0x20B8 JUMP JUMPDEST SWAP2 POP POP JUMPDEST SWAP3 SWAP2 POP POP JUMP JUMPDEST PUSH2 0x4C3 PUSH1 0x40 MLOAD DUP1 PUSH1 0xA0 ADD PUSH1 0x40 MSTORE DUP1 PUSH1 0x0 DUP2 MSTORE PUSH1 0x20 ADD PUSH1 0x0 DUP2 MSTORE PUSH1 0x20 ADD PUSH1 0x0 DUP2 MSTORE PUSH1 0x20 ADD PUSH1 0x0 DUP2 MSTORE PUSH1 0x20 ADD PUSH1 0x0 DUP2 MSTORE POP SWAP1 JUMP JUMPDEST PUSH1 0x1 PUSH1 0x1 PUSH1 0xA0 SHL SUB DUP3 AND PUSH1 0x0 SWAP1 DUP2 MSTORE PUSH1 0x9 PUSH1 0x20 SWAP1 DUP2 MSTORE PUSH1 0x40 SWAP2 DUP3 SWAP1 KECCAK256 DUP3 MLOAD PUSH1 0xA0 DUP2 ADD DUP5 MSTORE DUP2 SLOAD DUP2 MSTORE PUSH1 0x1 DUP3 ADD SLOAD SWAP3 DUP2 ADD DUP4 SWAP1 MSTORE PUSH1 0x2 DUP3 ADD SLOAD SWAP4 DUP2 ADD SWAP4 SWAP1 SWAP4 MSTORE PUSH1 0x3 DUP2 ADD SLOAD PUSH1 0x60 DUP5 ADD MSTORE PUSH1 0x4 ADD SLOAD PUSH1 0x80 DUP4 ADD MSTORE PUSH1 0x12 SLOAD PUSH2 0x522 SWAP2 SWAP1 PUSH2 0x20B8 JUMP JUMPDEST PUSH1 0x20 DUP3 ADD MSTORE PUSH1 0x12 SLOAD PUSH1 0x40 DUP3 ADD MLOAD PUSH2 0x538 SWAP2 PUSH2 0x20B8 JUMP JUMPDEST PUSH1 0x40 DUP3 ADD MSTORE SWAP3 SWAP2 POP POP JUMP JUMPDEST PUSH1 0x0 SLOAD PUSH1 0x1 PUSH1 0x1 PUSH1 0xA0 SHL SUB AND CALLER EQ PUSH2 0x576 JUMPI PUSH1 0x40 MLOAD PUSH3 0x461BCD PUSH1 0xE5 SHL DUP2 MSTORE PUSH1 0x4 ADD PUSH2 0x56D SWAP1 PUSH2 0x2F0B JUMP JUMPDEST PUSH1 0x40 MLOAD DUP1 SWAP2 SUB SWAP1 REVERT JUMPDEST DUP2 PUSH1 0x1 PUSH1 0x1 PUSH1 0xA0 SHL SUB AND PUSH4 0xA9059CBB PUSH2 0x597 PUSH1 0x0 SLOAD PUSH1 0x1 PUSH1 0x1 PUSH1 0xA0 SHL SUB AND SWAP1 JUMP JUMPDEST PUSH1 0x40 MLOAD PUSH1 0x1 PUSH1 0x1 PUSH1 0xE0 SHL SUB NOT PUSH1 0xE0 DUP5 SWAP1 SHL AND DUP2 MSTORE PUSH1 0x1 PUSH1 0x1 PUSH1 0xA0 SHL SUB SWAP1 SWAP2 AND PUSH1 0x4 DUP3 ADD MSTORE PUSH1 0x24 DUP2 ADD DUP5 SWAP1 MSTORE PUSH1 0x44 ADD PUSH1 0x20 PUSH1 0x40 MLOAD DUP1 DUP4 SUB DUP2 PUSH1 0x0 DUP8 GAS CALL ISZERO DUP1 ISZERO PUSH2 0x5E4 JUMPI RETURNDATASIZE PUSH1 0x0 DUP1 RETURNDATACOPY RETURNDATASIZE PUSH1 0x0 REVERT JUMPDEST POP POP POP POP PUSH1 0x40 MLOAD RETURNDATASIZE PUSH1 0x1F NOT PUSH1 0x1F DUP3 ADD AND DUP3 ADD DUP1 PUSH1 0x40 MSTORE POP DUP2 ADD SWAP1 PUSH2 0x608 SWAP2 SWAP1 PUSH2 0x2F40 JUMP JUMPDEST POP POP POP JUMP JUMPDEST PUSH1 0x0 DUP1 PUSH1 0x13 PUSH1 0x0 SWAP1 SLOAD SWAP1 PUSH2 0x100 EXP SWAP1 DIV PUSH1 0x1 PUSH1 0x1 PUSH1 0xA0 SHL SUB AND PUSH1 0x1 PUSH1 0x1 PUSH1 0xA0 SHL SUB AND PUSH4 0xFEAF968C PUSH1 0x40 MLOAD DUP2 PUSH4 0xFFFFFFFF AND PUSH1 0xE0 SHL DUP2 MSTORE PUSH1 0x4 ADD PUSH1 0xA0 PUSH1 0x40 MLOAD DUP1 DUP4 SUB DUP2 DUP7 GAS STATICCALL ISZERO DUP1 ISZERO PUSH2 0x663 JUMPI RETURNDATASIZE PUSH1 0x0 DUP1 RETURNDATACOPY RETURNDATASIZE PUSH1 0x0 REVERT JUMPDEST POP POP POP POP PUSH1 0x40 MLOAD RETURNDATASIZE PUSH1 0x1F NOT PUSH1 0x1F DUP3 ADD AND DUP3 ADD DUP1 PUSH1 0x40 MSTORE POP DUP2 ADD SWAP1 PUSH2 0x687 SWAP2 SWAP1 PUSH2 0x2F7C JUMP JUMPDEST POP POP POP SWAP2 POP POP DUP1 PUSH5 0x2540BE400 PUSH2 0x48B SWAP2 SWAP1 PUSH2 0x2FCC JUMP JUMPDEST PUSH2 0x6A7 CALLER PUSH2 0x20CB JUMP JUMPDEST PUSH1 0x0 DUP2 GT PUSH2 0x6E7 JUMPI PUSH1 0x40 MLOAD PUSH3 0x461BCD PUSH1 0xE5 SHL DUP2 MSTORE PUSH1 0x20 PUSH1 0x4 DUP3 ADD MSTORE PUSH1 0xD PUSH1 0x24 DUP3 ADD MSTORE PUSH13 0x63616E2774207265706179203 PUSH1 0x9C SHL PUSH1 0x44 DUP3 ADD MSTORE PUSH1 0x64 ADD PUSH2 0x56D JUMP JUMPDEST CALLER PUSH1 0x0 SWAP1 DUP2 MSTORE PUSH1 0xC PUSH1 0x20 MSTORE PUSH1 0x40 SWAP1 KECCAK256 SLOAD DUP1 PUSH2 0x714 JUMPI PUSH1 0x40 MLOAD PUSH3 0x461BCD PUSH1 0xE5 SHL DUP2 MSTORE PUSH1 0x4 ADD PUSH2 0x56D SWAP1 PUSH2 0x2FFC JUMP JUMPDEST PUSH1 0x0 DUP2 DUP2 MSTORE PUSH1 0xB PUSH1 0x20 SWAP1 DUP2 MSTORE PUSH1 0x40 DUP1 DUP4 KECCAK256 PUSH1 0x1 PUSH1 0x1 PUSH1 0xA0 SHL SUB DUP8 AND DUP5 MSTORE PUSH1 0x5 DUP2 ADD SWAP1 SWAP3 MSTORE DUP3 KECCAK256 SLOAD SWAP1 SWAP2 SWAP1 DUP5 LT ISZERO PUSH2 0x7AA JUMPI PUSH1 0x1 PUSH1 0x1 PUSH1 0xA0 SHL SUB DUP6 AND PUSH1 0x0 SWAP1 DUP2 MSTORE PUSH1 0x5 DUP4 ADD PUSH1 0x20 MSTORE PUSH1 0x40 DUP2 KECCAK256 DUP1 SLOAD DUP7 SWAP3 SWAP1 PUSH2 0x76F SWAP1 DUP5 SWAP1 PUSH2 0x303F JUMP JUMPDEST SWAP1 SWAP2 SSTORE POP POP PUSH1 0x1 PUSH1 0x1 PUSH1 0xA0 SHL SUB DUP6 AND PUSH1 0x0 SWAP1 DUP2 MSTORE PUSH1 0x9 PUSH1 0x20 MSTORE PUSH1 0x40 DUP2 KECCAK256 PUSH1 0x3 ADD DUP1 SLOAD DUP7 SWAP3 SWAP1 PUSH2 0x79F SWAP1 DUP5 SWAP1 PUSH2 0x3052 JUMP JUMPDEST SWAP1 SWAP2 SSTORE POP PUSH2 0x90F SWAP1 POP JUMP JUMPDEST PUSH1 0x1 PUSH1 0x1 PUSH1 0xA0 SHL SUB DUP6 AND PUSH1 0x0 SWAP1 DUP2 MSTORE PUSH1 0x3 DUP4 ADD PUSH1 0x20 SWAP1 DUP2 MSTORE PUSH1 0x40 DUP1 DUP4 KECCAK256 SLOAD PUSH1 0x5 DUP7 ADD SWAP1 SWAP3 MSTORE SWAP1 SWAP2 KECCAK256 SLOAD PUSH2 0x7DD SWAP2 SWAP1 PUSH2 0x3052 JUMP JUMPDEST DUP5 GT ISZERO PUSH2 0x805 JUMPI POP PUSH1 0x1 PUSH1 0x1 PUSH1 0xA0 SHL SUB DUP5 AND PUSH1 0x0 SWAP1 DUP2 MSTORE PUSH1 0x3 DUP3 ADD PUSH1 0x20 MSTORE PUSH1 0x40 SWAP1 KECCAK256 SLOAD PUSH2 0x82D JUMP JUMPDEST PUSH1 0x1 PUSH1 0x1 PUSH1 0xA0 SHL SUB DUP6 AND PUSH1 0x0 SWAP1 DUP2 MSTORE PUSH1 0x5 DUP4 ADD PUSH1 0x20 MSTORE PUSH1 0x40 SWAP1 KECCAK256 SLOAD PUSH2 0x82A SWAP1 DUP6 PUSH2 0x303F JUMP JUMPDEST SWAP1 POP JUMPDEST PUSH2 0x85A PUSH1 0x40 MLOAD DUP1 PUSH1 0x40 ADD PUSH1 0x40 MSTORE DUP1 PUSH1 0xB DUP2 MSTORE PUSH1 0x20 ADD PUSH11 0x1C995C185E585B5BDD5B9D PUSH1 0xAA SHL DUP2 MSTORE POP DUP3 PUSH2 0x2255 JUMP JUMPDEST PUSH1 0x1 PUSH1 0x1 PUSH1 0xA0 SHL SUB DUP6 AND PUSH1 0x0 SWAP1 DUP2 MSTORE PUSH1 0x3 DUP4 ADD PUSH1 0x20 MSTORE PUSH1 0x40 DUP2 KECCAK256 DUP1 SLOAD DUP4 SWAP3 SWAP1 PUSH2 0x884 SWAP1 DUP5 SWAP1 PUSH2 0x303F JUMP JUMPDEST SWAP1 SWAP2 SSTORE POP POP PUSH1 0x1 PUSH1 0x1 PUSH1 0xA0 SHL SUB DUP6 AND PUSH1 0x0 SWAP1 DUP2 MSTORE PUSH1 0x5 DUP4 ADD PUSH1 0x20 MSTORE PUSH1 0x40 DUP2 KECCAK256 SSTORE PUSH2 0x8AE DUP2 DUP6 PUSH2 0x303F JUMP JUMPDEST PUSH1 0x1 PUSH1 0x1 PUSH1 0xA0 SHL SUB DUP7 AND PUSH1 0x0 SWAP1 DUP2 MSTORE PUSH1 0x9 PUSH1 0x20 MSTORE PUSH1 0x40 DUP2 KECCAK256 PUSH1 0x3 ADD DUP1 SLOAD SWAP1 SWAP2 SWAP1 PUSH2 0x8D9 SWAP1 DUP5 SWAP1 PUSH2 0x3052 JUMP JUMPDEST SWAP1 SWAP2 SSTORE POP POP PUSH1 0x1 PUSH1 0x1 PUSH1 0xA0 SHL SUB DUP6 AND PUSH1 0x0 SWAP1 DUP2 MSTORE PUSH1 0x9 PUSH1 0x20 MSTORE PUSH1 0x40 DUP2 KECCAK256 PUSH1 0x4 ADD DUP1 SLOAD DUP4 SWAP3 SWAP1 PUSH2 0x909 SWAP1 DUP5 SWAP1 PUSH2 0x303F JUMP JUMPDEST SWAP1 SWAP2 SSTORE POP POP JUMPDEST PUSH1 0xF SLOAD PUSH1 0x1 PUSH1 0x1 PUSH1 0xA0 SHL SUB SWAP1 DUP2 AND SWAP1 DUP7 AND SUB PUSH2 0x9E0 JUMPI PUSH1 0xF SLOAD PUSH1 0x40 MLOAD PUSH4 0x23B872DD PUSH1 0xE0 SHL DUP2 MSTORE CALLER PUSH1 0x4 DUP3 ADD MSTORE ADDRESS PUSH1 0x24 DUP3 ADD MSTORE PUSH1 0x44 DUP2 ADD DUP7 SWAP1 MSTORE PUSH1 0x1 PUSH1 0x1 PUSH1 0xA0 SHL SUB SWAP1 SWAP2 AND SWAP1 PUSH4 0x23B872DD SWAP1 PUSH1 0x64 ADD PUSH1 0x20 PUSH1 0x40 MLOAD DUP1 DUP4 SUB DUP2 PUSH1 0x0 DUP8 GAS CALL ISZERO DUP1 ISZERO PUSH2 0x97C JUMPI RETURNDATASIZE PUSH1 0x0 DUP1 RETURNDATACOPY RETURNDATASIZE PUSH1 0x0 REVERT JUMPDEST POP POP POP POP PUSH1 0x40 MLOAD RETURNDATASIZE PUSH1 0x1F NOT PUSH1 0x1F DUP3 ADD AND DUP3 ADD DUP1 PUSH1 0x40 MSTORE POP DUP2 ADD SWAP1 PUSH2 0x9A0 SWAP2 SWAP1 PUSH2 0x2F40 JUMP JUMPDEST PUSH2 0x9DB JUMPI PUSH1 0x40 MLOAD PUSH3 0x461BCD PUSH1 0xE5 SHL DUP2 MSTORE PUSH1 0x20 PUSH1 0x4 DUP3 ADD MSTORE PUSH1 0xC PUSH1 0x24 DUP3 ADD MSTORE PUSH12 0x14995C185E4819985A5B1959 PUSH1 0xA2 SHL PUSH1 0x44 DUP3 ADD MSTORE PUSH1 0x64 ADD PUSH2 0x56D JUMP JUMPDEST PUSH2 0xA23 JUMP JUMPDEST DUP4 CALLVALUE LT ISZERO PUSH2 0xA23 JUMPI PUSH1 0x40 MLOAD PUSH3 0x461BCD PUSH1 0xE5 SHL DUP2 MSTORE PUSH1 0x20 PUSH1 0x4 DUP3 ADD MSTORE PUSH1 0x10 PUSH1 0x24 DUP3 ADD MSTORE PUSH16 0x283632B0B9B2903830BC9036B7B93297 PUSH1 0x81 SHL PUSH1 0x44 DUP3 ADD MSTORE PUSH1 0x64 ADD PUSH2 0x56D JUMP JUMPDEST PUSH2 0xA2C CALLER PUSH2 0x20CB JUMP JUMPDEST POP POP POP POP POP JUMP JUMPDEST PUSH1 0xE SLOAD PUSH1 0x1 PUSH1 0x1 PUSH1 0xA0 SHL SUB SWAP1 DUP2 AND PUSH1 0x0 DUP2 DUP2 MSTORE PUSH1 0x9 PUSH1 0x20 MSTORE PUSH1 0x40 DUP1 DUP3 KECCAK256 PUSH1 0xF SLOAD SWAP1 SWAP5 AND DUP3 MSTORE DUP2 KECCAK256 PUSH1 0x3 DUP1 DUP3 ADD SLOAD SWAP1 DUP6 ADD SLOAD SWAP3 SWAP5 DUP6 SWAP5 SWAP1 SWAP4 PUSH2 0xA74 SWAP2 SWAP1 PUSH2 0x43C JUMP JUMPDEST PUSH2 0xA7E SWAP2 SWAP1 PUSH2 0x3052 JUMP JUMPDEST DUP2 PUSH1 0x4 ADD SLOAD PUSH2 0xAA6 PUSH1 0xE PUSH1 0x0 SWAP1 SLOAD SWAP1 PUSH2 0x100 EXP SWAP1 DIV PUSH1 0x1 PUSH1 0x1 PUSH1 0xA0 SHL SUB AND DUP6 PUSH1 0x4 ADD SLOAD PUSH2 0x43C JUMP JUMPDEST PUSH2 0xAB0 SWAP2 SWAP1 PUSH2 0x3052 JUMP JUMPDEST SWAP4 POP SWAP4 POP POP POP SWAP1 SWAP2 JUMP JUMPDEST PUSH1 0x1 PUSH1 0x1 PUSH1 0xA0 SHL SUB DUP2 AND PUSH1 0x0 SWAP1 DUP2 MSTORE PUSH1 0xC PUSH1 0x20 MSTORE PUSH1 0x40 SWAP1 KECCAK256 SLOAD DUP1 PUSH2 0xAF0 JUMPI PUSH1 0x40 MLOAD PUSH3 0x461BCD PUSH1 0xE5 SHL DUP2 MSTORE PUSH1 0x4 ADD PUSH2 0x56D SWAP1 PUSH2 0x2FFC JUMP JUMPDEST PUSH1 0x0 DUP2 DUP2 MSTORE PUSH1 0xB PUSH1 0x20 MSTORE PUSH1 0x40 DUP2 KECCAK256 SWAP1 PUSH2 0xB08 DUP5 PUSH2 0x1B6C JUMP JUMPDEST SWAP1 POP PUSH1 0x0 PUSH2 0xB15 DUP6 PUSH2 0x1A80 JUMP JUMPDEST SWAP1 POP PUSH1 0x0 PUSH2 0xB40 PUSH1 0x10 SLOAD DUP5 PUSH2 0xB2A SWAP2 SWAP1 PUSH2 0x2EF4 JUMP JUMPDEST PUSH2 0xB35 DUP5 PUSH1 0x64 PUSH2 0x2EF4 JUMP JUMPDEST PUSH2 0x481 SWAP1 PUSH1 0x64 PUSH2 0x2EF4 JUMP JUMPDEST SWAP1 POP PUSH1 0x64 DUP2 GT PUSH2 0xB92 JUMPI PUSH1 0x40 MLOAD PUSH3 0x461BCD PUSH1 0xE5 SHL DUP2 MSTORE PUSH1 0x20 PUSH1 0x4 DUP3 ADD MSTORE PUSH1 0x1F PUSH1 0x24 DUP3 ADD MSTORE PUSH32 0x54686973206973206E6F7420656E61626C6564206C69717569646174696F6E00 PUSH1 0x44 DUP3 ADD MSTORE PUSH1 0x64 ADD PUSH2 0x56D JUMP JUMPDEST PUSH1 0xE SLOAD PUSH1 0x1 PUSH1 0x1 PUSH1 0xA0 SHL SUB AND PUSH1 0x0 SWAP1 DUP2 MSTORE PUSH1 0x4 DUP6 ADD PUSH1 0x20 SWAP1 DUP2 MSTORE PUSH1 0x40 DUP1 DUP4 KECCAK256 SLOAD PUSH1 0x2 DUP9 ADD SWAP1 SWAP3 MSTORE DUP3 KECCAK256 SLOAD PUSH2 0xBC6 SWAP2 SWAP1 PUSH2 0x3052 JUMP JUMPDEST PUSH1 0xF SLOAD PUSH1 0x1 PUSH1 0x1 PUSH1 0xA0 SHL SUB AND PUSH1 0x0 SWAP1 DUP2 MSTORE PUSH1 0x4 DUP8 ADD PUSH1 0x20 SWAP1 DUP2 MSTORE PUSH1 0x40 DUP1 DUP4 KECCAK256 SLOAD PUSH1 0x2 DUP11 ADD SWAP1 SWAP3 MSTORE DUP3 KECCAK256 SLOAD SWAP3 SWAP4 POP SWAP1 SWAP2 PUSH2 0xBFF SWAP2 SWAP1 PUSH2 0x3052 JUMP JUMPDEST PUSH1 0xE SLOAD PUSH1 0x1 PUSH1 0x1 PUSH1 0xA0 SHL SUB AND PUSH1 0x0 SWAP1 DUP2 MSTORE PUSH1 0x5 DUP9 ADD PUSH1 0x20 SWAP1 DUP2 MSTORE PUSH1 0x40 DUP1 DUP4 KECCAK256 SLOAD PUSH1 0x3 DUP12 ADD SWAP1 SWAP3 MSTORE DUP3 KECCAK256 SLOAD SWAP3 SWAP4 POP SWAP1 SWAP2 PUSH2 0xC38 SWAP2 SWAP1 PUSH2 0x3052 JUMP JUMPDEST PUSH1 0xF SLOAD PUSH1 0x1 PUSH1 0x1 PUSH1 0xA0 SHL SUB AND PUSH1 0x0 SWAP1 DUP2 MSTORE PUSH1 0x5 DUP10 ADD PUSH1 0x20 SWAP1 DUP2 MSTORE PUSH1 0x40 DUP1 DUP4 KECCAK256 SLOAD PUSH1 0x3 DUP13 ADD SWAP1 SWAP3 MSTORE DUP3 KECCAK256 SLOAD SWAP3 SWAP4 POP SWAP1 SWAP2 PUSH2 0xC71 SWAP2 SWAP1 PUSH2 0x3052 JUMP JUMPDEST PUSH1 0xE SLOAD PUSH1 0x1 PUSH1 0x1 PUSH1 0xA0 SHL SUB AND PUSH1 0x0 SWAP1 DUP2 MSTORE PUSH1 0x5 DUP11 ADD PUSH1 0x20 SWAP1 DUP2 MSTORE PUSH1 0x40 DUP1 DUP4 KECCAK256 SLOAD PUSH1 0x9 SWAP1 SWAP3 MSTORE SWAP1 SWAP2 KECCAK256 PUSH1 0x3 ADD SLOAD SWAP2 SWAP3 POP SWAP1 PUSH2 0xCAC SWAP1 DUP7 SWAP1 PUSH2 0x303F JUMP JUMPDEST PUSH2 0xCB6 SWAP2 SWAP1 PUSH2 0x3052 JUMP JUMPDEST PUSH1 0xE SLOAD PUSH1 0x1 PUSH1 0x1 PUSH1 0xA0 SHL SUB SWAP1 DUP2 AND PUSH1 0x0 SWAP1 DUP2 MSTORE PUSH1 0x9 PUSH1 0x20 DUP2 DUP2 MSTORE PUSH1 0x40 DUP1 DUP5 KECCAK256 PUSH1 0x3 SWAP1 DUP2 ADD SWAP7 SWAP1 SWAP7 SSTORE PUSH1 0xF SLOAD SWAP1 SWAP5 AND DUP4 MSTORE PUSH1 0x5 DUP14 ADD DUP2 MSTORE DUP4 DUP4 KECCAK256 SLOAD SWAP2 SWAP1 MSTORE SWAP2 SWAP1 KECCAK256 SWAP1 SWAP2 ADD SLOAD PUSH2 0xD05 SWAP1 DUP6 SWAP1 PUSH2 0x303F JUMP JUMPDEST PUSH2 0xD0F SWAP2 SWAP1 PUSH2 0x3052 JUMP JUMPDEST PUSH1 0xF SLOAD PUSH1 0x1 PUSH1 0x1 PUSH1 0xA0 SHL SUB SWAP1 DUP2 AND PUSH1 0x0 SWAP1 DUP2 MSTORE PUSH1 0x9 PUSH1 0x20 SWAP1 DUP2 MSTORE PUSH1 0x40 DUP1 DUP4 KECCAK256 PUSH1 0x3 SWAP1 DUP2 ADD SWAP6 SWAP1 SWAP6 SSTORE PUSH1 0xE SLOAD SWAP1 SWAP4 AND DUP3 MSTORE DUP3 DUP3 KECCAK256 PUSH1 0x4 ADD SLOAD SWAP4 DUP13 ADD SWAP1 MSTORE KECCAK256 SLOAD PUSH2 0xD57 SWAP2 SWAP1 PUSH2 0x229A JUMP JUMPDEST PUSH1 0xE SLOAD PUSH1 0x1 PUSH1 0x1 PUSH1 0xA0 SHL SUB AND PUSH1 0x0 SWAP1 DUP2 MSTORE PUSH1 0x3 DUP10 ADD PUSH1 0x20 SWAP1 DUP2 MSTORE PUSH1 0x40 DUP1 DUP4 KECCAK256 SLOAD PUSH1 0x9 SWAP1 SWAP3 MSTORE DUP3 KECCAK256 PUSH1 0x4 ADD DUP1 SLOAD SWAP2 SWAP3 SWAP1 SWAP2 PUSH2 0xD92 SWAP1 DUP5 SWAP1 PUSH2 0x303F JUMP JUMPDEST SWAP1 SWAP2 SSTORE POP POP PUSH1 0xF SLOAD PUSH1 0x1 PUSH1 0x1 PUSH1 0xA0 SHL SUB AND PUSH1 0x0 SWAP1 DUP2 MSTORE PUSH1 0x3 DUP10 ADD PUSH1 0x20 SWAP1 DUP2 MSTORE PUSH1 0x40 DUP1 DUP4 KECCAK256 SLOAD PUSH1 0x9 SWAP1 SWAP3 MSTORE DUP3 KECCAK256 PUSH1 0x4 ADD DUP1 SLOAD SWAP2 SWAP3 SWAP1 SWAP2 PUSH2 0xDD2 SWAP1 DUP5 SWAP1 PUSH2 0x303F JUMP JUMPDEST SWAP1 SWAP2 SSTORE POP PUSH2 0xDE4 SWAP1 POP DUP3 PUSH2 0x2710 PUSH2 0x20B8 JUMP JUMPDEST PUSH2 0xDF0 SWAP1 PUSH2 0x270F PUSH2 0x2EF4 JUMP JUMPDEST CALLVALUE LT ISZERO PUSH2 0xE30 JUMPI PUSH1 0x40 MLOAD PUSH3 0x461BCD PUSH1 0xE5 SHL DUP2 MSTORE PUSH1 0x20 PUSH1 0x4 DUP3 ADD MSTORE PUSH1 0xE PUSH1 0x24 DUP3 ADD MSTORE PUSH14 0x9CDEE840CADCDEEACED040CAE8D PUSH1 0x93 SHL PUSH1 0x44 DUP3 ADD MSTORE PUSH1 0x64 ADD PUSH2 0x56D JUMP JUMPDEST PUSH1 0xF SLOAD PUSH1 0x1 PUSH1 0x1 PUSH1 0xA0 SHL SUB AND PUSH4 0x23B872DD CALLER ADDRESS PUSH2 0xE4F DUP6 PUSH2 0x2710 PUSH2 0x20B8 JUMP JUMPDEST PUSH2 0xE5B SWAP1 PUSH2 0x270F PUSH2 0x2EF4 JUMP JUMPDEST PUSH1 0x40 MLOAD PUSH1 0x1 PUSH1 0x1 PUSH1 0xE0 SHL SUB NOT PUSH1 0xE0 DUP7 SWAP1 SHL AND DUP2 MSTORE PUSH1 0x1 PUSH1 0x1 PUSH1 0xA0 SHL SUB SWAP4 DUP5 AND PUSH1 0x4 DUP3 ADD MSTORE SWAP3 SWAP1 SWAP2 AND PUSH1 0x24 DUP4 ADD MSTORE PUSH1 0x44 DUP3 ADD MSTORE PUSH1 0x64 ADD PUSH1 0x20 PUSH1 0x40 MLOAD DUP1 DUP4 SUB DUP2 PUSH1 0x0 DUP8 GAS CALL ISZERO DUP1 ISZERO PUSH2 0xEAF JUMPI RETURNDATASIZE PUSH1 0x0 DUP1 RETURNDATACOPY RETURNDATASIZE PUSH1 0x0 REVERT JUMPDEST POP POP POP POP PUSH1 0x40 MLOAD RETURNDATASIZE PUSH1 0x1F NOT PUSH1 0x1F DUP3 ADD AND DUP3 ADD DUP1 PUSH1 0x40 MSTORE POP DUP2 ADD SWAP1 PUSH2 0xED3 SWAP2 SWAP1 PUSH2 0x2F40 JUMP JUMPDEST PUSH2 0xF10 JUMPI PUSH1 0x40 MLOAD PUSH3 0x461BCD PUSH1 0xE5 SHL DUP2 MSTORE PUSH1 0x20 PUSH1 0x4 DUP3 ADD MSTORE PUSH1 0xE PUSH1 0x24 DUP3 ADD MSTORE PUSH14 0x19195C1BDCDA5D0819985A5B1959 PUSH1 0x92 SHL PUSH1 0x44 DUP3 ADD MSTORE PUSH1 0x64 ADD PUSH2 0x56D JUMP JUMPDEST PUSH1 0x40 MLOAD PUSH1 0x0 SWAP1 CALLER SWAP1 DUP7 SWAP1 DUP4 DUP2 DUP2 DUP2 DUP6 DUP8 GAS CALL SWAP3 POP POP POP RETURNDATASIZE DUP1 PUSH1 0x0 DUP2 EQ PUSH2 0xF52 JUMPI PUSH1 0x40 MLOAD SWAP2 POP PUSH1 0x1F NOT PUSH1 0x3F RETURNDATASIZE ADD AND DUP3 ADD PUSH1 0x40 MSTORE RETURNDATASIZE DUP3 MSTORE RETURNDATASIZE PUSH1 0x0 PUSH1 0x20 DUP5 ADD RETURNDATACOPY PUSH2 0xF57 JUMP JUMPDEST PUSH1 0x60 SWAP2 POP JUMPDEST POP POP SWAP1 POP DUP1 PUSH2 0xF9E JUMPI PUSH1 0x40 MLOAD PUSH3 0x461BCD PUSH1 0xE5 SHL DUP2 MSTORE PUSH1 0x20 PUSH1 0x4 DUP3 ADD MSTORE PUSH1 0x13 PUSH1 0x24 DUP3 ADD MSTORE PUSH19 0x3330B4B632B2103A379039B2B7321032BA3417 PUSH1 0x69 SHL PUSH1 0x44 DUP3 ADD MSTORE PUSH1 0x64 ADD PUSH2 0x56D JUMP JUMPDEST PUSH1 0xF SLOAD PUSH1 0x40 MLOAD PUSH4 0xA9059CBB PUSH1 0xE0 SHL DUP2 MSTORE CALLER PUSH1 0x4 DUP3 ADD MSTORE PUSH1 0x24 DUP2 ADD DUP7 SWAP1 MSTORE PUSH1 0x1 PUSH1 0x1 PUSH1 0xA0 SHL SUB SWAP1 SWAP2 AND SWAP1 PUSH4 0xA9059CBB SWAP1 PUSH1 0x44 ADD PUSH1 0x20 PUSH1 0x40 MLOAD DUP1 DUP4 SUB DUP2 PUSH1 0x0 DUP8 GAS CALL ISZERO DUP1 ISZERO PUSH2 0xFEF JUMPI RETURNDATASIZE PUSH1 0x0 DUP1 RETURNDATACOPY RETURNDATASIZE PUSH1 0x0 REVERT JUMPDEST POP POP POP POP PUSH1 0x40 MLOAD RETURNDATASIZE PUSH1 0x1F NOT PUSH1 0x1F DUP3 ADD AND DUP3 ADD DUP1 PUSH1 0x40 MSTORE POP DUP2 ADD SWAP1 PUSH2 0x1013 SWAP2 SWAP1 PUSH2 0x2F40 JUMP JUMPDEST POP PUSH1 0xD SLOAD PUSH1 0x6 DUP11 ADD SLOAD PUSH1 0x40 MLOAD PUSH4 0xA9059CBB PUSH1 0xE0 SHL DUP2 MSTORE CALLER PUSH1 0x4 DUP3 ADD MSTORE PUSH1 0x24 DUP2 ADD SWAP2 SWAP1 SWAP2 MSTORE PUSH1 0x1 PUSH1 0x1 PUSH1 0xA0 SHL SUB SWAP1 SWAP2 AND SWAP1 PUSH4 0xA9059CBB SWAP1 PUSH1 0x44 ADD PUSH1 0x20 PUSH1 0x40 MLOAD DUP1 DUP4 SUB DUP2 PUSH1 0x0 DUP8 GAS CALL ISZERO DUP1 ISZERO PUSH2 0x106B JUMPI RETURNDATASIZE PUSH1 0x0 DUP1 RETURNDATACOPY RETURNDATASIZE PUSH1 0x0 REVERT JUMPDEST POP POP POP POP PUSH1 0x40 MLOAD RETURNDATASIZE PUSH1 0x1F NOT PUSH1 0x1F DUP3 ADD AND DUP3 ADD DUP1 PUSH1 0x40 MSTORE POP DUP2 ADD SWAP1 PUSH2 0x108F SWAP2 SWAP1 PUSH2 0x2F40 JUMP JUMPDEST POP PUSH2 0x1099 DUP12 PUSH2 0x22E1 JUMP JUMPDEST PUSH2 0x10A2 CALLER PUSH2 0x20CB JUMP JUMPDEST POP POP POP POP POP POP POP POP POP POP POP JUMP JUMPDEST PUSH1 0x0 DUP2 GT PUSH2 0x10F1 JUMPI PUSH1 0x40 MLOAD PUSH3 0x461BCD PUSH1 0xE5 SHL DUP2 MSTORE PUSH1 0x20 PUSH1 0x4 DUP3 ADD MSTORE PUSH1 0xF PUSH1 0x24 DUP3 ADD MSTORE PUSH15 0x63616E2774206465706F736974203 PUSH1 0x8C SHL PUSH1 0x44 DUP3 ADD MSTORE PUSH1 0x64 ADD PUSH2 0x56D JUMP JUMPDEST CALLER PUSH1 0x0 SWAP1 DUP2 MSTORE PUSH1 0xC PUSH1 0x20 MSTORE PUSH1 0x40 DUP2 KECCAK256 SLOAD DUP2 SUB PUSH2 0x113B JUMPI PUSH1 0x1 PUSH1 0xA PUSH1 0x0 DUP3 DUP3 SLOAD PUSH2 0x111A SWAP2 SWAP1 PUSH2 0x3052 JUMP JUMPDEST SWAP1 SWAP2 SSTORE POP POP PUSH1 0xA SLOAD CALLER PUSH1 0x0 SWAP1 DUP2 MSTORE PUSH1 0xC PUSH1 0x20 MSTORE PUSH1 0x40 SWAP1 KECCAK256 DUP2 SWAP1 SSTORE SWAP1 POP PUSH2 0x1156 JUMP JUMPDEST POP CALLER PUSH1 0x0 DUP2 DUP2 MSTORE PUSH1 0xC PUSH1 0x20 MSTORE PUSH1 0x40 SWAP1 KECCAK256 SLOAD SWAP1 PUSH2 0x1156 SWAP1 PUSH2 0x20CB JUMP JUMPDEST PUSH1 0x0 DUP2 DUP2 MSTORE PUSH1 0xB PUSH1 0x20 SWAP1 DUP2 MSTORE PUSH1 0x40 DUP1 DUP4 KECCAK256 DUP1 SLOAD PUSH1 0x1 PUSH1 0x1 PUSH1 0xA0 SHL SUB NOT AND CALLER OR DUP2 SSTORE TIMESTAMP PUSH1 0x1 DUP3 ADD SSTORE PUSH1 0x1 PUSH1 0x1 PUSH1 0xA0 SHL SUB DUP8 AND DUP5 MSTORE PUSH1 0x2 DUP2 ADD SWAP1 SWAP3 MSTORE DUP3 KECCAK256 DUP1 SLOAD SWAP2 SWAP3 DUP6 SWAP3 PUSH2 0x11A3 SWAP1 DUP5 SWAP1 PUSH2 0x3052 JUMP JUMPDEST SWAP1 SWAP2 SSTORE POP POP PUSH1 0xF SLOAD PUSH1 0x1 PUSH1 0x1 PUSH1 0xA0 SHL SUB SWAP1 DUP2 AND SWAP1 DUP6 AND SUB PUSH2 0x12AE JUMPI PUSH1 0xF SLOAD PUSH1 0x40 MLOAD PUSH4 0x23B872DD PUSH1 0xE0 SHL DUP2 MSTORE CALLER PUSH1 0x4 DUP3 ADD MSTORE ADDRESS PUSH1 0x24 DUP3 ADD MSTORE PUSH1 0x44 DUP2 ADD DUP6 SWAP1 MSTORE PUSH1 0x1 PUSH1 0x1 PUSH1 0xA0 SHL SUB SWAP1 SWAP2 AND SWAP1 PUSH4 0x23B872DD SWAP1 PUSH1 0x64 ADD PUSH1 0x20 PUSH1 0x40 MLOAD DUP1 DUP4 SUB DUP2 PUSH1 0x0 DUP8 GAS CALL ISZERO DUP1 ISZERO PUSH2 0x1215 JUMPI RETURNDATASIZE PUSH1 0x0 DUP1 RETURNDATACOPY RETURNDATASIZE PUSH1 0x0 REVERT JUMPDEST POP POP POP POP PUSH1 0x40 MLOAD RETURNDATASIZE PUSH1 0x1F NOT PUSH1 0x1F DUP3 ADD AND DUP3 ADD DUP1 PUSH1 0x40 MSTORE POP DUP2 ADD SWAP1 PUSH2 0x1239 SWAP2 SWAP1 PUSH2 0x2F40 JUMP JUMPDEST PUSH2 0x1276 JUMPI PUSH1 0x40 MLOAD PUSH3 0x461BCD PUSH1 0xE5 SHL DUP2 MSTORE PUSH1 0x20 PUSH1 0x4 DUP3 ADD MSTORE PUSH1 0xE PUSH1 0x24 DUP3 ADD MSTORE PUSH14 0x19195C1BDCDA5D0819985A5B1959 PUSH1 0x92 SHL PUSH1 0x44 DUP3 ADD MSTORE PUSH1 0x64 ADD PUSH2 0x56D JUMP JUMPDEST PUSH1 0xF SLOAD PUSH1 0x1 PUSH1 0x1 PUSH1 0xA0 SHL SUB AND PUSH1 0x0 SWAP1 DUP2 MSTORE PUSH1 0x9 PUSH1 0x20 MSTORE PUSH1 0x40 DUP2 KECCAK256 PUSH1 0x3 ADD DUP1 SLOAD DUP6 SWAP3 SWAP1 PUSH2 0x12A3 SWAP1 DUP5 SWAP1 PUSH2 0x3052 JUMP JUMPDEST SWAP1 SWAP2 SSTORE POP PUSH2 0x12E1 SWAP1 POP JUMP JUMPDEST PUSH1 0xE SLOAD PUSH1 0x1 PUSH1 0x1 PUSH1 0xA0 SHL SUB AND PUSH1 0x0 SWAP1 DUP2 MSTORE PUSH1 0x9 PUSH1 0x20 MSTORE PUSH1 0x40 DUP2 KECCAK256 PUSH1 0x3 ADD DUP1 SLOAD DUP6 SWAP3 SWAP1 PUSH2 0x12DB SWAP1 DUP5 SWAP1 PUSH2 0x3052 JUMP JUMPDEST SWAP1 SWAP2 SSTORE POP POP JUMPDEST PUSH2 0x12EA CALLER PUSH2 0x20CB JUMP JUMPDEST POP POP POP POP JUMP JUMPDEST PUSH1 0x0 DUP2 GT PUSH2 0x1331 JUMPI PUSH1 0x40 MLOAD PUSH3 0x461BCD PUSH1 0xE5 SHL DUP2 MSTORE PUSH1 0x20 PUSH1 0x4 DUP3 ADD MSTORE PUSH1 0xE PUSH1 0x24 DUP3 ADD MSTORE PUSH14 0x63616E277420626F72726F77203 PUSH1 0x94 SHL PUSH1 0x44 DUP3 ADD MSTORE PUSH1 0x64 ADD PUSH2 0x56D JUMP JUMPDEST CALLER PUSH1 0x0 SWAP1 DUP2 MSTORE PUSH1 0xC PUSH1 0x20 MSTORE PUSH1 0x40 SWAP1 KECCAK256 SLOAD DUP1 PUSH2 0x135E JUMPI PUSH1 0x40 MLOAD PUSH3 0x461BCD PUSH1 0xE5 SHL DUP2 MSTORE PUSH1 0x4 ADD PUSH2 0x56D SWAP1 PUSH2 0x2FFC JUMP JUMPDEST PUSH1 0x0 DUP2 DUP2 MSTORE PUSH1 0xB PUSH1 0x20 MSTORE PUSH1 0x40 DUP2 KECCAK256 SWAP1 PUSH2 0x1376 CALLER PUSH2 0x1B6C JUMP JUMPDEST SWAP1 POP PUSH1 0x0 PUSH2 0x1383 CALLER PUSH2 0x1A80 JUMP JUMPDEST SWAP1 POP DUP1 DUP3 LT ISZERO PUSH2 0x13D5 JUMPI PUSH1 0x40 MLOAD PUSH3 0x461BCD PUSH1 0xE5 SHL DUP2 MSTORE PUSH1 0x20 PUSH1 0x4 DUP3 ADD MSTORE PUSH1 0x1E PUSH1 0x24 DUP3 ADD MSTORE PUSH32 0x596F7520646F6E6F74206861766520616E7920636F6C6C61746572616C2E0000 PUSH1 0x44 DUP3 ADD MSTORE PUSH1 0x64 ADD PUSH2 0x56D JUMP JUMPDEST PUSH1 0x0 PUSH2 0x13E1 DUP8 DUP8 PUSH2 0x43C JUMP JUMPDEST PUSH1 0x1 PUSH1 0x1 PUSH1 0xA0 SHL SUB DUP9 AND PUSH1 0x0 SWAP1 DUP2 MSTORE PUSH1 0x9 PUSH1 0x20 MSTORE PUSH1 0x40 SWAP1 KECCAK256 SLOAD SWAP1 SWAP2 POP PUSH2 0x1407 DUP4 DUP4 PUSH2 0x3052 JUMP JUMPDEST PUSH1 0x64 PUSH2 0x1413 DUP4 DUP8 PUSH2 0x2EF4 JUMP JUMPDEST PUSH2 0x141D SWAP2 SWAP1 PUSH2 0x3065 JUMP JUMPDEST GT PUSH2 0x1461 JUMPI PUSH1 0x40 MLOAD PUSH3 0x461BCD PUSH1 0xE5 SHL DUP2 MSTORE PUSH1 0x20 PUSH1 0x4 DUP3 ADD MSTORE PUSH1 0x14 PUSH1 0x24 DUP3 ADD MSTORE PUSH20 0x283632B0B9B2903232B837B9B4BA1036B7B93297 PUSH1 0x61 SHL PUSH1 0x44 DUP3 ADD MSTORE PUSH1 0x64 ADD PUSH2 0x56D JUMP JUMPDEST PUSH1 0x1 PUSH1 0x1 PUSH1 0xA0 SHL SUB DUP9 AND PUSH1 0x0 SWAP1 DUP2 MSTORE PUSH1 0x3 DUP7 ADD PUSH1 0x20 MSTORE PUSH1 0x40 DUP2 KECCAK256 DUP1 SLOAD DUP10 SWAP3 SWAP1 PUSH2 0x148B SWAP1 DUP5 SWAP1 PUSH2 0x3052 JUMP JUMPDEST SWAP1 SWAP2 SSTORE POP PUSH2 0x149A SWAP1 POP CALLER PUSH2 0x20CB JUMP JUMPDEST PUSH1 0xE SLOAD PUSH1 0x1 PUSH1 0x1 PUSH1 0xA0 SHL SUB SWAP1 DUP2 AND SWAP1 DUP10 AND SUB PUSH2 0x1581 JUMPI PUSH1 0x40 MLOAD PUSH1 0x0 SWAP1 CALLER SWAP1 DUP10 SWAP1 DUP4 DUP2 DUP2 DUP2 DUP6 DUP8 GAS CALL SWAP3 POP POP POP RETURNDATASIZE DUP1 PUSH1 0x0 DUP2 EQ PUSH2 0x14F2 JUMPI PUSH1 0x40 MLOAD SWAP2 POP PUSH1 0x1F NOT PUSH1 0x3F RETURNDATASIZE ADD AND DUP3 ADD PUSH1 0x40 MSTORE RETURNDATASIZE DUP3 MSTORE RETURNDATASIZE PUSH1 0x0 PUSH1 0x20 DUP5 ADD RETURNDATACOPY PUSH2 0x14F7 JUMP JUMPDEST PUSH1 0x60 SWAP2 POP JUMPDEST POP POP SWAP1 POP DUP1 PUSH2 0x1548 JUMPI PUSH1 0x40 MLOAD PUSH3 0x461BCD PUSH1 0xE5 SHL DUP2 MSTORE PUSH1 0x20 PUSH1 0x4 DUP3 ADD MSTORE PUSH1 0x1C PUSH1 0x24 DUP3 ADD MSTORE PUSH32 0x6661696C656420746F2073656E642065746820696E7465726573742E00000000 PUSH1 0x44 DUP3 ADD MSTORE PUSH1 0x64 ADD PUSH2 0x56D JUMP JUMPDEST PUSH1 0xE SLOAD PUSH1 0x1 PUSH1 0x1 PUSH1 0xA0 SHL SUB AND PUSH1 0x0 SWAP1 DUP2 MSTORE PUSH1 0x9 PUSH1 0x20 MSTORE PUSH1 0x40 DUP2 KECCAK256 PUSH1 0x4 ADD DUP1 SLOAD DUP11 SWAP3 SWAP1 PUSH2 0x1575 SWAP1 DUP5 SWAP1 PUSH2 0x3052 JUMP JUMPDEST SWAP1 SWAP2 SSTORE POP PUSH2 0x162A SWAP2 POP POP JUMP JUMPDEST PUSH1 0xF SLOAD PUSH1 0x40 MLOAD PUSH4 0xA9059CBB PUSH1 0xE0 SHL DUP2 MSTORE CALLER PUSH1 0x4 DUP3 ADD MSTORE PUSH1 0x24 DUP2 ADD DUP10 SWAP1 MSTORE PUSH1 0x1 PUSH1 0x1 PUSH1 0xA0 SHL SUB SWAP1 SWAP2 AND SWAP1 PUSH4 0xA9059CBB SWAP1 PUSH1 0x44 ADD PUSH1 0x20 PUSH1 0x40 MLOAD DUP1 DUP4 SUB DUP2 PUSH1 0x0 DUP8 GAS CALL ISZERO DUP1 ISZERO PUSH2 0x15D2 JUMPI RETURNDATASIZE PUSH1 0x0 DUP1 RETURNDATACOPY RETURNDATASIZE PUSH1 0x0 REVERT JUMPDEST POP POP POP POP PUSH1 0x40 MLOAD RETURNDATASIZE PUSH1 0x1F NOT PUSH1 0x1F DUP3 ADD AND DUP3 ADD DUP1 PUSH1 0x40 MSTORE POP DUP2 ADD SWAP1 PUSH2 0x15F6 SWAP2 SWAP1 PUSH2 0x2F40 JUMP JUMPDEST POP PUSH1 0xF SLOAD PUSH1 0x1 PUSH1 0x1 PUSH1 0xA0 SHL SUB AND PUSH1 0x0 SWAP1 DUP2 MSTORE PUSH1 0x9 PUSH1 0x20 MSTORE PUSH1 0x40 DUP2 KECCAK256 PUSH1 0x4 ADD DUP1 SLOAD DUP10 SWAP3 SWAP1 PUSH2 0x1624 SWAP1 DUP5 SWAP1 PUSH2 0x3052 JUMP JUMPDEST SWAP1 SWAP2 SSTORE POP POP JUMPDEST PUSH2 0x1633 CALLER PUSH2 0x20CB JUMP JUMPDEST POP POP POP POP POP POP POP POP JUMP JUMPDEST PUSH1 0x60 PUSH1 0x0 PUSH1 0xA SLOAD PUSH8 0xFFFFFFFFFFFFFFFF DUP2 GT ISZERO PUSH2 0x165C JUMPI PUSH2 0x165C PUSH2 0x3087 JUMP JUMPDEST PUSH1 0x40 MLOAD SWAP1 DUP1 DUP3 MSTORE DUP1 PUSH1 0x20 MUL PUSH1 0x20 ADD DUP3 ADD PUSH1 0x40 MSTORE DUP1 ISZERO PUSH2 0x1695 JUMPI DUP2 PUSH1 0x20 ADD JUMPDEST PUSH2 0x1682 PUSH2 0x2C1A JUMP JUMPDEST DUP2 MSTORE PUSH1 0x20 ADD SWAP1 PUSH1 0x1 SWAP1 SUB SWAP1 DUP2 PUSH2 0x167A JUMPI SWAP1 POP JUMPDEST POP SWAP1 POP PUSH1 0x1 JUMPDEST PUSH1 0xA SLOAD PUSH2 0x16A9 SWAP1 PUSH1 0x1 PUSH2 0x3052 JUMP JUMPDEST DUP2 LT ISZERO PUSH2 0x16F3 JUMPI PUSH2 0x16B9 DUP2 PUSH2 0x2400 JUMP JUMPDEST DUP3 PUSH2 0x16C5 PUSH1 0x1 DUP5 PUSH2 0x303F JUMP JUMPDEST DUP2 MLOAD DUP2 LT PUSH2 0x16D5 JUMPI PUSH2 0x16D5 PUSH2 0x309D JUMP JUMPDEST PUSH1 0x20 MUL PUSH1 0x20 ADD ADD DUP2 SWAP1 MSTORE POP DUP1 DUP1 PUSH2 0x16EB SWAP1 PUSH2 0x30B3 JUMP JUMPDEST SWAP2 POP POP PUSH2 0x169B JUMP JUMPDEST POP SWAP2 SWAP1 POP JUMP JUMPDEST PUSH1 0x0 SLOAD PUSH1 0x1 PUSH1 0x1 PUSH1 0xA0 SHL SUB AND CALLER EQ PUSH2 0x1723 JUMPI PUSH1 0x40 MLOAD PUSH3 0x461BCD PUSH1 0xE5 SHL DUP2 MSTORE PUSH1 0x4 ADD PUSH2 0x56D SWAP1 PUSH2 0x2F0B JUMP JUMPDEST PUSH1 0x10 SSTORE JUMP JUMPDEST PUSH2 0x1730 PUSH2 0x2C1A JUMP JUMPDEST PUSH1 0x1 PUSH1 0x1 PUSH1 0xA0 SHL SUB DUP3 AND PUSH1 0x0 SWAP1 DUP2 MSTORE PUSH1 0xC PUSH1 0x20 MSTORE PUSH1 0x40 DUP2 KECCAK256 SLOAD SWAP1 PUSH2 0x1753 DUP3 PUSH2 0x2400 JUMP JUMPDEST SWAP5 SWAP4 POP POP POP POP JUMP JUMPDEST PUSH1 0x0 SLOAD PUSH1 0x1 PUSH1 0x1 PUSH1 0xA0 SHL SUB AND CALLER EQ PUSH2 0x1785 JUMPI PUSH1 0x40 MLOAD PUSH3 0x461BCD PUSH1 0xE5 SHL DUP2 MSTORE PUSH1 0x4 ADD PUSH2 0x56D SWAP1 PUSH2 0x2F0B JUMP JUMPDEST PUSH1 0x5 SWAP4 SWAP1 SWAP4 SSTORE PUSH1 0x6 SWAP2 SWAP1 SWAP2 SSTORE PUSH1 0x7 SSTORE PUSH1 0x8 SSTORE JUMP JUMPDEST PUSH1 0xE SLOAD PUSH1 0x1 PUSH1 0x1 PUSH1 0xA0 SHL SUB AND PUSH1 0x0 SWAP1 DUP2 MSTORE PUSH1 0x9 PUSH1 0x20 SWAP1 DUP2 MSTORE PUSH1 0x40 SWAP2 DUP3 SWAP1 KECCAK256 DUP3 MLOAD PUSH1 0xA0 DUP2 ADD DUP5 MSTORE DUP2 SLOAD DUP2 MSTORE PUSH1 0x1 DUP3 ADD SLOAD SWAP3 DUP2 ADD DUP4 SWAP1 MSTORE PUSH1 0x2 DUP3 ADD SLOAD SWAP4 DUP2 ADD SWAP4 SWAP1 SWAP4 MSTORE PUSH1 0x3 DUP2 ADD SLOAD PUSH1 0x60 DUP5 DUP2 ADD SWAP2 SWAP1 SWAP2 MSTORE PUSH1 0x4 SWAP1 SWAP2 ADD SLOAD PUSH1 0x80 DUP5 ADD MSTORE PUSH1 0x12 SLOAD SWAP1 SWAP3 SWAP2 PUSH2 0x1802 SWAP2 PUSH2 0x20B8 JUMP JUMPDEST PUSH1 0x20 DUP3 ADD MSTORE PUSH1 0x12 SLOAD PUSH1 0x40 DUP3 ADD MLOAD PUSH2 0x1818 SWAP2 PUSH2 0x20B8 JUMP JUMPDEST PUSH1 0x40 DUP1 DUP4 ADD SWAP2 SWAP1 SWAP2 MSTORE PUSH1 0xF SLOAD PUSH1 0x1 PUSH1 0x1 PUSH1 0xA0 SHL SUB AND PUSH1 0x0 SWAP1 DUP2 MSTORE PUSH1 0x9 PUSH1 0x20 SWAP1 DUP2 MSTORE SWAP1 DUP3 SWAP1 KECCAK256 DUP3 MLOAD PUSH1 0xA0 DUP2 ADD DUP5 MSTORE DUP2 SLOAD DUP2 MSTORE PUSH1 0x1 DUP3 ADD SLOAD SWAP3 DUP2 ADD DUP4 SWAP1 MSTORE PUSH1 0x2 DUP3 ADD SLOAD SWAP4 DUP2 ADD SWAP4 SWAP1 SWAP4 MSTORE PUSH1 0x3 DUP2 ADD SLOAD PUSH1 0x60 DUP5 ADD MSTORE PUSH1 0x4 ADD SLOAD PUSH1 0x80 DUP4 ADD MSTORE PUSH1 0x12 SLOAD PUSH2 0x1880 SWAP2 SWAP1 PUSH2 0x20B8 JUMP JUMPDEST PUSH1 0x20 DUP3 ADD MSTORE PUSH1 0x12 SLOAD PUSH1 0x40 DUP3 ADD MLOAD PUSH2 0x1896 SWAP2 PUSH2 0x20B8 JUMP JUMPDEST PUSH1 0x40 DUP3 DUP2 ADD SWAP2 SWAP1 SWAP2 MSTORE DUP1 MLOAD PUSH1 0x2 DUP1 DUP3 MSTORE PUSH1 0x60 DUP3 ADD SWAP1 SWAP3 MSTORE PUSH1 0x0 SWAP2 DUP2 PUSH1 0x20 ADD JUMPDEST PUSH2 0x18E7 PUSH1 0x40 MLOAD DUP1 PUSH1 0xA0 ADD PUSH1 0x40 MSTORE DUP1 PUSH1 0x0 DUP2 MSTORE PUSH1 0x20 ADD PUSH1 0x0 DUP2 MSTORE PUSH1 0x20 ADD PUSH1 0x0 DUP2 MSTORE PUSH1 0x20 ADD PUSH1 0x0 DUP2 MSTORE PUSH1 0x20 ADD PUSH1 0x0 DUP2 MSTORE POP SWAP1 JUMP JUMPDEST DUP2 MSTORE PUSH1 0x20 ADD SWAP1 PUSH1 0x1 SWAP1 SUB SWAP1 DUP2 PUSH2 0x18B5 JUMPI SWAP1 POP POP SWAP1 POP DUP3 DUP2 PUSH1 0x0 DUP2 MLOAD DUP2 LT PUSH2 0x1910 JUMPI PUSH2 0x1910 PUSH2 0x309D JUMP JUMPDEST PUSH1 0x20 MUL PUSH1 0x20 ADD ADD DUP2 SWAP1 MSTORE POP DUP2 DUP2 PUSH1 0x1 DUP2 MLOAD DUP2 LT PUSH2 0x192F JUMPI PUSH2 0x192F PUSH2 0x309D JUMP JUMPDEST PUSH1 0x20 SWAP1 DUP2 MUL SWAP2 SWAP1 SWAP2 ADD ADD MSTORE SWAP4 SWAP3 POP POP POP JUMP JUMPDEST PUSH1 0x0 SLOAD PUSH1 0x1 PUSH1 0x1 PUSH1 0xA0 SHL SUB AND CALLER EQ PUSH2 0x196B JUMPI PUSH1 0x40 MLOAD PUSH3 0x461BCD PUSH1 0xE5 SHL DUP2 MSTORE PUSH1 0x4 ADD PUSH2 0x56D SWAP1 PUSH2 0x2F0B JUMP JUMPDEST PUSH1 0x0 DUP1 SLOAD PUSH1 0x40 MLOAD PUSH1 0x1 PUSH1 0x1 PUSH1 0xA0 SHL SUB SWAP1 SWAP2 AND SWAP1 PUSH32 0x8BE0079C531659141344CD1FD0A4F28419497F9722A3DAAFE3B4186F6B6457E0 SWAP1 DUP4 SWAP1 LOG3 PUSH1 0x0 DUP1 SLOAD PUSH1 0x1 PUSH1 0x1 PUSH1 0xA0 SHL SUB NOT AND SWAP1 SSTORE JUMP JUMPDEST CALLER PUSH1 0x0 SWAP1 DUP2 MSTORE PUSH1 0xC PUSH1 0x20 MSTORE PUSH1 0x40 SWAP1 KECCAK256 SLOAD DUP1 PUSH2 0x19E2 JUMPI PUSH1 0x40 MLOAD PUSH3 0x461BCD PUSH1 0xE5 SHL DUP2 MSTORE PUSH1 0x4 ADD PUSH2 0x56D SWAP1 PUSH2 0x2FFC JUMP JUMPDEST PUSH1 0x0 DUP2 DUP2 MSTORE PUSH1 0xB PUSH1 0x20 MSTORE PUSH1 0x40 SWAP1 KECCAK256 PUSH2 0x19F9 CALLER PUSH2 0x20CB JUMP JUMPDEST PUSH1 0xD SLOAD PUSH1 0x6 DUP3 ADD SLOAD PUSH1 0x40 MLOAD PUSH4 0xA9059CBB PUSH1 0xE0 SHL DUP2 MSTORE CALLER PUSH1 0x4 DUP3 ADD MSTORE PUSH1 0x24 DUP2 ADD SWAP2 SWAP1 SWAP2 MSTORE PUSH1 0x1 PUSH1 0x1 PUSH1 0xA0 SHL SUB SWAP1 SWAP2 AND SWAP1 PUSH4 0xA9059CBB SWAP1 PUSH1 0x44 ADD PUSH1 0x20 PUSH1 0x40 MLOAD DUP1 DUP4 SUB DUP2 PUSH1 0x0 DUP8 GAS CALL ISZERO DUP1 ISZERO PUSH2 0x1A50 JUMPI RETURNDATASIZE PUSH1 0x0 DUP1 RETURNDATACOPY RETURNDATASIZE PUSH1 0x0 REVERT JUMPDEST POP POP POP POP PUSH1 0x40 MLOAD RETURNDATASIZE PUSH1 0x1F NOT PUSH1 0x1F DUP3 ADD AND DUP3 ADD DUP1 PUSH1 0x40 MSTORE POP DUP2 ADD SWAP1 PUSH2 0x1A74 SWAP2 SWAP1 PUSH2 0x2F40 JUMP JUMPDEST POP PUSH1 0x0 PUSH1 0x6 SWAP1 SWAP2 ADD SSTORE POP JUMP JUMPDEST PUSH1 0x0 PUSH2 0x1A8B DUP3 PUSH2 0x20CB JUMP JUMPDEST PUSH1 0x1 PUSH1 0x1 PUSH1 0xA0 SHL SUB DUP1 DUP4 AND PUSH1 0x0 SWAP1 DUP2 MSTORE PUSH1 0xC PUSH1 0x20 SWAP1 DUP2 MSTORE PUSH1 0x40 DUP1 DUP4 KECCAK256 SLOAD DUP4 MSTORE PUSH1 0xB DUP3 MSTORE DUP1 DUP4 KECCAK256 PUSH1 0xE SLOAD SWAP1 SWAP5 AND DUP1 DUP5 MSTORE PUSH1 0x3 DUP6 ADD DUP4 MSTORE DUP2 DUP5 KECCAK256 SLOAD PUSH1 0x5 DUP7 ADD SWAP1 SWAP4 MSTORE SWAP1 DUP4 KECCAK256 SLOAD PUSH2 0x1ADC SWAP3 PUSH2 0x167 SWAP2 PUSH2 0x3052 JUMP JUMPDEST PUSH1 0xF SLOAD PUSH1 0x1 PUSH1 0x1 PUSH1 0xA0 SHL SUB AND PUSH1 0x0 DUP2 DUP2 MSTORE PUSH1 0x3 DUP6 ADD PUSH1 0x20 SWAP1 DUP2 MSTORE PUSH1 0x40 DUP1 DUP4 KECCAK256 SLOAD PUSH1 0x5 DUP9 ADD SWAP1 SWAP3 MSTORE DUP3 KECCAK256 SLOAD SWAP4 SWAP5 POP SWAP1 SWAP3 PUSH2 0x1B19 SWAP3 SWAP2 PUSH2 0x167 SWAP2 PUSH2 0x3052 JUMP JUMPDEST SWAP1 POP PUSH2 0x1B25 DUP2 DUP4 PUSH2 0x3052 JUMP JUMPDEST SWAP6 SWAP5 POP POP POP POP POP JUMP JUMPDEST PUSH1 0x0 SLOAD PUSH1 0x1 PUSH1 0x1 PUSH1 0xA0 SHL SUB AND CALLER EQ PUSH2 0x1B58 JUMPI PUSH1 0x40 MLOAD PUSH3 0x461BCD PUSH1 0xE5 SHL DUP2 MSTORE PUSH1 0x4 ADD PUSH2 0x56D SWAP1 PUSH2 0x2F0B JUMP JUMPDEST PUSH1 0x1 SWAP4 SWAP1 SWAP4 SSTORE PUSH1 0x2 SWAP2 SWAP1 SWAP2 SSTORE PUSH1 0x3 SSTORE PUSH1 0x4 SSTORE JUMP JUMPDEST PUSH1 0x0 PUSH2 0x1B77 DUP3 PUSH2 0x20CB JUMP JUMPDEST PUSH1 0x1 PUSH1 0x1 PUSH1 0xA0 SHL SUB DUP1 DUP4 AND PUSH1 0x0 SWAP1 DUP2 MSTORE PUSH1 0xC PUSH1 0x20 SWAP1 DUP2 MSTORE PUSH1 0x40 DUP1 DUP4 KECCAK256 SLOAD DUP4 MSTORE PUSH1 0xB DUP3 MSTORE DUP1 DUP4 KECCAK256 PUSH1 0xE SLOAD SWAP1 SWAP5 AND DUP1 DUP5 MSTORE PUSH1 0x2 DUP6 ADD DUP4 MSTORE DUP2 DUP5 KECCAK256 SLOAD PUSH1 0x4 DUP7 ADD SWAP1 SWAP4 MSTORE SWAP1 DUP4 KECCAK256 SLOAD PUSH2 0x1BC8 SWAP3 PUSH2 0x167 SWAP2 PUSH2 0x3052 JUMP JUMPDEST PUSH1 0xF SLOAD PUSH1 0x1 PUSH1 0x1 PUSH1 0xA0 SHL SUB AND PUSH1 0x0 DUP2 DUP2 MSTORE PUSH1 0x2 DUP6 ADD PUSH1 0x20 SWAP1 DUP2 MSTORE PUSH1 0x40 DUP1 DUP4 KECCAK256 SLOAD PUSH1 0x4 DUP9 ADD SWAP1 SWAP3 MSTORE DUP3 KECCAK256 SLOAD SWAP4 SWAP5 POP SWAP1 SWAP3 PUSH2 0x1B19 SWAP3 SWAP2 PUSH2 0x167 SWAP2 PUSH2 0x3052 JUMP JUMPDEST PUSH1 0x0 SLOAD PUSH1 0x1 PUSH1 0x1 PUSH1 0xA0 SHL SUB AND CALLER EQ PUSH2 0x1C2F JUMPI PUSH1 0x40 MLOAD PUSH3 0x461BCD PUSH1 0xE5 SHL DUP2 MSTORE PUSH1 0x4 ADD PUSH2 0x56D SWAP1 PUSH2 0x2F0B JUMP JUMPDEST PUSH2 0x1C38 DUP2 PUSH2 0x29B4 JUMP JUMPDEST POP JUMP JUMPDEST PUSH1 0x0 DUP2 GT PUSH2 0x1C7E JUMPI PUSH1 0x40 MLOAD PUSH3 0x461BCD PUSH1 0xE5 SHL DUP2 MSTORE PUSH1 0x20 PUSH1 0x4 DUP3 ADD MSTORE PUSH1 0x10 PUSH1 0x24 DUP3 ADD MSTORE PUSH16 0x63616E2774207769746864726177203 PUSH1 0x84 SHL PUSH1 0x44 DUP3 ADD MSTORE PUSH1 0x64 ADD PUSH2 0x56D JUMP JUMPDEST CALLER PUSH1 0x0 SWAP1 DUP2 MSTORE PUSH1 0xC PUSH1 0x20 MSTORE PUSH1 0x40 SWAP1 KECCAK256 SLOAD DUP1 PUSH2 0x1CAB JUMPI PUSH1 0x40 MLOAD PUSH3 0x461BCD PUSH1 0xE5 SHL DUP2 MSTORE PUSH1 0x4 ADD PUSH2 0x56D SWAP1 PUSH2 0x2FFC JUMP JUMPDEST PUSH1 0x0 DUP2 DUP2 MSTORE PUSH1 0xB PUSH1 0x20 MSTORE PUSH1 0x40 SWAP1 KECCAK256 PUSH2 0x1CC2 CALLER PUSH2 0x20CB JUMP JUMPDEST PUSH1 0x0 PUSH2 0x1CCD CALLER PUSH2 0x1B6C JUMP JUMPDEST SWAP1 POP PUSH1 0x0 PUSH2 0x1CDA CALLER PUSH2 0x1A80 JUMP JUMPDEST PUSH1 0x1 PUSH1 0x1 PUSH1 0xA0 SHL SUB DUP8 AND PUSH1 0x0 SWAP1 DUP2 MSTORE PUSH1 0x9 PUSH1 0x20 MSTORE PUSH1 0x40 SWAP1 KECCAK256 SLOAD SWAP1 SWAP2 POP DUP2 SWAP1 PUSH1 0x64 SWAP1 PUSH2 0x1D05 DUP10 DUP10 PUSH2 0x43C JUMP JUMPDEST PUSH2 0x1D0F SWAP1 DUP7 PUSH2 0x303F JUMP JUMPDEST PUSH2 0x1D19 SWAP2 SWAP1 PUSH2 0x2EF4 JUMP JUMPDEST PUSH2 0x1D23 SWAP2 SWAP1 PUSH2 0x3065 JUMP JUMPDEST GT PUSH2 0x1D87 JUMPI PUSH1 0x40 MLOAD PUSH3 0x461BCD PUSH1 0xE5 SHL DUP2 MSTORE PUSH1 0x20 PUSH1 0x4 DUP3 ADD MSTORE PUSH1 0x2E PUSH1 0x24 DUP3 ADD MSTORE PUSH32 0x5769746864726177206661696C65642E596F7520646F6E6F7420686176652061 PUSH1 0x44 DUP3 ADD MSTORE PUSH14 0x373C9031B7B63630BA32B930B617 PUSH1 0x91 SHL PUSH1 0x64 DUP3 ADD MSTORE PUSH1 0x84 ADD PUSH2 0x56D JUMP JUMPDEST PUSH1 0x1 PUSH1 0x1 PUSH1 0xA0 SHL SUB DUP7 AND PUSH1 0x0 SWAP1 DUP2 MSTORE PUSH1 0x4 DUP5 ADD PUSH1 0x20 MSTORE PUSH1 0x40 SWAP1 KECCAK256 SLOAD DUP6 LT ISZERO PUSH2 0x1E0E JUMPI PUSH1 0x1 PUSH1 0x1 PUSH1 0xA0 SHL SUB DUP7 AND PUSH1 0x0 SWAP1 DUP2 MSTORE PUSH1 0x9 PUSH1 0x20 MSTORE PUSH1 0x40 DUP2 KECCAK256 PUSH1 0x3 ADD DUP1 SLOAD DUP8 SWAP3 SWAP1 PUSH2 0x1DD4 SWAP1 DUP5 SWAP1 PUSH2 0x303F JUMP JUMPDEST SWAP1 SWAP2 SSTORE POP POP PUSH1 0x1 PUSH1 0x1 PUSH1 0xA0 SHL SUB DUP7 AND PUSH1 0x0 SWAP1 DUP2 MSTORE PUSH1 0x4 DUP5 ADD PUSH1 0x20 MSTORE PUSH1 0x40 DUP2 KECCAK256 DUP1 SLOAD DUP8 SWAP3 SWAP1 PUSH2 0x1E03 SWAP1 DUP5 SWAP1 PUSH2 0x303F JUMP JUMPDEST SWAP1 SWAP2 SSTORE POP PUSH2 0x1E84 SWAP1 POP JUMP JUMPDEST PUSH1 0x1 PUSH1 0x1 PUSH1 0xA0 SHL SUB DUP7 AND PUSH1 0x0 SWAP1 DUP2 MSTORE PUSH1 0x4 DUP5 ADD PUSH1 0x20 MSTORE PUSH1 0x40 DUP2 KECCAK256 SLOAD PUSH2 0x1E33 SWAP1 DUP8 PUSH2 0x303F JUMP JUMPDEST PUSH1 0x1 PUSH1 0x1 PUSH1 0xA0 SHL SUB DUP9 AND PUSH1 0x0 SWAP1 DUP2 MSTORE PUSH1 0x2 DUP7 ADD PUSH1 0x20 MSTORE PUSH1 0x40 DUP2 KECCAK256 DUP1 SLOAD SWAP3 SWAP4 POP DUP4 SWAP3 SWAP1 SWAP2 SWAP1 PUSH2 0x1E62 SWAP1 DUP5 SWAP1 PUSH2 0x303F JUMP JUMPDEST SWAP1 SWAP2 SSTORE POP POP POP PUSH1 0x1 PUSH1 0x1 PUSH1 0xA0 SHL SUB DUP7 AND PUSH1 0x0 SWAP1 DUP2 MSTORE PUSH1 0x4 DUP5 ADD PUSH1 0x20 MSTORE PUSH1 0x40 DUP2 KECCAK256 SSTORE JUMPDEST PUSH1 0x1 PUSH1 0x1 PUSH1 0xA0 SHL SUB DUP7 AND PUSH1 0x0 SWAP1 DUP2 MSTORE PUSH1 0x9 PUSH1 0x20 MSTORE PUSH1 0x40 DUP2 KECCAK256 PUSH1 0x3 ADD DUP1 SLOAD DUP8 SWAP3 SWAP1 PUSH2 0x1EAF SWAP1 DUP5 SWAP1 PUSH2 0x303F JUMP JUMPDEST SWAP1 SWAP2 SSTORE POP POP PUSH1 0xE SLOAD PUSH1 0x1 PUSH1 0x1 PUSH1 0xA0 SHL SUB SWAP1 DUP2 AND SWAP1 DUP8 AND SUB PUSH2 0x1F68 JUMPI PUSH1 0x40 MLOAD PUSH1 0x0 SWAP1 CALLER SWAP1 DUP8 SWAP1 DUP4 DUP2 DUP2 DUP2 DUP6 DUP8 GAS CALL SWAP3 POP POP POP RETURNDATASIZE DUP1 PUSH1 0x0 DUP2 EQ PUSH2 0x1F0C JUMPI PUSH1 0x40 MLOAD SWAP2 POP PUSH1 0x1F NOT PUSH1 0x3F RETURNDATASIZE ADD AND DUP3 ADD PUSH1 0x40 MSTORE RETURNDATASIZE DUP3 MSTORE RETURNDATASIZE PUSH1 0x0 PUSH1 0x20 DUP5 ADD RETURNDATACOPY PUSH2 0x1F11 JUMP JUMPDEST PUSH1 0x60 SWAP2 POP JUMPDEST POP POP SWAP1 POP DUP1 PUSH2 0x1F62 JUMPI PUSH1 0x40 MLOAD PUSH3 0x461BCD PUSH1 0xE5 SHL DUP2 MSTORE PUSH1 0x20 PUSH1 0x4 DUP3 ADD MSTORE PUSH1 0x1C PUSH1 0x24 DUP3 ADD MSTORE PUSH32 0x6661696C656420746F2073656E642065746820696E7465726573742E00000000 PUSH1 0x44 DUP3 ADD MSTORE PUSH1 0x64 ADD PUSH2 0x56D JUMP JUMPDEST POP PUSH2 0x1FDF JUMP JUMPDEST PUSH1 0xF SLOAD PUSH1 0x40 MLOAD PUSH4 0xA9059CBB PUSH1 0xE0 SHL DUP2 MSTORE CALLER PUSH1 0x4 DUP3 ADD MSTORE PUSH1 0x24 DUP2 ADD DUP8 SWAP1 MSTORE PUSH1 0x1 PUSH1 0x1 PUSH1 0xA0 SHL SUB SWAP1 SWAP2 AND SWAP1 PUSH4 0xA9059CBB SWAP1 PUSH1 0x44 ADD PUSH1 0x20 PUSH1 0x40 MLOAD DUP1 DUP4 SUB DUP2 PUSH1 0x0 DUP8 GAS CALL ISZERO DUP1 ISZERO PUSH2 0x1FB9 JUMPI RETURNDATASIZE PUSH1 0x0 DUP1 RETURNDATACOPY RETURNDATASIZE PUSH1 0x0 REVERT JUMPDEST POP POP POP POP PUSH1 0x40 MLOAD RETURNDATASIZE PUSH1 0x1F NOT PUSH1 0x1F DUP3 ADD AND DUP3 ADD DUP1 PUSH1 0x40 MSTORE POP DUP2 ADD SWAP1 PUSH2 0x1FDD SWAP2 SWAP1 PUSH2 0x2F40 JUMP JUMPDEST POP JUMPDEST PUSH2 0x1FE8 CALLER PUSH2 0x20CB JUMP JUMPDEST POP POP POP POP POP POP JUMP JUMPDEST PUSH1 0x0 SLOAD PUSH1 0x1 PUSH1 0x1 PUSH1 0xA0 SHL SUB AND CALLER EQ PUSH2 0x201A JUMPI PUSH1 0x40 MLOAD PUSH3 0x461BCD PUSH1 0xE5 SHL DUP2 MSTORE PUSH1 0x4 ADD PUSH2 0x56D SWAP1 PUSH2 0x2F0B JUMP JUMPDEST PUSH1 0x0 DUP1 SLOAD PUSH1 0x40 MLOAD PUSH1 0x1 PUSH1 0x1 PUSH1 0xA0 SHL SUB SWAP1 SWAP2 AND SWAP1 DUP4 SWAP1 DUP4 DUP2 DUP2 DUP2 DUP6 DUP8 GAS CALL SWAP3 POP POP POP RETURNDATASIZE DUP1 PUSH1 0x0 DUP2 EQ PUSH2 0x2067 JUMPI PUSH1 0x40 MLOAD SWAP2 POP PUSH1 0x1F NOT PUSH1 0x3F RETURNDATASIZE ADD AND DUP3 ADD PUSH1 0x40 MSTORE RETURNDATASIZE DUP3 MSTORE RETURNDATASIZE PUSH1 0x0 PUSH1 0x20 DUP5 ADD RETURNDATACOPY PUSH2 0x206C JUMP JUMPDEST PUSH1 0x60 SWAP2 POP JUMPDEST POP POP SWAP1 POP DUP1 PUSH2 0x20B4 JUMPI PUSH1 0x40 MLOAD PUSH3 0x461BCD PUSH1 0xE5 SHL DUP2 MSTORE PUSH1 0x20 PUSH1 0x4 DUP3 ADD MSTORE PUSH1 0x14 PUSH1 0x24 DUP3 ADD MSTORE PUSH20 0x2330B4B632B2103A379039B2B7321022BA3432B9 PUSH1 0x61 SHL PUSH1 0x44 DUP3 ADD MSTORE PUSH1 0x64 ADD PUSH2 0x56D JUMP JUMPDEST POP POP JUMP JUMPDEST PUSH1 0x0 PUSH2 0x20C4 DUP3 DUP5 PUSH2 0x3065 JUMP JUMPDEST SWAP4 SWAP3 POP POP POP JUMP JUMPDEST PUSH1 0x1 PUSH1 0x1 PUSH1 0xA0 SHL SUB DUP2 AND PUSH1 0x0 SWAP1 DUP2 MSTORE PUSH1 0xC PUSH1 0x20 MSTORE PUSH1 0x40 SWAP1 KECCAK256 SLOAD PUSH2 0x2130 JUMPI PUSH1 0x40 MLOAD PUSH3 0x461BCD PUSH1 0xE5 SHL DUP2 MSTORE PUSH1 0x20 PUSH1 0x4 DUP3 ADD MSTORE PUSH1 0x1A PUSH1 0x24 DUP3 ADD MSTORE PUSH32 0x557365722073686F756C64206465706F736974206265666F7265000000000000 PUSH1 0x44 DUP3 ADD MSTORE PUSH1 0x64 ADD PUSH2 0x56D JUMP JUMPDEST PUSH1 0x1 PUSH1 0x1 PUSH1 0xA0 SHL SUB DUP2 AND PUSH1 0x0 DUP2 DUP2 MSTORE PUSH1 0xC PUSH1 0x20 DUP2 DUP2 MSTORE PUSH1 0x40 DUP1 DUP5 KECCAK256 SLOAD DUP1 DUP6 MSTORE PUSH1 0xB DUP4 MSTORE SWAP1 DUP5 KECCAK256 SWAP5 DUP5 MSTORE SWAP2 SWAP1 MSTORE PUSH2 0x2165 SWAP1 PUSH2 0x2400 JUMP JUMPDEST PUSH2 0x100 DUP2 ADD MLOAD PUSH1 0x6 DUP5 ADD SSTORE PUSH1 0xC0 DUP2 ADD MLOAD PUSH1 0xE DUP1 SLOAD PUSH1 0x1 PUSH1 0x1 PUSH1 0xA0 SHL SUB SWAP1 DUP2 AND PUSH1 0x0 SWAP1 DUP2 MSTORE PUSH1 0x4 DUP8 ADD PUSH1 0x20 DUP2 DUP2 MSTORE PUSH1 0x40 DUP1 DUP5 KECCAK256 SWAP7 SWAP1 SWAP7 SSTORE PUSH1 0x80 DUP8 ADD MLOAD DUP6 SLOAD DUP6 AND DUP5 MSTORE PUSH1 0x5 DUP11 ADD DUP1 DUP4 MSTORE DUP8 DUP6 KECCAK256 SWAP2 SWAP1 SWAP2 SSTORE PUSH1 0xE0 DUP9 ADD MLOAD PUSH1 0xF DUP1 SLOAD DUP8 AND DUP7 MSTORE SWAP4 DUP4 MSTORE DUP8 DUP6 KECCAK256 SSTORE PUSH1 0xA0 DUP9 ADD MLOAD SWAP3 SLOAD DUP6 AND DUP5 MSTORE SWAP1 MSTORE SWAP4 SWAP1 KECCAK256 SWAP3 SWAP1 SWAP3 SSTORE TIMESTAMP PUSH1 0x1 DUP7 ADD SSTORE SLOAD SWAP2 SWAP3 POP PUSH2 0x21F0 SWAP2 AND PUSH2 0x2A74 JUMP JUMPDEST PUSH1 0xE SLOAD PUSH1 0x1 PUSH1 0x1 PUSH1 0xA0 SHL SUB SWAP1 DUP2 AND PUSH1 0x0 SWAP1 DUP2 MSTORE PUSH1 0x9 PUSH1 0x20 MSTORE PUSH1 0x40 SWAP1 KECCAK256 PUSH1 0x2 DUP2 ADD SWAP3 SWAP1 SWAP3 SSTORE PUSH1 0x1 SWAP1 SWAP2 ADD SWAP2 SWAP1 SWAP2 SSTORE PUSH1 0xF SLOAD PUSH2 0x222A SWAP2 AND PUSH2 0x2A74 JUMP JUMPDEST PUSH1 0xF SLOAD PUSH1 0x1 PUSH1 0x1 PUSH1 0xA0 SHL SUB AND PUSH1 0x0 SWAP1 DUP2 MSTORE PUSH1 0x9 PUSH1 0x20 MSTORE PUSH1 0x40 SWAP1 KECCAK256 PUSH1 0x2 DUP2 ADD SWAP2 SWAP1 SWAP2 SSTORE PUSH1 0x1 ADD SSTORE POP POP POP JUMP JUMPDEST PUSH2 0x20B4 DUP3 DUP3 PUSH1 0x40 MLOAD PUSH1 0x24 ADD PUSH2 0x226B SWAP3 SWAP2 SWAP1 PUSH2 0x30CC JUMP JUMPDEST PUSH1 0x40 DUP1 MLOAD PUSH1 0x1F NOT DUP2 DUP5 SUB ADD DUP2 MSTORE SWAP2 SWAP1 MSTORE PUSH1 0x20 DUP2 ADD DUP1 MLOAD PUSH1 0x1 PUSH1 0x1 PUSH1 0xE0 SHL SUB AND PUSH4 0x2D839CB3 PUSH1 0xE2 SHL OR SWAP1 MSTORE PUSH2 0x2BF9 JUMP JUMPDEST PUSH1 0x40 MLOAD PUSH1 0x24 DUP2 ADD DUP4 SWAP1 MSTORE PUSH1 0x44 DUP2 ADD DUP3 SWAP1 MSTORE PUSH2 0x20B4 SWAP1 PUSH1 0x64 ADD PUSH1 0x40 DUP1 MLOAD PUSH1 0x1F NOT DUP2 DUP5 SUB ADD DUP2 MSTORE SWAP2 SWAP1 MSTORE PUSH1 0x20 DUP2 ADD DUP1 MLOAD PUSH1 0x1 PUSH1 0x1 PUSH1 0xE0 SHL SUB AND PUSH4 0x7B3338AD PUSH1 0xE1 SHL OR SWAP1 MSTORE PUSH2 0x2BF9 JUMP JUMPDEST PUSH1 0x1 PUSH1 0x1 PUSH1 0xA0 SHL SUB DUP2 AND PUSH1 0x0 SWAP1 DUP2 MSTORE PUSH1 0xC PUSH1 0x20 MSTORE PUSH1 0x40 SWAP1 KECCAK256 SLOAD PUSH2 0x2346 JUMPI PUSH1 0x40 MLOAD PUSH3 0x461BCD PUSH1 0xE5 SHL DUP2 MSTORE PUSH1 0x20 PUSH1 0x4 DUP3 ADD MSTORE PUSH1 0x1A PUSH1 0x24 DUP3 ADD MSTORE PUSH32 0x557365722073686F756C64206465706F736974206265666F7265000000000000 PUSH1 0x44 DUP3 ADD MSTORE PUSH1 0x64 ADD PUSH2 0x56D JUMP JUMPDEST PUSH1 0x1 PUSH1 0x1 PUSH1 0xA0 SHL SUB SWAP1 DUP2 AND PUSH1 0x0 SWAP1 DUP2 MSTORE PUSH1 0xC PUSH1 0x20 SWAP1 DUP2 MSTORE PUSH1 0x40 DUP1 DUP4 KECCAK256 SLOAD DUP4 MSTORE PUSH1 0xB DUP3 MSTORE DUP1 DUP4 KECCAK256 PUSH1 0xE DUP1 SLOAD DUP7 AND DUP6 MSTORE PUSH1 0x2 DUP3 ADD DUP1 DUP6 MSTORE DUP4 DUP7 KECCAK256 DUP7 SWAP1 SSTORE DUP2 SLOAD DUP8 AND DUP7 MSTORE PUSH1 0x3 DUP4 ADD DUP1 DUP7 MSTORE DUP5 DUP8 KECCAK256 DUP8 SWAP1 SSTORE DUP3 SLOAD DUP9 AND DUP8 MSTORE PUSH1 0x4 DUP5 ADD DUP1 DUP8 MSTORE DUP6 DUP9 KECCAK256 DUP9 SWAP1 SSTORE SWAP3 SLOAD DUP9 AND DUP8 MSTORE PUSH1 0x5 DUP5 ADD DUP1 DUP8 MSTORE DUP6 DUP9 KECCAK256 DUP9 SWAP1 SSTORE PUSH1 0xF DUP1 SLOAD DUP11 AND DUP10 MSTORE SWAP3 DUP8 MSTORE DUP6 DUP9 KECCAK256 DUP9 SWAP1 SSTORE DUP3 SLOAD DUP10 AND DUP9 MSTORE SWAP1 DUP7 MSTORE DUP5 DUP8 KECCAK256 DUP8 SWAP1 SSTORE DUP2 SLOAD DUP9 AND DUP8 MSTORE SWAP2 DUP6 MSTORE DUP4 DUP7 KECCAK256 DUP7 SWAP1 SSTORE SLOAD SWAP1 SWAP6 AND DUP5 MSTORE SWAP4 SWAP1 SWAP2 MSTORE DUP2 KECCAK256 DUP2 SWAP1 SSTORE PUSH1 0x6 SWAP1 SWAP2 ADD SSTORE JUMP JUMPDEST PUSH2 0x2408 PUSH2 0x2C1A JUMP JUMPDEST DUP2 ISZERO PUSH2 0x2934 JUMPI PUSH1 0x0 DUP3 DUP2 MSTORE PUSH1 0xB PUSH1 0x20 MSTORE PUSH1 0x40 DUP2 KECCAK256 PUSH1 0x1 DUP2 ADD SLOAD SWAP1 SWAP2 PUSH2 0x242D DUP3 TIMESTAMP PUSH2 0x303F JUMP JUMPDEST PUSH1 0xE SLOAD PUSH1 0x11 SLOAD PUSH1 0x1 PUSH1 0x1 PUSH1 0xA0 SHL SUB SWAP1 SWAP2 AND PUSH1 0x0 DUP2 DUP2 MSTORE PUSH1 0x9 PUSH1 0x20 SWAP1 DUP2 MSTORE PUSH1 0x40 DUP1 DUP4 KECCAK256 PUSH1 0x1 ADD SLOAD PUSH1 0x2 DUP11 ADD SWAP1 SWAP3 MSTORE DUP3 KECCAK256 SLOAD SWAP5 SWAP6 POP SWAP1 SWAP4 PUSH2 0x2487 SWAP4 SWAP2 DUP7 SWAP2 PUSH2 0x2473 SWAP2 SWAP1 PUSH2 0x2EF4 JUMP JUMPDEST PUSH2 0x247D SWAP2 SWAP1 PUSH2 0x2EF4 JUMP JUMPDEST PUSH2 0x167 SWAP2 SWAP1 PUSH2 0x3065 JUMP JUMPDEST DUP5 PUSH1 0x6 ADD SLOAD PUSH2 0x2496 SWAP2 SWAP1 PUSH2 0x3052 JUMP JUMPDEST PUSH1 0x11 SLOAD PUSH1 0xE SLOAD PUSH1 0x1 PUSH1 0x1 PUSH1 0xA0 SHL SUB AND PUSH1 0x0 SWAP1 DUP2 MSTORE PUSH1 0x9 PUSH1 0x20 SWAP1 DUP2 MSTORE PUSH1 0x40 DUP1 DUP4 KECCAK256 PUSH1 0x1 ADD SLOAD PUSH1 0x2 DUP11 ADD SWAP1 SWAP3 MSTORE DUP3 KECCAK256 SLOAD SWAP4 SWAP5 POP SWAP1 SWAP3 DUP6 SWAP2 PUSH2 0x24D4 SWAP2 PUSH2 0x2EF4 JUMP JUMPDEST PUSH2 0x24DE SWAP2 SWAP1 PUSH2 0x2EF4 JUMP JUMPDEST PUSH2 0x24E8 SWAP2 SWAP1 PUSH2 0x3065 JUMP JUMPDEST PUSH1 0xE SLOAD PUSH1 0x1 PUSH1 0x1 PUSH1 0xA0 SHL SUB AND PUSH1 0x0 SWAP1 DUP2 MSTORE PUSH1 0x4 DUP8 ADD PUSH1 0x20 MSTORE PUSH1 0x40 SWAP1 KECCAK256 SLOAD PUSH2 0x250F SWAP2 SWAP1 PUSH2 0x3052 JUMP JUMPDEST PUSH1 0x11 SLOAD PUSH1 0xE SLOAD PUSH1 0x1 PUSH1 0x1 PUSH1 0xA0 SHL SUB AND PUSH1 0x0 SWAP1 DUP2 MSTORE PUSH1 0x9 PUSH1 0x20 SWAP1 DUP2 MSTORE PUSH1 0x40 DUP1 DUP4 KECCAK256 PUSH1 0x2 ADD SLOAD PUSH1 0x3 DUP12 ADD SWAP1 SWAP3 MSTORE DUP3 KECCAK256 SLOAD SWAP4 SWAP5 POP SWAP1 SWAP3 DUP7 SWAP2 PUSH2 0x254D SWAP2 PUSH2 0x2EF4 JUMP JUMPDEST PUSH2 0x2557 SWAP2 SWAP1 PUSH2 0x2EF4 JUMP JUMPDEST PUSH2 0x2561 SWAP2 SWAP1 PUSH2 0x3065 JUMP JUMPDEST PUSH1 0xE SLOAD PUSH1 0x1 PUSH1 0x1 PUSH1 0xA0 SHL SUB AND PUSH1 0x0 SWAP1 DUP2 MSTORE PUSH1 0x5 DUP9 ADD PUSH1 0x20 MSTORE PUSH1 0x40 SWAP1 KECCAK256 SLOAD PUSH2 0x2588 SWAP2 SWAP1 PUSH2 0x3052 JUMP JUMPDEST PUSH1 0xF SLOAD PUSH1 0x11 SLOAD PUSH1 0x1 PUSH1 0x1 PUSH1 0xA0 SHL SUB SWAP1 SWAP2 AND PUSH1 0x0 DUP2 DUP2 MSTORE PUSH1 0x9 PUSH1 0x20 SWAP1 DUP2 MSTORE PUSH1 0x40 DUP1 DUP4 KECCAK256 PUSH1 0x1 ADD SLOAD PUSH1 0x2 DUP14 ADD SWAP1 SWAP3 MSTORE SWAP1 SWAP2 KECCAK256 SLOAD SWAP4 SWAP5 POP PUSH2 0x25CE SWAP4 SWAP2 SWAP3 SWAP2 DUP9 SWAP2 PUSH2 0x2473 SWAP2 PUSH2 0x2EF4 JUMP JUMPDEST DUP7 PUSH1 0x6 ADD SLOAD PUSH2 0x25DD SWAP2 SWAP1 PUSH2 0x3052 JUMP JUMPDEST PUSH2 0x25E7 SWAP1 DUP5 PUSH2 0x3052 JUMP JUMPDEST PUSH1 0x11 SLOAD PUSH1 0xF SLOAD PUSH1 0x1 PUSH1 0x1 PUSH1 0xA0 SHL SUB AND PUSH1 0x0 SWAP1 DUP2 MSTORE PUSH1 0x9 PUSH1 0x20 SWAP1 DUP2 MSTORE PUSH1 0x40 DUP1 DUP4 KECCAK256 PUSH1 0x1 ADD SLOAD PUSH1 0x2 DUP13 ADD SWAP1 SWAP3 MSTORE DUP3 KECCAK256 SLOAD SWAP4 SWAP7 POP SWAP1 SWAP3 DUP8 SWAP2 PUSH2 0x2625 SWAP2 PUSH2 0x2EF4 JUMP JUMPDEST PUSH2 0x262F SWAP2 SWAP1 PUSH2 0x2EF4 JUMP JUMPDEST PUSH2 0x2639 SWAP2 SWAP1 PUSH2 0x3065 JUMP JUMPDEST PUSH1 0xF SLOAD PUSH1 0x1 PUSH1 0x1 PUSH1 0xA0 SHL SUB AND PUSH1 0x0 SWAP1 DUP2 MSTORE PUSH1 0x4 DUP10 ADD PUSH1 0x20 MSTORE PUSH1 0x40 SWAP1 KECCAK256 SLOAD PUSH2 0x2660 SWAP2 SWAP1 PUSH2 0x3052 JUMP JUMPDEST PUSH1 0x11 SLOAD PUSH1 0xF SLOAD PUSH1 0x1 PUSH1 0x1 PUSH1 0xA0 SHL SUB AND PUSH1 0x0 SWAP1 DUP2 MSTORE PUSH1 0x9 PUSH1 0x20 SWAP1 DUP2 MSTORE PUSH1 0x40 DUP1 DUP4 KECCAK256 PUSH1 0x2 ADD SLOAD PUSH1 0x3 DUP14 ADD SWAP1 SWAP3 MSTORE DUP3 KECCAK256 SLOAD SWAP4 SWAP5 POP SWAP1 SWAP3 DUP9 SWAP2 PUSH2 0x269E SWAP2 PUSH2 0x2EF4 JUMP JUMPDEST PUSH2 0x26A8 SWAP2 SWAP1 PUSH2 0x2EF4 JUMP JUMPDEST PUSH2 0x26B2 SWAP2 SWAP1 PUSH2 0x3065 JUMP JUMPDEST PUSH1 0xF SLOAD PUSH1 0x1 PUSH1 0x1 PUSH1 0xA0 SHL SUB AND PUSH1 0x0 SWAP1 DUP2 MSTORE PUSH1 0x5 DUP11 ADD PUSH1 0x20 MSTORE PUSH1 0x40 SWAP1 KECCAK256 SLOAD PUSH2 0x26D9 SWAP2 SWAP1 PUSH2 0x3052 JUMP JUMPDEST SWAP1 POP PUSH1 0x0 PUSH1 0x40 MLOAD DUP1 PUSH2 0x1C0 ADD PUSH1 0x40 MSTORE DUP1 DUP11 PUSH1 0x2 ADD PUSH1 0x0 PUSH1 0xE PUSH1 0x0 SWAP1 SLOAD SWAP1 PUSH2 0x100 EXP SWAP1 DIV PUSH1 0x1 PUSH1 0x1 PUSH1 0xA0 SHL SUB AND PUSH1 0x1 PUSH1 0x1 PUSH1 0xA0 SHL SUB AND PUSH1 0x1 PUSH1 0x1 PUSH1 0xA0 SHL SUB AND DUP2 MSTORE PUSH1 0x20 ADD SWAP1 DUP2 MSTORE PUSH1 0x20 ADD PUSH1 0x0 KECCAK256 SLOAD DUP2 MSTORE PUSH1 0x20 ADD DUP11 PUSH1 0x2 ADD PUSH1 0x0 PUSH1 0xF PUSH1 0x0 SWAP1 SLOAD SWAP1 PUSH2 0x100 EXP SWAP1 DIV PUSH1 0x1 PUSH1 0x1 PUSH1 0xA0 SHL SUB AND PUSH1 0x1 PUSH1 0x1 PUSH1 0xA0 SHL SUB AND PUSH1 0x1 PUSH1 0x1 PUSH1 0xA0 SHL SUB AND DUP2 MSTORE PUSH1 0x20 ADD SWAP1 DUP2 MSTORE PUSH1 0x20 ADD PUSH1 0x0 KECCAK256 SLOAD DUP2 MSTORE PUSH1 0x20 ADD DUP11 PUSH1 0x3 ADD PUSH1 0x0 PUSH1 0xE PUSH1 0x0 SWAP1 SLOAD SWAP1 PUSH2 0x100 EXP SWAP1 DIV PUSH1 0x1 PUSH1 0x1 PUSH1 0xA0 SHL SUB AND PUSH1 0x1 PUSH1 0x1 PUSH1 0xA0 SHL SUB AND PUSH1 0x1 PUSH1 0x1 PUSH1 0xA0 SHL SUB AND DUP2 MSTORE PUSH1 0x20 ADD SWAP1 DUP2 MSTORE PUSH1 0x20 ADD PUSH1 0x0 KECCAK256 SLOAD DUP2 MSTORE PUSH1 0x20 ADD DUP11 PUSH1 0x3 ADD PUSH1 0x0 PUSH1 0xF PUSH1 0x0 SWAP1 SLOAD SWAP1 PUSH2 0x100 EXP SWAP1 DIV PUSH1 0x1 PUSH1 0x1 PUSH1 0xA0 SHL SUB AND PUSH1 0x1 PUSH1 0x1 PUSH1 0xA0 SHL SUB AND PUSH1 0x1 PUSH1 0x1 PUSH1 0xA0 SHL SUB AND DUP2 MSTORE PUSH1 0x20 ADD SWAP1 DUP2 MSTORE PUSH1 0x20 ADD PUSH1 0x0 KECCAK256 SLOAD DUP2 MSTORE PUSH1 0x20 ADD DUP6 DUP2 MSTORE PUSH1 0x20 ADD DUP4 DUP2 MSTORE PUSH1 0x20 ADD DUP7 DUP2 MSTORE PUSH1 0x20 ADD DUP5 DUP2 MSTORE PUSH1 0x20 ADD DUP8 DUP2 MSTORE PUSH1 0x20 ADD PUSH2 0x2870 PUSH1 0xE PUSH1 0x0 SWAP1 SLOAD SWAP1 PUSH2 0x100 EXP SWAP1 DIV PUSH1 0x1 PUSH1 0x1 PUSH1 0xA0 SHL SUB AND DUP9 DUP14 PUSH1 0x2 ADD PUSH1 0x0 PUSH1 0xE PUSH1 0x0 SWAP1 SLOAD SWAP1 PUSH2 0x100 EXP SWAP1 DIV PUSH1 0x1 PUSH1 0x1 PUSH1 0xA0 SHL SUB AND PUSH1 0x1 PUSH1 0x1 PUSH1 0xA0 SHL SUB AND PUSH1 0x1 PUSH1 0x1 PUSH1 0xA0 SHL SUB AND DUP2 MSTORE PUSH1 0x20 ADD SWAP1 DUP2 MSTORE PUSH1 0x20 ADD PUSH1 0x0 KECCAK256 SLOAD PUSH2 0x167 SWAP2 SWAP1 PUSH2 0x3052 JUMP JUMPDEST DUP2 MSTORE PUSH1 0xF SLOAD PUSH1 0x1 PUSH1 0x1 PUSH1 0xA0 SHL SUB AND PUSH1 0x0 DUP2 DUP2 MSTORE PUSH1 0x2 DUP14 ADD PUSH1 0x20 SWAP1 DUP2 MSTORE PUSH1 0x40 SWAP1 SWAP2 KECCAK256 SLOAD SWAP3 ADD SWAP2 PUSH2 0x28A5 SWAP2 SWAP1 PUSH2 0x167 SWAP1 DUP9 SWAP1 PUSH2 0x3052 JUMP JUMPDEST DUP2 MSTORE PUSH1 0xE SLOAD PUSH1 0x1 PUSH1 0x1 PUSH1 0xA0 SHL SUB AND PUSH1 0x0 DUP2 DUP2 MSTORE PUSH1 0x3 DUP14 ADD PUSH1 0x20 SWAP1 DUP2 MSTORE PUSH1 0x40 SWAP1 SWAP2 KECCAK256 SLOAD SWAP3 ADD SWAP2 PUSH2 0x28DA SWAP2 SWAP1 PUSH2 0x167 SWAP1 DUP10 SWAP1 PUSH2 0x3052 JUMP JUMPDEST DUP2 MSTORE PUSH1 0xF SLOAD PUSH1 0x1 PUSH1 0x1 PUSH1 0xA0 SHL SUB AND PUSH1 0x0 DUP2 DUP2 MSTORE PUSH1 0x3 DUP14 ADD PUSH1 0x20 SWAP1 DUP2 MSTORE PUSH1 0x40 SWAP1 SWAP2 KECCAK256 SLOAD SWAP3 ADD SWAP2 PUSH2 0x290F SWAP2 SWAP1 PUSH2 0x167 SWAP1 DUP8 SWAP1 PUSH2 0x3052 JUMP JUMPDEST DUP2 MSTORE SWAP10 SLOAD PUSH1 0x1 PUSH1 0x1 PUSH1 0xA0 SHL SUB AND PUSH1 0x20 SWAP1 SWAP11 ADD SWAP10 SWAP1 SWAP10 MSTORE POP SWAP7 SWAP10 SWAP9 POP POP POP POP POP POP POP POP POP JUMP JUMPDEST PUSH1 0x40 MLOAD DUP1 PUSH2 0x1C0 ADD PUSH1 0x40 MSTORE DUP1 PUSH1 0x0 DUP2 MSTORE PUSH1 0x20 ADD PUSH1 0x0 DUP2 MSTORE PUSH1 0x20 ADD PUSH1 0x0 DUP2 MSTORE PUSH1 0x20 ADD PUSH1 0x0 DUP2 MSTORE PUSH1 0x20 ADD PUSH1 0x0 DUP2 MSTORE PUSH1 0x20 ADD PUSH1 0x0 DUP2 MSTORE PUSH1 0x20 ADD PUSH1 0x0 DUP2 MSTORE PUSH1 0x20 ADD PUSH1 0x0 DUP2 MSTORE PUSH1 0x20 ADD PUSH1 0x0 DUP2 MSTORE PUSH1 0x20 ADD PUSH1 0x0 DUP2 MSTORE PUSH1 0x20 ADD PUSH1 0x0 DUP2 MSTORE PUSH1 0x20 ADD PUSH1 0x0 DUP2 MSTORE PUSH1 0x20 ADD PUSH1 0x0 DUP2 MSTORE PUSH1 0x20 ADD CALLER PUSH1 0x1 PUSH1 0x1 PUSH1 0xA0 SHL SUB AND DUP2 MSTORE POP SWAP1 POP SWAP2 SWAP1 POP JUMP JUMPDEST SWAP2 SWAP1 POP JUMP JUMPDEST PUSH1 0x1 PUSH1 0x1 PUSH1 0xA0 SHL SUB DUP2 AND PUSH2 0x2A19 JUMPI PUSH1 0x40 MLOAD PUSH3 0x461BCD PUSH1 0xE5 SHL DUP2 MSTORE PUSH1 0x20 PUSH1 0x4 DUP3 ADD MSTORE PUSH1 0x26 PUSH1 0x24 DUP3 ADD MSTORE PUSH32 0x4F776E61626C653A206E6577206F776E657220697320746865207A65726F2061 PUSH1 0x44 DUP3 ADD MSTORE PUSH6 0x646472657373 PUSH1 0xD0 SHL PUSH1 0x64 DUP3 ADD MSTORE PUSH1 0x84 ADD PUSH2 0x56D JUMP JUMPDEST PUSH1 0x0 DUP1 SLOAD PUSH1 0x40 MLOAD PUSH1 0x1 PUSH1 0x1 PUSH1 0xA0 SHL SUB DUP1 DUP6 AND SWAP4 SWAP3 AND SWAP2 PUSH32 0x8BE0079C531659141344CD1FD0A4F28419497F9722A3DAAFE3B4186F6B6457E0 SWAP2 LOG3 PUSH1 0x0 DUP1 SLOAD PUSH1 0x1 PUSH1 0x1 PUSH1 0xA0 SHL SUB NOT AND PUSH1 0x1 PUSH1 0x1 PUSH1 0xA0 SHL SUB SWAP3 SWAP1 SWAP3 AND SWAP2 SWAP1 SWAP2 OR SWAP1 SSTORE JUMP JUMPDEST PUSH1 0x0 DUP1 PUSH1 0x0 DUP1 PUSH1 0x0 PUSH2 0x2A85 DUP7 PUSH2 0x491 JUMP JUMPDEST PUSH1 0x60 DUP2 ADD MLOAD PUSH1 0x80 DUP3 ADD MLOAD SWAP1 SWAP5 POP SWAP3 POP SWAP1 POP PUSH1 0x0 DUP1 DUP5 ISZERO PUSH2 0x2BC8 JUMPI PUSH1 0x0 PUSH2 0x2AB0 DUP7 PUSH2 0x481 DUP8 PUSH1 0x64 PUSH2 0x2EF4 JUMP JUMPDEST SWAP1 POP DUP1 PUSH1 0x5 PUSH1 0x1 ADD SLOAD GT ISZERO PUSH2 0x2AE8 JUMPI PUSH1 0x6 SLOAD PUSH1 0x7 SLOAD PUSH2 0x2AD4 SWAP2 SWAP1 PUSH2 0x481 SWAP1 DUP5 PUSH2 0x2EF4 JUMP JUMPDEST PUSH1 0x5 SLOAD PUSH2 0x2AE1 SWAP2 SWAP1 PUSH2 0x3052 JUMP JUMPDEST SWAP3 POP PUSH2 0x2B31 JUMP JUMPDEST PUSH1 0x6 SLOAD PUSH2 0x2B14 SWAP1 PUSH2 0x2AFA SWAP1 PUSH1 0x64 PUSH2 0x303F JUMP JUMPDEST PUSH1 0x8 SLOAD PUSH1 0x6 SLOAD PUSH2 0x2B0A SWAP1 DUP6 PUSH2 0x303F JUMP JUMPDEST PUSH2 0x481 SWAP2 SWAP1 PUSH2 0x2EF4 JUMP JUMPDEST PUSH1 0x7 SLOAD PUSH1 0x5 SLOAD PUSH2 0x2B24 SWAP2 SWAP1 PUSH2 0x3052 JUMP JUMPDEST PUSH2 0x2B2E SWAP2 SWAP1 PUSH2 0x3052 JUMP JUMPDEST SWAP3 POP JUMPDEST PUSH1 0x2 SLOAD DUP2 LT ISZERO PUSH2 0x2B64 JUMPI PUSH1 0x2 SLOAD PUSH1 0x3 SLOAD PUSH2 0x2B50 SWAP2 SWAP1 PUSH2 0x481 SWAP1 DUP5 PUSH2 0x2EF4 JUMP JUMPDEST PUSH1 0x1 SLOAD PUSH2 0x2B5D SWAP2 SWAP1 PUSH2 0x3052 JUMP JUMPDEST SWAP2 POP PUSH2 0x2BA3 JUMP JUMPDEST PUSH1 0x2 SLOAD PUSH2 0x2B86 SWAP1 PUSH2 0x2B76 SWAP1 PUSH1 0x64 PUSH2 0x303F JUMP JUMPDEST PUSH1 0x4 SLOAD PUSH1 0x2 SLOAD PUSH2 0x2B0A SWAP1 DUP6 PUSH2 0x303F JUMP JUMPDEST PUSH1 0x3 SLOAD PUSH1 0x1 SLOAD PUSH2 0x2B96 SWAP2 SWAP1 PUSH2 0x3052 JUMP JUMPDEST PUSH2 0x2BA0 SWAP2 SWAP1 PUSH2 0x3052 JUMP JUMPDEST SWAP2 POP JUMPDEST PUSH1 0x12 SLOAD PUSH2 0x2BB0 SWAP1 DUP4 PUSH2 0x2EF4 JUMP JUMPDEST SWAP2 POP PUSH1 0x12 SLOAD DUP4 PUSH2 0x2BC0 SWAP2 SWAP1 PUSH2 0x2EF4 JUMP JUMPDEST SWAP3 POP POP PUSH2 0x2BED JUMP JUMPDEST PUSH1 0x12 SLOAD PUSH1 0x1 SLOAD PUSH2 0x2BD8 SWAP2 SWAP1 PUSH2 0x2EF4 JUMP JUMPDEST PUSH1 0x12 SLOAD PUSH1 0x5 SLOAD SWAP2 SWAP3 POP PUSH2 0x2BEA SWAP2 PUSH2 0x2EF4 JUMP JUMPDEST SWAP2 POP JUMPDEST SWAP8 SWAP1 SWAP7 POP SWAP5 POP POP POP POP POP JUMP JUMPDEST PUSH1 0x0 PUSH11 0x636F6E736F6C652E6C6F67 SWAP1 POP PUSH1 0x0 DUP1 DUP4 MLOAD PUSH1 0x20 DUP6 ADD DUP5 GAS STATICCALL POP POP POP JUMP JUMPDEST PUSH1 0x40 MLOAD DUP1 PUSH2 0x1C0 ADD PUSH1 0x40 MSTORE DUP1 PUSH1 0x0 DUP2 MSTORE PUSH1 0x20 ADD PUSH1 0x0 DUP2 MSTORE PUSH1 0x20 ADD PUSH1 0x0 DUP2 MSTORE PUSH1 0x20 ADD PUSH1 0x0 DUP2 MSTORE PUSH1 0x20 ADD PUSH1 0x0 DUP2 MSTORE PUSH1 0x20 ADD PUSH1 0x0 DUP2 MSTORE PUSH1 0x20 ADD PUSH1 0x0 DUP2 MSTORE PUSH1 0x20 ADD PUSH1 0x0 DUP2 MSTORE PUSH1 0x20 ADD PUSH1 0x0 DUP2 MSTORE PUSH1 0x20 ADD PUSH1 0x0 DUP2 MSTORE PUSH1 0x20 ADD PUSH1 0x0 DUP2 MSTORE PUSH1 0x20 ADD PUSH1 0x0 DUP2 MSTORE PUSH1 0x20 ADD PUSH1 0x0 DUP2 MSTORE PUSH1 0x20 ADD PUSH1 0x0 PUSH1 0x1 PUSH1 0x1 PUSH1 0xA0 SHL SUB AND DUP2 MSTORE POP SWAP1 JUMP JUMPDEST DUP1 CALLDATALOAD PUSH1 0x1 PUSH1 0x1 PUSH1 0xA0 SHL SUB DUP2 AND DUP2 EQ PUSH2 0x29AF JUMPI PUSH1 0x0 DUP1 REVERT JUMPDEST PUSH1 0x0 DUP1 PUSH1 0x40 DUP4 DUP6 SUB SLT ISZERO PUSH2 0x2CBC JUMPI PUSH1 0x0 DUP1 REVERT JUMPDEST PUSH2 0x2CC5 DUP4 PUSH2 0x2C92 JUMP JUMPDEST SWAP5 PUSH1 0x20 SWAP4 SWAP1 SWAP4 ADD CALLDATALOAD SWAP4 POP POP POP JUMP JUMPDEST PUSH1 0x0 PUSH1 0x20 DUP3 DUP5 SUB SLT ISZERO PUSH2 0x2CE5 JUMPI PUSH1 0x0 DUP1 REVERT JUMPDEST PUSH2 0x20C4 DUP3 PUSH2 0x2C92 JUMP JUMPDEST PUSH1 0xA0 DUP2 ADD PUSH2 0x48B DUP3 DUP5 DUP1 MLOAD DUP3 MSTORE PUSH1 0x20 DUP2 ADD MLOAD PUSH1 0x20 DUP4 ADD MSTORE PUSH1 0x40 DUP2 ADD MLOAD PUSH1 0x40 DUP4 ADD MSTORE PUSH1 0x60 DUP2 ADD MLOAD PUSH1 0x60 DUP4 ADD MSTORE PUSH1 0x80 DUP2 ADD MLOAD PUSH1 0x80 DUP4 ADD MSTORE POP POP JUMP JUMPDEST DUP1 MLOAD DUP3 MSTORE PUSH1 0x20 DUP2 ADD MLOAD PUSH1 0x20 DUP4 ADD MSTORE PUSH1 0x40 DUP2 ADD MLOAD PUSH1 0x40 DUP4 ADD MSTORE PUSH1 0x60 DUP2 ADD MLOAD PUSH1 0x60 DUP4 ADD MSTORE PUSH1 0x80 DUP2 ADD MLOAD PUSH1 0x80 DUP4 ADD MSTORE PUSH1 0xA0 DUP2 ADD MLOAD PUSH1 0xA0 DUP4 ADD MSTORE PUSH1 0xC0 DUP2 ADD MLOAD PUSH1 0xC0 DUP4 ADD MSTORE PUSH1 0xE0 DUP2 ADD MLOAD PUSH1 0xE0 DUP4 ADD MSTORE PUSH2 0x100 DUP1 DUP3 ADD MLOAD DUP2 DUP5 ADD MSTORE POP PUSH2 0x120 DUP1 DUP3 ADD MLOAD DUP2 DUP5 ADD MSTORE POP PUSH2 0x140 DUP1 DUP3 ADD MLOAD DUP2 DUP5 ADD MSTORE POP PUSH2 0x160 DUP1 DUP3 ADD MLOAD DUP2 DUP5 ADD MSTORE POP PUSH2 0x180 DUP1 DUP3 ADD MLOAD DUP2 DUP5 ADD MSTORE POP PUSH2 0x1A0 DUP1 DUP3 ADD MLOAD PUSH2 0x12EA DUP3 DUP6 ADD DUP3 PUSH1 0x1 PUSH1 0x1 PUSH1 0xA0 SHL SUB AND SWAP1 MSTORE JUMP JUMPDEST PUSH1 0x20 DUP1 DUP3 MSTORE DUP3 MLOAD DUP3 DUP3 ADD DUP2 SWAP1 MSTORE PUSH1 0x0 SWAP2 SWAP1 DUP5 DUP3 ADD SWAP1 PUSH1 0x40 DUP6 ADD SWAP1 DUP5 JUMPDEST DUP2 DUP2 LT ISZERO PUSH2 0x2E0B JUMPI PUSH2 0x2DF7 DUP4 DUP6 MLOAD PUSH2 0x2D27 JUMP JUMPDEST SWAP3 DUP5 ADD SWAP3 PUSH2 0x1C0 SWAP3 SWAP1 SWAP3 ADD SWAP2 PUSH1 0x1 ADD PUSH2 0x2DE4 JUMP JUMPDEST POP SWAP1 SWAP7 SWAP6 POP POP POP POP POP POP JUMP JUMPDEST PUSH1 0x0 PUSH1 0x20 DUP3 DUP5 SUB SLT ISZERO PUSH2 0x2E29 JUMPI PUSH1 0x0 DUP1 REVERT JUMPDEST POP CALLDATALOAD SWAP2 SWAP1 POP JUMP JUMPDEST PUSH2 0x1C0 DUP2 ADD PUSH2 0x48B DUP3 DUP5 PUSH2 0x2D27 JUMP JUMPDEST PUSH1 0x0 DUP1 PUSH1 0x0 DUP1 PUSH1 0x80 DUP6 DUP8 SUB SLT ISZERO PUSH2 0x2E55 JUMPI PUSH1 0x0 DUP1 REVERT JUMPDEST POP POP DUP3 CALLDATALOAD SWAP5 PUSH1 0x20 DUP5 ADD CALLDATALOAD SWAP5 POP PUSH1 0x40 DUP5 ADD CALLDATALOAD SWAP4 PUSH1 0x60 ADD CALLDATALOAD SWAP3 POP SWAP1 POP JUMP JUMPDEST PUSH1 0x20 DUP1 DUP3 MSTORE DUP3 MLOAD DUP3 DUP3 ADD DUP2 SWAP1 MSTORE PUSH1 0x0 SWAP2 SWAP1 DUP5 DUP3 ADD SWAP1 PUSH1 0x40 DUP6 ADD SWAP1 DUP5 JUMPDEST DUP2 DUP2 LT ISZERO PUSH2 0x2E0B JUMPI PUSH2 0x2ECB DUP4 DUP6 MLOAD DUP1 MLOAD DUP3 MSTORE PUSH1 0x20 DUP2 ADD MLOAD PUSH1 0x20 DUP4 ADD MSTORE PUSH1 0x40 DUP2 ADD MLOAD PUSH1 0x40 DUP4 ADD MSTORE PUSH1 0x60 DUP2 ADD MLOAD PUSH1 0x60 DUP4 ADD MSTORE PUSH1 0x80 DUP2 ADD MLOAD PUSH1 0x80 DUP4 ADD MSTORE POP POP JUMP JUMPDEST SWAP3 DUP5 ADD SWAP3 PUSH1 0xA0 SWAP3 SWAP1 SWAP3 ADD SWAP2 PUSH1 0x1 ADD PUSH2 0x2E8D JUMP JUMPDEST PUSH4 0x4E487B71 PUSH1 0xE0 SHL PUSH1 0x0 MSTORE PUSH1 0x11 PUSH1 0x4 MSTORE PUSH1 0x24 PUSH1 0x0 REVERT JUMPDEST DUP1 DUP3 MUL DUP2 ISZERO DUP3 DUP3 DIV DUP5 EQ OR PUSH2 0x48B JUMPI PUSH2 0x48B PUSH2 0x2EDE JUMP JUMPDEST PUSH1 0x20 DUP1 DUP3 MSTORE DUP2 DUP2 ADD MSTORE PUSH32 0x4F776E61626C653A2063616C6C6572206973206E6F7420746865206F776E6572 PUSH1 0x40 DUP3 ADD MSTORE PUSH1 0x60 ADD SWAP1 JUMP JUMPDEST PUSH1 0x0 PUSH1 0x20 DUP3 DUP5 SUB SLT ISZERO PUSH2 0x2F52 JUMPI PUSH1 0x0 DUP1 REVERT JUMPDEST DUP2 MLOAD DUP1 ISZERO ISZERO DUP2 EQ PUSH2 0x20C4 JUMPI PUSH1 0x0 DUP1 REVERT JUMPDEST DUP1 MLOAD PUSH10 0xFFFFFFFFFFFFFFFFFFFF DUP2 AND DUP2 EQ PUSH2 0x29AF JUMPI PUSH1 0x0 DUP1 REVERT JUMPDEST PUSH1 0x0 DUP1 PUSH1 0x0 DUP1 PUSH1 0x0 PUSH1 0xA0 DUP7 DUP9 SUB SLT ISZERO PUSH2 0x2F94 JUMPI PUSH1 0x0 DUP1 REVERT JUMPDEST PUSH2 0x2F9D DUP7 PUSH2 0x2F62 JUMP JUMPDEST SWAP5 POP PUSH1 0x20 DUP7 ADD MLOAD SWAP4 POP PUSH1 0x40 DUP7 ADD MLOAD SWAP3 POP PUSH1 0x60 DUP7 ADD MLOAD SWAP2 POP PUSH2 0x2FC0 PUSH1 0x80 DUP8 ADD PUSH2 0x2F62 JUMP JUMPDEST SWAP1 POP SWAP3 SWAP6 POP SWAP3 SWAP6 SWAP1 SWAP4 POP JUMP JUMPDEST DUP1 DUP3 MUL PUSH1 0x0 DUP3 SLT PUSH1 0x1 PUSH1 0xFF SHL DUP5 EQ AND ISZERO PUSH2 0x2FE8 JUMPI PUSH2 0x2FE8 PUSH2 0x2EDE JUMP JUMPDEST DUP2 DUP2 SDIV DUP4 EQ DUP3 ISZERO OR PUSH2 0x48B JUMPI PUSH2 0x48B PUSH2 0x2EDE JUMP JUMPDEST PUSH1 0x20 DUP1 DUP3 MSTORE PUSH1 0x23 SWAP1 DUP3 ADD MSTORE PUSH32 0x5573657220696E6465782073686F756C6420626520626967676572207468616E PUSH1 0x40 DUP3 ADD MSTORE PUSH3 0x101817 PUSH1 0xE9 SHL PUSH1 0x60 DUP3 ADD MSTORE PUSH1 0x80 ADD SWAP1 JUMP JUMPDEST DUP2 DUP2 SUB DUP2 DUP2 GT ISZERO PUSH2 0x48B JUMPI PUSH2 0x48B PUSH2 0x2EDE JUMP JUMPDEST DUP1 DUP3 ADD DUP1 DUP3 GT ISZERO PUSH2 0x48B JUMPI PUSH2 0x48B PUSH2 0x2EDE JUMP JUMPDEST PUSH1 0x0 DUP3 PUSH2 0x3082 JUMPI PUSH4 0x4E487B71 PUSH1 0xE0 SHL PUSH1 0x0 MSTORE PUSH1 0x12 PUSH1 0x4 MSTORE PUSH1 0x24 PUSH1 0x0 REVERT JUMPDEST POP DIV SWAP1 JUMP JUMPDEST PUSH4 0x4E487B71 PUSH1 0xE0 SHL PUSH1 0x0 MSTORE PUSH1 0x41 PUSH1 0x4 MSTORE PUSH1 0x24 PUSH1 0x0 REVERT JUMPDEST PUSH4 0x4E487B71 PUSH1 0xE0 SHL PUSH1 0x0 MSTORE PUSH1 0x32 PUSH1 0x4 MSTORE PUSH1 0x24 PUSH1 0x0 REVERT JUMPDEST PUSH1 0x0 PUSH1 0x1 DUP3 ADD PUSH2 0x30C5 JUMPI PUSH2 0x30C5 PUSH2 0x2EDE JUMP JUMPDEST POP PUSH1 0x1 ADD SWAP1 JUMP JUMPDEST PUSH1 0x40 DUP2 MSTORE PUSH1 0x0 DUP4 MLOAD DUP1 PUSH1 0x40 DUP5 ADD MSTORE PUSH1 0x0 JUMPDEST DUP2 DUP2 LT ISZERO PUSH2 0x30FA JUMPI PUSH1 0x20 DUP2 DUP8 ADD DUP2 ADD MLOAD PUSH1 0x60 DUP7 DUP5 ADD ADD MSTORE ADD PUSH2 0x30DD JUMP JUMPDEST POP PUSH1 0x0 PUSH1 0x60 DUP3 DUP6 ADD ADD MSTORE PUSH1 0x60 PUSH1 0x1F NOT PUSH1 0x1F DUP4 ADD AND DUP5 ADD ADD SWAP2 POP POP DUP3 PUSH1 0x20 DUP4 ADD MSTORE SWAP4 SWAP3 POP POP POP JUMP INVALID LOG2 PUSH5 0x6970667358 0x22 SLT KECCAK256 0xE2 0xD8 0xCB LOG1 0x27 0xDA 0xD8 DUP8 0xFC 0xBE DELEGATECALL GASPRICE 0xEB 0x23 GT KECCAK256 CALLDATASIZE PUSH18 0x51E9D8ED6A75AD1FFB70CEA9066264736F6C PUSH4 0x43000812 STOP CALLER 0x4F PUSH24 0x6E61626C653A2063616C6C6572206973206E6F7420746865 KECCAK256 PUSH16 0x776E6572000000000000000000000000 "},"gasEstimates":{"creation":{"codeDepositCost":"2526200","executionCost":"infinite","totalCost":"infinite"},"external":{"":"229","borrow(address,uint256)":"infinite","calcTokenPrice(address,uint256)":"infinite","claimETH(uint256)":"infinite","claimPeko()":"infinite","claimToken(address,uint256)":"infinite","collateral(address)":"infinite","debt(address)":"infinite","deposit(address,uint256)":"infinite","getEthValue()":"infinite","getLiquidationThreshhold()":"2347","getMarketInfo()":"infinite","getPoolInfo(address)":"infinite","getUserInfo(address)":"infinite","liquidate(address)":"infinite","listPools()":"infinite","listUserInfo()":"infinite","owner()":"2412","renounceOwnership()":"30232","repay(address,uint256)":"infinite","setBorrowApy(uint256,uint256,uint256,uint256)":"90874","setLiquidationThreshhold(uint256)":"24575","setSupplyApy(uint256,uint256,uint256,uint256)":"90873","transferOwnership(address)":"30517","withdraw(address,uint256)":"infinite"},"internal":{"addPool(address,uint256,uint256,uint256,uint256,uint256)":"infinite","calcuateUser(address)":"infinite","calculateAPY(address)":"infinite","clearUser(address)":"infinite","fetchUserInfo(uint256)":"infinite"}},"methodIdentifiers":{"borrow(address,uint256)":"4b8a3529","calcTokenPrice(address,uint256)":"05cb9fde","claimETH(uint256)":"fe96973a","claimPeko()":"838afb1e","claimToken(address,uint256)":"1698755f","collateral(address)":"a5fdc5de","debt(address)":"9b6c56ec","deposit(address,uint256)":"47e7ef24","getEthValue()":"1c5a859b","getLiquidationThreshhold()":"e124787f","getMarketInfo()":"23341a05","getPoolInfo(address)":"06bfa938","getUserInfo(address)":"6386c1c7","liquidate(address)":"2f865568","listPools()":"68795862","listUserInfo()":"5063e91a","owner()":"8da5cb5b","renounceOwnership()":"715018a6","repay(address,uint256)":"22867d78","setBorrowApy(uint256,uint256,uint256,uint256)":"660fd831","setLiquidationThreshhold(uint256)":"616571e7","setSupplyApy(uint256,uint256,uint256,uint256)":"a079722d","transferOwnership(address)":"f2fde38b","withdraw(address,uint256)":"f3fef3a3"}},"storageLayout":{"storage":[{"astId":336,"contract":"contracts/Lending.sol:Lending","label":"_owner","offset":0,"slot":"0","type":"t_address"},{"astId":663,"contract":"contracts/Lending.sol:Lending","label":"supplyAPY","offset":0,"slot":"1","type":"t_struct(APYInfo)660_storage"},{"astId":666,"contract":"contracts/Lending.sol:Lending","label":"borrowAPY","offset":0,"slot":"5","type":"t_struct(APYInfo)660_storage"},{"astId":671,"contract":"contracts/Lending.sol:Lending","label":"poolInfos","offset":0,"slot":"9","type":"t_mapping(t_address,t_struct(PoolInfo)651_storage)"},{"astId":673,"contract":"contracts/Lending.sol:Lending","label":"maxUserIndex","offset":0,"slot":"10","type":"t_uint256"},{"astId":678,"contract":"contracts/Lending.sol:Lending","label":"userInfos","offset":0,"slot":"11","type":"t_mapping(t_uint256,t_struct(UserInfo)611_storage)"},{"astId":682,"contract":"contracts/Lending.sol:Lending","label":"userInfoIndex","offset":0,"slot":"12","type":"t_mapping(t_address,t_uint256)"},{"astId":684,"contract":"contracts/Lending.sol:Lending","label":"rewardAddress","offset":0,"slot":"13","type":"t_address"},{"astId":686,"contract":"contracts/Lending.sol:Lending","label":"ethAddress","offset":0,"slot":"14","type":"t_address"},{"astId":688,"contract":"contracts/Lending.sol:Lending","label":"usdtAddress","offset":0,"slot":"15","type":"t_address"},{"astId":691,"contract":"contracts/Lending.sol:Lending","label":"liquidationThreshhold","offset":0,"slot":"16","type":"t_uint256"},{"astId":694,"contract":"contracts/Lending.sol:Lending","label":"decimal","offset":0,"slot":"17","type":"t_uint256"},{"astId":697,"contract":"contracts/Lending.sol:Lending","label":"secondApy","offset":0,"slot":"18","type":"t_uint256"},{"astId":700,"contract":"contracts/Lending.sol:Lending","label":"aggregatorInterface","offset":0,"slot":"19","type":"t_address"}],"types":{"t_address":{"encoding":"inplace","label":"address","numberOfBytes":"20"},"t_mapping(t_address,t_struct(PoolInfo)651_storage)":{"encoding":"mapping","key":"t_address","label":"mapping(address => struct Lending.PoolInfo)","numberOfBytes":"32","value":"t_struct(PoolInfo)651_storage"},"t_mapping(t_address,t_uint256)":{"encoding":"mapping","key":"t_address","label":"mapping(address => uint256)","numberOfBytes":"32","value":"t_uint256"},"t_mapping(t_uint256,t_struct(UserInfo)611_storage)":{"encoding":"mapping","key":"t_uint256","label":"mapping(uint256 => struct Lending.UserInfo)","numberOfBytes":"32","value":"t_struct(UserInfo)611_storage"},"t_struct(APYInfo)660_storage":{"encoding":"inplace","label":"struct Lending.APYInfo","members":[{"astId":653,"contract":"contracts/Lending.sol:Lending","label":"r0","offset":0,"slot":"0","type":"t_uint256"},{"astId":655,"contract":"contracts/Lending.sol:Lending","label":"uOption","offset":0,"slot":"1","type":"t_uint256"},{"astId":657,"contract":"contracts/Lending.sol:Lending","label":"slope1","offset":0,"slot":"2","type":"t_uint256"},{"astId":659,"contract":"contracts/Lending.sol:Lending","label":"slope2","offset":0,"slot":"3","type":"t_uint256"}],"numberOfBytes":"128"},"t_struct(PoolInfo)651_storage":{"encoding":"inplace","label":"struct Lending.PoolInfo","members":[{"astId":642,"contract":"contracts/Lending.sol:Lending","label":"LTV","offset":0,"slot":"0","type":"t_uint256"},{"astId":644,"contract":"contracts/Lending.sol:Lending","label":"depositApy","offset":0,"slot":"1","type":"t_uint256"},{"astId":646,"contract":"contracts/Lending.sol:Lending","label":"borrowApy","offset":0,"slot":"2","type":"t_uint256"},{"astId":648,"contract":"contracts/Lending.sol:Lending","label":"totalAmount","offset":0,"slot":"3","type":"t_uint256"},{"astId":650,"contract":"contracts/Lending.sol:Lending","label":"borrowAmount","offset":0,"slot":"4","type":"t_uint256"}],"numberOfBytes":"160"},"t_struct(UserInfo)611_storage":{"encoding":"inplace","label":"struct Lending.UserInfo","members":[{"astId":590,"contract":"contracts/Lending.sol:Lending","label":"accountAddress","offset":0,"slot":"0","type":"t_address"},{"astId":592,"contract":"contracts/Lending.sol:Lending","label":"lastInterest","offset":0,"slot":"1","type":"t_uint256"},{"astId":596,"contract":"contracts/Lending.sol:Lending","label":"tokenDepositAmount","offset":0,"slot":"2","type":"t_mapping(t_address,t_uint256)"},{"astId":600,"contract":"contracts/Lending.sol:Lending","label":"tokenBorrowAmount","offset":0,"slot":"3","type":"t_mapping(t_address,t_uint256)"},{"astId":604,"contract":"contracts/Lending.sol:Lending","label":"tokenRewardAmount","offset":0,"slot":"4","type":"t_mapping(t_address,t_uint256)"},{"astId":608,"contract":"contracts/Lending.sol:Lending","label":"tokenInterestAmount","offset":0,"slot":"5","type":"t_mapping(t_address,t_uint256)"},{"astId":610,"contract":"contracts/Lending.sol:Lending","label":"pekoRewardAmount","offset":0,"slot":"6","type":"t_uint256"}],"numberOfBytes":"224"},"t_uint256":{"encoding":"inplace","label":"uint256","numberOfBytes":"32"}}},"userdoc":{"kind":"user","methods":{},"version":1}}}}