{"contracts/IDO.sol":{"IDO":{"abi":[{"inputs":[{"internalType":"address","name":"_rewardAddress","type":"address"},{"internalType":"address","name":"_usdtAddress","type":"address"}],"stateMutability":"nonpayable","type":"constructor"},{"anonymous":false,"inputs":[{"indexed":false,"internalType":"address","name":"to","type":"address"},{"indexed":false,"internalType":"uint256","name":"amount","type":"uint256"}],"name":"Buy","type":"event"},{"anonymous":false,"inputs":[{"indexed":false,"internalType":"address","name":"to","type":"address"},{"indexed":false,"internalType":"uint256","name":"amount","type":"uint256"}],"name":"Claim","type":"event"},{"anonymous":false,"inputs":[{"indexed":true,"internalType":"address","name":"previousOwner","type":"address"},{"indexed":true,"internalType":"address","name":"newOwner","type":"address"}],"name":"OwnershipTransferred","type":"event"},{"stateMutability":"payable","type":"fallback"},{"inputs":[],"name":"buy","outputs":[],"stateMutability":"payable","type":"function"},{"inputs":[{"internalType":"uint256","name":"_ethAmount","type":"uint256"}],"name":"calcTokenAmount","outputs":[{"internalType":"uint256","name":"amount","type":"uint256"}],"stateMutability":"nonpayable","type":"function"},{"inputs":[{"internalType":"uint256","name":"amount","type":"uint256"}],"name":"claimETH","outputs":[],"stateMutability":"nonpayable","type":"function"},{"inputs":[],"name":"claimRewardToken","outputs":[],"stateMutability":"nonpayable","type":"function"},{"inputs":[{"internalType":"address","name":"tokenAddress","type":"address"},{"internalType":"uint256","name":"amount","type":"uint256"}],"name":"claimToken","outputs":[],"stateMutability":"nonpayable","type":"function"},{"inputs":[{"internalType":"address","name":"userAddress","type":"address"}],"name":"getClaimAmount","outputs":[{"internalType":"uint256","name":"claimAmount","type":"uint256"}],"stateMutability":"view","type":"function"},{"inputs":[],"name":"getPrice","outputs":[{"internalType":"uint256","name":"price","type":"uint256"}],"stateMutability":"view","type":"function"},{"inputs":[],"name":"owner","outputs":[{"internalType":"address","name":"","type":"address"}],"stateMutability":"view","type":"function"},{"inputs":[],"name":"privateSaleAllocation","outputs":[{"internalType":"uint256","name":"","type":"uint256"}],"stateMutability":"view","type":"function"},{"inputs":[],"name":"privateSaleTotalSaled","outputs":[{"internalType":"uint256","name":"","type":"uint256"}],"stateMutability":"view","type":"function"},{"inputs":[],"name":"publicSaleAllocation","outputs":[{"internalType":"uint256","name":"","type":"uint256"}],"stateMutability":"view","type":"function"},{"inputs":[],"name":"publicSaleTotalSaled","outputs":[{"internalType":"uint256","name":"","type":"uint256"}],"stateMutability":"view","type":"function"},{"inputs":[],"name":"renounceOwnership","outputs":[],"stateMutability":"nonpayable","type":"function"},{"inputs":[{"internalType":"uint256","name":"_price","type":"uint256"}],"name":"resetPrice","outputs":[],"stateMutability":"nonpayable","type":"function"},{"inputs":[{"internalType":"uint256","name":"_saleIndex","type":"uint256"}],"name":"startSale","outputs":[],"stateMutability":"nonpayable","type":"function"},{"inputs":[],"name":"stopSale","outputs":[],"stateMutability":"nonpayable","type":"function"},{"inputs":[{"internalType":"address","name":"newOwner","type":"address"}],"name":"transferOwnership","outputs":[],"stateMutability":"nonpayable","type":"function"},{"inputs":[{"internalType":"address","name":"","type":"address"}],"name":"userDeposited","outputs":[{"internalType":"uint256","name":"","type":"uint256"}],"stateMutability":"view","type":"function"},{"inputs":[{"internalType":"address","name":"","type":"address"}],"name":"userRewards","outputs":[{"internalType":"uint256","name":"","type":"uint256"}],"stateMutability":"view","type":"function"},{"stateMutability":"payable","type":"receive"}],"devdoc":{"kind":"dev","methods":{},"version":1},"evm":{"bytecode":{"linkReferences":{},"object":"608060405260006001556802df85d331a7b40000600355662386f26fc10000600455678ac7230489e800006005556803860e639d80640000600655600060085565048c273950006009556000600a5565048c27395000600b5534801561006457600080fd5b50604051610dcc380380610dcc83398101604081905261008391610142565b600080546001600160a01b031916339081178255604051909182917f8be0079c531659141344cd1fd0a4f28419497f9722a3daafe3b4186f6b6457e0908290a3506100df60095460035461011360201b610a091790919060201c565b600755600c80546001600160a01b039384166001600160a01b031991821617909155600d8054929093169116179055610197565b600061011f8284610175565b9392505050565b80516001600160a01b038116811461013d57600080fd5b919050565b6000806040838503121561015557600080fd5b61015e83610126565b915061016c60208401610126565b90509250929050565b60008261019257634e487b7160e01b600052601260045260246000fd5b500490565b610c26806101a66000396000f3fe6080604052600436106101185760003560e01c806398d5fdca116100a0578063de8e81ed11610064578063de8e81ed146102db578063e36b0b37146102fb578063e7a6ac5514610310578063f2fde38b14610326578063fe96973a1461034657610127565b806398d5fdca14610265578063a6f2ae3a14610127578063afd189161461027a578063c8aad2501461028f578063dde070e8146102a557610127565b8063715018a6116100e7578063715018a6146101c557806378442876146101da5780637b7902dd146101f05780638092be4a146102105780638da5cb5b1461023d57610127565b80630660f1e81461012f5780630e3ab61d1461016f5780631698755f1461018f57806334ad1f32146101af57610127565b3661012757610125610366565b005b610125610366565b34801561013b57600080fd5b5061015c61014a366004610af8565b600e6020526000908152604090205481565b6040519081526020015b60405180910390f35b34801561017b57600080fd5b5061012561018a366004610b13565b6105dc565b34801561019b57600080fd5b506101256101aa366004610b2c565b610643565b3480156101bb57600080fd5b5061015c600b5481565b3480156101d157600080fd5b50610125610704565b3480156101e657600080fd5b5061015c60085481565b3480156101fc57600080fd5b5061015c61020b366004610b13565b610778565b34801561021c57600080fd5b5061015c61022b366004610af8565b600f6020526000908152604090205481565b34801561024957600080fd5b506000546040516001600160a01b039091168152602001610166565b34801561027157600080fd5b5060075461015c565b34801561028657600080fd5b506101256107d0565b34801561029b57600080fd5b5061015c60095481565b3480156102b157600080fd5b5061015c6102c0366004610af8565b6001600160a01b03166000908152600e602052604090205490565b3480156102e757600080fd5b506101256102f6366004610b13565b6108ae565b34801561030757600080fd5b506101256108dd565b34801561031c57600080fd5b5061015c600a5481565b34801561033257600080fd5b50610125610341366004610af8565b61090e565b34801561035257600080fd5b50610125610361366004610b13565b610941565b600060015411801561037a57506003600154105b6103cb5760405162461bcd60e51b815260206004820152601760248201527f4e6f7420616c6c6f77656420746f20627579206e6f772e00000000000000000060448201526064015b60405180910390fd5b6001546001036104aa57336000908152600f60205260409020546103f0903490610b56565b6005541015801561041d5750600454336000908152600f602052604090205461041a903490610b56565b10155b801561043857503360009081526002602052604090205460ff165b6104aa5760405162461bcd60e51b815260206004820152603d60248201527f416d6f756e7420697320616c6c6f77656420302e30312065746820746f20313060448201527f2065746820666f72206f6e6c79206c697374656420616464726573732e00000060648201526084016103c2565b60006104b534610778565b90506001546001036104de5734600860008282546104d39190610b56565b909155506104f69050565b34600a60008282546104f09190610b56565b90915550505b600080546040516001600160a01b039091169034908381818185875af1925050503d8060008114610543576040519150601f19603f3d011682016040523d82523d6000602084013e610548565b606091505b50509050806105905760405162461bcd60e51b81526020600482015260146024820152732330b4b632b2103a379039b2b7321022ba3432b960611b60448201526064016103c2565b336000908152600e6020526040812080548492906105af908490610b56565b9091555050336000908152600f6020526040812080543492906105d3908490610b56565b90915550505050565b6000546001600160a01b031633146106065760405162461bcd60e51b81526004016103c290610b77565b60018181558190036106275760095460035461062191610a09565b60075550565b60015460020361064057600b5460065461062191610a09565b50565b6000546001600160a01b0316331461066d5760405162461bcd60e51b81526004016103c290610b77565b816001600160a01b031663a9059cbb61068e6000546001600160a01b031690565b6040516001600160e01b031960e084901b1681526001600160a01b039091166004820152602481018490526044016020604051808303816000875af11580156106db573d6000803e3d6000fd5b505050506040513d601f19601f820116820180604052508101906106ff9190610bac565b505050565b6000546001600160a01b0316331461072e5760405162461bcd60e51b81526004016103c290610b77565b600080546040516001600160a01b03909116907f8be0079c531659141344cd1fd0a4f28419497f9722a3daafe3b4186f6b6457e0908390a3600080546001600160a01b0319169055565b6000600154600214801561078f5750600654600a54115b156107bc576107ae600b5483600a546107a89190610b56565b90610a09565b60078190556107bc906108ae565b6007546107ca908390610a09565b92915050565b33600052600e602052600c54336000818152600e60205260409081902054905163a9059cbb60e01b8152600481019290925260248201526001600160a01b039091169063a9059cbb906044016020604051808303816000875af115801561083b573d6000803e3d6000fd5b505050506040513d601f19601f8201168201806040525081019061085f9190610bac565b50336000818152600e602090815260408083208390558051938452908301919091527f47cee97cb7acd717b3c0aa1435d004cd5b3c8c57d70dbceb4e4458bbd60e39d4910160405180910390a1565b6000546001600160a01b031633146108d85760405162461bcd60e51b81526004016103c290610b77565b600755565b6000546001600160a01b031633146109075760405162461bcd60e51b81526004016103c290610b77565b6003600155565b6000546001600160a01b031633146109385760405162461bcd60e51b81526004016103c290610b77565b61064081610a1c565b6000546001600160a01b0316331461096b5760405162461bcd60e51b81526004016103c290610b77565b600080546040516001600160a01b039091169083908381818185875af1925050503d80600081146109b8576040519150601f19603f3d011682016040523d82523d6000602084013e6109bd565b606091505b5050905080610a055760405162461bcd60e51b81526020600482015260146024820152732330b4b632b2103a379039b2b7321022ba3432b960611b60448201526064016103c2565b5050565b6000610a158284610bce565b9392505050565b6001600160a01b038116610a815760405162461bcd60e51b815260206004820152602660248201527f4f776e61626c653a206e6577206f776e657220697320746865207a65726f206160448201526564647265737360d01b60648201526084016103c2565b600080546040516001600160a01b03808516939216917f8be0079c531659141344cd1fd0a4f28419497f9722a3daafe3b4186f6b6457e091a3600080546001600160a01b0319166001600160a01b0392909216919091179055565b80356001600160a01b0381168114610af357600080fd5b919050565b600060208284031215610b0a57600080fd5b610a1582610adc565b600060208284031215610b2557600080fd5b5035919050565b60008060408385031215610b3f57600080fd5b610b4883610adc565b946020939093013593505050565b808201808211156107ca57634e487b7160e01b600052601160045260246000fd5b6020808252818101527f4f776e61626c653a2063616c6c6572206973206e6f7420746865206f776e6572604082015260600190565b600060208284031215610bbe57600080fd5b81518015158114610a1557600080fd5b600082610beb57634e487b7160e01b600052601260045260246000fd5b50049056fea26469706673582212204e7d17c242ec6fa52e244e654bd5abec00888907c009b3da73e188174b5b234364736f6c63430008120033","opcodes":"PUSH1 0x80 PUSH1 0x40 MSTORE PUSH1 0x0 PUSH1 0x1 SSTORE PUSH9 0x2DF85D331A7B40000 PUSH1 0x3 SSTORE PUSH7 0x2386F26FC10000 PUSH1 0x4 SSTORE PUSH8 0x8AC7230489E80000 PUSH1 0x5 SSTORE PUSH9 0x3860E639D80640000 PUSH1 0x6 SSTORE PUSH1 0x0 PUSH1 0x8 SSTORE PUSH6 0x48C27395000 PUSH1 0x9 SSTORE PUSH1 0x0 PUSH1 0xA SSTORE PUSH6 0x48C27395000 PUSH1 0xB SSTORE CALLVALUE DUP1 ISZERO PUSH2 0x64 JUMPI PUSH1 0x0 DUP1 REVERT JUMPDEST POP PUSH1 0x40 MLOAD PUSH2 0xDCC CODESIZE SUB DUP1 PUSH2 0xDCC DUP4 CODECOPY DUP2 ADD PUSH1 0x40 DUP2 SWAP1 MSTORE PUSH2 0x83 SWAP2 PUSH2 0x142 JUMP JUMPDEST PUSH1 0x0 DUP1 SLOAD PUSH1 0x1 PUSH1 0x1 PUSH1 0xA0 SHL SUB NOT AND CALLER SWAP1 DUP2 OR DUP3 SSTORE PUSH1 0x40 MLOAD SWAP1 SWAP2 DUP3 SWAP2 PUSH32 0x8BE0079C531659141344CD1FD0A4F28419497F9722A3DAAFE3B4186F6B6457E0 SWAP1 DUP3 SWAP1 LOG3 POP PUSH2 0xDF PUSH1 0x9 SLOAD PUSH1 0x3 SLOAD PUSH2 0x113 PUSH1 0x20 SHL PUSH2 0xA09 OR SWAP1 SWAP2 SWAP1 PUSH1 0x20 SHR JUMP JUMPDEST PUSH1 0x7 SSTORE PUSH1 0xC DUP1 SLOAD PUSH1 0x1 PUSH1 0x1 PUSH1 0xA0 SHL SUB SWAP4 DUP5 AND PUSH1 0x1 PUSH1 0x1 PUSH1 0xA0 SHL SUB NOT SWAP2 DUP3 AND OR SWAP1 SWAP2 SSTORE PUSH1 0xD DUP1 SLOAD SWAP3 SWAP1 SWAP4 AND SWAP2 AND OR SWAP1 SSTORE PUSH2 0x197 JUMP JUMPDEST PUSH1 0x0 PUSH2 0x11F DUP3 DUP5 PUSH2 0x175 JUMP JUMPDEST SWAP4 SWAP3 POP POP POP JUMP JUMPDEST DUP1 MLOAD PUSH1 0x1 PUSH1 0x1 PUSH1 0xA0 SHL SUB DUP2 AND DUP2 EQ PUSH2 0x13D JUMPI PUSH1 0x0 DUP1 REVERT JUMPDEST SWAP2 SWAP1 POP JUMP JUMPDEST PUSH1 0x0 DUP1 PUSH1 0x40 DUP4 DUP6 SUB SLT ISZERO PUSH2 0x155 JUMPI PUSH1 0x0 DUP1 REVERT JUMPDEST PUSH2 0x15E DUP4 PUSH2 0x126 JUMP JUMPDEST SWAP2 POP PUSH2 0x16C PUSH1 0x20 DUP5 ADD PUSH2 0x126 JUMP JUMPDEST SWAP1 POP SWAP3 POP SWAP3 SWAP1 POP JUMP JUMPDEST PUSH1 0x0 DUP3 PUSH2 0x192 JUMPI PUSH4 0x4E487B71 PUSH1 0xE0 SHL PUSH1 0x0 MSTORE PUSH1 0x12 PUSH1 0x4 MSTORE PUSH1 0x24 PUSH1 0x0 REVERT JUMPDEST POP DIV SWAP1 JUMP JUMPDEST PUSH2 0xC26 DUP1 PUSH2 0x1A6 PUSH1 0x0 CODECOPY PUSH1 0x0 RETURN INVALID PUSH1 0x80 PUSH1 0x40 MSTORE PUSH1 0x4 CALLDATASIZE LT PUSH2 0x118 JUMPI PUSH1 0x0 CALLDATALOAD PUSH1 0xE0 SHR DUP1 PUSH4 0x98D5FDCA GT PUSH2 0xA0 JUMPI DUP1 PUSH4 0xDE8E81ED GT PUSH2 0x64 JUMPI DUP1 PUSH4 0xDE8E81ED EQ PUSH2 0x2DB JUMPI DUP1 PUSH4 0xE36B0B37 EQ PUSH2 0x2FB JUMPI DUP1 PUSH4 0xE7A6AC55 EQ PUSH2 0x310 JUMPI DUP1 PUSH4 0xF2FDE38B EQ PUSH2 0x326 JUMPI DUP1 PUSH4 0xFE96973A EQ PUSH2 0x346 JUMPI PUSH2 0x127 JUMP JUMPDEST DUP1 PUSH4 0x98D5FDCA EQ PUSH2 0x265 JUMPI DUP1 PUSH4 0xA6F2AE3A EQ PUSH2 0x127 JUMPI DUP1 PUSH4 0xAFD18916 EQ PUSH2 0x27A JUMPI DUP1 PUSH4 0xC8AAD250 EQ PUSH2 0x28F JUMPI DUP1 PUSH4 0xDDE070E8 EQ PUSH2 0x2A5 JUMPI PUSH2 0x127 JUMP JUMPDEST DUP1 PUSH4 0x715018A6 GT PUSH2 0xE7 JUMPI DUP1 PUSH4 0x715018A6 EQ PUSH2 0x1C5 JUMPI DUP1 PUSH4 0x78442876 EQ PUSH2 0x1DA JUMPI DUP1 PUSH4 0x7B7902DD EQ PUSH2 0x1F0 JUMPI DUP1 PUSH4 0x8092BE4A EQ PUSH2 0x210 JUMPI DUP1 PUSH4 0x8DA5CB5B EQ PUSH2 0x23D JUMPI PUSH2 0x127 JUMP JUMPDEST DUP1 PUSH4 0x660F1E8 EQ PUSH2 0x12F JUMPI DUP1 PUSH4 0xE3AB61D EQ PUSH2 0x16F JUMPI DUP1 PUSH4 0x1698755F EQ PUSH2 0x18F JUMPI DUP1 PUSH4 0x34AD1F32 EQ PUSH2 0x1AF JUMPI PUSH2 0x127 JUMP JUMPDEST CALLDATASIZE PUSH2 0x127 JUMPI PUSH2 0x125 PUSH2 0x366 JUMP JUMPDEST STOP JUMPDEST PUSH2 0x125 PUSH2 0x366 JUMP JUMPDEST CALLVALUE DUP1 ISZERO PUSH2 0x13B JUMPI PUSH1 0x0 DUP1 REVERT JUMPDEST POP PUSH2 0x15C PUSH2 0x14A CALLDATASIZE PUSH1 0x4 PUSH2 0xAF8 JUMP JUMPDEST PUSH1 0xE PUSH1 0x20 MSTORE PUSH1 0x0 SWAP1 DUP2 MSTORE PUSH1 0x40 SWAP1 KECCAK256 SLOAD DUP2 JUMP JUMPDEST PUSH1 0x40 MLOAD SWAP1 DUP2 MSTORE PUSH1 0x20 ADD JUMPDEST PUSH1 0x40 MLOAD DUP1 SWAP2 SUB SWAP1 RETURN JUMPDEST CALLVALUE DUP1 ISZERO PUSH2 0x17B JUMPI PUSH1 0x0 DUP1 REVERT JUMPDEST POP PUSH2 0x125 PUSH2 0x18A CALLDATASIZE PUSH1 0x4 PUSH2 0xB13 JUMP JUMPDEST PUSH2 0x5DC JUMP JUMPDEST CALLVALUE DUP1 ISZERO PUSH2 0x19B JUMPI PUSH1 0x0 DUP1 REVERT JUMPDEST POP PUSH2 0x125 PUSH2 0x1AA CALLDATASIZE PUSH1 0x4 PUSH2 0xB2C JUMP JUMPDEST PUSH2 0x643 JUMP JUMPDEST CALLVALUE DUP1 ISZERO PUSH2 0x1BB JUMPI PUSH1 0x0 DUP1 REVERT JUMPDEST POP PUSH2 0x15C PUSH1 0xB SLOAD DUP2 JUMP JUMPDEST CALLVALUE DUP1 ISZERO PUSH2 0x1D1 JUMPI PUSH1 0x0 DUP1 REVERT JUMPDEST POP PUSH2 0x125 PUSH2 0x704 JUMP JUMPDEST CALLVALUE DUP1 ISZERO PUSH2 0x1E6 JUMPI PUSH1 0x0 DUP1 REVERT JUMPDEST POP PUSH2 0x15C PUSH1 0x8 SLOAD DUP2 JUMP JUMPDEST CALLVALUE DUP1 ISZERO PUSH2 0x1FC JUMPI PUSH1 0x0 DUP1 REVERT JUMPDEST POP PUSH2 0x15C PUSH2 0x20B CALLDATASIZE PUSH1 0x4 PUSH2 0xB13 JUMP JUMPDEST PUSH2 0x778 JUMP JUMPDEST CALLVALUE DUP1 ISZERO PUSH2 0x21C JUMPI PUSH1 0x0 DUP1 REVERT JUMPDEST POP PUSH2 0x15C PUSH2 0x22B CALLDATASIZE PUSH1 0x4 PUSH2 0xAF8 JUMP JUMPDEST PUSH1 0xF PUSH1 0x20 MSTORE PUSH1 0x0 SWAP1 DUP2 MSTORE PUSH1 0x40 SWAP1 KECCAK256 SLOAD DUP2 JUMP JUMPDEST CALLVALUE DUP1 ISZERO PUSH2 0x249 JUMPI PUSH1 0x0 DUP1 REVERT JUMPDEST POP PUSH1 0x0 SLOAD PUSH1 0x40 MLOAD PUSH1 0x1 PUSH1 0x1 PUSH1 0xA0 SHL SUB SWAP1 SWAP2 AND DUP2 MSTORE PUSH1 0x20 ADD PUSH2 0x166 JUMP JUMPDEST CALLVALUE DUP1 ISZERO PUSH2 0x271 JUMPI PUSH1 0x0 DUP1 REVERT JUMPDEST POP PUSH1 0x7 SLOAD PUSH2 0x15C JUMP JUMPDEST CALLVALUE DUP1 ISZERO PUSH2 0x286 JUMPI PUSH1 0x0 DUP1 REVERT JUMPDEST POP PUSH2 0x125 PUSH2 0x7D0 JUMP JUMPDEST CALLVALUE DUP1 ISZERO PUSH2 0x29B JUMPI PUSH1 0x0 DUP1 REVERT JUMPDEST POP PUSH2 0x15C PUSH1 0x9 SLOAD DUP2 JUMP JUMPDEST CALLVALUE DUP1 ISZERO PUSH2 0x2B1 JUMPI PUSH1 0x0 DUP1 REVERT JUMPDEST POP PUSH2 0x15C PUSH2 0x2C0 CALLDATASIZE PUSH1 0x4 PUSH2 0xAF8 JUMP JUMPDEST PUSH1 0x1 PUSH1 0x1 PUSH1 0xA0 SHL SUB AND PUSH1 0x0 SWAP1 DUP2 MSTORE PUSH1 0xE PUSH1 0x20 MSTORE PUSH1 0x40 SWAP1 KECCAK256 SLOAD SWAP1 JUMP JUMPDEST CALLVALUE DUP1 ISZERO PUSH2 0x2E7 JUMPI PUSH1 0x0 DUP1 REVERT JUMPDEST POP PUSH2 0x125 PUSH2 0x2F6 CALLDATASIZE PUSH1 0x4 PUSH2 0xB13 JUMP JUMPDEST PUSH2 0x8AE JUMP JUMPDEST CALLVALUE DUP1 ISZERO PUSH2 0x307 JUMPI PUSH1 0x0 DUP1 REVERT JUMPDEST POP PUSH2 0x125 PUSH2 0x8DD JUMP JUMPDEST CALLVALUE DUP1 ISZERO PUSH2 0x31C JUMPI PUSH1 0x0 DUP1 REVERT JUMPDEST POP PUSH2 0x15C PUSH1 0xA SLOAD DUP2 JUMP JUMPDEST CALLVALUE DUP1 ISZERO PUSH2 0x332 JUMPI PUSH1 0x0 DUP1 REVERT JUMPDEST POP PUSH2 0x125 PUSH2 0x341 CALLDATASIZE PUSH1 0x4 PUSH2 0xAF8 JUMP JUMPDEST PUSH2 0x90E JUMP JUMPDEST CALLVALUE DUP1 ISZERO PUSH2 0x352 JUMPI PUSH1 0x0 DUP1 REVERT JUMPDEST POP PUSH2 0x125 PUSH2 0x361 CALLDATASIZE PUSH1 0x4 PUSH2 0xB13 JUMP JUMPDEST PUSH2 0x941 JUMP JUMPDEST PUSH1 0x0 PUSH1 0x1 SLOAD GT DUP1 ISZERO PUSH2 0x37A JUMPI POP PUSH1 0x3 PUSH1 0x1 SLOAD LT JUMPDEST PUSH2 0x3CB JUMPI PUSH1 0x40 MLOAD PUSH3 0x461BCD PUSH1 0xE5 SHL DUP2 MSTORE PUSH1 0x20 PUSH1 0x4 DUP3 ADD MSTORE PUSH1 0x17 PUSH1 0x24 DUP3 ADD MSTORE PUSH32 0x4E6F7420616C6C6F77656420746F20627579206E6F772E000000000000000000 PUSH1 0x44 DUP3 ADD MSTORE PUSH1 0x64 ADD JUMPDEST PUSH1 0x40 MLOAD DUP1 SWAP2 SUB SWAP1 REVERT JUMPDEST PUSH1 0x1 SLOAD PUSH1 0x1 SUB PUSH2 0x4AA JUMPI CALLER PUSH1 0x0 SWAP1 DUP2 MSTORE PUSH1 0xF PUSH1 0x20 MSTORE PUSH1 0x40 SWAP1 KECCAK256 SLOAD PUSH2 0x3F0 SWAP1 CALLVALUE SWAP1 PUSH2 0xB56 JUMP JUMPDEST PUSH1 0x5 SLOAD LT ISZERO DUP1 ISZERO PUSH2 0x41D JUMPI POP PUSH1 0x4 SLOAD CALLER PUSH1 0x0 SWAP1 DUP2 MSTORE PUSH1 0xF PUSH1 0x20 MSTORE PUSH1 0x40 SWAP1 KECCAK256 SLOAD PUSH2 0x41A SWAP1 CALLVALUE SWAP1 PUSH2 0xB56 JUMP JUMPDEST LT ISZERO JUMPDEST DUP1 ISZERO PUSH2 0x438 JUMPI POP CALLER PUSH1 0x0 SWAP1 DUP2 MSTORE PUSH1 0x2 PUSH1 0x20 MSTORE PUSH1 0x40 SWAP1 KECCAK256 SLOAD PUSH1 0xFF AND JUMPDEST PUSH2 0x4AA JUMPI PUSH1 0x40 MLOAD PUSH3 0x461BCD PUSH1 0xE5 SHL DUP2 MSTORE PUSH1 0x20 PUSH1 0x4 DUP3 ADD MSTORE PUSH1 0x3D PUSH1 0x24 DUP3 ADD MSTORE PUSH32 0x416D6F756E7420697320616C6C6F77656420302E30312065746820746F203130 PUSH1 0x44 DUP3 ADD MSTORE PUSH32 0x2065746820666F72206F6E6C79206C697374656420616464726573732E000000 PUSH1 0x64 DUP3 ADD MSTORE PUSH1 0x84 ADD PUSH2 0x3C2 JUMP JUMPDEST PUSH1 0x0 PUSH2 0x4B5 CALLVALUE PUSH2 0x778 JUMP JUMPDEST SWAP1 POP PUSH1 0x1 SLOAD PUSH1 0x1 SUB PUSH2 0x4DE JUMPI CALLVALUE PUSH1 0x8 PUSH1 0x0 DUP3 DUP3 SLOAD PUSH2 0x4D3 SWAP2 SWAP1 PUSH2 0xB56 JUMP JUMPDEST SWAP1 SWAP2 SSTORE POP PUSH2 0x4F6 SWAP1 POP JUMP JUMPDEST CALLVALUE PUSH1 0xA PUSH1 0x0 DUP3 DUP3 SLOAD PUSH2 0x4F0 SWAP2 SWAP1 PUSH2 0xB56 JUMP JUMPDEST SWAP1 SWAP2 SSTORE POP POP JUMPDEST PUSH1 0x0 DUP1 SLOAD PUSH1 0x40 MLOAD PUSH1 0x1 PUSH1 0x1 PUSH1 0xA0 SHL SUB SWAP1 SWAP2 AND SWAP1 CALLVALUE SWAP1 DUP4 DUP2 DUP2 DUP2 DUP6 DUP8 GAS CALL SWAP3 POP POP POP RETURNDATASIZE DUP1 PUSH1 0x0 DUP2 EQ PUSH2 0x543 JUMPI PUSH1 0x40 MLOAD SWAP2 POP PUSH1 0x1F NOT PUSH1 0x3F RETURNDATASIZE ADD AND DUP3 ADD PUSH1 0x40 MSTORE RETURNDATASIZE DUP3 MSTORE RETURNDATASIZE PUSH1 0x0 PUSH1 0x20 DUP5 ADD RETURNDATACOPY PUSH2 0x548 JUMP JUMPDEST PUSH1 0x60 SWAP2 POP JUMPDEST POP POP SWAP1 POP DUP1 PUSH2 0x590 JUMPI PUSH1 0x40 MLOAD PUSH3 0x461BCD PUSH1 0xE5 SHL DUP2 MSTORE PUSH1 0x20 PUSH1 0x4 DUP3 ADD MSTORE PUSH1 0x14 PUSH1 0x24 DUP3 ADD MSTORE PUSH20 0x2330B4B632B2103A379039B2B7321022BA3432B9 PUSH1 0x61 SHL PUSH1 0x44 DUP3 ADD MSTORE PUSH1 0x64 ADD PUSH2 0x3C2 JUMP JUMPDEST CALLER PUSH1 0x0 SWAP1 DUP2 MSTORE PUSH1 0xE PUSH1 0x20 MSTORE PUSH1 0x40 DUP2 KECCAK256 DUP1 SLOAD DUP5 SWAP3 SWAP1 PUSH2 0x5AF SWAP1 DUP5 SWAP1 PUSH2 0xB56 JUMP JUMPDEST SWAP1 SWAP2 SSTORE POP POP CALLER PUSH1 0x0 SWAP1 DUP2 MSTORE PUSH1 0xF PUSH1 0x20 MSTORE PUSH1 0x40 DUP2 KECCAK256 DUP1 SLOAD CALLVALUE SWAP3 SWAP1 PUSH2 0x5D3 SWAP1 DUP5 SWAP1 PUSH2 0xB56 JUMP JUMPDEST SWAP1 SWAP2 SSTORE POP POP POP POP JUMP JUMPDEST PUSH1 0x0 SLOAD PUSH1 0x1 PUSH1 0x1 PUSH1 0xA0 SHL SUB AND CALLER EQ PUSH2 0x606 JUMPI PUSH1 0x40 MLOAD PUSH3 0x461BCD PUSH1 0xE5 SHL DUP2 MSTORE PUSH1 0x4 ADD PUSH2 0x3C2 SWAP1 PUSH2 0xB77 JUMP JUMPDEST PUSH1 0x1 DUP2 DUP2 SSTORE DUP2 SWAP1 SUB PUSH2 0x627 JUMPI PUSH1 0x9 SLOAD PUSH1 0x3 SLOAD PUSH2 0x621 SWAP2 PUSH2 0xA09 JUMP JUMPDEST PUSH1 0x7 SSTORE POP JUMP JUMPDEST PUSH1 0x1 SLOAD PUSH1 0x2 SUB PUSH2 0x640 JUMPI PUSH1 0xB SLOAD PUSH1 0x6 SLOAD PUSH2 0x621 SWAP2 PUSH2 0xA09 JUMP JUMPDEST POP JUMP JUMPDEST PUSH1 0x0 SLOAD PUSH1 0x1 PUSH1 0x1 PUSH1 0xA0 SHL SUB AND CALLER EQ PUSH2 0x66D JUMPI PUSH1 0x40 MLOAD PUSH3 0x461BCD PUSH1 0xE5 SHL DUP2 MSTORE PUSH1 0x4 ADD PUSH2 0x3C2 SWAP1 PUSH2 0xB77 JUMP JUMPDEST DUP2 PUSH1 0x1 PUSH1 0x1 PUSH1 0xA0 SHL SUB AND PUSH4 0xA9059CBB PUSH2 0x68E PUSH1 0x0 SLOAD PUSH1 0x1 PUSH1 0x1 PUSH1 0xA0 SHL SUB AND SWAP1 JUMP JUMPDEST PUSH1 0x40 MLOAD PUSH1 0x1 PUSH1 0x1 PUSH1 0xE0 SHL SUB NOT PUSH1 0xE0 DUP5 SWAP1 SHL AND DUP2 MSTORE PUSH1 0x1 PUSH1 0x1 PUSH1 0xA0 SHL SUB SWAP1 SWAP2 AND PUSH1 0x4 DUP3 ADD MSTORE PUSH1 0x24 DUP2 ADD DUP5 SWAP1 MSTORE PUSH1 0x44 ADD PUSH1 0x20 PUSH1 0x40 MLOAD DUP1 DUP4 SUB DUP2 PUSH1 0x0 DUP8 GAS CALL ISZERO DUP1 ISZERO PUSH2 0x6DB JUMPI RETURNDATASIZE PUSH1 0x0 DUP1 RETURNDATACOPY RETURNDATASIZE PUSH1 0x0 REVERT JUMPDEST POP POP POP POP PUSH1 0x40 MLOAD RETURNDATASIZE PUSH1 0x1F NOT PUSH1 0x1F DUP3 ADD AND DUP3 ADD DUP1 PUSH1 0x40 MSTORE POP DUP2 ADD SWAP1 PUSH2 0x6FF SWAP2 SWAP1 PUSH2 0xBAC JUMP JUMPDEST POP POP POP JUMP JUMPDEST PUSH1 0x0 SLOAD PUSH1 0x1 PUSH1 0x1 PUSH1 0xA0 SHL SUB AND CALLER EQ PUSH2 0x72E JUMPI PUSH1 0x40 MLOAD PUSH3 0x461BCD PUSH1 0xE5 SHL DUP2 MSTORE PUSH1 0x4 ADD PUSH2 0x3C2 SWAP1 PUSH2 0xB77 JUMP JUMPDEST PUSH1 0x0 DUP1 SLOAD PUSH1 0x40 MLOAD PUSH1 0x1 PUSH1 0x1 PUSH1 0xA0 SHL SUB SWAP1 SWAP2 AND SWAP1 PUSH32 0x8BE0079C531659141344CD1FD0A4F28419497F9722A3DAAFE3B4186F6B6457E0 SWAP1 DUP4 SWAP1 LOG3 PUSH1 0x0 DUP1 SLOAD PUSH1 0x1 PUSH1 0x1 PUSH1 0xA0 SHL SUB NOT AND SWAP1 SSTORE JUMP JUMPDEST PUSH1 0x0 PUSH1 0x1 SLOAD PUSH1 0x2 EQ DUP1 ISZERO PUSH2 0x78F JUMPI POP PUSH1 0x6 SLOAD PUSH1 0xA SLOAD GT JUMPDEST ISZERO PUSH2 0x7BC JUMPI PUSH2 0x7AE PUSH1 0xB SLOAD DUP4 PUSH1 0xA SLOAD PUSH2 0x7A8 SWAP2 SWAP1 PUSH2 0xB56 JUMP JUMPDEST SWAP1 PUSH2 0xA09 JUMP JUMPDEST PUSH1 0x7 DUP2 SWAP1 SSTORE PUSH2 0x7BC SWAP1 PUSH2 0x8AE JUMP JUMPDEST PUSH1 0x7 SLOAD PUSH2 0x7CA SWAP1 DUP4 SWAP1 PUSH2 0xA09 JUMP JUMPDEST SWAP3 SWAP2 POP POP JUMP JUMPDEST CALLER PUSH1 0x0 MSTORE PUSH1 0xE PUSH1 0x20 MSTORE PUSH1 0xC SLOAD CALLER PUSH1 0x0 DUP2 DUP2 MSTORE PUSH1 0xE PUSH1 0x20 MSTORE PUSH1 0x40 SWAP1 DUP2 SWAP1 KECCAK256 SLOAD SWAP1 MLOAD PUSH4 0xA9059CBB PUSH1 0xE0 SHL DUP2 MSTORE PUSH1 0x4 DUP2 ADD SWAP3 SWAP1 SWAP3 MSTORE PUSH1 0x24 DUP3 ADD MSTORE PUSH1 0x1 PUSH1 0x1 PUSH1 0xA0 SHL SUB SWAP1 SWAP2 AND SWAP1 PUSH4 0xA9059CBB SWAP1 PUSH1 0x44 ADD PUSH1 0x20 PUSH1 0x40 MLOAD DUP1 DUP4 SUB DUP2 PUSH1 0x0 DUP8 GAS CALL ISZERO DUP1 ISZERO PUSH2 0x83B JUMPI RETURNDATASIZE PUSH1 0x0 DUP1 RETURNDATACOPY RETURNDATASIZE PUSH1 0x0 REVERT JUMPDEST POP POP POP POP PUSH1 0x40 MLOAD RETURNDATASIZE PUSH1 0x1F NOT PUSH1 0x1F DUP3 ADD AND DUP3 ADD DUP1 PUSH1 0x40 MSTORE POP DUP2 ADD SWAP1 PUSH2 0x85F SWAP2 SWAP1 PUSH2 0xBAC JUMP JUMPDEST POP CALLER PUSH1 0x0 DUP2 DUP2 MSTORE PUSH1 0xE PUSH1 0x20 SWAP1 DUP2 MSTORE PUSH1 0x40 DUP1 DUP4 KECCAK256 DUP4 SWAP1 SSTORE DUP1 MLOAD SWAP4 DUP5 MSTORE SWAP1 DUP4 ADD SWAP2 SWAP1 SWAP2 MSTORE PUSH32 0x47CEE97CB7ACD717B3C0AA1435D004CD5B3C8C57D70DBCEB4E4458BBD60E39D4 SWAP2 ADD PUSH1 0x40 MLOAD DUP1 SWAP2 SUB SWAP1 LOG1 JUMP JUMPDEST PUSH1 0x0 SLOAD PUSH1 0x1 PUSH1 0x1 PUSH1 0xA0 SHL SUB AND CALLER EQ PUSH2 0x8D8 JUMPI PUSH1 0x40 MLOAD PUSH3 0x461BCD PUSH1 0xE5 SHL DUP2 MSTORE PUSH1 0x4 ADD PUSH2 0x3C2 SWAP1 PUSH2 0xB77 JUMP JUMPDEST PUSH1 0x7 SSTORE JUMP JUMPDEST PUSH1 0x0 SLOAD PUSH1 0x1 PUSH1 0x1 PUSH1 0xA0 SHL SUB AND CALLER EQ PUSH2 0x907 JUMPI PUSH1 0x40 MLOAD PUSH3 0x461BCD PUSH1 0xE5 SHL DUP2 MSTORE PUSH1 0x4 ADD PUSH2 0x3C2 SWAP1 PUSH2 0xB77 JUMP JUMPDEST PUSH1 0x3 PUSH1 0x1 SSTORE JUMP JUMPDEST PUSH1 0x0 SLOAD PUSH1 0x1 PUSH1 0x1 PUSH1 0xA0 SHL SUB AND CALLER EQ PUSH2 0x938 JUMPI PUSH1 0x40 MLOAD PUSH3 0x461BCD PUSH1 0xE5 SHL DUP2 MSTORE PUSH1 0x4 ADD PUSH2 0x3C2 SWAP1 PUSH2 0xB77 JUMP JUMPDEST PUSH2 0x640 DUP2 PUSH2 0xA1C JUMP JUMPDEST PUSH1 0x0 SLOAD PUSH1 0x1 PUSH1 0x1 PUSH1 0xA0 SHL SUB AND CALLER EQ PUSH2 0x96B JUMPI PUSH1 0x40 MLOAD PUSH3 0x461BCD PUSH1 0xE5 SHL DUP2 MSTORE PUSH1 0x4 ADD PUSH2 0x3C2 SWAP1 PUSH2 0xB77 JUMP JUMPDEST PUSH1 0x0 DUP1 SLOAD PUSH1 0x40 MLOAD PUSH1 0x1 PUSH1 0x1 PUSH1 0xA0 SHL SUB SWAP1 SWAP2 AND SWAP1 DUP4 SWAP1 DUP4 DUP2 DUP2 DUP2 DUP6 DUP8 GAS CALL SWAP3 POP POP POP RETURNDATASIZE DUP1 PUSH1 0x0 DUP2 EQ PUSH2 0x9B8 JUMPI PUSH1 0x40 MLOAD SWAP2 POP PUSH1 0x1F NOT PUSH1 0x3F RETURNDATASIZE ADD AND DUP3 ADD PUSH1 0x40 MSTORE RETURNDATASIZE DUP3 MSTORE RETURNDATASIZE PUSH1 0x0 PUSH1 0x20 DUP5 ADD RETURNDATACOPY PUSH2 0x9BD JUMP JUMPDEST PUSH1 0x60 SWAP2 POP JUMPDEST POP POP SWAP1 POP DUP1 PUSH2 0xA05 JUMPI PUSH1 0x40 MLOAD PUSH3 0x461BCD PUSH1 0xE5 SHL DUP2 MSTORE PUSH1 0x20 PUSH1 0x4 DUP3 ADD MSTORE PUSH1 0x14 PUSH1 0x24 DUP3 ADD MSTORE PUSH20 0x2330B4B632B2103A379039B2B7321022BA3432B9 PUSH1 0x61 SHL PUSH1 0x44 DUP3 ADD MSTORE PUSH1 0x64 ADD PUSH2 0x3C2 JUMP JUMPDEST POP POP JUMP JUMPDEST PUSH1 0x0 PUSH2 0xA15 DUP3 DUP5 PUSH2 0xBCE JUMP JUMPDEST SWAP4 SWAP3 POP POP POP JUMP JUMPDEST PUSH1 0x1 PUSH1 0x1 PUSH1 0xA0 SHL SUB DUP2 AND PUSH2 0xA81 JUMPI PUSH1 0x40 MLOAD PUSH3 0x461BCD PUSH1 0xE5 SHL DUP2 MSTORE PUSH1 0x20 PUSH1 0x4 DUP3 ADD MSTORE PUSH1 0x26 PUSH1 0x24 DUP3 ADD MSTORE PUSH32 0x4F776E61626C653A206E6577206F776E657220697320746865207A65726F2061 PUSH1 0x44 DUP3 ADD MSTORE PUSH6 0x646472657373 PUSH1 0xD0 SHL PUSH1 0x64 DUP3 ADD MSTORE PUSH1 0x84 ADD PUSH2 0x3C2 JUMP JUMPDEST PUSH1 0x0 DUP1 SLOAD PUSH1 0x40 MLOAD PUSH1 0x1 PUSH1 0x1 PUSH1 0xA0 SHL SUB DUP1 DUP6 AND SWAP4 SWAP3 AND SWAP2 PUSH32 0x8BE0079C531659141344CD1FD0A4F28419497F9722A3DAAFE3B4186F6B6457E0 SWAP2 LOG3 PUSH1 0x0 DUP1 SLOAD PUSH1 0x1 PUSH1 0x1 PUSH1 0xA0 SHL SUB NOT AND PUSH1 0x1 PUSH1 0x1 PUSH1 0xA0 SHL SUB SWAP3 SWAP1 SWAP3 AND SWAP2 SWAP1 SWAP2 OR SWAP1 SSTORE JUMP JUMPDEST DUP1 CALLDATALOAD PUSH1 0x1 PUSH1 0x1 PUSH1 0xA0 SHL SUB DUP2 AND DUP2 EQ PUSH2 0xAF3 JUMPI PUSH1 0x0 DUP1 REVERT JUMPDEST SWAP2 SWAP1 POP JUMP JUMPDEST PUSH1 0x0 PUSH1 0x20 DUP3 DUP5 SUB SLT ISZERO PUSH2 0xB0A JUMPI PUSH1 0x0 DUP1 REVERT JUMPDEST PUSH2 0xA15 DUP3 PUSH2 0xADC JUMP JUMPDEST PUSH1 0x0 PUSH1 0x20 DUP3 DUP5 SUB SLT ISZERO PUSH2 0xB25 JUMPI PUSH1 0x0 DUP1 REVERT JUMPDEST POP CALLDATALOAD SWAP2 SWAP1 POP JUMP JUMPDEST PUSH1 0x0 DUP1 PUSH1 0x40 DUP4 DUP6 SUB SLT ISZERO PUSH2 0xB3F JUMPI PUSH1 0x0 DUP1 REVERT JUMPDEST PUSH2 0xB48 DUP4 PUSH2 0xADC JUMP JUMPDEST SWAP5 PUSH1 0x20 SWAP4 SWAP1 SWAP4 ADD CALLDATALOAD SWAP4 POP POP POP JUMP JUMPDEST DUP1 DUP3 ADD DUP1 DUP3 GT ISZERO PUSH2 0x7CA JUMPI PUSH4 0x4E487B71 PUSH1 0xE0 SHL PUSH1 0x0 MSTORE PUSH1 0x11 PUSH1 0x4 MSTORE PUSH1 0x24 PUSH1 0x0 REVERT JUMPDEST PUSH1 0x20 DUP1 DUP3 MSTORE DUP2 DUP2 ADD MSTORE PUSH32 0x4F776E61626C653A2063616C6C6572206973206E6F7420746865206F776E6572 PUSH1 0x40 DUP3 ADD MSTORE PUSH1 0x60 ADD SWAP1 JUMP JUMPDEST PUSH1 0x0 PUSH1 0x20 DUP3 DUP5 SUB SLT ISZERO PUSH2 0xBBE JUMPI PUSH1 0x0 DUP1 REVERT JUMPDEST DUP2 MLOAD DUP1 ISZERO ISZERO DUP2 EQ PUSH2 0xA15 JUMPI PUSH1 0x0 DUP1 REVERT JUMPDEST PUSH1 0x0 DUP3 PUSH2 0xBEB JUMPI PUSH4 0x4E487B71 PUSH1 0xE0 SHL PUSH1 0x0 MSTORE PUSH1 0x12 PUSH1 0x4 MSTORE PUSH1 0x24 PUSH1 0x0 REVERT JUMPDEST POP DIV SWAP1 JUMP INVALID LOG2 PUSH5 0x6970667358 0x22 SLT KECCAK256 0x4E PUSH30 0x17C242EC6FA52E244E654BD5ABEC00888907C009B3DA73E188174B5B2343 PUSH5 0x736F6C6343 STOP ADDMOD SLT STOP CALLER "},"gasEstimates":{"creation":{"codeDepositCost":"622000","executionCost":"infinite","totalCost":"infinite"},"external":{"":"infinite","buy()":"infinite","calcTokenAmount(uint256)":"infinite","claimETH(uint256)":"infinite","claimRewardToken()":"infinite","claimToken(address,uint256)":"infinite","getClaimAmount(address)":"2637","getPrice()":"2304","owner()":"2412","privateSaleAllocation()":"2373","privateSaleTotalSaled()":"2329","publicSaleAllocation()":"2374","publicSaleTotalSaled()":"2350","renounceOwnership()":"30188","resetPrice(uint256)":"24486","startSale(uint256)":"53074","stopSale()":"24434","transferOwnership(address)":"30517","userDeposited(address)":"2597","userRewards(address)":"2532"}},"methodIdentifiers":{"buy()":"a6f2ae3a","calcTokenAmount(uint256)":"7b7902dd","claimETH(uint256)":"fe96973a","claimRewardToken()":"afd18916","claimToken(address,uint256)":"1698755f","getClaimAmount(address)":"dde070e8","getPrice()":"98d5fdca","owner()":"8da5cb5b","privateSaleAllocation()":"c8aad250","privateSaleTotalSaled()":"78442876","publicSaleAllocation()":"34ad1f32","publicSaleTotalSaled()":"e7a6ac55","renounceOwnership()":"715018a6","resetPrice(uint256)":"de8e81ed","startSale(uint256)":"0e3ab61d","stopSale()":"e36b0b37","transferOwnership(address)":"f2fde38b","userDeposited(address)":"8092be4a","userRewards(address)":"0660f1e8"}},"storageLayout":{"storage":[{"astId":1370,"contract":"contracts/IDO.sol:IDO","label":"_owner","offset":0,"slot":"0","type":"t_address"},{"astId":1481,"contract":"contracts/IDO.sol:IDO","label":"saleIndex","offset":0,"slot":"1","type":"t_uint256"},{"astId":1555,"contract":"contracts/IDO.sol:IDO","label":"whitelistCheck","offset":0,"slot":"2","type":"t_mapping(t_address,t_bool)"},{"astId":1560,"contract":"contracts/IDO.sol:IDO","label":"privateSaleHardcap","offset":0,"slot":"3","type":"t_uint256"},{"astId":1563,"contract":"contracts/IDO.sol:IDO","label":"minETHAmount","offset":0,"slot":"4","type":"t_uint256"},{"astId":1566,"contract":"contracts/IDO.sol:IDO","label":"maxETHAmount","offset":0,"slot":"5","type":"t_uint256"},{"astId":1571,"contract":"contracts/IDO.sol:IDO","label":"publicSaleHardcap","offset":0,"slot":"6","type":"t_uint256"},{"astId":1573,"contract":"contracts/IDO.sol:IDO","label":"tokenPrice","offset":0,"slot":"7","type":"t_uint256"},{"astId":1576,"contract":"contracts/IDO.sol:IDO","label":"privateSaleTotalSaled","offset":0,"slot":"8","type":"t_uint256"},{"astId":1581,"contract":"contracts/IDO.sol:IDO","label":"privateSaleAllocation","offset":0,"slot":"9","type":"t_uint256"},{"astId":1584,"contract":"contracts/IDO.sol:IDO","label":"publicSaleTotalSaled","offset":0,"slot":"10","type":"t_uint256"},{"astId":1589,"contract":"contracts/IDO.sol:IDO","label":"publicSaleAllocation","offset":0,"slot":"11","type":"t_uint256"},{"astId":1591,"contract":"contracts/IDO.sol:IDO","label":"rewardAddress","offset":0,"slot":"12","type":"t_address"},{"astId":1593,"contract":"contracts/IDO.sol:IDO","label":"usdtAddress","offset":0,"slot":"13","type":"t_address"},{"astId":1597,"contract":"contracts/IDO.sol:IDO","label":"userRewards","offset":0,"slot":"14","type":"t_mapping(t_address,t_uint256)"},{"astId":1601,"contract":"contracts/IDO.sol:IDO","label":"userDeposited","offset":0,"slot":"15","type":"t_mapping(t_address,t_uint256)"}],"types":{"t_address":{"encoding":"inplace","label":"address","numberOfBytes":"20"},"t_bool":{"encoding":"inplace","label":"bool","numberOfBytes":"1"},"t_mapping(t_address,t_bool)":{"encoding":"mapping","key":"t_address","label":"mapping(address => bool)","numberOfBytes":"32","value":"t_bool"},"t_mapping(t_address,t_uint256)":{"encoding":"mapping","key":"t_address","label":"mapping(address => uint256)","numberOfBytes":"32","value":"t_uint256"},"t_uint256":{"encoding":"inplace","label":"uint256","numberOfBytes":"32"}}},"userdoc":{"kind":"user","methods":{},"version":1}}}}