{"contracts/IDO.sol":{"IDO":{"abi":[{"inputs":[{"internalType":"address","name":"_rewardAddress","type":"address"},{"internalType":"address","name":"_usdtAddress","type":"address"}],"stateMutability":"nonpayable","type":"constructor"},{"anonymous":false,"inputs":[{"indexed":false,"internalType":"address","name":"to","type":"address"},{"indexed":false,"internalType":"uint256","name":"amount","type":"uint256"}],"name":"Buy","type":"event"},{"anonymous":false,"inputs":[{"indexed":false,"internalType":"address","name":"to","type":"address"},{"indexed":false,"internalType":"uint256","name":"amount","type":"uint256"}],"name":"Claim","type":"event"},{"anonymous":false,"inputs":[{"indexed":true,"internalType":"address","name":"previousOwner","type":"address"},{"indexed":true,"internalType":"address","name":"newOwner","type":"address"}],"name":"OwnershipTransferred","type":"event"},{"stateMutability":"payable","type":"fallback"},{"inputs":[],"name":"baseDecimal","outputs":[{"internalType":"uint256","name":"","type":"uint256"}],"stateMutability":"view","type":"function"},{"inputs":[{"internalType":"uint256","name":"usdtAmount","type":"uint256"}],"name":"buyWithUSDT","outputs":[{"internalType":"bool","name":"","type":"bool"}],"stateMutability":"nonpayable","type":"function"},{"inputs":[{"internalType":"uint256","name":"usdAmount","type":"uint256"}],"name":"calcTokenAmount","outputs":[{"internalType":"uint256","name":"amount","type":"uint256"}],"stateMutability":"nonpayable","type":"function"},{"inputs":[{"internalType":"uint256","name":"amount","type":"uint256"}],"name":"claimETH","outputs":[],"stateMutability":"nonpayable","type":"function"},{"inputs":[],"name":"claimRewardToken","outputs":[],"stateMutability":"nonpayable","type":"function"},{"inputs":[{"internalType":"address","name":"tokenAddress","type":"address"},{"internalType":"uint256","name":"amount","type":"uint256"}],"name":"claimToken","outputs":[],"stateMutability":"nonpayable","type":"function"},{"inputs":[{"internalType":"address","name":"userAddress","type":"address"}],"name":"getClaimAmount","outputs":[{"internalType":"uint256","name":"claimAmount","type":"uint256"}],"stateMutability":"view","type":"function"},{"inputs":[],"name":"getClaimStatus","outputs":[{"internalType":"bool","name":"","type":"bool"}],"stateMutability":"view","type":"function"},{"inputs":[],"name":"getPrice","outputs":[{"internalType":"uint256","name":"tokenPrice","type":"uint256"}],"stateMutability":"view","type":"function"},{"inputs":[],"name":"owner","outputs":[{"internalType":"address","name":"","type":"address"}],"stateMutability":"view","type":"function"},{"inputs":[],"name":"renounceOwnership","outputs":[],"stateMutability":"nonpayable","type":"function"},{"inputs":[],"name":"resetStartTime","outputs":[],"stateMutability":"nonpayable","type":"function"},{"inputs":[],"name":"startClaim","outputs":[],"stateMutability":"nonpayable","type":"function"},{"inputs":[],"name":"startTime","outputs":[{"internalType":"uint256","name":"","type":"uint256"}],"stateMutability":"view","type":"function"},{"inputs":[],"name":"stopClaim","outputs":[],"stateMutability":"nonpayable","type":"function"},{"inputs":[],"name":"totalSaled","outputs":[{"internalType":"uint256","name":"","type":"uint256"}],"stateMutability":"view","type":"function"},{"inputs":[{"internalType":"address","name":"newOwner","type":"address"}],"name":"transferOwnership","outputs":[],"stateMutability":"nonpayable","type":"function"},{"inputs":[],"name":"usdtTotalSaled","outputs":[{"internalType":"uint256","name":"","type":"uint256"}],"stateMutability":"view","type":"function"},{"inputs":[{"internalType":"address","name":"","type":"address"}],"name":"userDeposited","outputs":[{"internalType":"uint256","name":"","type":"uint256"}],"stateMutability":"view","type":"function"},{"inputs":[{"internalType":"address","name":"","type":"address"}],"name":"userRewards","outputs":[{"internalType":"uint256","name":"","type":"uint256"}],"stateMutability":"view","type":"function"},{"stateMutability":"payable","type":"receive"}],"devdoc":{"kind":"dev","methods":{},"version":1},"evm":{"bytecode":{"linkReferences":{},"object":"60806040526000805460ff60a01b1916905562030d406001556305f5e10060025560646003556103e8600455620f424060095534801561003e57600080fd5b5060405162000e3238038062000e3283398101604081905261005f91610137565b600080546001600160a01b031916339081178255604051909182917f8be0079c531659141344cd1fd0a4f28419497f9722a3daafe3b4186f6b6457e0908290a3504260065560006007556002546009546001546100d292916100c09161016a565b61010660201b610a351790919060201c565b600555600a80546001600160a01b039384166001600160a01b031991821617909155600b80549290931691161790556101b1565b6000610112828461018f565b90505b92915050565b80516001600160a01b038116811461013257600080fd5b919050565b6000806040838503121561014a57600080fd5b6101538361011b565b91506101616020840161011b565b90509250929050565b808202811582820484141761011557634e487b7160e01b600052601160045260246000fd5b6000826101ac57634e487b7160e01b600052601260045260246000fd5b500490565b610c7180620001c16000396000f3fe6080604052600436106101175760003560e01c8063a7c601601161009a578063ecbfc07711610061578063ecbfc0771461030d578063f2fde38b14610322578063f42958be14610342578063fe96973a14610357578063ff6c9bc91461037757005b8063a7c6016014610276578063afd1891614610296578063db7b373e146102ab578063dc13f7b5146102c1578063dde070e8146102d757005b80637b7902dd116100de5780637b7902dd146101c15780638092be4a146101e15780638da5cb5b1461020e57806398d5fdca146102365780639b77c21a1461024b57005b80630660f1e8146101205780631698755f1461016057806368e453ed14610180578063715018a61461019657806378e97925146101ab57005b3661011e57005b005b34801561012c57600080fd5b5061014d61013b366004610b24565b600c6020526000908152604090205481565b6040519081526020015b60405180910390f35b34801561016c57600080fd5b5061011e61017b366004610b3f565b61038c565b34801561018c57600080fd5b5061014d60075481565b3480156101a257600080fd5b5061011e610456565b3480156101b757600080fd5b5061014d60065481565b3480156101cd57600080fd5b5061014d6101dc366004610b69565b6104ca565b3480156101ed57600080fd5b5061014d6101fc366004610b24565b600d6020526000908152604090205481565b34801561021a57600080fd5b506000546040516001600160a01b039091168152602001610157565b34801561024257600080fd5b5060055461014d565b34801561025757600080fd5b50600054600160a01b900460ff165b6040519015158152602001610157565b34801561028257600080fd5b50610266610291366004610b69565b610527565b3480156102a257600080fd5b5061011e6107b1565b3480156102b757600080fd5b5061014d60095481565b3480156102cd57600080fd5b5061014d60085481565b3480156102e357600080fd5b5061014d6102f2366004610b24565b6001600160a01b03166000908152600c602052604090205490565b34801561031957600080fd5b5061011e61088f565b34801561032e57600080fd5b5061011e61033d366004610b24565b6108ce565b34801561034e57600080fd5b5061011e610904565b34801561036357600080fd5b5061011e610372366004610b69565b610934565b34801561038357600080fd5b5061011e6109fc565b6000546001600160a01b031633146103bf5760405162461bcd60e51b81526004016103b690610b82565b60405180910390fd5b816001600160a01b031663a9059cbb6103e06000546001600160a01b031690565b6040516001600160e01b031960e084901b1681526001600160a01b039091166004820152602481018490526044016020604051808303816000875af115801561042d573d6000803e3d6000fd5b505050506040513d601f19601f820116820180604052508101906104519190610bb7565b505050565b6000546001600160a01b031633146104805760405162461bcd60e51b81526004016103b690610b82565b600080546040516001600160a01b03909116907f8be0079c531659141344cd1fd0a4f28419497f9722a3daafe3b4186f6b6457e0908390a3600080546001600160a01b0319169055565b60006009546001546104dc9190610bef565b60085411156104f8576002546008546104f491610a35565b6005555b6105126005546009548461050c9190610bef565b90610a35565b6105219064e8d4a51000610bef565b92915050565b600061056660095483600d600061053b3390565b6001600160a01b03166001600160a01b031681526020019081526020016000205461050c9190610c06565b6004541015801561058a575060035461058760095484600d600061053b3390565b10155b6105d65760405162461bcd60e51b815260206004820152601d60248201527f416d6f756e7420697320616c6c6f77656420313030202d20313030302e00000060448201526064016103b6565b60006105e1836104ca565b905080600760008282546105f59190610c06565b92505081905550826008600082825461060e9190610c06565b9091555050600b546040516323b872dd60e01b8152336004820152306024820152604481018590526001600160a01b03909116906323b872dd906064016020604051808303816000875af115801561066a573d6000803e3d6000fd5b505050506040513d601f19601f8201168201806040525081019061068e9190610bb7565b6106cb5760405162461bcd60e51b815260206004820152600e60248201526d19195c1bdcda5d0819985a5b195960921b60448201526064016103b6565b336000908152600c6020526040812080548392906106ea908490610c06565b9091555050336000908152600d60205260408120805485929061070e908490610c06565b9091555050600b546001600160a01b031663a9059cbb6107366000546001600160a01b031690565b6040516001600160e01b031960e084901b1681526001600160a01b039091166004820152602481018690526044016020604051808303816000875af1158015610783573d6000803e3d6000fd5b505050506040513d601f19601f820116820180604052508101906107a79190610bb7565b5060019392505050565b33600052600c602052600a54336000818152600c60205260409081902054905163a9059cbb60e01b8152600481019290925260248201526001600160a01b039091169063a9059cbb906044016020604051808303816000875af115801561081c573d6000803e3d6000fd5b505050506040513d601f19601f820116820180604052508101906108409190610bb7565b50336000818152600c602090815260408083208390558051938452908301919091527f47cee97cb7acd717b3c0aa1435d004cd5b3c8c57d70dbceb4e4458bbd60e39d4910160405180910390a1565b6000546001600160a01b031633146108b95760405162461bcd60e51b81526004016103b690610b82565b6000805460ff60a01b1916600160a01b179055565b6000546001600160a01b031633146108f85760405162461bcd60e51b81526004016103b690610b82565b61090181610a48565b50565b6000546001600160a01b0316331461092e5760405162461bcd60e51b81526004016103b690610b82565b42600655565b6000546001600160a01b0316331461095e5760405162461bcd60e51b81526004016103b690610b82565b600080546040516001600160a01b039091169083908381818185875af1925050503d80600081146109ab576040519150601f19603f3d011682016040523d82523d6000602084013e6109b0565b606091505b50509050806109f85760405162461bcd60e51b81526020600482015260146024820152732330b4b632b2103a379039b2b7321022ba3432b960611b60448201526064016103b6565b5050565b6000546001600160a01b03163314610a265760405162461bcd60e51b81526004016103b690610b82565b6000805460ff60a01b19169055565b6000610a418284610c19565b9392505050565b6001600160a01b038116610aad5760405162461bcd60e51b815260206004820152602660248201527f4f776e61626c653a206e6577206f776e657220697320746865207a65726f206160448201526564647265737360d01b60648201526084016103b6565b600080546040516001600160a01b03808516939216917f8be0079c531659141344cd1fd0a4f28419497f9722a3daafe3b4186f6b6457e091a3600080546001600160a01b0319166001600160a01b0392909216919091179055565b80356001600160a01b0381168114610b1f57600080fd5b919050565b600060208284031215610b3657600080fd5b610a4182610b08565b60008060408385031215610b5257600080fd5b610b5b83610b08565b946020939093013593505050565b600060208284031215610b7b57600080fd5b5035919050565b6020808252818101527f4f776e61626c653a2063616c6c6572206973206e6f7420746865206f776e6572604082015260600190565b600060208284031215610bc957600080fd5b81518015158114610a4157600080fd5b634e487b7160e01b600052601160045260246000fd5b808202811582820484141761052157610521610bd9565b8082018082111561052157610521610bd9565b600082610c3657634e487b7160e01b600052601260045260246000fd5b50049056fea264697066735822122077f2bd0b4057c21554e7e2f712fef1c232ac7739f9cc8a83224f1c0fbf2c6c9964736f6c63430008120033","opcodes":"PUSH1 0x80 PUSH1 0x40 MSTORE PUSH1 0x0 DUP1 SLOAD PUSH1 0xFF PUSH1 0xA0 SHL NOT AND SWAP1 SSTORE PUSH3 0x30D40 PUSH1 0x1 SSTORE PUSH4 0x5F5E100 PUSH1 0x2 SSTORE PUSH1 0x64 PUSH1 0x3 SSTORE PUSH2 0x3E8 PUSH1 0x4 SSTORE PUSH3 0xF4240 PUSH1 0x9 SSTORE CALLVALUE DUP1 ISZERO PUSH2 0x3E JUMPI PUSH1 0x0 DUP1 REVERT JUMPDEST POP PUSH1 0x40 MLOAD PUSH3 0xE32 CODESIZE SUB DUP1 PUSH3 0xE32 DUP4 CODECOPY DUP2 ADD PUSH1 0x40 DUP2 SWAP1 MSTORE PUSH2 0x5F SWAP2 PUSH2 0x137 JUMP JUMPDEST PUSH1 0x0 DUP1 SLOAD PUSH1 0x1 PUSH1 0x1 PUSH1 0xA0 SHL SUB NOT AND CALLER SWAP1 DUP2 OR DUP3 SSTORE PUSH1 0x40 MLOAD SWAP1 SWAP2 DUP3 SWAP2 PUSH32 0x8BE0079C531659141344CD1FD0A4F28419497F9722A3DAAFE3B4186F6B6457E0 SWAP1 DUP3 SWAP1 LOG3 POP TIMESTAMP PUSH1 0x6 SSTORE PUSH1 0x0 PUSH1 0x7 SSTORE PUSH1 0x2 SLOAD PUSH1 0x9 SLOAD PUSH1 0x1 SLOAD PUSH2 0xD2 SWAP3 SWAP2 PUSH2 0xC0 SWAP2 PUSH2 0x16A JUMP JUMPDEST PUSH2 0x106 PUSH1 0x20 SHL PUSH2 0xA35 OR SWAP1 SWAP2 SWAP1 PUSH1 0x20 SHR JUMP JUMPDEST PUSH1 0x5 SSTORE PUSH1 0xA DUP1 SLOAD PUSH1 0x1 PUSH1 0x1 PUSH1 0xA0 SHL SUB SWAP4 DUP5 AND PUSH1 0x1 PUSH1 0x1 PUSH1 0xA0 SHL SUB NOT SWAP2 DUP3 AND OR SWAP1 SWAP2 SSTORE PUSH1 0xB DUP1 SLOAD SWAP3 SWAP1 SWAP4 AND SWAP2 AND OR SWAP1 SSTORE PUSH2 0x1B1 JUMP JUMPDEST PUSH1 0x0 PUSH2 0x112 DUP3 DUP5 PUSH2 0x18F JUMP JUMPDEST SWAP1 POP JUMPDEST SWAP3 SWAP2 POP POP JUMP JUMPDEST DUP1 MLOAD PUSH1 0x1 PUSH1 0x1 PUSH1 0xA0 SHL SUB DUP2 AND DUP2 EQ PUSH2 0x132 JUMPI PUSH1 0x0 DUP1 REVERT JUMPDEST SWAP2 SWAP1 POP JUMP JUMPDEST PUSH1 0x0 DUP1 PUSH1 0x40 DUP4 DUP6 SUB SLT ISZERO PUSH2 0x14A JUMPI PUSH1 0x0 DUP1 REVERT JUMPDEST PUSH2 0x153 DUP4 PUSH2 0x11B JUMP JUMPDEST SWAP2 POP PUSH2 0x161 PUSH1 0x20 DUP5 ADD PUSH2 0x11B JUMP JUMPDEST SWAP1 POP SWAP3 POP SWAP3 SWAP1 POP JUMP JUMPDEST DUP1 DUP3 MUL DUP2 ISZERO DUP3 DUP3 DIV DUP5 EQ OR PUSH2 0x115 JUMPI PUSH4 0x4E487B71 PUSH1 0xE0 SHL PUSH1 0x0 MSTORE PUSH1 0x11 PUSH1 0x4 MSTORE PUSH1 0x24 PUSH1 0x0 REVERT JUMPDEST PUSH1 0x0 DUP3 PUSH2 0x1AC JUMPI PUSH4 0x4E487B71 PUSH1 0xE0 SHL PUSH1 0x0 MSTORE PUSH1 0x12 PUSH1 0x4 MSTORE PUSH1 0x24 PUSH1 0x0 REVERT JUMPDEST POP DIV SWAP1 JUMP JUMPDEST PUSH2 0xC71 DUP1 PUSH3 0x1C1 PUSH1 0x0 CODECOPY PUSH1 0x0 RETURN INVALID PUSH1 0x80 PUSH1 0x40 MSTORE PUSH1 0x4 CALLDATASIZE LT PUSH2 0x117 JUMPI PUSH1 0x0 CALLDATALOAD PUSH1 0xE0 SHR DUP1 PUSH4 0xA7C60160 GT PUSH2 0x9A JUMPI DUP1 PUSH4 0xECBFC077 GT PUSH2 0x61 JUMPI DUP1 PUSH4 0xECBFC077 EQ PUSH2 0x30D JUMPI DUP1 PUSH4 0xF2FDE38B EQ PUSH2 0x322 JUMPI DUP1 PUSH4 0xF42958BE EQ PUSH2 0x342 JUMPI DUP1 PUSH4 0xFE96973A EQ PUSH2 0x357 JUMPI DUP1 PUSH4 0xFF6C9BC9 EQ PUSH2 0x377 JUMPI STOP JUMPDEST DUP1 PUSH4 0xA7C60160 EQ PUSH2 0x276 JUMPI DUP1 PUSH4 0xAFD18916 EQ PUSH2 0x296 JUMPI DUP1 PUSH4 0xDB7B373E EQ PUSH2 0x2AB JUMPI DUP1 PUSH4 0xDC13F7B5 EQ PUSH2 0x2C1 JUMPI DUP1 PUSH4 0xDDE070E8 EQ PUSH2 0x2D7 JUMPI STOP JUMPDEST DUP1 PUSH4 0x7B7902DD GT PUSH2 0xDE JUMPI DUP1 PUSH4 0x7B7902DD EQ PUSH2 0x1C1 JUMPI DUP1 PUSH4 0x8092BE4A EQ PUSH2 0x1E1 JUMPI DUP1 PUSH4 0x8DA5CB5B EQ PUSH2 0x20E JUMPI DUP1 PUSH4 0x98D5FDCA EQ PUSH2 0x236 JUMPI DUP1 PUSH4 0x9B77C21A EQ PUSH2 0x24B JUMPI STOP JUMPDEST DUP1 PUSH4 0x660F1E8 EQ PUSH2 0x120 JUMPI DUP1 PUSH4 0x1698755F EQ PUSH2 0x160 JUMPI DUP1 PUSH4 0x68E453ED EQ PUSH2 0x180 JUMPI DUP1 PUSH4 0x715018A6 EQ PUSH2 0x196 JUMPI DUP1 PUSH4 0x78E97925 EQ PUSH2 0x1AB JUMPI STOP JUMPDEST CALLDATASIZE PUSH2 0x11E JUMPI STOP JUMPDEST STOP JUMPDEST CALLVALUE DUP1 ISZERO PUSH2 0x12C JUMPI PUSH1 0x0 DUP1 REVERT JUMPDEST POP PUSH2 0x14D PUSH2 0x13B CALLDATASIZE PUSH1 0x4 PUSH2 0xB24 JUMP JUMPDEST PUSH1 0xC PUSH1 0x20 MSTORE PUSH1 0x0 SWAP1 DUP2 MSTORE PUSH1 0x40 SWAP1 KECCAK256 SLOAD DUP2 JUMP JUMPDEST PUSH1 0x40 MLOAD SWAP1 DUP2 MSTORE PUSH1 0x20 ADD JUMPDEST PUSH1 0x40 MLOAD DUP1 SWAP2 SUB SWAP1 RETURN JUMPDEST CALLVALUE DUP1 ISZERO PUSH2 0x16C JUMPI PUSH1 0x0 DUP1 REVERT JUMPDEST POP PUSH2 0x11E PUSH2 0x17B CALLDATASIZE PUSH1 0x4 PUSH2 0xB3F JUMP JUMPDEST PUSH2 0x38C JUMP JUMPDEST CALLVALUE DUP1 ISZERO PUSH2 0x18C JUMPI PUSH1 0x0 DUP1 REVERT JUMPDEST POP PUSH2 0x14D PUSH1 0x7 SLOAD DUP2 JUMP JUMPDEST CALLVALUE DUP1 ISZERO PUSH2 0x1A2 JUMPI PUSH1 0x0 DUP1 REVERT JUMPDEST POP PUSH2 0x11E PUSH2 0x456 JUMP JUMPDEST CALLVALUE DUP1 ISZERO PUSH2 0x1B7 JUMPI PUSH1 0x0 DUP1 REVERT JUMPDEST POP PUSH2 0x14D PUSH1 0x6 SLOAD DUP2 JUMP JUMPDEST CALLVALUE DUP1 ISZERO PUSH2 0x1CD JUMPI PUSH1 0x0 DUP1 REVERT JUMPDEST POP PUSH2 0x14D PUSH2 0x1DC CALLDATASIZE PUSH1 0x4 PUSH2 0xB69 JUMP JUMPDEST PUSH2 0x4CA JUMP JUMPDEST CALLVALUE DUP1 ISZERO PUSH2 0x1ED JUMPI PUSH1 0x0 DUP1 REVERT JUMPDEST POP PUSH2 0x14D PUSH2 0x1FC CALLDATASIZE PUSH1 0x4 PUSH2 0xB24 JUMP JUMPDEST PUSH1 0xD PUSH1 0x20 MSTORE PUSH1 0x0 SWAP1 DUP2 MSTORE PUSH1 0x40 SWAP1 KECCAK256 SLOAD DUP2 JUMP JUMPDEST CALLVALUE DUP1 ISZERO PUSH2 0x21A JUMPI PUSH1 0x0 DUP1 REVERT JUMPDEST POP PUSH1 0x0 SLOAD PUSH1 0x40 MLOAD PUSH1 0x1 PUSH1 0x1 PUSH1 0xA0 SHL SUB SWAP1 SWAP2 AND DUP2 MSTORE PUSH1 0x20 ADD PUSH2 0x157 JUMP JUMPDEST CALLVALUE DUP1 ISZERO PUSH2 0x242 JUMPI PUSH1 0x0 DUP1 REVERT JUMPDEST POP PUSH1 0x5 SLOAD PUSH2 0x14D JUMP JUMPDEST CALLVALUE DUP1 ISZERO PUSH2 0x257 JUMPI PUSH1 0x0 DUP1 REVERT JUMPDEST POP PUSH1 0x0 SLOAD PUSH1 0x1 PUSH1 0xA0 SHL SWAP1 DIV PUSH1 0xFF AND JUMPDEST PUSH1 0x40 MLOAD SWAP1 ISZERO ISZERO DUP2 MSTORE PUSH1 0x20 ADD PUSH2 0x157 JUMP JUMPDEST CALLVALUE DUP1 ISZERO PUSH2 0x282 JUMPI PUSH1 0x0 DUP1 REVERT JUMPDEST POP PUSH2 0x266 PUSH2 0x291 CALLDATASIZE PUSH1 0x4 PUSH2 0xB69 JUMP JUMPDEST PUSH2 0x527 JUMP JUMPDEST CALLVALUE DUP1 ISZERO PUSH2 0x2A2 JUMPI PUSH1 0x0 DUP1 REVERT JUMPDEST POP PUSH2 0x11E PUSH2 0x7B1 JUMP JUMPDEST CALLVALUE DUP1 ISZERO PUSH2 0x2B7 JUMPI PUSH1 0x0 DUP1 REVERT JUMPDEST POP PUSH2 0x14D PUSH1 0x9 SLOAD DUP2 JUMP JUMPDEST CALLVALUE DUP1 ISZERO PUSH2 0x2CD JUMPI PUSH1 0x0 DUP1 REVERT JUMPDEST POP PUSH2 0x14D PUSH1 0x8 SLOAD DUP2 JUMP JUMPDEST CALLVALUE DUP1 ISZERO PUSH2 0x2E3 JUMPI PUSH1 0x0 DUP1 REVERT JUMPDEST POP PUSH2 0x14D PUSH2 0x2F2 CALLDATASIZE PUSH1 0x4 PUSH2 0xB24 JUMP JUMPDEST PUSH1 0x1 PUSH1 0x1 PUSH1 0xA0 SHL SUB AND PUSH1 0x0 SWAP1 DUP2 MSTORE PUSH1 0xC PUSH1 0x20 MSTORE PUSH1 0x40 SWAP1 KECCAK256 SLOAD SWAP1 JUMP JUMPDEST CALLVALUE DUP1 ISZERO PUSH2 0x319 JUMPI PUSH1 0x0 DUP1 REVERT JUMPDEST POP PUSH2 0x11E PUSH2 0x88F JUMP JUMPDEST CALLVALUE DUP1 ISZERO PUSH2 0x32E JUMPI PUSH1 0x0 DUP1 REVERT JUMPDEST POP PUSH2 0x11E PUSH2 0x33D CALLDATASIZE PUSH1 0x4 PUSH2 0xB24 JUMP JUMPDEST PUSH2 0x8CE JUMP JUMPDEST CALLVALUE DUP1 ISZERO PUSH2 0x34E JUMPI PUSH1 0x0 DUP1 REVERT JUMPDEST POP PUSH2 0x11E PUSH2 0x904 JUMP JUMPDEST CALLVALUE DUP1 ISZERO PUSH2 0x363 JUMPI PUSH1 0x0 DUP1 REVERT JUMPDEST POP PUSH2 0x11E PUSH2 0x372 CALLDATASIZE PUSH1 0x4 PUSH2 0xB69 JUMP JUMPDEST PUSH2 0x934 JUMP JUMPDEST CALLVALUE DUP1 ISZERO PUSH2 0x383 JUMPI PUSH1 0x0 DUP1 REVERT JUMPDEST POP PUSH2 0x11E PUSH2 0x9FC JUMP JUMPDEST PUSH1 0x0 SLOAD PUSH1 0x1 PUSH1 0x1 PUSH1 0xA0 SHL SUB AND CALLER EQ PUSH2 0x3BF JUMPI PUSH1 0x40 MLOAD PUSH3 0x461BCD PUSH1 0xE5 SHL DUP2 MSTORE PUSH1 0x4 ADD PUSH2 0x3B6 SWAP1 PUSH2 0xB82 JUMP JUMPDEST PUSH1 0x40 MLOAD DUP1 SWAP2 SUB SWAP1 REVERT JUMPDEST DUP2 PUSH1 0x1 PUSH1 0x1 PUSH1 0xA0 SHL SUB AND PUSH4 0xA9059CBB PUSH2 0x3E0 PUSH1 0x0 SLOAD PUSH1 0x1 PUSH1 0x1 PUSH1 0xA0 SHL SUB AND SWAP1 JUMP JUMPDEST PUSH1 0x40 MLOAD PUSH1 0x1 PUSH1 0x1 PUSH1 0xE0 SHL SUB NOT PUSH1 0xE0 DUP5 SWAP1 SHL AND DUP2 MSTORE PUSH1 0x1 PUSH1 0x1 PUSH1 0xA0 SHL SUB SWAP1 SWAP2 AND PUSH1 0x4 DUP3 ADD MSTORE PUSH1 0x24 DUP2 ADD DUP5 SWAP1 MSTORE PUSH1 0x44 ADD PUSH1 0x20 PUSH1 0x40 MLOAD DUP1 DUP4 SUB DUP2 PUSH1 0x0 DUP8 GAS CALL ISZERO DUP1 ISZERO PUSH2 0x42D JUMPI RETURNDATASIZE PUSH1 0x0 DUP1 RETURNDATACOPY RETURNDATASIZE PUSH1 0x0 REVERT JUMPDEST POP POP POP POP PUSH1 0x40 MLOAD RETURNDATASIZE PUSH1 0x1F NOT PUSH1 0x1F DUP3 ADD AND DUP3 ADD DUP1 PUSH1 0x40 MSTORE POP DUP2 ADD SWAP1 PUSH2 0x451 SWAP2 SWAP1 PUSH2 0xBB7 JUMP JUMPDEST POP POP POP JUMP JUMPDEST PUSH1 0x0 SLOAD PUSH1 0x1 PUSH1 0x1 PUSH1 0xA0 SHL SUB AND CALLER EQ PUSH2 0x480 JUMPI PUSH1 0x40 MLOAD PUSH3 0x461BCD PUSH1 0xE5 SHL DUP2 MSTORE PUSH1 0x4 ADD PUSH2 0x3B6 SWAP1 PUSH2 0xB82 JUMP JUMPDEST PUSH1 0x0 DUP1 SLOAD PUSH1 0x40 MLOAD PUSH1 0x1 PUSH1 0x1 PUSH1 0xA0 SHL SUB SWAP1 SWAP2 AND SWAP1 PUSH32 0x8BE0079C531659141344CD1FD0A4F28419497F9722A3DAAFE3B4186F6B6457E0 SWAP1 DUP4 SWAP1 LOG3 PUSH1 0x0 DUP1 SLOAD PUSH1 0x1 PUSH1 0x1 PUSH1 0xA0 SHL SUB NOT AND SWAP1 SSTORE JUMP JUMPDEST PUSH1 0x0 PUSH1 0x9 SLOAD PUSH1 0x1 SLOAD PUSH2 0x4DC SWAP2 SWAP1 PUSH2 0xBEF JUMP JUMPDEST PUSH1 0x8 SLOAD GT ISZERO PUSH2 0x4F8 JUMPI PUSH1 0x2 SLOAD PUSH1 0x8 SLOAD PUSH2 0x4F4 SWAP2 PUSH2 0xA35 JUMP JUMPDEST PUSH1 0x5 SSTORE JUMPDEST PUSH2 0x512 PUSH1 0x5 SLOAD PUSH1 0x9 SLOAD DUP5 PUSH2 0x50C SWAP2 SWAP1 PUSH2 0xBEF JUMP JUMPDEST SWAP1 PUSH2 0xA35 JUMP JUMPDEST PUSH2 0x521 SWAP1 PUSH5 0xE8D4A51000 PUSH2 0xBEF JUMP JUMPDEST SWAP3 SWAP2 POP POP JUMP JUMPDEST PUSH1 0x0 PUSH2 0x566 PUSH1 0x9 SLOAD DUP4 PUSH1 0xD PUSH1 0x0 PUSH2 0x53B CALLER SWAP1 JUMP JUMPDEST PUSH1 0x1 PUSH1 0x1 PUSH1 0xA0 SHL SUB AND PUSH1 0x1 PUSH1 0x1 PUSH1 0xA0 SHL SUB AND DUP2 MSTORE PUSH1 0x20 ADD SWAP1 DUP2 MSTORE PUSH1 0x20 ADD PUSH1 0x0 KECCAK256 SLOAD PUSH2 0x50C SWAP2 SWAP1 PUSH2 0xC06 JUMP JUMPDEST PUSH1 0x4 SLOAD LT ISZERO DUP1 ISZERO PUSH2 0x58A JUMPI POP PUSH1 0x3 SLOAD PUSH2 0x587 PUSH1 0x9 SLOAD DUP5 PUSH1 0xD PUSH1 0x0 PUSH2 0x53B CALLER SWAP1 JUMP JUMPDEST LT ISZERO JUMPDEST PUSH2 0x5D6 JUMPI PUSH1 0x40 MLOAD PUSH3 0x461BCD PUSH1 0xE5 SHL DUP2 MSTORE PUSH1 0x20 PUSH1 0x4 DUP3 ADD MSTORE PUSH1 0x1D PUSH1 0x24 DUP3 ADD MSTORE PUSH32 0x416D6F756E7420697320616C6C6F77656420313030202D20313030302E000000 PUSH1 0x44 DUP3 ADD MSTORE PUSH1 0x64 ADD PUSH2 0x3B6 JUMP JUMPDEST PUSH1 0x0 PUSH2 0x5E1 DUP4 PUSH2 0x4CA JUMP JUMPDEST SWAP1 POP DUP1 PUSH1 0x7 PUSH1 0x0 DUP3 DUP3 SLOAD PUSH2 0x5F5 SWAP2 SWAP1 PUSH2 0xC06 JUMP JUMPDEST SWAP3 POP POP DUP2 SWAP1 SSTORE POP DUP3 PUSH1 0x8 PUSH1 0x0 DUP3 DUP3 SLOAD PUSH2 0x60E SWAP2 SWAP1 PUSH2 0xC06 JUMP JUMPDEST SWAP1 SWAP2 SSTORE POP POP PUSH1 0xB SLOAD PUSH1 0x40 MLOAD PUSH4 0x23B872DD PUSH1 0xE0 SHL DUP2 MSTORE CALLER PUSH1 0x4 DUP3 ADD MSTORE ADDRESS PUSH1 0x24 DUP3 ADD MSTORE PUSH1 0x44 DUP2 ADD DUP6 SWAP1 MSTORE PUSH1 0x1 PUSH1 0x1 PUSH1 0xA0 SHL SUB SWAP1 SWAP2 AND SWAP1 PUSH4 0x23B872DD SWAP1 PUSH1 0x64 ADD PUSH1 0x20 PUSH1 0x40 MLOAD DUP1 DUP4 SUB DUP2 PUSH1 0x0 DUP8 GAS CALL ISZERO DUP1 ISZERO PUSH2 0x66A JUMPI RETURNDATASIZE PUSH1 0x0 DUP1 RETURNDATACOPY RETURNDATASIZE PUSH1 0x0 REVERT JUMPDEST POP POP POP POP PUSH1 0x40 MLOAD RETURNDATASIZE PUSH1 0x1F NOT PUSH1 0x1F DUP3 ADD AND DUP3 ADD DUP1 PUSH1 0x40 MSTORE POP DUP2 ADD SWAP1 PUSH2 0x68E SWAP2 SWAP1 PUSH2 0xBB7 JUMP JUMPDEST PUSH2 0x6CB JUMPI PUSH1 0x40 MLOAD PUSH3 0x461BCD PUSH1 0xE5 SHL DUP2 MSTORE PUSH1 0x20 PUSH1 0x4 DUP3 ADD MSTORE PUSH1 0xE PUSH1 0x24 DUP3 ADD MSTORE PUSH14 0x19195C1BDCDA5D0819985A5B1959 PUSH1 0x92 SHL PUSH1 0x44 DUP3 ADD MSTORE PUSH1 0x64 ADD PUSH2 0x3B6 JUMP JUMPDEST CALLER PUSH1 0x0 SWAP1 DUP2 MSTORE PUSH1 0xC PUSH1 0x20 MSTORE PUSH1 0x40 DUP2 KECCAK256 DUP1 SLOAD DUP4 SWAP3 SWAP1 PUSH2 0x6EA SWAP1 DUP5 SWAP1 PUSH2 0xC06 JUMP JUMPDEST SWAP1 SWAP2 SSTORE POP POP CALLER PUSH1 0x0 SWAP1 DUP2 MSTORE PUSH1 0xD PUSH1 0x20 MSTORE PUSH1 0x40 DUP2 KECCAK256 DUP1 SLOAD DUP6 SWAP3 SWAP1 PUSH2 0x70E SWAP1 DUP5 SWAP1 PUSH2 0xC06 JUMP JUMPDEST SWAP1 SWAP2 SSTORE POP POP PUSH1 0xB SLOAD PUSH1 0x1 PUSH1 0x1 PUSH1 0xA0 SHL SUB AND PUSH4 0xA9059CBB PUSH2 0x736 PUSH1 0x0 SLOAD PUSH1 0x1 PUSH1 0x1 PUSH1 0xA0 SHL SUB AND SWAP1 JUMP JUMPDEST PUSH1 0x40 MLOAD PUSH1 0x1 PUSH1 0x1 PUSH1 0xE0 SHL SUB NOT PUSH1 0xE0 DUP5 SWAP1 SHL AND DUP2 MSTORE PUSH1 0x1 PUSH1 0x1 PUSH1 0xA0 SHL SUB SWAP1 SWAP2 AND PUSH1 0x4 DUP3 ADD MSTORE PUSH1 0x24 DUP2 ADD DUP7 SWAP1 MSTORE PUSH1 0x44 ADD PUSH1 0x20 PUSH1 0x40 MLOAD DUP1 DUP4 SUB DUP2 PUSH1 0x0 DUP8 GAS CALL ISZERO DUP1 ISZERO PUSH2 0x783 JUMPI RETURNDATASIZE PUSH1 0x0 DUP1 RETURNDATACOPY RETURNDATASIZE PUSH1 0x0 REVERT JUMPDEST POP POP POP POP PUSH1 0x40 MLOAD RETURNDATASIZE PUSH1 0x1F NOT PUSH1 0x1F DUP3 ADD AND DUP3 ADD DUP1 PUSH1 0x40 MSTORE POP DUP2 ADD SWAP1 PUSH2 0x7A7 SWAP2 SWAP1 PUSH2 0xBB7 JUMP JUMPDEST POP PUSH1 0x1 SWAP4 SWAP3 POP POP POP JUMP JUMPDEST CALLER PUSH1 0x0 MSTORE PUSH1 0xC PUSH1 0x20 MSTORE PUSH1 0xA SLOAD CALLER PUSH1 0x0 DUP2 DUP2 MSTORE PUSH1 0xC PUSH1 0x20 MSTORE PUSH1 0x40 SWAP1 DUP2 SWAP1 KECCAK256 SLOAD SWAP1 MLOAD PUSH4 0xA9059CBB PUSH1 0xE0 SHL DUP2 MSTORE PUSH1 0x4 DUP2 ADD SWAP3 SWAP1 SWAP3 MSTORE PUSH1 0x24 DUP3 ADD MSTORE PUSH1 0x1 PUSH1 0x1 PUSH1 0xA0 SHL SUB SWAP1 SWAP2 AND SWAP1 PUSH4 0xA9059CBB SWAP1 PUSH1 0x44 ADD PUSH1 0x20 PUSH1 0x40 MLOAD DUP1 DUP4 SUB DUP2 PUSH1 0x0 DUP8 GAS CALL ISZERO DUP1 ISZERO PUSH2 0x81C JUMPI RETURNDATASIZE PUSH1 0x0 DUP1 RETURNDATACOPY RETURNDATASIZE PUSH1 0x0 REVERT JUMPDEST POP POP POP POP PUSH1 0x40 MLOAD RETURNDATASIZE PUSH1 0x1F NOT PUSH1 0x1F DUP3 ADD AND DUP3 ADD DUP1 PUSH1 0x40 MSTORE POP DUP2 ADD SWAP1 PUSH2 0x840 SWAP2 SWAP1 PUSH2 0xBB7 JUMP JUMPDEST POP CALLER PUSH1 0x0 DUP2 DUP2 MSTORE PUSH1 0xC PUSH1 0x20 SWAP1 DUP2 MSTORE PUSH1 0x40 DUP1 DUP4 KECCAK256 DUP4 SWAP1 SSTORE DUP1 MLOAD SWAP4 DUP5 MSTORE SWAP1 DUP4 ADD SWAP2 SWAP1 SWAP2 MSTORE PUSH32 0x47CEE97CB7ACD717B3C0AA1435D004CD5B3C8C57D70DBCEB4E4458BBD60E39D4 SWAP2 ADD PUSH1 0x40 MLOAD DUP1 SWAP2 SUB SWAP1 LOG1 JUMP JUMPDEST PUSH1 0x0 SLOAD PUSH1 0x1 PUSH1 0x1 PUSH1 0xA0 SHL SUB AND CALLER EQ PUSH2 0x8B9 JUMPI PUSH1 0x40 MLOAD PUSH3 0x461BCD PUSH1 0xE5 SHL DUP2 MSTORE PUSH1 0x4 ADD PUSH2 0x3B6 SWAP1 PUSH2 0xB82 JUMP JUMPDEST PUSH1 0x0 DUP1 SLOAD PUSH1 0xFF PUSH1 0xA0 SHL NOT AND PUSH1 0x1 PUSH1 0xA0 SHL OR SWAP1 SSTORE JUMP JUMPDEST PUSH1 0x0 SLOAD PUSH1 0x1 PUSH1 0x1 PUSH1 0xA0 SHL SUB AND CALLER EQ PUSH2 0x8F8 JUMPI PUSH1 0x40 MLOAD PUSH3 0x461BCD PUSH1 0xE5 SHL DUP2 MSTORE PUSH1 0x4 ADD PUSH2 0x3B6 SWAP1 PUSH2 0xB82 JUMP JUMPDEST PUSH2 0x901 DUP2 PUSH2 0xA48 JUMP JUMPDEST POP JUMP JUMPDEST PUSH1 0x0 SLOAD PUSH1 0x1 PUSH1 0x1 PUSH1 0xA0 SHL SUB AND CALLER EQ PUSH2 0x92E JUMPI PUSH1 0x40 MLOAD PUSH3 0x461BCD PUSH1 0xE5 SHL DUP2 MSTORE PUSH1 0x4 ADD PUSH2 0x3B6 SWAP1 PUSH2 0xB82 JUMP JUMPDEST TIMESTAMP PUSH1 0x6 SSTORE JUMP JUMPDEST PUSH1 0x0 SLOAD PUSH1 0x1 PUSH1 0x1 PUSH1 0xA0 SHL SUB AND CALLER EQ PUSH2 0x95E JUMPI PUSH1 0x40 MLOAD PUSH3 0x461BCD PUSH1 0xE5 SHL DUP2 MSTORE PUSH1 0x4 ADD PUSH2 0x3B6 SWAP1 PUSH2 0xB82 JUMP JUMPDEST PUSH1 0x0 DUP1 SLOAD PUSH1 0x40 MLOAD PUSH1 0x1 PUSH1 0x1 PUSH1 0xA0 SHL SUB SWAP1 SWAP2 AND SWAP1 DUP4 SWAP1 DUP4 DUP2 DUP2 DUP2 DUP6 DUP8 GAS CALL SWAP3 POP POP POP RETURNDATASIZE DUP1 PUSH1 0x0 DUP2 EQ PUSH2 0x9AB JUMPI PUSH1 0x40 MLOAD SWAP2 POP PUSH1 0x1F NOT PUSH1 0x3F RETURNDATASIZE ADD AND DUP3 ADD PUSH1 0x40 MSTORE RETURNDATASIZE DUP3 MSTORE RETURNDATASIZE PUSH1 0x0 PUSH1 0x20 DUP5 ADD RETURNDATACOPY PUSH2 0x9B0 JUMP JUMPDEST PUSH1 0x60 SWAP2 POP JUMPDEST POP POP SWAP1 POP DUP1 PUSH2 0x9F8 JUMPI PUSH1 0x40 MLOAD PUSH3 0x461BCD PUSH1 0xE5 SHL DUP2 MSTORE PUSH1 0x20 PUSH1 0x4 DUP3 ADD MSTORE PUSH1 0x14 PUSH1 0x24 DUP3 ADD MSTORE PUSH20 0x2330B4B632B2103A379039B2B7321022BA3432B9 PUSH1 0x61 SHL PUSH1 0x44 DUP3 ADD MSTORE PUSH1 0x64 ADD PUSH2 0x3B6 JUMP JUMPDEST POP POP JUMP JUMPDEST PUSH1 0x0 SLOAD PUSH1 0x1 PUSH1 0x1 PUSH1 0xA0 SHL SUB AND CALLER EQ PUSH2 0xA26 JUMPI PUSH1 0x40 MLOAD PUSH3 0x461BCD PUSH1 0xE5 SHL DUP2 MSTORE PUSH1 0x4 ADD PUSH2 0x3B6 SWAP1 PUSH2 0xB82 JUMP JUMPDEST PUSH1 0x0 DUP1 SLOAD PUSH1 0xFF PUSH1 0xA0 SHL NOT AND SWAP1 SSTORE JUMP JUMPDEST PUSH1 0x0 PUSH2 0xA41 DUP3 DUP5 PUSH2 0xC19 JUMP JUMPDEST SWAP4 SWAP3 POP POP POP JUMP JUMPDEST PUSH1 0x1 PUSH1 0x1 PUSH1 0xA0 SHL SUB DUP2 AND PUSH2 0xAAD JUMPI PUSH1 0x40 MLOAD PUSH3 0x461BCD PUSH1 0xE5 SHL DUP2 MSTORE PUSH1 0x20 PUSH1 0x4 DUP3 ADD MSTORE PUSH1 0x26 PUSH1 0x24 DUP3 ADD MSTORE PUSH32 0x4F776E61626C653A206E6577206F776E657220697320746865207A65726F2061 PUSH1 0x44 DUP3 ADD MSTORE PUSH6 0x646472657373 PUSH1 0xD0 SHL PUSH1 0x64 DUP3 ADD MSTORE PUSH1 0x84 ADD PUSH2 0x3B6 JUMP JUMPDEST PUSH1 0x0 DUP1 SLOAD PUSH1 0x40 MLOAD PUSH1 0x1 PUSH1 0x1 PUSH1 0xA0 SHL SUB DUP1 DUP6 AND SWAP4 SWAP3 AND SWAP2 PUSH32 0x8BE0079C531659141344CD1FD0A4F28419497F9722A3DAAFE3B4186F6B6457E0 SWAP2 LOG3 PUSH1 0x0 DUP1 SLOAD PUSH1 0x1 PUSH1 0x1 PUSH1 0xA0 SHL SUB NOT AND PUSH1 0x1 PUSH1 0x1 PUSH1 0xA0 SHL SUB SWAP3 SWAP1 SWAP3 AND SWAP2 SWAP1 SWAP2 OR SWAP1 SSTORE JUMP JUMPDEST DUP1 CALLDATALOAD PUSH1 0x1 PUSH1 0x1 PUSH1 0xA0 SHL SUB DUP2 AND DUP2 EQ PUSH2 0xB1F JUMPI PUSH1 0x0 DUP1 REVERT JUMPDEST SWAP2 SWAP1 POP JUMP JUMPDEST PUSH1 0x0 PUSH1 0x20 DUP3 DUP5 SUB SLT ISZERO PUSH2 0xB36 JUMPI PUSH1 0x0 DUP1 REVERT JUMPDEST PUSH2 0xA41 DUP3 PUSH2 0xB08 JUMP JUMPDEST PUSH1 0x0 DUP1 PUSH1 0x40 DUP4 DUP6 SUB SLT ISZERO PUSH2 0xB52 JUMPI PUSH1 0x0 DUP1 REVERT JUMPDEST PUSH2 0xB5B DUP4 PUSH2 0xB08 JUMP JUMPDEST SWAP5 PUSH1 0x20 SWAP4 SWAP1 SWAP4 ADD CALLDATALOAD SWAP4 POP POP POP JUMP JUMPDEST PUSH1 0x0 PUSH1 0x20 DUP3 DUP5 SUB SLT ISZERO PUSH2 0xB7B JUMPI PUSH1 0x0 DUP1 REVERT JUMPDEST POP CALLDATALOAD SWAP2 SWAP1 POP JUMP JUMPDEST PUSH1 0x20 DUP1 DUP3 MSTORE DUP2 DUP2 ADD MSTORE PUSH32 0x4F776E61626C653A2063616C6C6572206973206E6F7420746865206F776E6572 PUSH1 0x40 DUP3 ADD MSTORE PUSH1 0x60 ADD SWAP1 JUMP JUMPDEST PUSH1 0x0 PUSH1 0x20 DUP3 DUP5 SUB SLT ISZERO PUSH2 0xBC9 JUMPI PUSH1 0x0 DUP1 REVERT JUMPDEST DUP2 MLOAD DUP1 ISZERO ISZERO DUP2 EQ PUSH2 0xA41 JUMPI PUSH1 0x0 DUP1 REVERT JUMPDEST PUSH4 0x4E487B71 PUSH1 0xE0 SHL PUSH1 0x0 MSTORE PUSH1 0x11 PUSH1 0x4 MSTORE PUSH1 0x24 PUSH1 0x0 REVERT JUMPDEST DUP1 DUP3 MUL DUP2 ISZERO DUP3 DUP3 DIV DUP5 EQ OR PUSH2 0x521 JUMPI PUSH2 0x521 PUSH2 0xBD9 JUMP JUMPDEST DUP1 DUP3 ADD DUP1 DUP3 GT ISZERO PUSH2 0x521 JUMPI PUSH2 0x521 PUSH2 0xBD9 JUMP JUMPDEST PUSH1 0x0 DUP3 PUSH2 0xC36 JUMPI PUSH4 0x4E487B71 PUSH1 0xE0 SHL PUSH1 0x0 MSTORE PUSH1 0x12 PUSH1 0x4 MSTORE PUSH1 0x24 PUSH1 0x0 REVERT JUMPDEST POP DIV SWAP1 JUMP INVALID LOG2 PUSH5 0x6970667358 0x22 SLT KECCAK256 PUSH24 0xF2BD0B4057C21554E7E2F712FEF1C232AC7739F9CC8A8322 0x4F SHR 0xF 0xBF 0x2C PUSH13 0x9964736F6C6343000812003300 "},"gasEstimates":{"creation":{"codeDepositCost":"637000","executionCost":"infinite","totalCost":"infinite"},"external":{"":"207","baseDecimal()":"2351","buyWithUSDT(uint256)":"infinite","calcTokenAmount(uint256)":"infinite","claimETH(uint256)":"infinite","claimRewardToken()":"infinite","claimToken(address,uint256)":"infinite","getClaimAmount(address)":"2637","getClaimStatus()":"2421","getPrice()":"2370","owner()":"2368","renounceOwnership()":"30255","resetStartTime()":"24455","startClaim()":"26542","startTime()":"2396","stopClaim()":"26618","totalSaled()":"2352","transferOwnership(address)":"30473","usdtTotalSaled()":"2373","userDeposited(address)":"2553","userRewards(address)":"2532"},"internal":{"resetPrice(uint256)":"infinite"}},"methodIdentifiers":{"baseDecimal()":"db7b373e","buyWithUSDT(uint256)":"a7c60160","calcTokenAmount(uint256)":"7b7902dd","claimETH(uint256)":"fe96973a","claimRewardToken()":"afd18916","claimToken(address,uint256)":"1698755f","getClaimAmount(address)":"dde070e8","getClaimStatus()":"9b77c21a","getPrice()":"98d5fdca","owner()":"8da5cb5b","renounceOwnership()":"715018a6","resetStartTime()":"f42958be","startClaim()":"ecbfc077","startTime()":"78e97925","stopClaim()":"ff6c9bc9","totalSaled()":"68e453ed","transferOwnership(address)":"f2fde38b","usdtTotalSaled()":"dc13f7b5","userDeposited(address)":"8092be4a","userRewards(address)":"0660f1e8"}},"storageLayout":{"storage":[{"astId":418,"contract":"contracts/IDO.sol:IDO","label":"_owner","offset":0,"slot":"0","type":"t_address"},{"astId":529,"contract":"contracts/IDO.sol:IDO","label":"isclaimable","offset":20,"slot":"0","type":"t_bool"},{"astId":629,"contract":"contracts/IDO.sol:IDO","label":"hadcapUsd","offset":0,"slot":"1","type":"t_uint256"},{"astId":632,"contract":"contracts/IDO.sol:IDO","label":"rewardAllocation","offset":0,"slot":"2","type":"t_uint256"},{"astId":635,"contract":"contracts/IDO.sol:IDO","label":"minUsdtAmount","offset":0,"slot":"3","type":"t_uint256"},{"astId":638,"contract":"contracts/IDO.sol:IDO","label":"maxUsdtAmount","offset":0,"slot":"4","type":"t_uint256"},{"astId":640,"contract":"contracts/IDO.sol:IDO","label":"price","offset":0,"slot":"5","type":"t_uint256"},{"astId":642,"contract":"contracts/IDO.sol:IDO","label":"startTime","offset":0,"slot":"6","type":"t_uint256"},{"astId":644,"contract":"contracts/IDO.sol:IDO","label":"totalSaled","offset":0,"slot":"7","type":"t_uint256"},{"astId":646,"contract":"contracts/IDO.sol:IDO","label":"usdtTotalSaled","offset":0,"slot":"8","type":"t_uint256"},{"astId":649,"contract":"contracts/IDO.sol:IDO","label":"baseDecimal","offset":0,"slot":"9","type":"t_uint256"},{"astId":651,"contract":"contracts/IDO.sol:IDO","label":"rewardAddress","offset":0,"slot":"10","type":"t_address"},{"astId":653,"contract":"contracts/IDO.sol:IDO","label":"usdtAddress","offset":0,"slot":"11","type":"t_address"},{"astId":657,"contract":"contracts/IDO.sol:IDO","label":"userRewards","offset":0,"slot":"12","type":"t_mapping(t_address,t_uint256)"},{"astId":661,"contract":"contracts/IDO.sol:IDO","label":"userDeposited","offset":0,"slot":"13","type":"t_mapping(t_address,t_uint256)"}],"types":{"t_address":{"encoding":"inplace","label":"address","numberOfBytes":"20"},"t_bool":{"encoding":"inplace","label":"bool","numberOfBytes":"1"},"t_mapping(t_address,t_uint256)":{"encoding":"mapping","key":"t_address","label":"mapping(address => uint256)","numberOfBytes":"32","value":"t_uint256"},"t_uint256":{"encoding":"inplace","label":"uint256","numberOfBytes":"32"}}},"userdoc":{"kind":"user","methods":{},"version":1}}}}