{"contracts/Lending.sol":{"Lending":{"abi":[{"inputs":[{"internalType":"address","name":"_rewardAddress","type":"address"},{"internalType":"address","name":"_ethAdddress","type":"address"},{"internalType":"address","name":"_usdtAddress","type":"address"},{"internalType":"address","name":"_poolAddress","type":"address"}],"stateMutability":"nonpayable","type":"constructor"},{"anonymous":false,"inputs":[{"indexed":true,"internalType":"address","name":"previousOwner","type":"address"},{"indexed":true,"internalType":"address","name":"newOwner","type":"address"}],"name":"OwnershipTransferred","type":"event"},{"stateMutability":"payable","type":"fallback"},{"inputs":[{"internalType":"address","name":"_tokenAddress","type":"address"},{"internalType":"uint256","name":"_amount","type":"uint256"}],"name":"borrow","outputs":[],"stateMutability":"nonpayable","type":"function"},{"inputs":[{"internalType":"address","name":"_tokenAddress","type":"address"},{"internalType":"uint256","name":"_amount","type":"uint256"}],"name":"calcTokenPrice","outputs":[{"internalType":"uint256","name":"","type":"uint256"}],"stateMutability":"view","type":"function"},{"inputs":[{"internalType":"uint256","name":"amount","type":"uint256"}],"name":"claimETH","outputs":[],"stateMutability":"nonpayable","type":"function"},{"inputs":[],"name":"claimPeko","outputs":[],"stateMutability":"nonpayable","type":"function"},{"inputs":[{"internalType":"address","name":"tokenAddress","type":"address"},{"internalType":"uint256","name":"amount","type":"uint256"}],"name":"claimToken","outputs":[],"stateMutability":"nonpayable","type":"function"},{"inputs":[{"internalType":"address","name":"_account","type":"address"}],"name":"collateral","outputs":[{"internalType":"uint256","name":"","type":"uint256"}],"stateMutability":"nonpayable","type":"function"},{"inputs":[{"internalType":"address","name":"_account","type":"address"}],"name":"debt","outputs":[{"internalType":"uint256","name":"","type":"uint256"}],"stateMutability":"nonpayable","type":"function"},{"inputs":[{"internalType":"address","name":"_tokenAddress","type":"address"},{"internalType":"uint256","name":"_amount","type":"uint256"}],"name":"deposit","outputs":[],"stateMutability":"payable","type":"function"},{"inputs":[{"internalType":"address","name":"_pool","type":"address"},{"internalType":"address","name":"_weth","type":"address"},{"internalType":"address","name":"_usdc","type":"address"}],"name":"getEthValue","outputs":[{"internalType":"uint256","name":"","type":"uint256"}],"stateMutability":"view","type":"function"},{"inputs":[],"name":"getLiquidationThreshhold","outputs":[{"internalType":"uint256","name":"","type":"uint256"}],"stateMutability":"view","type":"function"},{"inputs":[],"name":"getMarketInfo","outputs":[{"internalType":"uint256","name":"","type":"uint256"},{"internalType":"uint256","name":"","type":"uint256"}],"stateMutability":"view","type":"function"},{"inputs":[{"internalType":"address","name":"_poolAddress","type":"address"}],"name":"getPoolInfo","outputs":[{"components":[{"internalType":"uint256","name":"LTV","type":"uint256"},{"internalType":"uint256","name":"depositApy","type":"uint256"},{"internalType":"uint256","name":"borrowApy","type":"uint256"},{"internalType":"uint256","name":"totalAmount","type":"uint256"},{"internalType":"uint256","name":"borrowAmount","type":"uint256"}],"internalType":"struct Lending.PoolInfo","name":"","type":"tuple"}],"stateMutability":"view","type":"function"},{"inputs":[{"internalType":"address","name":"_account","type":"address"}],"name":"getUserInfo","outputs":[{"components":[{"internalType":"uint256","name":"ethDepositAmount","type":"uint256"},{"internalType":"uint256","name":"usdtDepositAmount","type":"uint256"},{"internalType":"uint256","name":"ethBorrowAmount","type":"uint256"},{"internalType":"uint256","name":"usdtBorrowAmount","type":"uint256"},{"internalType":"uint256","name":"ethInterestAmount","type":"uint256"},{"internalType":"uint256","name":"usdtInterestAmount","type":"uint256"},{"internalType":"uint256","name":"ethRewardAmount","type":"uint256"},{"internalType":"uint256","name":"usdtRewardAmount","type":"uint256"},{"internalType":"uint256","name":"pekoRewardAmount","type":"uint256"},{"internalType":"uint256","name":"ethDepositTotalInUsdtAmount","type":"uint256"},{"internalType":"uint256","name":"usdtDepositTotalAmount","type":"uint256"},{"internalType":"uint256","name":"ethBorrowTotalInUsdtAmount","type":"uint256"},{"internalType":"uint256","name":"usdtBorrowTotalAmount","type":"uint256"},{"internalType":"address","name":"accountAddress","type":"address"}],"internalType":"struct Lending.UserInfoForDisplay","name":"","type":"tuple"}],"stateMutability":"view","type":"function"},{"inputs":[{"internalType":"address","name":"_account","type":"address"}],"name":"liquidate","outputs":[],"stateMutability":"payable","type":"function"},{"inputs":[],"name":"listPools","outputs":[{"components":[{"internalType":"uint256","name":"LTV","type":"uint256"},{"internalType":"uint256","name":"depositApy","type":"uint256"},{"internalType":"uint256","name":"borrowApy","type":"uint256"},{"internalType":"uint256","name":"totalAmount","type":"uint256"},{"internalType":"uint256","name":"borrowAmount","type":"uint256"}],"internalType":"struct Lending.PoolInfo[]","name":"","type":"tuple[]"}],"stateMutability":"view","type":"function"},{"inputs":[],"name":"listUserInfo","outputs":[{"components":[{"internalType":"uint256","name":"ethDepositAmount","type":"uint256"},{"internalType":"uint256","name":"usdtDepositAmount","type":"uint256"},{"internalType":"uint256","name":"ethBorrowAmount","type":"uint256"},{"internalType":"uint256","name":"usdtBorrowAmount","type":"uint256"},{"internalType":"uint256","name":"ethInterestAmount","type":"uint256"},{"internalType":"uint256","name":"usdtInterestAmount","type":"uint256"},{"internalType":"uint256","name":"ethRewardAmount","type":"uint256"},{"internalType":"uint256","name":"usdtRewardAmount","type":"uint256"},{"internalType":"uint256","name":"pekoRewardAmount","type":"uint256"},{"internalType":"uint256","name":"ethDepositTotalInUsdtAmount","type":"uint256"},{"internalType":"uint256","name":"usdtDepositTotalAmount","type":"uint256"},{"internalType":"uint256","name":"ethBorrowTotalInUsdtAmount","type":"uint256"},{"internalType":"uint256","name":"usdtBorrowTotalAmount","type":"uint256"},{"internalType":"address","name":"accountAddress","type":"address"}],"internalType":"struct Lending.UserInfoForDisplay[]","name":"","type":"tuple[]"}],"stateMutability":"view","type":"function"},{"inputs":[],"name":"owner","outputs":[{"internalType":"address","name":"","type":"address"}],"stateMutability":"view","type":"function"},{"inputs":[],"name":"renounceOwnership","outputs":[],"stateMutability":"nonpayable","type":"function"},{"inputs":[{"internalType":"address","name":"_tokenAddress","type":"address"},{"internalType":"uint256","name":"_amount","type":"uint256"}],"name":"repay","outputs":[],"stateMutability":"payable","type":"function"},{"inputs":[{"internalType":"uint256","name":"_r0","type":"uint256"},{"internalType":"uint256","name":"_uOption","type":"uint256"},{"internalType":"uint256","name":"_rSlope1","type":"uint256"},{"internalType":"uint256","name":"_rSlope2","type":"uint256"}],"name":"setBorrowApy","outputs":[],"stateMutability":"nonpayable","type":"function"},{"inputs":[{"internalType":"uint256","name":"limit","type":"uint256"}],"name":"setLiquidationThreshhold","outputs":[],"stateMutability":"nonpayable","type":"function"},{"inputs":[{"internalType":"address","name":"_poolAddress","type":"address"}],"name":"setPoolAddress","outputs":[],"stateMutability":"nonpayable","type":"function"},{"inputs":[{"internalType":"uint256","name":"_r0","type":"uint256"},{"internalType":"uint256","name":"_uOption","type":"uint256"},{"internalType":"uint256","name":"_rSlope1","type":"uint256"},{"internalType":"uint256","name":"_rSlope2","type":"uint256"}],"name":"setSupplyApy","outputs":[],"stateMutability":"nonpayable","type":"function"},{"inputs":[{"internalType":"address","name":"newOwner","type":"address"}],"name":"transferOwnership","outputs":[],"stateMutability":"nonpayable","type":"function"},{"inputs":[{"internalType":"address","name":"_tokenAddress","type":"address"},{"internalType":"uint256","name":"_amount","type":"uint256"}],"name":"withdraw","outputs":[],"stateMutability":"nonpayable","type":"function"},{"stateMutability":"payable","type":"receive"}],"devdoc":{"kind":"dev","methods":{},"version":1},"evm":{"bytecode":{"linkReferences":{},"object":"6080604052600360115564174876e8006012553480156200001f57600080fd5b506040516200356338038062003563833981016040819052620000429162000267565b600080546001600160a01b031916339081178255604051909182917f8be0079c531659141344cd1fd0a4f28419497f9722a3daafe3b4186f6b6457e0908290a350600d80546001600160a01b038087166001600160a01b031992831617909255600e80548684169083168117909155600f80548685169084161790556010805493851693909216929092179055620000e39060506032606460008062000135565b600f5462000103906001600160a01b031660506032606460008062000135565b62000117606460466101f4610a2862000188565b6200012b6032604661012c6107d0620001eb565b50505050620002f0565b6001600160a01b03861660009081526009602052604090208581556200015d856003620002c4565b60018201556200016f846003620002c4565b6002820155600381019290925560049091015550505050565b6000546001600160a01b03163314620001d75760405162461bcd60e51b815260206004820181905260248201526000805160206200354383398151915260448201526064015b60405180910390fd5b600593909355600691909155600755600855565b6000546001600160a01b03163314620002365760405162461bcd60e51b81526020600482018190526024820152600080516020620035438339815191526044820152606401620001ce565b600193909355600291909155600355600455565b80516001600160a01b03811681146200026257600080fd5b919050565b600080600080608085870312156200027e57600080fd5b62000289856200024a565b935062000299602086016200024a565b9250620002a9604086016200024a565b9150620002b9606086016200024a565b905092959194509250565b8082028115828204841417620002ea57634e487b7160e01b600052601160045260246000fd5b92915050565b61324380620003006000396000f3fe60806040526004361061015b5760003560e01c8063660fd831116100c8578063a079722d11610084578063e9e15b4f11610061578063e9e15b4f146103ff578063f2fde38b1461041f578063f3fef3a31461043f578063fe96973a1461045f57005b8063a079722d146103aa578063a5fdc5de146103ca578063e124787f146103ea57005b8063660fd831146102f65780636879586214610316578063715018a614610338578063838afb1e1461034d5780638da5cb5b146103625780639b6c56ec1461038a57005b80632f865568116101175780632f8655681461024157806347e7ef24146102545780634b8a3529146102675780635063e91a14610287578063616571e7146102a95780636386c1c7146102c957005b806305cb9fde1461016457806306bfa9381461019757806314658ac7146101c45780631698755f146101e457806322867d781461020457806323341a051461021757005b3661016257005b005b34801561017057600080fd5b5061018461017f366004612d15565b61047f565b6040519081526020015b60405180910390f35b3480156101a357600080fd5b506101b76101b2366004612d3f565b6104d6565b60405161018e9190612d5a565b3480156101d057600080fd5b506101846101df366004612d93565b610587565b3480156101f057600080fd5b506101626101ff366004612d15565b610703565b610162610212366004612d15565b6107cd565b34801561022357600080fd5b5061022c610b01565b6040805192835260208301919091520161018e565b61016261024f366004612d3f565b610b88565b610162610262366004612d15565b611017565b34801561027357600080fd5b50610162610282366004612d15565b611258565b34801561029357600080fd5b5061029c6115a5565b60405161018e9190612e77565b3480156102b557600080fd5b506101626102c4366004612ec6565b611661565b3480156102d557600080fd5b506102e96102e4366004612d3f565b611690565b60405161018e9190612edf565b34801561030257600080fd5b50610162610311366004612eee565b6116c3565b34801561032257600080fd5b5061032b611701565b60405161018e9190612f20565b34801561034457600080fd5b506101626118a5565b34801561035957600080fd5b50610162611919565b34801561036e57600080fd5b506000546040516001600160a01b03909116815260200161018e565b34801561039657600080fd5b506101846103a5366004612d3f565b6119e4565b3480156103b657600080fd5b506101626103c5366004612eee565b611a92565b3480156103d657600080fd5b506101846103e5366004612d3f565b611ad0565b3480156103f657600080fd5b50601154610184565b34801561040b57600080fd5b5061016261041a366004612d3f565b611b69565b34801561042b57600080fd5b5061016261043a366004612d3f565b611bb5565b34801561044b57600080fd5b5061016261045a366004612d15565b611beb565b34801561046b57600080fd5b5061016261047a366004612ec6565b611f60565b600f546000906001600160a01b039081169084160361049f5750806104d0565b6a52b7d2dcc80cd2e40000006104cc6c0c9f2c9cd04674edea400000006104c68584612fa3565b90612028565b9150505b92915050565b6105086040518060a0016040528060008152602001600081526020016000815260200160008152602001600081525090565b6001600160a01b038216600090815260096020908152604091829020825160a081018452815481526001820154928101839052600282015493810193909352600380820154606085015260049091015460808401526105679190612028565b6020820152604081015161057c906003612028565b604082015292915050565b6040516370a0823160e01b81526001600160a01b03848116600483015260009182918516906370a0823190602401602060405180830381865afa1580156105d2573d6000803e3d6000fd5b505050506040513d601f19601f820116820180604052508101906105f69190612fba565b6040516370a0823160e01b81526001600160a01b0387811660048301529192506000918516906370a0823190602401602060405180830381865afa158015610642573d6000803e3d6000fd5b505050506040513d601f19601f820116820180604052508101906106669190612fba565b90506000846001600160a01b031663313ce5676040518163ffffffff1660e01b8152600401602060405180830381865afa1580156106a8573d6000803e3d6000fd5b505050506040513d601f19601f820116820180604052508101906106cc9190612fd3565b60ff16905060006106f7846104c66106e5856024612ff6565b6106f090600a6130ed565b869061203b565b98975050505050505050565b6000546001600160a01b031633146107365760405162461bcd60e51b815260040161072d906130f9565b60405180910390fd5b816001600160a01b031663a9059cbb6107576000546001600160a01b031690565b6040516001600160e01b031960e084901b1681526001600160a01b039091166004820152602481018490526044016020604051808303816000875af11580156107a4573d6000803e3d6000fd5b505050506040513d601f19601f820116820180604052508101906107c8919061312e565b505050565b6107d633612047565b600081116108165760405162461bcd60e51b815260206004820152600d60248201526c063616e2774207265706179203609c1b604482015260640161072d565b336000908152600c6020526040902054806108435760405162461bcd60e51b815260040161072d90613150565b6000818152600b602090815260408083206001600160a01b0387168452600581019092528220549091908410156108a9576001600160a01b03851660009081526005830160205260408120805486929061089e908490612ff6565b909155506109779050565b6001600160a01b038516600090815260038301602090815260408083205460058601909252909120546108dc9190613193565b84111561090457506001600160a01b038416600090815260038201602052604090205461092c565b6001600160a01b03851660009081526005830160205260409020546109299085612ff6565b90505b6001600160a01b038516600090815260038301602052604081208054839290610956908490612ff6565b90915550506001600160a01b03851660009081526005830160205260408120555b600f546001600160a01b0390811690861603610a7b57600f546040516323b872dd60e01b8152336004820152306024820152604481018690526001600160a01b03909116906323b872dd906064016020604051808303816000875af11580156109e4573d6000803e3d6000fd5b505050506040513d601f19601f82011682018060405250810190610a08919061312e565b610a435760405162461bcd60e51b815260206004820152600c60248201526b14995c185e4819985a5b195960a21b604482015260640161072d565b600f546001600160a01b031660009081526009602052604081206004018054839290610a70908490612ff6565b90915550610af19050565b83341015610abe5760405162461bcd60e51b815260206004820152601060248201526f283632b0b9b2903830bc9036b7b9329760811b604482015260640161072d565b600e546001600160a01b031660009081526009602052604081206004018054839290610aeb908490612ff6565b90915550505b610afa33612047565b5050505050565b600e546001600160a01b03908116600081815260096020526040808220600f549094168252812060038082015490850154929485949093610b42919061047f565b610b4c9190613193565b8160040154610b74600e60009054906101000a90046001600160a01b0316856004015461047f565b610b7e9190613193565b9350935050509091565b6001600160a01b0381166000908152600c602052604090205480610bbe5760405162461bcd60e51b815260040161072d90613150565b6000818152600b6020526040812090610bd684611ad0565b90506000610be3856119e4565b90506000610c0e60115484610bf89190612fa3565b610c03846064612fa3565b6104c6906064612fa3565b905060648111610c605760405162461bcd60e51b815260206004820152601f60248201527f54686973206973206e6f7420656e61626c6564206c69717569646174696f6e00604482015260640161072d565b600e546001600160a01b0316600090815260048501602090815260408083205460028801909252822054610c949190613193565b600f546001600160a01b0316600090815260048701602090815260408083205460028a019092528220549293509091610ccd9190613193565b600e546001600160a01b0316600090815260058801602090815260408083205460038b019092528220549293509091610d069190613193565b600f546001600160a01b0316600090815260058901602090815260408083205460038c019092528220549293509091610d3f9190613193565b9050610d4d82612710612028565b610d599061270f612fa3565b3411610d985760405162461bcd60e51b815260206004820152600e60248201526d09cdee840cadcdeeaced040cae8d60931b604482015260640161072d565b600f546001600160a01b03166323b872dd3330610db785612710612028565b610dc39061270f612fa3565b6040516001600160e01b031960e086901b1681526001600160a01b03938416600482015292909116602483015260448201526064016020604051808303816000875af1158015610e17573d6000803e3d6000fd5b505050506040513d601f19601f82011682018060405250810190610e3b919061312e565b610e785760405162461bcd60e51b815260206004820152600e60248201526d19195c1bdcda5d0819985a5b195960921b604482015260640161072d565b604051600090339086908381818185875af1925050503d8060008114610eba576040519150601f19603f3d011682016040523d82523d6000602084013e610ebf565b606091505b5050905080610f065760405162461bcd60e51b81526020600482015260136024820152723330b4b632b2103a379039b2b7321032ba341760691b604482015260640161072d565b600f5460405163a9059cbb60e01b8152336004820152602481018690526001600160a01b039091169063a9059cbb906044016020604051808303816000875af1158015610f57573d6000803e3d6000fd5b505050506040513d601f19601f82011682018060405250810190610f7b919061312e565b50600d5460068a015460405163a9059cbb60e01b815233600482015260248101919091526001600160a01b039091169063a9059cbb906044016020604051808303816000875af1158015610fd3573d6000803e3d6000fd5b505050506040513d601f19601f82011682018060405250810190610ff7919061312e565b506110018b6123e3565b61100a33612047565b5050505050505050505050565b600081116110595760405162461bcd60e51b815260206004820152600f60248201526e063616e2774206465706f736974203608c1b604482015260640161072d565b336000908152600c602052604081205481036110a3576001600a60008282546110829190613193565b9091555050600a54336000908152600c6020526040902081905590506110be565b50336000818152600c6020526040902054906110be90612047565b6000818152600b6020908152604080832080546001600160a01b031916331781554260018201556001600160a01b038716845260028101909252822080549192859261110b908490613193565b9091555050600f546001600160a01b039081169085160361121657600f546040516323b872dd60e01b8152336004820152306024820152604481018590526001600160a01b03909116906323b872dd906064016020604051808303816000875af115801561117d573d6000803e3d6000fd5b505050506040513d601f19601f820116820180604052508101906111a1919061312e565b6111de5760405162461bcd60e51b815260206004820152600e60248201526d19195c1bdcda5d0819985a5b195960921b604482015260640161072d565b600f546001600160a01b03166000908152600960205260408120600301805485929061120b908490613193565b909155506112499050565b600e546001600160a01b031660009081526009602052604081206003018054859290611243908490613193565b90915550505b61125233612047565b50505050565b600081116112995760405162461bcd60e51b815260206004820152600e60248201526d063616e277420626f72726f7720360941b604482015260640161072d565b336000908152600c6020526040902054806112c65760405162461bcd60e51b815260040161072d90613150565b6000818152600b60205260408120906112de33611ad0565b905060006112eb336119e4565b90508082101561133d5760405162461bcd60e51b815260206004820152601e60248201527f596f7520646f6e6f74206861766520616e7920636f6c6c61746572616c2e0000604482015260640161072d565b6000611349878761047f565b6001600160a01b03881660009081526009602052604090205490915061136f8383613193565b606461137b8387612fa3565b61138591906131a6565b116113c95760405162461bcd60e51b8152602060048201526014602482015273283632b0b9b2903232b837b9b4ba1036b7b9329760611b604482015260640161072d565b6001600160a01b0388166000908152600386016020526040812080548992906113f3908490613193565b90915550611402905033612047565b600e546001600160a01b03908116908916036114e957604051600090339089908381818185875af1925050503d806000811461145a576040519150601f19603f3d011682016040523d82523d6000602084013e61145f565b606091505b50509050806114b05760405162461bcd60e51b815260206004820152601c60248201527f6661696c656420746f2073656e642065746820696e7465726573742e00000000604482015260640161072d565b600e546001600160a01b0316600090815260096020526040812060040180548a92906114dd908490613193565b90915550611592915050565b600f5460405163a9059cbb60e01b8152336004820152602481018990526001600160a01b039091169063a9059cbb906044016020604051808303816000875af115801561153a573d6000803e3d6000fd5b505050506040513d601f19601f8201168201806040525081019061155e919061312e565b50600f546001600160a01b03166000908152600960205260408120600401805489929061158c908490613193565b90915550505b61159b33612047565b5050505050505050565b60606000600a5467ffffffffffffffff8111156115c4576115c46131c8565b6040519080825280602002602001820160405280156115fd57816020015b6115ea612c86565b8152602001906001900390816115e25790505b50905060015b600a54611611906001613193565b81101561165b5761162181612612565b8261162d600184612ff6565b8151811061163d5761163d6131de565b60200260200101819052508080611653906131f4565b915050611603565b50919050565b6000546001600160a01b0316331461168b5760405162461bcd60e51b815260040161072d906130f9565b601155565b611698612c86565b6001600160a01b0382166000908152600c6020526040812054906116bb82612612565b949350505050565b6000546001600160a01b031633146116ed5760405162461bcd60e51b815260040161072d906130f9565b600593909355600691909155600755600855565b600e546001600160a01b0316600090815260096020908152604091829020825160a081018452815481526001820154928101839052600282015493810193909352600380820154606085810191909152600490920154608085015290929161176891612028565b6020820152604081015161177d906003612028565b604080830191909152600f546001600160a01b031660009081526009602090815290829020825160a081018452815481526001820154928101839052600282015493810193909352600380820154606085015260049091015460808401526117e59190612028565b602082015260408101516117fa906003612028565b6040828101919091528051600280825260608201909252600091816020015b61184b6040518060a0016040528060008152602001600081526020016000815260200160008152602001600081525090565b8152602001906001900390816118195790505090508281600081518110611874576118746131de565b60200260200101819052508181600181518110611893576118936131de565b60209081029190910101529392505050565b6000546001600160a01b031633146118cf5760405162461bcd60e51b815260040161072d906130f9565b600080546040516001600160a01b03909116907f8be0079c531659141344cd1fd0a4f28419497f9722a3daafe3b4186f6b6457e0908390a3600080546001600160a01b0319169055565b336000908152600c6020526040902054806119465760405162461bcd60e51b815260040161072d90613150565b6000818152600b6020526040902061195d33612047565b600d54600682015460405163a9059cbb60e01b815233600482015260248101919091526001600160a01b039091169063a9059cbb906044016020604051808303816000875af11580156119b4573d6000803e3d6000fd5b505050506040513d601f19601f820116820180604052508101906119d8919061312e565b50600060069091015550565b60006119ef82612047565b6001600160a01b038083166000908152600c60209081526040808320548352600b8252808320600e54909416808452600385018352818420546005860190935290832054611a409261017f91613193565b600f546001600160a01b03166000818152600385016020908152604080832054600588019092528220549394509092611a7d929161017f91613193565b9050611a898183613193565b95945050505050565b6000546001600160a01b03163314611abc5760405162461bcd60e51b815260040161072d906130f9565b600193909355600291909155600355600455565b6000611adb82612047565b6001600160a01b038083166000908152600c60209081526040808320548352600b8252808320600e54909416808452600285018352818420546004860190935290832054611b2c9261017f91613193565b600f546001600160a01b03166000818152600285016020908152604080832054600488019092528220549394509092611a7d929161017f91613193565b6000546001600160a01b03163314611b935760405162461bcd60e51b815260040161072d906130f9565b601080546001600160a01b0319166001600160a01b0392909216919091179055565b6000546001600160a01b03163314611bdf5760405162461bcd60e51b815260040161072d906130f9565b611be881612bc6565b50565b60008111611c2e5760405162461bcd60e51b815260206004820152601060248201526f063616e277420776974686472617720360841b604482015260640161072d565b336000908152600c602052604090205480611c5b5760405162461bcd60e51b815260040161072d90613150565b6000818152600b60205260409020611c7233612047565b6000611c7d33611ad0565b90506000611c8a336119e4565b9050611c96868661047f565b611ca09082613193565b6001600160a01b038716600090815260096020526040902054606490611cc69085612fa3565b611cd091906131a6565b11611d345760405162461bcd60e51b815260206004820152602e60248201527f5769746864726177206661696c65642e596f7520646f6e6f742068617665206160448201526d373c9031b7b63630ba32b930b61760911b606482015260840161072d565b6001600160a01b0386166000908152600484016020526040902054851015611d8b576001600160a01b038616600090815260048401602052604081208054879290611d80908490612ff6565b90915550611e249050565b6001600160a01b0386166000908152600484016020526040812054611db09087612ff6565b6001600160a01b0388166000908152600286016020526040812080549293508392909190611ddf908490612ff6565b90915550506001600160a01b038716600090815260048086016020908152604080842084905560099091528220018054839290611e1d908490612ff6565b9091555050505b600e546001600160a01b0390811690871603611ed857604051600090339087908381818185875af1925050503d8060008114611e7c576040519150601f19603f3d011682016040523d82523d6000602084013e611e81565b606091505b5050905080611ed25760405162461bcd60e51b815260206004820152601c60248201527f6661696c656420746f2073656e642065746820696e7465726573742e00000000604482015260640161072d565b50611f4f565b600f5460405163a9059cbb60e01b8152336004820152602481018790526001600160a01b039091169063a9059cbb906044016020604051808303816000875af1158015611f29573d6000803e3d6000fd5b505050506040513d601f19601f82011682018060405250810190611f4d919061312e565b505b611f5833612047565b505050505050565b6000546001600160a01b03163314611f8a5760405162461bcd60e51b815260040161072d906130f9565b600080546040516001600160a01b039091169083908381818185875af1925050503d8060008114611fd7576040519150601f19603f3d011682016040523d82523d6000602084013e611fdc565b606091505b50509050806120245760405162461bcd60e51b81526020600482015260146024820152732330b4b632b2103a379039b2b7321022ba3432b960611b604482015260640161072d565b5050565b600061203482846131a6565b9392505050565b60006120348284612fa3565b6001600160a01b0381166000908152600c60205260409020546120ac5760405162461bcd60e51b815260206004820152601a60248201527f557365722073686f756c64206465706f736974206265666f7265000000000000604482015260640161072d565b6001600160a01b0381166000818152600c6020818152604080842054808552600b83529084209484529190526120e190612612565b610100810151600684015560c0810151600e80546001600160a01b0390811660009081526004870160208181526040808420969096556080870151945484168352600589018082528684209590955560e0870151600f8054861685529282528684205560a08701519154909316825292909152918220554260018501559091508061216a610b01565b9092509050811561232c576000612186836104c6846064612fa3565b905060008160056001015411156121c0576006546007546121ac91906104c69085612fa3565b6005546121b99190613193565b9050612209565b6006546121ec906121d2906064612ff6565b6008546006546121e29086612ff6565b6104c69190612fa3565b6007546005546121fc9190613193565b6122069190613193565b90505b600082600180015411156122405760025460035461222c91906104c69086612fa3565b6001546122399190613193565b905061227f565b60025461226290612252906064612ff6565b6004546002546121e29087612ff6565b6003546001546122729190613193565b61227c9190613193565b90505b61228a816003612fa3565b600e546001600160a01b03166000908152600960205260409020600101556122b3826003612fa3565b600e546001600160a01b03166000908152600960205260409020600201556122dc816003612fa3565b600f546001600160a01b0316600090815260096020526040902060010155612305826003612fa3565b600f546001600160a01b031660009081526009602052604090206002015550610afa915050565b60015461233a906003612fa3565b600e546001600160a01b0316600090815260096020526040902060010155600554612366906003612fa3565b600e546001600160a01b0316600090815260096020526040902060020155600154612392906003612fa3565b600f546001600160a01b03166000908152600960205260409020600101556005546123be906003612fa3565b600f546001600160a01b03166000908152600960205260409020600201555050505050565b6001600160a01b0381166000908152600c60205260409020546124485760405162461bcd60e51b815260206004820152601a60248201527f557365722073686f756c64206465706f736974206265666f7265000000000000604482015260640161072d565b6001600160a01b038082166000908152600c60209081526040808320548352600b8252808320600e549094168352600284018252808320546009909252822060030180549192909161249b908490612ff6565b9091555050600e546001600160a01b03166000908152600382016020908152604080832054600990925282206004018054919290916124db908490612ff6565b9091555050600e80546001600160a01b039081166000908152600284016020818152604080842084905585548516845260038088018352818520859055865486168552600488018352818520859055955485168452600587018252808420849055600f549094168352908152828220546009909152918120909201805491929091612567908490612ff6565b9091555050600f546001600160a01b03166000908152600382016020908152604080832054600990925282206004018054919290916125a7908490612ff6565b9091555050600f80546001600160a01b0390811660009081526002840160209081526040808320839055845484168352600386018252808320839055845484168352600486018252808320839055935490921681526005840190915290812081905560069091015550565b61261a612c86565b8115612b46576000828152600b602052604081206001810154909161263f8242612ff6565b600e546012546001600160a01b0390911660008181526009602090815260408083206001015460028a019092528220549495509093612699939186916126859190612fa3565b61268f9190612fa3565b61017f91906131a6565b84600601546126a89190613193565b601254600e546001600160a01b031660009081526009602090815260408083206001015460028a01909252822054939450909285916126e691612fa3565b6126f09190612fa3565b6126fa91906131a6565b600e546001600160a01b031660009081526004870160205260409020546127219190613193565b601254600e546001600160a01b031660009081526009602090815260408083206002015460038b019092528220549394509092869161275f91612fa3565b6127699190612fa3565b61277391906131a6565b600e546001600160a01b0316600090815260058801602052604090205461279a9190613193565b600f546012546001600160a01b0390911660008181526009602090815260408083206001015460028d01909252909120549394506127e093919291889161268591612fa3565b86600601546127ef9190613193565b6127f99084613193565b601254600f546001600160a01b031660009081526009602090815260408083206001015460028c019092528220549396509092879161283791612fa3565b6128419190612fa3565b61284b91906131a6565b600f546001600160a01b031660009081526004890160205260409020546128729190613193565b601254600f546001600160a01b031660009081526009602090815260408083206002015460038d01909252822054939450909288916128b091612fa3565b6128ba9190612fa3565b6128c491906131a6565b600f546001600160a01b0316600090815260058a0160205260409020546128eb9190613193565b90506000604051806101c001604052808a6002016000600e60009054906101000a90046001600160a01b03166001600160a01b03166001600160a01b031681526020019081526020016000205481526020018a6002016000600f60009054906101000a90046001600160a01b03166001600160a01b03166001600160a01b031681526020019081526020016000205481526020018a6003016000600e60009054906101000a90046001600160a01b03166001600160a01b03166001600160a01b031681526020019081526020016000205481526020018a6003016000600f60009054906101000a90046001600160a01b03166001600160a01b03166001600160a01b03168152602001908152602001600020548152602001858152602001838152602001868152602001848152602001878152602001612a82600e60009054906101000a90046001600160a01b0316888d6002016000600e60009054906101000a90046001600160a01b03166001600160a01b03166001600160a01b031681526020019081526020016000205461017f9190613193565b8152600f546001600160a01b0316600081815260028d016020908152604090912054920191612ab7919061017f908890613193565b8152600e546001600160a01b0316600081815260038d016020908152604090912054920191612aec919061017f908990613193565b8152600f546001600160a01b0316600081815260038d016020908152604090912054920191612b21919061017f908790613193565b815299546001600160a01b03166020909a019990995250969998505050505050505050565b604051806101c0016040528060008152602001600081526020016000815260200160008152602001600081526020016000815260200160008152602001600081526020016000815260200160008152602001600081526020016000815260200160008152602001336001600160a01b03168152509050919050565b919050565b6001600160a01b038116612c2b5760405162461bcd60e51b815260206004820152602660248201527f4f776e61626c653a206e6577206f776e657220697320746865207a65726f206160448201526564647265737360d01b606482015260840161072d565b600080546040516001600160a01b03808516939216917f8be0079c531659141344cd1fd0a4f28419497f9722a3daafe3b4186f6b6457e091a3600080546001600160a01b0319166001600160a01b0392909216919091179055565b604051806101c001604052806000815260200160008152602001600081526020016000815260200160008152602001600081526020016000815260200160008152602001600081526020016000815260200160008152602001600081526020016000815260200160006001600160a01b031681525090565b80356001600160a01b0381168114612bc157600080fd5b60008060408385031215612d2857600080fd5b612d3183612cfe565b946020939093013593505050565b600060208284031215612d5157600080fd5b61203482612cfe565b60a081016104d0828480518252602081015160208301526040810151604083015260608101516060830152608081015160808301525050565b600080600060608486031215612da857600080fd5b612db184612cfe565b9250612dbf60208501612cfe565b9150612dcd60408501612cfe565b90509250925092565b805182526020810151602083015260408101516040830152606081015160608301526080810151608083015260a081015160a083015260c081015160c083015260e081015160e08301526101008082015181840152506101208082015181840152506101408082015181840152506101608082015181840152506101808082015181840152506101a080820151611252828501826001600160a01b03169052565b6020808252825182820181905260009190848201906040850190845b81811015612eba57612ea6838551612dd6565b928401926101c09290920191600101612e93565b50909695505050505050565b600060208284031215612ed857600080fd5b5035919050565b6101c081016104d08284612dd6565b60008060008060808587031215612f0457600080fd5b5050823594602084013594506040840135936060013592509050565b6020808252825182820181905260009190848201906040850190845b81811015612eba57612f7a83855180518252602081015160208301526040810151604083015260608101516060830152608081015160808301525050565b9284019260a09290920191600101612f3c565b634e487b7160e01b600052601160045260246000fd5b80820281158282048414176104d0576104d0612f8d565b600060208284031215612fcc57600080fd5b5051919050565b600060208284031215612fe557600080fd5b815160ff8116811461203457600080fd5b818103818111156104d0576104d0612f8d565b600181815b8085111561304457816000190482111561302a5761302a612f8d565b8085161561303757918102915b93841c939080029061300e565b509250929050565b60008261305b575060016104d0565b81613068575060006104d0565b816001811461307e5760028114613088576130a4565b60019150506104d0565b60ff84111561309957613099612f8d565b50506001821b6104d0565b5060208310610133831016604e8410600b84101617156130c7575081810a6104d0565b6130d18383613009565b80600019048211156130e5576130e5612f8d565b029392505050565b6000612034838361304c565b6020808252818101527f4f776e61626c653a2063616c6c6572206973206e6f7420746865206f776e6572604082015260600190565b60006020828403121561314057600080fd5b8151801515811461203457600080fd5b60208082526023908201527f5573657220696e6465782073686f756c6420626520626967676572207468616e60408201526210181760e91b606082015260800190565b808201808211156104d0576104d0612f8d565b6000826131c357634e487b7160e01b600052601260045260246000fd5b500490565b634e487b7160e01b600052604160045260246000fd5b634e487b7160e01b600052603260045260246000fd5b60006001820161320657613206612f8d565b506001019056fea26469706673582212209e47a9a13dace92c4b29e3544d9e62468b201c36121058db47c33880160f2c7d64736f6c634300081200334f776e61626c653a2063616c6c6572206973206e6f7420746865206f776e6572","opcodes":"PUSH1 0x80 PUSH1 0x40 MSTORE PUSH1 0x3 PUSH1 0x11 SSTORE PUSH5 0x174876E800 PUSH1 0x12 SSTORE CALLVALUE DUP1 ISZERO PUSH3 0x1F JUMPI PUSH1 0x0 DUP1 REVERT JUMPDEST POP PUSH1 0x40 MLOAD PUSH3 0x3563 CODESIZE SUB DUP1 PUSH3 0x3563 DUP4 CODECOPY DUP2 ADD PUSH1 0x40 DUP2 SWAP1 MSTORE PUSH3 0x42 SWAP2 PUSH3 0x267 JUMP JUMPDEST PUSH1 0x0 DUP1 SLOAD PUSH1 0x1 PUSH1 0x1 PUSH1 0xA0 SHL SUB NOT AND CALLER SWAP1 DUP2 OR DUP3 SSTORE PUSH1 0x40 MLOAD SWAP1 SWAP2 DUP3 SWAP2 PUSH32 0x8BE0079C531659141344CD1FD0A4F28419497F9722A3DAAFE3B4186F6B6457E0 SWAP1 DUP3 SWAP1 LOG3 POP PUSH1 0xD DUP1 SLOAD PUSH1 0x1 PUSH1 0x1 PUSH1 0xA0 SHL SUB DUP1 DUP8 AND PUSH1 0x1 PUSH1 0x1 PUSH1 0xA0 SHL SUB NOT SWAP3 DUP4 AND OR SWAP1 SWAP3 SSTORE PUSH1 0xE DUP1 SLOAD DUP7 DUP5 AND SWAP1 DUP4 AND DUP2 OR SWAP1 SWAP2 SSTORE PUSH1 0xF DUP1 SLOAD DUP7 DUP6 AND SWAP1 DUP5 AND OR SWAP1 SSTORE PUSH1 0x10 DUP1 SLOAD SWAP4 DUP6 AND SWAP4 SWAP1 SWAP3 AND SWAP3 SWAP1 SWAP3 OR SWAP1 SSTORE PUSH3 0xE3 SWAP1 PUSH1 0x50 PUSH1 0x32 PUSH1 0x64 PUSH1 0x0 DUP1 PUSH3 0x135 JUMP JUMPDEST PUSH1 0xF SLOAD PUSH3 0x103 SWAP1 PUSH1 0x1 PUSH1 0x1 PUSH1 0xA0 SHL SUB AND PUSH1 0x50 PUSH1 0x32 PUSH1 0x64 PUSH1 0x0 DUP1 PUSH3 0x135 JUMP JUMPDEST PUSH3 0x117 PUSH1 0x64 PUSH1 0x46 PUSH2 0x1F4 PUSH2 0xA28 PUSH3 0x188 JUMP JUMPDEST PUSH3 0x12B PUSH1 0x32 PUSH1 0x46 PUSH2 0x12C PUSH2 0x7D0 PUSH3 0x1EB JUMP JUMPDEST POP POP POP POP PUSH3 0x2F0 JUMP JUMPDEST PUSH1 0x1 PUSH1 0x1 PUSH1 0xA0 SHL SUB DUP7 AND PUSH1 0x0 SWAP1 DUP2 MSTORE PUSH1 0x9 PUSH1 0x20 MSTORE PUSH1 0x40 SWAP1 KECCAK256 DUP6 DUP2 SSTORE PUSH3 0x15D DUP6 PUSH1 0x3 PUSH3 0x2C4 JUMP JUMPDEST PUSH1 0x1 DUP3 ADD SSTORE PUSH3 0x16F DUP5 PUSH1 0x3 PUSH3 0x2C4 JUMP JUMPDEST PUSH1 0x2 DUP3 ADD SSTORE PUSH1 0x3 DUP2 ADD SWAP3 SWAP1 SWAP3 SSTORE PUSH1 0x4 SWAP1 SWAP2 ADD SSTORE POP POP POP POP JUMP JUMPDEST PUSH1 0x0 SLOAD PUSH1 0x1 PUSH1 0x1 PUSH1 0xA0 SHL SUB AND CALLER EQ PUSH3 0x1D7 JUMPI PUSH1 0x40 MLOAD PUSH3 0x461BCD PUSH1 0xE5 SHL DUP2 MSTORE PUSH1 0x20 PUSH1 0x4 DUP3 ADD DUP2 SWAP1 MSTORE PUSH1 0x24 DUP3 ADD MSTORE PUSH1 0x0 DUP1 MLOAD PUSH1 0x20 PUSH3 0x3543 DUP4 CODECOPY DUP2 MLOAD SWAP2 MSTORE PUSH1 0x44 DUP3 ADD MSTORE PUSH1 0x64 ADD JUMPDEST PUSH1 0x40 MLOAD DUP1 SWAP2 SUB SWAP1 REVERT JUMPDEST PUSH1 0x5 SWAP4 SWAP1 SWAP4 SSTORE PUSH1 0x6 SWAP2 SWAP1 SWAP2 SSTORE PUSH1 0x7 SSTORE PUSH1 0x8 SSTORE JUMP JUMPDEST PUSH1 0x0 SLOAD PUSH1 0x1 PUSH1 0x1 PUSH1 0xA0 SHL SUB AND CALLER EQ PUSH3 0x236 JUMPI PUSH1 0x40 MLOAD PUSH3 0x461BCD PUSH1 0xE5 SHL DUP2 MSTORE PUSH1 0x20 PUSH1 0x4 DUP3 ADD DUP2 SWAP1 MSTORE PUSH1 0x24 DUP3 ADD MSTORE PUSH1 0x0 DUP1 MLOAD PUSH1 0x20 PUSH3 0x3543 DUP4 CODECOPY DUP2 MLOAD SWAP2 MSTORE PUSH1 0x44 DUP3 ADD MSTORE PUSH1 0x64 ADD PUSH3 0x1CE JUMP JUMPDEST PUSH1 0x1 SWAP4 SWAP1 SWAP4 SSTORE PUSH1 0x2 SWAP2 SWAP1 SWAP2 SSTORE PUSH1 0x3 SSTORE PUSH1 0x4 SSTORE JUMP JUMPDEST DUP1 MLOAD PUSH1 0x1 PUSH1 0x1 PUSH1 0xA0 SHL SUB DUP2 AND DUP2 EQ PUSH3 0x262 JUMPI PUSH1 0x0 DUP1 REVERT JUMPDEST SWAP2 SWAP1 POP JUMP JUMPDEST PUSH1 0x0 DUP1 PUSH1 0x0 DUP1 PUSH1 0x80 DUP6 DUP8 SUB SLT ISZERO PUSH3 0x27E JUMPI PUSH1 0x0 DUP1 REVERT JUMPDEST PUSH3 0x289 DUP6 PUSH3 0x24A JUMP JUMPDEST SWAP4 POP PUSH3 0x299 PUSH1 0x20 DUP7 ADD PUSH3 0x24A JUMP JUMPDEST SWAP3 POP PUSH3 0x2A9 PUSH1 0x40 DUP7 ADD PUSH3 0x24A JUMP JUMPDEST SWAP2 POP PUSH3 0x2B9 PUSH1 0x60 DUP7 ADD PUSH3 0x24A JUMP JUMPDEST SWAP1 POP SWAP3 SWAP6 SWAP2 SWAP5 POP SWAP3 POP JUMP JUMPDEST DUP1 DUP3 MUL DUP2 ISZERO DUP3 DUP3 DIV DUP5 EQ OR PUSH3 0x2EA JUMPI PUSH4 0x4E487B71 PUSH1 0xE0 SHL PUSH1 0x0 MSTORE PUSH1 0x11 PUSH1 0x4 MSTORE PUSH1 0x24 PUSH1 0x0 REVERT JUMPDEST SWAP3 SWAP2 POP POP JUMP JUMPDEST PUSH2 0x3243 DUP1 PUSH3 0x300 PUSH1 0x0 CODECOPY PUSH1 0x0 RETURN INVALID PUSH1 0x80 PUSH1 0x40 MSTORE PUSH1 0x4 CALLDATASIZE LT PUSH2 0x15B JUMPI PUSH1 0x0 CALLDATALOAD PUSH1 0xE0 SHR DUP1 PUSH4 0x660FD831 GT PUSH2 0xC8 JUMPI DUP1 PUSH4 0xA079722D GT PUSH2 0x84 JUMPI DUP1 PUSH4 0xE9E15B4F GT PUSH2 0x61 JUMPI DUP1 PUSH4 0xE9E15B4F EQ PUSH2 0x3FF JUMPI DUP1 PUSH4 0xF2FDE38B EQ PUSH2 0x41F JUMPI DUP1 PUSH4 0xF3FEF3A3 EQ PUSH2 0x43F JUMPI DUP1 PUSH4 0xFE96973A EQ PUSH2 0x45F JUMPI STOP JUMPDEST DUP1 PUSH4 0xA079722D EQ PUSH2 0x3AA JUMPI DUP1 PUSH4 0xA5FDC5DE EQ PUSH2 0x3CA JUMPI DUP1 PUSH4 0xE124787F EQ PUSH2 0x3EA JUMPI STOP JUMPDEST DUP1 PUSH4 0x660FD831 EQ PUSH2 0x2F6 JUMPI DUP1 PUSH4 0x68795862 EQ PUSH2 0x316 JUMPI DUP1 PUSH4 0x715018A6 EQ PUSH2 0x338 JUMPI DUP1 PUSH4 0x838AFB1E EQ PUSH2 0x34D JUMPI DUP1 PUSH4 0x8DA5CB5B EQ PUSH2 0x362 JUMPI DUP1 PUSH4 0x9B6C56EC EQ PUSH2 0x38A JUMPI STOP JUMPDEST DUP1 PUSH4 0x2F865568 GT PUSH2 0x117 JUMPI DUP1 PUSH4 0x2F865568 EQ PUSH2 0x241 JUMPI DUP1 PUSH4 0x47E7EF24 EQ PUSH2 0x254 JUMPI DUP1 PUSH4 0x4B8A3529 EQ PUSH2 0x267 JUMPI DUP1 PUSH4 0x5063E91A EQ PUSH2 0x287 JUMPI DUP1 PUSH4 0x616571E7 EQ PUSH2 0x2A9 JUMPI DUP1 PUSH4 0x6386C1C7 EQ PUSH2 0x2C9 JUMPI STOP JUMPDEST DUP1 PUSH4 0x5CB9FDE EQ PUSH2 0x164 JUMPI DUP1 PUSH4 0x6BFA938 EQ PUSH2 0x197 JUMPI DUP1 PUSH4 0x14658AC7 EQ PUSH2 0x1C4 JUMPI DUP1 PUSH4 0x1698755F EQ PUSH2 0x1E4 JUMPI DUP1 PUSH4 0x22867D78 EQ PUSH2 0x204 JUMPI DUP1 PUSH4 0x23341A05 EQ PUSH2 0x217 JUMPI STOP JUMPDEST CALLDATASIZE PUSH2 0x162 JUMPI STOP JUMPDEST STOP JUMPDEST CALLVALUE DUP1 ISZERO PUSH2 0x170 JUMPI PUSH1 0x0 DUP1 REVERT JUMPDEST POP PUSH2 0x184 PUSH2 0x17F CALLDATASIZE PUSH1 0x4 PUSH2 0x2D15 JUMP JUMPDEST PUSH2 0x47F JUMP JUMPDEST PUSH1 0x40 MLOAD SWAP1 DUP2 MSTORE PUSH1 0x20 ADD JUMPDEST PUSH1 0x40 MLOAD DUP1 SWAP2 SUB SWAP1 RETURN JUMPDEST CALLVALUE DUP1 ISZERO PUSH2 0x1A3 JUMPI PUSH1 0x0 DUP1 REVERT JUMPDEST POP PUSH2 0x1B7 PUSH2 0x1B2 CALLDATASIZE PUSH1 0x4 PUSH2 0x2D3F JUMP JUMPDEST PUSH2 0x4D6 JUMP JUMPDEST PUSH1 0x40 MLOAD PUSH2 0x18E SWAP2 SWAP1 PUSH2 0x2D5A JUMP JUMPDEST CALLVALUE DUP1 ISZERO PUSH2 0x1D0 JUMPI PUSH1 0x0 DUP1 REVERT JUMPDEST POP PUSH2 0x184 PUSH2 0x1DF CALLDATASIZE PUSH1 0x4 PUSH2 0x2D93 JUMP JUMPDEST PUSH2 0x587 JUMP JUMPDEST CALLVALUE DUP1 ISZERO PUSH2 0x1F0 JUMPI PUSH1 0x0 DUP1 REVERT JUMPDEST POP PUSH2 0x162 PUSH2 0x1FF CALLDATASIZE PUSH1 0x4 PUSH2 0x2D15 JUMP JUMPDEST PUSH2 0x703 JUMP JUMPDEST PUSH2 0x162 PUSH2 0x212 CALLDATASIZE PUSH1 0x4 PUSH2 0x2D15 JUMP JUMPDEST PUSH2 0x7CD JUMP JUMPDEST CALLVALUE DUP1 ISZERO PUSH2 0x223 JUMPI PUSH1 0x0 DUP1 REVERT JUMPDEST POP PUSH2 0x22C PUSH2 0xB01 JUMP JUMPDEST PUSH1 0x40 DUP1 MLOAD SWAP3 DUP4 MSTORE PUSH1 0x20 DUP4 ADD SWAP2 SWAP1 SWAP2 MSTORE ADD PUSH2 0x18E JUMP JUMPDEST PUSH2 0x162 PUSH2 0x24F CALLDATASIZE PUSH1 0x4 PUSH2 0x2D3F JUMP JUMPDEST PUSH2 0xB88 JUMP JUMPDEST PUSH2 0x162 PUSH2 0x262 CALLDATASIZE PUSH1 0x4 PUSH2 0x2D15 JUMP JUMPDEST PUSH2 0x1017 JUMP JUMPDEST CALLVALUE DUP1 ISZERO PUSH2 0x273 JUMPI PUSH1 0x0 DUP1 REVERT JUMPDEST POP PUSH2 0x162 PUSH2 0x282 CALLDATASIZE PUSH1 0x4 PUSH2 0x2D15 JUMP JUMPDEST PUSH2 0x1258 JUMP JUMPDEST CALLVALUE DUP1 ISZERO PUSH2 0x293 JUMPI PUSH1 0x0 DUP1 REVERT JUMPDEST POP PUSH2 0x29C PUSH2 0x15A5 JUMP JUMPDEST PUSH1 0x40 MLOAD PUSH2 0x18E SWAP2 SWAP1 PUSH2 0x2E77 JUMP JUMPDEST CALLVALUE DUP1 ISZERO PUSH2 0x2B5 JUMPI PUSH1 0x0 DUP1 REVERT JUMPDEST POP PUSH2 0x162 PUSH2 0x2C4 CALLDATASIZE PUSH1 0x4 PUSH2 0x2EC6 JUMP JUMPDEST PUSH2 0x1661 JUMP JUMPDEST CALLVALUE DUP1 ISZERO PUSH2 0x2D5 JUMPI PUSH1 0x0 DUP1 REVERT JUMPDEST POP PUSH2 0x2E9 PUSH2 0x2E4 CALLDATASIZE PUSH1 0x4 PUSH2 0x2D3F JUMP JUMPDEST PUSH2 0x1690 JUMP JUMPDEST PUSH1 0x40 MLOAD PUSH2 0x18E SWAP2 SWAP1 PUSH2 0x2EDF JUMP JUMPDEST CALLVALUE DUP1 ISZERO PUSH2 0x302 JUMPI PUSH1 0x0 DUP1 REVERT JUMPDEST POP PUSH2 0x162 PUSH2 0x311 CALLDATASIZE PUSH1 0x4 PUSH2 0x2EEE JUMP JUMPDEST PUSH2 0x16C3 JUMP JUMPDEST CALLVALUE DUP1 ISZERO PUSH2 0x322 JUMPI PUSH1 0x0 DUP1 REVERT JUMPDEST POP PUSH2 0x32B PUSH2 0x1701 JUMP JUMPDEST PUSH1 0x40 MLOAD PUSH2 0x18E SWAP2 SWAP1 PUSH2 0x2F20 JUMP JUMPDEST CALLVALUE DUP1 ISZERO PUSH2 0x344 JUMPI PUSH1 0x0 DUP1 REVERT JUMPDEST POP PUSH2 0x162 PUSH2 0x18A5 JUMP JUMPDEST CALLVALUE DUP1 ISZERO PUSH2 0x359 JUMPI PUSH1 0x0 DUP1 REVERT JUMPDEST POP PUSH2 0x162 PUSH2 0x1919 JUMP JUMPDEST CALLVALUE DUP1 ISZERO PUSH2 0x36E JUMPI PUSH1 0x0 DUP1 REVERT JUMPDEST POP PUSH1 0x0 SLOAD PUSH1 0x40 MLOAD PUSH1 0x1 PUSH1 0x1 PUSH1 0xA0 SHL SUB SWAP1 SWAP2 AND DUP2 MSTORE PUSH1 0x20 ADD PUSH2 0x18E JUMP JUMPDEST CALLVALUE DUP1 ISZERO PUSH2 0x396 JUMPI PUSH1 0x0 DUP1 REVERT JUMPDEST POP PUSH2 0x184 PUSH2 0x3A5 CALLDATASIZE PUSH1 0x4 PUSH2 0x2D3F JUMP JUMPDEST PUSH2 0x19E4 JUMP JUMPDEST CALLVALUE DUP1 ISZERO PUSH2 0x3B6 JUMPI PUSH1 0x0 DUP1 REVERT JUMPDEST POP PUSH2 0x162 PUSH2 0x3C5 CALLDATASIZE PUSH1 0x4 PUSH2 0x2EEE JUMP JUMPDEST PUSH2 0x1A92 JUMP JUMPDEST CALLVALUE DUP1 ISZERO PUSH2 0x3D6 JUMPI PUSH1 0x0 DUP1 REVERT JUMPDEST POP PUSH2 0x184 PUSH2 0x3E5 CALLDATASIZE PUSH1 0x4 PUSH2 0x2D3F JUMP JUMPDEST PUSH2 0x1AD0 JUMP JUMPDEST CALLVALUE DUP1 ISZERO PUSH2 0x3F6 JUMPI PUSH1 0x0 DUP1 REVERT JUMPDEST POP PUSH1 0x11 SLOAD PUSH2 0x184 JUMP JUMPDEST CALLVALUE DUP1 ISZERO PUSH2 0x40B JUMPI PUSH1 0x0 DUP1 REVERT JUMPDEST POP PUSH2 0x162 PUSH2 0x41A CALLDATASIZE PUSH1 0x4 PUSH2 0x2D3F JUMP JUMPDEST PUSH2 0x1B69 JUMP JUMPDEST CALLVALUE DUP1 ISZERO PUSH2 0x42B JUMPI PUSH1 0x0 DUP1 REVERT JUMPDEST POP PUSH2 0x162 PUSH2 0x43A CALLDATASIZE PUSH1 0x4 PUSH2 0x2D3F JUMP JUMPDEST PUSH2 0x1BB5 JUMP JUMPDEST CALLVALUE DUP1 ISZERO PUSH2 0x44B JUMPI PUSH1 0x0 DUP1 REVERT JUMPDEST POP PUSH2 0x162 PUSH2 0x45A CALLDATASIZE PUSH1 0x4 PUSH2 0x2D15 JUMP JUMPDEST PUSH2 0x1BEB JUMP JUMPDEST CALLVALUE DUP1 ISZERO PUSH2 0x46B JUMPI PUSH1 0x0 DUP1 REVERT JUMPDEST POP PUSH2 0x162 PUSH2 0x47A CALLDATASIZE PUSH1 0x4 PUSH2 0x2EC6 JUMP JUMPDEST PUSH2 0x1F60 JUMP JUMPDEST PUSH1 0xF SLOAD PUSH1 0x0 SWAP1 PUSH1 0x1 PUSH1 0x1 PUSH1 0xA0 SHL SUB SWAP1 DUP2 AND SWAP1 DUP5 AND SUB PUSH2 0x49F JUMPI POP DUP1 PUSH2 0x4D0 JUMP JUMPDEST PUSH11 0x52B7D2DCC80CD2E4000000 PUSH2 0x4CC PUSH13 0xC9F2C9CD04674EDEA40000000 PUSH2 0x4C6 DUP6 DUP5 PUSH2 0x2FA3 JUMP JUMPDEST SWAP1 PUSH2 0x2028 JUMP JUMPDEST SWAP2 POP POP JUMPDEST SWAP3 SWAP2 POP POP JUMP JUMPDEST PUSH2 0x508 PUSH1 0x40 MLOAD DUP1 PUSH1 0xA0 ADD PUSH1 0x40 MSTORE DUP1 PUSH1 0x0 DUP2 MSTORE PUSH1 0x20 ADD PUSH1 0x0 DUP2 MSTORE PUSH1 0x20 ADD PUSH1 0x0 DUP2 MSTORE PUSH1 0x20 ADD PUSH1 0x0 DUP2 MSTORE PUSH1 0x20 ADD PUSH1 0x0 DUP2 MSTORE POP SWAP1 JUMP JUMPDEST PUSH1 0x1 PUSH1 0x1 PUSH1 0xA0 SHL SUB DUP3 AND PUSH1 0x0 SWAP1 DUP2 MSTORE PUSH1 0x9 PUSH1 0x20 SWAP1 DUP2 MSTORE PUSH1 0x40 SWAP2 DUP3 SWAP1 KECCAK256 DUP3 MLOAD PUSH1 0xA0 DUP2 ADD DUP5 MSTORE DUP2 SLOAD DUP2 MSTORE PUSH1 0x1 DUP3 ADD SLOAD SWAP3 DUP2 ADD DUP4 SWAP1 MSTORE PUSH1 0x2 DUP3 ADD SLOAD SWAP4 DUP2 ADD SWAP4 SWAP1 SWAP4 MSTORE PUSH1 0x3 DUP1 DUP3 ADD SLOAD PUSH1 0x60 DUP6 ADD MSTORE PUSH1 0x4 SWAP1 SWAP2 ADD SLOAD PUSH1 0x80 DUP5 ADD MSTORE PUSH2 0x567 SWAP2 SWAP1 PUSH2 0x2028 JUMP JUMPDEST PUSH1 0x20 DUP3 ADD MSTORE PUSH1 0x40 DUP2 ADD MLOAD PUSH2 0x57C SWAP1 PUSH1 0x3 PUSH2 0x2028 JUMP JUMPDEST PUSH1 0x40 DUP3 ADD MSTORE SWAP3 SWAP2 POP POP JUMP JUMPDEST PUSH1 0x40 MLOAD PUSH4 0x70A08231 PUSH1 0xE0 SHL DUP2 MSTORE PUSH1 0x1 PUSH1 0x1 PUSH1 0xA0 SHL SUB DUP5 DUP2 AND PUSH1 0x4 DUP4 ADD MSTORE PUSH1 0x0 SWAP2 DUP3 SWAP2 DUP6 AND SWAP1 PUSH4 0x70A08231 SWAP1 PUSH1 0x24 ADD PUSH1 0x20 PUSH1 0x40 MLOAD DUP1 DUP4 SUB DUP2 DUP7 GAS STATICCALL ISZERO DUP1 ISZERO PUSH2 0x5D2 JUMPI RETURNDATASIZE PUSH1 0x0 DUP1 RETURNDATACOPY RETURNDATASIZE PUSH1 0x0 REVERT JUMPDEST POP POP POP POP PUSH1 0x40 MLOAD RETURNDATASIZE PUSH1 0x1F NOT PUSH1 0x1F DUP3 ADD AND DUP3 ADD DUP1 PUSH1 0x40 MSTORE POP DUP2 ADD SWAP1 PUSH2 0x5F6 SWAP2 SWAP1 PUSH2 0x2FBA JUMP JUMPDEST PUSH1 0x40 MLOAD PUSH4 0x70A08231 PUSH1 0xE0 SHL DUP2 MSTORE PUSH1 0x1 PUSH1 0x1 PUSH1 0xA0 SHL SUB DUP8 DUP2 AND PUSH1 0x4 DUP4 ADD MSTORE SWAP2 SWAP3 POP PUSH1 0x0 SWAP2 DUP6 AND SWAP1 PUSH4 0x70A08231 SWAP1 PUSH1 0x24 ADD PUSH1 0x20 PUSH1 0x40 MLOAD DUP1 DUP4 SUB DUP2 DUP7 GAS STATICCALL ISZERO DUP1 ISZERO PUSH2 0x642 JUMPI RETURNDATASIZE PUSH1 0x0 DUP1 RETURNDATACOPY RETURNDATASIZE PUSH1 0x0 REVERT JUMPDEST POP POP POP POP PUSH1 0x40 MLOAD RETURNDATASIZE PUSH1 0x1F NOT PUSH1 0x1F DUP3 ADD AND DUP3 ADD DUP1 PUSH1 0x40 MSTORE POP DUP2 ADD SWAP1 PUSH2 0x666 SWAP2 SWAP1 PUSH2 0x2FBA JUMP JUMPDEST SWAP1 POP PUSH1 0x0 DUP5 PUSH1 0x1 PUSH1 0x1 PUSH1 0xA0 SHL SUB AND PUSH4 0x313CE567 PUSH1 0x40 MLOAD DUP2 PUSH4 0xFFFFFFFF AND PUSH1 0xE0 SHL DUP2 MSTORE PUSH1 0x4 ADD PUSH1 0x20 PUSH1 0x40 MLOAD DUP1 DUP4 SUB DUP2 DUP7 GAS STATICCALL ISZERO DUP1 ISZERO PUSH2 0x6A8 JUMPI RETURNDATASIZE PUSH1 0x0 DUP1 RETURNDATACOPY RETURNDATASIZE PUSH1 0x0 REVERT JUMPDEST POP POP POP POP PUSH1 0x40 MLOAD RETURNDATASIZE PUSH1 0x1F NOT PUSH1 0x1F DUP3 ADD AND DUP3 ADD DUP1 PUSH1 0x40 MSTORE POP DUP2 ADD SWAP1 PUSH2 0x6CC SWAP2 SWAP1 PUSH2 0x2FD3 JUMP JUMPDEST PUSH1 0xFF AND SWAP1 POP PUSH1 0x0 PUSH2 0x6F7 DUP5 PUSH2 0x4C6 PUSH2 0x6E5 DUP6 PUSH1 0x24 PUSH2 0x2FF6 JUMP JUMPDEST PUSH2 0x6F0 SWAP1 PUSH1 0xA PUSH2 0x30ED JUMP JUMPDEST DUP7 SWAP1 PUSH2 0x203B JUMP JUMPDEST SWAP9 SWAP8 POP POP POP POP POP POP POP POP JUMP JUMPDEST PUSH1 0x0 SLOAD PUSH1 0x1 PUSH1 0x1 PUSH1 0xA0 SHL SUB AND CALLER EQ PUSH2 0x736 JUMPI PUSH1 0x40 MLOAD PUSH3 0x461BCD PUSH1 0xE5 SHL DUP2 MSTORE PUSH1 0x4 ADD PUSH2 0x72D SWAP1 PUSH2 0x30F9 JUMP JUMPDEST PUSH1 0x40 MLOAD DUP1 SWAP2 SUB SWAP1 REVERT JUMPDEST DUP2 PUSH1 0x1 PUSH1 0x1 PUSH1 0xA0 SHL SUB AND PUSH4 0xA9059CBB PUSH2 0x757 PUSH1 0x0 SLOAD PUSH1 0x1 PUSH1 0x1 PUSH1 0xA0 SHL SUB AND SWAP1 JUMP JUMPDEST PUSH1 0x40 MLOAD PUSH1 0x1 PUSH1 0x1 PUSH1 0xE0 SHL SUB NOT PUSH1 0xE0 DUP5 SWAP1 SHL AND DUP2 MSTORE PUSH1 0x1 PUSH1 0x1 PUSH1 0xA0 SHL SUB SWAP1 SWAP2 AND PUSH1 0x4 DUP3 ADD MSTORE PUSH1 0x24 DUP2 ADD DUP5 SWAP1 MSTORE PUSH1 0x44 ADD PUSH1 0x20 PUSH1 0x40 MLOAD DUP1 DUP4 SUB DUP2 PUSH1 0x0 DUP8 GAS CALL ISZERO DUP1 ISZERO PUSH2 0x7A4 JUMPI RETURNDATASIZE PUSH1 0x0 DUP1 RETURNDATACOPY RETURNDATASIZE PUSH1 0x0 REVERT JUMPDEST POP POP POP POP PUSH1 0x40 MLOAD RETURNDATASIZE PUSH1 0x1F NOT PUSH1 0x1F DUP3 ADD AND DUP3 ADD DUP1 PUSH1 0x40 MSTORE POP DUP2 ADD SWAP1 PUSH2 0x7C8 SWAP2 SWAP1 PUSH2 0x312E JUMP JUMPDEST POP POP POP JUMP JUMPDEST PUSH2 0x7D6 CALLER PUSH2 0x2047 JUMP JUMPDEST PUSH1 0x0 DUP2 GT PUSH2 0x816 JUMPI PUSH1 0x40 MLOAD PUSH3 0x461BCD PUSH1 0xE5 SHL DUP2 MSTORE PUSH1 0x20 PUSH1 0x4 DUP3 ADD MSTORE PUSH1 0xD PUSH1 0x24 DUP3 ADD MSTORE PUSH13 0x63616E2774207265706179203 PUSH1 0x9C SHL PUSH1 0x44 DUP3 ADD MSTORE PUSH1 0x64 ADD PUSH2 0x72D JUMP JUMPDEST CALLER PUSH1 0x0 SWAP1 DUP2 MSTORE PUSH1 0xC PUSH1 0x20 MSTORE PUSH1 0x40 SWAP1 KECCAK256 SLOAD DUP1 PUSH2 0x843 JUMPI PUSH1 0x40 MLOAD PUSH3 0x461BCD PUSH1 0xE5 SHL DUP2 MSTORE PUSH1 0x4 ADD PUSH2 0x72D SWAP1 PUSH2 0x3150 JUMP JUMPDEST PUSH1 0x0 DUP2 DUP2 MSTORE PUSH1 0xB PUSH1 0x20 SWAP1 DUP2 MSTORE PUSH1 0x40 DUP1 DUP4 KECCAK256 PUSH1 0x1 PUSH1 0x1 PUSH1 0xA0 SHL SUB DUP8 AND DUP5 MSTORE PUSH1 0x5 DUP2 ADD SWAP1 SWAP3 MSTORE DUP3 KECCAK256 SLOAD SWAP1 SWAP2 SWAP1 DUP5 LT ISZERO PUSH2 0x8A9 JUMPI PUSH1 0x1 PUSH1 0x1 PUSH1 0xA0 SHL SUB DUP6 AND PUSH1 0x0 SWAP1 DUP2 MSTORE PUSH1 0x5 DUP4 ADD PUSH1 0x20 MSTORE PUSH1 0x40 DUP2 KECCAK256 DUP1 SLOAD DUP7 SWAP3 SWAP1 PUSH2 0x89E SWAP1 DUP5 SWAP1 PUSH2 0x2FF6 JUMP JUMPDEST SWAP1 SWAP2 SSTORE POP PUSH2 0x977 SWAP1 POP JUMP JUMPDEST PUSH1 0x1 PUSH1 0x1 PUSH1 0xA0 SHL SUB DUP6 AND PUSH1 0x0 SWAP1 DUP2 MSTORE PUSH1 0x3 DUP4 ADD PUSH1 0x20 SWAP1 DUP2 MSTORE PUSH1 0x40 DUP1 DUP4 KECCAK256 SLOAD PUSH1 0x5 DUP7 ADD SWAP1 SWAP3 MSTORE SWAP1 SWAP2 KECCAK256 SLOAD PUSH2 0x8DC SWAP2 SWAP1 PUSH2 0x3193 JUMP JUMPDEST DUP5 GT ISZERO PUSH2 0x904 JUMPI POP PUSH1 0x1 PUSH1 0x1 PUSH1 0xA0 SHL SUB DUP5 AND PUSH1 0x0 SWAP1 DUP2 MSTORE PUSH1 0x3 DUP3 ADD PUSH1 0x20 MSTORE PUSH1 0x40 SWAP1 KECCAK256 SLOAD PUSH2 0x92C JUMP JUMPDEST PUSH1 0x1 PUSH1 0x1 PUSH1 0xA0 SHL SUB DUP6 AND PUSH1 0x0 SWAP1 DUP2 MSTORE PUSH1 0x5 DUP4 ADD PUSH1 0x20 MSTORE PUSH1 0x40 SWAP1 KECCAK256 SLOAD PUSH2 0x929 SWAP1 DUP6 PUSH2 0x2FF6 JUMP JUMPDEST SWAP1 POP JUMPDEST PUSH1 0x1 PUSH1 0x1 PUSH1 0xA0 SHL SUB DUP6 AND PUSH1 0x0 SWAP1 DUP2 MSTORE PUSH1 0x3 DUP4 ADD PUSH1 0x20 MSTORE PUSH1 0x40 DUP2 KECCAK256 DUP1 SLOAD DUP4 SWAP3 SWAP1 PUSH2 0x956 SWAP1 DUP5 SWAP1 PUSH2 0x2FF6 JUMP JUMPDEST SWAP1 SWAP2 SSTORE POP POP PUSH1 0x1 PUSH1 0x1 PUSH1 0xA0 SHL SUB DUP6 AND PUSH1 0x0 SWAP1 DUP2 MSTORE PUSH1 0x5 DUP4 ADD PUSH1 0x20 MSTORE PUSH1 0x40 DUP2 KECCAK256 SSTORE JUMPDEST PUSH1 0xF SLOAD PUSH1 0x1 PUSH1 0x1 PUSH1 0xA0 SHL SUB SWAP1 DUP2 AND SWAP1 DUP7 AND SUB PUSH2 0xA7B JUMPI PUSH1 0xF SLOAD PUSH1 0x40 MLOAD PUSH4 0x23B872DD PUSH1 0xE0 SHL DUP2 MSTORE CALLER PUSH1 0x4 DUP3 ADD MSTORE ADDRESS PUSH1 0x24 DUP3 ADD MSTORE PUSH1 0x44 DUP2 ADD DUP7 SWAP1 MSTORE PUSH1 0x1 PUSH1 0x1 PUSH1 0xA0 SHL SUB SWAP1 SWAP2 AND SWAP1 PUSH4 0x23B872DD SWAP1 PUSH1 0x64 ADD PUSH1 0x20 PUSH1 0x40 MLOAD DUP1 DUP4 SUB DUP2 PUSH1 0x0 DUP8 GAS CALL ISZERO DUP1 ISZERO PUSH2 0x9E4 JUMPI RETURNDATASIZE PUSH1 0x0 DUP1 RETURNDATACOPY RETURNDATASIZE PUSH1 0x0 REVERT JUMPDEST POP POP POP POP PUSH1 0x40 MLOAD RETURNDATASIZE PUSH1 0x1F NOT PUSH1 0x1F DUP3 ADD AND DUP3 ADD DUP1 PUSH1 0x40 MSTORE POP DUP2 ADD SWAP1 PUSH2 0xA08 SWAP2 SWAP1 PUSH2 0x312E JUMP JUMPDEST PUSH2 0xA43 JUMPI PUSH1 0x40 MLOAD PUSH3 0x461BCD PUSH1 0xE5 SHL DUP2 MSTORE PUSH1 0x20 PUSH1 0x4 DUP3 ADD MSTORE PUSH1 0xC PUSH1 0x24 DUP3 ADD MSTORE PUSH12 0x14995C185E4819985A5B1959 PUSH1 0xA2 SHL PUSH1 0x44 DUP3 ADD MSTORE PUSH1 0x64 ADD PUSH2 0x72D JUMP JUMPDEST PUSH1 0xF SLOAD PUSH1 0x1 PUSH1 0x1 PUSH1 0xA0 SHL SUB AND PUSH1 0x0 SWAP1 DUP2 MSTORE PUSH1 0x9 PUSH1 0x20 MSTORE PUSH1 0x40 DUP2 KECCAK256 PUSH1 0x4 ADD DUP1 SLOAD DUP4 SWAP3 SWAP1 PUSH2 0xA70 SWAP1 DUP5 SWAP1 PUSH2 0x2FF6 JUMP JUMPDEST SWAP1 SWAP2 SSTORE POP PUSH2 0xAF1 SWAP1 POP JUMP JUMPDEST DUP4 CALLVALUE LT ISZERO PUSH2 0xABE JUMPI PUSH1 0x40 MLOAD PUSH3 0x461BCD PUSH1 0xE5 SHL DUP2 MSTORE PUSH1 0x20 PUSH1 0x4 DUP3 ADD MSTORE PUSH1 0x10 PUSH1 0x24 DUP3 ADD MSTORE PUSH16 0x283632B0B9B2903830BC9036B7B93297 PUSH1 0x81 SHL PUSH1 0x44 DUP3 ADD MSTORE PUSH1 0x64 ADD PUSH2 0x72D JUMP JUMPDEST PUSH1 0xE SLOAD PUSH1 0x1 PUSH1 0x1 PUSH1 0xA0 SHL SUB AND PUSH1 0x0 SWAP1 DUP2 MSTORE PUSH1 0x9 PUSH1 0x20 MSTORE PUSH1 0x40 DUP2 KECCAK256 PUSH1 0x4 ADD DUP1 SLOAD DUP4 SWAP3 SWAP1 PUSH2 0xAEB SWAP1 DUP5 SWAP1 PUSH2 0x2FF6 JUMP JUMPDEST SWAP1 SWAP2 SSTORE POP POP JUMPDEST PUSH2 0xAFA CALLER PUSH2 0x2047 JUMP JUMPDEST POP POP POP POP POP JUMP JUMPDEST PUSH1 0xE SLOAD PUSH1 0x1 PUSH1 0x1 PUSH1 0xA0 SHL SUB SWAP1 DUP2 AND PUSH1 0x0 DUP2 DUP2 MSTORE PUSH1 0x9 PUSH1 0x20 MSTORE PUSH1 0x40 DUP1 DUP3 KECCAK256 PUSH1 0xF SLOAD SWAP1 SWAP5 AND DUP3 MSTORE DUP2 KECCAK256 PUSH1 0x3 DUP1 DUP3 ADD SLOAD SWAP1 DUP6 ADD SLOAD SWAP3 SWAP5 DUP6 SWAP5 SWAP1 SWAP4 PUSH2 0xB42 SWAP2 SWAP1 PUSH2 0x47F JUMP JUMPDEST PUSH2 0xB4C SWAP2 SWAP1 PUSH2 0x3193 JUMP JUMPDEST DUP2 PUSH1 0x4 ADD SLOAD PUSH2 0xB74 PUSH1 0xE PUSH1 0x0 SWAP1 SLOAD SWAP1 PUSH2 0x100 EXP SWAP1 DIV PUSH1 0x1 PUSH1 0x1 PUSH1 0xA0 SHL SUB AND DUP6 PUSH1 0x4 ADD SLOAD PUSH2 0x47F JUMP JUMPDEST PUSH2 0xB7E SWAP2 SWAP1 PUSH2 0x3193 JUMP JUMPDEST SWAP4 POP SWAP4 POP POP POP SWAP1 SWAP2 JUMP JUMPDEST PUSH1 0x1 PUSH1 0x1 PUSH1 0xA0 SHL SUB DUP2 AND PUSH1 0x0 SWAP1 DUP2 MSTORE PUSH1 0xC PUSH1 0x20 MSTORE PUSH1 0x40 SWAP1 KECCAK256 SLOAD DUP1 PUSH2 0xBBE JUMPI PUSH1 0x40 MLOAD PUSH3 0x461BCD PUSH1 0xE5 SHL DUP2 MSTORE PUSH1 0x4 ADD PUSH2 0x72D SWAP1 PUSH2 0x3150 JUMP JUMPDEST PUSH1 0x0 DUP2 DUP2 MSTORE PUSH1 0xB PUSH1 0x20 MSTORE PUSH1 0x40 DUP2 KECCAK256 SWAP1 PUSH2 0xBD6 DUP5 PUSH2 0x1AD0 JUMP JUMPDEST SWAP1 POP PUSH1 0x0 PUSH2 0xBE3 DUP6 PUSH2 0x19E4 JUMP JUMPDEST SWAP1 POP PUSH1 0x0 PUSH2 0xC0E PUSH1 0x11 SLOAD DUP5 PUSH2 0xBF8 SWAP2 SWAP1 PUSH2 0x2FA3 JUMP JUMPDEST PUSH2 0xC03 DUP5 PUSH1 0x64 PUSH2 0x2FA3 JUMP JUMPDEST PUSH2 0x4C6 SWAP1 PUSH1 0x64 PUSH2 0x2FA3 JUMP JUMPDEST SWAP1 POP PUSH1 0x64 DUP2 GT PUSH2 0xC60 JUMPI PUSH1 0x40 MLOAD PUSH3 0x461BCD PUSH1 0xE5 SHL DUP2 MSTORE PUSH1 0x20 PUSH1 0x4 DUP3 ADD MSTORE PUSH1 0x1F PUSH1 0x24 DUP3 ADD MSTORE PUSH32 0x54686973206973206E6F7420656E61626C6564206C69717569646174696F6E00 PUSH1 0x44 DUP3 ADD MSTORE PUSH1 0x64 ADD PUSH2 0x72D JUMP JUMPDEST PUSH1 0xE SLOAD PUSH1 0x1 PUSH1 0x1 PUSH1 0xA0 SHL SUB AND PUSH1 0x0 SWAP1 DUP2 MSTORE PUSH1 0x4 DUP6 ADD PUSH1 0x20 SWAP1 DUP2 MSTORE PUSH1 0x40 DUP1 DUP4 KECCAK256 SLOAD PUSH1 0x2 DUP9 ADD SWAP1 SWAP3 MSTORE DUP3 KECCAK256 SLOAD PUSH2 0xC94 SWAP2 SWAP1 PUSH2 0x3193 JUMP JUMPDEST PUSH1 0xF SLOAD PUSH1 0x1 PUSH1 0x1 PUSH1 0xA0 SHL SUB AND PUSH1 0x0 SWAP1 DUP2 MSTORE PUSH1 0x4 DUP8 ADD PUSH1 0x20 SWAP1 DUP2 MSTORE PUSH1 0x40 DUP1 DUP4 KECCAK256 SLOAD PUSH1 0x2 DUP11 ADD SWAP1 SWAP3 MSTORE DUP3 KECCAK256 SLOAD SWAP3 SWAP4 POP SWAP1 SWAP2 PUSH2 0xCCD SWAP2 SWAP1 PUSH2 0x3193 JUMP JUMPDEST PUSH1 0xE SLOAD PUSH1 0x1 PUSH1 0x1 PUSH1 0xA0 SHL SUB AND PUSH1 0x0 SWAP1 DUP2 MSTORE PUSH1 0x5 DUP9 ADD PUSH1 0x20 SWAP1 DUP2 MSTORE PUSH1 0x40 DUP1 DUP4 KECCAK256 SLOAD PUSH1 0x3 DUP12 ADD SWAP1 SWAP3 MSTORE DUP3 KECCAK256 SLOAD SWAP3 SWAP4 POP SWAP1 SWAP2 PUSH2 0xD06 SWAP2 SWAP1 PUSH2 0x3193 JUMP JUMPDEST PUSH1 0xF SLOAD PUSH1 0x1 PUSH1 0x1 PUSH1 0xA0 SHL SUB AND PUSH1 0x0 SWAP1 DUP2 MSTORE PUSH1 0x5 DUP10 ADD PUSH1 0x20 SWAP1 DUP2 MSTORE PUSH1 0x40 DUP1 DUP4 KECCAK256 SLOAD PUSH1 0x3 DUP13 ADD SWAP1 SWAP3 MSTORE DUP3 KECCAK256 SLOAD SWAP3 SWAP4 POP SWAP1 SWAP2 PUSH2 0xD3F SWAP2 SWAP1 PUSH2 0x3193 JUMP JUMPDEST SWAP1 POP PUSH2 0xD4D DUP3 PUSH2 0x2710 PUSH2 0x2028 JUMP JUMPDEST PUSH2 0xD59 SWAP1 PUSH2 0x270F PUSH2 0x2FA3 JUMP JUMPDEST CALLVALUE GT PUSH2 0xD98 JUMPI PUSH1 0x40 MLOAD PUSH3 0x461BCD PUSH1 0xE5 SHL DUP2 MSTORE PUSH1 0x20 PUSH1 0x4 DUP3 ADD MSTORE PUSH1 0xE PUSH1 0x24 DUP3 ADD MSTORE PUSH14 0x9CDEE840CADCDEEACED040CAE8D PUSH1 0x93 SHL PUSH1 0x44 DUP3 ADD MSTORE PUSH1 0x64 ADD PUSH2 0x72D JUMP JUMPDEST PUSH1 0xF SLOAD PUSH1 0x1 PUSH1 0x1 PUSH1 0xA0 SHL SUB AND PUSH4 0x23B872DD CALLER ADDRESS PUSH2 0xDB7 DUP6 PUSH2 0x2710 PUSH2 0x2028 JUMP JUMPDEST PUSH2 0xDC3 SWAP1 PUSH2 0x270F PUSH2 0x2FA3 JUMP JUMPDEST PUSH1 0x40 MLOAD PUSH1 0x1 PUSH1 0x1 PUSH1 0xE0 SHL SUB NOT PUSH1 0xE0 DUP7 SWAP1 SHL AND DUP2 MSTORE PUSH1 0x1 PUSH1 0x1 PUSH1 0xA0 SHL SUB SWAP4 DUP5 AND PUSH1 0x4 DUP3 ADD MSTORE SWAP3 SWAP1 SWAP2 AND PUSH1 0x24 DUP4 ADD MSTORE PUSH1 0x44 DUP3 ADD MSTORE PUSH1 0x64 ADD PUSH1 0x20 PUSH1 0x40 MLOAD DUP1 DUP4 SUB DUP2 PUSH1 0x0 DUP8 GAS CALL ISZERO DUP1 ISZERO PUSH2 0xE17 JUMPI RETURNDATASIZE PUSH1 0x0 DUP1 RETURNDATACOPY RETURNDATASIZE PUSH1 0x0 REVERT JUMPDEST POP POP POP POP PUSH1 0x40 MLOAD RETURNDATASIZE PUSH1 0x1F NOT PUSH1 0x1F DUP3 ADD AND DUP3 ADD DUP1 PUSH1 0x40 MSTORE POP DUP2 ADD SWAP1 PUSH2 0xE3B SWAP2 SWAP1 PUSH2 0x312E JUMP JUMPDEST PUSH2 0xE78 JUMPI PUSH1 0x40 MLOAD PUSH3 0x461BCD PUSH1 0xE5 SHL DUP2 MSTORE PUSH1 0x20 PUSH1 0x4 DUP3 ADD MSTORE PUSH1 0xE PUSH1 0x24 DUP3 ADD MSTORE PUSH14 0x19195C1BDCDA5D0819985A5B1959 PUSH1 0x92 SHL PUSH1 0x44 DUP3 ADD MSTORE PUSH1 0x64 ADD PUSH2 0x72D JUMP JUMPDEST PUSH1 0x40 MLOAD PUSH1 0x0 SWAP1 CALLER SWAP1 DUP7 SWAP1 DUP4 DUP2 DUP2 DUP2 DUP6 DUP8 GAS CALL SWAP3 POP POP POP RETURNDATASIZE DUP1 PUSH1 0x0 DUP2 EQ PUSH2 0xEBA JUMPI PUSH1 0x40 MLOAD SWAP2 POP PUSH1 0x1F NOT PUSH1 0x3F RETURNDATASIZE ADD AND DUP3 ADD PUSH1 0x40 MSTORE RETURNDATASIZE DUP3 MSTORE RETURNDATASIZE PUSH1 0x0 PUSH1 0x20 DUP5 ADD RETURNDATACOPY PUSH2 0xEBF JUMP JUMPDEST PUSH1 0x60 SWAP2 POP JUMPDEST POP POP SWAP1 POP DUP1 PUSH2 0xF06 JUMPI PUSH1 0x40 MLOAD PUSH3 0x461BCD PUSH1 0xE5 SHL DUP2 MSTORE PUSH1 0x20 PUSH1 0x4 DUP3 ADD MSTORE PUSH1 0x13 PUSH1 0x24 DUP3 ADD MSTORE PUSH19 0x3330B4B632B2103A379039B2B7321032BA3417 PUSH1 0x69 SHL PUSH1 0x44 DUP3 ADD MSTORE PUSH1 0x64 ADD PUSH2 0x72D JUMP JUMPDEST PUSH1 0xF SLOAD PUSH1 0x40 MLOAD PUSH4 0xA9059CBB PUSH1 0xE0 SHL DUP2 MSTORE CALLER PUSH1 0x4 DUP3 ADD MSTORE PUSH1 0x24 DUP2 ADD DUP7 SWAP1 MSTORE PUSH1 0x1 PUSH1 0x1 PUSH1 0xA0 SHL SUB SWAP1 SWAP2 AND SWAP1 PUSH4 0xA9059CBB SWAP1 PUSH1 0x44 ADD PUSH1 0x20 PUSH1 0x40 MLOAD DUP1 DUP4 SUB DUP2 PUSH1 0x0 DUP8 GAS CALL ISZERO DUP1 ISZERO PUSH2 0xF57 JUMPI RETURNDATASIZE PUSH1 0x0 DUP1 RETURNDATACOPY RETURNDATASIZE PUSH1 0x0 REVERT JUMPDEST POP POP POP POP PUSH1 0x40 MLOAD RETURNDATASIZE PUSH1 0x1F NOT PUSH1 0x1F DUP3 ADD AND DUP3 ADD DUP1 PUSH1 0x40 MSTORE POP DUP2 ADD SWAP1 PUSH2 0xF7B SWAP2 SWAP1 PUSH2 0x312E JUMP JUMPDEST POP PUSH1 0xD SLOAD PUSH1 0x6 DUP11 ADD SLOAD PUSH1 0x40 MLOAD PUSH4 0xA9059CBB PUSH1 0xE0 SHL DUP2 MSTORE CALLER PUSH1 0x4 DUP3 ADD MSTORE PUSH1 0x24 DUP2 ADD SWAP2 SWAP1 SWAP2 MSTORE PUSH1 0x1 PUSH1 0x1 PUSH1 0xA0 SHL SUB SWAP1 SWAP2 AND SWAP1 PUSH4 0xA9059CBB SWAP1 PUSH1 0x44 ADD PUSH1 0x20 PUSH1 0x40 MLOAD DUP1 DUP4 SUB DUP2 PUSH1 0x0 DUP8 GAS CALL ISZERO DUP1 ISZERO PUSH2 0xFD3 JUMPI RETURNDATASIZE PUSH1 0x0 DUP1 RETURNDATACOPY RETURNDATASIZE PUSH1 0x0 REVERT JUMPDEST POP POP POP POP PUSH1 0x40 MLOAD RETURNDATASIZE PUSH1 0x1F NOT PUSH1 0x1F DUP3 ADD AND DUP3 ADD DUP1 PUSH1 0x40 MSTORE POP DUP2 ADD SWAP1 PUSH2 0xFF7 SWAP2 SWAP1 PUSH2 0x312E JUMP JUMPDEST POP PUSH2 0x1001 DUP12 PUSH2 0x23E3 JUMP JUMPDEST PUSH2 0x100A CALLER PUSH2 0x2047 JUMP JUMPDEST POP POP POP POP POP POP POP POP POP POP POP JUMP JUMPDEST PUSH1 0x0 DUP2 GT PUSH2 0x1059 JUMPI PUSH1 0x40 MLOAD PUSH3 0x461BCD PUSH1 0xE5 SHL DUP2 MSTORE PUSH1 0x20 PUSH1 0x4 DUP3 ADD MSTORE PUSH1 0xF PUSH1 0x24 DUP3 ADD MSTORE PUSH15 0x63616E2774206465706F736974203 PUSH1 0x8C SHL PUSH1 0x44 DUP3 ADD MSTORE PUSH1 0x64 ADD PUSH2 0x72D JUMP JUMPDEST CALLER PUSH1 0x0 SWAP1 DUP2 MSTORE PUSH1 0xC PUSH1 0x20 MSTORE PUSH1 0x40 DUP2 KECCAK256 SLOAD DUP2 SUB PUSH2 0x10A3 JUMPI PUSH1 0x1 PUSH1 0xA PUSH1 0x0 DUP3 DUP3 SLOAD PUSH2 0x1082 SWAP2 SWAP1 PUSH2 0x3193 JUMP JUMPDEST SWAP1 SWAP2 SSTORE POP POP PUSH1 0xA SLOAD CALLER PUSH1 0x0 SWAP1 DUP2 MSTORE PUSH1 0xC PUSH1 0x20 MSTORE PUSH1 0x40 SWAP1 KECCAK256 DUP2 SWAP1 SSTORE SWAP1 POP PUSH2 0x10BE JUMP JUMPDEST POP CALLER PUSH1 0x0 DUP2 DUP2 MSTORE PUSH1 0xC PUSH1 0x20 MSTORE PUSH1 0x40 SWAP1 KECCAK256 SLOAD SWAP1 PUSH2 0x10BE SWAP1 PUSH2 0x2047 JUMP JUMPDEST PUSH1 0x0 DUP2 DUP2 MSTORE PUSH1 0xB PUSH1 0x20 SWAP1 DUP2 MSTORE PUSH1 0x40 DUP1 DUP4 KECCAK256 DUP1 SLOAD PUSH1 0x1 PUSH1 0x1 PUSH1 0xA0 SHL SUB NOT AND CALLER OR DUP2 SSTORE TIMESTAMP PUSH1 0x1 DUP3 ADD SSTORE PUSH1 0x1 PUSH1 0x1 PUSH1 0xA0 SHL SUB DUP8 AND DUP5 MSTORE PUSH1 0x2 DUP2 ADD SWAP1 SWAP3 MSTORE DUP3 KECCAK256 DUP1 SLOAD SWAP2 SWAP3 DUP6 SWAP3 PUSH2 0x110B SWAP1 DUP5 SWAP1 PUSH2 0x3193 JUMP JUMPDEST SWAP1 SWAP2 SSTORE POP POP PUSH1 0xF SLOAD PUSH1 0x1 PUSH1 0x1 PUSH1 0xA0 SHL SUB SWAP1 DUP2 AND SWAP1 DUP6 AND SUB PUSH2 0x1216 JUMPI PUSH1 0xF SLOAD PUSH1 0x40 MLOAD PUSH4 0x23B872DD PUSH1 0xE0 SHL DUP2 MSTORE CALLER PUSH1 0x4 DUP3 ADD MSTORE ADDRESS PUSH1 0x24 DUP3 ADD MSTORE PUSH1 0x44 DUP2 ADD DUP6 SWAP1 MSTORE PUSH1 0x1 PUSH1 0x1 PUSH1 0xA0 SHL SUB SWAP1 SWAP2 AND SWAP1 PUSH4 0x23B872DD SWAP1 PUSH1 0x64 ADD PUSH1 0x20 PUSH1 0x40 MLOAD DUP1 DUP4 SUB DUP2 PUSH1 0x0 DUP8 GAS CALL ISZERO DUP1 ISZERO PUSH2 0x117D JUMPI RETURNDATASIZE PUSH1 0x0 DUP1 RETURNDATACOPY RETURNDATASIZE PUSH1 0x0 REVERT JUMPDEST POP POP POP POP PUSH1 0x40 MLOAD RETURNDATASIZE PUSH1 0x1F NOT PUSH1 0x1F DUP3 ADD AND DUP3 ADD DUP1 PUSH1 0x40 MSTORE POP DUP2 ADD SWAP1 PUSH2 0x11A1 SWAP2 SWAP1 PUSH2 0x312E JUMP JUMPDEST PUSH2 0x11DE JUMPI PUSH1 0x40 MLOAD PUSH3 0x461BCD PUSH1 0xE5 SHL DUP2 MSTORE PUSH1 0x20 PUSH1 0x4 DUP3 ADD MSTORE PUSH1 0xE PUSH1 0x24 DUP3 ADD MSTORE PUSH14 0x19195C1BDCDA5D0819985A5B1959 PUSH1 0x92 SHL PUSH1 0x44 DUP3 ADD MSTORE PUSH1 0x64 ADD PUSH2 0x72D JUMP JUMPDEST PUSH1 0xF SLOAD PUSH1 0x1 PUSH1 0x1 PUSH1 0xA0 SHL SUB AND PUSH1 0x0 SWAP1 DUP2 MSTORE PUSH1 0x9 PUSH1 0x20 MSTORE PUSH1 0x40 DUP2 KECCAK256 PUSH1 0x3 ADD DUP1 SLOAD DUP6 SWAP3 SWAP1 PUSH2 0x120B SWAP1 DUP5 SWAP1 PUSH2 0x3193 JUMP JUMPDEST SWAP1 SWAP2 SSTORE POP PUSH2 0x1249 SWAP1 POP JUMP JUMPDEST PUSH1 0xE SLOAD PUSH1 0x1 PUSH1 0x1 PUSH1 0xA0 SHL SUB AND PUSH1 0x0 SWAP1 DUP2 MSTORE PUSH1 0x9 PUSH1 0x20 MSTORE PUSH1 0x40 DUP2 KECCAK256 PUSH1 0x3 ADD DUP1 SLOAD DUP6 SWAP3 SWAP1 PUSH2 0x1243 SWAP1 DUP5 SWAP1 PUSH2 0x3193 JUMP JUMPDEST SWAP1 SWAP2 SSTORE POP POP JUMPDEST PUSH2 0x1252 CALLER PUSH2 0x2047 JUMP JUMPDEST POP POP POP POP JUMP JUMPDEST PUSH1 0x0 DUP2 GT PUSH2 0x1299 JUMPI PUSH1 0x40 MLOAD PUSH3 0x461BCD PUSH1 0xE5 SHL DUP2 MSTORE PUSH1 0x20 PUSH1 0x4 DUP3 ADD MSTORE PUSH1 0xE PUSH1 0x24 DUP3 ADD MSTORE PUSH14 0x63616E277420626F72726F77203 PUSH1 0x94 SHL PUSH1 0x44 DUP3 ADD MSTORE PUSH1 0x64 ADD PUSH2 0x72D JUMP JUMPDEST CALLER PUSH1 0x0 SWAP1 DUP2 MSTORE PUSH1 0xC PUSH1 0x20 MSTORE PUSH1 0x40 SWAP1 KECCAK256 SLOAD DUP1 PUSH2 0x12C6 JUMPI PUSH1 0x40 MLOAD PUSH3 0x461BCD PUSH1 0xE5 SHL DUP2 MSTORE PUSH1 0x4 ADD PUSH2 0x72D SWAP1 PUSH2 0x3150 JUMP JUMPDEST PUSH1 0x0 DUP2 DUP2 MSTORE PUSH1 0xB PUSH1 0x20 MSTORE PUSH1 0x40 DUP2 KECCAK256 SWAP1 PUSH2 0x12DE CALLER PUSH2 0x1AD0 JUMP JUMPDEST SWAP1 POP PUSH1 0x0 PUSH2 0x12EB CALLER PUSH2 0x19E4 JUMP JUMPDEST SWAP1 POP DUP1 DUP3 LT ISZERO PUSH2 0x133D JUMPI PUSH1 0x40 MLOAD PUSH3 0x461BCD PUSH1 0xE5 SHL DUP2 MSTORE PUSH1 0x20 PUSH1 0x4 DUP3 ADD MSTORE PUSH1 0x1E PUSH1 0x24 DUP3 ADD MSTORE PUSH32 0x596F7520646F6E6F74206861766520616E7920636F6C6C61746572616C2E0000 PUSH1 0x44 DUP3 ADD MSTORE PUSH1 0x64 ADD PUSH2 0x72D JUMP JUMPDEST PUSH1 0x0 PUSH2 0x1349 DUP8 DUP8 PUSH2 0x47F JUMP JUMPDEST PUSH1 0x1 PUSH1 0x1 PUSH1 0xA0 SHL SUB DUP9 AND PUSH1 0x0 SWAP1 DUP2 MSTORE PUSH1 0x9 PUSH1 0x20 MSTORE PUSH1 0x40 SWAP1 KECCAK256 SLOAD SWAP1 SWAP2 POP PUSH2 0x136F DUP4 DUP4 PUSH2 0x3193 JUMP JUMPDEST PUSH1 0x64 PUSH2 0x137B DUP4 DUP8 PUSH2 0x2FA3 JUMP JUMPDEST PUSH2 0x1385 SWAP2 SWAP1 PUSH2 0x31A6 JUMP JUMPDEST GT PUSH2 0x13C9 JUMPI PUSH1 0x40 MLOAD PUSH3 0x461BCD PUSH1 0xE5 SHL DUP2 MSTORE PUSH1 0x20 PUSH1 0x4 DUP3 ADD MSTORE PUSH1 0x14 PUSH1 0x24 DUP3 ADD MSTORE PUSH20 0x283632B0B9B2903232B837B9B4BA1036B7B93297 PUSH1 0x61 SHL PUSH1 0x44 DUP3 ADD MSTORE PUSH1 0x64 ADD PUSH2 0x72D JUMP JUMPDEST PUSH1 0x1 PUSH1 0x1 PUSH1 0xA0 SHL SUB DUP9 AND PUSH1 0x0 SWAP1 DUP2 MSTORE PUSH1 0x3 DUP7 ADD PUSH1 0x20 MSTORE PUSH1 0x40 DUP2 KECCAK256 DUP1 SLOAD DUP10 SWAP3 SWAP1 PUSH2 0x13F3 SWAP1 DUP5 SWAP1 PUSH2 0x3193 JUMP JUMPDEST SWAP1 SWAP2 SSTORE POP PUSH2 0x1402 SWAP1 POP CALLER PUSH2 0x2047 JUMP JUMPDEST PUSH1 0xE SLOAD PUSH1 0x1 PUSH1 0x1 PUSH1 0xA0 SHL SUB SWAP1 DUP2 AND SWAP1 DUP10 AND SUB PUSH2 0x14E9 JUMPI PUSH1 0x40 MLOAD PUSH1 0x0 SWAP1 CALLER SWAP1 DUP10 SWAP1 DUP4 DUP2 DUP2 DUP2 DUP6 DUP8 GAS CALL SWAP3 POP POP POP RETURNDATASIZE DUP1 PUSH1 0x0 DUP2 EQ PUSH2 0x145A JUMPI PUSH1 0x40 MLOAD SWAP2 POP PUSH1 0x1F NOT PUSH1 0x3F RETURNDATASIZE ADD AND DUP3 ADD PUSH1 0x40 MSTORE RETURNDATASIZE DUP3 MSTORE RETURNDATASIZE PUSH1 0x0 PUSH1 0x20 DUP5 ADD RETURNDATACOPY PUSH2 0x145F JUMP JUMPDEST PUSH1 0x60 SWAP2 POP JUMPDEST POP POP SWAP1 POP DUP1 PUSH2 0x14B0 JUMPI PUSH1 0x40 MLOAD PUSH3 0x461BCD PUSH1 0xE5 SHL DUP2 MSTORE PUSH1 0x20 PUSH1 0x4 DUP3 ADD MSTORE PUSH1 0x1C PUSH1 0x24 DUP3 ADD MSTORE PUSH32 0x6661696C656420746F2073656E642065746820696E7465726573742E00000000 PUSH1 0x44 DUP3 ADD MSTORE PUSH1 0x64 ADD PUSH2 0x72D JUMP JUMPDEST PUSH1 0xE SLOAD PUSH1 0x1 PUSH1 0x1 PUSH1 0xA0 SHL SUB AND PUSH1 0x0 SWAP1 DUP2 MSTORE PUSH1 0x9 PUSH1 0x20 MSTORE PUSH1 0x40 DUP2 KECCAK256 PUSH1 0x4 ADD DUP1 SLOAD DUP11 SWAP3 SWAP1 PUSH2 0x14DD SWAP1 DUP5 SWAP1 PUSH2 0x3193 JUMP JUMPDEST SWAP1 SWAP2 SSTORE POP PUSH2 0x1592 SWAP2 POP POP JUMP JUMPDEST PUSH1 0xF SLOAD PUSH1 0x40 MLOAD PUSH4 0xA9059CBB PUSH1 0xE0 SHL DUP2 MSTORE CALLER PUSH1 0x4 DUP3 ADD MSTORE PUSH1 0x24 DUP2 ADD DUP10 SWAP1 MSTORE PUSH1 0x1 PUSH1 0x1 PUSH1 0xA0 SHL SUB SWAP1 SWAP2 AND SWAP1 PUSH4 0xA9059CBB SWAP1 PUSH1 0x44 ADD PUSH1 0x20 PUSH1 0x40 MLOAD DUP1 DUP4 SUB DUP2 PUSH1 0x0 DUP8 GAS CALL ISZERO DUP1 ISZERO PUSH2 0x153A JUMPI RETURNDATASIZE PUSH1 0x0 DUP1 RETURNDATACOPY RETURNDATASIZE PUSH1 0x0 REVERT JUMPDEST POP POP POP POP PUSH1 0x40 MLOAD RETURNDATASIZE PUSH1 0x1F NOT PUSH1 0x1F DUP3 ADD AND DUP3 ADD DUP1 PUSH1 0x40 MSTORE POP DUP2 ADD SWAP1 PUSH2 0x155E SWAP2 SWAP1 PUSH2 0x312E JUMP JUMPDEST POP PUSH1 0xF SLOAD PUSH1 0x1 PUSH1 0x1 PUSH1 0xA0 SHL SUB AND PUSH1 0x0 SWAP1 DUP2 MSTORE PUSH1 0x9 PUSH1 0x20 MSTORE PUSH1 0x40 DUP2 KECCAK256 PUSH1 0x4 ADD DUP1 SLOAD DUP10 SWAP3 SWAP1 PUSH2 0x158C SWAP1 DUP5 SWAP1 PUSH2 0x3193 JUMP JUMPDEST SWAP1 SWAP2 SSTORE POP POP JUMPDEST PUSH2 0x159B CALLER PUSH2 0x2047 JUMP JUMPDEST POP POP POP POP POP POP POP POP JUMP JUMPDEST PUSH1 0x60 PUSH1 0x0 PUSH1 0xA SLOAD PUSH8 0xFFFFFFFFFFFFFFFF DUP2 GT ISZERO PUSH2 0x15C4 JUMPI PUSH2 0x15C4 PUSH2 0x31C8 JUMP JUMPDEST PUSH1 0x40 MLOAD SWAP1 DUP1 DUP3 MSTORE DUP1 PUSH1 0x20 MUL PUSH1 0x20 ADD DUP3 ADD PUSH1 0x40 MSTORE DUP1 ISZERO PUSH2 0x15FD JUMPI DUP2 PUSH1 0x20 ADD JUMPDEST PUSH2 0x15EA PUSH2 0x2C86 JUMP JUMPDEST DUP2 MSTORE PUSH1 0x20 ADD SWAP1 PUSH1 0x1 SWAP1 SUB SWAP1 DUP2 PUSH2 0x15E2 JUMPI SWAP1 POP JUMPDEST POP SWAP1 POP PUSH1 0x1 JUMPDEST PUSH1 0xA SLOAD PUSH2 0x1611 SWAP1 PUSH1 0x1 PUSH2 0x3193 JUMP JUMPDEST DUP2 LT ISZERO PUSH2 0x165B JUMPI PUSH2 0x1621 DUP2 PUSH2 0x2612 JUMP JUMPDEST DUP3 PUSH2 0x162D PUSH1 0x1 DUP5 PUSH2 0x2FF6 JUMP JUMPDEST DUP2 MLOAD DUP2 LT PUSH2 0x163D JUMPI PUSH2 0x163D PUSH2 0x31DE JUMP JUMPDEST PUSH1 0x20 MUL PUSH1 0x20 ADD ADD DUP2 SWAP1 MSTORE POP DUP1 DUP1 PUSH2 0x1653 SWAP1 PUSH2 0x31F4 JUMP JUMPDEST SWAP2 POP POP PUSH2 0x1603 JUMP JUMPDEST POP SWAP2 SWAP1 POP JUMP JUMPDEST PUSH1 0x0 SLOAD PUSH1 0x1 PUSH1 0x1 PUSH1 0xA0 SHL SUB AND CALLER EQ PUSH2 0x168B JUMPI PUSH1 0x40 MLOAD PUSH3 0x461BCD PUSH1 0xE5 SHL DUP2 MSTORE PUSH1 0x4 ADD PUSH2 0x72D SWAP1 PUSH2 0x30F9 JUMP JUMPDEST PUSH1 0x11 SSTORE JUMP JUMPDEST PUSH2 0x1698 PUSH2 0x2C86 JUMP JUMPDEST PUSH1 0x1 PUSH1 0x1 PUSH1 0xA0 SHL SUB DUP3 AND PUSH1 0x0 SWAP1 DUP2 MSTORE PUSH1 0xC PUSH1 0x20 MSTORE PUSH1 0x40 DUP2 KECCAK256 SLOAD SWAP1 PUSH2 0x16BB DUP3 PUSH2 0x2612 JUMP JUMPDEST SWAP5 SWAP4 POP POP POP POP JUMP JUMPDEST PUSH1 0x0 SLOAD PUSH1 0x1 PUSH1 0x1 PUSH1 0xA0 SHL SUB AND CALLER EQ PUSH2 0x16ED JUMPI PUSH1 0x40 MLOAD PUSH3 0x461BCD PUSH1 0xE5 SHL DUP2 MSTORE PUSH1 0x4 ADD PUSH2 0x72D SWAP1 PUSH2 0x30F9 JUMP JUMPDEST PUSH1 0x5 SWAP4 SWAP1 SWAP4 SSTORE PUSH1 0x6 SWAP2 SWAP1 SWAP2 SSTORE PUSH1 0x7 SSTORE PUSH1 0x8 SSTORE JUMP JUMPDEST PUSH1 0xE SLOAD PUSH1 0x1 PUSH1 0x1 PUSH1 0xA0 SHL SUB AND PUSH1 0x0 SWAP1 DUP2 MSTORE PUSH1 0x9 PUSH1 0x20 SWAP1 DUP2 MSTORE PUSH1 0x40 SWAP2 DUP3 SWAP1 KECCAK256 DUP3 MLOAD PUSH1 0xA0 DUP2 ADD DUP5 MSTORE DUP2 SLOAD DUP2 MSTORE PUSH1 0x1 DUP3 ADD SLOAD SWAP3 DUP2 ADD DUP4 SWAP1 MSTORE PUSH1 0x2 DUP3 ADD SLOAD SWAP4 DUP2 ADD SWAP4 SWAP1 SWAP4 MSTORE PUSH1 0x3 DUP1 DUP3 ADD SLOAD PUSH1 0x60 DUP6 DUP2 ADD SWAP2 SWAP1 SWAP2 MSTORE PUSH1 0x4 SWAP1 SWAP3 ADD SLOAD PUSH1 0x80 DUP6 ADD MSTORE SWAP1 SWAP3 SWAP2 PUSH2 0x1768 SWAP2 PUSH2 0x2028 JUMP JUMPDEST PUSH1 0x20 DUP3 ADD MSTORE PUSH1 0x40 DUP2 ADD MLOAD PUSH2 0x177D SWAP1 PUSH1 0x3 PUSH2 0x2028 JUMP JUMPDEST PUSH1 0x40 DUP1 DUP4 ADD SWAP2 SWAP1 SWAP2 MSTORE PUSH1 0xF SLOAD PUSH1 0x1 PUSH1 0x1 PUSH1 0xA0 SHL SUB AND PUSH1 0x0 SWAP1 DUP2 MSTORE PUSH1 0x9 PUSH1 0x20 SWAP1 DUP2 MSTORE SWAP1 DUP3 SWAP1 KECCAK256 DUP3 MLOAD PUSH1 0xA0 DUP2 ADD DUP5 MSTORE DUP2 SLOAD DUP2 MSTORE PUSH1 0x1 DUP3 ADD SLOAD SWAP3 DUP2 ADD DUP4 SWAP1 MSTORE PUSH1 0x2 DUP3 ADD SLOAD SWAP4 DUP2 ADD SWAP4 SWAP1 SWAP4 MSTORE PUSH1 0x3 DUP1 DUP3 ADD SLOAD PUSH1 0x60 DUP6 ADD MSTORE PUSH1 0x4 SWAP1 SWAP2 ADD SLOAD PUSH1 0x80 DUP5 ADD MSTORE PUSH2 0x17E5 SWAP2 SWAP1 PUSH2 0x2028 JUMP JUMPDEST PUSH1 0x20 DUP3 ADD MSTORE PUSH1 0x40 DUP2 ADD MLOAD PUSH2 0x17FA SWAP1 PUSH1 0x3 PUSH2 0x2028 JUMP JUMPDEST PUSH1 0x40 DUP3 DUP2 ADD SWAP2 SWAP1 SWAP2 MSTORE DUP1 MLOAD PUSH1 0x2 DUP1 DUP3 MSTORE PUSH1 0x60 DUP3 ADD SWAP1 SWAP3 MSTORE PUSH1 0x0 SWAP2 DUP2 PUSH1 0x20 ADD JUMPDEST PUSH2 0x184B PUSH1 0x40 MLOAD DUP1 PUSH1 0xA0 ADD PUSH1 0x40 MSTORE DUP1 PUSH1 0x0 DUP2 MSTORE PUSH1 0x20 ADD PUSH1 0x0 DUP2 MSTORE PUSH1 0x20 ADD PUSH1 0x0 DUP2 MSTORE PUSH1 0x20 ADD PUSH1 0x0 DUP2 MSTORE PUSH1 0x20 ADD PUSH1 0x0 DUP2 MSTORE POP SWAP1 JUMP JUMPDEST DUP2 MSTORE PUSH1 0x20 ADD SWAP1 PUSH1 0x1 SWAP1 SUB SWAP1 DUP2 PUSH2 0x1819 JUMPI SWAP1 POP POP SWAP1 POP DUP3 DUP2 PUSH1 0x0 DUP2 MLOAD DUP2 LT PUSH2 0x1874 JUMPI PUSH2 0x1874 PUSH2 0x31DE JUMP JUMPDEST PUSH1 0x20 MUL PUSH1 0x20 ADD ADD DUP2 SWAP1 MSTORE POP DUP2 DUP2 PUSH1 0x1 DUP2 MLOAD DUP2 LT PUSH2 0x1893 JUMPI PUSH2 0x1893 PUSH2 0x31DE JUMP JUMPDEST PUSH1 0x20 SWAP1 DUP2 MUL SWAP2 SWAP1 SWAP2 ADD ADD MSTORE SWAP4 SWAP3 POP POP POP JUMP JUMPDEST PUSH1 0x0 SLOAD PUSH1 0x1 PUSH1 0x1 PUSH1 0xA0 SHL SUB AND CALLER EQ PUSH2 0x18CF JUMPI PUSH1 0x40 MLOAD PUSH3 0x461BCD PUSH1 0xE5 SHL DUP2 MSTORE PUSH1 0x4 ADD PUSH2 0x72D SWAP1 PUSH2 0x30F9 JUMP JUMPDEST PUSH1 0x0 DUP1 SLOAD PUSH1 0x40 MLOAD PUSH1 0x1 PUSH1 0x1 PUSH1 0xA0 SHL SUB SWAP1 SWAP2 AND SWAP1 PUSH32 0x8BE0079C531659141344CD1FD0A4F28419497F9722A3DAAFE3B4186F6B6457E0 SWAP1 DUP4 SWAP1 LOG3 PUSH1 0x0 DUP1 SLOAD PUSH1 0x1 PUSH1 0x1 PUSH1 0xA0 SHL SUB NOT AND SWAP1 SSTORE JUMP JUMPDEST CALLER PUSH1 0x0 SWAP1 DUP2 MSTORE PUSH1 0xC PUSH1 0x20 MSTORE PUSH1 0x40 SWAP1 KECCAK256 SLOAD DUP1 PUSH2 0x1946 JUMPI PUSH1 0x40 MLOAD PUSH3 0x461BCD PUSH1 0xE5 SHL DUP2 MSTORE PUSH1 0x4 ADD PUSH2 0x72D SWAP1 PUSH2 0x3150 JUMP JUMPDEST PUSH1 0x0 DUP2 DUP2 MSTORE PUSH1 0xB PUSH1 0x20 MSTORE PUSH1 0x40 SWAP1 KECCAK256 PUSH2 0x195D CALLER PUSH2 0x2047 JUMP JUMPDEST PUSH1 0xD SLOAD PUSH1 0x6 DUP3 ADD SLOAD PUSH1 0x40 MLOAD PUSH4 0xA9059CBB PUSH1 0xE0 SHL DUP2 MSTORE CALLER PUSH1 0x4 DUP3 ADD MSTORE PUSH1 0x24 DUP2 ADD SWAP2 SWAP1 SWAP2 MSTORE PUSH1 0x1 PUSH1 0x1 PUSH1 0xA0 SHL SUB SWAP1 SWAP2 AND SWAP1 PUSH4 0xA9059CBB SWAP1 PUSH1 0x44 ADD PUSH1 0x20 PUSH1 0x40 MLOAD DUP1 DUP4 SUB DUP2 PUSH1 0x0 DUP8 GAS CALL ISZERO DUP1 ISZERO PUSH2 0x19B4 JUMPI RETURNDATASIZE PUSH1 0x0 DUP1 RETURNDATACOPY RETURNDATASIZE PUSH1 0x0 REVERT JUMPDEST POP POP POP POP PUSH1 0x40 MLOAD RETURNDATASIZE PUSH1 0x1F NOT PUSH1 0x1F DUP3 ADD AND DUP3 ADD DUP1 PUSH1 0x40 MSTORE POP DUP2 ADD SWAP1 PUSH2 0x19D8 SWAP2 SWAP1 PUSH2 0x312E JUMP JUMPDEST POP PUSH1 0x0 PUSH1 0x6 SWAP1 SWAP2 ADD SSTORE POP JUMP JUMPDEST PUSH1 0x0 PUSH2 0x19EF DUP3 PUSH2 0x2047 JUMP JUMPDEST PUSH1 0x1 PUSH1 0x1 PUSH1 0xA0 SHL SUB DUP1 DUP4 AND PUSH1 0x0 SWAP1 DUP2 MSTORE PUSH1 0xC PUSH1 0x20 SWAP1 DUP2 MSTORE PUSH1 0x40 DUP1 DUP4 KECCAK256 SLOAD DUP4 MSTORE PUSH1 0xB DUP3 MSTORE DUP1 DUP4 KECCAK256 PUSH1 0xE SLOAD SWAP1 SWAP5 AND DUP1 DUP5 MSTORE PUSH1 0x3 DUP6 ADD DUP4 MSTORE DUP2 DUP5 KECCAK256 SLOAD PUSH1 0x5 DUP7 ADD SWAP1 SWAP4 MSTORE SWAP1 DUP4 KECCAK256 SLOAD PUSH2 0x1A40 SWAP3 PUSH2 0x17F SWAP2 PUSH2 0x3193 JUMP JUMPDEST PUSH1 0xF SLOAD PUSH1 0x1 PUSH1 0x1 PUSH1 0xA0 SHL SUB AND PUSH1 0x0 DUP2 DUP2 MSTORE PUSH1 0x3 DUP6 ADD PUSH1 0x20 SWAP1 DUP2 MSTORE PUSH1 0x40 DUP1 DUP4 KECCAK256 SLOAD PUSH1 0x5 DUP9 ADD SWAP1 SWAP3 MSTORE DUP3 KECCAK256 SLOAD SWAP4 SWAP5 POP SWAP1 SWAP3 PUSH2 0x1A7D SWAP3 SWAP2 PUSH2 0x17F SWAP2 PUSH2 0x3193 JUMP JUMPDEST SWAP1 POP PUSH2 0x1A89 DUP2 DUP4 PUSH2 0x3193 JUMP JUMPDEST SWAP6 SWAP5 POP POP POP POP POP JUMP JUMPDEST PUSH1 0x0 SLOAD PUSH1 0x1 PUSH1 0x1 PUSH1 0xA0 SHL SUB AND CALLER EQ PUSH2 0x1ABC JUMPI PUSH1 0x40 MLOAD PUSH3 0x461BCD PUSH1 0xE5 SHL DUP2 MSTORE PUSH1 0x4 ADD PUSH2 0x72D SWAP1 PUSH2 0x30F9 JUMP JUMPDEST PUSH1 0x1 SWAP4 SWAP1 SWAP4 SSTORE PUSH1 0x2 SWAP2 SWAP1 SWAP2 SSTORE PUSH1 0x3 SSTORE PUSH1 0x4 SSTORE JUMP JUMPDEST PUSH1 0x0 PUSH2 0x1ADB DUP3 PUSH2 0x2047 JUMP JUMPDEST PUSH1 0x1 PUSH1 0x1 PUSH1 0xA0 SHL SUB DUP1 DUP4 AND PUSH1 0x0 SWAP1 DUP2 MSTORE PUSH1 0xC PUSH1 0x20 SWAP1 DUP2 MSTORE PUSH1 0x40 DUP1 DUP4 KECCAK256 SLOAD DUP4 MSTORE PUSH1 0xB DUP3 MSTORE DUP1 DUP4 KECCAK256 PUSH1 0xE SLOAD SWAP1 SWAP5 AND DUP1 DUP5 MSTORE PUSH1 0x2 DUP6 ADD DUP4 MSTORE DUP2 DUP5 KECCAK256 SLOAD PUSH1 0x4 DUP7 ADD SWAP1 SWAP4 MSTORE SWAP1 DUP4 KECCAK256 SLOAD PUSH2 0x1B2C SWAP3 PUSH2 0x17F SWAP2 PUSH2 0x3193 JUMP JUMPDEST PUSH1 0xF SLOAD PUSH1 0x1 PUSH1 0x1 PUSH1 0xA0 SHL SUB AND PUSH1 0x0 DUP2 DUP2 MSTORE PUSH1 0x2 DUP6 ADD PUSH1 0x20 SWAP1 DUP2 MSTORE PUSH1 0x40 DUP1 DUP4 KECCAK256 SLOAD PUSH1 0x4 DUP9 ADD SWAP1 SWAP3 MSTORE DUP3 KECCAK256 SLOAD SWAP4 SWAP5 POP SWAP1 SWAP3 PUSH2 0x1A7D SWAP3 SWAP2 PUSH2 0x17F SWAP2 PUSH2 0x3193 JUMP JUMPDEST PUSH1 0x0 SLOAD PUSH1 0x1 PUSH1 0x1 PUSH1 0xA0 SHL SUB AND CALLER EQ PUSH2 0x1B93 JUMPI PUSH1 0x40 MLOAD PUSH3 0x461BCD PUSH1 0xE5 SHL DUP2 MSTORE PUSH1 0x4 ADD PUSH2 0x72D SWAP1 PUSH2 0x30F9 JUMP JUMPDEST PUSH1 0x10 DUP1 SLOAD PUSH1 0x1 PUSH1 0x1 PUSH1 0xA0 SHL SUB NOT AND PUSH1 0x1 PUSH1 0x1 PUSH1 0xA0 SHL SUB SWAP3 SWAP1 SWAP3 AND SWAP2 SWAP1 SWAP2 OR SWAP1 SSTORE JUMP JUMPDEST PUSH1 0x0 SLOAD PUSH1 0x1 PUSH1 0x1 PUSH1 0xA0 SHL SUB AND CALLER EQ PUSH2 0x1BDF JUMPI PUSH1 0x40 MLOAD PUSH3 0x461BCD PUSH1 0xE5 SHL DUP2 MSTORE PUSH1 0x4 ADD PUSH2 0x72D SWAP1 PUSH2 0x30F9 JUMP JUMPDEST PUSH2 0x1BE8 DUP2 PUSH2 0x2BC6 JUMP JUMPDEST POP JUMP JUMPDEST PUSH1 0x0 DUP2 GT PUSH2 0x1C2E JUMPI PUSH1 0x40 MLOAD PUSH3 0x461BCD PUSH1 0xE5 SHL DUP2 MSTORE PUSH1 0x20 PUSH1 0x4 DUP3 ADD MSTORE PUSH1 0x10 PUSH1 0x24 DUP3 ADD MSTORE PUSH16 0x63616E2774207769746864726177203 PUSH1 0x84 SHL PUSH1 0x44 DUP3 ADD MSTORE PUSH1 0x64 ADD PUSH2 0x72D JUMP JUMPDEST CALLER PUSH1 0x0 SWAP1 DUP2 MSTORE PUSH1 0xC PUSH1 0x20 MSTORE PUSH1 0x40 SWAP1 KECCAK256 SLOAD DUP1 PUSH2 0x1C5B JUMPI PUSH1 0x40 MLOAD PUSH3 0x461BCD PUSH1 0xE5 SHL DUP2 MSTORE PUSH1 0x4 ADD PUSH2 0x72D SWAP1 PUSH2 0x3150 JUMP JUMPDEST PUSH1 0x0 DUP2 DUP2 MSTORE PUSH1 0xB PUSH1 0x20 MSTORE PUSH1 0x40 SWAP1 KECCAK256 PUSH2 0x1C72 CALLER PUSH2 0x2047 JUMP JUMPDEST PUSH1 0x0 PUSH2 0x1C7D CALLER PUSH2 0x1AD0 JUMP JUMPDEST SWAP1 POP PUSH1 0x0 PUSH2 0x1C8A CALLER PUSH2 0x19E4 JUMP JUMPDEST SWAP1 POP PUSH2 0x1C96 DUP7 DUP7 PUSH2 0x47F JUMP JUMPDEST PUSH2 0x1CA0 SWAP1 DUP3 PUSH2 0x3193 JUMP JUMPDEST PUSH1 0x1 PUSH1 0x1 PUSH1 0xA0 SHL SUB DUP8 AND PUSH1 0x0 SWAP1 DUP2 MSTORE PUSH1 0x9 PUSH1 0x20 MSTORE PUSH1 0x40 SWAP1 KECCAK256 SLOAD PUSH1 0x64 SWAP1 PUSH2 0x1CC6 SWAP1 DUP6 PUSH2 0x2FA3 JUMP JUMPDEST PUSH2 0x1CD0 SWAP2 SWAP1 PUSH2 0x31A6 JUMP JUMPDEST GT PUSH2 0x1D34 JUMPI PUSH1 0x40 MLOAD PUSH3 0x461BCD PUSH1 0xE5 SHL DUP2 MSTORE PUSH1 0x20 PUSH1 0x4 DUP3 ADD MSTORE PUSH1 0x2E PUSH1 0x24 DUP3 ADD MSTORE PUSH32 0x5769746864726177206661696C65642E596F7520646F6E6F7420686176652061 PUSH1 0x44 DUP3 ADD MSTORE PUSH14 0x373C9031B7B63630BA32B930B617 PUSH1 0x91 SHL PUSH1 0x64 DUP3 ADD MSTORE PUSH1 0x84 ADD PUSH2 0x72D JUMP JUMPDEST PUSH1 0x1 PUSH1 0x1 PUSH1 0xA0 SHL SUB DUP7 AND PUSH1 0x0 SWAP1 DUP2 MSTORE PUSH1 0x4 DUP5 ADD PUSH1 0x20 MSTORE PUSH1 0x40 SWAP1 KECCAK256 SLOAD DUP6 LT ISZERO PUSH2 0x1D8B JUMPI PUSH1 0x1 PUSH1 0x1 PUSH1 0xA0 SHL SUB DUP7 AND PUSH1 0x0 SWAP1 DUP2 MSTORE PUSH1 0x4 DUP5 ADD PUSH1 0x20 MSTORE PUSH1 0x40 DUP2 KECCAK256 DUP1 SLOAD DUP8 SWAP3 SWAP1 PUSH2 0x1D80 SWAP1 DUP5 SWAP1 PUSH2 0x2FF6 JUMP JUMPDEST SWAP1 SWAP2 SSTORE POP PUSH2 0x1E24 SWAP1 POP JUMP JUMPDEST PUSH1 0x1 PUSH1 0x1 PUSH1 0xA0 SHL SUB DUP7 AND PUSH1 0x0 SWAP1 DUP2 MSTORE PUSH1 0x4 DUP5 ADD PUSH1 0x20 MSTORE PUSH1 0x40 DUP2 KECCAK256 SLOAD PUSH2 0x1DB0 SWAP1 DUP8 PUSH2 0x2FF6 JUMP JUMPDEST PUSH1 0x1 PUSH1 0x1 PUSH1 0xA0 SHL SUB DUP9 AND PUSH1 0x0 SWAP1 DUP2 MSTORE PUSH1 0x2 DUP7 ADD PUSH1 0x20 MSTORE PUSH1 0x40 DUP2 KECCAK256 DUP1 SLOAD SWAP3 SWAP4 POP DUP4 SWAP3 SWAP1 SWAP2 SWAP1 PUSH2 0x1DDF SWAP1 DUP5 SWAP1 PUSH2 0x2FF6 JUMP JUMPDEST SWAP1 SWAP2 SSTORE POP POP PUSH1 0x1 PUSH1 0x1 PUSH1 0xA0 SHL SUB DUP8 AND PUSH1 0x0 SWAP1 DUP2 MSTORE PUSH1 0x4 DUP1 DUP7 ADD PUSH1 0x20 SWAP1 DUP2 MSTORE PUSH1 0x40 DUP1 DUP5 KECCAK256 DUP5 SWAP1 SSTORE PUSH1 0x9 SWAP1 SWAP2 MSTORE DUP3 KECCAK256 ADD DUP1 SLOAD DUP4 SWAP3 SWAP1 PUSH2 0x1E1D SWAP1 DUP5 SWAP1 PUSH2 0x2FF6 JUMP JUMPDEST SWAP1 SWAP2 SSTORE POP POP POP JUMPDEST PUSH1 0xE SLOAD PUSH1 0x1 PUSH1 0x1 PUSH1 0xA0 SHL SUB SWAP1 DUP2 AND SWAP1 DUP8 AND SUB PUSH2 0x1ED8 JUMPI PUSH1 0x40 MLOAD PUSH1 0x0 SWAP1 CALLER SWAP1 DUP8 SWAP1 DUP4 DUP2 DUP2 DUP2 DUP6 DUP8 GAS CALL SWAP3 POP POP POP RETURNDATASIZE DUP1 PUSH1 0x0 DUP2 EQ PUSH2 0x1E7C JUMPI PUSH1 0x40 MLOAD SWAP2 POP PUSH1 0x1F NOT PUSH1 0x3F RETURNDATASIZE ADD AND DUP3 ADD PUSH1 0x40 MSTORE RETURNDATASIZE DUP3 MSTORE RETURNDATASIZE PUSH1 0x0 PUSH1 0x20 DUP5 ADD RETURNDATACOPY PUSH2 0x1E81 JUMP JUMPDEST PUSH1 0x60 SWAP2 POP JUMPDEST POP POP SWAP1 POP DUP1 PUSH2 0x1ED2 JUMPI PUSH1 0x40 MLOAD PUSH3 0x461BCD PUSH1 0xE5 SHL DUP2 MSTORE PUSH1 0x20 PUSH1 0x4 DUP3 ADD MSTORE PUSH1 0x1C PUSH1 0x24 DUP3 ADD MSTORE PUSH32 0x6661696C656420746F2073656E642065746820696E7465726573742E00000000 PUSH1 0x44 DUP3 ADD MSTORE PUSH1 0x64 ADD PUSH2 0x72D JUMP JUMPDEST POP PUSH2 0x1F4F JUMP JUMPDEST PUSH1 0xF SLOAD PUSH1 0x40 MLOAD PUSH4 0xA9059CBB PUSH1 0xE0 SHL DUP2 MSTORE CALLER PUSH1 0x4 DUP3 ADD MSTORE PUSH1 0x24 DUP2 ADD DUP8 SWAP1 MSTORE PUSH1 0x1 PUSH1 0x1 PUSH1 0xA0 SHL SUB SWAP1 SWAP2 AND SWAP1 PUSH4 0xA9059CBB SWAP1 PUSH1 0x44 ADD PUSH1 0x20 PUSH1 0x40 MLOAD DUP1 DUP4 SUB DUP2 PUSH1 0x0 DUP8 GAS CALL ISZERO DUP1 ISZERO PUSH2 0x1F29 JUMPI RETURNDATASIZE PUSH1 0x0 DUP1 RETURNDATACOPY RETURNDATASIZE PUSH1 0x0 REVERT JUMPDEST POP POP POP POP PUSH1 0x40 MLOAD RETURNDATASIZE PUSH1 0x1F NOT PUSH1 0x1F DUP3 ADD AND DUP3 ADD DUP1 PUSH1 0x40 MSTORE POP DUP2 ADD SWAP1 PUSH2 0x1F4D SWAP2 SWAP1 PUSH2 0x312E JUMP JUMPDEST POP JUMPDEST PUSH2 0x1F58 CALLER PUSH2 0x2047 JUMP JUMPDEST POP POP POP POP POP POP JUMP JUMPDEST PUSH1 0x0 SLOAD PUSH1 0x1 PUSH1 0x1 PUSH1 0xA0 SHL SUB AND CALLER EQ PUSH2 0x1F8A JUMPI PUSH1 0x40 MLOAD PUSH3 0x461BCD PUSH1 0xE5 SHL DUP2 MSTORE PUSH1 0x4 ADD PUSH2 0x72D SWAP1 PUSH2 0x30F9 JUMP JUMPDEST PUSH1 0x0 DUP1 SLOAD PUSH1 0x40 MLOAD PUSH1 0x1 PUSH1 0x1 PUSH1 0xA0 SHL SUB SWAP1 SWAP2 AND SWAP1 DUP4 SWAP1 DUP4 DUP2 DUP2 DUP2 DUP6 DUP8 GAS CALL SWAP3 POP POP POP RETURNDATASIZE DUP1 PUSH1 0x0 DUP2 EQ PUSH2 0x1FD7 JUMPI PUSH1 0x40 MLOAD SWAP2 POP PUSH1 0x1F NOT PUSH1 0x3F RETURNDATASIZE ADD AND DUP3 ADD PUSH1 0x40 MSTORE RETURNDATASIZE DUP3 MSTORE RETURNDATASIZE PUSH1 0x0 PUSH1 0x20 DUP5 ADD RETURNDATACOPY PUSH2 0x1FDC JUMP JUMPDEST PUSH1 0x60 SWAP2 POP JUMPDEST POP POP SWAP1 POP DUP1 PUSH2 0x2024 JUMPI PUSH1 0x40 MLOAD PUSH3 0x461BCD PUSH1 0xE5 SHL DUP2 MSTORE PUSH1 0x20 PUSH1 0x4 DUP3 ADD MSTORE PUSH1 0x14 PUSH1 0x24 DUP3 ADD MSTORE PUSH20 0x2330B4B632B2103A379039B2B7321022BA3432B9 PUSH1 0x61 SHL PUSH1 0x44 DUP3 ADD MSTORE PUSH1 0x64 ADD PUSH2 0x72D JUMP JUMPDEST POP POP JUMP JUMPDEST PUSH1 0x0 PUSH2 0x2034 DUP3 DUP5 PUSH2 0x31A6 JUMP JUMPDEST SWAP4 SWAP3 POP POP POP JUMP JUMPDEST PUSH1 0x0 PUSH2 0x2034 DUP3 DUP5 PUSH2 0x2FA3 JUMP JUMPDEST PUSH1 0x1 PUSH1 0x1 PUSH1 0xA0 SHL SUB DUP2 AND PUSH1 0x0 SWAP1 DUP2 MSTORE PUSH1 0xC PUSH1 0x20 MSTORE PUSH1 0x40 SWAP1 KECCAK256 SLOAD PUSH2 0x20AC JUMPI PUSH1 0x40 MLOAD PUSH3 0x461BCD PUSH1 0xE5 SHL DUP2 MSTORE PUSH1 0x20 PUSH1 0x4 DUP3 ADD MSTORE PUSH1 0x1A PUSH1 0x24 DUP3 ADD MSTORE PUSH32 0x557365722073686F756C64206465706F736974206265666F7265000000000000 PUSH1 0x44 DUP3 ADD MSTORE PUSH1 0x64 ADD PUSH2 0x72D JUMP JUMPDEST PUSH1 0x1 PUSH1 0x1 PUSH1 0xA0 SHL SUB DUP2 AND PUSH1 0x0 DUP2 DUP2 MSTORE PUSH1 0xC PUSH1 0x20 DUP2 DUP2 MSTORE PUSH1 0x40 DUP1 DUP5 KECCAK256 SLOAD DUP1 DUP6 MSTORE PUSH1 0xB DUP4 MSTORE SWAP1 DUP5 KECCAK256 SWAP5 DUP5 MSTORE SWAP2 SWAP1 MSTORE PUSH2 0x20E1 SWAP1 PUSH2 0x2612 JUMP JUMPDEST PUSH2 0x100 DUP2 ADD MLOAD PUSH1 0x6 DUP5 ADD SSTORE PUSH1 0xC0 DUP2 ADD MLOAD PUSH1 0xE DUP1 SLOAD PUSH1 0x1 PUSH1 0x1 PUSH1 0xA0 SHL SUB SWAP1 DUP2 AND PUSH1 0x0 SWAP1 DUP2 MSTORE PUSH1 0x4 DUP8 ADD PUSH1 0x20 DUP2 DUP2 MSTORE PUSH1 0x40 DUP1 DUP5 KECCAK256 SWAP7 SWAP1 SWAP7 SSTORE PUSH1 0x80 DUP8 ADD MLOAD SWAP5 SLOAD DUP5 AND DUP4 MSTORE PUSH1 0x5 DUP10 ADD DUP1 DUP3 MSTORE DUP7 DUP5 KECCAK256 SWAP6 SWAP1 SWAP6 SSTORE PUSH1 0xE0 DUP8 ADD MLOAD PUSH1 0xF DUP1 SLOAD DUP7 AND DUP6 MSTORE SWAP3 DUP3 MSTORE DUP7 DUP5 KECCAK256 SSTORE PUSH1 0xA0 DUP8 ADD MLOAD SWAP2 SLOAD SWAP1 SWAP4 AND DUP3 MSTORE SWAP3 SWAP1 SWAP2 MSTORE SWAP2 DUP3 KECCAK256 SSTORE TIMESTAMP PUSH1 0x1 DUP6 ADD SSTORE SWAP1 SWAP2 POP DUP1 PUSH2 0x216A PUSH2 0xB01 JUMP JUMPDEST SWAP1 SWAP3 POP SWAP1 POP DUP2 ISZERO PUSH2 0x232C JUMPI PUSH1 0x0 PUSH2 0x2186 DUP4 PUSH2 0x4C6 DUP5 PUSH1 0x64 PUSH2 0x2FA3 JUMP JUMPDEST SWAP1 POP PUSH1 0x0 DUP2 PUSH1 0x5 PUSH1 0x1 ADD SLOAD GT ISZERO PUSH2 0x21C0 JUMPI PUSH1 0x6 SLOAD PUSH1 0x7 SLOAD PUSH2 0x21AC SWAP2 SWAP1 PUSH2 0x4C6 SWAP1 DUP6 PUSH2 0x2FA3 JUMP JUMPDEST PUSH1 0x5 SLOAD PUSH2 0x21B9 SWAP2 SWAP1 PUSH2 0x3193 JUMP JUMPDEST SWAP1 POP PUSH2 0x2209 JUMP JUMPDEST PUSH1 0x6 SLOAD PUSH2 0x21EC SWAP1 PUSH2 0x21D2 SWAP1 PUSH1 0x64 PUSH2 0x2FF6 JUMP JUMPDEST PUSH1 0x8 SLOAD PUSH1 0x6 SLOAD PUSH2 0x21E2 SWAP1 DUP7 PUSH2 0x2FF6 JUMP JUMPDEST PUSH2 0x4C6 SWAP2 SWAP1 PUSH2 0x2FA3 JUMP JUMPDEST PUSH1 0x7 SLOAD PUSH1 0x5 SLOAD PUSH2 0x21FC SWAP2 SWAP1 PUSH2 0x3193 JUMP JUMPDEST PUSH2 0x2206 SWAP2 SWAP1 PUSH2 0x3193 JUMP JUMPDEST SWAP1 POP JUMPDEST PUSH1 0x0 DUP3 PUSH1 0x1 DUP1 ADD SLOAD GT ISZERO PUSH2 0x2240 JUMPI PUSH1 0x2 SLOAD PUSH1 0x3 SLOAD PUSH2 0x222C SWAP2 SWAP1 PUSH2 0x4C6 SWAP1 DUP7 PUSH2 0x2FA3 JUMP JUMPDEST PUSH1 0x1 SLOAD PUSH2 0x2239 SWAP2 SWAP1 PUSH2 0x3193 JUMP JUMPDEST SWAP1 POP PUSH2 0x227F JUMP JUMPDEST PUSH1 0x2 SLOAD PUSH2 0x2262 SWAP1 PUSH2 0x2252 SWAP1 PUSH1 0x64 PUSH2 0x2FF6 JUMP JUMPDEST PUSH1 0x4 SLOAD PUSH1 0x2 SLOAD PUSH2 0x21E2 SWAP1 DUP8 PUSH2 0x2FF6 JUMP JUMPDEST PUSH1 0x3 SLOAD PUSH1 0x1 SLOAD PUSH2 0x2272 SWAP2 SWAP1 PUSH2 0x3193 JUMP JUMPDEST PUSH2 0x227C SWAP2 SWAP1 PUSH2 0x3193 JUMP JUMPDEST SWAP1 POP JUMPDEST PUSH2 0x228A DUP2 PUSH1 0x3 PUSH2 0x2FA3 JUMP JUMPDEST PUSH1 0xE SLOAD PUSH1 0x1 PUSH1 0x1 PUSH1 0xA0 SHL SUB AND PUSH1 0x0 SWAP1 DUP2 MSTORE PUSH1 0x9 PUSH1 0x20 MSTORE PUSH1 0x40 SWAP1 KECCAK256 PUSH1 0x1 ADD SSTORE PUSH2 0x22B3 DUP3 PUSH1 0x3 PUSH2 0x2FA3 JUMP JUMPDEST PUSH1 0xE SLOAD PUSH1 0x1 PUSH1 0x1 PUSH1 0xA0 SHL SUB AND PUSH1 0x0 SWAP1 DUP2 MSTORE PUSH1 0x9 PUSH1 0x20 MSTORE PUSH1 0x40 SWAP1 KECCAK256 PUSH1 0x2 ADD SSTORE PUSH2 0x22DC DUP2 PUSH1 0x3 PUSH2 0x2FA3 JUMP JUMPDEST PUSH1 0xF SLOAD PUSH1 0x1 PUSH1 0x1 PUSH1 0xA0 SHL SUB AND PUSH1 0x0 SWAP1 DUP2 MSTORE PUSH1 0x9 PUSH1 0x20 MSTORE PUSH1 0x40 SWAP1 KECCAK256 PUSH1 0x1 ADD SSTORE PUSH2 0x2305 DUP3 PUSH1 0x3 PUSH2 0x2FA3 JUMP JUMPDEST PUSH1 0xF SLOAD PUSH1 0x1 PUSH1 0x1 PUSH1 0xA0 SHL SUB AND PUSH1 0x0 SWAP1 DUP2 MSTORE PUSH1 0x9 PUSH1 0x20 MSTORE PUSH1 0x40 SWAP1 KECCAK256 PUSH1 0x2 ADD SSTORE POP PUSH2 0xAFA SWAP2 POP POP JUMP JUMPDEST PUSH1 0x1 SLOAD PUSH2 0x233A SWAP1 PUSH1 0x3 PUSH2 0x2FA3 JUMP JUMPDEST PUSH1 0xE SLOAD PUSH1 0x1 PUSH1 0x1 PUSH1 0xA0 SHL SUB AND PUSH1 0x0 SWAP1 DUP2 MSTORE PUSH1 0x9 PUSH1 0x20 MSTORE PUSH1 0x40 SWAP1 KECCAK256 PUSH1 0x1 ADD SSTORE PUSH1 0x5 SLOAD PUSH2 0x2366 SWAP1 PUSH1 0x3 PUSH2 0x2FA3 JUMP JUMPDEST PUSH1 0xE SLOAD PUSH1 0x1 PUSH1 0x1 PUSH1 0xA0 SHL SUB AND PUSH1 0x0 SWAP1 DUP2 MSTORE PUSH1 0x9 PUSH1 0x20 MSTORE PUSH1 0x40 SWAP1 KECCAK256 PUSH1 0x2 ADD SSTORE PUSH1 0x1 SLOAD PUSH2 0x2392 SWAP1 PUSH1 0x3 PUSH2 0x2FA3 JUMP JUMPDEST PUSH1 0xF SLOAD PUSH1 0x1 PUSH1 0x1 PUSH1 0xA0 SHL SUB AND PUSH1 0x0 SWAP1 DUP2 MSTORE PUSH1 0x9 PUSH1 0x20 MSTORE PUSH1 0x40 SWAP1 KECCAK256 PUSH1 0x1 ADD SSTORE PUSH1 0x5 SLOAD PUSH2 0x23BE SWAP1 PUSH1 0x3 PUSH2 0x2FA3 JUMP JUMPDEST PUSH1 0xF SLOAD PUSH1 0x1 PUSH1 0x1 PUSH1 0xA0 SHL SUB AND PUSH1 0x0 SWAP1 DUP2 MSTORE PUSH1 0x9 PUSH1 0x20 MSTORE PUSH1 0x40 SWAP1 KECCAK256 PUSH1 0x2 ADD SSTORE POP POP POP POP POP JUMP JUMPDEST PUSH1 0x1 PUSH1 0x1 PUSH1 0xA0 SHL SUB DUP2 AND PUSH1 0x0 SWAP1 DUP2 MSTORE PUSH1 0xC PUSH1 0x20 MSTORE PUSH1 0x40 SWAP1 KECCAK256 SLOAD PUSH2 0x2448 JUMPI PUSH1 0x40 MLOAD PUSH3 0x461BCD PUSH1 0xE5 SHL DUP2 MSTORE PUSH1 0x20 PUSH1 0x4 DUP3 ADD MSTORE PUSH1 0x1A PUSH1 0x24 DUP3 ADD MSTORE PUSH32 0x557365722073686F756C64206465706F736974206265666F7265000000000000 PUSH1 0x44 DUP3 ADD MSTORE PUSH1 0x64 ADD PUSH2 0x72D JUMP JUMPDEST PUSH1 0x1 PUSH1 0x1 PUSH1 0xA0 SHL SUB DUP1 DUP3 AND PUSH1 0x0 SWAP1 DUP2 MSTORE PUSH1 0xC PUSH1 0x20 SWAP1 DUP2 MSTORE PUSH1 0x40 DUP1 DUP4 KECCAK256 SLOAD DUP4 MSTORE PUSH1 0xB DUP3 MSTORE DUP1 DUP4 KECCAK256 PUSH1 0xE SLOAD SWAP1 SWAP5 AND DUP4 MSTORE PUSH1 0x2 DUP5 ADD DUP3 MSTORE DUP1 DUP4 KECCAK256 SLOAD PUSH1 0x9 SWAP1 SWAP3 MSTORE DUP3 KECCAK256 PUSH1 0x3 ADD DUP1 SLOAD SWAP2 SWAP3 SWAP1 SWAP2 PUSH2 0x249B SWAP1 DUP5 SWAP1 PUSH2 0x2FF6 JUMP JUMPDEST SWAP1 SWAP2 SSTORE POP POP PUSH1 0xE SLOAD PUSH1 0x1 PUSH1 0x1 PUSH1 0xA0 SHL SUB AND PUSH1 0x0 SWAP1 DUP2 MSTORE PUSH1 0x3 DUP3 ADD PUSH1 0x20 SWAP1 DUP2 MSTORE PUSH1 0x40 DUP1 DUP4 KECCAK256 SLOAD PUSH1 0x9 SWAP1 SWAP3 MSTORE DUP3 KECCAK256 PUSH1 0x4 ADD DUP1 SLOAD SWAP2 SWAP3 SWAP1 SWAP2 PUSH2 0x24DB SWAP1 DUP5 SWAP1 PUSH2 0x2FF6 JUMP JUMPDEST SWAP1 SWAP2 SSTORE POP POP PUSH1 0xE DUP1 SLOAD PUSH1 0x1 PUSH1 0x1 PUSH1 0xA0 SHL SUB SWAP1 DUP2 AND PUSH1 0x0 SWAP1 DUP2 MSTORE PUSH1 0x2 DUP5 ADD PUSH1 0x20 DUP2 DUP2 MSTORE PUSH1 0x40 DUP1 DUP5 KECCAK256 DUP5 SWAP1 SSTORE DUP6 SLOAD DUP6 AND DUP5 MSTORE PUSH1 0x3 DUP1 DUP9 ADD DUP4 MSTORE DUP2 DUP6 KECCAK256 DUP6 SWAP1 SSTORE DUP7 SLOAD DUP7 AND DUP6 MSTORE PUSH1 0x4 DUP9 ADD DUP4 MSTORE DUP2 DUP6 KECCAK256 DUP6 SWAP1 SSTORE SWAP6 SLOAD DUP6 AND DUP5 MSTORE PUSH1 0x5 DUP8 ADD DUP3 MSTORE DUP1 DUP5 KECCAK256 DUP5 SWAP1 SSTORE PUSH1 0xF SLOAD SWAP1 SWAP5 AND DUP4 MSTORE SWAP1 DUP2 MSTORE DUP3 DUP3 KECCAK256 SLOAD PUSH1 0x9 SWAP1 SWAP2 MSTORE SWAP2 DUP2 KECCAK256 SWAP1 SWAP3 ADD DUP1 SLOAD SWAP2 SWAP3 SWAP1 SWAP2 PUSH2 0x2567 SWAP1 DUP5 SWAP1 PUSH2 0x2FF6 JUMP JUMPDEST SWAP1 SWAP2 SSTORE POP POP PUSH1 0xF SLOAD PUSH1 0x1 PUSH1 0x1 PUSH1 0xA0 SHL SUB AND PUSH1 0x0 SWAP1 DUP2 MSTORE PUSH1 0x3 DUP3 ADD PUSH1 0x20 SWAP1 DUP2 MSTORE PUSH1 0x40 DUP1 DUP4 KECCAK256 SLOAD PUSH1 0x9 SWAP1 SWAP3 MSTORE DUP3 KECCAK256 PUSH1 0x4 ADD DUP1 SLOAD SWAP2 SWAP3 SWAP1 SWAP2 PUSH2 0x25A7 SWAP1 DUP5 SWAP1 PUSH2 0x2FF6 JUMP JUMPDEST SWAP1 SWAP2 SSTORE POP POP PUSH1 0xF DUP1 SLOAD PUSH1 0x1 PUSH1 0x1 PUSH1 0xA0 SHL SUB SWAP1 DUP2 AND PUSH1 0x0 SWAP1 DUP2 MSTORE PUSH1 0x2 DUP5 ADD PUSH1 0x20 SWAP1 DUP2 MSTORE PUSH1 0x40 DUP1 DUP4 KECCAK256 DUP4 SWAP1 SSTORE DUP5 SLOAD DUP5 AND DUP4 MSTORE PUSH1 0x3 DUP7 ADD DUP3 MSTORE DUP1 DUP4 KECCAK256 DUP4 SWAP1 SSTORE DUP5 SLOAD DUP5 AND DUP4 MSTORE PUSH1 0x4 DUP7 ADD DUP3 MSTORE DUP1 DUP4 KECCAK256 DUP4 SWAP1 SSTORE SWAP4 SLOAD SWAP1 SWAP3 AND DUP2 MSTORE PUSH1 0x5 DUP5 ADD SWAP1 SWAP2 MSTORE SWAP1 DUP2 KECCAK256 DUP2 SWAP1 SSTORE PUSH1 0x6 SWAP1 SWAP2 ADD SSTORE POP JUMP JUMPDEST PUSH2 0x261A PUSH2 0x2C86 JUMP JUMPDEST DUP2 ISZERO PUSH2 0x2B46 JUMPI PUSH1 0x0 DUP3 DUP2 MSTORE PUSH1 0xB PUSH1 0x20 MSTORE PUSH1 0x40 DUP2 KECCAK256 PUSH1 0x1 DUP2 ADD SLOAD SWAP1 SWAP2 PUSH2 0x263F DUP3 TIMESTAMP PUSH2 0x2FF6 JUMP JUMPDEST PUSH1 0xE SLOAD PUSH1 0x12 SLOAD PUSH1 0x1 PUSH1 0x1 PUSH1 0xA0 SHL SUB SWAP1 SWAP2 AND PUSH1 0x0 DUP2 DUP2 MSTORE PUSH1 0x9 PUSH1 0x20 SWAP1 DUP2 MSTORE PUSH1 0x40 DUP1 DUP4 KECCAK256 PUSH1 0x1 ADD SLOAD PUSH1 0x2 DUP11 ADD SWAP1 SWAP3 MSTORE DUP3 KECCAK256 SLOAD SWAP5 SWAP6 POP SWAP1 SWAP4 PUSH2 0x2699 SWAP4 SWAP2 DUP7 SWAP2 PUSH2 0x2685 SWAP2 SWAP1 PUSH2 0x2FA3 JUMP JUMPDEST PUSH2 0x268F SWAP2 SWAP1 PUSH2 0x2FA3 JUMP JUMPDEST PUSH2 0x17F SWAP2 SWAP1 PUSH2 0x31A6 JUMP JUMPDEST DUP5 PUSH1 0x6 ADD SLOAD PUSH2 0x26A8 SWAP2 SWAP1 PUSH2 0x3193 JUMP JUMPDEST PUSH1 0x12 SLOAD PUSH1 0xE SLOAD PUSH1 0x1 PUSH1 0x1 PUSH1 0xA0 SHL SUB AND PUSH1 0x0 SWAP1 DUP2 MSTORE PUSH1 0x9 PUSH1 0x20 SWAP1 DUP2 MSTORE PUSH1 0x40 DUP1 DUP4 KECCAK256 PUSH1 0x1 ADD SLOAD PUSH1 0x2 DUP11 ADD SWAP1 SWAP3 MSTORE DUP3 KECCAK256 SLOAD SWAP4 SWAP5 POP SWAP1 SWAP3 DUP6 SWAP2 PUSH2 0x26E6 SWAP2 PUSH2 0x2FA3 JUMP JUMPDEST PUSH2 0x26F0 SWAP2 SWAP1 PUSH2 0x2FA3 JUMP JUMPDEST PUSH2 0x26FA SWAP2 SWAP1 PUSH2 0x31A6 JUMP JUMPDEST PUSH1 0xE SLOAD PUSH1 0x1 PUSH1 0x1 PUSH1 0xA0 SHL SUB AND PUSH1 0x0 SWAP1 DUP2 MSTORE PUSH1 0x4 DUP8 ADD PUSH1 0x20 MSTORE PUSH1 0x40 SWAP1 KECCAK256 SLOAD PUSH2 0x2721 SWAP2 SWAP1 PUSH2 0x3193 JUMP JUMPDEST PUSH1 0x12 SLOAD PUSH1 0xE SLOAD PUSH1 0x1 PUSH1 0x1 PUSH1 0xA0 SHL SUB AND PUSH1 0x0 SWAP1 DUP2 MSTORE PUSH1 0x9 PUSH1 0x20 SWAP1 DUP2 MSTORE PUSH1 0x40 DUP1 DUP4 KECCAK256 PUSH1 0x2 ADD SLOAD PUSH1 0x3 DUP12 ADD SWAP1 SWAP3 MSTORE DUP3 KECCAK256 SLOAD SWAP4 SWAP5 POP SWAP1 SWAP3 DUP7 SWAP2 PUSH2 0x275F SWAP2 PUSH2 0x2FA3 JUMP JUMPDEST PUSH2 0x2769 SWAP2 SWAP1 PUSH2 0x2FA3 JUMP JUMPDEST PUSH2 0x2773 SWAP2 SWAP1 PUSH2 0x31A6 JUMP JUMPDEST PUSH1 0xE SLOAD PUSH1 0x1 PUSH1 0x1 PUSH1 0xA0 SHL SUB AND PUSH1 0x0 SWAP1 DUP2 MSTORE PUSH1 0x5 DUP9 ADD PUSH1 0x20 MSTORE PUSH1 0x40 SWAP1 KECCAK256 SLOAD PUSH2 0x279A SWAP2 SWAP1 PUSH2 0x3193 JUMP JUMPDEST PUSH1 0xF SLOAD PUSH1 0x12 SLOAD PUSH1 0x1 PUSH1 0x1 PUSH1 0xA0 SHL SUB SWAP1 SWAP2 AND PUSH1 0x0 DUP2 DUP2 MSTORE PUSH1 0x9 PUSH1 0x20 SWAP1 DUP2 MSTORE PUSH1 0x40 DUP1 DUP4 KECCAK256 PUSH1 0x1 ADD SLOAD PUSH1 0x2 DUP14 ADD SWAP1 SWAP3 MSTORE SWAP1 SWAP2 KECCAK256 SLOAD SWAP4 SWAP5 POP PUSH2 0x27E0 SWAP4 SWAP2 SWAP3 SWAP2 DUP9 SWAP2 PUSH2 0x2685 SWAP2 PUSH2 0x2FA3 JUMP JUMPDEST DUP7 PUSH1 0x6 ADD SLOAD PUSH2 0x27EF SWAP2 SWAP1 PUSH2 0x3193 JUMP JUMPDEST PUSH2 0x27F9 SWAP1 DUP5 PUSH2 0x3193 JUMP JUMPDEST PUSH1 0x12 SLOAD PUSH1 0xF SLOAD PUSH1 0x1 PUSH1 0x1 PUSH1 0xA0 SHL SUB AND PUSH1 0x0 SWAP1 DUP2 MSTORE PUSH1 0x9 PUSH1 0x20 SWAP1 DUP2 MSTORE PUSH1 0x40 DUP1 DUP4 KECCAK256 PUSH1 0x1 ADD SLOAD PUSH1 0x2 DUP13 ADD SWAP1 SWAP3 MSTORE DUP3 KECCAK256 SLOAD SWAP4 SWAP7 POP SWAP1 SWAP3 DUP8 SWAP2 PUSH2 0x2837 SWAP2 PUSH2 0x2FA3 JUMP JUMPDEST PUSH2 0x2841 SWAP2 SWAP1 PUSH2 0x2FA3 JUMP JUMPDEST PUSH2 0x284B SWAP2 SWAP1 PUSH2 0x31A6 JUMP JUMPDEST PUSH1 0xF SLOAD PUSH1 0x1 PUSH1 0x1 PUSH1 0xA0 SHL SUB AND PUSH1 0x0 SWAP1 DUP2 MSTORE PUSH1 0x4 DUP10 ADD PUSH1 0x20 MSTORE PUSH1 0x40 SWAP1 KECCAK256 SLOAD PUSH2 0x2872 SWAP2 SWAP1 PUSH2 0x3193 JUMP JUMPDEST PUSH1 0x12 SLOAD PUSH1 0xF SLOAD PUSH1 0x1 PUSH1 0x1 PUSH1 0xA0 SHL SUB AND PUSH1 0x0 SWAP1 DUP2 MSTORE PUSH1 0x9 PUSH1 0x20 SWAP1 DUP2 MSTORE PUSH1 0x40 DUP1 DUP4 KECCAK256 PUSH1 0x2 ADD SLOAD PUSH1 0x3 DUP14 ADD SWAP1 SWAP3 MSTORE DUP3 KECCAK256 SLOAD SWAP4 SWAP5 POP SWAP1 SWAP3 DUP9 SWAP2 PUSH2 0x28B0 SWAP2 PUSH2 0x2FA3 JUMP JUMPDEST PUSH2 0x28BA SWAP2 SWAP1 PUSH2 0x2FA3 JUMP JUMPDEST PUSH2 0x28C4 SWAP2 SWAP1 PUSH2 0x31A6 JUMP JUMPDEST PUSH1 0xF SLOAD PUSH1 0x1 PUSH1 0x1 PUSH1 0xA0 SHL SUB AND PUSH1 0x0 SWAP1 DUP2 MSTORE PUSH1 0x5 DUP11 ADD PUSH1 0x20 MSTORE PUSH1 0x40 SWAP1 KECCAK256 SLOAD PUSH2 0x28EB SWAP2 SWAP1 PUSH2 0x3193 JUMP JUMPDEST SWAP1 POP PUSH1 0x0 PUSH1 0x40 MLOAD DUP1 PUSH2 0x1C0 ADD PUSH1 0x40 MSTORE DUP1 DUP11 PUSH1 0x2 ADD PUSH1 0x0 PUSH1 0xE PUSH1 0x0 SWAP1 SLOAD SWAP1 PUSH2 0x100 EXP SWAP1 DIV PUSH1 0x1 PUSH1 0x1 PUSH1 0xA0 SHL SUB AND PUSH1 0x1 PUSH1 0x1 PUSH1 0xA0 SHL SUB AND PUSH1 0x1 PUSH1 0x1 PUSH1 0xA0 SHL SUB AND DUP2 MSTORE PUSH1 0x20 ADD SWAP1 DUP2 MSTORE PUSH1 0x20 ADD PUSH1 0x0 KECCAK256 SLOAD DUP2 MSTORE PUSH1 0x20 ADD DUP11 PUSH1 0x2 ADD PUSH1 0x0 PUSH1 0xF PUSH1 0x0 SWAP1 SLOAD SWAP1 PUSH2 0x100 EXP SWAP1 DIV PUSH1 0x1 PUSH1 0x1 PUSH1 0xA0 SHL SUB AND PUSH1 0x1 PUSH1 0x1 PUSH1 0xA0 SHL SUB AND PUSH1 0x1 PUSH1 0x1 PUSH1 0xA0 SHL SUB AND DUP2 MSTORE PUSH1 0x20 ADD SWAP1 DUP2 MSTORE PUSH1 0x20 ADD PUSH1 0x0 KECCAK256 SLOAD DUP2 MSTORE PUSH1 0x20 ADD DUP11 PUSH1 0x3 ADD PUSH1 0x0 PUSH1 0xE PUSH1 0x0 SWAP1 SLOAD SWAP1 PUSH2 0x100 EXP SWAP1 DIV PUSH1 0x1 PUSH1 0x1 PUSH1 0xA0 SHL SUB AND PUSH1 0x1 PUSH1 0x1 PUSH1 0xA0 SHL SUB AND PUSH1 0x1 PUSH1 0x1 PUSH1 0xA0 SHL SUB AND DUP2 MSTORE PUSH1 0x20 ADD SWAP1 DUP2 MSTORE PUSH1 0x20 ADD PUSH1 0x0 KECCAK256 SLOAD DUP2 MSTORE PUSH1 0x20 ADD DUP11 PUSH1 0x3 ADD PUSH1 0x0 PUSH1 0xF PUSH1 0x0 SWAP1 SLOAD SWAP1 PUSH2 0x100 EXP SWAP1 DIV PUSH1 0x1 PUSH1 0x1 PUSH1 0xA0 SHL SUB AND PUSH1 0x1 PUSH1 0x1 PUSH1 0xA0 SHL SUB AND PUSH1 0x1 PUSH1 0x1 PUSH1 0xA0 SHL SUB AND DUP2 MSTORE PUSH1 0x20 ADD SWAP1 DUP2 MSTORE PUSH1 0x20 ADD PUSH1 0x0 KECCAK256 SLOAD DUP2 MSTORE PUSH1 0x20 ADD DUP6 DUP2 MSTORE PUSH1 0x20 ADD DUP4 DUP2 MSTORE PUSH1 0x20 ADD DUP7 DUP2 MSTORE PUSH1 0x20 ADD DUP5 DUP2 MSTORE PUSH1 0x20 ADD DUP8 DUP2 MSTORE PUSH1 0x20 ADD PUSH2 0x2A82 PUSH1 0xE PUSH1 0x0 SWAP1 SLOAD SWAP1 PUSH2 0x100 EXP SWAP1 DIV PUSH1 0x1 PUSH1 0x1 PUSH1 0xA0 SHL SUB AND DUP9 DUP14 PUSH1 0x2 ADD PUSH1 0x0 PUSH1 0xE PUSH1 0x0 SWAP1 SLOAD SWAP1 PUSH2 0x100 EXP SWAP1 DIV PUSH1 0x1 PUSH1 0x1 PUSH1 0xA0 SHL SUB AND PUSH1 0x1 PUSH1 0x1 PUSH1 0xA0 SHL SUB AND PUSH1 0x1 PUSH1 0x1 PUSH1 0xA0 SHL SUB AND DUP2 MSTORE PUSH1 0x20 ADD SWAP1 DUP2 MSTORE PUSH1 0x20 ADD PUSH1 0x0 KECCAK256 SLOAD PUSH2 0x17F SWAP2 SWAP1 PUSH2 0x3193 JUMP JUMPDEST DUP2 MSTORE PUSH1 0xF SLOAD PUSH1 0x1 PUSH1 0x1 PUSH1 0xA0 SHL SUB AND PUSH1 0x0 DUP2 DUP2 MSTORE PUSH1 0x2 DUP14 ADD PUSH1 0x20 SWAP1 DUP2 MSTORE PUSH1 0x40 SWAP1 SWAP2 KECCAK256 SLOAD SWAP3 ADD SWAP2 PUSH2 0x2AB7 SWAP2 SWAP1 PUSH2 0x17F SWAP1 DUP9 SWAP1 PUSH2 0x3193 JUMP JUMPDEST DUP2 MSTORE PUSH1 0xE SLOAD PUSH1 0x1 PUSH1 0x1 PUSH1 0xA0 SHL SUB AND PUSH1 0x0 DUP2 DUP2 MSTORE PUSH1 0x3 DUP14 ADD PUSH1 0x20 SWAP1 DUP2 MSTORE PUSH1 0x40 SWAP1 SWAP2 KECCAK256 SLOAD SWAP3 ADD SWAP2 PUSH2 0x2AEC SWAP2 SWAP1 PUSH2 0x17F SWAP1 DUP10 SWAP1 PUSH2 0x3193 JUMP JUMPDEST DUP2 MSTORE PUSH1 0xF SLOAD PUSH1 0x1 PUSH1 0x1 PUSH1 0xA0 SHL SUB AND PUSH1 0x0 DUP2 DUP2 MSTORE PUSH1 0x3 DUP14 ADD PUSH1 0x20 SWAP1 DUP2 MSTORE PUSH1 0x40 SWAP1 SWAP2 KECCAK256 SLOAD SWAP3 ADD SWAP2 PUSH2 0x2B21 SWAP2 SWAP1 PUSH2 0x17F SWAP1 DUP8 SWAP1 PUSH2 0x3193 JUMP JUMPDEST DUP2 MSTORE SWAP10 SLOAD PUSH1 0x1 PUSH1 0x1 PUSH1 0xA0 SHL SUB AND PUSH1 0x20 SWAP1 SWAP11 ADD SWAP10 SWAP1 SWAP10 MSTORE POP SWAP7 SWAP10 SWAP9 POP POP POP POP POP POP POP POP POP JUMP JUMPDEST PUSH1 0x40 MLOAD DUP1 PUSH2 0x1C0 ADD PUSH1 0x40 MSTORE DUP1 PUSH1 0x0 DUP2 MSTORE PUSH1 0x20 ADD PUSH1 0x0 DUP2 MSTORE PUSH1 0x20 ADD PUSH1 0x0 DUP2 MSTORE PUSH1 0x20 ADD PUSH1 0x0 DUP2 MSTORE PUSH1 0x20 ADD PUSH1 0x0 DUP2 MSTORE PUSH1 0x20 ADD PUSH1 0x0 DUP2 MSTORE PUSH1 0x20 ADD PUSH1 0x0 DUP2 MSTORE PUSH1 0x20 ADD PUSH1 0x0 DUP2 MSTORE PUSH1 0x20 ADD PUSH1 0x0 DUP2 MSTORE PUSH1 0x20 ADD PUSH1 0x0 DUP2 MSTORE PUSH1 0x20 ADD PUSH1 0x0 DUP2 MSTORE PUSH1 0x20 ADD PUSH1 0x0 DUP2 MSTORE PUSH1 0x20 ADD PUSH1 0x0 DUP2 MSTORE PUSH1 0x20 ADD CALLER PUSH1 0x1 PUSH1 0x1 PUSH1 0xA0 SHL SUB AND DUP2 MSTORE POP SWAP1 POP SWAP2 SWAP1 POP JUMP JUMPDEST SWAP2 SWAP1 POP JUMP JUMPDEST PUSH1 0x1 PUSH1 0x1 PUSH1 0xA0 SHL SUB DUP2 AND PUSH2 0x2C2B JUMPI PUSH1 0x40 MLOAD PUSH3 0x461BCD PUSH1 0xE5 SHL DUP2 MSTORE PUSH1 0x20 PUSH1 0x4 DUP3 ADD MSTORE PUSH1 0x26 PUSH1 0x24 DUP3 ADD MSTORE PUSH32 0x4F776E61626C653A206E6577206F776E657220697320746865207A65726F2061 PUSH1 0x44 DUP3 ADD MSTORE PUSH6 0x646472657373 PUSH1 0xD0 SHL PUSH1 0x64 DUP3 ADD MSTORE PUSH1 0x84 ADD PUSH2 0x72D JUMP JUMPDEST PUSH1 0x0 DUP1 SLOAD PUSH1 0x40 MLOAD PUSH1 0x1 PUSH1 0x1 PUSH1 0xA0 SHL SUB DUP1 DUP6 AND SWAP4 SWAP3 AND SWAP2 PUSH32 0x8BE0079C531659141344CD1FD0A4F28419497F9722A3DAAFE3B4186F6B6457E0 SWAP2 LOG3 PUSH1 0x0 DUP1 SLOAD PUSH1 0x1 PUSH1 0x1 PUSH1 0xA0 SHL SUB NOT AND PUSH1 0x1 PUSH1 0x1 PUSH1 0xA0 SHL SUB SWAP3 SWAP1 SWAP3 AND SWAP2 SWAP1 SWAP2 OR SWAP1 SSTORE JUMP JUMPDEST PUSH1 0x40 MLOAD DUP1 PUSH2 0x1C0 ADD PUSH1 0x40 MSTORE DUP1 PUSH1 0x0 DUP2 MSTORE PUSH1 0x20 ADD PUSH1 0x0 DUP2 MSTORE PUSH1 0x20 ADD PUSH1 0x0 DUP2 MSTORE PUSH1 0x20 ADD PUSH1 0x0 DUP2 MSTORE PUSH1 0x20 ADD PUSH1 0x0 DUP2 MSTORE PUSH1 0x20 ADD PUSH1 0x0 DUP2 MSTORE PUSH1 0x20 ADD PUSH1 0x0 DUP2 MSTORE PUSH1 0x20 ADD PUSH1 0x0 DUP2 MSTORE PUSH1 0x20 ADD PUSH1 0x0 DUP2 MSTORE PUSH1 0x20 ADD PUSH1 0x0 DUP2 MSTORE PUSH1 0x20 ADD PUSH1 0x0 DUP2 MSTORE PUSH1 0x20 ADD PUSH1 0x0 DUP2 MSTORE PUSH1 0x20 ADD PUSH1 0x0 DUP2 MSTORE PUSH1 0x20 ADD PUSH1 0x0 PUSH1 0x1 PUSH1 0x1 PUSH1 0xA0 SHL SUB AND DUP2 MSTORE POP SWAP1 JUMP JUMPDEST DUP1 CALLDATALOAD PUSH1 0x1 PUSH1 0x1 PUSH1 0xA0 SHL SUB DUP2 AND DUP2 EQ PUSH2 0x2BC1 JUMPI PUSH1 0x0 DUP1 REVERT JUMPDEST PUSH1 0x0 DUP1 PUSH1 0x40 DUP4 DUP6 SUB SLT ISZERO PUSH2 0x2D28 JUMPI PUSH1 0x0 DUP1 REVERT JUMPDEST PUSH2 0x2D31 DUP4 PUSH2 0x2CFE JUMP JUMPDEST SWAP5 PUSH1 0x20 SWAP4 SWAP1 SWAP4 ADD CALLDATALOAD SWAP4 POP POP POP JUMP JUMPDEST PUSH1 0x0 PUSH1 0x20 DUP3 DUP5 SUB SLT ISZERO PUSH2 0x2D51 JUMPI PUSH1 0x0 DUP1 REVERT JUMPDEST PUSH2 0x2034 DUP3 PUSH2 0x2CFE JUMP JUMPDEST PUSH1 0xA0 DUP2 ADD PUSH2 0x4D0 DUP3 DUP5 DUP1 MLOAD DUP3 MSTORE PUSH1 0x20 DUP2 ADD MLOAD PUSH1 0x20 DUP4 ADD MSTORE PUSH1 0x40 DUP2 ADD MLOAD PUSH1 0x40 DUP4 ADD MSTORE PUSH1 0x60 DUP2 ADD MLOAD PUSH1 0x60 DUP4 ADD MSTORE PUSH1 0x80 DUP2 ADD MLOAD PUSH1 0x80 DUP4 ADD MSTORE POP POP JUMP JUMPDEST PUSH1 0x0 DUP1 PUSH1 0x0 PUSH1 0x60 DUP5 DUP7 SUB SLT ISZERO PUSH2 0x2DA8 JUMPI PUSH1 0x0 DUP1 REVERT JUMPDEST PUSH2 0x2DB1 DUP5 PUSH2 0x2CFE JUMP JUMPDEST SWAP3 POP PUSH2 0x2DBF PUSH1 0x20 DUP6 ADD PUSH2 0x2CFE JUMP JUMPDEST SWAP2 POP PUSH2 0x2DCD PUSH1 0x40 DUP6 ADD PUSH2 0x2CFE JUMP JUMPDEST SWAP1 POP SWAP3 POP SWAP3 POP SWAP3 JUMP JUMPDEST DUP1 MLOAD DUP3 MSTORE PUSH1 0x20 DUP2 ADD MLOAD PUSH1 0x20 DUP4 ADD MSTORE PUSH1 0x40 DUP2 ADD MLOAD PUSH1 0x40 DUP4 ADD MSTORE PUSH1 0x60 DUP2 ADD MLOAD PUSH1 0x60 DUP4 ADD MSTORE PUSH1 0x80 DUP2 ADD MLOAD PUSH1 0x80 DUP4 ADD MSTORE PUSH1 0xA0 DUP2 ADD MLOAD PUSH1 0xA0 DUP4 ADD MSTORE PUSH1 0xC0 DUP2 ADD MLOAD PUSH1 0xC0 DUP4 ADD MSTORE PUSH1 0xE0 DUP2 ADD MLOAD PUSH1 0xE0 DUP4 ADD MSTORE PUSH2 0x100 DUP1 DUP3 ADD MLOAD DUP2 DUP5 ADD MSTORE POP PUSH2 0x120 DUP1 DUP3 ADD MLOAD DUP2 DUP5 ADD MSTORE POP PUSH2 0x140 DUP1 DUP3 ADD MLOAD DUP2 DUP5 ADD MSTORE POP PUSH2 0x160 DUP1 DUP3 ADD MLOAD DUP2 DUP5 ADD MSTORE POP PUSH2 0x180 DUP1 DUP3 ADD MLOAD DUP2 DUP5 ADD MSTORE POP PUSH2 0x1A0 DUP1 DUP3 ADD MLOAD PUSH2 0x1252 DUP3 DUP6 ADD DUP3 PUSH1 0x1 PUSH1 0x1 PUSH1 0xA0 SHL SUB AND SWAP1 MSTORE JUMP JUMPDEST PUSH1 0x20 DUP1 DUP3 MSTORE DUP3 MLOAD DUP3 DUP3 ADD DUP2 SWAP1 MSTORE PUSH1 0x0 SWAP2 SWAP1 DUP5 DUP3 ADD SWAP1 PUSH1 0x40 DUP6 ADD SWAP1 DUP5 JUMPDEST DUP2 DUP2 LT ISZERO PUSH2 0x2EBA JUMPI PUSH2 0x2EA6 DUP4 DUP6 MLOAD PUSH2 0x2DD6 JUMP JUMPDEST SWAP3 DUP5 ADD SWAP3 PUSH2 0x1C0 SWAP3 SWAP1 SWAP3 ADD SWAP2 PUSH1 0x1 ADD PUSH2 0x2E93 JUMP JUMPDEST POP SWAP1 SWAP7 SWAP6 POP POP POP POP POP POP JUMP JUMPDEST PUSH1 0x0 PUSH1 0x20 DUP3 DUP5 SUB SLT ISZERO PUSH2 0x2ED8 JUMPI PUSH1 0x0 DUP1 REVERT JUMPDEST POP CALLDATALOAD SWAP2 SWAP1 POP JUMP JUMPDEST PUSH2 0x1C0 DUP2 ADD PUSH2 0x4D0 DUP3 DUP5 PUSH2 0x2DD6 JUMP JUMPDEST PUSH1 0x0 DUP1 PUSH1 0x0 DUP1 PUSH1 0x80 DUP6 DUP8 SUB SLT ISZERO PUSH2 0x2F04 JUMPI PUSH1 0x0 DUP1 REVERT JUMPDEST POP POP DUP3 CALLDATALOAD SWAP5 PUSH1 0x20 DUP5 ADD CALLDATALOAD SWAP5 POP PUSH1 0x40 DUP5 ADD CALLDATALOAD SWAP4 PUSH1 0x60 ADD CALLDATALOAD SWAP3 POP SWAP1 POP JUMP JUMPDEST PUSH1 0x20 DUP1 DUP3 MSTORE DUP3 MLOAD DUP3 DUP3 ADD DUP2 SWAP1 MSTORE PUSH1 0x0 SWAP2 SWAP1 DUP5 DUP3 ADD SWAP1 PUSH1 0x40 DUP6 ADD SWAP1 DUP5 JUMPDEST DUP2 DUP2 LT ISZERO PUSH2 0x2EBA JUMPI PUSH2 0x2F7A DUP4 DUP6 MLOAD DUP1 MLOAD DUP3 MSTORE PUSH1 0x20 DUP2 ADD MLOAD PUSH1 0x20 DUP4 ADD MSTORE PUSH1 0x40 DUP2 ADD MLOAD PUSH1 0x40 DUP4 ADD MSTORE PUSH1 0x60 DUP2 ADD MLOAD PUSH1 0x60 DUP4 ADD MSTORE PUSH1 0x80 DUP2 ADD MLOAD PUSH1 0x80 DUP4 ADD MSTORE POP POP JUMP JUMPDEST SWAP3 DUP5 ADD SWAP3 PUSH1 0xA0 SWAP3 SWAP1 SWAP3 ADD SWAP2 PUSH1 0x1 ADD PUSH2 0x2F3C JUMP JUMPDEST PUSH4 0x4E487B71 PUSH1 0xE0 SHL PUSH1 0x0 MSTORE PUSH1 0x11 PUSH1 0x4 MSTORE PUSH1 0x24 PUSH1 0x0 REVERT JUMPDEST DUP1 DUP3 MUL DUP2 ISZERO DUP3 DUP3 DIV DUP5 EQ OR PUSH2 0x4D0 JUMPI PUSH2 0x4D0 PUSH2 0x2F8D JUMP JUMPDEST PUSH1 0x0 PUSH1 0x20 DUP3 DUP5 SUB SLT ISZERO PUSH2 0x2FCC JUMPI PUSH1 0x0 DUP1 REVERT JUMPDEST POP MLOAD SWAP2 SWAP1 POP JUMP JUMPDEST PUSH1 0x0 PUSH1 0x20 DUP3 DUP5 SUB SLT ISZERO PUSH2 0x2FE5 JUMPI PUSH1 0x0 DUP1 REVERT JUMPDEST DUP2 MLOAD PUSH1 0xFF DUP2 AND DUP2 EQ PUSH2 0x2034 JUMPI PUSH1 0x0 DUP1 REVERT JUMPDEST DUP2 DUP2 SUB DUP2 DUP2 GT ISZERO PUSH2 0x4D0 JUMPI PUSH2 0x4D0 PUSH2 0x2F8D JUMP JUMPDEST PUSH1 0x1 DUP2 DUP2 JUMPDEST DUP1 DUP6 GT ISZERO PUSH2 0x3044 JUMPI DUP2 PUSH1 0x0 NOT DIV DUP3 GT ISZERO PUSH2 0x302A JUMPI PUSH2 0x302A PUSH2 0x2F8D JUMP JUMPDEST DUP1 DUP6 AND ISZERO PUSH2 0x3037 JUMPI SWAP2 DUP2 MUL SWAP2 JUMPDEST SWAP4 DUP5 SHR SWAP4 SWAP1 DUP1 MUL SWAP1 PUSH2 0x300E JUMP JUMPDEST POP SWAP3 POP SWAP3 SWAP1 POP JUMP JUMPDEST PUSH1 0x0 DUP3 PUSH2 0x305B JUMPI POP PUSH1 0x1 PUSH2 0x4D0 JUMP JUMPDEST DUP2 PUSH2 0x3068 JUMPI POP PUSH1 0x0 PUSH2 0x4D0 JUMP JUMPDEST DUP2 PUSH1 0x1 DUP2 EQ PUSH2 0x307E JUMPI PUSH1 0x2 DUP2 EQ PUSH2 0x3088 JUMPI PUSH2 0x30A4 JUMP JUMPDEST PUSH1 0x1 SWAP2 POP POP PUSH2 0x4D0 JUMP JUMPDEST PUSH1 0xFF DUP5 GT ISZERO PUSH2 0x3099 JUMPI PUSH2 0x3099 PUSH2 0x2F8D JUMP JUMPDEST POP POP PUSH1 0x1 DUP3 SHL PUSH2 0x4D0 JUMP JUMPDEST POP PUSH1 0x20 DUP4 LT PUSH2 0x133 DUP4 LT AND PUSH1 0x4E DUP5 LT PUSH1 0xB DUP5 LT AND OR ISZERO PUSH2 0x30C7 JUMPI POP DUP2 DUP2 EXP PUSH2 0x4D0 JUMP JUMPDEST PUSH2 0x30D1 DUP4 DUP4 PUSH2 0x3009 JUMP JUMPDEST DUP1 PUSH1 0x0 NOT DIV DUP3 GT ISZERO PUSH2 0x30E5 JUMPI PUSH2 0x30E5 PUSH2 0x2F8D JUMP JUMPDEST MUL SWAP4 SWAP3 POP POP POP JUMP JUMPDEST PUSH1 0x0 PUSH2 0x2034 DUP4 DUP4 PUSH2 0x304C JUMP JUMPDEST PUSH1 0x20 DUP1 DUP3 MSTORE DUP2 DUP2 ADD MSTORE PUSH32 0x4F776E61626C653A2063616C6C6572206973206E6F7420746865206F776E6572 PUSH1 0x40 DUP3 ADD MSTORE PUSH1 0x60 ADD SWAP1 JUMP JUMPDEST PUSH1 0x0 PUSH1 0x20 DUP3 DUP5 SUB SLT ISZERO PUSH2 0x3140 JUMPI PUSH1 0x0 DUP1 REVERT JUMPDEST DUP2 MLOAD DUP1 ISZERO ISZERO DUP2 EQ PUSH2 0x2034 JUMPI PUSH1 0x0 DUP1 REVERT JUMPDEST PUSH1 0x20 DUP1 DUP3 MSTORE PUSH1 0x23 SWAP1 DUP3 ADD MSTORE PUSH32 0x5573657220696E6465782073686F756C6420626520626967676572207468616E PUSH1 0x40 DUP3 ADD MSTORE PUSH3 0x101817 PUSH1 0xE9 SHL PUSH1 0x60 DUP3 ADD MSTORE PUSH1 0x80 ADD SWAP1 JUMP JUMPDEST DUP1 DUP3 ADD DUP1 DUP3 GT ISZERO PUSH2 0x4D0 JUMPI PUSH2 0x4D0 PUSH2 0x2F8D JUMP JUMPDEST PUSH1 0x0 DUP3 PUSH2 0x31C3 JUMPI PUSH4 0x4E487B71 PUSH1 0xE0 SHL PUSH1 0x0 MSTORE PUSH1 0x12 PUSH1 0x4 MSTORE PUSH1 0x24 PUSH1 0x0 REVERT JUMPDEST POP DIV SWAP1 JUMP JUMPDEST PUSH4 0x4E487B71 PUSH1 0xE0 SHL PUSH1 0x0 MSTORE PUSH1 0x41 PUSH1 0x4 MSTORE PUSH1 0x24 PUSH1 0x0 REVERT JUMPDEST PUSH4 0x4E487B71 PUSH1 0xE0 SHL PUSH1 0x0 MSTORE PUSH1 0x32 PUSH1 0x4 MSTORE PUSH1 0x24 PUSH1 0x0 REVERT JUMPDEST PUSH1 0x0 PUSH1 0x1 DUP3 ADD PUSH2 0x3206 JUMPI PUSH2 0x3206 PUSH2 0x2F8D JUMP JUMPDEST POP PUSH1 0x1 ADD SWAP1 JUMP INVALID LOG2 PUSH5 0x6970667358 0x22 SLT KECCAK256 SWAP15 SELFBALANCE 0xA9 LOG1 RETURNDATASIZE 0xAC 0xE9 0x2C 0x4B 0x29 0xE3 SLOAD 0x4D SWAP15 PUSH3 0x468B20 SHR CALLDATASIZE SLT LT PC 0xDB SELFBALANCE 0xC3 CODESIZE DUP1 AND 0xF 0x2C PUSH30 0x64736F6C634300081200334F776E61626C653A2063616C6C657220697320 PUSH15 0x6F7420746865206F776E6572000000 "},"gasEstimates":{"creation":{"codeDepositCost":"2573400","executionCost":"infinite","totalCost":"infinite"},"external":{"":"229","borrow(address,uint256)":"infinite","calcTokenPrice(address,uint256)":"infinite","claimETH(uint256)":"infinite","claimPeko()":"infinite","claimToken(address,uint256)":"infinite","collateral(address)":"infinite","debt(address)":"infinite","deposit(address,uint256)":"infinite","getEthValue(address,address,address)":"infinite","getLiquidationThreshhold()":"2370","getMarketInfo()":"infinite","getPoolInfo(address)":"infinite","getUserInfo(address)":"infinite","liquidate(address)":"infinite","listPools()":"infinite","listUserInfo()":"infinite","owner()":"2412","renounceOwnership()":"30232","repay(address,uint256)":"infinite","setBorrowApy(uint256,uint256,uint256,uint256)":"90874","setLiquidationThreshhold(uint256)":"24575","setPoolAddress(address)":"26755","setSupplyApy(uint256,uint256,uint256,uint256)":"90896","transferOwnership(address)":"30495","withdraw(address,uint256)":"infinite"},"internal":{"addPool(address,uint256,uint256,uint256,uint256,uint256)":"infinite","calcuateUser(address)":"infinite","clearUser(address)":"infinite","fetchUserInfo(uint256)":"infinite"}},"methodIdentifiers":{"borrow(address,uint256)":"4b8a3529","calcTokenPrice(address,uint256)":"05cb9fde","claimETH(uint256)":"fe96973a","claimPeko()":"838afb1e","claimToken(address,uint256)":"1698755f","collateral(address)":"a5fdc5de","debt(address)":"9b6c56ec","deposit(address,uint256)":"47e7ef24","getEthValue(address,address,address)":"14658ac7","getLiquidationThreshhold()":"e124787f","getMarketInfo()":"23341a05","getPoolInfo(address)":"06bfa938","getUserInfo(address)":"6386c1c7","liquidate(address)":"2f865568","listPools()":"68795862","listUserInfo()":"5063e91a","owner()":"8da5cb5b","renounceOwnership()":"715018a6","repay(address,uint256)":"22867d78","setBorrowApy(uint256,uint256,uint256,uint256)":"660fd831","setLiquidationThreshhold(uint256)":"616571e7","setPoolAddress(address)":"e9e15b4f","setSupplyApy(uint256,uint256,uint256,uint256)":"a079722d","transferOwnership(address)":"f2fde38b","withdraw(address,uint256)":"f3fef3a3"}},"storageLayout":{"storage":[{"astId":1287,"contract":"contracts/Lending.sol:Lending","label":"_owner","offset":0,"slot":"0","type":"t_address"},{"astId":1600,"contract":"contracts/Lending.sol:Lending","label":"supplyAPY","offset":0,"slot":"1","type":"t_struct(APYInfo)1597_storage"},{"astId":1603,"contract":"contracts/Lending.sol:Lending","label":"borrowAPY","offset":0,"slot":"5","type":"t_struct(APYInfo)1597_storage"},{"astId":1608,"contract":"contracts/Lending.sol:Lending","label":"poolInfos","offset":0,"slot":"9","type":"t_mapping(t_address,t_struct(PoolInfo)1588_storage)"},{"astId":1610,"contract":"contracts/Lending.sol:Lending","label":"maxUserIndex","offset":0,"slot":"10","type":"t_uint256"},{"astId":1615,"contract":"contracts/Lending.sol:Lending","label":"userInfos","offset":0,"slot":"11","type":"t_mapping(t_uint256,t_struct(UserInfo)1548_storage)"},{"astId":1619,"contract":"contracts/Lending.sol:Lending","label":"userInfoIndex","offset":0,"slot":"12","type":"t_mapping(t_address,t_uint256)"},{"astId":1621,"contract":"contracts/Lending.sol:Lending","label":"rewardAddress","offset":0,"slot":"13","type":"t_address"},{"astId":1623,"contract":"contracts/Lending.sol:Lending","label":"ethAddress","offset":0,"slot":"14","type":"t_address"},{"astId":1625,"contract":"contracts/Lending.sol:Lending","label":"usdtAddress","offset":0,"slot":"15","type":"t_address"},{"astId":1627,"contract":"contracts/Lending.sol:Lending","label":"poolAddress","offset":0,"slot":"16","type":"t_address"},{"astId":1630,"contract":"contracts/Lending.sol:Lending","label":"liquidationThreshhold","offset":0,"slot":"17","type":"t_uint256"},{"astId":1633,"contract":"contracts/Lending.sol:Lending","label":"decimal","offset":0,"slot":"18","type":"t_uint256"}],"types":{"t_address":{"encoding":"inplace","label":"address","numberOfBytes":"20"},"t_mapping(t_address,t_struct(PoolInfo)1588_storage)":{"encoding":"mapping","key":"t_address","label":"mapping(address => struct Lending.PoolInfo)","numberOfBytes":"32","value":"t_struct(PoolInfo)1588_storage"},"t_mapping(t_address,t_uint256)":{"encoding":"mapping","key":"t_address","label":"mapping(address => uint256)","numberOfBytes":"32","value":"t_uint256"},"t_mapping(t_uint256,t_struct(UserInfo)1548_storage)":{"encoding":"mapping","key":"t_uint256","label":"mapping(uint256 => struct Lending.UserInfo)","numberOfBytes":"32","value":"t_struct(UserInfo)1548_storage"},"t_struct(APYInfo)1597_storage":{"encoding":"inplace","label":"struct Lending.APYInfo","members":[{"astId":1590,"contract":"contracts/Lending.sol:Lending","label":"r0","offset":0,"slot":"0","type":"t_uint256"},{"astId":1592,"contract":"contracts/Lending.sol:Lending","label":"uOption","offset":0,"slot":"1","type":"t_uint256"},{"astId":1594,"contract":"contracts/Lending.sol:Lending","label":"slope1","offset":0,"slot":"2","type":"t_uint256"},{"astId":1596,"contract":"contracts/Lending.sol:Lending","label":"slope2","offset":0,"slot":"3","type":"t_uint256"}],"numberOfBytes":"128"},"t_struct(PoolInfo)1588_storage":{"encoding":"inplace","label":"struct Lending.PoolInfo","members":[{"astId":1579,"contract":"contracts/Lending.sol:Lending","label":"LTV","offset":0,"slot":"0","type":"t_uint256"},{"astId":1581,"contract":"contracts/Lending.sol:Lending","label":"depositApy","offset":0,"slot":"1","type":"t_uint256"},{"astId":1583,"contract":"contracts/Lending.sol:Lending","label":"borrowApy","offset":0,"slot":"2","type":"t_uint256"},{"astId":1585,"contract":"contracts/Lending.sol:Lending","label":"totalAmount","offset":0,"slot":"3","type":"t_uint256"},{"astId":1587,"contract":"contracts/Lending.sol:Lending","label":"borrowAmount","offset":0,"slot":"4","type":"t_uint256"}],"numberOfBytes":"160"},"t_struct(UserInfo)1548_storage":{"encoding":"inplace","label":"struct Lending.UserInfo","members":[{"astId":1527,"contract":"contracts/Lending.sol:Lending","label":"accountAddress","offset":0,"slot":"0","type":"t_address"},{"astId":1529,"contract":"contracts/Lending.sol:Lending","label":"lastInterest","offset":0,"slot":"1","type":"t_uint256"},{"astId":1533,"contract":"contracts/Lending.sol:Lending","label":"tokenDepositAmount","offset":0,"slot":"2","type":"t_mapping(t_address,t_uint256)"},{"astId":1537,"contract":"contracts/Lending.sol:Lending","label":"tokenBorrowAmount","offset":0,"slot":"3","type":"t_mapping(t_address,t_uint256)"},{"astId":1541,"contract":"contracts/Lending.sol:Lending","label":"tokenRewardAmount","offset":0,"slot":"4","type":"t_mapping(t_address,t_uint256)"},{"astId":1545,"contract":"contracts/Lending.sol:Lending","label":"tokenInterestAmount","offset":0,"slot":"5","type":"t_mapping(t_address,t_uint256)"},{"astId":1547,"contract":"contracts/Lending.sol:Lending","label":"pekoRewardAmount","offset":0,"slot":"6","type":"t_uint256"}],"numberOfBytes":"224"},"t_uint256":{"encoding":"inplace","label":"uint256","numberOfBytes":"32"}}},"userdoc":{"kind":"user","methods":{},"version":1}}}}