{"contracts/Lending.sol":{"Lending":{"abi":[{"inputs":[{"internalType":"address","name":"_rewardAddress","type":"address"},{"internalType":"address","name":"_ethAdddress","type":"address"},{"internalType":"address","name":"_usdtAddress","type":"address"},{"internalType":"address","name":"_poolAddress","type":"address"}],"stateMutability":"nonpayable","type":"constructor"},{"anonymous":false,"inputs":[{"indexed":true,"internalType":"address","name":"previousOwner","type":"address"},{"indexed":true,"internalType":"address","name":"newOwner","type":"address"}],"name":"OwnershipTransferred","type":"event"},{"stateMutability":"payable","type":"fallback"},{"inputs":[{"internalType":"address","name":"_tokenAddress","type":"address"},{"internalType":"uint256","name":"_amount","type":"uint256"}],"name":"borrow","outputs":[],"stateMutability":"nonpayable","type":"function"},{"inputs":[{"internalType":"address","name":"_tokenAddress","type":"address"},{"internalType":"uint256","name":"_amount","type":"uint256"}],"name":"calcTokenPrice","outputs":[{"internalType":"uint256","name":"","type":"uint256"}],"stateMutability":"view","type":"function"},{"inputs":[{"internalType":"uint256","name":"amount","type":"uint256"}],"name":"claimETH","outputs":[],"stateMutability":"nonpayable","type":"function"},{"inputs":[],"name":"claimPeko","outputs":[],"stateMutability":"nonpayable","type":"function"},{"inputs":[{"internalType":"address","name":"tokenAddress","type":"address"},{"internalType":"uint256","name":"amount","type":"uint256"}],"name":"claimToken","outputs":[],"stateMutability":"nonpayable","type":"function"},{"inputs":[{"internalType":"address","name":"_account","type":"address"}],"name":"collateral","outputs":[{"internalType":"uint256","name":"","type":"uint256"}],"stateMutability":"nonpayable","type":"function"},{"inputs":[{"internalType":"address","name":"_account","type":"address"}],"name":"debt","outputs":[{"internalType":"uint256","name":"","type":"uint256"}],"stateMutability":"nonpayable","type":"function"},{"inputs":[{"internalType":"address","name":"_tokenAddress","type":"address"},{"internalType":"uint256","name":"_amount","type":"uint256"}],"name":"deposit","outputs":[],"stateMutability":"payable","type":"function"},{"inputs":[{"internalType":"address","name":"_pool","type":"address"},{"internalType":"address","name":"_weth","type":"address"},{"internalType":"address","name":"_usdc","type":"address"}],"name":"getEthValue","outputs":[{"internalType":"uint256","name":"","type":"uint256"}],"stateMutability":"view","type":"function"},{"inputs":[],"name":"getMarketInfo","outputs":[{"internalType":"uint256","name":"","type":"uint256"},{"internalType":"uint256","name":"","type":"uint256"}],"stateMutability":"view","type":"function"},{"inputs":[{"internalType":"address","name":"_account","type":"address"}],"name":"getUserInfo","outputs":[{"components":[{"internalType":"uint256","name":"ethDepositAmount","type":"uint256"},{"internalType":"uint256","name":"usdtDepositAmount","type":"uint256"},{"internalType":"uint256","name":"ethBorrowAmount","type":"uint256"},{"internalType":"uint256","name":"usdtBorrowAmount","type":"uint256"},{"internalType":"uint256","name":"ethInterestAmount","type":"uint256"},{"internalType":"uint256","name":"usdtInterestAmount","type":"uint256"},{"internalType":"uint256","name":"ethRewardAmount","type":"uint256"},{"internalType":"uint256","name":"usdtRewardAmount","type":"uint256"},{"internalType":"uint256","name":"pekoRewardAmount","type":"uint256"},{"internalType":"uint256","name":"ethDepositTotalInUsdtAmount","type":"uint256"},{"internalType":"uint256","name":"usdtDepositTotalAmount","type":"uint256"},{"internalType":"uint256","name":"ethBorrowTotalInUsdtAmount","type":"uint256"},{"internalType":"uint256","name":"usdtBorrowTotalAmount","type":"uint256"},{"internalType":"address","name":"accountAddress","type":"address"}],"internalType":"struct Lending.UserInfoForDisplay","name":"","type":"tuple"}],"stateMutability":"view","type":"function"},{"inputs":[{"internalType":"address","name":"_account","type":"address"}],"name":"liquidate","outputs":[],"stateMutability":"payable","type":"function"},{"inputs":[],"name":"listUserInfo","outputs":[{"components":[{"internalType":"uint256","name":"ethDepositAmount","type":"uint256"},{"internalType":"uint256","name":"usdtDepositAmount","type":"uint256"},{"internalType":"uint256","name":"ethBorrowAmount","type":"uint256"},{"internalType":"uint256","name":"usdtBorrowAmount","type":"uint256"},{"internalType":"uint256","name":"ethInterestAmount","type":"uint256"},{"internalType":"uint256","name":"usdtInterestAmount","type":"uint256"},{"internalType":"uint256","name":"ethRewardAmount","type":"uint256"},{"internalType":"uint256","name":"usdtRewardAmount","type":"uint256"},{"internalType":"uint256","name":"pekoRewardAmount","type":"uint256"},{"internalType":"uint256","name":"ethDepositTotalInUsdtAmount","type":"uint256"},{"internalType":"uint256","name":"usdtDepositTotalAmount","type":"uint256"},{"internalType":"uint256","name":"ethBorrowTotalInUsdtAmount","type":"uint256"},{"internalType":"uint256","name":"usdtBorrowTotalAmount","type":"uint256"},{"internalType":"address","name":"accountAddress","type":"address"}],"internalType":"struct Lending.UserInfoForDisplay[]","name":"","type":"tuple[]"}],"stateMutability":"view","type":"function"},{"inputs":[],"name":"owner","outputs":[{"internalType":"address","name":"","type":"address"}],"stateMutability":"view","type":"function"},{"inputs":[],"name":"renounceOwnership","outputs":[],"stateMutability":"nonpayable","type":"function"},{"inputs":[{"internalType":"address","name":"_tokenAddress","type":"address"},{"internalType":"uint256","name":"_amount","type":"uint256"}],"name":"repay","outputs":[],"stateMutability":"payable","type":"function"},{"inputs":[{"internalType":"uint256","name":"limit","type":"uint256"}],"name":"setLiquidationThreshhold","outputs":[],"stateMutability":"nonpayable","type":"function"},{"inputs":[{"internalType":"address","name":"_poolAddress","type":"address"}],"name":"setPoolAddress","outputs":[],"stateMutability":"nonpayable","type":"function"},{"inputs":[{"internalType":"address","name":"newOwner","type":"address"}],"name":"transferOwnership","outputs":[],"stateMutability":"nonpayable","type":"function"},{"inputs":[{"internalType":"address","name":"_tokenAddress","type":"address"},{"internalType":"uint256","name":"_amount","type":"uint256"}],"name":"withdraw","outputs":[],"stateMutability":"nonpayable","type":"function"},{"stateMutability":"payable","type":"receive"}],"devdoc":{"kind":"dev","methods":{},"version":1},"evm":{"bytecode":{"linkReferences":{},"object":"6080604052601e600955633b9aca00600a553480156200001e57600080fd5b5060405162002bb238038062002bb2833981016040819052620000419162000180565b600080546001600160a01b031916339081178255604051909182917f8be0079c531659141344cd1fd0a4f28419497f9722a3daafe3b4186f6b6457e0908290a350600580546001600160a01b038087166001600160a01b031992831617909255600680548684169083168117909155600780548685169084161790556008805493851693909216929092179055620000e49060326101f461271060008062000110565b60075462000106906001600160a01b031660326101f461271060008062000110565b5050505062000208565b6001600160a01b038616600090815260016020526040902085815562000138856003620001dc565b60018201556200014a846003620001dc565b6002820155600381019290925560049091015550505050565b80516001600160a01b03811681146200017b57600080fd5b919050565b6000806000806080858703121562000196578384fd5b620001a18562000163565b9350620001b16020860162000163565b9250620001c16040860162000163565b9150620001d16060860162000163565b905092959194509250565b60008160001904831182151516156200020357634e487b7160e01b81526011600452602481fd5b500290565b61299a80620002186000396000f3fe6080604052600436106101175760003560e01c80636386c1c71161009a578063a5fdc5de11610061578063a5fdc5de146102f7578063e9e15b4f14610317578063f2fde38b14610354578063f3fef3a314610374578063fe96973a1461039457005b80636386c1c714610258578063715018a614610285578063838afb1e1461029a5780638da5cb5b146102af5780639b6c56ec146102d757005b80632f865568116100de5780632f865568146101d057806347e7ef24146101e35780634b8a3529146101f65780635063e91a14610216578063616571e71461023857005b806305cb9fde1461012057806314658ac7146101535780631698755f1461017357806322867d781461019357806323341a05146101a657005b3661011e57005b005b34801561012c57600080fd5b5061014061013b36600461252d565b6103b4565b6040519081526020015b60405180910390f35b34801561015f57600080fd5b5061014061016e3660046124eb565b610409565b34801561017f57600080fd5b5061011e61018e36600461252d565b6105b2565b61011e6101a136600461252d565b61068b565b3480156101b257600080fd5b506101bb610948565b6040805192835260208301919091520161014a565b61011e6101de3660046124d1565b6109cf565b61011e6101f136600461252d565b610e79565b34801561020257600080fd5b5061011e61021136600461252d565b6110bd565b34801561022257600080fd5b5061022b611443565b60405161014a91906126b3565b34801561024457600080fd5b5061011e610253366004612576565b600955565b34801561026457600080fd5b506102786102733660046124d1565b61151b565b60405161014a91906127cb565b34801561029157600080fd5b5061011e61154e565b3480156102a657600080fd5b5061011e6115c2565b3480156102bb57600080fd5b506000546040516001600160a01b03909116815260200161014a565b3480156102e357600080fd5b506101406102f23660046124d1565b61169c565b34801561030357600080fd5b506101406103123660046124d1565b61174a565b34801561032357600080fd5b5061011e6103323660046124d1565b600880546001600160a01b0319166001600160a01b0392909216919091179055565b34801561036057600080fd5b5061011e61036f3660046124d1565b6117e1565b34801561038057600080fd5b5061011e61038f36600461252d565b611817565b3480156103a057600080fd5b5061011e6103af366004612576565b611b31565b6007546000906001600160a01b03848116911614156103d4575080610403565b683635c9adc5dea000006103ff6c0c9f2c9cd04674edea400000006103f985846128fd565b90611bf9565b9150505b92915050565b6040516370a0823160e01b81526001600160a01b03848116600483015260009182918516906370a082319060240160206040518083038186803b15801561044f57600080fd5b505afa158015610463573d6000803e3d6000fd5b505050506040513d601f19601f82011682018060405250810190610487919061258e565b6040516370a0823160e01b81526001600160a01b0387811660048301529192506000918516906370a082319060240160206040518083038186803b1580156104ce57600080fd5b505afa1580156104e2573d6000803e3d6000fd5b505050506040513d601f19601f82011682018060405250810190610506919061258e565b90506000846001600160a01b031663313ce5676040518163ffffffff1660e01b815260040160206040518083038186803b15801561054357600080fd5b505afa158015610557573d6000803e3d6000fd5b505050506040513d601f19601f8201168201806040525081019061057b91906125a6565b60ff16905060006105a6846103f961059485602461291c565b61059f90600a612855565b8690611c0c565b98975050505050505050565b6000546001600160a01b031633146105e55760405162461bcd60e51b81526004016105dc90612753565b60405180910390fd5b816001600160a01b031663a9059cbb6106066000546001600160a01b031690565b6040516001600160e01b031960e084901b1681526001600160a01b03909116600482015260248101849052604401602060405180830381600087803b15801561064e57600080fd5b505af1158015610662573d6000803e3d6000fd5b505050506040513d601f19601f820116820180604052508101906106869190612556565b505050565b61069433611c18565b600081116106d45760405162461bcd60e51b815260206004820152600d60248201526c063616e2774207265706179203609c1b60448201526064016105dc565b33600090815260046020526040902054806107015760405162461bcd60e51b81526004016105dc90612788565b60008181526003602090815260408083206001600160a01b0387168452600581019092529091205483116107815760405162461bcd60e51b815260206004820152602160248201527f5265706179206e65656420746f20626520626967676572207468616e206465626044820152601d60fa1b60648201526084016105dc565b6001600160a01b0384166000908152600382016020526040812080548592906107ab90849061291c565b90915550506007546001600160a01b03858116911614156108c3576007546040516323b872dd60e01b8152336004820152306024820152604481018590526001600160a01b03909116906323b872dd90606401602060405180830381600087803b15801561081857600080fd5b505af115801561082c573d6000803e3d6000fd5b505050506040513d601f19601f820116820180604052508101906108509190612556565b61088b5760405162461bcd60e51b815260206004820152600c60248201526b14995c185e4819985a5b195960a21b60448201526064016105dc565b6007546001600160a01b0316600090815260016020526040812060040180548592906108b890849061291c565b909155506109399050565b823410156109065760405162461bcd60e51b815260206004820152601060248201526f283632b0b9b2903830bc9036b7b9329760811b60448201526064016105dc565b6006546001600160a01b03166000908152600160205260408120600401805485929061093390849061291c565b90915550505b61094233611c18565b50505050565b6006546001600160a01b03908116600081815260016020526040808220600754909416825281206003808201549085015492948594909361098991906103b4565b61099391906127da565b81600401546109bb600660009054906101000a90046001600160a01b031685600401546103b4565b6109c591906127da565b9350935050509091565b6001600160a01b03811660009081526004602052604090205480610a055760405162461bcd60e51b81526004016105dc90612788565b600081815260036020526040812090610a1d8461174a565b90506000610a2a8561169c565b90506000610a52610a3c84605a6128fd565b610a478460646128fd565b6103f99060646128fd565b9050610a81604051806040016040528060098152602001681c9a5cdac8199858dd60ba1b815250848484611f86565b6009548111610ad25760405162461bcd60e51b815260206004820152601f60248201527f54686973206973206e6f7420656e61626c6564206c69717569646174696f6e0060448201526064016105dc565b6006546001600160a01b0316600090815260048501602090815260408083205460028801909252822054610b0691906127da565b6007546001600160a01b0316600090815260048701602090815260408083205460028a019092528220549293509091610b3f91906127da565b6006546001600160a01b0316600090815260058801602090815260408083205460038b019092528220549293509091610b7891906127da565b6007546001600160a01b0316600090815260058901602090815260408083205460038c019092528220549293509091610bb191906127da565b905034610bc083612710611bf9565b610bcc9061270f6128fd565b11610bd657600080fd5b6007546001600160a01b03166323b872dd3330610bf585612710611bf9565b610c019061270f6128fd565b6040516001600160e01b031960e086901b1681526001600160a01b0393841660048201529290911660248301526044820152606401602060405180830381600087803b158015610c5057600080fd5b505af1158015610c64573d6000803e3d6000fd5b505050506040513d601f19601f82011682018060405250810190610c889190612556565b610cc55760405162461bcd60e51b815260206004820152600e60248201526d19195c1bdcda5d0819985a5b195960921b60448201526064016105dc565b604051600090339086908381818185875af1925050503d8060008114610d07576040519150601f19603f3d011682016040523d82523d6000602084013e610d0c565b606091505b5050905080610d535760405162461bcd60e51b81526020600482015260136024820152723330b4b632b2103a379039b2b7321032ba341760691b60448201526064016105dc565b60075460405163a9059cbb60e01b8152336004820152602481018690526001600160a01b039091169063a9059cbb90604401602060405180830381600087803b158015610d9f57600080fd5b505af1158015610db3573d6000803e3d6000fd5b505050506040513d601f19601f82011682018060405250810190610dd79190612556565b5060055460068a015460405163a9059cbb60e01b815233600482015260248101919091526001600160a01b039091169063a9059cbb90604401602060405180830381600087803b158015610e2a57600080fd5b505af1158015610e3e573d6000803e3d6000fd5b505050506040513d601f19601f82011682018060405250810190610e629190612556565b50610e6c8b611fcf565b5050505050505050505050565b60008111610ebb5760405162461bcd60e51b815260206004820152600f60248201526e063616e2774206465706f736974203608c1b60448201526064016105dc565b33600090815260046020526040812054610f0357600160026000828254610ee291906127da565b90915550506002543360009081526004602052604090208190559050610f1e565b503360008181526004602052604090205490610f1e90611c18565b600081815260036020908152604080832080546001600160a01b031916331781554260018201556001600160a01b0387168452600281019092528220805491928592610f6b9084906127da565b90915550506007546001600160a01b0385811691161415611085576007546040516323b872dd60e01b8152336004820152306024820152604481018590526001600160a01b03909116906323b872dd90606401602060405180830381600087803b158015610fd857600080fd5b505af1158015610fec573d6000803e3d6000fd5b505050506040513d601f19601f820116820180604052508101906110109190612556565b61104d5760405162461bcd60e51b815260206004820152600e60248201526d19195c1bdcda5d0819985a5b195960921b60448201526064016105dc565b6007546001600160a01b03166000908152600160205260408120600301805485929061107a9084906127da565b909155506109429050565b6006546001600160a01b0316600090815260016020526040812060030180548592906110b29084906127da565b909155505050505050565b600081116110fe5760405162461bcd60e51b815260206004820152600e60248201526d063616e277420626f72726f7720360941b60448201526064016105dc565b336000908152600460205260409020548061112b5760405162461bcd60e51b81526004016105dc90612788565b6000818152600360205260408120906111433361174a565b905060006111503361169c565b9050611185604051806040016040528060118152602001701858d8dbdd5b9d10dbdb1b185d195c985b607a1b815250836120e3565b808210156111d55760405162461bcd60e51b815260206004820152601e60248201527f596f7520646f6e6f74206861766520616e7920636f6c6c61746572616c2e000060448201526064016105dc565b60006111e187876103b4565b6001600160a01b03881660009081526001602052604090205490915061120783836127da565b606461121383876128fd565b61121d91906127f2565b116112615760405162461bcd60e51b8152602060048201526014602482015273283632b0b9b2903232b837b9b4ba1036b7b9329760611b60448201526064016105dc565b6001600160a01b03881660009081526003860160205260408120805489929061128b9084906127da565b9091555061129a905033611c18565b6006546001600160a01b038981169116141561138157604051600090339089908381818185875af1925050503d80600081146112f2576040519150601f19603f3d011682016040523d82523d6000602084013e6112f7565b606091505b50509050806113485760405162461bcd60e51b815260206004820152601c60248201527f6661696c656420746f2073656e642065746820696e7465726573742e0000000060448201526064016105dc565b6006546001600160a01b0316600090815260016020526040812060040180548a92906113759084906127da565b90915550611439915050565b60075460405163a9059cbb60e01b8152336004820152602481018990526001600160a01b039091169063a9059cbb90604401602060405180830381600087803b1580156113cd57600080fd5b505af11580156113e1573d6000803e3d6000fd5b505050506040513d601f19601f820116820180604052508101906114059190612556565b506007546001600160a01b0316600090815260016020526040812060040180548992906114339084906127da565b90915550505b5050505050505050565b6060600060025467ffffffffffffffff81111561147057634e487b7160e01b600052604160045260246000fd5b6040519080825280602002602001820160405280156114a957816020015b611496612442565b81526020019060019003908161148e5790505b50905060015b6002546114bd9060016127da565b811015611515576114cd81612128565b826114d960018461291c565b815181106114f757634e487b7160e01b600052603260045260246000fd5b6020026020010181905250808061150d90612933565b9150506114af565b50919050565b611523612442565b6001600160a01b0382166000908152600460205260408120549061154682612128565b949350505050565b6000546001600160a01b031633146115785760405162461bcd60e51b81526004016105dc90612753565b600080546040516001600160a01b03909116907f8be0079c531659141344cd1fd0a4f28419497f9722a3daafe3b4186f6b6457e0908390a3600080546001600160a01b0319169055565b33600090815260046020526040902054806115ef5760405162461bcd60e51b81526004016105dc90612788565b600081815260036020526040902061160633611c18565b600554600682015460405163a9059cbb60e01b815233600482015260248101919091526001600160a01b039091169063a9059cbb90604401602060405180830381600087803b15801561165857600080fd5b505af115801561166c573d6000803e3d6000fd5b505050506040513d601f19601f820116820180604052508101906116909190612556565b50600060069091015550565b60006116a782611c18565b6001600160a01b038083166000908152600460209081526040808320548352600380835281842060065490951680855290850183528184205460058601909352908320546116f89261013b916127da565b6007546001600160a01b03166000818152600385016020908152604080832054600588019092528220549394509092611735929161013b916127da565b905061174181836127da565b95945050505050565b600061175582611c18565b6001600160a01b03808316600090815260046020818152604080842054845260038252808420600654909516808552600286018352818520549386019092528320546117a49261013b916127da565b6007546001600160a01b03166000818152600285016020908152604080832054600488019092528220549394509092611735929161013b916127da565b6000546001600160a01b0316331461180b5760405162461bcd60e51b81526004016105dc90612753565b61181481612361565b50565b6000811161185a5760405162461bcd60e51b815260206004820152601060248201526f063616e277420776974686472617720360841b60448201526064016105dc565b33600090815260046020526040902054806118875760405162461bcd60e51b81526004016105dc90612788565b600081815260036020526040902061189e33611c18565b60006118a93361174a565b905060006118b63361169c565b90506118c286866103b4565b6118cc90826127da565b6001600160a01b0387166000908152600160205260409020546064906118f290856128fd565b6118fc91906127f2565b116119605760405162461bcd60e51b815260206004820152602e60248201527f5769746864726177206661696c65642e596f7520646f6e6f742068617665206160448201526d373c9031b7b63630ba32b930b61760911b60648201526084016105dc565b6001600160a01b03861660009081526004840160209081526040808320839055600286019091528120805487929061199990849061291c565b90915550506006546001600160a01b0387811691161415611a74576001600160a01b038616600090815260048401602052604081205433906119dc9088906127da565b604051600081818185875af1925050503d8060008114611a18576040519150601f19603f3d011682016040523d82523d6000602084013e611a1d565b606091505b5050905080611a6e5760405162461bcd60e51b815260206004820152601c60248201527f6661696c656420746f2073656e642065746820696e7465726573742e0000000060448201526064016105dc565b50611b29565b6007546001600160a01b03878116600090815260048601602052604090205491169063a9059cbb903390611aa99089906127da565b6040516001600160e01b031960e085901b1681526001600160a01b0390921660048301526024820152604401602060405180830381600087803b158015611aef57600080fd5b505af1158015611b03573d6000803e3d6000fd5b505050506040513d601f19601f82011682018060405250810190611b279190612556565b505b505050505050565b6000546001600160a01b03163314611b5b5760405162461bcd60e51b81526004016105dc90612753565b600080546040516001600160a01b039091169083908381818185875af1925050503d8060008114611ba8576040519150601f19603f3d011682016040523d82523d6000602084013e611bad565b606091505b5050905080611bf55760405162461bcd60e51b81526020600482015260146024820152732330b4b632b2103a379039b2b7321022ba3432b960611b60448201526064016105dc565b5050565b6000611c0582846127f2565b9392505050565b6000611c0582846128fd565b6001600160a01b038116600090815260046020526040902054611c7d5760405162461bcd60e51b815260206004820152601a60248201527f557365722073686f756c64206465706f736974206265666f726500000000000060448201526064016105dc565b6001600160a01b03811660009081526004602090815260408083205483526003909152812060018101549091611cb3824261291c565b600654600a546001600160a01b0390911660008181526001602081815260408084209092015460028a01909152912054939450611d0c939192918591611cf8916128fd565b611d0291906128fd565b61013b91906127f2565b836006016000828254611d1f91906127da565b9091555050600a546006546001600160a01b0316600090815260016020818152604080842090920154600288019091529120548391611d5d916128fd565b611d6791906128fd565b611d7191906127f2565b6006546001600160a01b0316600090815260048501602052604081208054909190611d9d9084906127da565b9091555050600a546006546001600160a01b031660009081526001602090815260408083206002015460038801909252909120548391611ddc916128fd565b611de691906128fd565b611df091906127f2565b6006546001600160a01b0316600090815260058501602052604081208054909190611e1c9084906127da565b9091555050600754600a546001600160a01b0390911660008181526001602081815260408084209092015460028901909152912054611e6293918591611cf891906128fd565b836006016000828254611e7591906127da565b9091555050600a546007546001600160a01b0316600090815260016020818152604080842090920154600288019091529120548391611eb3916128fd565b611ebd91906128fd565b611ec791906127f2565b6007546001600160a01b0316600090815260048501602052604081208054909190611ef39084906127da565b9091555050600a546007546001600160a01b031660009081526001602090815260408083206002015460038801909252909120548391611f32916128fd565b611f3c91906128fd565b611f4691906127f2565b6007546001600160a01b0316600090815260058501602052604081208054909190611f729084906127da565b909155505042600190930192909255505050565b61094284848484604051602401611fa09493929190612724565b60408051601f198184030181529190526020810180516001600160e01b031663a7a8785360e01b179052612421565b6001600160a01b0381166000908152600460205260409020546120345760405162461bcd60e51b815260206004820152601a60248201527f557365722073686f756c64206465706f736974206265666f726500000000000060448201526064016105dc565b6001600160a01b03908116600090815260046020818152604080842054845260038083528185206006805488168752600282018086528488208890558154891688529282018086528488208890558154891688529582018086528488208890559054881687526005909101808552838720879055600780548916885292855283872087905582548816875294845282862086905581548716865283528185208590555490941683525290812055565b611bf582826040516024016120f9929190612702565b60408051601f198184030181529190526020810180516001600160e01b0316632d839cb360e21b179052612421565b612130612442565b81156122e157600082815260036020818152604080842081516101c081018352600680546001600160a01b0390811680895260028501808852868a2054808652600754909316808b52818952878b2054868a0152828b52988601808952878b205486890152898b528852868a20546060860152818a5260058601808952878b20546080870152898b528852868a205460a0860152818a5260048601808952878b205460c08701819052998b5288529589205460e0850152918401546101008401528188529390945290949390926101208401926122109261013b916127da565b81526007546001600160a01b0316600081815260048601602090815260408083205460028901835292205493019261224c929161013b916127da565b81526006546001600160a01b03166000818152600586016020908152604080832054600389018352922054930192612288929161013b916127da565b81526007546001600160a01b031660008181526005860160209081526040808320546003890183529220549301926122c4929161013b916127da565b815292546001600160a01b03166020909301929092525092915050565b604051806101c0016040528060008152602001600081526020016000815260200160008152602001600081526020016000815260200160008152602001600081526020016000815260200160008152602001600081526020016000815260200160008152602001336001600160a01b03168152509050919050565b919050565b6001600160a01b0381166123c65760405162461bcd60e51b815260206004820152602660248201527f4f776e61626c653a206e6577206f776e657220697320746865207a65726f206160448201526564647265737360d01b60648201526084016105dc565b600080546040516001600160a01b03808516939216917f8be0079c531659141344cd1fd0a4f28419497f9722a3daafe3b4186f6b6457e091a3600080546001600160a01b0319166001600160a01b0392909216919091179055565b60006a636f6e736f6c652e6c6f679050600080835160208501845afa505050565b604051806101c001604052806000815260200160008152602001600081526020016000815260200160008152602001600081526020016000815260200160008152602001600081526020016000815260200160008152602001600081526020016000815260200160006001600160a01b031681525090565b80356001600160a01b038116811461235c57600080fd5b6000602082840312156124e2578081fd5b611c05826124ba565b6000806000606084860312156124ff578182fd5b612508846124ba565b9250612516602085016124ba565b9150612524604085016124ba565b90509250925092565b6000806040838503121561253f578182fd5b612548836124ba565b946020939093013593505050565b600060208284031215612567578081fd5b81518015158114611c05578182fd5b600060208284031215612587578081fd5b5035919050565b60006020828403121561259f578081fd5b5051919050565b6000602082840312156125b7578081fd5b815160ff81168114611c05578182fd5b60008151808452815b818110156125ec576020818501810151868301820152016125d0565b818111156125fd5782602083870101525b50601f01601f19169290920160200192915050565b805182526020810151602083015260408101516040830152606081015160608301526080810151608083015260a081015160a083015260c081015160c083015260e081015160e08301526101008082015181840152506101208082015181840152506101408082015181840152506101608082015181840152506101808082015181840152506101a080820151610942828501826001600160a01b03169052565b6020808252825182820181905260009190848201906040850190845b818110156126f6576126e2838551612612565b928401926101c092909201916001016126cf565b50909695505050505050565b60408152600061271560408301856125c7565b90508260208301529392505050565b60808152600061273760808301876125c7565b6020830195909552506040810192909252606090910152919050565b6020808252818101527f4f776e61626c653a2063616c6c6572206973206e6f7420746865206f776e6572604082015260600190565b60208082526023908201527f5573657220696e6465782073686f756c6420626520626967676572207468616e60408201526210181760e91b606082015260800190565b6101c081016104038284612612565b600082198211156127ed576127ed61294e565b500190565b60008261280d57634e487b7160e01b81526012600452602481fd5b500490565b600181815b8085111561284d5781600019048211156128335761283361294e565b8085161561284057918102915b93841c9390800290612817565b509250929050565b6000611c05838360008261286b57506001610403565b8161287857506000610403565b816001811461288e5760028114612898576128b4565b6001915050610403565b60ff8411156128a9576128a961294e565b50506001821b610403565b5060208310610133831016604e8410600b84101617156128d7575081810a610403565b6128e18383612812565b80600019048211156128f5576128f561294e565b029392505050565b60008160001904831182151516156129175761291761294e565b500290565b60008282101561292e5761292e61294e565b500390565b60006000198214156129475761294761294e565b5060010190565b634e487b7160e01b600052601160045260246000fdfea2646970667358221220b709513e72320bcfd28a9efa1148da98892f73931f9c5e6a0e063fe1db15a24564736f6c63430008040033","opcodes":"PUSH1 0x80 PUSH1 0x40 MSTORE PUSH1 0x1E PUSH1 0x9 SSTORE PUSH4 0x3B9ACA00 PUSH1 0xA SSTORE CALLVALUE DUP1 ISZERO PUSH3 0x1E JUMPI PUSH1 0x0 DUP1 REVERT JUMPDEST POP PUSH1 0x40 MLOAD PUSH3 0x2BB2 CODESIZE SUB DUP1 PUSH3 0x2BB2 DUP4 CODECOPY DUP2 ADD PUSH1 0x40 DUP2 SWAP1 MSTORE PUSH3 0x41 SWAP2 PUSH3 0x180 JUMP JUMPDEST PUSH1 0x0 DUP1 SLOAD PUSH1 0x1 PUSH1 0x1 PUSH1 0xA0 SHL SUB NOT AND CALLER SWAP1 DUP2 OR DUP3 SSTORE PUSH1 0x40 MLOAD SWAP1 SWAP2 DUP3 SWAP2 PUSH32 0x8BE0079C531659141344CD1FD0A4F28419497F9722A3DAAFE3B4186F6B6457E0 SWAP1 DUP3 SWAP1 LOG3 POP PUSH1 0x5 DUP1 SLOAD PUSH1 0x1 PUSH1 0x1 PUSH1 0xA0 SHL SUB DUP1 DUP8 AND PUSH1 0x1 PUSH1 0x1 PUSH1 0xA0 SHL SUB NOT SWAP3 DUP4 AND OR SWAP1 SWAP3 SSTORE PUSH1 0x6 DUP1 SLOAD DUP7 DUP5 AND SWAP1 DUP4 AND DUP2 OR SWAP1 SWAP2 SSTORE PUSH1 0x7 DUP1 SLOAD DUP7 DUP6 AND SWAP1 DUP5 AND OR SWAP1 SSTORE PUSH1 0x8 DUP1 SLOAD SWAP4 DUP6 AND SWAP4 SWAP1 SWAP3 AND SWAP3 SWAP1 SWAP3 OR SWAP1 SSTORE PUSH3 0xE4 SWAP1 PUSH1 0x32 PUSH2 0x1F4 PUSH2 0x2710 PUSH1 0x0 DUP1 PUSH3 0x110 JUMP JUMPDEST PUSH1 0x7 SLOAD PUSH3 0x106 SWAP1 PUSH1 0x1 PUSH1 0x1 PUSH1 0xA0 SHL SUB AND PUSH1 0x32 PUSH2 0x1F4 PUSH2 0x2710 PUSH1 0x0 DUP1 PUSH3 0x110 JUMP JUMPDEST POP POP POP POP PUSH3 0x208 JUMP JUMPDEST PUSH1 0x1 PUSH1 0x1 PUSH1 0xA0 SHL SUB DUP7 AND PUSH1 0x0 SWAP1 DUP2 MSTORE PUSH1 0x1 PUSH1 0x20 MSTORE PUSH1 0x40 SWAP1 KECCAK256 DUP6 DUP2 SSTORE PUSH3 0x138 DUP6 PUSH1 0x3 PUSH3 0x1DC JUMP JUMPDEST PUSH1 0x1 DUP3 ADD SSTORE PUSH3 0x14A DUP5 PUSH1 0x3 PUSH3 0x1DC JUMP JUMPDEST PUSH1 0x2 DUP3 ADD SSTORE PUSH1 0x3 DUP2 ADD SWAP3 SWAP1 SWAP3 SSTORE PUSH1 0x4 SWAP1 SWAP2 ADD SSTORE POP POP POP POP JUMP JUMPDEST DUP1 MLOAD PUSH1 0x1 PUSH1 0x1 PUSH1 0xA0 SHL SUB DUP2 AND DUP2 EQ PUSH3 0x17B JUMPI PUSH1 0x0 DUP1 REVERT JUMPDEST SWAP2 SWAP1 POP JUMP JUMPDEST PUSH1 0x0 DUP1 PUSH1 0x0 DUP1 PUSH1 0x80 DUP6 DUP8 SUB SLT ISZERO PUSH3 0x196 JUMPI DUP4 DUP5 REVERT JUMPDEST PUSH3 0x1A1 DUP6 PUSH3 0x163 JUMP JUMPDEST SWAP4 POP PUSH3 0x1B1 PUSH1 0x20 DUP7 ADD PUSH3 0x163 JUMP JUMPDEST SWAP3 POP PUSH3 0x1C1 PUSH1 0x40 DUP7 ADD PUSH3 0x163 JUMP JUMPDEST SWAP2 POP PUSH3 0x1D1 PUSH1 0x60 DUP7 ADD PUSH3 0x163 JUMP JUMPDEST SWAP1 POP SWAP3 SWAP6 SWAP2 SWAP5 POP SWAP3 POP JUMP JUMPDEST PUSH1 0x0 DUP2 PUSH1 0x0 NOT DIV DUP4 GT DUP3 ISZERO ISZERO AND ISZERO PUSH3 0x203 JUMPI PUSH4 0x4E487B71 PUSH1 0xE0 SHL DUP2 MSTORE PUSH1 0x11 PUSH1 0x4 MSTORE PUSH1 0x24 DUP2 REVERT JUMPDEST POP MUL SWAP1 JUMP JUMPDEST PUSH2 0x299A DUP1 PUSH3 0x218 PUSH1 0x0 CODECOPY PUSH1 0x0 RETURN INVALID PUSH1 0x80 PUSH1 0x40 MSTORE PUSH1 0x4 CALLDATASIZE LT PUSH2 0x117 JUMPI PUSH1 0x0 CALLDATALOAD PUSH1 0xE0 SHR DUP1 PUSH4 0x6386C1C7 GT PUSH2 0x9A JUMPI DUP1 PUSH4 0xA5FDC5DE GT PUSH2 0x61 JUMPI DUP1 PUSH4 0xA5FDC5DE EQ PUSH2 0x2F7 JUMPI DUP1 PUSH4 0xE9E15B4F EQ PUSH2 0x317 JUMPI DUP1 PUSH4 0xF2FDE38B EQ PUSH2 0x354 JUMPI DUP1 PUSH4 0xF3FEF3A3 EQ PUSH2 0x374 JUMPI DUP1 PUSH4 0xFE96973A EQ PUSH2 0x394 JUMPI STOP JUMPDEST DUP1 PUSH4 0x6386C1C7 EQ PUSH2 0x258 JUMPI DUP1 PUSH4 0x715018A6 EQ PUSH2 0x285 JUMPI DUP1 PUSH4 0x838AFB1E EQ PUSH2 0x29A JUMPI DUP1 PUSH4 0x8DA5CB5B EQ PUSH2 0x2AF JUMPI DUP1 PUSH4 0x9B6C56EC EQ PUSH2 0x2D7 JUMPI STOP JUMPDEST DUP1 PUSH4 0x2F865568 GT PUSH2 0xDE JUMPI DUP1 PUSH4 0x2F865568 EQ PUSH2 0x1D0 JUMPI DUP1 PUSH4 0x47E7EF24 EQ PUSH2 0x1E3 JUMPI DUP1 PUSH4 0x4B8A3529 EQ PUSH2 0x1F6 JUMPI DUP1 PUSH4 0x5063E91A EQ PUSH2 0x216 JUMPI DUP1 PUSH4 0x616571E7 EQ PUSH2 0x238 JUMPI STOP JUMPDEST DUP1 PUSH4 0x5CB9FDE EQ PUSH2 0x120 JUMPI DUP1 PUSH4 0x14658AC7 EQ PUSH2 0x153 JUMPI DUP1 PUSH4 0x1698755F EQ PUSH2 0x173 JUMPI DUP1 PUSH4 0x22867D78 EQ PUSH2 0x193 JUMPI DUP1 PUSH4 0x23341A05 EQ PUSH2 0x1A6 JUMPI STOP JUMPDEST CALLDATASIZE PUSH2 0x11E JUMPI STOP JUMPDEST STOP JUMPDEST CALLVALUE DUP1 ISZERO PUSH2 0x12C JUMPI PUSH1 0x0 DUP1 REVERT JUMPDEST POP PUSH2 0x140 PUSH2 0x13B CALLDATASIZE PUSH1 0x4 PUSH2 0x252D JUMP JUMPDEST PUSH2 0x3B4 JUMP JUMPDEST PUSH1 0x40 MLOAD SWAP1 DUP2 MSTORE PUSH1 0x20 ADD JUMPDEST PUSH1 0x40 MLOAD DUP1 SWAP2 SUB SWAP1 RETURN JUMPDEST CALLVALUE DUP1 ISZERO PUSH2 0x15F JUMPI PUSH1 0x0 DUP1 REVERT JUMPDEST POP PUSH2 0x140 PUSH2 0x16E CALLDATASIZE PUSH1 0x4 PUSH2 0x24EB JUMP JUMPDEST PUSH2 0x409 JUMP JUMPDEST CALLVALUE DUP1 ISZERO PUSH2 0x17F JUMPI PUSH1 0x0 DUP1 REVERT JUMPDEST POP PUSH2 0x11E PUSH2 0x18E CALLDATASIZE PUSH1 0x4 PUSH2 0x252D JUMP JUMPDEST PUSH2 0x5B2 JUMP JUMPDEST PUSH2 0x11E PUSH2 0x1A1 CALLDATASIZE PUSH1 0x4 PUSH2 0x252D JUMP JUMPDEST PUSH2 0x68B JUMP JUMPDEST CALLVALUE DUP1 ISZERO PUSH2 0x1B2 JUMPI PUSH1 0x0 DUP1 REVERT JUMPDEST POP PUSH2 0x1BB PUSH2 0x948 JUMP JUMPDEST PUSH1 0x40 DUP1 MLOAD SWAP3 DUP4 MSTORE PUSH1 0x20 DUP4 ADD SWAP2 SWAP1 SWAP2 MSTORE ADD PUSH2 0x14A JUMP JUMPDEST PUSH2 0x11E PUSH2 0x1DE CALLDATASIZE PUSH1 0x4 PUSH2 0x24D1 JUMP JUMPDEST PUSH2 0x9CF JUMP JUMPDEST PUSH2 0x11E PUSH2 0x1F1 CALLDATASIZE PUSH1 0x4 PUSH2 0x252D JUMP JUMPDEST PUSH2 0xE79 JUMP JUMPDEST CALLVALUE DUP1 ISZERO PUSH2 0x202 JUMPI PUSH1 0x0 DUP1 REVERT JUMPDEST POP PUSH2 0x11E PUSH2 0x211 CALLDATASIZE PUSH1 0x4 PUSH2 0x252D JUMP JUMPDEST PUSH2 0x10BD JUMP JUMPDEST CALLVALUE DUP1 ISZERO PUSH2 0x222 JUMPI PUSH1 0x0 DUP1 REVERT JUMPDEST POP PUSH2 0x22B PUSH2 0x1443 JUMP JUMPDEST PUSH1 0x40 MLOAD PUSH2 0x14A SWAP2 SWAP1 PUSH2 0x26B3 JUMP JUMPDEST CALLVALUE DUP1 ISZERO PUSH2 0x244 JUMPI PUSH1 0x0 DUP1 REVERT JUMPDEST POP PUSH2 0x11E PUSH2 0x253 CALLDATASIZE PUSH1 0x4 PUSH2 0x2576 JUMP JUMPDEST PUSH1 0x9 SSTORE JUMP JUMPDEST CALLVALUE DUP1 ISZERO PUSH2 0x264 JUMPI PUSH1 0x0 DUP1 REVERT JUMPDEST POP PUSH2 0x278 PUSH2 0x273 CALLDATASIZE PUSH1 0x4 PUSH2 0x24D1 JUMP JUMPDEST PUSH2 0x151B JUMP JUMPDEST PUSH1 0x40 MLOAD PUSH2 0x14A SWAP2 SWAP1 PUSH2 0x27CB JUMP JUMPDEST CALLVALUE DUP1 ISZERO PUSH2 0x291 JUMPI PUSH1 0x0 DUP1 REVERT JUMPDEST POP PUSH2 0x11E PUSH2 0x154E JUMP JUMPDEST CALLVALUE DUP1 ISZERO PUSH2 0x2A6 JUMPI PUSH1 0x0 DUP1 REVERT JUMPDEST POP PUSH2 0x11E PUSH2 0x15C2 JUMP JUMPDEST CALLVALUE DUP1 ISZERO PUSH2 0x2BB JUMPI PUSH1 0x0 DUP1 REVERT JUMPDEST POP PUSH1 0x0 SLOAD PUSH1 0x40 MLOAD PUSH1 0x1 PUSH1 0x1 PUSH1 0xA0 SHL SUB SWAP1 SWAP2 AND DUP2 MSTORE PUSH1 0x20 ADD PUSH2 0x14A JUMP JUMPDEST CALLVALUE DUP1 ISZERO PUSH2 0x2E3 JUMPI PUSH1 0x0 DUP1 REVERT JUMPDEST POP PUSH2 0x140 PUSH2 0x2F2 CALLDATASIZE PUSH1 0x4 PUSH2 0x24D1 JUMP JUMPDEST PUSH2 0x169C JUMP JUMPDEST CALLVALUE DUP1 ISZERO PUSH2 0x303 JUMPI PUSH1 0x0 DUP1 REVERT JUMPDEST POP PUSH2 0x140 PUSH2 0x312 CALLDATASIZE PUSH1 0x4 PUSH2 0x24D1 JUMP JUMPDEST PUSH2 0x174A JUMP JUMPDEST CALLVALUE DUP1 ISZERO PUSH2 0x323 JUMPI PUSH1 0x0 DUP1 REVERT JUMPDEST POP PUSH2 0x11E PUSH2 0x332 CALLDATASIZE PUSH1 0x4 PUSH2 0x24D1 JUMP JUMPDEST PUSH1 0x8 DUP1 SLOAD PUSH1 0x1 PUSH1 0x1 PUSH1 0xA0 SHL SUB NOT AND PUSH1 0x1 PUSH1 0x1 PUSH1 0xA0 SHL SUB SWAP3 SWAP1 SWAP3 AND SWAP2 SWAP1 SWAP2 OR SWAP1 SSTORE JUMP JUMPDEST CALLVALUE DUP1 ISZERO PUSH2 0x360 JUMPI PUSH1 0x0 DUP1 REVERT JUMPDEST POP PUSH2 0x11E PUSH2 0x36F CALLDATASIZE PUSH1 0x4 PUSH2 0x24D1 JUMP JUMPDEST PUSH2 0x17E1 JUMP JUMPDEST CALLVALUE DUP1 ISZERO PUSH2 0x380 JUMPI PUSH1 0x0 DUP1 REVERT JUMPDEST POP PUSH2 0x11E PUSH2 0x38F CALLDATASIZE PUSH1 0x4 PUSH2 0x252D JUMP JUMPDEST PUSH2 0x1817 JUMP JUMPDEST CALLVALUE DUP1 ISZERO PUSH2 0x3A0 JUMPI PUSH1 0x0 DUP1 REVERT JUMPDEST POP PUSH2 0x11E PUSH2 0x3AF CALLDATASIZE PUSH1 0x4 PUSH2 0x2576 JUMP JUMPDEST PUSH2 0x1B31 JUMP JUMPDEST PUSH1 0x7 SLOAD PUSH1 0x0 SWAP1 PUSH1 0x1 PUSH1 0x1 PUSH1 0xA0 SHL SUB DUP5 DUP2 AND SWAP2 AND EQ ISZERO PUSH2 0x3D4 JUMPI POP DUP1 PUSH2 0x403 JUMP JUMPDEST PUSH9 0x3635C9ADC5DEA00000 PUSH2 0x3FF PUSH13 0xC9F2C9CD04674EDEA40000000 PUSH2 0x3F9 DUP6 DUP5 PUSH2 0x28FD JUMP JUMPDEST SWAP1 PUSH2 0x1BF9 JUMP JUMPDEST SWAP2 POP POP JUMPDEST SWAP3 SWAP2 POP POP JUMP JUMPDEST PUSH1 0x40 MLOAD PUSH4 0x70A08231 PUSH1 0xE0 SHL DUP2 MSTORE PUSH1 0x1 PUSH1 0x1 PUSH1 0xA0 SHL SUB DUP5 DUP2 AND PUSH1 0x4 DUP4 ADD MSTORE PUSH1 0x0 SWAP2 DUP3 SWAP2 DUP6 AND SWAP1 PUSH4 0x70A08231 SWAP1 PUSH1 0x24 ADD PUSH1 0x20 PUSH1 0x40 MLOAD DUP1 DUP4 SUB DUP2 DUP7 DUP1 EXTCODESIZE ISZERO DUP1 ISZERO PUSH2 0x44F JUMPI PUSH1 0x0 DUP1 REVERT JUMPDEST POP GAS STATICCALL ISZERO DUP1 ISZERO PUSH2 0x463 JUMPI RETURNDATASIZE PUSH1 0x0 DUP1 RETURNDATACOPY RETURNDATASIZE PUSH1 0x0 REVERT JUMPDEST POP POP POP POP PUSH1 0x40 MLOAD RETURNDATASIZE PUSH1 0x1F NOT PUSH1 0x1F DUP3 ADD AND DUP3 ADD DUP1 PUSH1 0x40 MSTORE POP DUP2 ADD SWAP1 PUSH2 0x487 SWAP2 SWAP1 PUSH2 0x258E JUMP JUMPDEST PUSH1 0x40 MLOAD PUSH4 0x70A08231 PUSH1 0xE0 SHL DUP2 MSTORE PUSH1 0x1 PUSH1 0x1 PUSH1 0xA0 SHL SUB DUP8 DUP2 AND PUSH1 0x4 DUP4 ADD MSTORE SWAP2 SWAP3 POP PUSH1 0x0 SWAP2 DUP6 AND SWAP1 PUSH4 0x70A08231 SWAP1 PUSH1 0x24 ADD PUSH1 0x20 PUSH1 0x40 MLOAD DUP1 DUP4 SUB DUP2 DUP7 DUP1 EXTCODESIZE ISZERO DUP1 ISZERO PUSH2 0x4CE JUMPI PUSH1 0x0 DUP1 REVERT JUMPDEST POP GAS STATICCALL ISZERO DUP1 ISZERO PUSH2 0x4E2 JUMPI RETURNDATASIZE PUSH1 0x0 DUP1 RETURNDATACOPY RETURNDATASIZE PUSH1 0x0 REVERT JUMPDEST POP POP POP POP PUSH1 0x40 MLOAD RETURNDATASIZE PUSH1 0x1F NOT PUSH1 0x1F DUP3 ADD AND DUP3 ADD DUP1 PUSH1 0x40 MSTORE POP DUP2 ADD SWAP1 PUSH2 0x506 SWAP2 SWAP1 PUSH2 0x258E JUMP JUMPDEST SWAP1 POP PUSH1 0x0 DUP5 PUSH1 0x1 PUSH1 0x1 PUSH1 0xA0 SHL SUB AND PUSH4 0x313CE567 PUSH1 0x40 MLOAD DUP2 PUSH4 0xFFFFFFFF AND PUSH1 0xE0 SHL DUP2 MSTORE PUSH1 0x4 ADD PUSH1 0x20 PUSH1 0x40 MLOAD DUP1 DUP4 SUB DUP2 DUP7 DUP1 EXTCODESIZE ISZERO DUP1 ISZERO PUSH2 0x543 JUMPI PUSH1 0x0 DUP1 REVERT JUMPDEST POP GAS STATICCALL ISZERO DUP1 ISZERO PUSH2 0x557 JUMPI RETURNDATASIZE PUSH1 0x0 DUP1 RETURNDATACOPY RETURNDATASIZE PUSH1 0x0 REVERT JUMPDEST POP POP POP POP PUSH1 0x40 MLOAD RETURNDATASIZE PUSH1 0x1F NOT PUSH1 0x1F DUP3 ADD AND DUP3 ADD DUP1 PUSH1 0x40 MSTORE POP DUP2 ADD SWAP1 PUSH2 0x57B SWAP2 SWAP1 PUSH2 0x25A6 JUMP JUMPDEST PUSH1 0xFF AND SWAP1 POP PUSH1 0x0 PUSH2 0x5A6 DUP5 PUSH2 0x3F9 PUSH2 0x594 DUP6 PUSH1 0x24 PUSH2 0x291C JUMP JUMPDEST PUSH2 0x59F SWAP1 PUSH1 0xA PUSH2 0x2855 JUMP JUMPDEST DUP7 SWAP1 PUSH2 0x1C0C JUMP JUMPDEST SWAP9 SWAP8 POP POP POP POP POP POP POP POP JUMP JUMPDEST PUSH1 0x0 SLOAD PUSH1 0x1 PUSH1 0x1 PUSH1 0xA0 SHL SUB AND CALLER EQ PUSH2 0x5E5 JUMPI PUSH1 0x40 MLOAD PUSH3 0x461BCD PUSH1 0xE5 SHL DUP2 MSTORE PUSH1 0x4 ADD PUSH2 0x5DC SWAP1 PUSH2 0x2753 JUMP JUMPDEST PUSH1 0x40 MLOAD DUP1 SWAP2 SUB SWAP1 REVERT JUMPDEST DUP2 PUSH1 0x1 PUSH1 0x1 PUSH1 0xA0 SHL SUB AND PUSH4 0xA9059CBB PUSH2 0x606 PUSH1 0x0 SLOAD PUSH1 0x1 PUSH1 0x1 PUSH1 0xA0 SHL SUB AND SWAP1 JUMP JUMPDEST PUSH1 0x40 MLOAD PUSH1 0x1 PUSH1 0x1 PUSH1 0xE0 SHL SUB NOT PUSH1 0xE0 DUP5 SWAP1 SHL AND DUP2 MSTORE PUSH1 0x1 PUSH1 0x1 PUSH1 0xA0 SHL SUB SWAP1 SWAP2 AND PUSH1 0x4 DUP3 ADD MSTORE PUSH1 0x24 DUP2 ADD DUP5 SWAP1 MSTORE PUSH1 0x44 ADD PUSH1 0x20 PUSH1 0x40 MLOAD DUP1 DUP4 SUB DUP2 PUSH1 0x0 DUP8 DUP1 EXTCODESIZE ISZERO DUP1 ISZERO PUSH2 0x64E JUMPI PUSH1 0x0 DUP1 REVERT JUMPDEST POP GAS CALL ISZERO DUP1 ISZERO PUSH2 0x662 JUMPI RETURNDATASIZE PUSH1 0x0 DUP1 RETURNDATACOPY RETURNDATASIZE PUSH1 0x0 REVERT JUMPDEST POP POP POP POP PUSH1 0x40 MLOAD RETURNDATASIZE PUSH1 0x1F NOT PUSH1 0x1F DUP3 ADD AND DUP3 ADD DUP1 PUSH1 0x40 MSTORE POP DUP2 ADD SWAP1 PUSH2 0x686 SWAP2 SWAP1 PUSH2 0x2556 JUMP JUMPDEST POP POP POP JUMP JUMPDEST PUSH2 0x694 CALLER PUSH2 0x1C18 JUMP JUMPDEST PUSH1 0x0 DUP2 GT PUSH2 0x6D4 JUMPI PUSH1 0x40 MLOAD PUSH3 0x461BCD PUSH1 0xE5 SHL DUP2 MSTORE PUSH1 0x20 PUSH1 0x4 DUP3 ADD MSTORE PUSH1 0xD PUSH1 0x24 DUP3 ADD MSTORE PUSH13 0x63616E2774207265706179203 PUSH1 0x9C SHL PUSH1 0x44 DUP3 ADD MSTORE PUSH1 0x64 ADD PUSH2 0x5DC JUMP JUMPDEST CALLER PUSH1 0x0 SWAP1 DUP2 MSTORE PUSH1 0x4 PUSH1 0x20 MSTORE PUSH1 0x40 SWAP1 KECCAK256 SLOAD DUP1 PUSH2 0x701 JUMPI PUSH1 0x40 MLOAD PUSH3 0x461BCD PUSH1 0xE5 SHL DUP2 MSTORE PUSH1 0x4 ADD PUSH2 0x5DC SWAP1 PUSH2 0x2788 JUMP JUMPDEST PUSH1 0x0 DUP2 DUP2 MSTORE PUSH1 0x3 PUSH1 0x20 SWAP1 DUP2 MSTORE PUSH1 0x40 DUP1 DUP4 KECCAK256 PUSH1 0x1 PUSH1 0x1 PUSH1 0xA0 SHL SUB DUP8 AND DUP5 MSTORE PUSH1 0x5 DUP2 ADD SWAP1 SWAP3 MSTORE SWAP1 SWAP2 KECCAK256 SLOAD DUP4 GT PUSH2 0x781 JUMPI PUSH1 0x40 MLOAD PUSH3 0x461BCD PUSH1 0xE5 SHL DUP2 MSTORE PUSH1 0x20 PUSH1 0x4 DUP3 ADD MSTORE PUSH1 0x21 PUSH1 0x24 DUP3 ADD MSTORE PUSH32 0x5265706179206E65656420746F20626520626967676572207468616E20646562 PUSH1 0x44 DUP3 ADD MSTORE PUSH1 0x1D PUSH1 0xFA SHL PUSH1 0x64 DUP3 ADD MSTORE PUSH1 0x84 ADD PUSH2 0x5DC JUMP JUMPDEST PUSH1 0x1 PUSH1 0x1 PUSH1 0xA0 SHL SUB DUP5 AND PUSH1 0x0 SWAP1 DUP2 MSTORE PUSH1 0x3 DUP3 ADD PUSH1 0x20 MSTORE PUSH1 0x40 DUP2 KECCAK256 DUP1 SLOAD DUP6 SWAP3 SWAP1 PUSH2 0x7AB SWAP1 DUP5 SWAP1 PUSH2 0x291C JUMP JUMPDEST SWAP1 SWAP2 SSTORE POP POP PUSH1 0x7 SLOAD PUSH1 0x1 PUSH1 0x1 PUSH1 0xA0 SHL SUB DUP6 DUP2 AND SWAP2 AND EQ ISZERO PUSH2 0x8C3 JUMPI PUSH1 0x7 SLOAD PUSH1 0x40 MLOAD PUSH4 0x23B872DD PUSH1 0xE0 SHL DUP2 MSTORE CALLER PUSH1 0x4 DUP3 ADD MSTORE ADDRESS PUSH1 0x24 DUP3 ADD MSTORE PUSH1 0x44 DUP2 ADD DUP6 SWAP1 MSTORE PUSH1 0x1 PUSH1 0x1 PUSH1 0xA0 SHL SUB SWAP1 SWAP2 AND SWAP1 PUSH4 0x23B872DD SWAP1 PUSH1 0x64 ADD PUSH1 0x20 PUSH1 0x40 MLOAD DUP1 DUP4 SUB DUP2 PUSH1 0x0 DUP8 DUP1 EXTCODESIZE ISZERO DUP1 ISZERO PUSH2 0x818 JUMPI PUSH1 0x0 DUP1 REVERT JUMPDEST POP GAS CALL ISZERO DUP1 ISZERO PUSH2 0x82C JUMPI RETURNDATASIZE PUSH1 0x0 DUP1 RETURNDATACOPY RETURNDATASIZE PUSH1 0x0 REVERT JUMPDEST POP POP POP POP PUSH1 0x40 MLOAD RETURNDATASIZE PUSH1 0x1F NOT PUSH1 0x1F DUP3 ADD AND DUP3 ADD DUP1 PUSH1 0x40 MSTORE POP DUP2 ADD SWAP1 PUSH2 0x850 SWAP2 SWAP1 PUSH2 0x2556 JUMP JUMPDEST PUSH2 0x88B JUMPI PUSH1 0x40 MLOAD PUSH3 0x461BCD PUSH1 0xE5 SHL DUP2 MSTORE PUSH1 0x20 PUSH1 0x4 DUP3 ADD MSTORE PUSH1 0xC PUSH1 0x24 DUP3 ADD MSTORE PUSH12 0x14995C185E4819985A5B1959 PUSH1 0xA2 SHL PUSH1 0x44 DUP3 ADD MSTORE PUSH1 0x64 ADD PUSH2 0x5DC JUMP JUMPDEST PUSH1 0x7 SLOAD PUSH1 0x1 PUSH1 0x1 PUSH1 0xA0 SHL SUB AND PUSH1 0x0 SWAP1 DUP2 MSTORE PUSH1 0x1 PUSH1 0x20 MSTORE PUSH1 0x40 DUP2 KECCAK256 PUSH1 0x4 ADD DUP1 SLOAD DUP6 SWAP3 SWAP1 PUSH2 0x8B8 SWAP1 DUP5 SWAP1 PUSH2 0x291C JUMP JUMPDEST SWAP1 SWAP2 SSTORE POP PUSH2 0x939 SWAP1 POP JUMP JUMPDEST DUP3 CALLVALUE LT ISZERO PUSH2 0x906 JUMPI PUSH1 0x40 MLOAD PUSH3 0x461BCD PUSH1 0xE5 SHL DUP2 MSTORE PUSH1 0x20 PUSH1 0x4 DUP3 ADD MSTORE PUSH1 0x10 PUSH1 0x24 DUP3 ADD MSTORE PUSH16 0x283632B0B9B2903830BC9036B7B93297 PUSH1 0x81 SHL PUSH1 0x44 DUP3 ADD MSTORE PUSH1 0x64 ADD PUSH2 0x5DC JUMP JUMPDEST PUSH1 0x6 SLOAD PUSH1 0x1 PUSH1 0x1 PUSH1 0xA0 SHL SUB AND PUSH1 0x0 SWAP1 DUP2 MSTORE PUSH1 0x1 PUSH1 0x20 MSTORE PUSH1 0x40 DUP2 KECCAK256 PUSH1 0x4 ADD DUP1 SLOAD DUP6 SWAP3 SWAP1 PUSH2 0x933 SWAP1 DUP5 SWAP1 PUSH2 0x291C JUMP JUMPDEST SWAP1 SWAP2 SSTORE POP POP JUMPDEST PUSH2 0x942 CALLER PUSH2 0x1C18 JUMP JUMPDEST POP POP POP POP JUMP JUMPDEST PUSH1 0x6 SLOAD PUSH1 0x1 PUSH1 0x1 PUSH1 0xA0 SHL SUB SWAP1 DUP2 AND PUSH1 0x0 DUP2 DUP2 MSTORE PUSH1 0x1 PUSH1 0x20 MSTORE PUSH1 0x40 DUP1 DUP3 KECCAK256 PUSH1 0x7 SLOAD SWAP1 SWAP5 AND DUP3 MSTORE DUP2 KECCAK256 PUSH1 0x3 DUP1 DUP3 ADD SLOAD SWAP1 DUP6 ADD SLOAD SWAP3 SWAP5 DUP6 SWAP5 SWAP1 SWAP4 PUSH2 0x989 SWAP2 SWAP1 PUSH2 0x3B4 JUMP JUMPDEST PUSH2 0x993 SWAP2 SWAP1 PUSH2 0x27DA JUMP JUMPDEST DUP2 PUSH1 0x4 ADD SLOAD PUSH2 0x9BB PUSH1 0x6 PUSH1 0x0 SWAP1 SLOAD SWAP1 PUSH2 0x100 EXP SWAP1 DIV PUSH1 0x1 PUSH1 0x1 PUSH1 0xA0 SHL SUB AND DUP6 PUSH1 0x4 ADD SLOAD PUSH2 0x3B4 JUMP JUMPDEST PUSH2 0x9C5 SWAP2 SWAP1 PUSH2 0x27DA JUMP JUMPDEST SWAP4 POP SWAP4 POP POP POP SWAP1 SWAP2 JUMP JUMPDEST PUSH1 0x1 PUSH1 0x1 PUSH1 0xA0 SHL SUB DUP2 AND PUSH1 0x0 SWAP1 DUP2 MSTORE PUSH1 0x4 PUSH1 0x20 MSTORE PUSH1 0x40 SWAP1 KECCAK256 SLOAD DUP1 PUSH2 0xA05 JUMPI PUSH1 0x40 MLOAD PUSH3 0x461BCD PUSH1 0xE5 SHL DUP2 MSTORE PUSH1 0x4 ADD PUSH2 0x5DC SWAP1 PUSH2 0x2788 JUMP JUMPDEST PUSH1 0x0 DUP2 DUP2 MSTORE PUSH1 0x3 PUSH1 0x20 MSTORE PUSH1 0x40 DUP2 KECCAK256 SWAP1 PUSH2 0xA1D DUP5 PUSH2 0x174A JUMP JUMPDEST SWAP1 POP PUSH1 0x0 PUSH2 0xA2A DUP6 PUSH2 0x169C JUMP JUMPDEST SWAP1 POP PUSH1 0x0 PUSH2 0xA52 PUSH2 0xA3C DUP5 PUSH1 0x5A PUSH2 0x28FD JUMP JUMPDEST PUSH2 0xA47 DUP5 PUSH1 0x64 PUSH2 0x28FD JUMP JUMPDEST PUSH2 0x3F9 SWAP1 PUSH1 0x64 PUSH2 0x28FD JUMP JUMPDEST SWAP1 POP PUSH2 0xA81 PUSH1 0x40 MLOAD DUP1 PUSH1 0x40 ADD PUSH1 0x40 MSTORE DUP1 PUSH1 0x9 DUP2 MSTORE PUSH1 0x20 ADD PUSH9 0x1C9A5CDAC8199858DD PUSH1 0xBA SHL DUP2 MSTORE POP DUP5 DUP5 DUP5 PUSH2 0x1F86 JUMP JUMPDEST PUSH1 0x9 SLOAD DUP2 GT PUSH2 0xAD2 JUMPI PUSH1 0x40 MLOAD PUSH3 0x461BCD PUSH1 0xE5 SHL DUP2 MSTORE PUSH1 0x20 PUSH1 0x4 DUP3 ADD MSTORE PUSH1 0x1F PUSH1 0x24 DUP3 ADD MSTORE PUSH32 0x54686973206973206E6F7420656E61626C6564206C69717569646174696F6E00 PUSH1 0x44 DUP3 ADD MSTORE PUSH1 0x64 ADD PUSH2 0x5DC JUMP JUMPDEST PUSH1 0x6 SLOAD PUSH1 0x1 PUSH1 0x1 PUSH1 0xA0 SHL SUB AND PUSH1 0x0 SWAP1 DUP2 MSTORE PUSH1 0x4 DUP6 ADD PUSH1 0x20 SWAP1 DUP2 MSTORE PUSH1 0x40 DUP1 DUP4 KECCAK256 SLOAD PUSH1 0x2 DUP9 ADD SWAP1 SWAP3 MSTORE DUP3 KECCAK256 SLOAD PUSH2 0xB06 SWAP2 SWAP1 PUSH2 0x27DA JUMP JUMPDEST PUSH1 0x7 SLOAD PUSH1 0x1 PUSH1 0x1 PUSH1 0xA0 SHL SUB AND PUSH1 0x0 SWAP1 DUP2 MSTORE PUSH1 0x4 DUP8 ADD PUSH1 0x20 SWAP1 DUP2 MSTORE PUSH1 0x40 DUP1 DUP4 KECCAK256 SLOAD PUSH1 0x2 DUP11 ADD SWAP1 SWAP3 MSTORE DUP3 KECCAK256 SLOAD SWAP3 SWAP4 POP SWAP1 SWAP2 PUSH2 0xB3F SWAP2 SWAP1 PUSH2 0x27DA JUMP JUMPDEST PUSH1 0x6 SLOAD PUSH1 0x1 PUSH1 0x1 PUSH1 0xA0 SHL SUB AND PUSH1 0x0 SWAP1 DUP2 MSTORE PUSH1 0x5 DUP9 ADD PUSH1 0x20 SWAP1 DUP2 MSTORE PUSH1 0x40 DUP1 DUP4 KECCAK256 SLOAD PUSH1 0x3 DUP12 ADD SWAP1 SWAP3 MSTORE DUP3 KECCAK256 SLOAD SWAP3 SWAP4 POP SWAP1 SWAP2 PUSH2 0xB78 SWAP2 SWAP1 PUSH2 0x27DA JUMP JUMPDEST PUSH1 0x7 SLOAD PUSH1 0x1 PUSH1 0x1 PUSH1 0xA0 SHL SUB AND PUSH1 0x0 SWAP1 DUP2 MSTORE PUSH1 0x5 DUP10 ADD PUSH1 0x20 SWAP1 DUP2 MSTORE PUSH1 0x40 DUP1 DUP4 KECCAK256 SLOAD PUSH1 0x3 DUP13 ADD SWAP1 SWAP3 MSTORE DUP3 KECCAK256 SLOAD SWAP3 SWAP4 POP SWAP1 SWAP2 PUSH2 0xBB1 SWAP2 SWAP1 PUSH2 0x27DA JUMP JUMPDEST SWAP1 POP CALLVALUE PUSH2 0xBC0 DUP4 PUSH2 0x2710 PUSH2 0x1BF9 JUMP JUMPDEST PUSH2 0xBCC SWAP1 PUSH2 0x270F PUSH2 0x28FD JUMP JUMPDEST GT PUSH2 0xBD6 JUMPI PUSH1 0x0 DUP1 REVERT JUMPDEST PUSH1 0x7 SLOAD PUSH1 0x1 PUSH1 0x1 PUSH1 0xA0 SHL SUB AND PUSH4 0x23B872DD CALLER ADDRESS PUSH2 0xBF5 DUP6 PUSH2 0x2710 PUSH2 0x1BF9 JUMP JUMPDEST PUSH2 0xC01 SWAP1 PUSH2 0x270F PUSH2 0x28FD JUMP JUMPDEST PUSH1 0x40 MLOAD PUSH1 0x1 PUSH1 0x1 PUSH1 0xE0 SHL SUB NOT PUSH1 0xE0 DUP7 SWAP1 SHL AND DUP2 MSTORE PUSH1 0x1 PUSH1 0x1 PUSH1 0xA0 SHL SUB SWAP4 DUP5 AND PUSH1 0x4 DUP3 ADD MSTORE SWAP3 SWAP1 SWAP2 AND PUSH1 0x24 DUP4 ADD MSTORE PUSH1 0x44 DUP3 ADD MSTORE PUSH1 0x64 ADD PUSH1 0x20 PUSH1 0x40 MLOAD DUP1 DUP4 SUB DUP2 PUSH1 0x0 DUP8 DUP1 EXTCODESIZE ISZERO DUP1 ISZERO PUSH2 0xC50 JUMPI PUSH1 0x0 DUP1 REVERT JUMPDEST POP GAS CALL ISZERO DUP1 ISZERO PUSH2 0xC64 JUMPI RETURNDATASIZE PUSH1 0x0 DUP1 RETURNDATACOPY RETURNDATASIZE PUSH1 0x0 REVERT JUMPDEST POP POP POP POP PUSH1 0x40 MLOAD RETURNDATASIZE PUSH1 0x1F NOT PUSH1 0x1F DUP3 ADD AND DUP3 ADD DUP1 PUSH1 0x40 MSTORE POP DUP2 ADD SWAP1 PUSH2 0xC88 SWAP2 SWAP1 PUSH2 0x2556 JUMP JUMPDEST PUSH2 0xCC5 JUMPI PUSH1 0x40 MLOAD PUSH3 0x461BCD PUSH1 0xE5 SHL DUP2 MSTORE PUSH1 0x20 PUSH1 0x4 DUP3 ADD MSTORE PUSH1 0xE PUSH1 0x24 DUP3 ADD MSTORE PUSH14 0x19195C1BDCDA5D0819985A5B1959 PUSH1 0x92 SHL PUSH1 0x44 DUP3 ADD MSTORE PUSH1 0x64 ADD PUSH2 0x5DC JUMP JUMPDEST PUSH1 0x40 MLOAD PUSH1 0x0 SWAP1 CALLER SWAP1 DUP7 SWAP1 DUP4 DUP2 DUP2 DUP2 DUP6 DUP8 GAS CALL SWAP3 POP POP POP RETURNDATASIZE DUP1 PUSH1 0x0 DUP2 EQ PUSH2 0xD07 JUMPI PUSH1 0x40 MLOAD SWAP2 POP PUSH1 0x1F NOT PUSH1 0x3F RETURNDATASIZE ADD AND DUP3 ADD PUSH1 0x40 MSTORE RETURNDATASIZE DUP3 MSTORE RETURNDATASIZE PUSH1 0x0 PUSH1 0x20 DUP5 ADD RETURNDATACOPY PUSH2 0xD0C JUMP JUMPDEST PUSH1 0x60 SWAP2 POP JUMPDEST POP POP SWAP1 POP DUP1 PUSH2 0xD53 JUMPI PUSH1 0x40 MLOAD PUSH3 0x461BCD PUSH1 0xE5 SHL DUP2 MSTORE PUSH1 0x20 PUSH1 0x4 DUP3 ADD MSTORE PUSH1 0x13 PUSH1 0x24 DUP3 ADD MSTORE PUSH19 0x3330B4B632B2103A379039B2B7321032BA3417 PUSH1 0x69 SHL PUSH1 0x44 DUP3 ADD MSTORE PUSH1 0x64 ADD PUSH2 0x5DC JUMP JUMPDEST PUSH1 0x7 SLOAD PUSH1 0x40 MLOAD PUSH4 0xA9059CBB PUSH1 0xE0 SHL DUP2 MSTORE CALLER PUSH1 0x4 DUP3 ADD MSTORE PUSH1 0x24 DUP2 ADD DUP7 SWAP1 MSTORE PUSH1 0x1 PUSH1 0x1 PUSH1 0xA0 SHL SUB SWAP1 SWAP2 AND SWAP1 PUSH4 0xA9059CBB SWAP1 PUSH1 0x44 ADD PUSH1 0x20 PUSH1 0x40 MLOAD DUP1 DUP4 SUB DUP2 PUSH1 0x0 DUP8 DUP1 EXTCODESIZE ISZERO DUP1 ISZERO PUSH2 0xD9F JUMPI PUSH1 0x0 DUP1 REVERT JUMPDEST POP GAS CALL ISZERO DUP1 ISZERO PUSH2 0xDB3 JUMPI RETURNDATASIZE PUSH1 0x0 DUP1 RETURNDATACOPY RETURNDATASIZE PUSH1 0x0 REVERT JUMPDEST POP POP POP POP PUSH1 0x40 MLOAD RETURNDATASIZE PUSH1 0x1F NOT PUSH1 0x1F DUP3 ADD AND DUP3 ADD DUP1 PUSH1 0x40 MSTORE POP DUP2 ADD SWAP1 PUSH2 0xDD7 SWAP2 SWAP1 PUSH2 0x2556 JUMP JUMPDEST POP PUSH1 0x5 SLOAD PUSH1 0x6 DUP11 ADD SLOAD PUSH1 0x40 MLOAD PUSH4 0xA9059CBB PUSH1 0xE0 SHL DUP2 MSTORE CALLER PUSH1 0x4 DUP3 ADD MSTORE PUSH1 0x24 DUP2 ADD SWAP2 SWAP1 SWAP2 MSTORE PUSH1 0x1 PUSH1 0x1 PUSH1 0xA0 SHL SUB SWAP1 SWAP2 AND SWAP1 PUSH4 0xA9059CBB SWAP1 PUSH1 0x44 ADD PUSH1 0x20 PUSH1 0x40 MLOAD DUP1 DUP4 SUB DUP2 PUSH1 0x0 DUP8 DUP1 EXTCODESIZE ISZERO DUP1 ISZERO PUSH2 0xE2A JUMPI PUSH1 0x0 DUP1 REVERT JUMPDEST POP GAS CALL ISZERO DUP1 ISZERO PUSH2 0xE3E JUMPI RETURNDATASIZE PUSH1 0x0 DUP1 RETURNDATACOPY RETURNDATASIZE PUSH1 0x0 REVERT JUMPDEST POP POP POP POP PUSH1 0x40 MLOAD RETURNDATASIZE PUSH1 0x1F NOT PUSH1 0x1F DUP3 ADD AND DUP3 ADD DUP1 PUSH1 0x40 MSTORE POP DUP2 ADD SWAP1 PUSH2 0xE62 SWAP2 SWAP1 PUSH2 0x2556 JUMP JUMPDEST POP PUSH2 0xE6C DUP12 PUSH2 0x1FCF JUMP JUMPDEST POP POP POP POP POP POP POP POP POP POP POP JUMP JUMPDEST PUSH1 0x0 DUP2 GT PUSH2 0xEBB JUMPI PUSH1 0x40 MLOAD PUSH3 0x461BCD PUSH1 0xE5 SHL DUP2 MSTORE PUSH1 0x20 PUSH1 0x4 DUP3 ADD MSTORE PUSH1 0xF PUSH1 0x24 DUP3 ADD MSTORE PUSH15 0x63616E2774206465706F736974203 PUSH1 0x8C SHL PUSH1 0x44 DUP3 ADD MSTORE PUSH1 0x64 ADD PUSH2 0x5DC JUMP JUMPDEST CALLER PUSH1 0x0 SWAP1 DUP2 MSTORE PUSH1 0x4 PUSH1 0x20 MSTORE PUSH1 0x40 DUP2 KECCAK256 SLOAD PUSH2 0xF03 JUMPI PUSH1 0x1 PUSH1 0x2 PUSH1 0x0 DUP3 DUP3 SLOAD PUSH2 0xEE2 SWAP2 SWAP1 PUSH2 0x27DA JUMP JUMPDEST SWAP1 SWAP2 SSTORE POP POP PUSH1 0x2 SLOAD CALLER PUSH1 0x0 SWAP1 DUP2 MSTORE PUSH1 0x4 PUSH1 0x20 MSTORE PUSH1 0x40 SWAP1 KECCAK256 DUP2 SWAP1 SSTORE SWAP1 POP PUSH2 0xF1E JUMP JUMPDEST POP CALLER PUSH1 0x0 DUP2 DUP2 MSTORE PUSH1 0x4 PUSH1 0x20 MSTORE PUSH1 0x40 SWAP1 KECCAK256 SLOAD SWAP1 PUSH2 0xF1E SWAP1 PUSH2 0x1C18 JUMP JUMPDEST PUSH1 0x0 DUP2 DUP2 MSTORE PUSH1 0x3 PUSH1 0x20 SWAP1 DUP2 MSTORE PUSH1 0x40 DUP1 DUP4 KECCAK256 DUP1 SLOAD PUSH1 0x1 PUSH1 0x1 PUSH1 0xA0 SHL SUB NOT AND CALLER OR DUP2 SSTORE TIMESTAMP PUSH1 0x1 DUP3 ADD SSTORE PUSH1 0x1 PUSH1 0x1 PUSH1 0xA0 SHL SUB DUP8 AND DUP5 MSTORE PUSH1 0x2 DUP2 ADD SWAP1 SWAP3 MSTORE DUP3 KECCAK256 DUP1 SLOAD SWAP2 SWAP3 DUP6 SWAP3 PUSH2 0xF6B SWAP1 DUP5 SWAP1 PUSH2 0x27DA JUMP JUMPDEST SWAP1 SWAP2 SSTORE POP POP PUSH1 0x7 SLOAD PUSH1 0x1 PUSH1 0x1 PUSH1 0xA0 SHL SUB DUP6 DUP2 AND SWAP2 AND EQ ISZERO PUSH2 0x1085 JUMPI PUSH1 0x7 SLOAD PUSH1 0x40 MLOAD PUSH4 0x23B872DD PUSH1 0xE0 SHL DUP2 MSTORE CALLER PUSH1 0x4 DUP3 ADD MSTORE ADDRESS PUSH1 0x24 DUP3 ADD MSTORE PUSH1 0x44 DUP2 ADD DUP6 SWAP1 MSTORE PUSH1 0x1 PUSH1 0x1 PUSH1 0xA0 SHL SUB SWAP1 SWAP2 AND SWAP1 PUSH4 0x23B872DD SWAP1 PUSH1 0x64 ADD PUSH1 0x20 PUSH1 0x40 MLOAD DUP1 DUP4 SUB DUP2 PUSH1 0x0 DUP8 DUP1 EXTCODESIZE ISZERO DUP1 ISZERO PUSH2 0xFD8 JUMPI PUSH1 0x0 DUP1 REVERT JUMPDEST POP GAS CALL ISZERO DUP1 ISZERO PUSH2 0xFEC JUMPI RETURNDATASIZE PUSH1 0x0 DUP1 RETURNDATACOPY RETURNDATASIZE PUSH1 0x0 REVERT JUMPDEST POP POP POP POP PUSH1 0x40 MLOAD RETURNDATASIZE PUSH1 0x1F NOT PUSH1 0x1F DUP3 ADD AND DUP3 ADD DUP1 PUSH1 0x40 MSTORE POP DUP2 ADD SWAP1 PUSH2 0x1010 SWAP2 SWAP1 PUSH2 0x2556 JUMP JUMPDEST PUSH2 0x104D JUMPI PUSH1 0x40 MLOAD PUSH3 0x461BCD PUSH1 0xE5 SHL DUP2 MSTORE PUSH1 0x20 PUSH1 0x4 DUP3 ADD MSTORE PUSH1 0xE PUSH1 0x24 DUP3 ADD MSTORE PUSH14 0x19195C1BDCDA5D0819985A5B1959 PUSH1 0x92 SHL PUSH1 0x44 DUP3 ADD MSTORE PUSH1 0x64 ADD PUSH2 0x5DC JUMP JUMPDEST PUSH1 0x7 SLOAD PUSH1 0x1 PUSH1 0x1 PUSH1 0xA0 SHL SUB AND PUSH1 0x0 SWAP1 DUP2 MSTORE PUSH1 0x1 PUSH1 0x20 MSTORE PUSH1 0x40 DUP2 KECCAK256 PUSH1 0x3 ADD DUP1 SLOAD DUP6 SWAP3 SWAP1 PUSH2 0x107A SWAP1 DUP5 SWAP1 PUSH2 0x27DA JUMP JUMPDEST SWAP1 SWAP2 SSTORE POP PUSH2 0x942 SWAP1 POP JUMP JUMPDEST PUSH1 0x6 SLOAD PUSH1 0x1 PUSH1 0x1 PUSH1 0xA0 SHL SUB AND PUSH1 0x0 SWAP1 DUP2 MSTORE PUSH1 0x1 PUSH1 0x20 MSTORE PUSH1 0x40 DUP2 KECCAK256 PUSH1 0x3 ADD DUP1 SLOAD DUP6 SWAP3 SWAP1 PUSH2 0x10B2 SWAP1 DUP5 SWAP1 PUSH2 0x27DA JUMP JUMPDEST SWAP1 SWAP2 SSTORE POP POP POP POP POP POP JUMP JUMPDEST PUSH1 0x0 DUP2 GT PUSH2 0x10FE JUMPI PUSH1 0x40 MLOAD PUSH3 0x461BCD PUSH1 0xE5 SHL DUP2 MSTORE PUSH1 0x20 PUSH1 0x4 DUP3 ADD MSTORE PUSH1 0xE PUSH1 0x24 DUP3 ADD MSTORE PUSH14 0x63616E277420626F72726F77203 PUSH1 0x94 SHL PUSH1 0x44 DUP3 ADD MSTORE PUSH1 0x64 ADD PUSH2 0x5DC JUMP JUMPDEST CALLER PUSH1 0x0 SWAP1 DUP2 MSTORE PUSH1 0x4 PUSH1 0x20 MSTORE PUSH1 0x40 SWAP1 KECCAK256 SLOAD DUP1 PUSH2 0x112B JUMPI PUSH1 0x40 MLOAD PUSH3 0x461BCD PUSH1 0xE5 SHL DUP2 MSTORE PUSH1 0x4 ADD PUSH2 0x5DC SWAP1 PUSH2 0x2788 JUMP JUMPDEST PUSH1 0x0 DUP2 DUP2 MSTORE PUSH1 0x3 PUSH1 0x20 MSTORE PUSH1 0x40 DUP2 KECCAK256 SWAP1 PUSH2 0x1143 CALLER PUSH2 0x174A JUMP JUMPDEST SWAP1 POP PUSH1 0x0 PUSH2 0x1150 CALLER PUSH2 0x169C JUMP JUMPDEST SWAP1 POP PUSH2 0x1185 PUSH1 0x40 MLOAD DUP1 PUSH1 0x40 ADD PUSH1 0x40 MSTORE DUP1 PUSH1 0x11 DUP2 MSTORE PUSH1 0x20 ADD PUSH17 0x1858D8DBDD5B9D10DBDB1B185D195C985B PUSH1 0x7A SHL DUP2 MSTORE POP DUP4 PUSH2 0x20E3 JUMP JUMPDEST DUP1 DUP3 LT ISZERO PUSH2 0x11D5 JUMPI PUSH1 0x40 MLOAD PUSH3 0x461BCD PUSH1 0xE5 SHL DUP2 MSTORE PUSH1 0x20 PUSH1 0x4 DUP3 ADD MSTORE PUSH1 0x1E PUSH1 0x24 DUP3 ADD MSTORE PUSH32 0x596F7520646F6E6F74206861766520616E7920636F6C6C61746572616C2E0000 PUSH1 0x44 DUP3 ADD MSTORE PUSH1 0x64 ADD PUSH2 0x5DC JUMP JUMPDEST PUSH1 0x0 PUSH2 0x11E1 DUP8 DUP8 PUSH2 0x3B4 JUMP JUMPDEST PUSH1 0x1 PUSH1 0x1 PUSH1 0xA0 SHL SUB DUP9 AND PUSH1 0x0 SWAP1 DUP2 MSTORE PUSH1 0x1 PUSH1 0x20 MSTORE PUSH1 0x40 SWAP1 KECCAK256 SLOAD SWAP1 SWAP2 POP PUSH2 0x1207 DUP4 DUP4 PUSH2 0x27DA JUMP JUMPDEST PUSH1 0x64 PUSH2 0x1213 DUP4 DUP8 PUSH2 0x28FD JUMP JUMPDEST PUSH2 0x121D SWAP2 SWAP1 PUSH2 0x27F2 JUMP JUMPDEST GT PUSH2 0x1261 JUMPI PUSH1 0x40 MLOAD PUSH3 0x461BCD PUSH1 0xE5 SHL DUP2 MSTORE PUSH1 0x20 PUSH1 0x4 DUP3 ADD MSTORE PUSH1 0x14 PUSH1 0x24 DUP3 ADD MSTORE PUSH20 0x283632B0B9B2903232B837B9B4BA1036B7B93297 PUSH1 0x61 SHL PUSH1 0x44 DUP3 ADD MSTORE PUSH1 0x64 ADD PUSH2 0x5DC JUMP JUMPDEST PUSH1 0x1 PUSH1 0x1 PUSH1 0xA0 SHL SUB DUP9 AND PUSH1 0x0 SWAP1 DUP2 MSTORE PUSH1 0x3 DUP7 ADD PUSH1 0x20 MSTORE PUSH1 0x40 DUP2 KECCAK256 DUP1 SLOAD DUP10 SWAP3 SWAP1 PUSH2 0x128B SWAP1 DUP5 SWAP1 PUSH2 0x27DA JUMP JUMPDEST SWAP1 SWAP2 SSTORE POP PUSH2 0x129A SWAP1 POP CALLER PUSH2 0x1C18 JUMP JUMPDEST PUSH1 0x6 SLOAD PUSH1 0x1 PUSH1 0x1 PUSH1 0xA0 SHL SUB DUP10 DUP2 AND SWAP2 AND EQ ISZERO PUSH2 0x1381 JUMPI PUSH1 0x40 MLOAD PUSH1 0x0 SWAP1 CALLER SWAP1 DUP10 SWAP1 DUP4 DUP2 DUP2 DUP2 DUP6 DUP8 GAS CALL SWAP3 POP POP POP RETURNDATASIZE DUP1 PUSH1 0x0 DUP2 EQ PUSH2 0x12F2 JUMPI PUSH1 0x40 MLOAD SWAP2 POP PUSH1 0x1F NOT PUSH1 0x3F RETURNDATASIZE ADD AND DUP3 ADD PUSH1 0x40 MSTORE RETURNDATASIZE DUP3 MSTORE RETURNDATASIZE PUSH1 0x0 PUSH1 0x20 DUP5 ADD RETURNDATACOPY PUSH2 0x12F7 JUMP JUMPDEST PUSH1 0x60 SWAP2 POP JUMPDEST POP POP SWAP1 POP DUP1 PUSH2 0x1348 JUMPI PUSH1 0x40 MLOAD PUSH3 0x461BCD PUSH1 0xE5 SHL DUP2 MSTORE PUSH1 0x20 PUSH1 0x4 DUP3 ADD MSTORE PUSH1 0x1C PUSH1 0x24 DUP3 ADD MSTORE PUSH32 0x6661696C656420746F2073656E642065746820696E7465726573742E00000000 PUSH1 0x44 DUP3 ADD MSTORE PUSH1 0x64 ADD PUSH2 0x5DC JUMP JUMPDEST PUSH1 0x6 SLOAD PUSH1 0x1 PUSH1 0x1 PUSH1 0xA0 SHL SUB AND PUSH1 0x0 SWAP1 DUP2 MSTORE PUSH1 0x1 PUSH1 0x20 MSTORE PUSH1 0x40 DUP2 KECCAK256 PUSH1 0x4 ADD DUP1 SLOAD DUP11 SWAP3 SWAP1 PUSH2 0x1375 SWAP1 DUP5 SWAP1 PUSH2 0x27DA JUMP JUMPDEST SWAP1 SWAP2 SSTORE POP PUSH2 0x1439 SWAP2 POP POP JUMP JUMPDEST PUSH1 0x7 SLOAD PUSH1 0x40 MLOAD PUSH4 0xA9059CBB PUSH1 0xE0 SHL DUP2 MSTORE CALLER PUSH1 0x4 DUP3 ADD MSTORE PUSH1 0x24 DUP2 ADD DUP10 SWAP1 MSTORE PUSH1 0x1 PUSH1 0x1 PUSH1 0xA0 SHL SUB SWAP1 SWAP2 AND SWAP1 PUSH4 0xA9059CBB SWAP1 PUSH1 0x44 ADD PUSH1 0x20 PUSH1 0x40 MLOAD DUP1 DUP4 SUB DUP2 PUSH1 0x0 DUP8 DUP1 EXTCODESIZE ISZERO DUP1 ISZERO PUSH2 0x13CD JUMPI PUSH1 0x0 DUP1 REVERT JUMPDEST POP GAS CALL ISZERO DUP1 ISZERO PUSH2 0x13E1 JUMPI RETURNDATASIZE PUSH1 0x0 DUP1 RETURNDATACOPY RETURNDATASIZE PUSH1 0x0 REVERT JUMPDEST POP POP POP POP PUSH1 0x40 MLOAD RETURNDATASIZE PUSH1 0x1F NOT PUSH1 0x1F DUP3 ADD AND DUP3 ADD DUP1 PUSH1 0x40 MSTORE POP DUP2 ADD SWAP1 PUSH2 0x1405 SWAP2 SWAP1 PUSH2 0x2556 JUMP JUMPDEST POP PUSH1 0x7 SLOAD PUSH1 0x1 PUSH1 0x1 PUSH1 0xA0 SHL SUB AND PUSH1 0x0 SWAP1 DUP2 MSTORE PUSH1 0x1 PUSH1 0x20 MSTORE PUSH1 0x40 DUP2 KECCAK256 PUSH1 0x4 ADD DUP1 SLOAD DUP10 SWAP3 SWAP1 PUSH2 0x1433 SWAP1 DUP5 SWAP1 PUSH2 0x27DA JUMP JUMPDEST SWAP1 SWAP2 SSTORE POP POP JUMPDEST POP POP POP POP POP POP POP POP JUMP JUMPDEST PUSH1 0x60 PUSH1 0x0 PUSH1 0x2 SLOAD PUSH8 0xFFFFFFFFFFFFFFFF DUP2 GT ISZERO PUSH2 0x1470 JUMPI PUSH4 0x4E487B71 PUSH1 0xE0 SHL PUSH1 0x0 MSTORE PUSH1 0x41 PUSH1 0x4 MSTORE PUSH1 0x24 PUSH1 0x0 REVERT JUMPDEST PUSH1 0x40 MLOAD SWAP1 DUP1 DUP3 MSTORE DUP1 PUSH1 0x20 MUL PUSH1 0x20 ADD DUP3 ADD PUSH1 0x40 MSTORE DUP1 ISZERO PUSH2 0x14A9 JUMPI DUP2 PUSH1 0x20 ADD JUMPDEST PUSH2 0x1496 PUSH2 0x2442 JUMP JUMPDEST DUP2 MSTORE PUSH1 0x20 ADD SWAP1 PUSH1 0x1 SWAP1 SUB SWAP1 DUP2 PUSH2 0x148E JUMPI SWAP1 POP JUMPDEST POP SWAP1 POP PUSH1 0x1 JUMPDEST PUSH1 0x2 SLOAD PUSH2 0x14BD SWAP1 PUSH1 0x1 PUSH2 0x27DA JUMP JUMPDEST DUP2 LT ISZERO PUSH2 0x1515 JUMPI PUSH2 0x14CD DUP2 PUSH2 0x2128 JUMP JUMPDEST DUP3 PUSH2 0x14D9 PUSH1 0x1 DUP5 PUSH2 0x291C JUMP JUMPDEST DUP2 MLOAD DUP2 LT PUSH2 0x14F7 JUMPI PUSH4 0x4E487B71 PUSH1 0xE0 SHL PUSH1 0x0 MSTORE PUSH1 0x32 PUSH1 0x4 MSTORE PUSH1 0x24 PUSH1 0x0 REVERT JUMPDEST PUSH1 0x20 MUL PUSH1 0x20 ADD ADD DUP2 SWAP1 MSTORE POP DUP1 DUP1 PUSH2 0x150D SWAP1 PUSH2 0x2933 JUMP JUMPDEST SWAP2 POP POP PUSH2 0x14AF JUMP JUMPDEST POP SWAP2 SWAP1 POP JUMP JUMPDEST PUSH2 0x1523 PUSH2 0x2442 JUMP JUMPDEST PUSH1 0x1 PUSH1 0x1 PUSH1 0xA0 SHL SUB DUP3 AND PUSH1 0x0 SWAP1 DUP2 MSTORE PUSH1 0x4 PUSH1 0x20 MSTORE PUSH1 0x40 DUP2 KECCAK256 SLOAD SWAP1 PUSH2 0x1546 DUP3 PUSH2 0x2128 JUMP JUMPDEST SWAP5 SWAP4 POP POP POP POP JUMP JUMPDEST PUSH1 0x0 SLOAD PUSH1 0x1 PUSH1 0x1 PUSH1 0xA0 SHL SUB AND CALLER EQ PUSH2 0x1578 JUMPI PUSH1 0x40 MLOAD PUSH3 0x461BCD PUSH1 0xE5 SHL DUP2 MSTORE PUSH1 0x4 ADD PUSH2 0x5DC SWAP1 PUSH2 0x2753 JUMP JUMPDEST PUSH1 0x0 DUP1 SLOAD PUSH1 0x40 MLOAD PUSH1 0x1 PUSH1 0x1 PUSH1 0xA0 SHL SUB SWAP1 SWAP2 AND SWAP1 PUSH32 0x8BE0079C531659141344CD1FD0A4F28419497F9722A3DAAFE3B4186F6B6457E0 SWAP1 DUP4 SWAP1 LOG3 PUSH1 0x0 DUP1 SLOAD PUSH1 0x1 PUSH1 0x1 PUSH1 0xA0 SHL SUB NOT AND SWAP1 SSTORE JUMP JUMPDEST CALLER PUSH1 0x0 SWAP1 DUP2 MSTORE PUSH1 0x4 PUSH1 0x20 MSTORE PUSH1 0x40 SWAP1 KECCAK256 SLOAD DUP1 PUSH2 0x15EF JUMPI PUSH1 0x40 MLOAD PUSH3 0x461BCD PUSH1 0xE5 SHL DUP2 MSTORE PUSH1 0x4 ADD PUSH2 0x5DC SWAP1 PUSH2 0x2788 JUMP JUMPDEST PUSH1 0x0 DUP2 DUP2 MSTORE PUSH1 0x3 PUSH1 0x20 MSTORE PUSH1 0x40 SWAP1 KECCAK256 PUSH2 0x1606 CALLER PUSH2 0x1C18 JUMP JUMPDEST PUSH1 0x5 SLOAD PUSH1 0x6 DUP3 ADD SLOAD PUSH1 0x40 MLOAD PUSH4 0xA9059CBB PUSH1 0xE0 SHL DUP2 MSTORE CALLER PUSH1 0x4 DUP3 ADD MSTORE PUSH1 0x24 DUP2 ADD SWAP2 SWAP1 SWAP2 MSTORE PUSH1 0x1 PUSH1 0x1 PUSH1 0xA0 SHL SUB SWAP1 SWAP2 AND SWAP1 PUSH4 0xA9059CBB SWAP1 PUSH1 0x44 ADD PUSH1 0x20 PUSH1 0x40 MLOAD DUP1 DUP4 SUB DUP2 PUSH1 0x0 DUP8 DUP1 EXTCODESIZE ISZERO DUP1 ISZERO PUSH2 0x1658 JUMPI PUSH1 0x0 DUP1 REVERT JUMPDEST POP GAS CALL ISZERO DUP1 ISZERO PUSH2 0x166C JUMPI RETURNDATASIZE PUSH1 0x0 DUP1 RETURNDATACOPY RETURNDATASIZE PUSH1 0x0 REVERT JUMPDEST POP POP POP POP PUSH1 0x40 MLOAD RETURNDATASIZE PUSH1 0x1F NOT PUSH1 0x1F DUP3 ADD AND DUP3 ADD DUP1 PUSH1 0x40 MSTORE POP DUP2 ADD SWAP1 PUSH2 0x1690 SWAP2 SWAP1 PUSH2 0x2556 JUMP JUMPDEST POP PUSH1 0x0 PUSH1 0x6 SWAP1 SWAP2 ADD SSTORE POP JUMP JUMPDEST PUSH1 0x0 PUSH2 0x16A7 DUP3 PUSH2 0x1C18 JUMP JUMPDEST PUSH1 0x1 PUSH1 0x1 PUSH1 0xA0 SHL SUB DUP1 DUP4 AND PUSH1 0x0 SWAP1 DUP2 MSTORE PUSH1 0x4 PUSH1 0x20 SWAP1 DUP2 MSTORE PUSH1 0x40 DUP1 DUP4 KECCAK256 SLOAD DUP4 MSTORE PUSH1 0x3 DUP1 DUP4 MSTORE DUP2 DUP5 KECCAK256 PUSH1 0x6 SLOAD SWAP1 SWAP6 AND DUP1 DUP6 MSTORE SWAP1 DUP6 ADD DUP4 MSTORE DUP2 DUP5 KECCAK256 SLOAD PUSH1 0x5 DUP7 ADD SWAP1 SWAP4 MSTORE SWAP1 DUP4 KECCAK256 SLOAD PUSH2 0x16F8 SWAP3 PUSH2 0x13B SWAP2 PUSH2 0x27DA JUMP JUMPDEST PUSH1 0x7 SLOAD PUSH1 0x1 PUSH1 0x1 PUSH1 0xA0 SHL SUB AND PUSH1 0x0 DUP2 DUP2 MSTORE PUSH1 0x3 DUP6 ADD PUSH1 0x20 SWAP1 DUP2 MSTORE PUSH1 0x40 DUP1 DUP4 KECCAK256 SLOAD PUSH1 0x5 DUP9 ADD SWAP1 SWAP3 MSTORE DUP3 KECCAK256 SLOAD SWAP4 SWAP5 POP SWAP1 SWAP3 PUSH2 0x1735 SWAP3 SWAP2 PUSH2 0x13B SWAP2 PUSH2 0x27DA JUMP JUMPDEST SWAP1 POP PUSH2 0x1741 DUP2 DUP4 PUSH2 0x27DA JUMP JUMPDEST SWAP6 SWAP5 POP POP POP POP POP JUMP JUMPDEST PUSH1 0x0 PUSH2 0x1755 DUP3 PUSH2 0x1C18 JUMP JUMPDEST PUSH1 0x1 PUSH1 0x1 PUSH1 0xA0 SHL SUB DUP1 DUP4 AND PUSH1 0x0 SWAP1 DUP2 MSTORE PUSH1 0x4 PUSH1 0x20 DUP2 DUP2 MSTORE PUSH1 0x40 DUP1 DUP5 KECCAK256 SLOAD DUP5 MSTORE PUSH1 0x3 DUP3 MSTORE DUP1 DUP5 KECCAK256 PUSH1 0x6 SLOAD SWAP1 SWAP6 AND DUP1 DUP6 MSTORE PUSH1 0x2 DUP7 ADD DUP4 MSTORE DUP2 DUP6 KECCAK256 SLOAD SWAP4 DUP7 ADD SWAP1 SWAP3 MSTORE DUP4 KECCAK256 SLOAD PUSH2 0x17A4 SWAP3 PUSH2 0x13B SWAP2 PUSH2 0x27DA JUMP JUMPDEST PUSH1 0x7 SLOAD PUSH1 0x1 PUSH1 0x1 PUSH1 0xA0 SHL SUB AND PUSH1 0x0 DUP2 DUP2 MSTORE PUSH1 0x2 DUP6 ADD PUSH1 0x20 SWAP1 DUP2 MSTORE PUSH1 0x40 DUP1 DUP4 KECCAK256 SLOAD PUSH1 0x4 DUP9 ADD SWAP1 SWAP3 MSTORE DUP3 KECCAK256 SLOAD SWAP4 SWAP5 POP SWAP1 SWAP3 PUSH2 0x1735 SWAP3 SWAP2 PUSH2 0x13B SWAP2 PUSH2 0x27DA JUMP JUMPDEST PUSH1 0x0 SLOAD PUSH1 0x1 PUSH1 0x1 PUSH1 0xA0 SHL SUB AND CALLER EQ PUSH2 0x180B JUMPI PUSH1 0x40 MLOAD PUSH3 0x461BCD PUSH1 0xE5 SHL DUP2 MSTORE PUSH1 0x4 ADD PUSH2 0x5DC SWAP1 PUSH2 0x2753 JUMP JUMPDEST PUSH2 0x1814 DUP2 PUSH2 0x2361 JUMP JUMPDEST POP JUMP JUMPDEST PUSH1 0x0 DUP2 GT PUSH2 0x185A JUMPI PUSH1 0x40 MLOAD PUSH3 0x461BCD PUSH1 0xE5 SHL DUP2 MSTORE PUSH1 0x20 PUSH1 0x4 DUP3 ADD MSTORE PUSH1 0x10 PUSH1 0x24 DUP3 ADD MSTORE PUSH16 0x63616E2774207769746864726177203 PUSH1 0x84 SHL PUSH1 0x44 DUP3 ADD MSTORE PUSH1 0x64 ADD PUSH2 0x5DC JUMP JUMPDEST CALLER PUSH1 0x0 SWAP1 DUP2 MSTORE PUSH1 0x4 PUSH1 0x20 MSTORE PUSH1 0x40 SWAP1 KECCAK256 SLOAD DUP1 PUSH2 0x1887 JUMPI PUSH1 0x40 MLOAD PUSH3 0x461BCD PUSH1 0xE5 SHL DUP2 MSTORE PUSH1 0x4 ADD PUSH2 0x5DC SWAP1 PUSH2 0x2788 JUMP JUMPDEST PUSH1 0x0 DUP2 DUP2 MSTORE PUSH1 0x3 PUSH1 0x20 MSTORE PUSH1 0x40 SWAP1 KECCAK256 PUSH2 0x189E CALLER PUSH2 0x1C18 JUMP JUMPDEST PUSH1 0x0 PUSH2 0x18A9 CALLER PUSH2 0x174A JUMP JUMPDEST SWAP1 POP PUSH1 0x0 PUSH2 0x18B6 CALLER PUSH2 0x169C JUMP JUMPDEST SWAP1 POP PUSH2 0x18C2 DUP7 DUP7 PUSH2 0x3B4 JUMP JUMPDEST PUSH2 0x18CC SWAP1 DUP3 PUSH2 0x27DA JUMP JUMPDEST PUSH1 0x1 PUSH1 0x1 PUSH1 0xA0 SHL SUB DUP8 AND PUSH1 0x0 SWAP1 DUP2 MSTORE PUSH1 0x1 PUSH1 0x20 MSTORE PUSH1 0x40 SWAP1 KECCAK256 SLOAD PUSH1 0x64 SWAP1 PUSH2 0x18F2 SWAP1 DUP6 PUSH2 0x28FD JUMP JUMPDEST PUSH2 0x18FC SWAP2 SWAP1 PUSH2 0x27F2 JUMP JUMPDEST GT PUSH2 0x1960 JUMPI PUSH1 0x40 MLOAD PUSH3 0x461BCD PUSH1 0xE5 SHL DUP2 MSTORE PUSH1 0x20 PUSH1 0x4 DUP3 ADD MSTORE PUSH1 0x2E PUSH1 0x24 DUP3 ADD MSTORE PUSH32 0x5769746864726177206661696C65642E596F7520646F6E6F7420686176652061 PUSH1 0x44 DUP3 ADD MSTORE PUSH14 0x373C9031B7B63630BA32B930B617 PUSH1 0x91 SHL PUSH1 0x64 DUP3 ADD MSTORE PUSH1 0x84 ADD PUSH2 0x5DC JUMP JUMPDEST PUSH1 0x1 PUSH1 0x1 PUSH1 0xA0 SHL SUB DUP7 AND PUSH1 0x0 SWAP1 DUP2 MSTORE PUSH1 0x4 DUP5 ADD PUSH1 0x20 SWAP1 DUP2 MSTORE PUSH1 0x40 DUP1 DUP4 KECCAK256 DUP4 SWAP1 SSTORE PUSH1 0x2 DUP7 ADD SWAP1 SWAP2 MSTORE DUP2 KECCAK256 DUP1 SLOAD DUP8 SWAP3 SWAP1 PUSH2 0x1999 SWAP1 DUP5 SWAP1 PUSH2 0x291C JUMP JUMPDEST SWAP1 SWAP2 SSTORE POP POP PUSH1 0x6 SLOAD PUSH1 0x1 PUSH1 0x1 PUSH1 0xA0 SHL SUB DUP8 DUP2 AND SWAP2 AND EQ ISZERO PUSH2 0x1A74 JUMPI PUSH1 0x1 PUSH1 0x1 PUSH1 0xA0 SHL SUB DUP7 AND PUSH1 0x0 SWAP1 DUP2 MSTORE PUSH1 0x4 DUP5 ADD PUSH1 0x20 MSTORE PUSH1 0x40 DUP2 KECCAK256 SLOAD CALLER SWAP1 PUSH2 0x19DC SWAP1 DUP9 SWAP1 PUSH2 0x27DA JUMP JUMPDEST PUSH1 0x40 MLOAD PUSH1 0x0 DUP2 DUP2 DUP2 DUP6 DUP8 GAS CALL SWAP3 POP POP POP RETURNDATASIZE DUP1 PUSH1 0x0 DUP2 EQ PUSH2 0x1A18 JUMPI PUSH1 0x40 MLOAD SWAP2 POP PUSH1 0x1F NOT PUSH1 0x3F RETURNDATASIZE ADD AND DUP3 ADD PUSH1 0x40 MSTORE RETURNDATASIZE DUP3 MSTORE RETURNDATASIZE PUSH1 0x0 PUSH1 0x20 DUP5 ADD RETURNDATACOPY PUSH2 0x1A1D JUMP JUMPDEST PUSH1 0x60 SWAP2 POP JUMPDEST POP POP SWAP1 POP DUP1 PUSH2 0x1A6E JUMPI PUSH1 0x40 MLOAD PUSH3 0x461BCD PUSH1 0xE5 SHL DUP2 MSTORE PUSH1 0x20 PUSH1 0x4 DUP3 ADD MSTORE PUSH1 0x1C PUSH1 0x24 DUP3 ADD MSTORE PUSH32 0x6661696C656420746F2073656E642065746820696E7465726573742E00000000 PUSH1 0x44 DUP3 ADD MSTORE PUSH1 0x64 ADD PUSH2 0x5DC JUMP JUMPDEST POP PUSH2 0x1B29 JUMP JUMPDEST PUSH1 0x7 SLOAD PUSH1 0x1 PUSH1 0x1 PUSH1 0xA0 SHL SUB DUP8 DUP2 AND PUSH1 0x0 SWAP1 DUP2 MSTORE PUSH1 0x4 DUP7 ADD PUSH1 0x20 MSTORE PUSH1 0x40 SWAP1 KECCAK256 SLOAD SWAP2 AND SWAP1 PUSH4 0xA9059CBB SWAP1 CALLER SWAP1 PUSH2 0x1AA9 SWAP1 DUP10 SWAP1 PUSH2 0x27DA JUMP JUMPDEST PUSH1 0x40 MLOAD PUSH1 0x1 PUSH1 0x1 PUSH1 0xE0 SHL SUB NOT PUSH1 0xE0 DUP6 SWAP1 SHL AND DUP2 MSTORE PUSH1 0x1 PUSH1 0x1 PUSH1 0xA0 SHL SUB SWAP1 SWAP3 AND PUSH1 0x4 DUP4 ADD MSTORE PUSH1 0x24 DUP3 ADD MSTORE PUSH1 0x44 ADD PUSH1 0x20 PUSH1 0x40 MLOAD DUP1 DUP4 SUB DUP2 PUSH1 0x0 DUP8 DUP1 EXTCODESIZE ISZERO DUP1 ISZERO PUSH2 0x1AEF JUMPI PUSH1 0x0 DUP1 REVERT JUMPDEST POP GAS CALL ISZERO DUP1 ISZERO PUSH2 0x1B03 JUMPI RETURNDATASIZE PUSH1 0x0 DUP1 RETURNDATACOPY RETURNDATASIZE PUSH1 0x0 REVERT JUMPDEST POP POP POP POP PUSH1 0x40 MLOAD RETURNDATASIZE PUSH1 0x1F NOT PUSH1 0x1F DUP3 ADD AND DUP3 ADD DUP1 PUSH1 0x40 MSTORE POP DUP2 ADD SWAP1 PUSH2 0x1B27 SWAP2 SWAP1 PUSH2 0x2556 JUMP JUMPDEST POP JUMPDEST POP POP POP POP POP POP JUMP JUMPDEST PUSH1 0x0 SLOAD PUSH1 0x1 PUSH1 0x1 PUSH1 0xA0 SHL SUB AND CALLER EQ PUSH2 0x1B5B JUMPI PUSH1 0x40 MLOAD PUSH3 0x461BCD PUSH1 0xE5 SHL DUP2 MSTORE PUSH1 0x4 ADD PUSH2 0x5DC SWAP1 PUSH2 0x2753 JUMP JUMPDEST PUSH1 0x0 DUP1 SLOAD PUSH1 0x40 MLOAD PUSH1 0x1 PUSH1 0x1 PUSH1 0xA0 SHL SUB SWAP1 SWAP2 AND SWAP1 DUP4 SWAP1 DUP4 DUP2 DUP2 DUP2 DUP6 DUP8 GAS CALL SWAP3 POP POP POP RETURNDATASIZE DUP1 PUSH1 0x0 DUP2 EQ PUSH2 0x1BA8 JUMPI PUSH1 0x40 MLOAD SWAP2 POP PUSH1 0x1F NOT PUSH1 0x3F RETURNDATASIZE ADD AND DUP3 ADD PUSH1 0x40 MSTORE RETURNDATASIZE DUP3 MSTORE RETURNDATASIZE PUSH1 0x0 PUSH1 0x20 DUP5 ADD RETURNDATACOPY PUSH2 0x1BAD JUMP JUMPDEST PUSH1 0x60 SWAP2 POP JUMPDEST POP POP SWAP1 POP DUP1 PUSH2 0x1BF5 JUMPI PUSH1 0x40 MLOAD PUSH3 0x461BCD PUSH1 0xE5 SHL DUP2 MSTORE PUSH1 0x20 PUSH1 0x4 DUP3 ADD MSTORE PUSH1 0x14 PUSH1 0x24 DUP3 ADD MSTORE PUSH20 0x2330B4B632B2103A379039B2B7321022BA3432B9 PUSH1 0x61 SHL PUSH1 0x44 DUP3 ADD MSTORE PUSH1 0x64 ADD PUSH2 0x5DC JUMP JUMPDEST POP POP JUMP JUMPDEST PUSH1 0x0 PUSH2 0x1C05 DUP3 DUP5 PUSH2 0x27F2 JUMP JUMPDEST SWAP4 SWAP3 POP POP POP JUMP JUMPDEST PUSH1 0x0 PUSH2 0x1C05 DUP3 DUP5 PUSH2 0x28FD JUMP JUMPDEST PUSH1 0x1 PUSH1 0x1 PUSH1 0xA0 SHL SUB DUP2 AND PUSH1 0x0 SWAP1 DUP2 MSTORE PUSH1 0x4 PUSH1 0x20 MSTORE PUSH1 0x40 SWAP1 KECCAK256 SLOAD PUSH2 0x1C7D JUMPI PUSH1 0x40 MLOAD PUSH3 0x461BCD PUSH1 0xE5 SHL DUP2 MSTORE PUSH1 0x20 PUSH1 0x4 DUP3 ADD MSTORE PUSH1 0x1A PUSH1 0x24 DUP3 ADD MSTORE PUSH32 0x557365722073686F756C64206465706F736974206265666F7265000000000000 PUSH1 0x44 DUP3 ADD MSTORE PUSH1 0x64 ADD PUSH2 0x5DC JUMP JUMPDEST PUSH1 0x1 PUSH1 0x1 PUSH1 0xA0 SHL SUB DUP2 AND PUSH1 0x0 SWAP1 DUP2 MSTORE PUSH1 0x4 PUSH1 0x20 SWAP1 DUP2 MSTORE PUSH1 0x40 DUP1 DUP4 KECCAK256 SLOAD DUP4 MSTORE PUSH1 0x3 SWAP1 SWAP2 MSTORE DUP2 KECCAK256 PUSH1 0x1 DUP2 ADD SLOAD SWAP1 SWAP2 PUSH2 0x1CB3 DUP3 TIMESTAMP PUSH2 0x291C JUMP JUMPDEST PUSH1 0x6 SLOAD PUSH1 0xA SLOAD PUSH1 0x1 PUSH1 0x1 PUSH1 0xA0 SHL SUB SWAP1 SWAP2 AND PUSH1 0x0 DUP2 DUP2 MSTORE PUSH1 0x1 PUSH1 0x20 DUP2 DUP2 MSTORE PUSH1 0x40 DUP1 DUP5 KECCAK256 SWAP1 SWAP3 ADD SLOAD PUSH1 0x2 DUP11 ADD SWAP1 SWAP2 MSTORE SWAP2 KECCAK256 SLOAD SWAP4 SWAP5 POP PUSH2 0x1D0C SWAP4 SWAP2 SWAP3 SWAP2 DUP6 SWAP2 PUSH2 0x1CF8 SWAP2 PUSH2 0x28FD JUMP JUMPDEST PUSH2 0x1D02 SWAP2 SWAP1 PUSH2 0x28FD JUMP JUMPDEST PUSH2 0x13B SWAP2 SWAP1 PUSH2 0x27F2 JUMP JUMPDEST DUP4 PUSH1 0x6 ADD PUSH1 0x0 DUP3 DUP3 SLOAD PUSH2 0x1D1F SWAP2 SWAP1 PUSH2 0x27DA JUMP JUMPDEST SWAP1 SWAP2 SSTORE POP POP PUSH1 0xA SLOAD PUSH1 0x6 SLOAD PUSH1 0x1 PUSH1 0x1 PUSH1 0xA0 SHL SUB AND PUSH1 0x0 SWAP1 DUP2 MSTORE PUSH1 0x1 PUSH1 0x20 DUP2 DUP2 MSTORE PUSH1 0x40 DUP1 DUP5 KECCAK256 SWAP1 SWAP3 ADD SLOAD PUSH1 0x2 DUP9 ADD SWAP1 SWAP2 MSTORE SWAP2 KECCAK256 SLOAD DUP4 SWAP2 PUSH2 0x1D5D SWAP2 PUSH2 0x28FD JUMP JUMPDEST PUSH2 0x1D67 SWAP2 SWAP1 PUSH2 0x28FD JUMP JUMPDEST PUSH2 0x1D71 SWAP2 SWAP1 PUSH2 0x27F2 JUMP JUMPDEST PUSH1 0x6 SLOAD PUSH1 0x1 PUSH1 0x1 PUSH1 0xA0 SHL SUB AND PUSH1 0x0 SWAP1 DUP2 MSTORE PUSH1 0x4 DUP6 ADD PUSH1 0x20 MSTORE PUSH1 0x40 DUP2 KECCAK256 DUP1 SLOAD SWAP1 SWAP2 SWAP1 PUSH2 0x1D9D SWAP1 DUP5 SWAP1 PUSH2 0x27DA JUMP JUMPDEST SWAP1 SWAP2 SSTORE POP POP PUSH1 0xA SLOAD PUSH1 0x6 SLOAD PUSH1 0x1 PUSH1 0x1 PUSH1 0xA0 SHL SUB AND PUSH1 0x0 SWAP1 DUP2 MSTORE PUSH1 0x1 PUSH1 0x20 SWAP1 DUP2 MSTORE PUSH1 0x40 DUP1 DUP4 KECCAK256 PUSH1 0x2 ADD SLOAD PUSH1 0x3 DUP9 ADD SWAP1 SWAP3 MSTORE SWAP1 SWAP2 KECCAK256 SLOAD DUP4 SWAP2 PUSH2 0x1DDC SWAP2 PUSH2 0x28FD JUMP JUMPDEST PUSH2 0x1DE6 SWAP2 SWAP1 PUSH2 0x28FD JUMP JUMPDEST PUSH2 0x1DF0 SWAP2 SWAP1 PUSH2 0x27F2 JUMP JUMPDEST PUSH1 0x6 SLOAD PUSH1 0x1 PUSH1 0x1 PUSH1 0xA0 SHL SUB AND PUSH1 0x0 SWAP1 DUP2 MSTORE PUSH1 0x5 DUP6 ADD PUSH1 0x20 MSTORE PUSH1 0x40 DUP2 KECCAK256 DUP1 SLOAD SWAP1 SWAP2 SWAP1 PUSH2 0x1E1C SWAP1 DUP5 SWAP1 PUSH2 0x27DA JUMP JUMPDEST SWAP1 SWAP2 SSTORE POP POP PUSH1 0x7 SLOAD PUSH1 0xA SLOAD PUSH1 0x1 PUSH1 0x1 PUSH1 0xA0 SHL SUB SWAP1 SWAP2 AND PUSH1 0x0 DUP2 DUP2 MSTORE PUSH1 0x1 PUSH1 0x20 DUP2 DUP2 MSTORE PUSH1 0x40 DUP1 DUP5 KECCAK256 SWAP1 SWAP3 ADD SLOAD PUSH1 0x2 DUP10 ADD SWAP1 SWAP2 MSTORE SWAP2 KECCAK256 SLOAD PUSH2 0x1E62 SWAP4 SWAP2 DUP6 SWAP2 PUSH2 0x1CF8 SWAP2 SWAP1 PUSH2 0x28FD JUMP JUMPDEST DUP4 PUSH1 0x6 ADD PUSH1 0x0 DUP3 DUP3 SLOAD PUSH2 0x1E75 SWAP2 SWAP1 PUSH2 0x27DA JUMP JUMPDEST SWAP1 SWAP2 SSTORE POP POP PUSH1 0xA SLOAD PUSH1 0x7 SLOAD PUSH1 0x1 PUSH1 0x1 PUSH1 0xA0 SHL SUB AND PUSH1 0x0 SWAP1 DUP2 MSTORE PUSH1 0x1 PUSH1 0x20 DUP2 DUP2 MSTORE PUSH1 0x40 DUP1 DUP5 KECCAK256 SWAP1 SWAP3 ADD SLOAD PUSH1 0x2 DUP9 ADD SWAP1 SWAP2 MSTORE SWAP2 KECCAK256 SLOAD DUP4 SWAP2 PUSH2 0x1EB3 SWAP2 PUSH2 0x28FD JUMP JUMPDEST PUSH2 0x1EBD SWAP2 SWAP1 PUSH2 0x28FD JUMP JUMPDEST PUSH2 0x1EC7 SWAP2 SWAP1 PUSH2 0x27F2 JUMP JUMPDEST PUSH1 0x7 SLOAD PUSH1 0x1 PUSH1 0x1 PUSH1 0xA0 SHL SUB AND PUSH1 0x0 SWAP1 DUP2 MSTORE PUSH1 0x4 DUP6 ADD PUSH1 0x20 MSTORE PUSH1 0x40 DUP2 KECCAK256 DUP1 SLOAD SWAP1 SWAP2 SWAP1 PUSH2 0x1EF3 SWAP1 DUP5 SWAP1 PUSH2 0x27DA JUMP JUMPDEST SWAP1 SWAP2 SSTORE POP POP PUSH1 0xA SLOAD PUSH1 0x7 SLOAD PUSH1 0x1 PUSH1 0x1 PUSH1 0xA0 SHL SUB AND PUSH1 0x0 SWAP1 DUP2 MSTORE PUSH1 0x1 PUSH1 0x20 SWAP1 DUP2 MSTORE PUSH1 0x40 DUP1 DUP4 KECCAK256 PUSH1 0x2 ADD SLOAD PUSH1 0x3 DUP9 ADD SWAP1 SWAP3 MSTORE SWAP1 SWAP2 KECCAK256 SLOAD DUP4 SWAP2 PUSH2 0x1F32 SWAP2 PUSH2 0x28FD JUMP JUMPDEST PUSH2 0x1F3C SWAP2 SWAP1 PUSH2 0x28FD JUMP JUMPDEST PUSH2 0x1F46 SWAP2 SWAP1 PUSH2 0x27F2 JUMP JUMPDEST PUSH1 0x7 SLOAD PUSH1 0x1 PUSH1 0x1 PUSH1 0xA0 SHL SUB AND PUSH1 0x0 SWAP1 DUP2 MSTORE PUSH1 0x5 DUP6 ADD PUSH1 0x20 MSTORE PUSH1 0x40 DUP2 KECCAK256 DUP1 SLOAD SWAP1 SWAP2 SWAP1 PUSH2 0x1F72 SWAP1 DUP5 SWAP1 PUSH2 0x27DA JUMP JUMPDEST SWAP1 SWAP2 SSTORE POP POP TIMESTAMP PUSH1 0x1 SWAP1 SWAP4 ADD SWAP3 SWAP1 SWAP3 SSTORE POP POP POP JUMP JUMPDEST PUSH2 0x942 DUP5 DUP5 DUP5 DUP5 PUSH1 0x40 MLOAD PUSH1 0x24 ADD PUSH2 0x1FA0 SWAP5 SWAP4 SWAP3 SWAP2 SWAP1 PUSH2 0x2724 JUMP JUMPDEST PUSH1 0x40 DUP1 MLOAD PUSH1 0x1F NOT DUP2 DUP5 SUB ADD DUP2 MSTORE SWAP2 SWAP1 MSTORE PUSH1 0x20 DUP2 ADD DUP1 MLOAD PUSH1 0x1 PUSH1 0x1 PUSH1 0xE0 SHL SUB AND PUSH4 0xA7A87853 PUSH1 0xE0 SHL OR SWAP1 MSTORE PUSH2 0x2421 JUMP JUMPDEST PUSH1 0x1 PUSH1 0x1 PUSH1 0xA0 SHL SUB DUP2 AND PUSH1 0x0 SWAP1 DUP2 MSTORE PUSH1 0x4 PUSH1 0x20 MSTORE PUSH1 0x40 SWAP1 KECCAK256 SLOAD PUSH2 0x2034 JUMPI PUSH1 0x40 MLOAD PUSH3 0x461BCD PUSH1 0xE5 SHL DUP2 MSTORE PUSH1 0x20 PUSH1 0x4 DUP3 ADD MSTORE PUSH1 0x1A PUSH1 0x24 DUP3 ADD MSTORE PUSH32 0x557365722073686F756C64206465706F736974206265666F7265000000000000 PUSH1 0x44 DUP3 ADD MSTORE PUSH1 0x64 ADD PUSH2 0x5DC JUMP JUMPDEST PUSH1 0x1 PUSH1 0x1 PUSH1 0xA0 SHL SUB SWAP1 DUP2 AND PUSH1 0x0 SWAP1 DUP2 MSTORE PUSH1 0x4 PUSH1 0x20 DUP2 DUP2 MSTORE PUSH1 0x40 DUP1 DUP5 KECCAK256 SLOAD DUP5 MSTORE PUSH1 0x3 DUP1 DUP4 MSTORE DUP2 DUP6 KECCAK256 PUSH1 0x6 DUP1 SLOAD DUP9 AND DUP8 MSTORE PUSH1 0x2 DUP3 ADD DUP1 DUP7 MSTORE DUP5 DUP9 KECCAK256 DUP9 SWAP1 SSTORE DUP2 SLOAD DUP10 AND DUP9 MSTORE SWAP3 DUP3 ADD DUP1 DUP7 MSTORE DUP5 DUP9 KECCAK256 DUP9 SWAP1 SSTORE DUP2 SLOAD DUP10 AND DUP9 MSTORE SWAP6 DUP3 ADD DUP1 DUP7 MSTORE DUP5 DUP9 KECCAK256 DUP9 SWAP1 SSTORE SWAP1 SLOAD DUP9 AND DUP8 MSTORE PUSH1 0x5 SWAP1 SWAP2 ADD DUP1 DUP6 MSTORE DUP4 DUP8 KECCAK256 DUP8 SWAP1 SSTORE PUSH1 0x7 DUP1 SLOAD DUP10 AND DUP9 MSTORE SWAP3 DUP6 MSTORE DUP4 DUP8 KECCAK256 DUP8 SWAP1 SSTORE DUP3 SLOAD DUP9 AND DUP8 MSTORE SWAP5 DUP5 MSTORE DUP3 DUP7 KECCAK256 DUP7 SWAP1 SSTORE DUP2 SLOAD DUP8 AND DUP7 MSTORE DUP4 MSTORE DUP2 DUP6 KECCAK256 DUP6 SWAP1 SSTORE SLOAD SWAP1 SWAP5 AND DUP4 MSTORE MSTORE SWAP1 DUP2 KECCAK256 SSTORE JUMP JUMPDEST PUSH2 0x1BF5 DUP3 DUP3 PUSH1 0x40 MLOAD PUSH1 0x24 ADD PUSH2 0x20F9 SWAP3 SWAP2 SWAP1 PUSH2 0x2702 JUMP JUMPDEST PUSH1 0x40 DUP1 MLOAD PUSH1 0x1F NOT DUP2 DUP5 SUB ADD DUP2 MSTORE SWAP2 SWAP1 MSTORE PUSH1 0x20 DUP2 ADD DUP1 MLOAD PUSH1 0x1 PUSH1 0x1 PUSH1 0xE0 SHL SUB AND PUSH4 0x2D839CB3 PUSH1 0xE2 SHL OR SWAP1 MSTORE PUSH2 0x2421 JUMP JUMPDEST PUSH2 0x2130 PUSH2 0x2442 JUMP JUMPDEST DUP2 ISZERO PUSH2 0x22E1 JUMPI PUSH1 0x0 DUP3 DUP2 MSTORE PUSH1 0x3 PUSH1 0x20 DUP2 DUP2 MSTORE PUSH1 0x40 DUP1 DUP5 KECCAK256 DUP2 MLOAD PUSH2 0x1C0 DUP2 ADD DUP4 MSTORE PUSH1 0x6 DUP1 SLOAD PUSH1 0x1 PUSH1 0x1 PUSH1 0xA0 SHL SUB SWAP1 DUP2 AND DUP1 DUP10 MSTORE PUSH1 0x2 DUP6 ADD DUP1 DUP9 MSTORE DUP7 DUP11 KECCAK256 SLOAD DUP1 DUP7 MSTORE PUSH1 0x7 SLOAD SWAP1 SWAP4 AND DUP1 DUP12 MSTORE DUP2 DUP10 MSTORE DUP8 DUP12 KECCAK256 SLOAD DUP7 DUP11 ADD MSTORE DUP3 DUP12 MSTORE SWAP9 DUP7 ADD DUP1 DUP10 MSTORE DUP8 DUP12 KECCAK256 SLOAD DUP7 DUP10 ADD MSTORE DUP10 DUP12 MSTORE DUP9 MSTORE DUP7 DUP11 KECCAK256 SLOAD PUSH1 0x60 DUP7 ADD MSTORE DUP2 DUP11 MSTORE PUSH1 0x5 DUP7 ADD DUP1 DUP10 MSTORE DUP8 DUP12 KECCAK256 SLOAD PUSH1 0x80 DUP8 ADD MSTORE DUP10 DUP12 MSTORE DUP9 MSTORE DUP7 DUP11 KECCAK256 SLOAD PUSH1 0xA0 DUP7 ADD MSTORE DUP2 DUP11 MSTORE PUSH1 0x4 DUP7 ADD DUP1 DUP10 MSTORE DUP8 DUP12 KECCAK256 SLOAD PUSH1 0xC0 DUP8 ADD DUP2 SWAP1 MSTORE SWAP10 DUP12 MSTORE DUP9 MSTORE SWAP6 DUP10 KECCAK256 SLOAD PUSH1 0xE0 DUP6 ADD MSTORE SWAP2 DUP5 ADD SLOAD PUSH2 0x100 DUP5 ADD MSTORE DUP2 DUP9 MSTORE SWAP4 SWAP1 SWAP5 MSTORE SWAP1 SWAP5 SWAP4 SWAP1 SWAP3 PUSH2 0x120 DUP5 ADD SWAP3 PUSH2 0x2210 SWAP3 PUSH2 0x13B SWAP2 PUSH2 0x27DA JUMP JUMPDEST DUP2 MSTORE PUSH1 0x7 SLOAD PUSH1 0x1 PUSH1 0x1 PUSH1 0xA0 SHL SUB AND PUSH1 0x0 DUP2 DUP2 MSTORE PUSH1 0x4 DUP7 ADD PUSH1 0x20 SWAP1 DUP2 MSTORE PUSH1 0x40 DUP1 DUP4 KECCAK256 SLOAD PUSH1 0x2 DUP10 ADD DUP4 MSTORE SWAP3 KECCAK256 SLOAD SWAP4 ADD SWAP3 PUSH2 0x224C SWAP3 SWAP2 PUSH2 0x13B SWAP2 PUSH2 0x27DA JUMP JUMPDEST DUP2 MSTORE PUSH1 0x6 SLOAD PUSH1 0x1 PUSH1 0x1 PUSH1 0xA0 SHL SUB AND PUSH1 0x0 DUP2 DUP2 MSTORE PUSH1 0x5 DUP7 ADD PUSH1 0x20 SWAP1 DUP2 MSTORE PUSH1 0x40 DUP1 DUP4 KECCAK256 SLOAD PUSH1 0x3 DUP10 ADD DUP4 MSTORE SWAP3 KECCAK256 SLOAD SWAP4 ADD SWAP3 PUSH2 0x2288 SWAP3 SWAP2 PUSH2 0x13B SWAP2 PUSH2 0x27DA JUMP JUMPDEST DUP2 MSTORE PUSH1 0x7 SLOAD PUSH1 0x1 PUSH1 0x1 PUSH1 0xA0 SHL SUB AND PUSH1 0x0 DUP2 DUP2 MSTORE PUSH1 0x5 DUP7 ADD PUSH1 0x20 SWAP1 DUP2 MSTORE PUSH1 0x40 DUP1 DUP4 KECCAK256 SLOAD PUSH1 0x3 DUP10 ADD DUP4 MSTORE SWAP3 KECCAK256 SLOAD SWAP4 ADD SWAP3 PUSH2 0x22C4 SWAP3 SWAP2 PUSH2 0x13B SWAP2 PUSH2 0x27DA JUMP JUMPDEST DUP2 MSTORE SWAP3 SLOAD PUSH1 0x1 PUSH1 0x1 PUSH1 0xA0 SHL SUB AND PUSH1 0x20 SWAP1 SWAP4 ADD SWAP3 SWAP1 SWAP3 MSTORE POP SWAP3 SWAP2 POP POP JUMP JUMPDEST PUSH1 0x40 MLOAD DUP1 PUSH2 0x1C0 ADD PUSH1 0x40 MSTORE DUP1 PUSH1 0x0 DUP2 MSTORE PUSH1 0x20 ADD PUSH1 0x0 DUP2 MSTORE PUSH1 0x20 ADD PUSH1 0x0 DUP2 MSTORE PUSH1 0x20 ADD PUSH1 0x0 DUP2 MSTORE PUSH1 0x20 ADD PUSH1 0x0 DUP2 MSTORE PUSH1 0x20 ADD PUSH1 0x0 DUP2 MSTORE PUSH1 0x20 ADD PUSH1 0x0 DUP2 MSTORE PUSH1 0x20 ADD PUSH1 0x0 DUP2 MSTORE PUSH1 0x20 ADD PUSH1 0x0 DUP2 MSTORE PUSH1 0x20 ADD PUSH1 0x0 DUP2 MSTORE PUSH1 0x20 ADD PUSH1 0x0 DUP2 MSTORE PUSH1 0x20 ADD PUSH1 0x0 DUP2 MSTORE PUSH1 0x20 ADD PUSH1 0x0 DUP2 MSTORE PUSH1 0x20 ADD CALLER PUSH1 0x1 PUSH1 0x1 PUSH1 0xA0 SHL SUB AND DUP2 MSTORE POP SWAP1 POP SWAP2 SWAP1 POP JUMP JUMPDEST SWAP2 SWAP1 POP JUMP JUMPDEST PUSH1 0x1 PUSH1 0x1 PUSH1 0xA0 SHL SUB DUP2 AND PUSH2 0x23C6 JUMPI PUSH1 0x40 MLOAD PUSH3 0x461BCD PUSH1 0xE5 SHL DUP2 MSTORE PUSH1 0x20 PUSH1 0x4 DUP3 ADD MSTORE PUSH1 0x26 PUSH1 0x24 DUP3 ADD MSTORE PUSH32 0x4F776E61626C653A206E6577206F776E657220697320746865207A65726F2061 PUSH1 0x44 DUP3 ADD MSTORE PUSH6 0x646472657373 PUSH1 0xD0 SHL PUSH1 0x64 DUP3 ADD MSTORE PUSH1 0x84 ADD PUSH2 0x5DC JUMP JUMPDEST PUSH1 0x0 DUP1 SLOAD PUSH1 0x40 MLOAD PUSH1 0x1 PUSH1 0x1 PUSH1 0xA0 SHL SUB DUP1 DUP6 AND SWAP4 SWAP3 AND SWAP2 PUSH32 0x8BE0079C531659141344CD1FD0A4F28419497F9722A3DAAFE3B4186F6B6457E0 SWAP2 LOG3 PUSH1 0x0 DUP1 SLOAD PUSH1 0x1 PUSH1 0x1 PUSH1 0xA0 SHL SUB NOT AND PUSH1 0x1 PUSH1 0x1 PUSH1 0xA0 SHL SUB SWAP3 SWAP1 SWAP3 AND SWAP2 SWAP1 SWAP2 OR SWAP1 SSTORE JUMP JUMPDEST PUSH1 0x0 PUSH11 0x636F6E736F6C652E6C6F67 SWAP1 POP PUSH1 0x0 DUP1 DUP4 MLOAD PUSH1 0x20 DUP6 ADD DUP5 GAS STATICCALL POP POP POP JUMP JUMPDEST PUSH1 0x40 MLOAD DUP1 PUSH2 0x1C0 ADD PUSH1 0x40 MSTORE DUP1 PUSH1 0x0 DUP2 MSTORE PUSH1 0x20 ADD PUSH1 0x0 DUP2 MSTORE PUSH1 0x20 ADD PUSH1 0x0 DUP2 MSTORE PUSH1 0x20 ADD PUSH1 0x0 DUP2 MSTORE PUSH1 0x20 ADD PUSH1 0x0 DUP2 MSTORE PUSH1 0x20 ADD PUSH1 0x0 DUP2 MSTORE PUSH1 0x20 ADD PUSH1 0x0 DUP2 MSTORE PUSH1 0x20 ADD PUSH1 0x0 DUP2 MSTORE PUSH1 0x20 ADD PUSH1 0x0 DUP2 MSTORE PUSH1 0x20 ADD PUSH1 0x0 DUP2 MSTORE PUSH1 0x20 ADD PUSH1 0x0 DUP2 MSTORE PUSH1 0x20 ADD PUSH1 0x0 DUP2 MSTORE PUSH1 0x20 ADD PUSH1 0x0 DUP2 MSTORE PUSH1 0x20 ADD PUSH1 0x0 PUSH1 0x1 PUSH1 0x1 PUSH1 0xA0 SHL SUB AND DUP2 MSTORE POP SWAP1 JUMP JUMPDEST DUP1 CALLDATALOAD PUSH1 0x1 PUSH1 0x1 PUSH1 0xA0 SHL SUB DUP2 AND DUP2 EQ PUSH2 0x235C JUMPI PUSH1 0x0 DUP1 REVERT JUMPDEST PUSH1 0x0 PUSH1 0x20 DUP3 DUP5 SUB SLT ISZERO PUSH2 0x24E2 JUMPI DUP1 DUP2 REVERT JUMPDEST PUSH2 0x1C05 DUP3 PUSH2 0x24BA JUMP JUMPDEST PUSH1 0x0 DUP1 PUSH1 0x0 PUSH1 0x60 DUP5 DUP7 SUB SLT ISZERO PUSH2 0x24FF JUMPI DUP2 DUP3 REVERT JUMPDEST PUSH2 0x2508 DUP5 PUSH2 0x24BA JUMP JUMPDEST SWAP3 POP PUSH2 0x2516 PUSH1 0x20 DUP6 ADD PUSH2 0x24BA JUMP JUMPDEST SWAP2 POP PUSH2 0x2524 PUSH1 0x40 DUP6 ADD PUSH2 0x24BA JUMP JUMPDEST SWAP1 POP SWAP3 POP SWAP3 POP SWAP3 JUMP JUMPDEST PUSH1 0x0 DUP1 PUSH1 0x40 DUP4 DUP6 SUB SLT ISZERO PUSH2 0x253F JUMPI DUP2 DUP3 REVERT JUMPDEST PUSH2 0x2548 DUP4 PUSH2 0x24BA JUMP JUMPDEST SWAP5 PUSH1 0x20 SWAP4 SWAP1 SWAP4 ADD CALLDATALOAD SWAP4 POP POP POP JUMP JUMPDEST PUSH1 0x0 PUSH1 0x20 DUP3 DUP5 SUB SLT ISZERO PUSH2 0x2567 JUMPI DUP1 DUP2 REVERT JUMPDEST DUP2 MLOAD DUP1 ISZERO ISZERO DUP2 EQ PUSH2 0x1C05 JUMPI DUP2 DUP3 REVERT JUMPDEST PUSH1 0x0 PUSH1 0x20 DUP3 DUP5 SUB SLT ISZERO PUSH2 0x2587 JUMPI DUP1 DUP2 REVERT JUMPDEST POP CALLDATALOAD SWAP2 SWAP1 POP JUMP JUMPDEST PUSH1 0x0 PUSH1 0x20 DUP3 DUP5 SUB SLT ISZERO PUSH2 0x259F JUMPI DUP1 DUP2 REVERT JUMPDEST POP MLOAD SWAP2 SWAP1 POP JUMP JUMPDEST PUSH1 0x0 PUSH1 0x20 DUP3 DUP5 SUB SLT ISZERO PUSH2 0x25B7 JUMPI DUP1 DUP2 REVERT JUMPDEST DUP2 MLOAD PUSH1 0xFF DUP2 AND DUP2 EQ PUSH2 0x1C05 JUMPI DUP2 DUP3 REVERT JUMPDEST PUSH1 0x0 DUP2 MLOAD DUP1 DUP5 MSTORE DUP2 JUMPDEST DUP2 DUP2 LT ISZERO PUSH2 0x25EC JUMPI PUSH1 0x20 DUP2 DUP6 ADD DUP2 ADD MLOAD DUP7 DUP4 ADD DUP3 ADD MSTORE ADD PUSH2 0x25D0 JUMP JUMPDEST DUP2 DUP2 GT ISZERO PUSH2 0x25FD JUMPI DUP3 PUSH1 0x20 DUP4 DUP8 ADD ADD MSTORE JUMPDEST POP PUSH1 0x1F ADD PUSH1 0x1F NOT AND SWAP3 SWAP1 SWAP3 ADD PUSH1 0x20 ADD SWAP3 SWAP2 POP POP JUMP JUMPDEST DUP1 MLOAD DUP3 MSTORE PUSH1 0x20 DUP2 ADD MLOAD PUSH1 0x20 DUP4 ADD MSTORE PUSH1 0x40 DUP2 ADD MLOAD PUSH1 0x40 DUP4 ADD MSTORE PUSH1 0x60 DUP2 ADD MLOAD PUSH1 0x60 DUP4 ADD MSTORE PUSH1 0x80 DUP2 ADD MLOAD PUSH1 0x80 DUP4 ADD MSTORE PUSH1 0xA0 DUP2 ADD MLOAD PUSH1 0xA0 DUP4 ADD MSTORE PUSH1 0xC0 DUP2 ADD MLOAD PUSH1 0xC0 DUP4 ADD MSTORE PUSH1 0xE0 DUP2 ADD MLOAD PUSH1 0xE0 DUP4 ADD MSTORE PUSH2 0x100 DUP1 DUP3 ADD MLOAD DUP2 DUP5 ADD MSTORE POP PUSH2 0x120 DUP1 DUP3 ADD MLOAD DUP2 DUP5 ADD MSTORE POP PUSH2 0x140 DUP1 DUP3 ADD MLOAD DUP2 DUP5 ADD MSTORE POP PUSH2 0x160 DUP1 DUP3 ADD MLOAD DUP2 DUP5 ADD MSTORE POP PUSH2 0x180 DUP1 DUP3 ADD MLOAD DUP2 DUP5 ADD MSTORE POP PUSH2 0x1A0 DUP1 DUP3 ADD MLOAD PUSH2 0x942 DUP3 DUP6 ADD DUP3 PUSH1 0x1 PUSH1 0x1 PUSH1 0xA0 SHL SUB AND SWAP1 MSTORE JUMP JUMPDEST PUSH1 0x20 DUP1 DUP3 MSTORE DUP3 MLOAD DUP3 DUP3 ADD DUP2 SWAP1 MSTORE PUSH1 0x0 SWAP2 SWAP1 DUP5 DUP3 ADD SWAP1 PUSH1 0x40 DUP6 ADD SWAP1 DUP5 JUMPDEST DUP2 DUP2 LT ISZERO PUSH2 0x26F6 JUMPI PUSH2 0x26E2 DUP4 DUP6 MLOAD PUSH2 0x2612 JUMP JUMPDEST SWAP3 DUP5 ADD SWAP3 PUSH2 0x1C0 SWAP3 SWAP1 SWAP3 ADD SWAP2 PUSH1 0x1 ADD PUSH2 0x26CF JUMP JUMPDEST POP SWAP1 SWAP7 SWAP6 POP POP POP POP POP POP JUMP JUMPDEST PUSH1 0x40 DUP2 MSTORE PUSH1 0x0 PUSH2 0x2715 PUSH1 0x40 DUP4 ADD DUP6 PUSH2 0x25C7 JUMP JUMPDEST SWAP1 POP DUP3 PUSH1 0x20 DUP4 ADD MSTORE SWAP4 SWAP3 POP POP POP JUMP JUMPDEST PUSH1 0x80 DUP2 MSTORE PUSH1 0x0 PUSH2 0x2737 PUSH1 0x80 DUP4 ADD DUP8 PUSH2 0x25C7 JUMP JUMPDEST PUSH1 0x20 DUP4 ADD SWAP6 SWAP1 SWAP6 MSTORE POP PUSH1 0x40 DUP2 ADD SWAP3 SWAP1 SWAP3 MSTORE PUSH1 0x60 SWAP1 SWAP2 ADD MSTORE SWAP2 SWAP1 POP JUMP JUMPDEST PUSH1 0x20 DUP1 DUP3 MSTORE DUP2 DUP2 ADD MSTORE PUSH32 0x4F776E61626C653A2063616C6C6572206973206E6F7420746865206F776E6572 PUSH1 0x40 DUP3 ADD MSTORE PUSH1 0x60 ADD SWAP1 JUMP JUMPDEST PUSH1 0x20 DUP1 DUP3 MSTORE PUSH1 0x23 SWAP1 DUP3 ADD MSTORE PUSH32 0x5573657220696E6465782073686F756C6420626520626967676572207468616E PUSH1 0x40 DUP3 ADD MSTORE PUSH3 0x101817 PUSH1 0xE9 SHL PUSH1 0x60 DUP3 ADD MSTORE PUSH1 0x80 ADD SWAP1 JUMP JUMPDEST PUSH2 0x1C0 DUP2 ADD PUSH2 0x403 DUP3 DUP5 PUSH2 0x2612 JUMP JUMPDEST PUSH1 0x0 DUP3 NOT DUP3 GT ISZERO PUSH2 0x27ED JUMPI PUSH2 0x27ED PUSH2 0x294E JUMP JUMPDEST POP ADD SWAP1 JUMP JUMPDEST PUSH1 0x0 DUP3 PUSH2 0x280D JUMPI PUSH4 0x4E487B71 PUSH1 0xE0 SHL DUP2 MSTORE PUSH1 0x12 PUSH1 0x4 MSTORE PUSH1 0x24 DUP2 REVERT JUMPDEST POP DIV SWAP1 JUMP JUMPDEST PUSH1 0x1 DUP2 DUP2 JUMPDEST DUP1 DUP6 GT ISZERO PUSH2 0x284D JUMPI DUP2 PUSH1 0x0 NOT DIV DUP3 GT ISZERO PUSH2 0x2833 JUMPI PUSH2 0x2833 PUSH2 0x294E JUMP JUMPDEST DUP1 DUP6 AND ISZERO PUSH2 0x2840 JUMPI SWAP2 DUP2 MUL SWAP2 JUMPDEST SWAP4 DUP5 SHR SWAP4 SWAP1 DUP1 MUL SWAP1 PUSH2 0x2817 JUMP JUMPDEST POP SWAP3 POP SWAP3 SWAP1 POP JUMP JUMPDEST PUSH1 0x0 PUSH2 0x1C05 DUP4 DUP4 PUSH1 0x0 DUP3 PUSH2 0x286B JUMPI POP PUSH1 0x1 PUSH2 0x403 JUMP JUMPDEST DUP2 PUSH2 0x2878 JUMPI POP PUSH1 0x0 PUSH2 0x403 JUMP JUMPDEST DUP2 PUSH1 0x1 DUP2 EQ PUSH2 0x288E JUMPI PUSH1 0x2 DUP2 EQ PUSH2 0x2898 JUMPI PUSH2 0x28B4 JUMP JUMPDEST PUSH1 0x1 SWAP2 POP POP PUSH2 0x403 JUMP JUMPDEST PUSH1 0xFF DUP5 GT ISZERO PUSH2 0x28A9 JUMPI PUSH2 0x28A9 PUSH2 0x294E JUMP JUMPDEST POP POP PUSH1 0x1 DUP3 SHL PUSH2 0x403 JUMP JUMPDEST POP PUSH1 0x20 DUP4 LT PUSH2 0x133 DUP4 LT AND PUSH1 0x4E DUP5 LT PUSH1 0xB DUP5 LT AND OR ISZERO PUSH2 0x28D7 JUMPI POP DUP2 DUP2 EXP PUSH2 0x403 JUMP JUMPDEST PUSH2 0x28E1 DUP4 DUP4 PUSH2 0x2812 JUMP JUMPDEST DUP1 PUSH1 0x0 NOT DIV DUP3 GT ISZERO PUSH2 0x28F5 JUMPI PUSH2 0x28F5 PUSH2 0x294E JUMP JUMPDEST MUL SWAP4 SWAP3 POP POP POP JUMP JUMPDEST PUSH1 0x0 DUP2 PUSH1 0x0 NOT DIV DUP4 GT DUP3 ISZERO ISZERO AND ISZERO PUSH2 0x2917 JUMPI PUSH2 0x2917 PUSH2 0x294E JUMP JUMPDEST POP MUL SWAP1 JUMP JUMPDEST PUSH1 0x0 DUP3 DUP3 LT ISZERO PUSH2 0x292E JUMPI PUSH2 0x292E PUSH2 0x294E JUMP JUMPDEST POP SUB SWAP1 JUMP JUMPDEST PUSH1 0x0 PUSH1 0x0 NOT DUP3 EQ ISZERO PUSH2 0x2947 JUMPI PUSH2 0x2947 PUSH2 0x294E JUMP JUMPDEST POP PUSH1 0x1 ADD SWAP1 JUMP JUMPDEST PUSH4 0x4E487B71 PUSH1 0xE0 SHL PUSH1 0x0 MSTORE PUSH1 0x11 PUSH1 0x4 MSTORE PUSH1 0x24 PUSH1 0x0 REVERT INVALID LOG2 PUSH5 0x6970667358 0x22 SLT KECCAK256 0xB7 MULMOD MLOAD RETURNDATACOPY PUSH19 0x320BCFD28A9EFA1148DA98892F73931F9C5E6A 0xE MOD EXTCODEHASH 0xE1 0xDB ISZERO LOG2 GASLIMIT PUSH5 0x736F6C6343 STOP ADDMOD DIV STOP CALLER "},"gasEstimates":{"creation":{"codeDepositCost":"2130000","executionCost":"infinite","totalCost":"infinite"},"external":{"":"207","borrow(address,uint256)":"infinite","calcTokenPrice(address,uint256)":"1470","claimETH(uint256)":"infinite","claimPeko()":"infinite","claimToken(address,uint256)":"infinite","collateral(address)":"infinite","debt(address)":"infinite","deposit(address,uint256)":"infinite","getEthValue(address,address,address)":"infinite","getMarketInfo()":"infinite","getUserInfo(address)":"infinite","liquidate(address)":"infinite","listUserInfo()":"infinite","owner()":"1090","renounceOwnership()":"24210","repay(address,uint256)":"infinite","setLiquidationThreshhold(uint256)":"20323","setPoolAddress(address)":"21203","transferOwnership(address)":"24495","withdraw(address,uint256)":"infinite"},"internal":{"addPool(address,uint256,uint256,uint256,uint256,uint256)":"infinite","calcuateUser(address)":"infinite","clearUser(address)":"infinite","fetchUserInfo(uint256)":"infinite"}},"methodIdentifiers":{"borrow(address,uint256)":"4b8a3529","calcTokenPrice(address,uint256)":"05cb9fde","claimETH(uint256)":"fe96973a","claimPeko()":"838afb1e","claimToken(address,uint256)":"1698755f","collateral(address)":"a5fdc5de","debt(address)":"9b6c56ec","deposit(address,uint256)":"47e7ef24","getEthValue(address,address,address)":"14658ac7","getMarketInfo()":"23341a05","getUserInfo(address)":"6386c1c7","liquidate(address)":"2f865568","listUserInfo()":"5063e91a","owner()":"8da5cb5b","renounceOwnership()":"715018a6","repay(address,uint256)":"22867d78","setLiquidationThreshhold(uint256)":"616571e7","setPoolAddress(address)":"e9e15b4f","transferOwnership(address)":"f2fde38b","withdraw(address,uint256)":"f3fef3a3"}},"storageLayout":{"storage":[{"astId":336,"contract":"contracts/Lending.sol:Lending","label":"_owner","offset":0,"slot":"0","type":"t_address"},{"astId":642,"contract":"contracts/Lending.sol:Lending","label":"poolInfos","offset":0,"slot":"1","type":"t_mapping(t_address,t_struct(PoolInfo)637_storage)"},{"astId":644,"contract":"contracts/Lending.sol:Lending","label":"maxUserIndex","offset":0,"slot":"2","type":"t_uint256"},{"astId":649,"contract":"contracts/Lending.sol:Lending","label":"userInfos","offset":0,"slot":"3","type":"t_mapping(t_uint256,t_struct(UserInfo)597_storage)"},{"astId":653,"contract":"contracts/Lending.sol:Lending","label":"userInfoIndex","offset":0,"slot":"4","type":"t_mapping(t_address,t_uint256)"},{"astId":655,"contract":"contracts/Lending.sol:Lending","label":"rewardAddress","offset":0,"slot":"5","type":"t_address"},{"astId":657,"contract":"contracts/Lending.sol:Lending","label":"ethAddress","offset":0,"slot":"6","type":"t_address"},{"astId":659,"contract":"contracts/Lending.sol:Lending","label":"usdtAddress","offset":0,"slot":"7","type":"t_address"},{"astId":661,"contract":"contracts/Lending.sol:Lending","label":"poolAddress","offset":0,"slot":"8","type":"t_address"},{"astId":664,"contract":"contracts/Lending.sol:Lending","label":"liquidationThreshhold","offset":0,"slot":"9","type":"t_uint256"},{"astId":667,"contract":"contracts/Lending.sol:Lending","label":"decimal","offset":0,"slot":"10","type":"t_uint256"}],"types":{"t_address":{"encoding":"inplace","label":"address","numberOfBytes":"20"},"t_mapping(t_address,t_struct(PoolInfo)637_storage)":{"encoding":"mapping","key":"t_address","label":"mapping(address => struct Lending.PoolInfo)","numberOfBytes":"32","value":"t_struct(PoolInfo)637_storage"},"t_mapping(t_address,t_uint256)":{"encoding":"mapping","key":"t_address","label":"mapping(address => uint256)","numberOfBytes":"32","value":"t_uint256"},"t_mapping(t_uint256,t_struct(UserInfo)597_storage)":{"encoding":"mapping","key":"t_uint256","label":"mapping(uint256 => struct Lending.UserInfo)","numberOfBytes":"32","value":"t_struct(UserInfo)597_storage"},"t_struct(PoolInfo)637_storage":{"encoding":"inplace","label":"struct Lending.PoolInfo","members":[{"astId":628,"contract":"contracts/Lending.sol:Lending","label":"LTV","offset":0,"slot":"0","type":"t_uint256"},{"astId":630,"contract":"contracts/Lending.sol:Lending","label":"depositApy","offset":0,"slot":"1","type":"t_uint256"},{"astId":632,"contract":"contracts/Lending.sol:Lending","label":"borrowApy","offset":0,"slot":"2","type":"t_uint256"},{"astId":634,"contract":"contracts/Lending.sol:Lending","label":"totalAmount","offset":0,"slot":"3","type":"t_uint256"},{"astId":636,"contract":"contracts/Lending.sol:Lending","label":"borrowAmount","offset":0,"slot":"4","type":"t_uint256"}],"numberOfBytes":"160"},"t_struct(UserInfo)597_storage":{"encoding":"inplace","label":"struct Lending.UserInfo","members":[{"astId":576,"contract":"contracts/Lending.sol:Lending","label":"accountAddress","offset":0,"slot":"0","type":"t_address"},{"astId":578,"contract":"contracts/Lending.sol:Lending","label":"lastInterest","offset":0,"slot":"1","type":"t_uint256"},{"astId":582,"contract":"contracts/Lending.sol:Lending","label":"tokenDepositAmount","offset":0,"slot":"2","type":"t_mapping(t_address,t_uint256)"},{"astId":586,"contract":"contracts/Lending.sol:Lending","label":"tokenBorrowAmount","offset":0,"slot":"3","type":"t_mapping(t_address,t_uint256)"},{"astId":590,"contract":"contracts/Lending.sol:Lending","label":"tokenRewardAmount","offset":0,"slot":"4","type":"t_mapping(t_address,t_uint256)"},{"astId":594,"contract":"contracts/Lending.sol:Lending","label":"tokenInterestAmount","offset":0,"slot":"5","type":"t_mapping(t_address,t_uint256)"},{"astId":596,"contract":"contracts/Lending.sol:Lending","label":"pekoRewardAmount","offset":0,"slot":"6","type":"t_uint256"}],"numberOfBytes":"224"},"t_uint256":{"encoding":"inplace","label":"uint256","numberOfBytes":"32"}}},"userdoc":{"kind":"user","methods":{},"version":1}}}}