{"contracts/Lending.sol":{"Lending":{"abi":[{"inputs":[{"internalType":"address","name":"_rewardAddress","type":"address"},{"internalType":"address","name":"_ethAdddress","type":"address"},{"internalType":"address","name":"_usdtAddress","type":"address"}],"stateMutability":"nonpayable","type":"constructor"},{"anonymous":false,"inputs":[{"indexed":true,"internalType":"address","name":"previousOwner","type":"address"},{"indexed":true,"internalType":"address","name":"newOwner","type":"address"}],"name":"OwnershipTransferred","type":"event"},{"stateMutability":"payable","type":"fallback"},{"inputs":[{"internalType":"address","name":"_tokenAddress","type":"address"},{"internalType":"uint256","name":"_amount","type":"uint256"}],"name":"borrow","outputs":[],"stateMutability":"nonpayable","type":"function"},{"inputs":[{"internalType":"address","name":"_tokenAddress","type":"address"},{"internalType":"uint256","name":"_amount","type":"uint256"}],"name":"calcTokenPrice","outputs":[{"internalType":"uint256","name":"","type":"uint256"}],"stateMutability":"view","type":"function"},{"inputs":[{"internalType":"uint256","name":"amount","type":"uint256"}],"name":"claimETH","outputs":[],"stateMutability":"nonpayable","type":"function"},{"inputs":[],"name":"claimPeko","outputs":[],"stateMutability":"nonpayable","type":"function"},{"inputs":[{"internalType":"address","name":"tokenAddress","type":"address"},{"internalType":"uint256","name":"amount","type":"uint256"}],"name":"claimToken","outputs":[],"stateMutability":"nonpayable","type":"function"},{"inputs":[{"internalType":"address","name":"_account","type":"address"}],"name":"collateral","outputs":[{"internalType":"uint256","name":"","type":"uint256"}],"stateMutability":"nonpayable","type":"function"},{"inputs":[{"internalType":"address","name":"_account","type":"address"}],"name":"debt","outputs":[{"internalType":"uint256","name":"","type":"uint256"}],"stateMutability":"nonpayable","type":"function"},{"inputs":[{"internalType":"address","name":"_tokenAddress","type":"address"},{"internalType":"uint256","name":"_amount","type":"uint256"}],"name":"deposit","outputs":[],"stateMutability":"payable","type":"function"},{"inputs":[],"name":"getEthValue","outputs":[{"internalType":"uint256","name":"","type":"uint256"}],"stateMutability":"view","type":"function"},{"inputs":[],"name":"getLiquidationThreshhold","outputs":[{"internalType":"uint256","name":"","type":"uint256"}],"stateMutability":"view","type":"function"},{"inputs":[],"name":"getMarketInfo","outputs":[{"internalType":"uint256","name":"","type":"uint256"},{"internalType":"uint256","name":"","type":"uint256"}],"stateMutability":"view","type":"function"},{"inputs":[{"internalType":"address","name":"_poolAddress","type":"address"}],"name":"getPoolInfo","outputs":[{"components":[{"internalType":"uint256","name":"LTV","type":"uint256"},{"internalType":"uint256","name":"depositApy","type":"uint256"},{"internalType":"uint256","name":"borrowApy","type":"uint256"},{"internalType":"uint256","name":"totalAmount","type":"uint256"},{"internalType":"uint256","name":"borrowAmount","type":"uint256"}],"internalType":"struct Lending.PoolInfo","name":"","type":"tuple"}],"stateMutability":"view","type":"function"},{"inputs":[{"internalType":"address","name":"_account","type":"address"}],"name":"getUserInfo","outputs":[{"components":[{"internalType":"uint256","name":"ethDepositAmount","type":"uint256"},{"internalType":"uint256","name":"usdtDepositAmount","type":"uint256"},{"internalType":"uint256","name":"ethBorrowAmount","type":"uint256"},{"internalType":"uint256","name":"usdtBorrowAmount","type":"uint256"},{"internalType":"uint256","name":"ethInterestAmount","type":"uint256"},{"internalType":"uint256","name":"usdtInterestAmount","type":"uint256"},{"internalType":"uint256","name":"ethRewardAmount","type":"uint256"},{"internalType":"uint256","name":"usdtRewardAmount","type":"uint256"},{"internalType":"uint256","name":"pekoRewardAmount","type":"uint256"},{"internalType":"uint256","name":"ethDepositTotalInUsdtAmount","type":"uint256"},{"internalType":"uint256","name":"usdtDepositTotalAmount","type":"uint256"},{"internalType":"uint256","name":"ethBorrowTotalInUsdtAmount","type":"uint256"},{"internalType":"uint256","name":"usdtBorrowTotalAmount","type":"uint256"},{"internalType":"address","name":"accountAddress","type":"address"}],"internalType":"struct Lending.UserInfoForDisplay","name":"","type":"tuple"}],"stateMutability":"view","type":"function"},{"inputs":[{"internalType":"address","name":"_account","type":"address"}],"name":"liquidate","outputs":[],"stateMutability":"payable","type":"function"},{"inputs":[],"name":"listPools","outputs":[{"components":[{"internalType":"uint256","name":"LTV","type":"uint256"},{"internalType":"uint256","name":"depositApy","type":"uint256"},{"internalType":"uint256","name":"borrowApy","type":"uint256"},{"internalType":"uint256","name":"totalAmount","type":"uint256"},{"internalType":"uint256","name":"borrowAmount","type":"uint256"}],"internalType":"struct Lending.PoolInfo[]","name":"","type":"tuple[]"}],"stateMutability":"view","type":"function"},{"inputs":[],"name":"listUserInfo","outputs":[{"components":[{"internalType":"uint256","name":"ethDepositAmount","type":"uint256"},{"internalType":"uint256","name":"usdtDepositAmount","type":"uint256"},{"internalType":"uint256","name":"ethBorrowAmount","type":"uint256"},{"internalType":"uint256","name":"usdtBorrowAmount","type":"uint256"},{"internalType":"uint256","name":"ethInterestAmount","type":"uint256"},{"internalType":"uint256","name":"usdtInterestAmount","type":"uint256"},{"internalType":"uint256","name":"ethRewardAmount","type":"uint256"},{"internalType":"uint256","name":"usdtRewardAmount","type":"uint256"},{"internalType":"uint256","name":"pekoRewardAmount","type":"uint256"},{"internalType":"uint256","name":"ethDepositTotalInUsdtAmount","type":"uint256"},{"internalType":"uint256","name":"usdtDepositTotalAmount","type":"uint256"},{"internalType":"uint256","name":"ethBorrowTotalInUsdtAmount","type":"uint256"},{"internalType":"uint256","name":"usdtBorrowTotalAmount","type":"uint256"},{"internalType":"address","name":"accountAddress","type":"address"}],"internalType":"struct Lending.UserInfoForDisplay[]","name":"","type":"tuple[]"}],"stateMutability":"view","type":"function"},{"inputs":[],"name":"owner","outputs":[{"internalType":"address","name":"","type":"address"}],"stateMutability":"view","type":"function"},{"inputs":[],"name":"renounceOwnership","outputs":[],"stateMutability":"nonpayable","type":"function"},{"inputs":[{"internalType":"address","name":"_tokenAddress","type":"address"},{"internalType":"uint256","name":"_amount","type":"uint256"}],"name":"repay","outputs":[],"stateMutability":"payable","type":"function"},{"inputs":[{"internalType":"uint256","name":"_r0","type":"uint256"},{"internalType":"uint256","name":"_uOption","type":"uint256"},{"internalType":"uint256","name":"_rSlope1","type":"uint256"},{"internalType":"uint256","name":"_rSlope2","type":"uint256"}],"name":"setBorrowApy","outputs":[],"stateMutability":"nonpayable","type":"function"},{"inputs":[{"internalType":"uint256","name":"limit","type":"uint256"}],"name":"setLiquidationThreshhold","outputs":[],"stateMutability":"nonpayable","type":"function"},{"inputs":[{"internalType":"uint256","name":"_r0","type":"uint256"},{"internalType":"uint256","name":"_uOption","type":"uint256"},{"internalType":"uint256","name":"_rSlope1","type":"uint256"},{"internalType":"uint256","name":"_rSlope2","type":"uint256"}],"name":"setSupplyApy","outputs":[],"stateMutability":"nonpayable","type":"function"},{"inputs":[{"internalType":"address","name":"newOwner","type":"address"}],"name":"transferOwnership","outputs":[],"stateMutability":"nonpayable","type":"function"},{"inputs":[{"internalType":"address","name":"_tokenAddress","type":"address"},{"internalType":"uint256","name":"_amount","type":"uint256"}],"name":"withdraw","outputs":[],"stateMutability":"nonpayable","type":"function"},{"stateMutability":"payable","type":"receive"}],"devdoc":{"kind":"dev","methods":{},"version":1},"evm":{"bytecode":{"linkReferences":{},"object":"60806040526003601055655af3107a400060115561013d601255601380546001600160a01b03191673245e775a46b1aadacbd48279cf0731cf186cf2b21790553480156200004c57600080fd5b5060405162003295380380620032958339810160408190526200006f916200028a565b600080546001600160a01b031916339081178255604051909182917f8be0079c531659141344cd1fd0a4f28419497f9722a3daafe3b4186f6b6457e0908290a350600d80546001600160a01b038086166001600160a01b031992831617909255600e80548584169083168117909155600f80549385169390921692909217905562000103906050606460c860008062000154565b600f5462000123906001600160a01b03166050606460c860008062000154565b6200013760c860466107d0611770620001ab565b6200014b606460466103e86107d06200020e565b50505062000300565b6001600160a01b03861660009081526009602052604090208581556012546200017e9086620002d4565b6001820155601254620001929085620002d4565b6002820155600381019290925560049091015550505050565b6000546001600160a01b03163314620001fa5760405162461bcd60e51b815260206004820181905260248201526000805160206200327583398151915260448201526064015b60405180910390fd5b600593909355600691909155600755600855565b6000546001600160a01b03163314620002595760405162461bcd60e51b81526020600482018190526024820152600080516020620032758339815191526044820152606401620001f1565b600193909355600291909155600355600455565b80516001600160a01b03811681146200028557600080fd5b919050565b600080600060608486031215620002a057600080fd5b620002ab846200026d565b9250620002bb602085016200026d565b9150620002cb604085016200026d565b90509250925092565b8082028115828204841417620002fa57634e487b7160e01b600052601160045260246000fd5b92915050565b612f6580620003106000396000f3fe6080604052600436106101435760003560e01c8063660fd831116100b0578063a079722d1161006c578063a079722d14610387578063a5fdc5de146103a7578063e124787f146103c7578063f2fde38b146103dc578063f3fef3a3146103fc578063fe96973a1461041c57005b8063660fd831146102d357806368795862146102f3578063715018a614610315578063838afb1e1461032a5780638da5cb5b1461033f5780639b6c56ec1461036757005b80632f865568116100ff5780632f8655681461021e57806347e7ef24146102315780634b8a3529146102445780635063e91a14610264578063616571e7146102865780636386c1c7146102a657005b806305cb9fde1461014c57806306bfa9381461017f5780631698755f146101ac5780631c5a859b146101cc57806322867d78146101e157806323341a05146101f457005b3661014a57005b005b34801561015857600080fd5b5061016c610167366004612b0c565b61043c565b6040519081526020015b60405180910390f35b34801561018b57600080fd5b5061019f61019a366004612b36565b610493565b6040516101769190612b51565b3480156101b857600080fd5b5061014a6101c7366004612b0c565b610545565b3480156101d857600080fd5b5061016c61060f565b61014a6101ef366004612b0c565b6106a0565b34801561020057600080fd5b506102096109d4565b60408051928352602083019190915201610176565b61014a61022c366004612b36565b610a5b565b61014a61023f366004612b0c565b610eeb565b34801561025057600080fd5b5061014a61025f366004612b0c565b61112c565b34801561027057600080fd5b50610279611479565b6040516101769190612c2b565b34801561029257600080fd5b5061014a6102a1366004612c7a565b611535565b3480156102b257600080fd5b506102c66102c1366004612b36565b611564565b6040516101769190612c93565b3480156102df57600080fd5b5061014a6102ee366004612ca2565b611597565b3480156102ff57600080fd5b506103086115d5565b6040516101769190612cd4565b34801561032157600080fd5b5061014a61177d565b34801561033657600080fd5b5061014a6117f1565b34801561034b57600080fd5b506000546040516001600160a01b039091168152602001610176565b34801561037357600080fd5b5061016c610382366004612b36565b6118bc565b34801561039357600080fd5b5061014a6103a2366004612ca2565b61196a565b3480156103b357600080fd5b5061016c6103c2366004612b36565b6119a8565b3480156103d357600080fd5b5060105461016c565b3480156103e857600080fd5b5061014a6103f7366004612b36565b611a41565b34801561040857600080fd5b5061014a610417366004612b0c565b611a77565b34801561042857600080fd5b5061014a610437366004612c7a565b611df0565b600f546000906001600160a01b039081169084160361045c57508061048d565b600061046661060f565b90506104896c0c9f2c9cd04674edea400000006104838584612d57565b90611eb8565b9150505b92915050565b6104c56040518060a0016040528060008152602001600081526020016000815260200160008152602001600081525090565b6001600160a01b038216600090815260096020908152604091829020825160a081018452815481526001820154928101839052600282015493810193909352600381015460608401526004015460808301526012546105249190611eb8565b6020820152601254604082015161053a91611eb8565b604082015292915050565b6000546001600160a01b031633146105785760405162461bcd60e51b815260040161056f90612d6e565b60405180910390fd5b816001600160a01b031663a9059cbb6105996000546001600160a01b031690565b6040516001600160e01b031960e084901b1681526001600160a01b039091166004820152602481018490526044016020604051808303816000875af11580156105e6573d6000803e3d6000fd5b505050506040513d601f19601f8201168201806040525081019061060a9190612da3565b505050565b600080601360009054906101000a90046001600160a01b03166001600160a01b031663feaf968c6040518163ffffffff1660e01b815260040160a060405180830381865afa158015610665573d6000803e3d6000fd5b505050506040513d601f19601f820116820180604052508101906106899190612ddf565b505050915050806402540be40061048d9190612e2f565b6106a933611ecb565b600081116106e95760405162461bcd60e51b815260206004820152600d60248201526c063616e2774207265706179203609c1b604482015260640161056f565b336000908152600c6020526040902054806107165760405162461bcd60e51b815260040161056f90612e5f565b6000818152600b602090815260408083206001600160a01b03871684526005810190925282205490919084101561077c576001600160a01b038516600090815260058301602052604081208054869290610771908490612ea2565b9091555061084a9050565b6001600160a01b038516600090815260038301602090815260408083205460058601909252909120546107af9190612eb5565b8411156107d757506001600160a01b03841660009081526003820160205260409020546107ff565b6001600160a01b03851660009081526005830160205260409020546107fc9085612ea2565b90505b6001600160a01b038516600090815260038301602052604081208054839290610829908490612ea2565b90915550506001600160a01b03851660009081526005830160205260408120555b600f546001600160a01b039081169086160361094e57600f546040516323b872dd60e01b8152336004820152306024820152604481018690526001600160a01b03909116906323b872dd906064016020604051808303816000875af11580156108b7573d6000803e3d6000fd5b505050506040513d601f19601f820116820180604052508101906108db9190612da3565b6109165760405162461bcd60e51b815260206004820152600c60248201526b14995c185e4819985a5b195960a21b604482015260640161056f565b600f546001600160a01b031660009081526009602052604081206004018054839290610943908490612ea2565b909155506109c49050565b833410156109915760405162461bcd60e51b815260206004820152601060248201526f283632b0b9b2903830bc9036b7b9329760811b604482015260640161056f565b600e546001600160a01b0316600090815260096020526040812060040180548392906109be908490612ea2565b90915550505b6109cd33611ecb565b5050505050565b600e546001600160a01b03908116600081815260096020526040808220600f549094168252812060038082015490850154929485949093610a15919061043c565b610a1f9190612eb5565b8160040154610a47600e60009054906101000a90046001600160a01b0316856004015461043c565b610a519190612eb5565b9350935050509091565b6001600160a01b0381166000908152600c602052604090205480610a915760405162461bcd60e51b815260040161056f90612e5f565b6000818152600b6020526040812090610aa9846119a8565b90506000610ab6856118bc565b90506000610ae160105484610acb9190612d57565b610ad6846064612d57565b610483906064612d57565b905060648111610b335760405162461bcd60e51b815260206004820152601f60248201527f54686973206973206e6f7420656e61626c6564206c69717569646174696f6e00604482015260640161056f565b600e546001600160a01b0316600090815260048501602090815260408083205460028801909252822054610b679190612eb5565b600f546001600160a01b0316600090815260048701602090815260408083205460028a019092528220549293509091610ba09190612eb5565b600e546001600160a01b0316600090815260058801602090815260408083205460038b019092528220549293509091610bd99190612eb5565b600f546001600160a01b0316600090815260058901602090815260408083205460038c019092528220549293509091610c129190612eb5565b9050610c2082612710611eb8565b610c2c9061270f612d57565b341015610c6c5760405162461bcd60e51b815260206004820152600e60248201526d09cdee840cadcdeeaced040cae8d60931b604482015260640161056f565b600f546001600160a01b03166323b872dd3330610c8b85612710611eb8565b610c979061270f612d57565b6040516001600160e01b031960e086901b1681526001600160a01b03938416600482015292909116602483015260448201526064016020604051808303816000875af1158015610ceb573d6000803e3d6000fd5b505050506040513d601f19601f82011682018060405250810190610d0f9190612da3565b610d4c5760405162461bcd60e51b815260206004820152600e60248201526d19195c1bdcda5d0819985a5b195960921b604482015260640161056f565b604051600090339086908381818185875af1925050503d8060008114610d8e576040519150601f19603f3d011682016040523d82523d6000602084013e610d93565b606091505b5050905080610dda5760405162461bcd60e51b81526020600482015260136024820152723330b4b632b2103a379039b2b7321032ba341760691b604482015260640161056f565b600f5460405163a9059cbb60e01b8152336004820152602481018690526001600160a01b039091169063a9059cbb906044016020604051808303816000875af1158015610e2b573d6000803e3d6000fd5b505050506040513d601f19601f82011682018060405250810190610e4f9190612da3565b50600d5460068a015460405163a9059cbb60e01b815233600482015260248101919091526001600160a01b039091169063a9059cbb906044016020604051808303816000875af1158015610ea7573d6000803e3d6000fd5b505050506040513d601f19601f82011682018060405250810190610ecb9190612da3565b50610ed58b612055565b610ede33611ecb565b5050505050505050505050565b60008111610f2d5760405162461bcd60e51b815260206004820152600f60248201526e063616e2774206465706f736974203608c1b604482015260640161056f565b336000908152600c60205260408120548103610f77576001600a6000828254610f569190612eb5565b9091555050600a54336000908152600c602052604090208190559050610f92565b50336000818152600c602052604090205490610f9290611ecb565b6000818152600b6020908152604080832080546001600160a01b031916331781554260018201556001600160a01b0387168452600281019092528220805491928592610fdf908490612eb5565b9091555050600f546001600160a01b03908116908516036110ea57600f546040516323b872dd60e01b8152336004820152306024820152604481018590526001600160a01b03909116906323b872dd906064016020604051808303816000875af1158015611051573d6000803e3d6000fd5b505050506040513d601f19601f820116820180604052508101906110759190612da3565b6110b25760405162461bcd60e51b815260206004820152600e60248201526d19195c1bdcda5d0819985a5b195960921b604482015260640161056f565b600f546001600160a01b0316600090815260096020526040812060030180548592906110df908490612eb5565b9091555061111d9050565b600e546001600160a01b031660009081526009602052604081206003018054859290611117908490612eb5565b90915550505b61112633611ecb565b50505050565b6000811161116d5760405162461bcd60e51b815260206004820152600e60248201526d063616e277420626f72726f7720360941b604482015260640161056f565b336000908152600c60205260409020548061119a5760405162461bcd60e51b815260040161056f90612e5f565b6000818152600b60205260408120906111b2336119a8565b905060006111bf336118bc565b9050808210156112115760405162461bcd60e51b815260206004820152601e60248201527f596f7520646f6e6f74206861766520616e7920636f6c6c61746572616c2e0000604482015260640161056f565b600061121d878761043c565b6001600160a01b0388166000908152600960205260409020549091506112438383612eb5565b606461124f8387612d57565b6112599190612ec8565b1161129d5760405162461bcd60e51b8152602060048201526014602482015273283632b0b9b2903232b837b9b4ba1036b7b9329760611b604482015260640161056f565b6001600160a01b0388166000908152600386016020526040812080548992906112c7908490612eb5565b909155506112d6905033611ecb565b600e546001600160a01b03908116908916036113bd57604051600090339089908381818185875af1925050503d806000811461132e576040519150601f19603f3d011682016040523d82523d6000602084013e611333565b606091505b50509050806113845760405162461bcd60e51b815260206004820152601c60248201527f6661696c656420746f2073656e642065746820696e7465726573742e00000000604482015260640161056f565b600e546001600160a01b0316600090815260096020526040812060040180548a92906113b1908490612eb5565b90915550611466915050565b600f5460405163a9059cbb60e01b8152336004820152602481018990526001600160a01b039091169063a9059cbb906044016020604051808303816000875af115801561140e573d6000803e3d6000fd5b505050506040513d601f19601f820116820180604052508101906114329190612da3565b50600f546001600160a01b031660009081526009602052604081206004018054899290611460908490612eb5565b90915550505b61146f33611ecb565b5050505050505050565b60606000600a5467ffffffffffffffff81111561149857611498612eea565b6040519080825280602002602001820160405280156114d157816020015b6114be612a7d565b8152602001906001900390816114b65790505b50905060015b600a546114e5906001612eb5565b81101561152f576114f581612284565b82611501600184612ea2565b8151811061151157611511612f00565b6020026020010181905250808061152790612f16565b9150506114d7565b50919050565b6000546001600160a01b0316331461155f5760405162461bcd60e51b815260040161056f90612d6e565b601055565b61156c612a7d565b6001600160a01b0382166000908152600c60205260408120549061158f82612284565b949350505050565b6000546001600160a01b031633146115c15760405162461bcd60e51b815260040161056f90612d6e565b600593909355600691909155600755600855565b600e546001600160a01b0316600090815260096020908152604091829020825160a0810184528154815260018201549281018390526002820154938101939093526003810154606084810191909152600490910154608084015260125490929161163e91611eb8565b6020820152601254604082015161165491611eb8565b604080830191909152600f546001600160a01b031660009081526009602090815290829020825160a081018452815481526001820154928101839052600282015493810193909352600381015460608401526004015460808301526012546116bc9190611eb8565b602082015260125460408201516116d291611eb8565b6040828101919091528051600280825260608201909252600091816020015b6117236040518060a0016040528060008152602001600081526020016000815260200160008152602001600081525090565b8152602001906001900390816116f1579050509050828160008151811061174c5761174c612f00565b6020026020010181905250818160018151811061176b5761176b612f00565b60209081029190910101529392505050565b6000546001600160a01b031633146117a75760405162461bcd60e51b815260040161056f90612d6e565b600080546040516001600160a01b03909116907f8be0079c531659141344cd1fd0a4f28419497f9722a3daafe3b4186f6b6457e0908390a3600080546001600160a01b0319169055565b336000908152600c60205260409020548061181e5760405162461bcd60e51b815260040161056f90612e5f565b6000818152600b6020526040902061183533611ecb565b600d54600682015460405163a9059cbb60e01b815233600482015260248101919091526001600160a01b039091169063a9059cbb906044016020604051808303816000875af115801561188c573d6000803e3d6000fd5b505050506040513d601f19601f820116820180604052508101906118b09190612da3565b50600060069091015550565b60006118c782611ecb565b6001600160a01b038083166000908152600c60209081526040808320548352600b8252808320600e549094168084526003850183528184205460058601909352908320546119189261016791612eb5565b600f546001600160a01b03166000818152600385016020908152604080832054600588019092528220549394509092611955929161016791612eb5565b90506119618183612eb5565b95945050505050565b6000546001600160a01b031633146119945760405162461bcd60e51b815260040161056f90612d6e565b600193909355600291909155600355600455565b60006119b382611ecb565b6001600160a01b038083166000908152600c60209081526040808320548352600b8252808320600e54909416808452600285018352818420546004860190935290832054611a049261016791612eb5565b600f546001600160a01b03166000818152600285016020908152604080832054600488019092528220549394509092611955929161016791612eb5565b6000546001600160a01b03163314611a6b5760405162461bcd60e51b815260040161056f90612d6e565b611a7481612838565b50565b60008111611aba5760405162461bcd60e51b815260206004820152601060248201526f063616e277420776974686472617720360841b604482015260640161056f565b336000908152600c602052604090205480611ae75760405162461bcd60e51b815260040161056f90612e5f565b6000818152600b60205260409020611afe33611ecb565b6000611b09336119a8565b90506000611b16336118bc565b6001600160a01b0387166000908152600960205260409020549091508190606490611b41898961043c565b611b4b9086612ea2565b611b559190612d57565b611b5f9190612ec8565b11611bc35760405162461bcd60e51b815260206004820152602e60248201527f5769746864726177206661696c65642e596f7520646f6e6f742068617665206160448201526d373c9031b7b63630ba32b930b61760911b606482015260840161056f565b6001600160a01b0386166000908152600484016020526040902054851015611c1a576001600160a01b038616600090815260048401602052604081208054879290611c0f908490612ea2565b90915550611cb49050565b6001600160a01b0386166000908152600484016020526040812054611c3f9087612ea2565b6001600160a01b0388166000908152600286016020526040812080549293508392909190611c6e908490612ea2565b90915550506001600160a01b03871660009081526004850160209081526040808320839055600990915281206003018054839290611cad908490612ea2565b9091555050505b600e546001600160a01b0390811690871603611d6857604051600090339087908381818185875af1925050503d8060008114611d0c576040519150601f19603f3d011682016040523d82523d6000602084013e611d11565b606091505b5050905080611d625760405162461bcd60e51b815260206004820152601c60248201527f6661696c656420746f2073656e642065746820696e7465726573742e00000000604482015260640161056f565b50611ddf565b600f5460405163a9059cbb60e01b8152336004820152602481018790526001600160a01b039091169063a9059cbb906044016020604051808303816000875af1158015611db9573d6000803e3d6000fd5b505050506040513d601f19601f82011682018060405250810190611ddd9190612da3565b505b611de833611ecb565b505050505050565b6000546001600160a01b03163314611e1a5760405162461bcd60e51b815260040161056f90612d6e565b600080546040516001600160a01b039091169083908381818185875af1925050503d8060008114611e67576040519150601f19603f3d011682016040523d82523d6000602084013e611e6c565b606091505b5050905080611eb45760405162461bcd60e51b81526020600482015260146024820152732330b4b632b2103a379039b2b7321022ba3432b960611b604482015260640161056f565b5050565b6000611ec48284612ec8565b9392505050565b6001600160a01b0381166000908152600c6020526040902054611f305760405162461bcd60e51b815260206004820152601a60248201527f557365722073686f756c64206465706f736974206265666f7265000000000000604482015260640161056f565b6001600160a01b0381166000818152600c6020818152604080842054808552600b8352908420948452919052611f6590612284565b610100810151600684015560c0810151600e80546001600160a01b039081166000908152600487016020818152604080842096909655608087015185548516845260058a018083528785209190915560e0880151600f8054871686529383528785205560a088015192548516845290529390209290925542600186015554919250611ff091166128f8565b600e546001600160a01b0390811660009081526009602052604090206002810192909255600190910191909155600f5461202a91166128f8565b600f546001600160a01b03166000908152600960205260409020600281019190915560010155505050565b6001600160a01b0381166000908152600c60205260409020546120ba5760405162461bcd60e51b815260206004820152601a60248201527f557365722073686f756c64206465706f736974206265666f7265000000000000604482015260640161056f565b6001600160a01b038082166000908152600c60209081526040808320548352600b8252808320600e549094168352600284018252808320546009909252822060030180549192909161210d908490612ea2565b9091555050600e546001600160a01b031660009081526003820160209081526040808320546009909252822060040180549192909161214d908490612ea2565b9091555050600e80546001600160a01b039081166000908152600284016020818152604080842084905585548516845260038088018352818520859055865486168552600488018352818520859055955485168452600587018252808420849055600f5490941683529081528282205460099091529181209092018054919290916121d9908490612ea2565b9091555050600f546001600160a01b0316600090815260038201602090815260408083205460099092528220600401805491929091612219908490612ea2565b9091555050600f80546001600160a01b0390811660009081526002840160209081526040808320839055845484168352600386018252808320839055845484168352600486018252808320839055935490921681526005840190915290812081905560069091015550565b61228c612a7d565b81156127b8576000828152600b60205260408120600181015490916122b18242612ea2565b600e546011546001600160a01b0390911660008181526009602090815260408083206001015460028a01909252822054949550909361230b939186916122f79190612d57565b6123019190612d57565b6101679190612ec8565b846006015461231a9190612eb5565b601154600e546001600160a01b031660009081526009602090815260408083206001015460028a019092528220549394509092859161235891612d57565b6123629190612d57565b61236c9190612ec8565b600e546001600160a01b031660009081526004870160205260409020546123939190612eb5565b601154600e546001600160a01b031660009081526009602090815260408083206002015460038b01909252822054939450909286916123d191612d57565b6123db9190612d57565b6123e59190612ec8565b600e546001600160a01b0316600090815260058801602052604090205461240c9190612eb5565b600f546011546001600160a01b0390911660008181526009602090815260408083206001015460028d01909252909120549394506124529391929188916122f791612d57565b86600601546124619190612eb5565b61246b9084612eb5565b601154600f546001600160a01b031660009081526009602090815260408083206001015460028c01909252822054939650909287916124a991612d57565b6124b39190612d57565b6124bd9190612ec8565b600f546001600160a01b031660009081526004890160205260409020546124e49190612eb5565b601154600f546001600160a01b031660009081526009602090815260408083206002015460038d019092528220549394509092889161252291612d57565b61252c9190612d57565b6125369190612ec8565b600f546001600160a01b0316600090815260058a01602052604090205461255d9190612eb5565b90506000604051806101c001604052808a6002016000600e60009054906101000a90046001600160a01b03166001600160a01b03166001600160a01b031681526020019081526020016000205481526020018a6002016000600f60009054906101000a90046001600160a01b03166001600160a01b03166001600160a01b031681526020019081526020016000205481526020018a6003016000600e60009054906101000a90046001600160a01b03166001600160a01b03166001600160a01b031681526020019081526020016000205481526020018a6003016000600f60009054906101000a90046001600160a01b03166001600160a01b03166001600160a01b031681526020019081526020016000205481526020018581526020018381526020018681526020018481526020018781526020016126f4600e60009054906101000a90046001600160a01b0316888d6002016000600e60009054906101000a90046001600160a01b03166001600160a01b03166001600160a01b03168152602001908152602001600020546101679190612eb5565b8152600f546001600160a01b0316600081815260028d0160209081526040909120549201916127299190610167908890612eb5565b8152600e546001600160a01b0316600081815260038d01602090815260409091205492019161275e9190610167908990612eb5565b8152600f546001600160a01b0316600081815260038d0160209081526040909120549201916127939190610167908790612eb5565b815299546001600160a01b03166020909a019990995250969998505050505050505050565b604051806101c0016040528060008152602001600081526020016000815260200160008152602001600081526020016000815260200160008152602001600081526020016000815260200160008152602001600081526020016000815260200160008152602001336001600160a01b03168152509050919050565b919050565b6001600160a01b03811661289d5760405162461bcd60e51b815260206004820152602660248201527f4f776e61626c653a206e6577206f776e657220697320746865207a65726f206160448201526564647265737360d01b606482015260840161056f565b600080546040516001600160a01b03808516939216917f8be0079c531659141344cd1fd0a4f28419497f9722a3daafe3b4186f6b6457e091a3600080546001600160a01b0319166001600160a01b0392909216919091179055565b600080600080600061290986610493565b60608101516080820151909450925090506000808415612a4c57600061293486610483876064612d57565b905080600560010154111561296c5760065460075461295891906104839084612d57565b6005546129659190612eb5565b92506129b5565b6006546129989061297e906064612ea2565b60085460065461298e9085612ea2565b6104839190612d57565b6007546005546129a89190612eb5565b6129b29190612eb5565b92505b6002548110156129e8576002546003546129d491906104839084612d57565b6001546129e19190612eb5565b9150612a27565b600254612a0a906129fa906064612ea2565b60045460025461298e9085612ea2565b600354600154612a1a9190612eb5565b612a249190612eb5565b91505b601254612a349083612d57565b915060125483612a449190612d57565b925050612a71565b601254600154612a5c9190612d57565b601254600554919250612a6e91612d57565b91505b97909650945050505050565b604051806101c001604052806000815260200160008152602001600081526020016000815260200160008152602001600081526020016000815260200160008152602001600081526020016000815260200160008152602001600081526020016000815260200160006001600160a01b031681525090565b80356001600160a01b038116811461283357600080fd5b60008060408385031215612b1f57600080fd5b612b2883612af5565b946020939093013593505050565b600060208284031215612b4857600080fd5b611ec482612af5565b60a0810161048d828480518252602081015160208301526040810151604083015260608101516060830152608081015160808301525050565b805182526020810151602083015260408101516040830152606081015160608301526080810151608083015260a081015160a083015260c081015160c083015260e081015160e08301526101008082015181840152506101208082015181840152506101408082015181840152506101608082015181840152506101808082015181840152506101a080820151611126828501826001600160a01b03169052565b6020808252825182820181905260009190848201906040850190845b81811015612c6e57612c5a838551612b8a565b928401926101c09290920191600101612c47565b50909695505050505050565b600060208284031215612c8c57600080fd5b5035919050565b6101c0810161048d8284612b8a565b60008060008060808587031215612cb857600080fd5b5050823594602084013594506040840135936060013592509050565b6020808252825182820181905260009190848201906040850190845b81811015612c6e57612d2e83855180518252602081015160208301526040810151604083015260608101516060830152608081015160808301525050565b9284019260a09290920191600101612cf0565b634e487b7160e01b600052601160045260246000fd5b808202811582820484141761048d5761048d612d41565b6020808252818101527f4f776e61626c653a2063616c6c6572206973206e6f7420746865206f776e6572604082015260600190565b600060208284031215612db557600080fd5b81518015158114611ec457600080fd5b805169ffffffffffffffffffff8116811461283357600080fd5b600080600080600060a08688031215612df757600080fd5b612e0086612dc5565b9450602086015193506040860151925060608601519150612e2360808701612dc5565b90509295509295909350565b80820260008212600160ff1b84141615612e4b57612e4b612d41565b818105831482151761048d5761048d612d41565b60208082526023908201527f5573657220696e6465782073686f756c6420626520626967676572207468616e60408201526210181760e91b606082015260800190565b8181038181111561048d5761048d612d41565b8082018082111561048d5761048d612d41565b600082612ee557634e487b7160e01b600052601260045260246000fd5b500490565b634e487b7160e01b600052604160045260246000fd5b634e487b7160e01b600052603260045260246000fd5b600060018201612f2857612f28612d41565b506001019056fea26469706673582212203d6b5f5a8a106a13df75f21f622c873097392dcb94afda9f249ff538df4e481c64736f6c634300081200334f776e61626c653a2063616c6c6572206973206e6f7420746865206f776e6572","opcodes":"PUSH1 0x80 PUSH1 0x40 MSTORE PUSH1 0x3 PUSH1 0x10 SSTORE PUSH6 0x5AF3107A4000 PUSH1 0x11 SSTORE PUSH2 0x13D PUSH1 0x12 SSTORE PUSH1 0x13 DUP1 SLOAD PUSH1 0x1 PUSH1 0x1 PUSH1 0xA0 SHL SUB NOT AND PUSH20 0x245E775A46B1AADACBD48279CF0731CF186CF2B2 OR SWAP1 SSTORE CALLVALUE DUP1 ISZERO PUSH3 0x4C JUMPI PUSH1 0x0 DUP1 REVERT JUMPDEST POP PUSH1 0x40 MLOAD PUSH3 0x3295 CODESIZE SUB DUP1 PUSH3 0x3295 DUP4 CODECOPY DUP2 ADD PUSH1 0x40 DUP2 SWAP1 MSTORE PUSH3 0x6F SWAP2 PUSH3 0x28A JUMP JUMPDEST PUSH1 0x0 DUP1 SLOAD PUSH1 0x1 PUSH1 0x1 PUSH1 0xA0 SHL SUB NOT AND CALLER SWAP1 DUP2 OR DUP3 SSTORE PUSH1 0x40 MLOAD SWAP1 SWAP2 DUP3 SWAP2 PUSH32 0x8BE0079C531659141344CD1FD0A4F28419497F9722A3DAAFE3B4186F6B6457E0 SWAP1 DUP3 SWAP1 LOG3 POP PUSH1 0xD DUP1 SLOAD PUSH1 0x1 PUSH1 0x1 PUSH1 0xA0 SHL SUB DUP1 DUP7 AND PUSH1 0x1 PUSH1 0x1 PUSH1 0xA0 SHL SUB NOT SWAP3 DUP4 AND OR SWAP1 SWAP3 SSTORE PUSH1 0xE DUP1 SLOAD DUP6 DUP5 AND SWAP1 DUP4 AND DUP2 OR SWAP1 SWAP2 SSTORE PUSH1 0xF DUP1 SLOAD SWAP4 DUP6 AND SWAP4 SWAP1 SWAP3 AND SWAP3 SWAP1 SWAP3 OR SWAP1 SSTORE PUSH3 0x103 SWAP1 PUSH1 0x50 PUSH1 0x64 PUSH1 0xC8 PUSH1 0x0 DUP1 PUSH3 0x154 JUMP JUMPDEST PUSH1 0xF SLOAD PUSH3 0x123 SWAP1 PUSH1 0x1 PUSH1 0x1 PUSH1 0xA0 SHL SUB AND PUSH1 0x50 PUSH1 0x64 PUSH1 0xC8 PUSH1 0x0 DUP1 PUSH3 0x154 JUMP JUMPDEST PUSH3 0x137 PUSH1 0xC8 PUSH1 0x46 PUSH2 0x7D0 PUSH2 0x1770 PUSH3 0x1AB JUMP JUMPDEST PUSH3 0x14B PUSH1 0x64 PUSH1 0x46 PUSH2 0x3E8 PUSH2 0x7D0 PUSH3 0x20E JUMP JUMPDEST POP POP POP PUSH3 0x300 JUMP JUMPDEST PUSH1 0x1 PUSH1 0x1 PUSH1 0xA0 SHL SUB DUP7 AND PUSH1 0x0 SWAP1 DUP2 MSTORE PUSH1 0x9 PUSH1 0x20 MSTORE PUSH1 0x40 SWAP1 KECCAK256 DUP6 DUP2 SSTORE PUSH1 0x12 SLOAD PUSH3 0x17E SWAP1 DUP7 PUSH3 0x2D4 JUMP JUMPDEST PUSH1 0x1 DUP3 ADD SSTORE PUSH1 0x12 SLOAD PUSH3 0x192 SWAP1 DUP6 PUSH3 0x2D4 JUMP JUMPDEST PUSH1 0x2 DUP3 ADD SSTORE PUSH1 0x3 DUP2 ADD SWAP3 SWAP1 SWAP3 SSTORE PUSH1 0x4 SWAP1 SWAP2 ADD SSTORE POP POP POP POP JUMP JUMPDEST PUSH1 0x0 SLOAD PUSH1 0x1 PUSH1 0x1 PUSH1 0xA0 SHL SUB AND CALLER EQ PUSH3 0x1FA JUMPI PUSH1 0x40 MLOAD PUSH3 0x461BCD PUSH1 0xE5 SHL DUP2 MSTORE PUSH1 0x20 PUSH1 0x4 DUP3 ADD DUP2 SWAP1 MSTORE PUSH1 0x24 DUP3 ADD MSTORE PUSH1 0x0 DUP1 MLOAD PUSH1 0x20 PUSH3 0x3275 DUP4 CODECOPY DUP2 MLOAD SWAP2 MSTORE PUSH1 0x44 DUP3 ADD MSTORE PUSH1 0x64 ADD JUMPDEST PUSH1 0x40 MLOAD DUP1 SWAP2 SUB SWAP1 REVERT JUMPDEST PUSH1 0x5 SWAP4 SWAP1 SWAP4 SSTORE PUSH1 0x6 SWAP2 SWAP1 SWAP2 SSTORE PUSH1 0x7 SSTORE PUSH1 0x8 SSTORE JUMP JUMPDEST PUSH1 0x0 SLOAD PUSH1 0x1 PUSH1 0x1 PUSH1 0xA0 SHL SUB AND CALLER EQ PUSH3 0x259 JUMPI PUSH1 0x40 MLOAD PUSH3 0x461BCD PUSH1 0xE5 SHL DUP2 MSTORE PUSH1 0x20 PUSH1 0x4 DUP3 ADD DUP2 SWAP1 MSTORE PUSH1 0x24 DUP3 ADD MSTORE PUSH1 0x0 DUP1 MLOAD PUSH1 0x20 PUSH3 0x3275 DUP4 CODECOPY DUP2 MLOAD SWAP2 MSTORE PUSH1 0x44 DUP3 ADD MSTORE PUSH1 0x64 ADD PUSH3 0x1F1 JUMP JUMPDEST PUSH1 0x1 SWAP4 SWAP1 SWAP4 SSTORE PUSH1 0x2 SWAP2 SWAP1 SWAP2 SSTORE PUSH1 0x3 SSTORE PUSH1 0x4 SSTORE JUMP JUMPDEST DUP1 MLOAD PUSH1 0x1 PUSH1 0x1 PUSH1 0xA0 SHL SUB DUP2 AND DUP2 EQ PUSH3 0x285 JUMPI PUSH1 0x0 DUP1 REVERT JUMPDEST SWAP2 SWAP1 POP JUMP JUMPDEST PUSH1 0x0 DUP1 PUSH1 0x0 PUSH1 0x60 DUP5 DUP7 SUB SLT ISZERO PUSH3 0x2A0 JUMPI PUSH1 0x0 DUP1 REVERT JUMPDEST PUSH3 0x2AB DUP5 PUSH3 0x26D JUMP JUMPDEST SWAP3 POP PUSH3 0x2BB PUSH1 0x20 DUP6 ADD PUSH3 0x26D JUMP JUMPDEST SWAP2 POP PUSH3 0x2CB PUSH1 0x40 DUP6 ADD PUSH3 0x26D JUMP JUMPDEST SWAP1 POP SWAP3 POP SWAP3 POP SWAP3 JUMP JUMPDEST DUP1 DUP3 MUL DUP2 ISZERO DUP3 DUP3 DIV DUP5 EQ OR PUSH3 0x2FA JUMPI PUSH4 0x4E487B71 PUSH1 0xE0 SHL PUSH1 0x0 MSTORE PUSH1 0x11 PUSH1 0x4 MSTORE PUSH1 0x24 PUSH1 0x0 REVERT JUMPDEST SWAP3 SWAP2 POP POP JUMP JUMPDEST PUSH2 0x2F65 DUP1 PUSH3 0x310 PUSH1 0x0 CODECOPY PUSH1 0x0 RETURN INVALID PUSH1 0x80 PUSH1 0x40 MSTORE PUSH1 0x4 CALLDATASIZE LT PUSH2 0x143 JUMPI PUSH1 0x0 CALLDATALOAD PUSH1 0xE0 SHR DUP1 PUSH4 0x660FD831 GT PUSH2 0xB0 JUMPI DUP1 PUSH4 0xA079722D GT PUSH2 0x6C JUMPI DUP1 PUSH4 0xA079722D EQ PUSH2 0x387 JUMPI DUP1 PUSH4 0xA5FDC5DE EQ PUSH2 0x3A7 JUMPI DUP1 PUSH4 0xE124787F EQ PUSH2 0x3C7 JUMPI DUP1 PUSH4 0xF2FDE38B EQ PUSH2 0x3DC JUMPI DUP1 PUSH4 0xF3FEF3A3 EQ PUSH2 0x3FC JUMPI DUP1 PUSH4 0xFE96973A EQ PUSH2 0x41C JUMPI STOP JUMPDEST DUP1 PUSH4 0x660FD831 EQ PUSH2 0x2D3 JUMPI DUP1 PUSH4 0x68795862 EQ PUSH2 0x2F3 JUMPI DUP1 PUSH4 0x715018A6 EQ PUSH2 0x315 JUMPI DUP1 PUSH4 0x838AFB1E EQ PUSH2 0x32A JUMPI DUP1 PUSH4 0x8DA5CB5B EQ PUSH2 0x33F JUMPI DUP1 PUSH4 0x9B6C56EC EQ PUSH2 0x367 JUMPI STOP JUMPDEST DUP1 PUSH4 0x2F865568 GT PUSH2 0xFF JUMPI DUP1 PUSH4 0x2F865568 EQ PUSH2 0x21E JUMPI DUP1 PUSH4 0x47E7EF24 EQ PUSH2 0x231 JUMPI DUP1 PUSH4 0x4B8A3529 EQ PUSH2 0x244 JUMPI DUP1 PUSH4 0x5063E91A EQ PUSH2 0x264 JUMPI DUP1 PUSH4 0x616571E7 EQ PUSH2 0x286 JUMPI DUP1 PUSH4 0x6386C1C7 EQ PUSH2 0x2A6 JUMPI STOP JUMPDEST DUP1 PUSH4 0x5CB9FDE EQ PUSH2 0x14C JUMPI DUP1 PUSH4 0x6BFA938 EQ PUSH2 0x17F JUMPI DUP1 PUSH4 0x1698755F EQ PUSH2 0x1AC JUMPI DUP1 PUSH4 0x1C5A859B EQ PUSH2 0x1CC JUMPI DUP1 PUSH4 0x22867D78 EQ PUSH2 0x1E1 JUMPI DUP1 PUSH4 0x23341A05 EQ PUSH2 0x1F4 JUMPI STOP JUMPDEST CALLDATASIZE PUSH2 0x14A JUMPI STOP JUMPDEST STOP JUMPDEST CALLVALUE DUP1 ISZERO PUSH2 0x158 JUMPI PUSH1 0x0 DUP1 REVERT JUMPDEST POP PUSH2 0x16C PUSH2 0x167 CALLDATASIZE PUSH1 0x4 PUSH2 0x2B0C JUMP JUMPDEST PUSH2 0x43C JUMP JUMPDEST PUSH1 0x40 MLOAD SWAP1 DUP2 MSTORE PUSH1 0x20 ADD JUMPDEST PUSH1 0x40 MLOAD DUP1 SWAP2 SUB SWAP1 RETURN JUMPDEST CALLVALUE DUP1 ISZERO PUSH2 0x18B JUMPI PUSH1 0x0 DUP1 REVERT JUMPDEST POP PUSH2 0x19F PUSH2 0x19A CALLDATASIZE PUSH1 0x4 PUSH2 0x2B36 JUMP JUMPDEST PUSH2 0x493 JUMP JUMPDEST PUSH1 0x40 MLOAD PUSH2 0x176 SWAP2 SWAP1 PUSH2 0x2B51 JUMP JUMPDEST CALLVALUE DUP1 ISZERO PUSH2 0x1B8 JUMPI PUSH1 0x0 DUP1 REVERT JUMPDEST POP PUSH2 0x14A PUSH2 0x1C7 CALLDATASIZE PUSH1 0x4 PUSH2 0x2B0C JUMP JUMPDEST PUSH2 0x545 JUMP JUMPDEST CALLVALUE DUP1 ISZERO PUSH2 0x1D8 JUMPI PUSH1 0x0 DUP1 REVERT JUMPDEST POP PUSH2 0x16C PUSH2 0x60F JUMP JUMPDEST PUSH2 0x14A PUSH2 0x1EF CALLDATASIZE PUSH1 0x4 PUSH2 0x2B0C JUMP JUMPDEST PUSH2 0x6A0 JUMP JUMPDEST CALLVALUE DUP1 ISZERO PUSH2 0x200 JUMPI PUSH1 0x0 DUP1 REVERT JUMPDEST POP PUSH2 0x209 PUSH2 0x9D4 JUMP JUMPDEST PUSH1 0x40 DUP1 MLOAD SWAP3 DUP4 MSTORE PUSH1 0x20 DUP4 ADD SWAP2 SWAP1 SWAP2 MSTORE ADD PUSH2 0x176 JUMP JUMPDEST PUSH2 0x14A PUSH2 0x22C CALLDATASIZE PUSH1 0x4 PUSH2 0x2B36 JUMP JUMPDEST PUSH2 0xA5B JUMP JUMPDEST PUSH2 0x14A PUSH2 0x23F CALLDATASIZE PUSH1 0x4 PUSH2 0x2B0C JUMP JUMPDEST PUSH2 0xEEB JUMP JUMPDEST CALLVALUE DUP1 ISZERO PUSH2 0x250 JUMPI PUSH1 0x0 DUP1 REVERT JUMPDEST POP PUSH2 0x14A PUSH2 0x25F CALLDATASIZE PUSH1 0x4 PUSH2 0x2B0C JUMP JUMPDEST PUSH2 0x112C JUMP JUMPDEST CALLVALUE DUP1 ISZERO PUSH2 0x270 JUMPI PUSH1 0x0 DUP1 REVERT JUMPDEST POP PUSH2 0x279 PUSH2 0x1479 JUMP JUMPDEST PUSH1 0x40 MLOAD PUSH2 0x176 SWAP2 SWAP1 PUSH2 0x2C2B JUMP JUMPDEST CALLVALUE DUP1 ISZERO PUSH2 0x292 JUMPI PUSH1 0x0 DUP1 REVERT JUMPDEST POP PUSH2 0x14A PUSH2 0x2A1 CALLDATASIZE PUSH1 0x4 PUSH2 0x2C7A JUMP JUMPDEST PUSH2 0x1535 JUMP JUMPDEST CALLVALUE DUP1 ISZERO PUSH2 0x2B2 JUMPI PUSH1 0x0 DUP1 REVERT JUMPDEST POP PUSH2 0x2C6 PUSH2 0x2C1 CALLDATASIZE PUSH1 0x4 PUSH2 0x2B36 JUMP JUMPDEST PUSH2 0x1564 JUMP JUMPDEST PUSH1 0x40 MLOAD PUSH2 0x176 SWAP2 SWAP1 PUSH2 0x2C93 JUMP JUMPDEST CALLVALUE DUP1 ISZERO PUSH2 0x2DF JUMPI PUSH1 0x0 DUP1 REVERT JUMPDEST POP PUSH2 0x14A PUSH2 0x2EE CALLDATASIZE PUSH1 0x4 PUSH2 0x2CA2 JUMP JUMPDEST PUSH2 0x1597 JUMP JUMPDEST CALLVALUE DUP1 ISZERO PUSH2 0x2FF JUMPI PUSH1 0x0 DUP1 REVERT JUMPDEST POP PUSH2 0x308 PUSH2 0x15D5 JUMP JUMPDEST PUSH1 0x40 MLOAD PUSH2 0x176 SWAP2 SWAP1 PUSH2 0x2CD4 JUMP JUMPDEST CALLVALUE DUP1 ISZERO PUSH2 0x321 JUMPI PUSH1 0x0 DUP1 REVERT JUMPDEST POP PUSH2 0x14A PUSH2 0x177D JUMP JUMPDEST CALLVALUE DUP1 ISZERO PUSH2 0x336 JUMPI PUSH1 0x0 DUP1 REVERT JUMPDEST POP PUSH2 0x14A PUSH2 0x17F1 JUMP JUMPDEST CALLVALUE DUP1 ISZERO PUSH2 0x34B JUMPI PUSH1 0x0 DUP1 REVERT JUMPDEST POP PUSH1 0x0 SLOAD PUSH1 0x40 MLOAD PUSH1 0x1 PUSH1 0x1 PUSH1 0xA0 SHL SUB SWAP1 SWAP2 AND DUP2 MSTORE PUSH1 0x20 ADD PUSH2 0x176 JUMP JUMPDEST CALLVALUE DUP1 ISZERO PUSH2 0x373 JUMPI PUSH1 0x0 DUP1 REVERT JUMPDEST POP PUSH2 0x16C PUSH2 0x382 CALLDATASIZE PUSH1 0x4 PUSH2 0x2B36 JUMP JUMPDEST PUSH2 0x18BC JUMP JUMPDEST CALLVALUE DUP1 ISZERO PUSH2 0x393 JUMPI PUSH1 0x0 DUP1 REVERT JUMPDEST POP PUSH2 0x14A PUSH2 0x3A2 CALLDATASIZE PUSH1 0x4 PUSH2 0x2CA2 JUMP JUMPDEST PUSH2 0x196A JUMP JUMPDEST CALLVALUE DUP1 ISZERO PUSH2 0x3B3 JUMPI PUSH1 0x0 DUP1 REVERT JUMPDEST POP PUSH2 0x16C PUSH2 0x3C2 CALLDATASIZE PUSH1 0x4 PUSH2 0x2B36 JUMP JUMPDEST PUSH2 0x19A8 JUMP JUMPDEST CALLVALUE DUP1 ISZERO PUSH2 0x3D3 JUMPI PUSH1 0x0 DUP1 REVERT JUMPDEST POP PUSH1 0x10 SLOAD PUSH2 0x16C JUMP JUMPDEST CALLVALUE DUP1 ISZERO PUSH2 0x3E8 JUMPI PUSH1 0x0 DUP1 REVERT JUMPDEST POP PUSH2 0x14A PUSH2 0x3F7 CALLDATASIZE PUSH1 0x4 PUSH2 0x2B36 JUMP JUMPDEST PUSH2 0x1A41 JUMP JUMPDEST CALLVALUE DUP1 ISZERO PUSH2 0x408 JUMPI PUSH1 0x0 DUP1 REVERT JUMPDEST POP PUSH2 0x14A PUSH2 0x417 CALLDATASIZE PUSH1 0x4 PUSH2 0x2B0C JUMP JUMPDEST PUSH2 0x1A77 JUMP JUMPDEST CALLVALUE DUP1 ISZERO PUSH2 0x428 JUMPI PUSH1 0x0 DUP1 REVERT JUMPDEST POP PUSH2 0x14A PUSH2 0x437 CALLDATASIZE PUSH1 0x4 PUSH2 0x2C7A JUMP JUMPDEST PUSH2 0x1DF0 JUMP JUMPDEST PUSH1 0xF SLOAD PUSH1 0x0 SWAP1 PUSH1 0x1 PUSH1 0x1 PUSH1 0xA0 SHL SUB SWAP1 DUP2 AND SWAP1 DUP5 AND SUB PUSH2 0x45C JUMPI POP DUP1 PUSH2 0x48D JUMP JUMPDEST PUSH1 0x0 PUSH2 0x466 PUSH2 0x60F JUMP JUMPDEST SWAP1 POP PUSH2 0x489 PUSH13 0xC9F2C9CD04674EDEA40000000 PUSH2 0x483 DUP6 DUP5 PUSH2 0x2D57 JUMP JUMPDEST SWAP1 PUSH2 0x1EB8 JUMP JUMPDEST SWAP2 POP POP JUMPDEST SWAP3 SWAP2 POP POP JUMP JUMPDEST PUSH2 0x4C5 PUSH1 0x40 MLOAD DUP1 PUSH1 0xA0 ADD PUSH1 0x40 MSTORE DUP1 PUSH1 0x0 DUP2 MSTORE PUSH1 0x20 ADD PUSH1 0x0 DUP2 MSTORE PUSH1 0x20 ADD PUSH1 0x0 DUP2 MSTORE PUSH1 0x20 ADD PUSH1 0x0 DUP2 MSTORE PUSH1 0x20 ADD PUSH1 0x0 DUP2 MSTORE POP SWAP1 JUMP JUMPDEST PUSH1 0x1 PUSH1 0x1 PUSH1 0xA0 SHL SUB DUP3 AND PUSH1 0x0 SWAP1 DUP2 MSTORE PUSH1 0x9 PUSH1 0x20 SWAP1 DUP2 MSTORE PUSH1 0x40 SWAP2 DUP3 SWAP1 KECCAK256 DUP3 MLOAD PUSH1 0xA0 DUP2 ADD DUP5 MSTORE DUP2 SLOAD DUP2 MSTORE PUSH1 0x1 DUP3 ADD SLOAD SWAP3 DUP2 ADD DUP4 SWAP1 MSTORE PUSH1 0x2 DUP3 ADD SLOAD SWAP4 DUP2 ADD SWAP4 SWAP1 SWAP4 MSTORE PUSH1 0x3 DUP2 ADD SLOAD PUSH1 0x60 DUP5 ADD MSTORE PUSH1 0x4 ADD SLOAD PUSH1 0x80 DUP4 ADD MSTORE PUSH1 0x12 SLOAD PUSH2 0x524 SWAP2 SWAP1 PUSH2 0x1EB8 JUMP JUMPDEST PUSH1 0x20 DUP3 ADD MSTORE PUSH1 0x12 SLOAD PUSH1 0x40 DUP3 ADD MLOAD PUSH2 0x53A SWAP2 PUSH2 0x1EB8 JUMP JUMPDEST PUSH1 0x40 DUP3 ADD MSTORE SWAP3 SWAP2 POP POP JUMP JUMPDEST PUSH1 0x0 SLOAD PUSH1 0x1 PUSH1 0x1 PUSH1 0xA0 SHL SUB AND CALLER EQ PUSH2 0x578 JUMPI PUSH1 0x40 MLOAD PUSH3 0x461BCD PUSH1 0xE5 SHL DUP2 MSTORE PUSH1 0x4 ADD PUSH2 0x56F SWAP1 PUSH2 0x2D6E JUMP JUMPDEST PUSH1 0x40 MLOAD DUP1 SWAP2 SUB SWAP1 REVERT JUMPDEST DUP2 PUSH1 0x1 PUSH1 0x1 PUSH1 0xA0 SHL SUB AND PUSH4 0xA9059CBB PUSH2 0x599 PUSH1 0x0 SLOAD PUSH1 0x1 PUSH1 0x1 PUSH1 0xA0 SHL SUB AND SWAP1 JUMP JUMPDEST PUSH1 0x40 MLOAD PUSH1 0x1 PUSH1 0x1 PUSH1 0xE0 SHL SUB NOT PUSH1 0xE0 DUP5 SWAP1 SHL AND DUP2 MSTORE PUSH1 0x1 PUSH1 0x1 PUSH1 0xA0 SHL SUB SWAP1 SWAP2 AND PUSH1 0x4 DUP3 ADD MSTORE PUSH1 0x24 DUP2 ADD DUP5 SWAP1 MSTORE PUSH1 0x44 ADD PUSH1 0x20 PUSH1 0x40 MLOAD DUP1 DUP4 SUB DUP2 PUSH1 0x0 DUP8 GAS CALL ISZERO DUP1 ISZERO PUSH2 0x5E6 JUMPI RETURNDATASIZE PUSH1 0x0 DUP1 RETURNDATACOPY RETURNDATASIZE PUSH1 0x0 REVERT JUMPDEST POP POP POP POP PUSH1 0x40 MLOAD RETURNDATASIZE PUSH1 0x1F NOT PUSH1 0x1F DUP3 ADD AND DUP3 ADD DUP1 PUSH1 0x40 MSTORE POP DUP2 ADD SWAP1 PUSH2 0x60A SWAP2 SWAP1 PUSH2 0x2DA3 JUMP JUMPDEST POP POP POP JUMP JUMPDEST PUSH1 0x0 DUP1 PUSH1 0x13 PUSH1 0x0 SWAP1 SLOAD SWAP1 PUSH2 0x100 EXP SWAP1 DIV PUSH1 0x1 PUSH1 0x1 PUSH1 0xA0 SHL SUB AND PUSH1 0x1 PUSH1 0x1 PUSH1 0xA0 SHL SUB AND PUSH4 0xFEAF968C PUSH1 0x40 MLOAD DUP2 PUSH4 0xFFFFFFFF AND PUSH1 0xE0 SHL DUP2 MSTORE PUSH1 0x4 ADD PUSH1 0xA0 PUSH1 0x40 MLOAD DUP1 DUP4 SUB DUP2 DUP7 GAS STATICCALL ISZERO DUP1 ISZERO PUSH2 0x665 JUMPI RETURNDATASIZE PUSH1 0x0 DUP1 RETURNDATACOPY RETURNDATASIZE PUSH1 0x0 REVERT JUMPDEST POP POP POP POP PUSH1 0x40 MLOAD RETURNDATASIZE PUSH1 0x1F NOT PUSH1 0x1F DUP3 ADD AND DUP3 ADD DUP1 PUSH1 0x40 MSTORE POP DUP2 ADD SWAP1 PUSH2 0x689 SWAP2 SWAP1 PUSH2 0x2DDF JUMP JUMPDEST POP POP POP SWAP2 POP POP DUP1 PUSH5 0x2540BE400 PUSH2 0x48D SWAP2 SWAP1 PUSH2 0x2E2F JUMP JUMPDEST PUSH2 0x6A9 CALLER PUSH2 0x1ECB JUMP JUMPDEST PUSH1 0x0 DUP2 GT PUSH2 0x6E9 JUMPI PUSH1 0x40 MLOAD PUSH3 0x461BCD PUSH1 0xE5 SHL DUP2 MSTORE PUSH1 0x20 PUSH1 0x4 DUP3 ADD MSTORE PUSH1 0xD PUSH1 0x24 DUP3 ADD MSTORE PUSH13 0x63616E2774207265706179203 PUSH1 0x9C SHL PUSH1 0x44 DUP3 ADD MSTORE PUSH1 0x64 ADD PUSH2 0x56F JUMP JUMPDEST CALLER PUSH1 0x0 SWAP1 DUP2 MSTORE PUSH1 0xC PUSH1 0x20 MSTORE PUSH1 0x40 SWAP1 KECCAK256 SLOAD DUP1 PUSH2 0x716 JUMPI PUSH1 0x40 MLOAD PUSH3 0x461BCD PUSH1 0xE5 SHL DUP2 MSTORE PUSH1 0x4 ADD PUSH2 0x56F SWAP1 PUSH2 0x2E5F JUMP JUMPDEST PUSH1 0x0 DUP2 DUP2 MSTORE PUSH1 0xB PUSH1 0x20 SWAP1 DUP2 MSTORE PUSH1 0x40 DUP1 DUP4 KECCAK256 PUSH1 0x1 PUSH1 0x1 PUSH1 0xA0 SHL SUB DUP8 AND DUP5 MSTORE PUSH1 0x5 DUP2 ADD SWAP1 SWAP3 MSTORE DUP3 KECCAK256 SLOAD SWAP1 SWAP2 SWAP1 DUP5 LT ISZERO PUSH2 0x77C JUMPI PUSH1 0x1 PUSH1 0x1 PUSH1 0xA0 SHL SUB DUP6 AND PUSH1 0x0 SWAP1 DUP2 MSTORE PUSH1 0x5 DUP4 ADD PUSH1 0x20 MSTORE PUSH1 0x40 DUP2 KECCAK256 DUP1 SLOAD DUP7 SWAP3 SWAP1 PUSH2 0x771 SWAP1 DUP5 SWAP1 PUSH2 0x2EA2 JUMP JUMPDEST SWAP1 SWAP2 SSTORE POP PUSH2 0x84A SWAP1 POP JUMP JUMPDEST PUSH1 0x1 PUSH1 0x1 PUSH1 0xA0 SHL SUB DUP6 AND PUSH1 0x0 SWAP1 DUP2 MSTORE PUSH1 0x3 DUP4 ADD PUSH1 0x20 SWAP1 DUP2 MSTORE PUSH1 0x40 DUP1 DUP4 KECCAK256 SLOAD PUSH1 0x5 DUP7 ADD SWAP1 SWAP3 MSTORE SWAP1 SWAP2 KECCAK256 SLOAD PUSH2 0x7AF SWAP2 SWAP1 PUSH2 0x2EB5 JUMP JUMPDEST DUP5 GT ISZERO PUSH2 0x7D7 JUMPI POP PUSH1 0x1 PUSH1 0x1 PUSH1 0xA0 SHL SUB DUP5 AND PUSH1 0x0 SWAP1 DUP2 MSTORE PUSH1 0x3 DUP3 ADD PUSH1 0x20 MSTORE PUSH1 0x40 SWAP1 KECCAK256 SLOAD PUSH2 0x7FF JUMP JUMPDEST PUSH1 0x1 PUSH1 0x1 PUSH1 0xA0 SHL SUB DUP6 AND PUSH1 0x0 SWAP1 DUP2 MSTORE PUSH1 0x5 DUP4 ADD PUSH1 0x20 MSTORE PUSH1 0x40 SWAP1 KECCAK256 SLOAD PUSH2 0x7FC SWAP1 DUP6 PUSH2 0x2EA2 JUMP JUMPDEST SWAP1 POP JUMPDEST PUSH1 0x1 PUSH1 0x1 PUSH1 0xA0 SHL SUB DUP6 AND PUSH1 0x0 SWAP1 DUP2 MSTORE PUSH1 0x3 DUP4 ADD PUSH1 0x20 MSTORE PUSH1 0x40 DUP2 KECCAK256 DUP1 SLOAD DUP4 SWAP3 SWAP1 PUSH2 0x829 SWAP1 DUP5 SWAP1 PUSH2 0x2EA2 JUMP JUMPDEST SWAP1 SWAP2 SSTORE POP POP PUSH1 0x1 PUSH1 0x1 PUSH1 0xA0 SHL SUB DUP6 AND PUSH1 0x0 SWAP1 DUP2 MSTORE PUSH1 0x5 DUP4 ADD PUSH1 0x20 MSTORE PUSH1 0x40 DUP2 KECCAK256 SSTORE JUMPDEST PUSH1 0xF SLOAD PUSH1 0x1 PUSH1 0x1 PUSH1 0xA0 SHL SUB SWAP1 DUP2 AND SWAP1 DUP7 AND SUB PUSH2 0x94E JUMPI PUSH1 0xF SLOAD PUSH1 0x40 MLOAD PUSH4 0x23B872DD PUSH1 0xE0 SHL DUP2 MSTORE CALLER PUSH1 0x4 DUP3 ADD MSTORE ADDRESS PUSH1 0x24 DUP3 ADD MSTORE PUSH1 0x44 DUP2 ADD DUP7 SWAP1 MSTORE PUSH1 0x1 PUSH1 0x1 PUSH1 0xA0 SHL SUB SWAP1 SWAP2 AND SWAP1 PUSH4 0x23B872DD SWAP1 PUSH1 0x64 ADD PUSH1 0x20 PUSH1 0x40 MLOAD DUP1 DUP4 SUB DUP2 PUSH1 0x0 DUP8 GAS CALL ISZERO DUP1 ISZERO PUSH2 0x8B7 JUMPI RETURNDATASIZE PUSH1 0x0 DUP1 RETURNDATACOPY RETURNDATASIZE PUSH1 0x0 REVERT JUMPDEST POP POP POP POP PUSH1 0x40 MLOAD RETURNDATASIZE PUSH1 0x1F NOT PUSH1 0x1F DUP3 ADD AND DUP3 ADD DUP1 PUSH1 0x40 MSTORE POP DUP2 ADD SWAP1 PUSH2 0x8DB SWAP2 SWAP1 PUSH2 0x2DA3 JUMP JUMPDEST PUSH2 0x916 JUMPI PUSH1 0x40 MLOAD PUSH3 0x461BCD PUSH1 0xE5 SHL DUP2 MSTORE PUSH1 0x20 PUSH1 0x4 DUP3 ADD MSTORE PUSH1 0xC PUSH1 0x24 DUP3 ADD MSTORE PUSH12 0x14995C185E4819985A5B1959 PUSH1 0xA2 SHL PUSH1 0x44 DUP3 ADD MSTORE PUSH1 0x64 ADD PUSH2 0x56F JUMP JUMPDEST PUSH1 0xF SLOAD PUSH1 0x1 PUSH1 0x1 PUSH1 0xA0 SHL SUB AND PUSH1 0x0 SWAP1 DUP2 MSTORE PUSH1 0x9 PUSH1 0x20 MSTORE PUSH1 0x40 DUP2 KECCAK256 PUSH1 0x4 ADD DUP1 SLOAD DUP4 SWAP3 SWAP1 PUSH2 0x943 SWAP1 DUP5 SWAP1 PUSH2 0x2EA2 JUMP JUMPDEST SWAP1 SWAP2 SSTORE POP PUSH2 0x9C4 SWAP1 POP JUMP JUMPDEST DUP4 CALLVALUE LT ISZERO PUSH2 0x991 JUMPI PUSH1 0x40 MLOAD PUSH3 0x461BCD PUSH1 0xE5 SHL DUP2 MSTORE PUSH1 0x20 PUSH1 0x4 DUP3 ADD MSTORE PUSH1 0x10 PUSH1 0x24 DUP3 ADD MSTORE PUSH16 0x283632B0B9B2903830BC9036B7B93297 PUSH1 0x81 SHL PUSH1 0x44 DUP3 ADD MSTORE PUSH1 0x64 ADD PUSH2 0x56F JUMP JUMPDEST PUSH1 0xE SLOAD PUSH1 0x1 PUSH1 0x1 PUSH1 0xA0 SHL SUB AND PUSH1 0x0 SWAP1 DUP2 MSTORE PUSH1 0x9 PUSH1 0x20 MSTORE PUSH1 0x40 DUP2 KECCAK256 PUSH1 0x4 ADD DUP1 SLOAD DUP4 SWAP3 SWAP1 PUSH2 0x9BE SWAP1 DUP5 SWAP1 PUSH2 0x2EA2 JUMP JUMPDEST SWAP1 SWAP2 SSTORE POP POP JUMPDEST PUSH2 0x9CD CALLER PUSH2 0x1ECB JUMP JUMPDEST POP POP POP POP POP JUMP JUMPDEST PUSH1 0xE SLOAD PUSH1 0x1 PUSH1 0x1 PUSH1 0xA0 SHL SUB SWAP1 DUP2 AND PUSH1 0x0 DUP2 DUP2 MSTORE PUSH1 0x9 PUSH1 0x20 MSTORE PUSH1 0x40 DUP1 DUP3 KECCAK256 PUSH1 0xF SLOAD SWAP1 SWAP5 AND DUP3 MSTORE DUP2 KECCAK256 PUSH1 0x3 DUP1 DUP3 ADD SLOAD SWAP1 DUP6 ADD SLOAD SWAP3 SWAP5 DUP6 SWAP5 SWAP1 SWAP4 PUSH2 0xA15 SWAP2 SWAP1 PUSH2 0x43C JUMP JUMPDEST PUSH2 0xA1F SWAP2 SWAP1 PUSH2 0x2EB5 JUMP JUMPDEST DUP2 PUSH1 0x4 ADD SLOAD PUSH2 0xA47 PUSH1 0xE PUSH1 0x0 SWAP1 SLOAD SWAP1 PUSH2 0x100 EXP SWAP1 DIV PUSH1 0x1 PUSH1 0x1 PUSH1 0xA0 SHL SUB AND DUP6 PUSH1 0x4 ADD SLOAD PUSH2 0x43C JUMP JUMPDEST PUSH2 0xA51 SWAP2 SWAP1 PUSH2 0x2EB5 JUMP JUMPDEST SWAP4 POP SWAP4 POP POP POP SWAP1 SWAP2 JUMP JUMPDEST PUSH1 0x1 PUSH1 0x1 PUSH1 0xA0 SHL SUB DUP2 AND PUSH1 0x0 SWAP1 DUP2 MSTORE PUSH1 0xC PUSH1 0x20 MSTORE PUSH1 0x40 SWAP1 KECCAK256 SLOAD DUP1 PUSH2 0xA91 JUMPI PUSH1 0x40 MLOAD PUSH3 0x461BCD PUSH1 0xE5 SHL DUP2 MSTORE PUSH1 0x4 ADD PUSH2 0x56F SWAP1 PUSH2 0x2E5F JUMP JUMPDEST PUSH1 0x0 DUP2 DUP2 MSTORE PUSH1 0xB PUSH1 0x20 MSTORE PUSH1 0x40 DUP2 KECCAK256 SWAP1 PUSH2 0xAA9 DUP5 PUSH2 0x19A8 JUMP JUMPDEST SWAP1 POP PUSH1 0x0 PUSH2 0xAB6 DUP6 PUSH2 0x18BC JUMP JUMPDEST SWAP1 POP PUSH1 0x0 PUSH2 0xAE1 PUSH1 0x10 SLOAD DUP5 PUSH2 0xACB SWAP2 SWAP1 PUSH2 0x2D57 JUMP JUMPDEST PUSH2 0xAD6 DUP5 PUSH1 0x64 PUSH2 0x2D57 JUMP JUMPDEST PUSH2 0x483 SWAP1 PUSH1 0x64 PUSH2 0x2D57 JUMP JUMPDEST SWAP1 POP PUSH1 0x64 DUP2 GT PUSH2 0xB33 JUMPI PUSH1 0x40 MLOAD PUSH3 0x461BCD PUSH1 0xE5 SHL DUP2 MSTORE PUSH1 0x20 PUSH1 0x4 DUP3 ADD MSTORE PUSH1 0x1F PUSH1 0x24 DUP3 ADD MSTORE PUSH32 0x54686973206973206E6F7420656E61626C6564206C69717569646174696F6E00 PUSH1 0x44 DUP3 ADD MSTORE PUSH1 0x64 ADD PUSH2 0x56F JUMP JUMPDEST PUSH1 0xE SLOAD PUSH1 0x1 PUSH1 0x1 PUSH1 0xA0 SHL SUB AND PUSH1 0x0 SWAP1 DUP2 MSTORE PUSH1 0x4 DUP6 ADD PUSH1 0x20 SWAP1 DUP2 MSTORE PUSH1 0x40 DUP1 DUP4 KECCAK256 SLOAD PUSH1 0x2 DUP9 ADD SWAP1 SWAP3 MSTORE DUP3 KECCAK256 SLOAD PUSH2 0xB67 SWAP2 SWAP1 PUSH2 0x2EB5 JUMP JUMPDEST PUSH1 0xF SLOAD PUSH1 0x1 PUSH1 0x1 PUSH1 0xA0 SHL SUB AND PUSH1 0x0 SWAP1 DUP2 MSTORE PUSH1 0x4 DUP8 ADD PUSH1 0x20 SWAP1 DUP2 MSTORE PUSH1 0x40 DUP1 DUP4 KECCAK256 SLOAD PUSH1 0x2 DUP11 ADD SWAP1 SWAP3 MSTORE DUP3 KECCAK256 SLOAD SWAP3 SWAP4 POP SWAP1 SWAP2 PUSH2 0xBA0 SWAP2 SWAP1 PUSH2 0x2EB5 JUMP JUMPDEST PUSH1 0xE SLOAD PUSH1 0x1 PUSH1 0x1 PUSH1 0xA0 SHL SUB AND PUSH1 0x0 SWAP1 DUP2 MSTORE PUSH1 0x5 DUP9 ADD PUSH1 0x20 SWAP1 DUP2 MSTORE PUSH1 0x40 DUP1 DUP4 KECCAK256 SLOAD PUSH1 0x3 DUP12 ADD SWAP1 SWAP3 MSTORE DUP3 KECCAK256 SLOAD SWAP3 SWAP4 POP SWAP1 SWAP2 PUSH2 0xBD9 SWAP2 SWAP1 PUSH2 0x2EB5 JUMP JUMPDEST PUSH1 0xF SLOAD PUSH1 0x1 PUSH1 0x1 PUSH1 0xA0 SHL SUB AND PUSH1 0x0 SWAP1 DUP2 MSTORE PUSH1 0x5 DUP10 ADD PUSH1 0x20 SWAP1 DUP2 MSTORE PUSH1 0x40 DUP1 DUP4 KECCAK256 SLOAD PUSH1 0x3 DUP13 ADD SWAP1 SWAP3 MSTORE DUP3 KECCAK256 SLOAD SWAP3 SWAP4 POP SWAP1 SWAP2 PUSH2 0xC12 SWAP2 SWAP1 PUSH2 0x2EB5 JUMP JUMPDEST SWAP1 POP PUSH2 0xC20 DUP3 PUSH2 0x2710 PUSH2 0x1EB8 JUMP JUMPDEST PUSH2 0xC2C SWAP1 PUSH2 0x270F PUSH2 0x2D57 JUMP JUMPDEST CALLVALUE LT ISZERO PUSH2 0xC6C JUMPI PUSH1 0x40 MLOAD PUSH3 0x461BCD PUSH1 0xE5 SHL DUP2 MSTORE PUSH1 0x20 PUSH1 0x4 DUP3 ADD MSTORE PUSH1 0xE PUSH1 0x24 DUP3 ADD MSTORE PUSH14 0x9CDEE840CADCDEEACED040CAE8D PUSH1 0x93 SHL PUSH1 0x44 DUP3 ADD MSTORE PUSH1 0x64 ADD PUSH2 0x56F JUMP JUMPDEST PUSH1 0xF SLOAD PUSH1 0x1 PUSH1 0x1 PUSH1 0xA0 SHL SUB AND PUSH4 0x23B872DD CALLER ADDRESS PUSH2 0xC8B DUP6 PUSH2 0x2710 PUSH2 0x1EB8 JUMP JUMPDEST PUSH2 0xC97 SWAP1 PUSH2 0x270F PUSH2 0x2D57 JUMP JUMPDEST PUSH1 0x40 MLOAD PUSH1 0x1 PUSH1 0x1 PUSH1 0xE0 SHL SUB NOT PUSH1 0xE0 DUP7 SWAP1 SHL AND DUP2 MSTORE PUSH1 0x1 PUSH1 0x1 PUSH1 0xA0 SHL SUB SWAP4 DUP5 AND PUSH1 0x4 DUP3 ADD MSTORE SWAP3 SWAP1 SWAP2 AND PUSH1 0x24 DUP4 ADD MSTORE PUSH1 0x44 DUP3 ADD MSTORE PUSH1 0x64 ADD PUSH1 0x20 PUSH1 0x40 MLOAD DUP1 DUP4 SUB DUP2 PUSH1 0x0 DUP8 GAS CALL ISZERO DUP1 ISZERO PUSH2 0xCEB JUMPI RETURNDATASIZE PUSH1 0x0 DUP1 RETURNDATACOPY RETURNDATASIZE PUSH1 0x0 REVERT JUMPDEST POP POP POP POP PUSH1 0x40 MLOAD RETURNDATASIZE PUSH1 0x1F NOT PUSH1 0x1F DUP3 ADD AND DUP3 ADD DUP1 PUSH1 0x40 MSTORE POP DUP2 ADD SWAP1 PUSH2 0xD0F SWAP2 SWAP1 PUSH2 0x2DA3 JUMP JUMPDEST PUSH2 0xD4C JUMPI PUSH1 0x40 MLOAD PUSH3 0x461BCD PUSH1 0xE5 SHL DUP2 MSTORE PUSH1 0x20 PUSH1 0x4 DUP3 ADD MSTORE PUSH1 0xE PUSH1 0x24 DUP3 ADD MSTORE PUSH14 0x19195C1BDCDA5D0819985A5B1959 PUSH1 0x92 SHL PUSH1 0x44 DUP3 ADD MSTORE PUSH1 0x64 ADD PUSH2 0x56F JUMP JUMPDEST PUSH1 0x40 MLOAD PUSH1 0x0 SWAP1 CALLER SWAP1 DUP7 SWAP1 DUP4 DUP2 DUP2 DUP2 DUP6 DUP8 GAS CALL SWAP3 POP POP POP RETURNDATASIZE DUP1 PUSH1 0x0 DUP2 EQ PUSH2 0xD8E JUMPI PUSH1 0x40 MLOAD SWAP2 POP PUSH1 0x1F NOT PUSH1 0x3F RETURNDATASIZE ADD AND DUP3 ADD PUSH1 0x40 MSTORE RETURNDATASIZE DUP3 MSTORE RETURNDATASIZE PUSH1 0x0 PUSH1 0x20 DUP5 ADD RETURNDATACOPY PUSH2 0xD93 JUMP JUMPDEST PUSH1 0x60 SWAP2 POP JUMPDEST POP POP SWAP1 POP DUP1 PUSH2 0xDDA JUMPI PUSH1 0x40 MLOAD PUSH3 0x461BCD PUSH1 0xE5 SHL DUP2 MSTORE PUSH1 0x20 PUSH1 0x4 DUP3 ADD MSTORE PUSH1 0x13 PUSH1 0x24 DUP3 ADD MSTORE PUSH19 0x3330B4B632B2103A379039B2B7321032BA3417 PUSH1 0x69 SHL PUSH1 0x44 DUP3 ADD MSTORE PUSH1 0x64 ADD PUSH2 0x56F JUMP JUMPDEST PUSH1 0xF SLOAD PUSH1 0x40 MLOAD PUSH4 0xA9059CBB PUSH1 0xE0 SHL DUP2 MSTORE CALLER PUSH1 0x4 DUP3 ADD MSTORE PUSH1 0x24 DUP2 ADD DUP7 SWAP1 MSTORE PUSH1 0x1 PUSH1 0x1 PUSH1 0xA0 SHL SUB SWAP1 SWAP2 AND SWAP1 PUSH4 0xA9059CBB SWAP1 PUSH1 0x44 ADD PUSH1 0x20 PUSH1 0x40 MLOAD DUP1 DUP4 SUB DUP2 PUSH1 0x0 DUP8 GAS CALL ISZERO DUP1 ISZERO PUSH2 0xE2B JUMPI RETURNDATASIZE PUSH1 0x0 DUP1 RETURNDATACOPY RETURNDATASIZE PUSH1 0x0 REVERT JUMPDEST POP POP POP POP PUSH1 0x40 MLOAD RETURNDATASIZE PUSH1 0x1F NOT PUSH1 0x1F DUP3 ADD AND DUP3 ADD DUP1 PUSH1 0x40 MSTORE POP DUP2 ADD SWAP1 PUSH2 0xE4F SWAP2 SWAP1 PUSH2 0x2DA3 JUMP JUMPDEST POP PUSH1 0xD SLOAD PUSH1 0x6 DUP11 ADD SLOAD PUSH1 0x40 MLOAD PUSH4 0xA9059CBB PUSH1 0xE0 SHL DUP2 MSTORE CALLER PUSH1 0x4 DUP3 ADD MSTORE PUSH1 0x24 DUP2 ADD SWAP2 SWAP1 SWAP2 MSTORE PUSH1 0x1 PUSH1 0x1 PUSH1 0xA0 SHL SUB SWAP1 SWAP2 AND SWAP1 PUSH4 0xA9059CBB SWAP1 PUSH1 0x44 ADD PUSH1 0x20 PUSH1 0x40 MLOAD DUP1 DUP4 SUB DUP2 PUSH1 0x0 DUP8 GAS CALL ISZERO DUP1 ISZERO PUSH2 0xEA7 JUMPI RETURNDATASIZE PUSH1 0x0 DUP1 RETURNDATACOPY RETURNDATASIZE PUSH1 0x0 REVERT JUMPDEST POP POP POP POP PUSH1 0x40 MLOAD RETURNDATASIZE PUSH1 0x1F NOT PUSH1 0x1F DUP3 ADD AND DUP3 ADD DUP1 PUSH1 0x40 MSTORE POP DUP2 ADD SWAP1 PUSH2 0xECB SWAP2 SWAP1 PUSH2 0x2DA3 JUMP JUMPDEST POP PUSH2 0xED5 DUP12 PUSH2 0x2055 JUMP JUMPDEST PUSH2 0xEDE CALLER PUSH2 0x1ECB JUMP JUMPDEST POP POP POP POP POP POP POP POP POP POP POP JUMP JUMPDEST PUSH1 0x0 DUP2 GT PUSH2 0xF2D JUMPI PUSH1 0x40 MLOAD PUSH3 0x461BCD PUSH1 0xE5 SHL DUP2 MSTORE PUSH1 0x20 PUSH1 0x4 DUP3 ADD MSTORE PUSH1 0xF PUSH1 0x24 DUP3 ADD MSTORE PUSH15 0x63616E2774206465706F736974203 PUSH1 0x8C SHL PUSH1 0x44 DUP3 ADD MSTORE PUSH1 0x64 ADD PUSH2 0x56F JUMP JUMPDEST CALLER PUSH1 0x0 SWAP1 DUP2 MSTORE PUSH1 0xC PUSH1 0x20 MSTORE PUSH1 0x40 DUP2 KECCAK256 SLOAD DUP2 SUB PUSH2 0xF77 JUMPI PUSH1 0x1 PUSH1 0xA PUSH1 0x0 DUP3 DUP3 SLOAD PUSH2 0xF56 SWAP2 SWAP1 PUSH2 0x2EB5 JUMP JUMPDEST SWAP1 SWAP2 SSTORE POP POP PUSH1 0xA SLOAD CALLER PUSH1 0x0 SWAP1 DUP2 MSTORE PUSH1 0xC PUSH1 0x20 MSTORE PUSH1 0x40 SWAP1 KECCAK256 DUP2 SWAP1 SSTORE SWAP1 POP PUSH2 0xF92 JUMP JUMPDEST POP CALLER PUSH1 0x0 DUP2 DUP2 MSTORE PUSH1 0xC PUSH1 0x20 MSTORE PUSH1 0x40 SWAP1 KECCAK256 SLOAD SWAP1 PUSH2 0xF92 SWAP1 PUSH2 0x1ECB JUMP JUMPDEST PUSH1 0x0 DUP2 DUP2 MSTORE PUSH1 0xB PUSH1 0x20 SWAP1 DUP2 MSTORE PUSH1 0x40 DUP1 DUP4 KECCAK256 DUP1 SLOAD PUSH1 0x1 PUSH1 0x1 PUSH1 0xA0 SHL SUB NOT AND CALLER OR DUP2 SSTORE TIMESTAMP PUSH1 0x1 DUP3 ADD SSTORE PUSH1 0x1 PUSH1 0x1 PUSH1 0xA0 SHL SUB DUP8 AND DUP5 MSTORE PUSH1 0x2 DUP2 ADD SWAP1 SWAP3 MSTORE DUP3 KECCAK256 DUP1 SLOAD SWAP2 SWAP3 DUP6 SWAP3 PUSH2 0xFDF SWAP1 DUP5 SWAP1 PUSH2 0x2EB5 JUMP JUMPDEST SWAP1 SWAP2 SSTORE POP POP PUSH1 0xF SLOAD PUSH1 0x1 PUSH1 0x1 PUSH1 0xA0 SHL SUB SWAP1 DUP2 AND SWAP1 DUP6 AND SUB PUSH2 0x10EA JUMPI PUSH1 0xF SLOAD PUSH1 0x40 MLOAD PUSH4 0x23B872DD PUSH1 0xE0 SHL DUP2 MSTORE CALLER PUSH1 0x4 DUP3 ADD MSTORE ADDRESS PUSH1 0x24 DUP3 ADD MSTORE PUSH1 0x44 DUP2 ADD DUP6 SWAP1 MSTORE PUSH1 0x1 PUSH1 0x1 PUSH1 0xA0 SHL SUB SWAP1 SWAP2 AND SWAP1 PUSH4 0x23B872DD SWAP1 PUSH1 0x64 ADD PUSH1 0x20 PUSH1 0x40 MLOAD DUP1 DUP4 SUB DUP2 PUSH1 0x0 DUP8 GAS CALL ISZERO DUP1 ISZERO PUSH2 0x1051 JUMPI RETURNDATASIZE PUSH1 0x0 DUP1 RETURNDATACOPY RETURNDATASIZE PUSH1 0x0 REVERT JUMPDEST POP POP POP POP PUSH1 0x40 MLOAD RETURNDATASIZE PUSH1 0x1F NOT PUSH1 0x1F DUP3 ADD AND DUP3 ADD DUP1 PUSH1 0x40 MSTORE POP DUP2 ADD SWAP1 PUSH2 0x1075 SWAP2 SWAP1 PUSH2 0x2DA3 JUMP JUMPDEST PUSH2 0x10B2 JUMPI PUSH1 0x40 MLOAD PUSH3 0x461BCD PUSH1 0xE5 SHL DUP2 MSTORE PUSH1 0x20 PUSH1 0x4 DUP3 ADD MSTORE PUSH1 0xE PUSH1 0x24 DUP3 ADD MSTORE PUSH14 0x19195C1BDCDA5D0819985A5B1959 PUSH1 0x92 SHL PUSH1 0x44 DUP3 ADD MSTORE PUSH1 0x64 ADD PUSH2 0x56F JUMP JUMPDEST PUSH1 0xF SLOAD PUSH1 0x1 PUSH1 0x1 PUSH1 0xA0 SHL SUB AND PUSH1 0x0 SWAP1 DUP2 MSTORE PUSH1 0x9 PUSH1 0x20 MSTORE PUSH1 0x40 DUP2 KECCAK256 PUSH1 0x3 ADD DUP1 SLOAD DUP6 SWAP3 SWAP1 PUSH2 0x10DF SWAP1 DUP5 SWAP1 PUSH2 0x2EB5 JUMP JUMPDEST SWAP1 SWAP2 SSTORE POP PUSH2 0x111D SWAP1 POP JUMP JUMPDEST PUSH1 0xE SLOAD PUSH1 0x1 PUSH1 0x1 PUSH1 0xA0 SHL SUB AND PUSH1 0x0 SWAP1 DUP2 MSTORE PUSH1 0x9 PUSH1 0x20 MSTORE PUSH1 0x40 DUP2 KECCAK256 PUSH1 0x3 ADD DUP1 SLOAD DUP6 SWAP3 SWAP1 PUSH2 0x1117 SWAP1 DUP5 SWAP1 PUSH2 0x2EB5 JUMP JUMPDEST SWAP1 SWAP2 SSTORE POP POP JUMPDEST PUSH2 0x1126 CALLER PUSH2 0x1ECB JUMP JUMPDEST POP POP POP POP JUMP JUMPDEST PUSH1 0x0 DUP2 GT PUSH2 0x116D JUMPI PUSH1 0x40 MLOAD PUSH3 0x461BCD PUSH1 0xE5 SHL DUP2 MSTORE PUSH1 0x20 PUSH1 0x4 DUP3 ADD MSTORE PUSH1 0xE PUSH1 0x24 DUP3 ADD MSTORE PUSH14 0x63616E277420626F72726F77203 PUSH1 0x94 SHL PUSH1 0x44 DUP3 ADD MSTORE PUSH1 0x64 ADD PUSH2 0x56F JUMP JUMPDEST CALLER PUSH1 0x0 SWAP1 DUP2 MSTORE PUSH1 0xC PUSH1 0x20 MSTORE PUSH1 0x40 SWAP1 KECCAK256 SLOAD DUP1 PUSH2 0x119A JUMPI PUSH1 0x40 MLOAD PUSH3 0x461BCD PUSH1 0xE5 SHL DUP2 MSTORE PUSH1 0x4 ADD PUSH2 0x56F SWAP1 PUSH2 0x2E5F JUMP JUMPDEST PUSH1 0x0 DUP2 DUP2 MSTORE PUSH1 0xB PUSH1 0x20 MSTORE PUSH1 0x40 DUP2 KECCAK256 SWAP1 PUSH2 0x11B2 CALLER PUSH2 0x19A8 JUMP JUMPDEST SWAP1 POP PUSH1 0x0 PUSH2 0x11BF CALLER PUSH2 0x18BC JUMP JUMPDEST SWAP1 POP DUP1 DUP3 LT ISZERO PUSH2 0x1211 JUMPI PUSH1 0x40 MLOAD PUSH3 0x461BCD PUSH1 0xE5 SHL DUP2 MSTORE PUSH1 0x20 PUSH1 0x4 DUP3 ADD MSTORE PUSH1 0x1E PUSH1 0x24 DUP3 ADD MSTORE PUSH32 0x596F7520646F6E6F74206861766520616E7920636F6C6C61746572616C2E0000 PUSH1 0x44 DUP3 ADD MSTORE PUSH1 0x64 ADD PUSH2 0x56F JUMP JUMPDEST PUSH1 0x0 PUSH2 0x121D DUP8 DUP8 PUSH2 0x43C JUMP JUMPDEST PUSH1 0x1 PUSH1 0x1 PUSH1 0xA0 SHL SUB DUP9 AND PUSH1 0x0 SWAP1 DUP2 MSTORE PUSH1 0x9 PUSH1 0x20 MSTORE PUSH1 0x40 SWAP1 KECCAK256 SLOAD SWAP1 SWAP2 POP PUSH2 0x1243 DUP4 DUP4 PUSH2 0x2EB5 JUMP JUMPDEST PUSH1 0x64 PUSH2 0x124F DUP4 DUP8 PUSH2 0x2D57 JUMP JUMPDEST PUSH2 0x1259 SWAP2 SWAP1 PUSH2 0x2EC8 JUMP JUMPDEST GT PUSH2 0x129D JUMPI PUSH1 0x40 MLOAD PUSH3 0x461BCD PUSH1 0xE5 SHL DUP2 MSTORE PUSH1 0x20 PUSH1 0x4 DUP3 ADD MSTORE PUSH1 0x14 PUSH1 0x24 DUP3 ADD MSTORE PUSH20 0x283632B0B9B2903232B837B9B4BA1036B7B93297 PUSH1 0x61 SHL PUSH1 0x44 DUP3 ADD MSTORE PUSH1 0x64 ADD PUSH2 0x56F JUMP JUMPDEST PUSH1 0x1 PUSH1 0x1 PUSH1 0xA0 SHL SUB DUP9 AND PUSH1 0x0 SWAP1 DUP2 MSTORE PUSH1 0x3 DUP7 ADD PUSH1 0x20 MSTORE PUSH1 0x40 DUP2 KECCAK256 DUP1 SLOAD DUP10 SWAP3 SWAP1 PUSH2 0x12C7 SWAP1 DUP5 SWAP1 PUSH2 0x2EB5 JUMP JUMPDEST SWAP1 SWAP2 SSTORE POP PUSH2 0x12D6 SWAP1 POP CALLER PUSH2 0x1ECB JUMP JUMPDEST PUSH1 0xE SLOAD PUSH1 0x1 PUSH1 0x1 PUSH1 0xA0 SHL SUB SWAP1 DUP2 AND SWAP1 DUP10 AND SUB PUSH2 0x13BD JUMPI PUSH1 0x40 MLOAD PUSH1 0x0 SWAP1 CALLER SWAP1 DUP10 SWAP1 DUP4 DUP2 DUP2 DUP2 DUP6 DUP8 GAS CALL SWAP3 POP POP POP RETURNDATASIZE DUP1 PUSH1 0x0 DUP2 EQ PUSH2 0x132E JUMPI PUSH1 0x40 MLOAD SWAP2 POP PUSH1 0x1F NOT PUSH1 0x3F RETURNDATASIZE ADD AND DUP3 ADD PUSH1 0x40 MSTORE RETURNDATASIZE DUP3 MSTORE RETURNDATASIZE PUSH1 0x0 PUSH1 0x20 DUP5 ADD RETURNDATACOPY PUSH2 0x1333 JUMP JUMPDEST PUSH1 0x60 SWAP2 POP JUMPDEST POP POP SWAP1 POP DUP1 PUSH2 0x1384 JUMPI PUSH1 0x40 MLOAD PUSH3 0x461BCD PUSH1 0xE5 SHL DUP2 MSTORE PUSH1 0x20 PUSH1 0x4 DUP3 ADD MSTORE PUSH1 0x1C PUSH1 0x24 DUP3 ADD MSTORE PUSH32 0x6661696C656420746F2073656E642065746820696E7465726573742E00000000 PUSH1 0x44 DUP3 ADD MSTORE PUSH1 0x64 ADD PUSH2 0x56F JUMP JUMPDEST PUSH1 0xE SLOAD PUSH1 0x1 PUSH1 0x1 PUSH1 0xA0 SHL SUB AND PUSH1 0x0 SWAP1 DUP2 MSTORE PUSH1 0x9 PUSH1 0x20 MSTORE PUSH1 0x40 DUP2 KECCAK256 PUSH1 0x4 ADD DUP1 SLOAD DUP11 SWAP3 SWAP1 PUSH2 0x13B1 SWAP1 DUP5 SWAP1 PUSH2 0x2EB5 JUMP JUMPDEST SWAP1 SWAP2 SSTORE POP PUSH2 0x1466 SWAP2 POP POP JUMP JUMPDEST PUSH1 0xF SLOAD PUSH1 0x40 MLOAD PUSH4 0xA9059CBB PUSH1 0xE0 SHL DUP2 MSTORE CALLER PUSH1 0x4 DUP3 ADD MSTORE PUSH1 0x24 DUP2 ADD DUP10 SWAP1 MSTORE PUSH1 0x1 PUSH1 0x1 PUSH1 0xA0 SHL SUB SWAP1 SWAP2 AND SWAP1 PUSH4 0xA9059CBB SWAP1 PUSH1 0x44 ADD PUSH1 0x20 PUSH1 0x40 MLOAD DUP1 DUP4 SUB DUP2 PUSH1 0x0 DUP8 GAS CALL ISZERO DUP1 ISZERO PUSH2 0x140E JUMPI RETURNDATASIZE PUSH1 0x0 DUP1 RETURNDATACOPY RETURNDATASIZE PUSH1 0x0 REVERT JUMPDEST POP POP POP POP PUSH1 0x40 MLOAD RETURNDATASIZE PUSH1 0x1F NOT PUSH1 0x1F DUP3 ADD AND DUP3 ADD DUP1 PUSH1 0x40 MSTORE POP DUP2 ADD SWAP1 PUSH2 0x1432 SWAP2 SWAP1 PUSH2 0x2DA3 JUMP JUMPDEST POP PUSH1 0xF SLOAD PUSH1 0x1 PUSH1 0x1 PUSH1 0xA0 SHL SUB AND PUSH1 0x0 SWAP1 DUP2 MSTORE PUSH1 0x9 PUSH1 0x20 MSTORE PUSH1 0x40 DUP2 KECCAK256 PUSH1 0x4 ADD DUP1 SLOAD DUP10 SWAP3 SWAP1 PUSH2 0x1460 SWAP1 DUP5 SWAP1 PUSH2 0x2EB5 JUMP JUMPDEST SWAP1 SWAP2 SSTORE POP POP JUMPDEST PUSH2 0x146F CALLER PUSH2 0x1ECB JUMP JUMPDEST POP POP POP POP POP POP POP POP JUMP JUMPDEST PUSH1 0x60 PUSH1 0x0 PUSH1 0xA SLOAD PUSH8 0xFFFFFFFFFFFFFFFF DUP2 GT ISZERO PUSH2 0x1498 JUMPI PUSH2 0x1498 PUSH2 0x2EEA JUMP JUMPDEST PUSH1 0x40 MLOAD SWAP1 DUP1 DUP3 MSTORE DUP1 PUSH1 0x20 MUL PUSH1 0x20 ADD DUP3 ADD PUSH1 0x40 MSTORE DUP1 ISZERO PUSH2 0x14D1 JUMPI DUP2 PUSH1 0x20 ADD JUMPDEST PUSH2 0x14BE PUSH2 0x2A7D JUMP JUMPDEST DUP2 MSTORE PUSH1 0x20 ADD SWAP1 PUSH1 0x1 SWAP1 SUB SWAP1 DUP2 PUSH2 0x14B6 JUMPI SWAP1 POP JUMPDEST POP SWAP1 POP PUSH1 0x1 JUMPDEST PUSH1 0xA SLOAD PUSH2 0x14E5 SWAP1 PUSH1 0x1 PUSH2 0x2EB5 JUMP JUMPDEST DUP2 LT ISZERO PUSH2 0x152F JUMPI PUSH2 0x14F5 DUP2 PUSH2 0x2284 JUMP JUMPDEST DUP3 PUSH2 0x1501 PUSH1 0x1 DUP5 PUSH2 0x2EA2 JUMP JUMPDEST DUP2 MLOAD DUP2 LT PUSH2 0x1511 JUMPI PUSH2 0x1511 PUSH2 0x2F00 JUMP JUMPDEST PUSH1 0x20 MUL PUSH1 0x20 ADD ADD DUP2 SWAP1 MSTORE POP DUP1 DUP1 PUSH2 0x1527 SWAP1 PUSH2 0x2F16 JUMP JUMPDEST SWAP2 POP POP PUSH2 0x14D7 JUMP JUMPDEST POP SWAP2 SWAP1 POP JUMP JUMPDEST PUSH1 0x0 SLOAD PUSH1 0x1 PUSH1 0x1 PUSH1 0xA0 SHL SUB AND CALLER EQ PUSH2 0x155F JUMPI PUSH1 0x40 MLOAD PUSH3 0x461BCD PUSH1 0xE5 SHL DUP2 MSTORE PUSH1 0x4 ADD PUSH2 0x56F SWAP1 PUSH2 0x2D6E JUMP JUMPDEST PUSH1 0x10 SSTORE JUMP JUMPDEST PUSH2 0x156C PUSH2 0x2A7D JUMP JUMPDEST PUSH1 0x1 PUSH1 0x1 PUSH1 0xA0 SHL SUB DUP3 AND PUSH1 0x0 SWAP1 DUP2 MSTORE PUSH1 0xC PUSH1 0x20 MSTORE PUSH1 0x40 DUP2 KECCAK256 SLOAD SWAP1 PUSH2 0x158F DUP3 PUSH2 0x2284 JUMP JUMPDEST SWAP5 SWAP4 POP POP POP POP JUMP JUMPDEST PUSH1 0x0 SLOAD PUSH1 0x1 PUSH1 0x1 PUSH1 0xA0 SHL SUB AND CALLER EQ PUSH2 0x15C1 JUMPI PUSH1 0x40 MLOAD PUSH3 0x461BCD PUSH1 0xE5 SHL DUP2 MSTORE PUSH1 0x4 ADD PUSH2 0x56F SWAP1 PUSH2 0x2D6E JUMP JUMPDEST PUSH1 0x5 SWAP4 SWAP1 SWAP4 SSTORE PUSH1 0x6 SWAP2 SWAP1 SWAP2 SSTORE PUSH1 0x7 SSTORE PUSH1 0x8 SSTORE JUMP JUMPDEST PUSH1 0xE SLOAD PUSH1 0x1 PUSH1 0x1 PUSH1 0xA0 SHL SUB AND PUSH1 0x0 SWAP1 DUP2 MSTORE PUSH1 0x9 PUSH1 0x20 SWAP1 DUP2 MSTORE PUSH1 0x40 SWAP2 DUP3 SWAP1 KECCAK256 DUP3 MLOAD PUSH1 0xA0 DUP2 ADD DUP5 MSTORE DUP2 SLOAD DUP2 MSTORE PUSH1 0x1 DUP3 ADD SLOAD SWAP3 DUP2 ADD DUP4 SWAP1 MSTORE PUSH1 0x2 DUP3 ADD SLOAD SWAP4 DUP2 ADD SWAP4 SWAP1 SWAP4 MSTORE PUSH1 0x3 DUP2 ADD SLOAD PUSH1 0x60 DUP5 DUP2 ADD SWAP2 SWAP1 SWAP2 MSTORE PUSH1 0x4 SWAP1 SWAP2 ADD SLOAD PUSH1 0x80 DUP5 ADD MSTORE PUSH1 0x12 SLOAD SWAP1 SWAP3 SWAP2 PUSH2 0x163E SWAP2 PUSH2 0x1EB8 JUMP JUMPDEST PUSH1 0x20 DUP3 ADD MSTORE PUSH1 0x12 SLOAD PUSH1 0x40 DUP3 ADD MLOAD PUSH2 0x1654 SWAP2 PUSH2 0x1EB8 JUMP JUMPDEST PUSH1 0x40 DUP1 DUP4 ADD SWAP2 SWAP1 SWAP2 MSTORE PUSH1 0xF SLOAD PUSH1 0x1 PUSH1 0x1 PUSH1 0xA0 SHL SUB AND PUSH1 0x0 SWAP1 DUP2 MSTORE PUSH1 0x9 PUSH1 0x20 SWAP1 DUP2 MSTORE SWAP1 DUP3 SWAP1 KECCAK256 DUP3 MLOAD PUSH1 0xA0 DUP2 ADD DUP5 MSTORE DUP2 SLOAD DUP2 MSTORE PUSH1 0x1 DUP3 ADD SLOAD SWAP3 DUP2 ADD DUP4 SWAP1 MSTORE PUSH1 0x2 DUP3 ADD SLOAD SWAP4 DUP2 ADD SWAP4 SWAP1 SWAP4 MSTORE PUSH1 0x3 DUP2 ADD SLOAD PUSH1 0x60 DUP5 ADD MSTORE PUSH1 0x4 ADD SLOAD PUSH1 0x80 DUP4 ADD MSTORE PUSH1 0x12 SLOAD PUSH2 0x16BC SWAP2 SWAP1 PUSH2 0x1EB8 JUMP JUMPDEST PUSH1 0x20 DUP3 ADD MSTORE PUSH1 0x12 SLOAD PUSH1 0x40 DUP3 ADD MLOAD PUSH2 0x16D2 SWAP2 PUSH2 0x1EB8 JUMP JUMPDEST PUSH1 0x40 DUP3 DUP2 ADD SWAP2 SWAP1 SWAP2 MSTORE DUP1 MLOAD PUSH1 0x2 DUP1 DUP3 MSTORE PUSH1 0x60 DUP3 ADD SWAP1 SWAP3 MSTORE PUSH1 0x0 SWAP2 DUP2 PUSH1 0x20 ADD JUMPDEST PUSH2 0x1723 PUSH1 0x40 MLOAD DUP1 PUSH1 0xA0 ADD PUSH1 0x40 MSTORE DUP1 PUSH1 0x0 DUP2 MSTORE PUSH1 0x20 ADD PUSH1 0x0 DUP2 MSTORE PUSH1 0x20 ADD PUSH1 0x0 DUP2 MSTORE PUSH1 0x20 ADD PUSH1 0x0 DUP2 MSTORE PUSH1 0x20 ADD PUSH1 0x0 DUP2 MSTORE POP SWAP1 JUMP JUMPDEST DUP2 MSTORE PUSH1 0x20 ADD SWAP1 PUSH1 0x1 SWAP1 SUB SWAP1 DUP2 PUSH2 0x16F1 JUMPI SWAP1 POP POP SWAP1 POP DUP3 DUP2 PUSH1 0x0 DUP2 MLOAD DUP2 LT PUSH2 0x174C JUMPI PUSH2 0x174C PUSH2 0x2F00 JUMP JUMPDEST PUSH1 0x20 MUL PUSH1 0x20 ADD ADD DUP2 SWAP1 MSTORE POP DUP2 DUP2 PUSH1 0x1 DUP2 MLOAD DUP2 LT PUSH2 0x176B JUMPI PUSH2 0x176B PUSH2 0x2F00 JUMP JUMPDEST PUSH1 0x20 SWAP1 DUP2 MUL SWAP2 SWAP1 SWAP2 ADD ADD MSTORE SWAP4 SWAP3 POP POP POP JUMP JUMPDEST PUSH1 0x0 SLOAD PUSH1 0x1 PUSH1 0x1 PUSH1 0xA0 SHL SUB AND CALLER EQ PUSH2 0x17A7 JUMPI PUSH1 0x40 MLOAD PUSH3 0x461BCD PUSH1 0xE5 SHL DUP2 MSTORE PUSH1 0x4 ADD PUSH2 0x56F SWAP1 PUSH2 0x2D6E JUMP JUMPDEST PUSH1 0x0 DUP1 SLOAD PUSH1 0x40 MLOAD PUSH1 0x1 PUSH1 0x1 PUSH1 0xA0 SHL SUB SWAP1 SWAP2 AND SWAP1 PUSH32 0x8BE0079C531659141344CD1FD0A4F28419497F9722A3DAAFE3B4186F6B6457E0 SWAP1 DUP4 SWAP1 LOG3 PUSH1 0x0 DUP1 SLOAD PUSH1 0x1 PUSH1 0x1 PUSH1 0xA0 SHL SUB NOT AND SWAP1 SSTORE JUMP JUMPDEST CALLER PUSH1 0x0 SWAP1 DUP2 MSTORE PUSH1 0xC PUSH1 0x20 MSTORE PUSH1 0x40 SWAP1 KECCAK256 SLOAD DUP1 PUSH2 0x181E JUMPI PUSH1 0x40 MLOAD PUSH3 0x461BCD PUSH1 0xE5 SHL DUP2 MSTORE PUSH1 0x4 ADD PUSH2 0x56F SWAP1 PUSH2 0x2E5F JUMP JUMPDEST PUSH1 0x0 DUP2 DUP2 MSTORE PUSH1 0xB PUSH1 0x20 MSTORE PUSH1 0x40 SWAP1 KECCAK256 PUSH2 0x1835 CALLER PUSH2 0x1ECB JUMP JUMPDEST PUSH1 0xD SLOAD PUSH1 0x6 DUP3 ADD SLOAD PUSH1 0x40 MLOAD PUSH4 0xA9059CBB PUSH1 0xE0 SHL DUP2 MSTORE CALLER PUSH1 0x4 DUP3 ADD MSTORE PUSH1 0x24 DUP2 ADD SWAP2 SWAP1 SWAP2 MSTORE PUSH1 0x1 PUSH1 0x1 PUSH1 0xA0 SHL SUB SWAP1 SWAP2 AND SWAP1 PUSH4 0xA9059CBB SWAP1 PUSH1 0x44 ADD PUSH1 0x20 PUSH1 0x40 MLOAD DUP1 DUP4 SUB DUP2 PUSH1 0x0 DUP8 GAS CALL ISZERO DUP1 ISZERO PUSH2 0x188C JUMPI RETURNDATASIZE PUSH1 0x0 DUP1 RETURNDATACOPY RETURNDATASIZE PUSH1 0x0 REVERT JUMPDEST POP POP POP POP PUSH1 0x40 MLOAD RETURNDATASIZE PUSH1 0x1F NOT PUSH1 0x1F DUP3 ADD AND DUP3 ADD DUP1 PUSH1 0x40 MSTORE POP DUP2 ADD SWAP1 PUSH2 0x18B0 SWAP2 SWAP1 PUSH2 0x2DA3 JUMP JUMPDEST POP PUSH1 0x0 PUSH1 0x6 SWAP1 SWAP2 ADD SSTORE POP JUMP JUMPDEST PUSH1 0x0 PUSH2 0x18C7 DUP3 PUSH2 0x1ECB JUMP JUMPDEST PUSH1 0x1 PUSH1 0x1 PUSH1 0xA0 SHL SUB DUP1 DUP4 AND PUSH1 0x0 SWAP1 DUP2 MSTORE PUSH1 0xC PUSH1 0x20 SWAP1 DUP2 MSTORE PUSH1 0x40 DUP1 DUP4 KECCAK256 SLOAD DUP4 MSTORE PUSH1 0xB DUP3 MSTORE DUP1 DUP4 KECCAK256 PUSH1 0xE SLOAD SWAP1 SWAP5 AND DUP1 DUP5 MSTORE PUSH1 0x3 DUP6 ADD DUP4 MSTORE DUP2 DUP5 KECCAK256 SLOAD PUSH1 0x5 DUP7 ADD SWAP1 SWAP4 MSTORE SWAP1 DUP4 KECCAK256 SLOAD PUSH2 0x1918 SWAP3 PUSH2 0x167 SWAP2 PUSH2 0x2EB5 JUMP JUMPDEST PUSH1 0xF SLOAD PUSH1 0x1 PUSH1 0x1 PUSH1 0xA0 SHL SUB AND PUSH1 0x0 DUP2 DUP2 MSTORE PUSH1 0x3 DUP6 ADD PUSH1 0x20 SWAP1 DUP2 MSTORE PUSH1 0x40 DUP1 DUP4 KECCAK256 SLOAD PUSH1 0x5 DUP9 ADD SWAP1 SWAP3 MSTORE DUP3 KECCAK256 SLOAD SWAP4 SWAP5 POP SWAP1 SWAP3 PUSH2 0x1955 SWAP3 SWAP2 PUSH2 0x167 SWAP2 PUSH2 0x2EB5 JUMP JUMPDEST SWAP1 POP PUSH2 0x1961 DUP2 DUP4 PUSH2 0x2EB5 JUMP JUMPDEST SWAP6 SWAP5 POP POP POP POP POP JUMP JUMPDEST PUSH1 0x0 SLOAD PUSH1 0x1 PUSH1 0x1 PUSH1 0xA0 SHL SUB AND CALLER EQ PUSH2 0x1994 JUMPI PUSH1 0x40 MLOAD PUSH3 0x461BCD PUSH1 0xE5 SHL DUP2 MSTORE PUSH1 0x4 ADD PUSH2 0x56F SWAP1 PUSH2 0x2D6E JUMP JUMPDEST PUSH1 0x1 SWAP4 SWAP1 SWAP4 SSTORE PUSH1 0x2 SWAP2 SWAP1 SWAP2 SSTORE PUSH1 0x3 SSTORE PUSH1 0x4 SSTORE JUMP JUMPDEST PUSH1 0x0 PUSH2 0x19B3 DUP3 PUSH2 0x1ECB JUMP JUMPDEST PUSH1 0x1 PUSH1 0x1 PUSH1 0xA0 SHL SUB DUP1 DUP4 AND PUSH1 0x0 SWAP1 DUP2 MSTORE PUSH1 0xC PUSH1 0x20 SWAP1 DUP2 MSTORE PUSH1 0x40 DUP1 DUP4 KECCAK256 SLOAD DUP4 MSTORE PUSH1 0xB DUP3 MSTORE DUP1 DUP4 KECCAK256 PUSH1 0xE SLOAD SWAP1 SWAP5 AND DUP1 DUP5 MSTORE PUSH1 0x2 DUP6 ADD DUP4 MSTORE DUP2 DUP5 KECCAK256 SLOAD PUSH1 0x4 DUP7 ADD SWAP1 SWAP4 MSTORE SWAP1 DUP4 KECCAK256 SLOAD PUSH2 0x1A04 SWAP3 PUSH2 0x167 SWAP2 PUSH2 0x2EB5 JUMP JUMPDEST PUSH1 0xF SLOAD PUSH1 0x1 PUSH1 0x1 PUSH1 0xA0 SHL SUB AND PUSH1 0x0 DUP2 DUP2 MSTORE PUSH1 0x2 DUP6 ADD PUSH1 0x20 SWAP1 DUP2 MSTORE PUSH1 0x40 DUP1 DUP4 KECCAK256 SLOAD PUSH1 0x4 DUP9 ADD SWAP1 SWAP3 MSTORE DUP3 KECCAK256 SLOAD SWAP4 SWAP5 POP SWAP1 SWAP3 PUSH2 0x1955 SWAP3 SWAP2 PUSH2 0x167 SWAP2 PUSH2 0x2EB5 JUMP JUMPDEST PUSH1 0x0 SLOAD PUSH1 0x1 PUSH1 0x1 PUSH1 0xA0 SHL SUB AND CALLER EQ PUSH2 0x1A6B JUMPI PUSH1 0x40 MLOAD PUSH3 0x461BCD PUSH1 0xE5 SHL DUP2 MSTORE PUSH1 0x4 ADD PUSH2 0x56F SWAP1 PUSH2 0x2D6E JUMP JUMPDEST PUSH2 0x1A74 DUP2 PUSH2 0x2838 JUMP JUMPDEST POP JUMP JUMPDEST PUSH1 0x0 DUP2 GT PUSH2 0x1ABA JUMPI PUSH1 0x40 MLOAD PUSH3 0x461BCD PUSH1 0xE5 SHL DUP2 MSTORE PUSH1 0x20 PUSH1 0x4 DUP3 ADD MSTORE PUSH1 0x10 PUSH1 0x24 DUP3 ADD MSTORE PUSH16 0x63616E2774207769746864726177203 PUSH1 0x84 SHL PUSH1 0x44 DUP3 ADD MSTORE PUSH1 0x64 ADD PUSH2 0x56F JUMP JUMPDEST CALLER PUSH1 0x0 SWAP1 DUP2 MSTORE PUSH1 0xC PUSH1 0x20 MSTORE PUSH1 0x40 SWAP1 KECCAK256 SLOAD DUP1 PUSH2 0x1AE7 JUMPI PUSH1 0x40 MLOAD PUSH3 0x461BCD PUSH1 0xE5 SHL DUP2 MSTORE PUSH1 0x4 ADD PUSH2 0x56F SWAP1 PUSH2 0x2E5F JUMP JUMPDEST PUSH1 0x0 DUP2 DUP2 MSTORE PUSH1 0xB PUSH1 0x20 MSTORE PUSH1 0x40 SWAP1 KECCAK256 PUSH2 0x1AFE CALLER PUSH2 0x1ECB JUMP JUMPDEST PUSH1 0x0 PUSH2 0x1B09 CALLER PUSH2 0x19A8 JUMP JUMPDEST SWAP1 POP PUSH1 0x0 PUSH2 0x1B16 CALLER PUSH2 0x18BC JUMP JUMPDEST PUSH1 0x1 PUSH1 0x1 PUSH1 0xA0 SHL SUB DUP8 AND PUSH1 0x0 SWAP1 DUP2 MSTORE PUSH1 0x9 PUSH1 0x20 MSTORE PUSH1 0x40 SWAP1 KECCAK256 SLOAD SWAP1 SWAP2 POP DUP2 SWAP1 PUSH1 0x64 SWAP1 PUSH2 0x1B41 DUP10 DUP10 PUSH2 0x43C JUMP JUMPDEST PUSH2 0x1B4B SWAP1 DUP7 PUSH2 0x2EA2 JUMP JUMPDEST PUSH2 0x1B55 SWAP2 SWAP1 PUSH2 0x2D57 JUMP JUMPDEST PUSH2 0x1B5F SWAP2 SWAP1 PUSH2 0x2EC8 JUMP JUMPDEST GT PUSH2 0x1BC3 JUMPI PUSH1 0x40 MLOAD PUSH3 0x461BCD PUSH1 0xE5 SHL DUP2 MSTORE PUSH1 0x20 PUSH1 0x4 DUP3 ADD MSTORE PUSH1 0x2E PUSH1 0x24 DUP3 ADD MSTORE PUSH32 0x5769746864726177206661696C65642E596F7520646F6E6F7420686176652061 PUSH1 0x44 DUP3 ADD MSTORE PUSH14 0x373C9031B7B63630BA32B930B617 PUSH1 0x91 SHL PUSH1 0x64 DUP3 ADD MSTORE PUSH1 0x84 ADD PUSH2 0x56F JUMP JUMPDEST PUSH1 0x1 PUSH1 0x1 PUSH1 0xA0 SHL SUB DUP7 AND PUSH1 0x0 SWAP1 DUP2 MSTORE PUSH1 0x4 DUP5 ADD PUSH1 0x20 MSTORE PUSH1 0x40 SWAP1 KECCAK256 SLOAD DUP6 LT ISZERO PUSH2 0x1C1A JUMPI PUSH1 0x1 PUSH1 0x1 PUSH1 0xA0 SHL SUB DUP7 AND PUSH1 0x0 SWAP1 DUP2 MSTORE PUSH1 0x4 DUP5 ADD PUSH1 0x20 MSTORE PUSH1 0x40 DUP2 KECCAK256 DUP1 SLOAD DUP8 SWAP3 SWAP1 PUSH2 0x1C0F SWAP1 DUP5 SWAP1 PUSH2 0x2EA2 JUMP JUMPDEST SWAP1 SWAP2 SSTORE POP PUSH2 0x1CB4 SWAP1 POP JUMP JUMPDEST PUSH1 0x1 PUSH1 0x1 PUSH1 0xA0 SHL SUB DUP7 AND PUSH1 0x0 SWAP1 DUP2 MSTORE PUSH1 0x4 DUP5 ADD PUSH1 0x20 MSTORE PUSH1 0x40 DUP2 KECCAK256 SLOAD PUSH2 0x1C3F SWAP1 DUP8 PUSH2 0x2EA2 JUMP JUMPDEST PUSH1 0x1 PUSH1 0x1 PUSH1 0xA0 SHL SUB DUP9 AND PUSH1 0x0 SWAP1 DUP2 MSTORE PUSH1 0x2 DUP7 ADD PUSH1 0x20 MSTORE PUSH1 0x40 DUP2 KECCAK256 DUP1 SLOAD SWAP3 SWAP4 POP DUP4 SWAP3 SWAP1 SWAP2 SWAP1 PUSH2 0x1C6E SWAP1 DUP5 SWAP1 PUSH2 0x2EA2 JUMP JUMPDEST SWAP1 SWAP2 SSTORE POP POP PUSH1 0x1 PUSH1 0x1 PUSH1 0xA0 SHL SUB DUP8 AND PUSH1 0x0 SWAP1 DUP2 MSTORE PUSH1 0x4 DUP6 ADD PUSH1 0x20 SWAP1 DUP2 MSTORE PUSH1 0x40 DUP1 DUP4 KECCAK256 DUP4 SWAP1 SSTORE PUSH1 0x9 SWAP1 SWAP2 MSTORE DUP2 KECCAK256 PUSH1 0x3 ADD DUP1 SLOAD DUP4 SWAP3 SWAP1 PUSH2 0x1CAD SWAP1 DUP5 SWAP1 PUSH2 0x2EA2 JUMP JUMPDEST SWAP1 SWAP2 SSTORE POP POP POP JUMPDEST PUSH1 0xE SLOAD PUSH1 0x1 PUSH1 0x1 PUSH1 0xA0 SHL SUB SWAP1 DUP2 AND SWAP1 DUP8 AND SUB PUSH2 0x1D68 JUMPI PUSH1 0x40 MLOAD PUSH1 0x0 SWAP1 CALLER SWAP1 DUP8 SWAP1 DUP4 DUP2 DUP2 DUP2 DUP6 DUP8 GAS CALL SWAP3 POP POP POP RETURNDATASIZE DUP1 PUSH1 0x0 DUP2 EQ PUSH2 0x1D0C JUMPI PUSH1 0x40 MLOAD SWAP2 POP PUSH1 0x1F NOT PUSH1 0x3F RETURNDATASIZE ADD AND DUP3 ADD PUSH1 0x40 MSTORE RETURNDATASIZE DUP3 MSTORE RETURNDATASIZE PUSH1 0x0 PUSH1 0x20 DUP5 ADD RETURNDATACOPY PUSH2 0x1D11 JUMP JUMPDEST PUSH1 0x60 SWAP2 POP JUMPDEST POP POP SWAP1 POP DUP1 PUSH2 0x1D62 JUMPI PUSH1 0x40 MLOAD PUSH3 0x461BCD PUSH1 0xE5 SHL DUP2 MSTORE PUSH1 0x20 PUSH1 0x4 DUP3 ADD MSTORE PUSH1 0x1C PUSH1 0x24 DUP3 ADD MSTORE PUSH32 0x6661696C656420746F2073656E642065746820696E7465726573742E00000000 PUSH1 0x44 DUP3 ADD MSTORE PUSH1 0x64 ADD PUSH2 0x56F JUMP JUMPDEST POP PUSH2 0x1DDF JUMP JUMPDEST PUSH1 0xF SLOAD PUSH1 0x40 MLOAD PUSH4 0xA9059CBB PUSH1 0xE0 SHL DUP2 MSTORE CALLER PUSH1 0x4 DUP3 ADD MSTORE PUSH1 0x24 DUP2 ADD DUP8 SWAP1 MSTORE PUSH1 0x1 PUSH1 0x1 PUSH1 0xA0 SHL SUB SWAP1 SWAP2 AND SWAP1 PUSH4 0xA9059CBB SWAP1 PUSH1 0x44 ADD PUSH1 0x20 PUSH1 0x40 MLOAD DUP1 DUP4 SUB DUP2 PUSH1 0x0 DUP8 GAS CALL ISZERO DUP1 ISZERO PUSH2 0x1DB9 JUMPI RETURNDATASIZE PUSH1 0x0 DUP1 RETURNDATACOPY RETURNDATASIZE PUSH1 0x0 REVERT JUMPDEST POP POP POP POP PUSH1 0x40 MLOAD RETURNDATASIZE PUSH1 0x1F NOT PUSH1 0x1F DUP3 ADD AND DUP3 ADD DUP1 PUSH1 0x40 MSTORE POP DUP2 ADD SWAP1 PUSH2 0x1DDD SWAP2 SWAP1 PUSH2 0x2DA3 JUMP JUMPDEST POP JUMPDEST PUSH2 0x1DE8 CALLER PUSH2 0x1ECB JUMP JUMPDEST POP POP POP POP POP POP JUMP JUMPDEST PUSH1 0x0 SLOAD PUSH1 0x1 PUSH1 0x1 PUSH1 0xA0 SHL SUB AND CALLER EQ PUSH2 0x1E1A JUMPI PUSH1 0x40 MLOAD PUSH3 0x461BCD PUSH1 0xE5 SHL DUP2 MSTORE PUSH1 0x4 ADD PUSH2 0x56F SWAP1 PUSH2 0x2D6E JUMP JUMPDEST PUSH1 0x0 DUP1 SLOAD PUSH1 0x40 MLOAD PUSH1 0x1 PUSH1 0x1 PUSH1 0xA0 SHL SUB SWAP1 SWAP2 AND SWAP1 DUP4 SWAP1 DUP4 DUP2 DUP2 DUP2 DUP6 DUP8 GAS CALL SWAP3 POP POP POP RETURNDATASIZE DUP1 PUSH1 0x0 DUP2 EQ PUSH2 0x1E67 JUMPI PUSH1 0x40 MLOAD SWAP2 POP PUSH1 0x1F NOT PUSH1 0x3F RETURNDATASIZE ADD AND DUP3 ADD PUSH1 0x40 MSTORE RETURNDATASIZE DUP3 MSTORE RETURNDATASIZE PUSH1 0x0 PUSH1 0x20 DUP5 ADD RETURNDATACOPY PUSH2 0x1E6C JUMP JUMPDEST PUSH1 0x60 SWAP2 POP JUMPDEST POP POP SWAP1 POP DUP1 PUSH2 0x1EB4 JUMPI PUSH1 0x40 MLOAD PUSH3 0x461BCD PUSH1 0xE5 SHL DUP2 MSTORE PUSH1 0x20 PUSH1 0x4 DUP3 ADD MSTORE PUSH1 0x14 PUSH1 0x24 DUP3 ADD MSTORE PUSH20 0x2330B4B632B2103A379039B2B7321022BA3432B9 PUSH1 0x61 SHL PUSH1 0x44 DUP3 ADD MSTORE PUSH1 0x64 ADD PUSH2 0x56F JUMP JUMPDEST POP POP JUMP JUMPDEST PUSH1 0x0 PUSH2 0x1EC4 DUP3 DUP5 PUSH2 0x2EC8 JUMP JUMPDEST SWAP4 SWAP3 POP POP POP JUMP JUMPDEST PUSH1 0x1 PUSH1 0x1 PUSH1 0xA0 SHL SUB DUP2 AND PUSH1 0x0 SWAP1 DUP2 MSTORE PUSH1 0xC PUSH1 0x20 MSTORE PUSH1 0x40 SWAP1 KECCAK256 SLOAD PUSH2 0x1F30 JUMPI PUSH1 0x40 MLOAD PUSH3 0x461BCD PUSH1 0xE5 SHL DUP2 MSTORE PUSH1 0x20 PUSH1 0x4 DUP3 ADD MSTORE PUSH1 0x1A PUSH1 0x24 DUP3 ADD MSTORE PUSH32 0x557365722073686F756C64206465706F736974206265666F7265000000000000 PUSH1 0x44 DUP3 ADD MSTORE PUSH1 0x64 ADD PUSH2 0x56F JUMP JUMPDEST PUSH1 0x1 PUSH1 0x1 PUSH1 0xA0 SHL SUB DUP2 AND PUSH1 0x0 DUP2 DUP2 MSTORE PUSH1 0xC PUSH1 0x20 DUP2 DUP2 MSTORE PUSH1 0x40 DUP1 DUP5 KECCAK256 SLOAD DUP1 DUP6 MSTORE PUSH1 0xB DUP4 MSTORE SWAP1 DUP5 KECCAK256 SWAP5 DUP5 MSTORE SWAP2 SWAP1 MSTORE PUSH2 0x1F65 SWAP1 PUSH2 0x2284 JUMP JUMPDEST PUSH2 0x100 DUP2 ADD MLOAD PUSH1 0x6 DUP5 ADD SSTORE PUSH1 0xC0 DUP2 ADD MLOAD PUSH1 0xE DUP1 SLOAD PUSH1 0x1 PUSH1 0x1 PUSH1 0xA0 SHL SUB SWAP1 DUP2 AND PUSH1 0x0 SWAP1 DUP2 MSTORE PUSH1 0x4 DUP8 ADD PUSH1 0x20 DUP2 DUP2 MSTORE PUSH1 0x40 DUP1 DUP5 KECCAK256 SWAP7 SWAP1 SWAP7 SSTORE PUSH1 0x80 DUP8 ADD MLOAD DUP6 SLOAD DUP6 AND DUP5 MSTORE PUSH1 0x5 DUP11 ADD DUP1 DUP4 MSTORE DUP8 DUP6 KECCAK256 SWAP2 SWAP1 SWAP2 SSTORE PUSH1 0xE0 DUP9 ADD MLOAD PUSH1 0xF DUP1 SLOAD DUP8 AND DUP7 MSTORE SWAP4 DUP4 MSTORE DUP8 DUP6 KECCAK256 SSTORE PUSH1 0xA0 DUP9 ADD MLOAD SWAP3 SLOAD DUP6 AND DUP5 MSTORE SWAP1 MSTORE SWAP4 SWAP1 KECCAK256 SWAP3 SWAP1 SWAP3 SSTORE TIMESTAMP PUSH1 0x1 DUP7 ADD SSTORE SLOAD SWAP2 SWAP3 POP PUSH2 0x1FF0 SWAP2 AND PUSH2 0x28F8 JUMP JUMPDEST PUSH1 0xE SLOAD PUSH1 0x1 PUSH1 0x1 PUSH1 0xA0 SHL SUB SWAP1 DUP2 AND PUSH1 0x0 SWAP1 DUP2 MSTORE PUSH1 0x9 PUSH1 0x20 MSTORE PUSH1 0x40 SWAP1 KECCAK256 PUSH1 0x2 DUP2 ADD SWAP3 SWAP1 SWAP3 SSTORE PUSH1 0x1 SWAP1 SWAP2 ADD SWAP2 SWAP1 SWAP2 SSTORE PUSH1 0xF SLOAD PUSH2 0x202A SWAP2 AND PUSH2 0x28F8 JUMP JUMPDEST PUSH1 0xF SLOAD PUSH1 0x1 PUSH1 0x1 PUSH1 0xA0 SHL SUB AND PUSH1 0x0 SWAP1 DUP2 MSTORE PUSH1 0x9 PUSH1 0x20 MSTORE PUSH1 0x40 SWAP1 KECCAK256 PUSH1 0x2 DUP2 ADD SWAP2 SWAP1 SWAP2 SSTORE PUSH1 0x1 ADD SSTORE POP POP POP JUMP JUMPDEST PUSH1 0x1 PUSH1 0x1 PUSH1 0xA0 SHL SUB DUP2 AND PUSH1 0x0 SWAP1 DUP2 MSTORE PUSH1 0xC PUSH1 0x20 MSTORE PUSH1 0x40 SWAP1 KECCAK256 SLOAD PUSH2 0x20BA JUMPI PUSH1 0x40 MLOAD PUSH3 0x461BCD PUSH1 0xE5 SHL DUP2 MSTORE PUSH1 0x20 PUSH1 0x4 DUP3 ADD MSTORE PUSH1 0x1A PUSH1 0x24 DUP3 ADD MSTORE PUSH32 0x557365722073686F756C64206465706F736974206265666F7265000000000000 PUSH1 0x44 DUP3 ADD MSTORE PUSH1 0x64 ADD PUSH2 0x56F JUMP JUMPDEST PUSH1 0x1 PUSH1 0x1 PUSH1 0xA0 SHL SUB DUP1 DUP3 AND PUSH1 0x0 SWAP1 DUP2 MSTORE PUSH1 0xC PUSH1 0x20 SWAP1 DUP2 MSTORE PUSH1 0x40 DUP1 DUP4 KECCAK256 SLOAD DUP4 MSTORE PUSH1 0xB DUP3 MSTORE DUP1 DUP4 KECCAK256 PUSH1 0xE SLOAD SWAP1 SWAP5 AND DUP4 MSTORE PUSH1 0x2 DUP5 ADD DUP3 MSTORE DUP1 DUP4 KECCAK256 SLOAD PUSH1 0x9 SWAP1 SWAP3 MSTORE DUP3 KECCAK256 PUSH1 0x3 ADD DUP1 SLOAD SWAP2 SWAP3 SWAP1 SWAP2 PUSH2 0x210D SWAP1 DUP5 SWAP1 PUSH2 0x2EA2 JUMP JUMPDEST SWAP1 SWAP2 SSTORE POP POP PUSH1 0xE SLOAD PUSH1 0x1 PUSH1 0x1 PUSH1 0xA0 SHL SUB AND PUSH1 0x0 SWAP1 DUP2 MSTORE PUSH1 0x3 DUP3 ADD PUSH1 0x20 SWAP1 DUP2 MSTORE PUSH1 0x40 DUP1 DUP4 KECCAK256 SLOAD PUSH1 0x9 SWAP1 SWAP3 MSTORE DUP3 KECCAK256 PUSH1 0x4 ADD DUP1 SLOAD SWAP2 SWAP3 SWAP1 SWAP2 PUSH2 0x214D SWAP1 DUP5 SWAP1 PUSH2 0x2EA2 JUMP JUMPDEST SWAP1 SWAP2 SSTORE POP POP PUSH1 0xE DUP1 SLOAD PUSH1 0x1 PUSH1 0x1 PUSH1 0xA0 SHL SUB SWAP1 DUP2 AND PUSH1 0x0 SWAP1 DUP2 MSTORE PUSH1 0x2 DUP5 ADD PUSH1 0x20 DUP2 DUP2 MSTORE PUSH1 0x40 DUP1 DUP5 KECCAK256 DUP5 SWAP1 SSTORE DUP6 SLOAD DUP6 AND DUP5 MSTORE PUSH1 0x3 DUP1 DUP9 ADD DUP4 MSTORE DUP2 DUP6 KECCAK256 DUP6 SWAP1 SSTORE DUP7 SLOAD DUP7 AND DUP6 MSTORE PUSH1 0x4 DUP9 ADD DUP4 MSTORE DUP2 DUP6 KECCAK256 DUP6 SWAP1 SSTORE SWAP6 SLOAD DUP6 AND DUP5 MSTORE PUSH1 0x5 DUP8 ADD DUP3 MSTORE DUP1 DUP5 KECCAK256 DUP5 SWAP1 SSTORE PUSH1 0xF SLOAD SWAP1 SWAP5 AND DUP4 MSTORE SWAP1 DUP2 MSTORE DUP3 DUP3 KECCAK256 SLOAD PUSH1 0x9 SWAP1 SWAP2 MSTORE SWAP2 DUP2 KECCAK256 SWAP1 SWAP3 ADD DUP1 SLOAD SWAP2 SWAP3 SWAP1 SWAP2 PUSH2 0x21D9 SWAP1 DUP5 SWAP1 PUSH2 0x2EA2 JUMP JUMPDEST SWAP1 SWAP2 SSTORE POP POP PUSH1 0xF SLOAD PUSH1 0x1 PUSH1 0x1 PUSH1 0xA0 SHL SUB AND PUSH1 0x0 SWAP1 DUP2 MSTORE PUSH1 0x3 DUP3 ADD PUSH1 0x20 SWAP1 DUP2 MSTORE PUSH1 0x40 DUP1 DUP4 KECCAK256 SLOAD PUSH1 0x9 SWAP1 SWAP3 MSTORE DUP3 KECCAK256 PUSH1 0x4 ADD DUP1 SLOAD SWAP2 SWAP3 SWAP1 SWAP2 PUSH2 0x2219 SWAP1 DUP5 SWAP1 PUSH2 0x2EA2 JUMP JUMPDEST SWAP1 SWAP2 SSTORE POP POP PUSH1 0xF DUP1 SLOAD PUSH1 0x1 PUSH1 0x1 PUSH1 0xA0 SHL SUB SWAP1 DUP2 AND PUSH1 0x0 SWAP1 DUP2 MSTORE PUSH1 0x2 DUP5 ADD PUSH1 0x20 SWAP1 DUP2 MSTORE PUSH1 0x40 DUP1 DUP4 KECCAK256 DUP4 SWAP1 SSTORE DUP5 SLOAD DUP5 AND DUP4 MSTORE PUSH1 0x3 DUP7 ADD DUP3 MSTORE DUP1 DUP4 KECCAK256 DUP4 SWAP1 SSTORE DUP5 SLOAD DUP5 AND DUP4 MSTORE PUSH1 0x4 DUP7 ADD DUP3 MSTORE DUP1 DUP4 KECCAK256 DUP4 SWAP1 SSTORE SWAP4 SLOAD SWAP1 SWAP3 AND DUP2 MSTORE PUSH1 0x5 DUP5 ADD SWAP1 SWAP2 MSTORE SWAP1 DUP2 KECCAK256 DUP2 SWAP1 SSTORE PUSH1 0x6 SWAP1 SWAP2 ADD SSTORE POP JUMP JUMPDEST PUSH2 0x228C PUSH2 0x2A7D JUMP JUMPDEST DUP2 ISZERO PUSH2 0x27B8 JUMPI PUSH1 0x0 DUP3 DUP2 MSTORE PUSH1 0xB PUSH1 0x20 MSTORE PUSH1 0x40 DUP2 KECCAK256 PUSH1 0x1 DUP2 ADD SLOAD SWAP1 SWAP2 PUSH2 0x22B1 DUP3 TIMESTAMP PUSH2 0x2EA2 JUMP JUMPDEST PUSH1 0xE SLOAD PUSH1 0x11 SLOAD PUSH1 0x1 PUSH1 0x1 PUSH1 0xA0 SHL SUB SWAP1 SWAP2 AND PUSH1 0x0 DUP2 DUP2 MSTORE PUSH1 0x9 PUSH1 0x20 SWAP1 DUP2 MSTORE PUSH1 0x40 DUP1 DUP4 KECCAK256 PUSH1 0x1 ADD SLOAD PUSH1 0x2 DUP11 ADD SWAP1 SWAP3 MSTORE DUP3 KECCAK256 SLOAD SWAP5 SWAP6 POP SWAP1 SWAP4 PUSH2 0x230B SWAP4 SWAP2 DUP7 SWAP2 PUSH2 0x22F7 SWAP2 SWAP1 PUSH2 0x2D57 JUMP JUMPDEST PUSH2 0x2301 SWAP2 SWAP1 PUSH2 0x2D57 JUMP JUMPDEST PUSH2 0x167 SWAP2 SWAP1 PUSH2 0x2EC8 JUMP JUMPDEST DUP5 PUSH1 0x6 ADD SLOAD PUSH2 0x231A SWAP2 SWAP1 PUSH2 0x2EB5 JUMP JUMPDEST PUSH1 0x11 SLOAD PUSH1 0xE SLOAD PUSH1 0x1 PUSH1 0x1 PUSH1 0xA0 SHL SUB AND PUSH1 0x0 SWAP1 DUP2 MSTORE PUSH1 0x9 PUSH1 0x20 SWAP1 DUP2 MSTORE PUSH1 0x40 DUP1 DUP4 KECCAK256 PUSH1 0x1 ADD SLOAD PUSH1 0x2 DUP11 ADD SWAP1 SWAP3 MSTORE DUP3 KECCAK256 SLOAD SWAP4 SWAP5 POP SWAP1 SWAP3 DUP6 SWAP2 PUSH2 0x2358 SWAP2 PUSH2 0x2D57 JUMP JUMPDEST PUSH2 0x2362 SWAP2 SWAP1 PUSH2 0x2D57 JUMP JUMPDEST PUSH2 0x236C SWAP2 SWAP1 PUSH2 0x2EC8 JUMP JUMPDEST PUSH1 0xE SLOAD PUSH1 0x1 PUSH1 0x1 PUSH1 0xA0 SHL SUB AND PUSH1 0x0 SWAP1 DUP2 MSTORE PUSH1 0x4 DUP8 ADD PUSH1 0x20 MSTORE PUSH1 0x40 SWAP1 KECCAK256 SLOAD PUSH2 0x2393 SWAP2 SWAP1 PUSH2 0x2EB5 JUMP JUMPDEST PUSH1 0x11 SLOAD PUSH1 0xE SLOAD PUSH1 0x1 PUSH1 0x1 PUSH1 0xA0 SHL SUB AND PUSH1 0x0 SWAP1 DUP2 MSTORE PUSH1 0x9 PUSH1 0x20 SWAP1 DUP2 MSTORE PUSH1 0x40 DUP1 DUP4 KECCAK256 PUSH1 0x2 ADD SLOAD PUSH1 0x3 DUP12 ADD SWAP1 SWAP3 MSTORE DUP3 KECCAK256 SLOAD SWAP4 SWAP5 POP SWAP1 SWAP3 DUP7 SWAP2 PUSH2 0x23D1 SWAP2 PUSH2 0x2D57 JUMP JUMPDEST PUSH2 0x23DB SWAP2 SWAP1 PUSH2 0x2D57 JUMP JUMPDEST PUSH2 0x23E5 SWAP2 SWAP1 PUSH2 0x2EC8 JUMP JUMPDEST PUSH1 0xE SLOAD PUSH1 0x1 PUSH1 0x1 PUSH1 0xA0 SHL SUB AND PUSH1 0x0 SWAP1 DUP2 MSTORE PUSH1 0x5 DUP9 ADD PUSH1 0x20 MSTORE PUSH1 0x40 SWAP1 KECCAK256 SLOAD PUSH2 0x240C SWAP2 SWAP1 PUSH2 0x2EB5 JUMP JUMPDEST PUSH1 0xF SLOAD PUSH1 0x11 SLOAD PUSH1 0x1 PUSH1 0x1 PUSH1 0xA0 SHL SUB SWAP1 SWAP2 AND PUSH1 0x0 DUP2 DUP2 MSTORE PUSH1 0x9 PUSH1 0x20 SWAP1 DUP2 MSTORE PUSH1 0x40 DUP1 DUP4 KECCAK256 PUSH1 0x1 ADD SLOAD PUSH1 0x2 DUP14 ADD SWAP1 SWAP3 MSTORE SWAP1 SWAP2 KECCAK256 SLOAD SWAP4 SWAP5 POP PUSH2 0x2452 SWAP4 SWAP2 SWAP3 SWAP2 DUP9 SWAP2 PUSH2 0x22F7 SWAP2 PUSH2 0x2D57 JUMP JUMPDEST DUP7 PUSH1 0x6 ADD SLOAD PUSH2 0x2461 SWAP2 SWAP1 PUSH2 0x2EB5 JUMP JUMPDEST PUSH2 0x246B SWAP1 DUP5 PUSH2 0x2EB5 JUMP JUMPDEST PUSH1 0x11 SLOAD PUSH1 0xF SLOAD PUSH1 0x1 PUSH1 0x1 PUSH1 0xA0 SHL SUB AND PUSH1 0x0 SWAP1 DUP2 MSTORE PUSH1 0x9 PUSH1 0x20 SWAP1 DUP2 MSTORE PUSH1 0x40 DUP1 DUP4 KECCAK256 PUSH1 0x1 ADD SLOAD PUSH1 0x2 DUP13 ADD SWAP1 SWAP3 MSTORE DUP3 KECCAK256 SLOAD SWAP4 SWAP7 POP SWAP1 SWAP3 DUP8 SWAP2 PUSH2 0x24A9 SWAP2 PUSH2 0x2D57 JUMP JUMPDEST PUSH2 0x24B3 SWAP2 SWAP1 PUSH2 0x2D57 JUMP JUMPDEST PUSH2 0x24BD SWAP2 SWAP1 PUSH2 0x2EC8 JUMP JUMPDEST PUSH1 0xF SLOAD PUSH1 0x1 PUSH1 0x1 PUSH1 0xA0 SHL SUB AND PUSH1 0x0 SWAP1 DUP2 MSTORE PUSH1 0x4 DUP10 ADD PUSH1 0x20 MSTORE PUSH1 0x40 SWAP1 KECCAK256 SLOAD PUSH2 0x24E4 SWAP2 SWAP1 PUSH2 0x2EB5 JUMP JUMPDEST PUSH1 0x11 SLOAD PUSH1 0xF SLOAD PUSH1 0x1 PUSH1 0x1 PUSH1 0xA0 SHL SUB AND PUSH1 0x0 SWAP1 DUP2 MSTORE PUSH1 0x9 PUSH1 0x20 SWAP1 DUP2 MSTORE PUSH1 0x40 DUP1 DUP4 KECCAK256 PUSH1 0x2 ADD SLOAD PUSH1 0x3 DUP14 ADD SWAP1 SWAP3 MSTORE DUP3 KECCAK256 SLOAD SWAP4 SWAP5 POP SWAP1 SWAP3 DUP9 SWAP2 PUSH2 0x2522 SWAP2 PUSH2 0x2D57 JUMP JUMPDEST PUSH2 0x252C SWAP2 SWAP1 PUSH2 0x2D57 JUMP JUMPDEST PUSH2 0x2536 SWAP2 SWAP1 PUSH2 0x2EC8 JUMP JUMPDEST PUSH1 0xF SLOAD PUSH1 0x1 PUSH1 0x1 PUSH1 0xA0 SHL SUB AND PUSH1 0x0 SWAP1 DUP2 MSTORE PUSH1 0x5 DUP11 ADD PUSH1 0x20 MSTORE PUSH1 0x40 SWAP1 KECCAK256 SLOAD PUSH2 0x255D SWAP2 SWAP1 PUSH2 0x2EB5 JUMP JUMPDEST SWAP1 POP PUSH1 0x0 PUSH1 0x40 MLOAD DUP1 PUSH2 0x1C0 ADD PUSH1 0x40 MSTORE DUP1 DUP11 PUSH1 0x2 ADD PUSH1 0x0 PUSH1 0xE PUSH1 0x0 SWAP1 SLOAD SWAP1 PUSH2 0x100 EXP SWAP1 DIV PUSH1 0x1 PUSH1 0x1 PUSH1 0xA0 SHL SUB AND PUSH1 0x1 PUSH1 0x1 PUSH1 0xA0 SHL SUB AND PUSH1 0x1 PUSH1 0x1 PUSH1 0xA0 SHL SUB AND DUP2 MSTORE PUSH1 0x20 ADD SWAP1 DUP2 MSTORE PUSH1 0x20 ADD PUSH1 0x0 KECCAK256 SLOAD DUP2 MSTORE PUSH1 0x20 ADD DUP11 PUSH1 0x2 ADD PUSH1 0x0 PUSH1 0xF PUSH1 0x0 SWAP1 SLOAD SWAP1 PUSH2 0x100 EXP SWAP1 DIV PUSH1 0x1 PUSH1 0x1 PUSH1 0xA0 SHL SUB AND PUSH1 0x1 PUSH1 0x1 PUSH1 0xA0 SHL SUB AND PUSH1 0x1 PUSH1 0x1 PUSH1 0xA0 SHL SUB AND DUP2 MSTORE PUSH1 0x20 ADD SWAP1 DUP2 MSTORE PUSH1 0x20 ADD PUSH1 0x0 KECCAK256 SLOAD DUP2 MSTORE PUSH1 0x20 ADD DUP11 PUSH1 0x3 ADD PUSH1 0x0 PUSH1 0xE PUSH1 0x0 SWAP1 SLOAD SWAP1 PUSH2 0x100 EXP SWAP1 DIV PUSH1 0x1 PUSH1 0x1 PUSH1 0xA0 SHL SUB AND PUSH1 0x1 PUSH1 0x1 PUSH1 0xA0 SHL SUB AND PUSH1 0x1 PUSH1 0x1 PUSH1 0xA0 SHL SUB AND DUP2 MSTORE PUSH1 0x20 ADD SWAP1 DUP2 MSTORE PUSH1 0x20 ADD PUSH1 0x0 KECCAK256 SLOAD DUP2 MSTORE PUSH1 0x20 ADD DUP11 PUSH1 0x3 ADD PUSH1 0x0 PUSH1 0xF PUSH1 0x0 SWAP1 SLOAD SWAP1 PUSH2 0x100 EXP SWAP1 DIV PUSH1 0x1 PUSH1 0x1 PUSH1 0xA0 SHL SUB AND PUSH1 0x1 PUSH1 0x1 PUSH1 0xA0 SHL SUB AND PUSH1 0x1 PUSH1 0x1 PUSH1 0xA0 SHL SUB AND DUP2 MSTORE PUSH1 0x20 ADD SWAP1 DUP2 MSTORE PUSH1 0x20 ADD PUSH1 0x0 KECCAK256 SLOAD DUP2 MSTORE PUSH1 0x20 ADD DUP6 DUP2 MSTORE PUSH1 0x20 ADD DUP4 DUP2 MSTORE PUSH1 0x20 ADD DUP7 DUP2 MSTORE PUSH1 0x20 ADD DUP5 DUP2 MSTORE PUSH1 0x20 ADD DUP8 DUP2 MSTORE PUSH1 0x20 ADD PUSH2 0x26F4 PUSH1 0xE PUSH1 0x0 SWAP1 SLOAD SWAP1 PUSH2 0x100 EXP SWAP1 DIV PUSH1 0x1 PUSH1 0x1 PUSH1 0xA0 SHL SUB AND DUP9 DUP14 PUSH1 0x2 ADD PUSH1 0x0 PUSH1 0xE PUSH1 0x0 SWAP1 SLOAD SWAP1 PUSH2 0x100 EXP SWAP1 DIV PUSH1 0x1 PUSH1 0x1 PUSH1 0xA0 SHL SUB AND PUSH1 0x1 PUSH1 0x1 PUSH1 0xA0 SHL SUB AND PUSH1 0x1 PUSH1 0x1 PUSH1 0xA0 SHL SUB AND DUP2 MSTORE PUSH1 0x20 ADD SWAP1 DUP2 MSTORE PUSH1 0x20 ADD PUSH1 0x0 KECCAK256 SLOAD PUSH2 0x167 SWAP2 SWAP1 PUSH2 0x2EB5 JUMP JUMPDEST DUP2 MSTORE PUSH1 0xF SLOAD PUSH1 0x1 PUSH1 0x1 PUSH1 0xA0 SHL SUB AND PUSH1 0x0 DUP2 DUP2 MSTORE PUSH1 0x2 DUP14 ADD PUSH1 0x20 SWAP1 DUP2 MSTORE PUSH1 0x40 SWAP1 SWAP2 KECCAK256 SLOAD SWAP3 ADD SWAP2 PUSH2 0x2729 SWAP2 SWAP1 PUSH2 0x167 SWAP1 DUP9 SWAP1 PUSH2 0x2EB5 JUMP JUMPDEST DUP2 MSTORE PUSH1 0xE SLOAD PUSH1 0x1 PUSH1 0x1 PUSH1 0xA0 SHL SUB AND PUSH1 0x0 DUP2 DUP2 MSTORE PUSH1 0x3 DUP14 ADD PUSH1 0x20 SWAP1 DUP2 MSTORE PUSH1 0x40 SWAP1 SWAP2 KECCAK256 SLOAD SWAP3 ADD SWAP2 PUSH2 0x275E SWAP2 SWAP1 PUSH2 0x167 SWAP1 DUP10 SWAP1 PUSH2 0x2EB5 JUMP JUMPDEST DUP2 MSTORE PUSH1 0xF SLOAD PUSH1 0x1 PUSH1 0x1 PUSH1 0xA0 SHL SUB AND PUSH1 0x0 DUP2 DUP2 MSTORE PUSH1 0x3 DUP14 ADD PUSH1 0x20 SWAP1 DUP2 MSTORE PUSH1 0x40 SWAP1 SWAP2 KECCAK256 SLOAD SWAP3 ADD SWAP2 PUSH2 0x2793 SWAP2 SWAP1 PUSH2 0x167 SWAP1 DUP8 SWAP1 PUSH2 0x2EB5 JUMP JUMPDEST DUP2 MSTORE SWAP10 SLOAD PUSH1 0x1 PUSH1 0x1 PUSH1 0xA0 SHL SUB AND PUSH1 0x20 SWAP1 SWAP11 ADD SWAP10 SWAP1 SWAP10 MSTORE POP SWAP7 SWAP10 SWAP9 POP POP POP POP POP POP POP POP POP JUMP JUMPDEST PUSH1 0x40 MLOAD DUP1 PUSH2 0x1C0 ADD PUSH1 0x40 MSTORE DUP1 PUSH1 0x0 DUP2 MSTORE PUSH1 0x20 ADD PUSH1 0x0 DUP2 MSTORE PUSH1 0x20 ADD PUSH1 0x0 DUP2 MSTORE PUSH1 0x20 ADD PUSH1 0x0 DUP2 MSTORE PUSH1 0x20 ADD PUSH1 0x0 DUP2 MSTORE PUSH1 0x20 ADD PUSH1 0x0 DUP2 MSTORE PUSH1 0x20 ADD PUSH1 0x0 DUP2 MSTORE PUSH1 0x20 ADD PUSH1 0x0 DUP2 MSTORE PUSH1 0x20 ADD PUSH1 0x0 DUP2 MSTORE PUSH1 0x20 ADD PUSH1 0x0 DUP2 MSTORE PUSH1 0x20 ADD PUSH1 0x0 DUP2 MSTORE PUSH1 0x20 ADD PUSH1 0x0 DUP2 MSTORE PUSH1 0x20 ADD PUSH1 0x0 DUP2 MSTORE PUSH1 0x20 ADD CALLER PUSH1 0x1 PUSH1 0x1 PUSH1 0xA0 SHL SUB AND DUP2 MSTORE POP SWAP1 POP SWAP2 SWAP1 POP JUMP JUMPDEST SWAP2 SWAP1 POP JUMP JUMPDEST PUSH1 0x1 PUSH1 0x1 PUSH1 0xA0 SHL SUB DUP2 AND PUSH2 0x289D JUMPI PUSH1 0x40 MLOAD PUSH3 0x461BCD PUSH1 0xE5 SHL DUP2 MSTORE PUSH1 0x20 PUSH1 0x4 DUP3 ADD MSTORE PUSH1 0x26 PUSH1 0x24 DUP3 ADD MSTORE PUSH32 0x4F776E61626C653A206E6577206F776E657220697320746865207A65726F2061 PUSH1 0x44 DUP3 ADD MSTORE PUSH6 0x646472657373 PUSH1 0xD0 SHL PUSH1 0x64 DUP3 ADD MSTORE PUSH1 0x84 ADD PUSH2 0x56F JUMP JUMPDEST PUSH1 0x0 DUP1 SLOAD PUSH1 0x40 MLOAD PUSH1 0x1 PUSH1 0x1 PUSH1 0xA0 SHL SUB DUP1 DUP6 AND SWAP4 SWAP3 AND SWAP2 PUSH32 0x8BE0079C531659141344CD1FD0A4F28419497F9722A3DAAFE3B4186F6B6457E0 SWAP2 LOG3 PUSH1 0x0 DUP1 SLOAD PUSH1 0x1 PUSH1 0x1 PUSH1 0xA0 SHL SUB NOT AND PUSH1 0x1 PUSH1 0x1 PUSH1 0xA0 SHL SUB SWAP3 SWAP1 SWAP3 AND SWAP2 SWAP1 SWAP2 OR SWAP1 SSTORE JUMP JUMPDEST PUSH1 0x0 DUP1 PUSH1 0x0 DUP1 PUSH1 0x0 PUSH2 0x2909 DUP7 PUSH2 0x493 JUMP JUMPDEST PUSH1 0x60 DUP2 ADD MLOAD PUSH1 0x80 DUP3 ADD MLOAD SWAP1 SWAP5 POP SWAP3 POP SWAP1 POP PUSH1 0x0 DUP1 DUP5 ISZERO PUSH2 0x2A4C JUMPI PUSH1 0x0 PUSH2 0x2934 DUP7 PUSH2 0x483 DUP8 PUSH1 0x64 PUSH2 0x2D57 JUMP JUMPDEST SWAP1 POP DUP1 PUSH1 0x5 PUSH1 0x1 ADD SLOAD GT ISZERO PUSH2 0x296C JUMPI PUSH1 0x6 SLOAD PUSH1 0x7 SLOAD PUSH2 0x2958 SWAP2 SWAP1 PUSH2 0x483 SWAP1 DUP5 PUSH2 0x2D57 JUMP JUMPDEST PUSH1 0x5 SLOAD PUSH2 0x2965 SWAP2 SWAP1 PUSH2 0x2EB5 JUMP JUMPDEST SWAP3 POP PUSH2 0x29B5 JUMP JUMPDEST PUSH1 0x6 SLOAD PUSH2 0x2998 SWAP1 PUSH2 0x297E SWAP1 PUSH1 0x64 PUSH2 0x2EA2 JUMP JUMPDEST PUSH1 0x8 SLOAD PUSH1 0x6 SLOAD PUSH2 0x298E SWAP1 DUP6 PUSH2 0x2EA2 JUMP JUMPDEST PUSH2 0x483 SWAP2 SWAP1 PUSH2 0x2D57 JUMP JUMPDEST PUSH1 0x7 SLOAD PUSH1 0x5 SLOAD PUSH2 0x29A8 SWAP2 SWAP1 PUSH2 0x2EB5 JUMP JUMPDEST PUSH2 0x29B2 SWAP2 SWAP1 PUSH2 0x2EB5 JUMP JUMPDEST SWAP3 POP JUMPDEST PUSH1 0x2 SLOAD DUP2 LT ISZERO PUSH2 0x29E8 JUMPI PUSH1 0x2 SLOAD PUSH1 0x3 SLOAD PUSH2 0x29D4 SWAP2 SWAP1 PUSH2 0x483 SWAP1 DUP5 PUSH2 0x2D57 JUMP JUMPDEST PUSH1 0x1 SLOAD PUSH2 0x29E1 SWAP2 SWAP1 PUSH2 0x2EB5 JUMP JUMPDEST SWAP2 POP PUSH2 0x2A27 JUMP JUMPDEST PUSH1 0x2 SLOAD PUSH2 0x2A0A SWAP1 PUSH2 0x29FA SWAP1 PUSH1 0x64 PUSH2 0x2EA2 JUMP JUMPDEST PUSH1 0x4 SLOAD PUSH1 0x2 SLOAD PUSH2 0x298E SWAP1 DUP6 PUSH2 0x2EA2 JUMP JUMPDEST PUSH1 0x3 SLOAD PUSH1 0x1 SLOAD PUSH2 0x2A1A SWAP2 SWAP1 PUSH2 0x2EB5 JUMP JUMPDEST PUSH2 0x2A24 SWAP2 SWAP1 PUSH2 0x2EB5 JUMP JUMPDEST SWAP2 POP JUMPDEST PUSH1 0x12 SLOAD PUSH2 0x2A34 SWAP1 DUP4 PUSH2 0x2D57 JUMP JUMPDEST SWAP2 POP PUSH1 0x12 SLOAD DUP4 PUSH2 0x2A44 SWAP2 SWAP1 PUSH2 0x2D57 JUMP JUMPDEST SWAP3 POP POP PUSH2 0x2A71 JUMP JUMPDEST PUSH1 0x12 SLOAD PUSH1 0x1 SLOAD PUSH2 0x2A5C SWAP2 SWAP1 PUSH2 0x2D57 JUMP JUMPDEST PUSH1 0x12 SLOAD PUSH1 0x5 SLOAD SWAP2 SWAP3 POP PUSH2 0x2A6E SWAP2 PUSH2 0x2D57 JUMP JUMPDEST SWAP2 POP JUMPDEST SWAP8 SWAP1 SWAP7 POP SWAP5 POP POP POP POP POP JUMP JUMPDEST PUSH1 0x40 MLOAD DUP1 PUSH2 0x1C0 ADD PUSH1 0x40 MSTORE DUP1 PUSH1 0x0 DUP2 MSTORE PUSH1 0x20 ADD PUSH1 0x0 DUP2 MSTORE PUSH1 0x20 ADD PUSH1 0x0 DUP2 MSTORE PUSH1 0x20 ADD PUSH1 0x0 DUP2 MSTORE PUSH1 0x20 ADD PUSH1 0x0 DUP2 MSTORE PUSH1 0x20 ADD PUSH1 0x0 DUP2 MSTORE PUSH1 0x20 ADD PUSH1 0x0 DUP2 MSTORE PUSH1 0x20 ADD PUSH1 0x0 DUP2 MSTORE PUSH1 0x20 ADD PUSH1 0x0 DUP2 MSTORE PUSH1 0x20 ADD PUSH1 0x0 DUP2 MSTORE PUSH1 0x20 ADD PUSH1 0x0 DUP2 MSTORE PUSH1 0x20 ADD PUSH1 0x0 DUP2 MSTORE PUSH1 0x20 ADD PUSH1 0x0 DUP2 MSTORE PUSH1 0x20 ADD PUSH1 0x0 PUSH1 0x1 PUSH1 0x1 PUSH1 0xA0 SHL SUB AND DUP2 MSTORE POP SWAP1 JUMP JUMPDEST DUP1 CALLDATALOAD PUSH1 0x1 PUSH1 0x1 PUSH1 0xA0 SHL SUB DUP2 AND DUP2 EQ PUSH2 0x2833 JUMPI PUSH1 0x0 DUP1 REVERT JUMPDEST PUSH1 0x0 DUP1 PUSH1 0x40 DUP4 DUP6 SUB SLT ISZERO PUSH2 0x2B1F JUMPI PUSH1 0x0 DUP1 REVERT JUMPDEST PUSH2 0x2B28 DUP4 PUSH2 0x2AF5 JUMP JUMPDEST SWAP5 PUSH1 0x20 SWAP4 SWAP1 SWAP4 ADD CALLDATALOAD SWAP4 POP POP POP JUMP JUMPDEST PUSH1 0x0 PUSH1 0x20 DUP3 DUP5 SUB SLT ISZERO PUSH2 0x2B48 JUMPI PUSH1 0x0 DUP1 REVERT JUMPDEST PUSH2 0x1EC4 DUP3 PUSH2 0x2AF5 JUMP JUMPDEST PUSH1 0xA0 DUP2 ADD PUSH2 0x48D DUP3 DUP5 DUP1 MLOAD DUP3 MSTORE PUSH1 0x20 DUP2 ADD MLOAD PUSH1 0x20 DUP4 ADD MSTORE PUSH1 0x40 DUP2 ADD MLOAD PUSH1 0x40 DUP4 ADD MSTORE PUSH1 0x60 DUP2 ADD MLOAD PUSH1 0x60 DUP4 ADD MSTORE PUSH1 0x80 DUP2 ADD MLOAD PUSH1 0x80 DUP4 ADD MSTORE POP POP JUMP JUMPDEST DUP1 MLOAD DUP3 MSTORE PUSH1 0x20 DUP2 ADD MLOAD PUSH1 0x20 DUP4 ADD MSTORE PUSH1 0x40 DUP2 ADD MLOAD PUSH1 0x40 DUP4 ADD MSTORE PUSH1 0x60 DUP2 ADD MLOAD PUSH1 0x60 DUP4 ADD MSTORE PUSH1 0x80 DUP2 ADD MLOAD PUSH1 0x80 DUP4 ADD MSTORE PUSH1 0xA0 DUP2 ADD MLOAD PUSH1 0xA0 DUP4 ADD MSTORE PUSH1 0xC0 DUP2 ADD MLOAD PUSH1 0xC0 DUP4 ADD MSTORE PUSH1 0xE0 DUP2 ADD MLOAD PUSH1 0xE0 DUP4 ADD MSTORE PUSH2 0x100 DUP1 DUP3 ADD MLOAD DUP2 DUP5 ADD MSTORE POP PUSH2 0x120 DUP1 DUP3 ADD MLOAD DUP2 DUP5 ADD MSTORE POP PUSH2 0x140 DUP1 DUP3 ADD MLOAD DUP2 DUP5 ADD MSTORE POP PUSH2 0x160 DUP1 DUP3 ADD MLOAD DUP2 DUP5 ADD MSTORE POP PUSH2 0x180 DUP1 DUP3 ADD MLOAD DUP2 DUP5 ADD MSTORE POP PUSH2 0x1A0 DUP1 DUP3 ADD MLOAD PUSH2 0x1126 DUP3 DUP6 ADD DUP3 PUSH1 0x1 PUSH1 0x1 PUSH1 0xA0 SHL SUB AND SWAP1 MSTORE JUMP JUMPDEST PUSH1 0x20 DUP1 DUP3 MSTORE DUP3 MLOAD DUP3 DUP3 ADD DUP2 SWAP1 MSTORE PUSH1 0x0 SWAP2 SWAP1 DUP5 DUP3 ADD SWAP1 PUSH1 0x40 DUP6 ADD SWAP1 DUP5 JUMPDEST DUP2 DUP2 LT ISZERO PUSH2 0x2C6E JUMPI PUSH2 0x2C5A DUP4 DUP6 MLOAD PUSH2 0x2B8A JUMP JUMPDEST SWAP3 DUP5 ADD SWAP3 PUSH2 0x1C0 SWAP3 SWAP1 SWAP3 ADD SWAP2 PUSH1 0x1 ADD PUSH2 0x2C47 JUMP JUMPDEST POP SWAP1 SWAP7 SWAP6 POP POP POP POP POP POP JUMP JUMPDEST PUSH1 0x0 PUSH1 0x20 DUP3 DUP5 SUB SLT ISZERO PUSH2 0x2C8C JUMPI PUSH1 0x0 DUP1 REVERT JUMPDEST POP CALLDATALOAD SWAP2 SWAP1 POP JUMP JUMPDEST PUSH2 0x1C0 DUP2 ADD PUSH2 0x48D DUP3 DUP5 PUSH2 0x2B8A JUMP JUMPDEST PUSH1 0x0 DUP1 PUSH1 0x0 DUP1 PUSH1 0x80 DUP6 DUP8 SUB SLT ISZERO PUSH2 0x2CB8 JUMPI PUSH1 0x0 DUP1 REVERT JUMPDEST POP POP DUP3 CALLDATALOAD SWAP5 PUSH1 0x20 DUP5 ADD CALLDATALOAD SWAP5 POP PUSH1 0x40 DUP5 ADD CALLDATALOAD SWAP4 PUSH1 0x60 ADD CALLDATALOAD SWAP3 POP SWAP1 POP JUMP JUMPDEST PUSH1 0x20 DUP1 DUP3 MSTORE DUP3 MLOAD DUP3 DUP3 ADD DUP2 SWAP1 MSTORE PUSH1 0x0 SWAP2 SWAP1 DUP5 DUP3 ADD SWAP1 PUSH1 0x40 DUP6 ADD SWAP1 DUP5 JUMPDEST DUP2 DUP2 LT ISZERO PUSH2 0x2C6E JUMPI PUSH2 0x2D2E DUP4 DUP6 MLOAD DUP1 MLOAD DUP3 MSTORE PUSH1 0x20 DUP2 ADD MLOAD PUSH1 0x20 DUP4 ADD MSTORE PUSH1 0x40 DUP2 ADD MLOAD PUSH1 0x40 DUP4 ADD MSTORE PUSH1 0x60 DUP2 ADD MLOAD PUSH1 0x60 DUP4 ADD MSTORE PUSH1 0x80 DUP2 ADD MLOAD PUSH1 0x80 DUP4 ADD MSTORE POP POP JUMP JUMPDEST SWAP3 DUP5 ADD SWAP3 PUSH1 0xA0 SWAP3 SWAP1 SWAP3 ADD SWAP2 PUSH1 0x1 ADD PUSH2 0x2CF0 JUMP JUMPDEST PUSH4 0x4E487B71 PUSH1 0xE0 SHL PUSH1 0x0 MSTORE PUSH1 0x11 PUSH1 0x4 MSTORE PUSH1 0x24 PUSH1 0x0 REVERT JUMPDEST DUP1 DUP3 MUL DUP2 ISZERO DUP3 DUP3 DIV DUP5 EQ OR PUSH2 0x48D JUMPI PUSH2 0x48D PUSH2 0x2D41 JUMP JUMPDEST PUSH1 0x20 DUP1 DUP3 MSTORE DUP2 DUP2 ADD MSTORE PUSH32 0x4F776E61626C653A2063616C6C6572206973206E6F7420746865206F776E6572 PUSH1 0x40 DUP3 ADD MSTORE PUSH1 0x60 ADD SWAP1 JUMP JUMPDEST PUSH1 0x0 PUSH1 0x20 DUP3 DUP5 SUB SLT ISZERO PUSH2 0x2DB5 JUMPI PUSH1 0x0 DUP1 REVERT JUMPDEST DUP2 MLOAD DUP1 ISZERO ISZERO DUP2 EQ PUSH2 0x1EC4 JUMPI PUSH1 0x0 DUP1 REVERT JUMPDEST DUP1 MLOAD PUSH10 0xFFFFFFFFFFFFFFFFFFFF DUP2 AND DUP2 EQ PUSH2 0x2833 JUMPI PUSH1 0x0 DUP1 REVERT JUMPDEST PUSH1 0x0 DUP1 PUSH1 0x0 DUP1 PUSH1 0x0 PUSH1 0xA0 DUP7 DUP9 SUB SLT ISZERO PUSH2 0x2DF7 JUMPI PUSH1 0x0 DUP1 REVERT JUMPDEST PUSH2 0x2E00 DUP7 PUSH2 0x2DC5 JUMP JUMPDEST SWAP5 POP PUSH1 0x20 DUP7 ADD MLOAD SWAP4 POP PUSH1 0x40 DUP7 ADD MLOAD SWAP3 POP PUSH1 0x60 DUP7 ADD MLOAD SWAP2 POP PUSH2 0x2E23 PUSH1 0x80 DUP8 ADD PUSH2 0x2DC5 JUMP JUMPDEST SWAP1 POP SWAP3 SWAP6 POP SWAP3 SWAP6 SWAP1 SWAP4 POP JUMP JUMPDEST DUP1 DUP3 MUL PUSH1 0x0 DUP3 SLT PUSH1 0x1 PUSH1 0xFF SHL DUP5 EQ AND ISZERO PUSH2 0x2E4B JUMPI PUSH2 0x2E4B PUSH2 0x2D41 JUMP JUMPDEST DUP2 DUP2 SDIV DUP4 EQ DUP3 ISZERO OR PUSH2 0x48D JUMPI PUSH2 0x48D PUSH2 0x2D41 JUMP JUMPDEST PUSH1 0x20 DUP1 DUP3 MSTORE PUSH1 0x23 SWAP1 DUP3 ADD MSTORE PUSH32 0x5573657220696E6465782073686F756C6420626520626967676572207468616E PUSH1 0x40 DUP3 ADD MSTORE PUSH3 0x101817 PUSH1 0xE9 SHL PUSH1 0x60 DUP3 ADD MSTORE PUSH1 0x80 ADD SWAP1 JUMP JUMPDEST DUP2 DUP2 SUB DUP2 DUP2 GT ISZERO PUSH2 0x48D JUMPI PUSH2 0x48D PUSH2 0x2D41 JUMP JUMPDEST DUP1 DUP3 ADD DUP1 DUP3 GT ISZERO PUSH2 0x48D JUMPI PUSH2 0x48D PUSH2 0x2D41 JUMP JUMPDEST PUSH1 0x0 DUP3 PUSH2 0x2EE5 JUMPI PUSH4 0x4E487B71 PUSH1 0xE0 SHL PUSH1 0x0 MSTORE PUSH1 0x12 PUSH1 0x4 MSTORE PUSH1 0x24 PUSH1 0x0 REVERT JUMPDEST POP DIV SWAP1 JUMP JUMPDEST PUSH4 0x4E487B71 PUSH1 0xE0 SHL PUSH1 0x0 MSTORE PUSH1 0x41 PUSH1 0x4 MSTORE PUSH1 0x24 PUSH1 0x0 REVERT JUMPDEST PUSH4 0x4E487B71 PUSH1 0xE0 SHL PUSH1 0x0 MSTORE PUSH1 0x32 PUSH1 0x4 MSTORE PUSH1 0x24 PUSH1 0x0 REVERT JUMPDEST PUSH1 0x0 PUSH1 0x1 DUP3 ADD PUSH2 0x2F28 JUMPI PUSH2 0x2F28 PUSH2 0x2D41 JUMP JUMPDEST POP PUSH1 0x1 ADD SWAP1 JUMP INVALID LOG2 PUSH5 0x6970667358 0x22 SLT KECCAK256 RETURNDATASIZE PUSH12 0x5F5A8A106A13DF75F21F622C DUP8 ADDRESS SWAP8 CODECOPY 0x2D 0xCB SWAP5 0xAF 0xDA SWAP16 0x24 SWAP16 CREATE2 CODESIZE 0xDF 0x4E BASEFEE SHR PUSH5 0x736F6C6343 STOP ADDMOD SLT STOP CALLER 0x4F PUSH24 0x6E61626C653A2063616C6C6572206973206E6F7420746865 KECCAK256 PUSH16 0x776E6572000000000000000000000000 "},"gasEstimates":{"creation":{"codeDepositCost":"2426600","executionCost":"infinite","totalCost":"infinite"},"external":{"":"229","borrow(address,uint256)":"infinite","calcTokenPrice(address,uint256)":"infinite","claimETH(uint256)":"infinite","claimPeko()":"infinite","claimToken(address,uint256)":"infinite","collateral(address)":"infinite","debt(address)":"infinite","deposit(address,uint256)":"infinite","getEthValue()":"infinite","getLiquidationThreshhold()":"2347","getMarketInfo()":"infinite","getPoolInfo(address)":"infinite","getUserInfo(address)":"infinite","liquidate(address)":"infinite","listPools()":"infinite","listUserInfo()":"infinite","owner()":"2412","renounceOwnership()":"30232","repay(address,uint256)":"infinite","setBorrowApy(uint256,uint256,uint256,uint256)":"90874","setLiquidationThreshhold(uint256)":"24575","setSupplyApy(uint256,uint256,uint256,uint256)":"90873","transferOwnership(address)":"30517","withdraw(address,uint256)":"infinite"},"internal":{"addPool(address,uint256,uint256,uint256,uint256,uint256)":"infinite","calcuateUser(address)":"infinite","calculateAPY(address)":"infinite","clearUser(address)":"infinite","fetchUserInfo(uint256)":"infinite"}},"methodIdentifiers":{"borrow(address,uint256)":"4b8a3529","calcTokenPrice(address,uint256)":"05cb9fde","claimETH(uint256)":"fe96973a","claimPeko()":"838afb1e","claimToken(address,uint256)":"1698755f","collateral(address)":"a5fdc5de","debt(address)":"9b6c56ec","deposit(address,uint256)":"47e7ef24","getEthValue()":"1c5a859b","getLiquidationThreshhold()":"e124787f","getMarketInfo()":"23341a05","getPoolInfo(address)":"06bfa938","getUserInfo(address)":"6386c1c7","liquidate(address)":"2f865568","listPools()":"68795862","listUserInfo()":"5063e91a","owner()":"8da5cb5b","renounceOwnership()":"715018a6","repay(address,uint256)":"22867d78","setBorrowApy(uint256,uint256,uint256,uint256)":"660fd831","setLiquidationThreshhold(uint256)":"616571e7","setSupplyApy(uint256,uint256,uint256,uint256)":"a079722d","transferOwnership(address)":"f2fde38b","withdraw(address,uint256)":"f3fef3a3"}},"storageLayout":{"storage":[{"astId":335,"contract":"contracts/Lending.sol:Lending","label":"_owner","offset":0,"slot":"0","type":"t_address"},{"astId":662,"contract":"contracts/Lending.sol:Lending","label":"supplyAPY","offset":0,"slot":"1","type":"t_struct(APYInfo)659_storage"},{"astId":665,"contract":"contracts/Lending.sol:Lending","label":"borrowAPY","offset":0,"slot":"5","type":"t_struct(APYInfo)659_storage"},{"astId":670,"contract":"contracts/Lending.sol:Lending","label":"poolInfos","offset":0,"slot":"9","type":"t_mapping(t_address,t_struct(PoolInfo)650_storage)"},{"astId":672,"contract":"contracts/Lending.sol:Lending","label":"maxUserIndex","offset":0,"slot":"10","type":"t_uint256"},{"astId":677,"contract":"contracts/Lending.sol:Lending","label":"userInfos","offset":0,"slot":"11","type":"t_mapping(t_uint256,t_struct(UserInfo)610_storage)"},{"astId":681,"contract":"contracts/Lending.sol:Lending","label":"userInfoIndex","offset":0,"slot":"12","type":"t_mapping(t_address,t_uint256)"},{"astId":683,"contract":"contracts/Lending.sol:Lending","label":"rewardAddress","offset":0,"slot":"13","type":"t_address"},{"astId":685,"contract":"contracts/Lending.sol:Lending","label":"ethAddress","offset":0,"slot":"14","type":"t_address"},{"astId":687,"contract":"contracts/Lending.sol:Lending","label":"usdtAddress","offset":0,"slot":"15","type":"t_address"},{"astId":690,"contract":"contracts/Lending.sol:Lending","label":"liquidationThreshhold","offset":0,"slot":"16","type":"t_uint256"},{"astId":693,"contract":"contracts/Lending.sol:Lending","label":"decimal","offset":0,"slot":"17","type":"t_uint256"},{"astId":696,"contract":"contracts/Lending.sol:Lending","label":"secondApy","offset":0,"slot":"18","type":"t_uint256"},{"astId":699,"contract":"contracts/Lending.sol:Lending","label":"aggregatorInterface","offset":0,"slot":"19","type":"t_address"}],"types":{"t_address":{"encoding":"inplace","label":"address","numberOfBytes":"20"},"t_mapping(t_address,t_struct(PoolInfo)650_storage)":{"encoding":"mapping","key":"t_address","label":"mapping(address => struct Lending.PoolInfo)","numberOfBytes":"32","value":"t_struct(PoolInfo)650_storage"},"t_mapping(t_address,t_uint256)":{"encoding":"mapping","key":"t_address","label":"mapping(address => uint256)","numberOfBytes":"32","value":"t_uint256"},"t_mapping(t_uint256,t_struct(UserInfo)610_storage)":{"encoding":"mapping","key":"t_uint256","label":"mapping(uint256 => struct Lending.UserInfo)","numberOfBytes":"32","value":"t_struct(UserInfo)610_storage"},"t_struct(APYInfo)659_storage":{"encoding":"inplace","label":"struct Lending.APYInfo","members":[{"astId":652,"contract":"contracts/Lending.sol:Lending","label":"r0","offset":0,"slot":"0","type":"t_uint256"},{"astId":654,"contract":"contracts/Lending.sol:Lending","label":"uOption","offset":0,"slot":"1","type":"t_uint256"},{"astId":656,"contract":"contracts/Lending.sol:Lending","label":"slope1","offset":0,"slot":"2","type":"t_uint256"},{"astId":658,"contract":"contracts/Lending.sol:Lending","label":"slope2","offset":0,"slot":"3","type":"t_uint256"}],"numberOfBytes":"128"},"t_struct(PoolInfo)650_storage":{"encoding":"inplace","label":"struct Lending.PoolInfo","members":[{"astId":641,"contract":"contracts/Lending.sol:Lending","label":"LTV","offset":0,"slot":"0","type":"t_uint256"},{"astId":643,"contract":"contracts/Lending.sol:Lending","label":"depositApy","offset":0,"slot":"1","type":"t_uint256"},{"astId":645,"contract":"contracts/Lending.sol:Lending","label":"borrowApy","offset":0,"slot":"2","type":"t_uint256"},{"astId":647,"contract":"contracts/Lending.sol:Lending","label":"totalAmount","offset":0,"slot":"3","type":"t_uint256"},{"astId":649,"contract":"contracts/Lending.sol:Lending","label":"borrowAmount","offset":0,"slot":"4","type":"t_uint256"}],"numberOfBytes":"160"},"t_struct(UserInfo)610_storage":{"encoding":"inplace","label":"struct Lending.UserInfo","members":[{"astId":589,"contract":"contracts/Lending.sol:Lending","label":"accountAddress","offset":0,"slot":"0","type":"t_address"},{"astId":591,"contract":"contracts/Lending.sol:Lending","label":"lastInterest","offset":0,"slot":"1","type":"t_uint256"},{"astId":595,"contract":"contracts/Lending.sol:Lending","label":"tokenDepositAmount","offset":0,"slot":"2","type":"t_mapping(t_address,t_uint256)"},{"astId":599,"contract":"contracts/Lending.sol:Lending","label":"tokenBorrowAmount","offset":0,"slot":"3","type":"t_mapping(t_address,t_uint256)"},{"astId":603,"contract":"contracts/Lending.sol:Lending","label":"tokenRewardAmount","offset":0,"slot":"4","type":"t_mapping(t_address,t_uint256)"},{"astId":607,"contract":"contracts/Lending.sol:Lending","label":"tokenInterestAmount","offset":0,"slot":"5","type":"t_mapping(t_address,t_uint256)"},{"astId":609,"contract":"contracts/Lending.sol:Lending","label":"pekoRewardAmount","offset":0,"slot":"6","type":"t_uint256"}],"numberOfBytes":"224"},"t_uint256":{"encoding":"inplace","label":"uint256","numberOfBytes":"32"}}},"userdoc":{"kind":"user","methods":{},"version":1}}}}