{
  "_format": "hh-sol-artifact-1",
  "contractName": "Lending",
  "sourceName": "contracts/Lending.sol",
  "abi": [
    {
      "inputs": [
        {
          "internalType": "address",
          "name": "_rewardAddress",
          "type": "address"
        },
        {
          "internalType": "address",
          "name": "_ethAdddress",
          "type": "address"
        },
        {
          "internalType": "address",
          "name": "_usdtAddress",
          "type": "address"
        },
        {
          "internalType": "address",
          "name": "_poolAddress",
          "type": "address"
        }
      ],
      "stateMutability": "nonpayable",
      "type": "constructor"
    },
    {
      "anonymous": false,
      "inputs": [
        {
          "indexed": true,
          "internalType": "address",
          "name": "previousOwner",
          "type": "address"
        },
        {
          "indexed": true,
          "internalType": "address",
          "name": "newOwner",
          "type": "address"
        }
      ],
      "name": "OwnershipTransferred",
      "type": "event"
    },
    {
      "stateMutability": "payable",
      "type": "fallback"
    },
    {
      "inputs": [
        {
          "internalType": "address",
          "name": "_tokenAddress",
          "type": "address"
        },
        {
          "internalType": "uint256",
          "name": "_amount",
          "type": "uint256"
        }
      ],
      "name": "borrow",
      "outputs": [],
      "stateMutability": "nonpayable",
      "type": "function"
    },
    {
      "inputs": [
        {
          "internalType": "address",
          "name": "_tokenAddress",
          "type": "address"
        },
        {
          "internalType": "uint256",
          "name": "_amount",
          "type": "uint256"
        }
      ],
      "name": "calcTokenPrice",
      "outputs": [
        {
          "internalType": "uint256",
          "name": "",
          "type": "uint256"
        }
      ],
      "stateMutability": "view",
      "type": "function"
    },
    {
      "inputs": [
        {
          "internalType": "uint256",
          "name": "amount",
          "type": "uint256"
        }
      ],
      "name": "claimETH",
      "outputs": [],
      "stateMutability": "nonpayable",
      "type": "function"
    },
    {
      "inputs": [],
      "name": "claimPeko",
      "outputs": [],
      "stateMutability": "nonpayable",
      "type": "function"
    },
    {
      "inputs": [
        {
          "internalType": "address",
          "name": "tokenAddress",
          "type": "address"
        },
        {
          "internalType": "uint256",
          "name": "amount",
          "type": "uint256"
        }
      ],
      "name": "claimToken",
      "outputs": [],
      "stateMutability": "nonpayable",
      "type": "function"
    },
    {
      "inputs": [
        {
          "internalType": "address",
          "name": "_account",
          "type": "address"
        }
      ],
      "name": "collateral",
      "outputs": [
        {
          "internalType": "uint256",
          "name": "",
          "type": "uint256"
        }
      ],
      "stateMutability": "nonpayable",
      "type": "function"
    },
    {
      "inputs": [
        {
          "internalType": "address",
          "name": "_account",
          "type": "address"
        }
      ],
      "name": "debt",
      "outputs": [
        {
          "internalType": "uint256",
          "name": "",
          "type": "uint256"
        }
      ],
      "stateMutability": "nonpayable",
      "type": "function"
    },
    {
      "inputs": [
        {
          "internalType": "address",
          "name": "_tokenAddress",
          "type": "address"
        },
        {
          "internalType": "uint256",
          "name": "_amount",
          "type": "uint256"
        }
      ],
      "name": "deposit",
      "outputs": [],
      "stateMutability": "payable",
      "type": "function"
    },
    {
      "inputs": [
        {
          "internalType": "address",
          "name": "_pool",
          "type": "address"
        },
        {
          "internalType": "address",
          "name": "_weth",
          "type": "address"
        },
        {
          "internalType": "address",
          "name": "_usdc",
          "type": "address"
        }
      ],
      "name": "getEthValue",
      "outputs": [
        {
          "internalType": "uint256",
          "name": "",
          "type": "uint256"
        }
      ],
      "stateMutability": "view",
      "type": "function"
    },
    {
      "inputs": [],
      "name": "getMarketInfo",
      "outputs": [
        {
          "internalType": "uint256",
          "name": "",
          "type": "uint256"
        },
        {
          "internalType": "uint256",
          "name": "",
          "type": "uint256"
        }
      ],
      "stateMutability": "view",
      "type": "function"
    },
    {
      "inputs": [
        {
          "internalType": "address",
          "name": "_poolAddress",
          "type": "address"
        }
      ],
      "name": "getPoolInfo",
      "outputs": [
        {
          "components": [
            {
              "internalType": "uint256",
              "name": "LTV",
              "type": "uint256"
            },
            {
              "internalType": "uint256",
              "name": "depositApy",
              "type": "uint256"
            },
            {
              "internalType": "uint256",
              "name": "borrowApy",
              "type": "uint256"
            },
            {
              "internalType": "uint256",
              "name": "totalAmount",
              "type": "uint256"
            },
            {
              "internalType": "uint256",
              "name": "borrowAmount",
              "type": "uint256"
            }
          ],
          "internalType": "struct Lending.PoolInfo",
          "name": "poolInfo",
          "type": "tuple"
        }
      ],
      "stateMutability": "view",
      "type": "function"
    },
    {
      "inputs": [
        {
          "internalType": "address",
          "name": "_account",
          "type": "address"
        }
      ],
      "name": "getUserInfo",
      "outputs": [
        {
          "components": [
            {
              "internalType": "uint256",
              "name": "ethDepositAmount",
              "type": "uint256"
            },
            {
              "internalType": "uint256",
              "name": "usdtDepositAmount",
              "type": "uint256"
            },
            {
              "internalType": "uint256",
              "name": "ethBorrowAmount",
              "type": "uint256"
            },
            {
              "internalType": "uint256",
              "name": "usdtBorrowAmount",
              "type": "uint256"
            },
            {
              "internalType": "uint256",
              "name": "ethInterestAmount",
              "type": "uint256"
            },
            {
              "internalType": "uint256",
              "name": "usdtInterestAmount",
              "type": "uint256"
            },
            {
              "internalType": "uint256",
              "name": "ethRewardAmount",
              "type": "uint256"
            },
            {
              "internalType": "uint256",
              "name": "usdtRewardAmount",
              "type": "uint256"
            },
            {
              "internalType": "uint256",
              "name": "pekoRewardAmount",
              "type": "uint256"
            },
            {
              "internalType": "uint256",
              "name": "ethDepositTotalInUsdtAmount",
              "type": "uint256"
            },
            {
              "internalType": "uint256",
              "name": "usdtDepositTotalAmount",
              "type": "uint256"
            },
            {
              "internalType": "uint256",
              "name": "ethBorrowTotalInUsdtAmount",
              "type": "uint256"
            },
            {
              "internalType": "uint256",
              "name": "usdtBorrowTotalAmount",
              "type": "uint256"
            },
            {
              "internalType": "address",
              "name": "accountAddress",
              "type": "address"
            }
          ],
          "internalType": "struct Lending.UserInfoForDisplay",
          "name": "",
          "type": "tuple"
        }
      ],
      "stateMutability": "view",
      "type": "function"
    },
    {
      "inputs": [
        {
          "internalType": "address",
          "name": "_account",
          "type": "address"
        }
      ],
      "name": "liquidate",
      "outputs": [],
      "stateMutability": "payable",
      "type": "function"
    },
    {
      "inputs": [],
      "name": "listUserInfo",
      "outputs": [
        {
          "components": [
            {
              "internalType": "uint256",
              "name": "ethDepositAmount",
              "type": "uint256"
            },
            {
              "internalType": "uint256",
              "name": "usdtDepositAmount",
              "type": "uint256"
            },
            {
              "internalType": "uint256",
              "name": "ethBorrowAmount",
              "type": "uint256"
            },
            {
              "internalType": "uint256",
              "name": "usdtBorrowAmount",
              "type": "uint256"
            },
            {
              "internalType": "uint256",
              "name": "ethInterestAmount",
              "type": "uint256"
            },
            {
              "internalType": "uint256",
              "name": "usdtInterestAmount",
              "type": "uint256"
            },
            {
              "internalType": "uint256",
              "name": "ethRewardAmount",
              "type": "uint256"
            },
            {
              "internalType": "uint256",
              "name": "usdtRewardAmount",
              "type": "uint256"
            },
            {
              "internalType": "uint256",
              "name": "pekoRewardAmount",
              "type": "uint256"
            },
            {
              "internalType": "uint256",
              "name": "ethDepositTotalInUsdtAmount",
              "type": "uint256"
            },
            {
              "internalType": "uint256",
              "name": "usdtDepositTotalAmount",
              "type": "uint256"
            },
            {
              "internalType": "uint256",
              "name": "ethBorrowTotalInUsdtAmount",
              "type": "uint256"
            },
            {
              "internalType": "uint256",
              "name": "usdtBorrowTotalAmount",
              "type": "uint256"
            },
            {
              "internalType": "address",
              "name": "accountAddress",
              "type": "address"
            }
          ],
          "internalType": "struct Lending.UserInfoForDisplay[]",
          "name": "",
          "type": "tuple[]"
        }
      ],
      "stateMutability": "view",
      "type": "function"
    },
    {
      "inputs": [],
      "name": "owner",
      "outputs": [
        {
          "internalType": "address",
          "name": "",
          "type": "address"
        }
      ],
      "stateMutability": "view",
      "type": "function"
    },
    {
      "inputs": [],
      "name": "renounceOwnership",
      "outputs": [],
      "stateMutability": "nonpayable",
      "type": "function"
    },
    {
      "inputs": [
        {
          "internalType": "address",
          "name": "_tokenAddress",
          "type": "address"
        },
        {
          "internalType": "uint256",
          "name": "_amount",
          "type": "uint256"
        }
      ],
      "name": "repay",
      "outputs": [],
      "stateMutability": "payable",
      "type": "function"
    },
    {
      "inputs": [
        {
          "internalType": "uint256",
          "name": "limit",
          "type": "uint256"
        }
      ],
      "name": "setLiquidationThreshhold",
      "outputs": [],
      "stateMutability": "nonpayable",
      "type": "function"
    },
    {
      "inputs": [
        {
          "internalType": "address",
          "name": "_poolAddress",
          "type": "address"
        }
      ],
      "name": "setPoolAddress",
      "outputs": [],
      "stateMutability": "nonpayable",
      "type": "function"
    },
    {
      "inputs": [
        {
          "internalType": "address",
          "name": "newOwner",
          "type": "address"
        }
      ],
      "name": "transferOwnership",
      "outputs": [],
      "stateMutability": "nonpayable",
      "type": "function"
    },
    {
      "inputs": [
        {
          "internalType": "address",
          "name": "_tokenAddress",
          "type": "address"
        },
        {
          "internalType": "uint256",
          "name": "_amount",
          "type": "uint256"
        }
      ],
      "name": "withdraw",
      "outputs": [],
      "stateMutability": "nonpayable",
      "type": "function"
    },
    {
      "stateMutability": "payable",
      "type": "receive"
    }
  ],
  "bytecode": "0x6080604052601e600955633b9aca00600a553480156200001e57600080fd5b5060405162002c7338038062002c7383398101604081905262000041916200017b565b600080546001600160a01b031916339081178255604051909182917f8be0079c531659141344cd1fd0a4f28419497f9722a3daafe3b4186f6b6457e0908290a350600580546001600160a01b038087166001600160a01b031992831617835560068054878316908416811790915560078054878416908516179055600880549286169290931691909117909155620000e191605090600a6000806200010b565b60075462000101906001600160a01b031660506005600a6000806200010b565b5050505062000203565b6001600160a01b038616600090815260016020526040902085815562000133856003620001d7565b600182015562000145846003620001d7565b6002820155600381019290925560049091015550505050565b80516001600160a01b03811681146200017657600080fd5b919050565b6000806000806080858703121562000191578384fd5b6200019c856200015e565b9350620001ac602086016200015e565b9250620001bc604086016200015e565b9150620001cc606086016200015e565b905092959194509250565b6000816000190483118215151615620001fe57634e487b7160e01b81526011600452602481fd5b500290565b612a6080620002136000396000f3fe6080604052600436106101225760003560e01c8063616571e7116100a55780639b6c56ec1161006c5780639b6c56ec14610344578063a5fdc5de14610364578063e9e15b4f14610384578063f2fde38b146103c1578063f3fef3a3146103e1578063fe96973a1461040157005b8063616571e7146102a55780636386c1c7146102c5578063715018a6146102f2578063838afb1e146103075780638da5cb5b1461031c57005b806323341a05116100e957806323341a05146102135780632f8655681461023d57806347e7ef24146102505780634b8a3529146102635780635063e91a1461028357005b806305cb9fde1461012b57806306bfa9381461015e57806314658ac7146101c05780631698755f146101e057806322867d781461020057005b3661012957005b005b34801561013757600080fd5b5061014b610146366004612628565b610421565b6040519081526020015b60405180910390f35b34801561016a57600080fd5b5061017e6101793660046125cc565b610476565b6040516101559190600060a082019050825182526020830151602083015260408301516040830152606083015160608301526080830151608083015292915050565b3480156101cc57600080fd5b5061014b6101db3660046125e6565b610528565b3480156101ec57600080fd5b506101296101fb366004612628565b6106d1565b61012961020e366004612628565b6107aa565b34801561021f57600080fd5b50610228610a67565b60408051928352602083019190915201610155565b61012961024b3660046125cc565b610aee565b61012961025e366004612628565b610fe4565b34801561026f57600080fd5b5061012961027e366004612628565b611228565b34801561028f57600080fd5b5061029861157b565b6040516101559190612763565b3480156102b157600080fd5b506101296102c0366004612671565b600955565b3480156102d157600080fd5b506102e56102e03660046125cc565b611653565b6040516101559190612891565b3480156102fe57600080fd5b50610129611686565b34801561031357600080fd5b506101296116fa565b34801561032857600080fd5b506000546040516001600160a01b039091168152602001610155565b34801561035057600080fd5b5061014b61035f3660046125cc565b6117d4565b34801561037057600080fd5b5061014b61037f3660046125cc565b611882565b34801561039057600080fd5b5061012961039f3660046125cc565b600880546001600160a01b0319166001600160a01b0392909216919091179055565b3480156103cd57600080fd5b506101296103dc3660046125cc565b611919565b3480156103ed57600080fd5b506101296103fc366004612628565b61194f565b34801561040d57600080fd5b5061012961041c366004612671565b611c69565b6007546000906001600160a01b0384811691161415610441575080610470565b683635c9adc5dea0000061046c6c0c9f2c9cd04674edea4000000061046685846129c3565b90611d31565b9150505b92915050565b6104a86040518060a0016040528060008152602001600081526020016000815260200160008152602001600081525090565b6001600160a01b038216600090815260016020818152604092839020835160a08101855281548152928101549183018290526002810154938301939093526003808401546060840152600490930154608083015290916105089190611d31565b6020820152604081015161051d906003611d31565b604082015292915050565b6040516370a0823160e01b81526001600160a01b03848116600483015260009182918516906370a082319060240160206040518083038186803b15801561056e57600080fd5b505afa158015610582573d6000803e3d6000fd5b505050506040513d601f19601f820116820180604052508101906105a69190612689565b6040516370a0823160e01b81526001600160a01b0387811660048301529192506000918516906370a082319060240160206040518083038186803b1580156105ed57600080fd5b505afa158015610601573d6000803e3d6000fd5b505050506040513d601f19601f820116820180604052508101906106259190612689565b90506000846001600160a01b031663313ce5676040518163ffffffff1660e01b815260040160206040518083038186803b15801561066257600080fd5b505afa158015610676573d6000803e3d6000fd5b505050506040513d601f19601f8201168201806040525081019061069a91906126a1565b60ff16905060006106c5846104666106b38560246129e2565b6106be90600a61291b565b8690611d44565b98975050505050505050565b6000546001600160a01b031633146107045760405162461bcd60e51b81526004016106fb90612819565b60405180910390fd5b816001600160a01b031663a9059cbb6107256000546001600160a01b031690565b6040516001600160e01b031960e084901b1681526001600160a01b03909116600482015260248101849052604401602060405180830381600087803b15801561076d57600080fd5b505af1158015610781573d6000803e3d6000fd5b505050506040513d601f19601f820116820180604052508101906107a59190612651565b505050565b6107b333611d50565b600081116107f35760405162461bcd60e51b815260206004820152600d60248201526c063616e2774207265706179203609c1b60448201526064016106fb565b33600090815260046020526040902054806108205760405162461bcd60e51b81526004016106fb9061284e565b60008181526003602090815260408083206001600160a01b0387168452600581019092529091205483116108a05760405162461bcd60e51b815260206004820152602160248201527f5265706179206e65656420746f20626520626967676572207468616e206465626044820152601d60fa1b60648201526084016106fb565b6001600160a01b0384166000908152600382016020526040812080548592906108ca9084906129e2565b90915550506007546001600160a01b03858116911614156109e2576007546040516323b872dd60e01b8152336004820152306024820152604481018590526001600160a01b03909116906323b872dd90606401602060405180830381600087803b15801561093757600080fd5b505af115801561094b573d6000803e3d6000fd5b505050506040513d601f19601f8201168201806040525081019061096f9190612651565b6109aa5760405162461bcd60e51b815260206004820152600c60248201526b14995c185e4819985a5b195960a21b60448201526064016106fb565b6007546001600160a01b0316600090815260016020526040812060040180548592906109d79084906129e2565b90915550610a589050565b82341015610a255760405162461bcd60e51b815260206004820152601060248201526f283632b0b9b2903830bc9036b7b9329760811b60448201526064016106fb565b6006546001600160a01b031660009081526001602052604081206004018054859290610a529084906129e2565b90915550505b610a6133611d50565b50505050565b6006546001600160a01b039081166000818152600160205260408082206007549094168252812060038082015490850154929485949093610aa89190610421565b610ab291906128a0565b8160040154610ada600660009054906101000a90046001600160a01b03168560040154610421565b610ae491906128a0565b9350935050509091565b6001600160a01b03811660009081526004602052604090205480610b245760405162461bcd60e51b81526004016106fb9061284e565b600081815260036020526040812090610b3c84611882565b90506000610b49856117d4565b90506000610b71610b5b84605a6129c3565b610b668460646129c3565b6104669060646129c3565b90506009548111610bc45760405162461bcd60e51b815260206004820152601f60248201527f54686973206973206e6f7420656e61626c6564206c69717569646174696f6e0060448201526064016106fb565b6006546001600160a01b0316600090815260048501602090815260408083205460028801909252822054610bf891906128a0565b6007546001600160a01b0316600090815260048701602090815260408083205460028a019092528220549293509091610c3191906128a0565b6006546001600160a01b0316600090815260058801602090815260408083205460038b019092528220549293509091610c6a91906128a0565b6007546001600160a01b0316600090815260058901602090815260408083205460038c019092528220549293509091610ca391906128a0565b60408051808201909152600a8152697269736b20666163746f60b01b6020820152909150610cea9083610cd881612710611d31565b610ce49061270f6129c3565b346120be565b610cf682612710611d31565b610d029061270f6129c3565b3411610d415760405162461bcd60e51b815260206004820152600e60248201526d09cdee840cadcdeeaced040cae8d60931b60448201526064016106fb565b6007546001600160a01b03166323b872dd3330610d6085612710611d31565b610d6c9061270f6129c3565b6040516001600160e01b031960e086901b1681526001600160a01b0393841660048201529290911660248301526044820152606401602060405180830381600087803b158015610dbb57600080fd5b505af1158015610dcf573d6000803e3d6000fd5b505050506040513d601f19601f82011682018060405250810190610df39190612651565b610e305760405162461bcd60e51b815260206004820152600e60248201526d19195c1bdcda5d0819985a5b195960921b60448201526064016106fb565b604051600090339086908381818185875af1925050503d8060008114610e72576040519150601f19603f3d011682016040523d82523d6000602084013e610e77565b606091505b5050905080610ebe5760405162461bcd60e51b81526020600482015260136024820152723330b4b632b2103a379039b2b7321032ba341760691b60448201526064016106fb565b60075460405163a9059cbb60e01b8152336004820152602481018690526001600160a01b039091169063a9059cbb90604401602060405180830381600087803b158015610f0a57600080fd5b505af1158015610f1e573d6000803e3d6000fd5b505050506040513d601f19601f82011682018060405250810190610f429190612651565b5060055460068a015460405163a9059cbb60e01b815233600482015260248101919091526001600160a01b039091169063a9059cbb90604401602060405180830381600087803b158015610f9557600080fd5b505af1158015610fa9573d6000803e3d6000fd5b505050506040513d601f19601f82011682018060405250810190610fcd9190612651565b50610fd78b612107565b5050505050505050505050565b600081116110265760405162461bcd60e51b815260206004820152600f60248201526e063616e2774206465706f736974203608c1b60448201526064016106fb565b3360009081526004602052604081205461106e5760016002600082825461104d91906128a0565b90915550506002543360009081526004602052604090208190559050611089565b50336000818152600460205260409020549061108990611d50565b600081815260036020908152604080832080546001600160a01b031916331781554260018201556001600160a01b03871684526002810190925282208054919285926110d69084906128a0565b90915550506007546001600160a01b03858116911614156111f0576007546040516323b872dd60e01b8152336004820152306024820152604481018590526001600160a01b03909116906323b872dd90606401602060405180830381600087803b15801561114357600080fd5b505af1158015611157573d6000803e3d6000fd5b505050506040513d601f19601f8201168201806040525081019061117b9190612651565b6111b85760405162461bcd60e51b815260206004820152600e60248201526d19195c1bdcda5d0819985a5b195960921b60448201526064016106fb565b6007546001600160a01b0316600090815260016020526040812060030180548592906111e59084906128a0565b90915550610a619050565b6006546001600160a01b03166000908152600160205260408120600301805485929061121d9084906128a0565b909155505050505050565b600081116112695760405162461bcd60e51b815260206004820152600e60248201526d063616e277420626f72726f7720360941b60448201526064016106fb565b33600090815260046020526040902054806112965760405162461bcd60e51b81526004016106fb9061284e565b6000818152600360205260408120906112ae33611882565b905060006112bb336117d4565b90508082101561130d5760405162461bcd60e51b815260206004820152601e60248201527f596f7520646f6e6f74206861766520616e7920636f6c6c61746572616c2e000060448201526064016106fb565b60006113198787610421565b6001600160a01b03881660009081526001602052604090205490915061133f83836128a0565b606461134b83876129c3565b61135591906128b8565b116113995760405162461bcd60e51b8152602060048201526014602482015273283632b0b9b2903232b837b9b4ba1036b7b9329760611b60448201526064016106fb565b6001600160a01b0388166000908152600386016020526040812080548992906113c39084906128a0565b909155506113d2905033611d50565b6006546001600160a01b03898116911614156114b957604051600090339089908381818185875af1925050503d806000811461142a576040519150601f19603f3d011682016040523d82523d6000602084013e61142f565b606091505b50509050806114805760405162461bcd60e51b815260206004820152601c60248201527f6661696c656420746f2073656e642065746820696e7465726573742e0000000060448201526064016106fb565b6006546001600160a01b0316600090815260016020526040812060040180548a92906114ad9084906128a0565b90915550611571915050565b60075460405163a9059cbb60e01b8152336004820152602481018990526001600160a01b039091169063a9059cbb90604401602060405180830381600087803b15801561150557600080fd5b505af1158015611519573d6000803e3d6000fd5b505050506040513d601f19601f8201168201806040525081019061153d9190612651565b506007546001600160a01b03166000908152600160205260408120600401805489929061156b9084906128a0565b90915550505b5050505050505050565b6060600060025467ffffffffffffffff8111156115a857634e487b7160e01b600052604160045260246000fd5b6040519080825280602002602001820160405280156115e157816020015b6115ce61253d565b8152602001906001900390816115c65790505b50905060015b6002546115f59060016128a0565b81101561164d5761160581612223565b826116116001846129e2565b8151811061162f57634e487b7160e01b600052603260045260246000fd5b60200260200101819052508080611645906129f9565b9150506115e7565b50919050565b61165b61253d565b6001600160a01b0382166000908152600460205260408120549061167e82612223565b949350505050565b6000546001600160a01b031633146116b05760405162461bcd60e51b81526004016106fb90612819565b600080546040516001600160a01b03909116907f8be0079c531659141344cd1fd0a4f28419497f9722a3daafe3b4186f6b6457e0908390a3600080546001600160a01b0319169055565b33600090815260046020526040902054806117275760405162461bcd60e51b81526004016106fb9061284e565b600081815260036020526040902061173e33611d50565b600554600682015460405163a9059cbb60e01b815233600482015260248101919091526001600160a01b039091169063a9059cbb90604401602060405180830381600087803b15801561179057600080fd5b505af11580156117a4573d6000803e3d6000fd5b505050506040513d601f19601f820116820180604052508101906117c89190612651565b50600060069091015550565b60006117df82611d50565b6001600160a01b0380831660009081526004602090815260408083205483526003808352818420600654909516808552908501835281842054600586019093529083205461183092610146916128a0565b6007546001600160a01b0316600081815260038501602090815260408083205460058801909252822054939450909261186d9291610146916128a0565b905061187981836128a0565b95945050505050565b600061188d82611d50565b6001600160a01b03808316600090815260046020818152604080842054845260038252808420600654909516808552600286018352818520549386019092528320546118dc92610146916128a0565b6007546001600160a01b0316600081815260028501602090815260408083205460048801909252822054939450909261186d9291610146916128a0565b6000546001600160a01b031633146119435760405162461bcd60e51b81526004016106fb90612819565b61194c8161245c565b50565b600081116119925760405162461bcd60e51b815260206004820152601060248201526f063616e277420776974686472617720360841b60448201526064016106fb565b33600090815260046020526040902054806119bf5760405162461bcd60e51b81526004016106fb9061284e565b60008181526003602052604090206119d633611d50565b60006119e133611882565b905060006119ee336117d4565b90506119fa8686610421565b611a0490826128a0565b6001600160a01b038716600090815260016020526040902054606490611a2a90856129c3565b611a3491906128b8565b11611a985760405162461bcd60e51b815260206004820152602e60248201527f5769746864726177206661696c65642e596f7520646f6e6f742068617665206160448201526d373c9031b7b63630ba32b930b61760911b60648201526084016106fb565b6001600160a01b038616600090815260048401602090815260408083208390556002860190915281208054879290611ad19084906129e2565b90915550506006546001600160a01b0387811691161415611bac576001600160a01b03861660009081526004840160205260408120543390611b149088906128a0565b604051600081818185875af1925050503d8060008114611b50576040519150601f19603f3d011682016040523d82523d6000602084013e611b55565b606091505b5050905080611ba65760405162461bcd60e51b815260206004820152601c60248201527f6661696c656420746f2073656e642065746820696e7465726573742e0000000060448201526064016106fb565b50611c61565b6007546001600160a01b03878116600090815260048601602052604090205491169063a9059cbb903390611be19089906128a0565b6040516001600160e01b031960e085901b1681526001600160a01b0390921660048301526024820152604401602060405180830381600087803b158015611c2757600080fd5b505af1158015611c3b573d6000803e3d6000fd5b505050506040513d601f19601f82011682018060405250810190611c5f9190612651565b505b505050505050565b6000546001600160a01b03163314611c935760405162461bcd60e51b81526004016106fb90612819565b600080546040516001600160a01b039091169083908381818185875af1925050503d8060008114611ce0576040519150601f19603f3d011682016040523d82523d6000602084013e611ce5565b606091505b5050905080611d2d5760405162461bcd60e51b81526020600482015260146024820152732330b4b632b2103a379039b2b7321022ba3432b960611b60448201526064016106fb565b5050565b6000611d3d82846128b8565b9392505050565b6000611d3d82846129c3565b6001600160a01b038116600090815260046020526040902054611db55760405162461bcd60e51b815260206004820152601a60248201527f557365722073686f756c64206465706f736974206265666f726500000000000060448201526064016106fb565b6001600160a01b03811660009081526004602090815260408083205483526003909152812060018101549091611deb82426129e2565b600654600a546001600160a01b0390911660008181526001602081815260408084209092015460028a01909152912054939450611e44939192918591611e30916129c3565b611e3a91906129c3565b61014691906128b8565b836006016000828254611e5791906128a0565b9091555050600a546006546001600160a01b0316600090815260016020818152604080842090920154600288019091529120548391611e95916129c3565b611e9f91906129c3565b611ea991906128b8565b6006546001600160a01b0316600090815260048501602052604081208054909190611ed59084906128a0565b9091555050600a546006546001600160a01b031660009081526001602090815260408083206002015460038801909252909120548391611f14916129c3565b611f1e91906129c3565b611f2891906128b8565b6006546001600160a01b0316600090815260058501602052604081208054909190611f549084906128a0565b9091555050600754600a546001600160a01b0390911660008181526001602081815260408084209092015460028901909152912054611f9a93918591611e3091906129c3565b836006016000828254611fad91906128a0565b9091555050600a546007546001600160a01b0316600090815260016020818152604080842090920154600288019091529120548391611feb916129c3565b611ff591906129c3565b611fff91906128b8565b6007546001600160a01b031660009081526004850160205260408120805490919061202b9084906128a0565b9091555050600a546007546001600160a01b03166000908152600160209081526040808320600201546003880190925290912054839161206a916129c3565b61207491906129c3565b61207e91906128b8565b6007546001600160a01b03166000908152600585016020526040812080549091906120aa9084906128a0565b909155505042600190930192909255505050565b610a61848484846040516024016120d894939291906127b2565b60408051601f198184030181529190526020810180516001600160e01b031663a7a8785360e01b17905261251c565b6001600160a01b03811660009081526004602052604090205461216c5760405162461bcd60e51b815260206004820152601a60248201527f557365722073686f756c64206465706f736974206265666f726500000000000060448201526064016106fb565b6001600160a01b039081166000908152600460208181526040808420548452600380835281852060068054881687526002820180865284882088905581548916885292820180865284882088905581548916885295820180865284882088905581548916885260058301808752858920899055600780548b168a5294875285892089905584548a16895296865284882088905583548916885285528387208790559154909616855292909152822082905590910155565b61222b61253d565b81156123dc57600082815260036020818152604080842081516101c081018352600680546001600160a01b0390811680895260028501808852868a2054808652600754909316808b52818952878b2054868a0152828b52988601808952878b205486890152898b528852868a20546060860152818a5260058601808952878b20546080870152898b528852868a205460a0860152818a5260048601808952878b205460c08701819052998b5288529589205460e08501529184015461010084015281885293909452909493909261012084019261230b92610146916128a0565b81526007546001600160a01b031660008181526004860160209081526040808320546002890183529220549301926123479291610146916128a0565b81526006546001600160a01b031660008181526005860160209081526040808320546003890183529220549301926123839291610146916128a0565b81526007546001600160a01b031660008181526005860160209081526040808320546003890183529220549301926123bf9291610146916128a0565b815292546001600160a01b03166020909301929092525092915050565b604051806101c0016040528060008152602001600081526020016000815260200160008152602001600081526020016000815260200160008152602001600081526020016000815260200160008152602001600081526020016000815260200160008152602001336001600160a01b03168152509050919050565b919050565b6001600160a01b0381166124c15760405162461bcd60e51b815260206004820152602660248201527f4f776e61626c653a206e6577206f776e657220697320746865207a65726f206160448201526564647265737360d01b60648201526084016106fb565b600080546040516001600160a01b03808516939216917f8be0079c531659141344cd1fd0a4f28419497f9722a3daafe3b4186f6b6457e091a3600080546001600160a01b0319166001600160a01b0392909216919091179055565b60006a636f6e736f6c652e6c6f679050600080835160208501845afa505050565b604051806101c001604052806000815260200160008152602001600081526020016000815260200160008152602001600081526020016000815260200160008152602001600081526020016000815260200160008152602001600081526020016000815260200160006001600160a01b031681525090565b80356001600160a01b038116811461245757600080fd5b6000602082840312156125dd578081fd5b611d3d826125b5565b6000806000606084860312156125fa578182fd5b612603846125b5565b9250612611602085016125b5565b915061261f604085016125b5565b90509250925092565b6000806040838503121561263a578182fd5b612643836125b5565b946020939093013593505050565b600060208284031215612662578081fd5b81518015158114611d3d578182fd5b600060208284031215612682578081fd5b5035919050565b60006020828403121561269a578081fd5b5051919050565b6000602082840312156126b2578081fd5b815160ff81168114611d3d578182fd5b805182526020810151602083015260408101516040830152606081015160608301526080810151608083015260a081015160a083015260c081015160c083015260e081015160e08301526101008082015181840152506101208082015181840152506101408082015181840152506101608082015181840152506101808082015181840152506101a080820151610a61828501826001600160a01b03169052565b6020808252825182820181905260009190848201906040850190845b818110156127a6576127928385516126c2565b928401926101c0929092019160010161277f565b50909695505050505050565b6080815260008551806080840152815b818110156127df57602081890181015160a08684010152016127c2565b818111156127f0578260a083860101525b506020830195909552506040810192909252606082015260a0601f909201601f19160101919050565b6020808252818101527f4f776e61626c653a2063616c6c6572206973206e6f7420746865206f776e6572604082015260600190565b60208082526023908201527f5573657220696e6465782073686f756c6420626520626967676572207468616e60408201526210181760e91b606082015260800190565b6101c0810161047082846126c2565b600082198211156128b3576128b3612a14565b500190565b6000826128d357634e487b7160e01b81526012600452602481fd5b500490565b600181815b808511156129135781600019048211156128f9576128f9612a14565b8085161561290657918102915b93841c93908002906128dd565b509250929050565b6000611d3d838360008261293157506001610470565b8161293e57506000610470565b8160018114612954576002811461295e5761297a565b6001915050610470565b60ff84111561296f5761296f612a14565b50506001821b610470565b5060208310610133831016604e8410600b841016171561299d575081810a610470565b6129a783836128d8565b80600019048211156129bb576129bb612a14565b029392505050565b60008160001904831182151516156129dd576129dd612a14565b500290565b6000828210156129f4576129f4612a14565b500390565b6000600019821415612a0d57612a0d612a14565b5060010190565b634e487b7160e01b600052601160045260246000fdfea2646970667358221220a380ac5dccd887b63e75aefe208407c590f3392ea18161576be4073eb141fc4664736f6c63430008040033",
  "linkReferences": {},
  "deployedLinkReferences": {}
}