{
  "_format": "hh-sol-artifact-1",
  "contractName": "Lending",
  "sourceName": "contracts/Lending.sol",
  "abi": [
    {
      "inputs": [
        {
          "internalType": "address",
          "name": "_rewardAddress",
          "type": "address"
        },
        {
          "internalType": "address",
          "name": "_ethAdddress",
          "type": "address"
        },
        {
          "internalType": "address",
          "name": "_usdtAddress",
          "type": "address"
        }
      ],
      "stateMutability": "nonpayable",
      "type": "constructor"
    },
    {
      "anonymous": false,
      "inputs": [
        {
          "indexed": true,
          "internalType": "address",
          "name": "previousOwner",
          "type": "address"
        },
        {
          "indexed": true,
          "internalType": "address",
          "name": "newOwner",
          "type": "address"
        }
      ],
      "name": "OwnershipTransferred",
      "type": "event"
    },
    {
      "stateMutability": "payable",
      "type": "fallback"
    },
    {
      "inputs": [
        {
          "internalType": "address",
          "name": "_tokenAddress",
          "type": "address"
        },
        {
          "internalType": "uint256",
          "name": "_amount",
          "type": "uint256"
        }
      ],
      "name": "borrow",
      "outputs": [],
      "stateMutability": "nonpayable",
      "type": "function"
    },
    {
      "inputs": [],
      "name": "calcCollater",
      "outputs": [
        {
          "internalType": "uint256",
          "name": "",
          "type": "uint256"
        }
      ],
      "stateMutability": "view",
      "type": "function"
    },
    {
      "inputs": [],
      "name": "calcDebt",
      "outputs": [
        {
          "internalType": "uint256",
          "name": "",
          "type": "uint256"
        }
      ],
      "stateMutability": "view",
      "type": "function"
    },
    {
      "inputs": [
        {
          "internalType": "address",
          "name": "_tokenAddress",
          "type": "address"
        }
      ],
      "name": "calcTokenPrice",
      "outputs": [
        {
          "internalType": "uint256",
          "name": "",
          "type": "uint256"
        }
      ],
      "stateMutability": "view",
      "type": "function"
    },
    {
      "inputs": [],
      "name": "calcuateInterest",
      "outputs": [
        {
          "components": [
            {
              "internalType": "uint256",
              "name": "ethColAmount",
              "type": "uint256"
            },
            {
              "internalType": "uint256",
              "name": "usdtColAmount",
              "type": "uint256"
            },
            {
              "internalType": "uint256",
              "name": "pekoAmount",
              "type": "uint256"
            }
          ],
          "internalType": "struct Lending.Interest",
          "name": "",
          "type": "tuple"
        }
      ],
      "stateMutability": "view",
      "type": "function"
    },
    {
      "inputs": [
        {
          "internalType": "uint256",
          "name": "amount",
          "type": "uint256"
        }
      ],
      "name": "claimETH",
      "outputs": [],
      "stateMutability": "nonpayable",
      "type": "function"
    },
    {
      "inputs": [
        {
          "internalType": "address",
          "name": "tokenAddress",
          "type": "address"
        },
        {
          "internalType": "uint256",
          "name": "amount",
          "type": "uint256"
        }
      ],
      "name": "claimToken",
      "outputs": [],
      "stateMutability": "nonpayable",
      "type": "function"
    },
    {
      "inputs": [
        {
          "internalType": "address",
          "name": "_tokenAddress",
          "type": "address"
        },
        {
          "internalType": "uint256",
          "name": "_amount",
          "type": "uint256"
        }
      ],
      "name": "deposit",
      "outputs": [],
      "stateMutability": "payable",
      "type": "function"
    },
    {
      "inputs": [],
      "name": "getUserInfo",
      "outputs": [
        {
          "components": [
            {
              "internalType": "uint256",
              "name": "ehtColAmount",
              "type": "uint256"
            },
            {
              "internalType": "uint256",
              "name": "ehtDebtAmount",
              "type": "uint256"
            },
            {
              "internalType": "uint256",
              "name": "usdtColAmount",
              "type": "uint256"
            },
            {
              "internalType": "uint256",
              "name": "usdtDebtAmount",
              "type": "uint256"
            }
          ],
          "internalType": "struct Lending.UserInfoForDisplay",
          "name": "",
          "type": "tuple"
        }
      ],
      "stateMutability": "view",
      "type": "function"
    },
    {
      "inputs": [
        {
          "internalType": "address",
          "name": "_account",
          "type": "address"
        }
      ],
      "name": "liquidate",
      "outputs": [],
      "stateMutability": "payable",
      "type": "function"
    },
    {
      "inputs": [],
      "name": "listUserInfo",
      "outputs": [
        {
          "components": [
            {
              "internalType": "uint256",
              "name": "ehtColAmount",
              "type": "uint256"
            },
            {
              "internalType": "uint256",
              "name": "ehtDebtAmount",
              "type": "uint256"
            },
            {
              "internalType": "uint256",
              "name": "usdtColAmount",
              "type": "uint256"
            },
            {
              "internalType": "uint256",
              "name": "usdtDebtAmount",
              "type": "uint256"
            }
          ],
          "internalType": "struct Lending.UserInfoForDisplay[]",
          "name": "",
          "type": "tuple[]"
        }
      ],
      "stateMutability": "view",
      "type": "function"
    },
    {
      "inputs": [],
      "name": "owner",
      "outputs": [
        {
          "internalType": "address",
          "name": "",
          "type": "address"
        }
      ],
      "stateMutability": "view",
      "type": "function"
    },
    {
      "inputs": [],
      "name": "renounceOwnership",
      "outputs": [],
      "stateMutability": "nonpayable",
      "type": "function"
    },
    {
      "inputs": [
        {
          "internalType": "address",
          "name": "_tokenAddress",
          "type": "address"
        },
        {
          "internalType": "uint256",
          "name": "_amount",
          "type": "uint256"
        }
      ],
      "name": "repay",
      "outputs": [],
      "stateMutability": "payable",
      "type": "function"
    },
    {
      "inputs": [
        {
          "internalType": "address",
          "name": "newOwner",
          "type": "address"
        }
      ],
      "name": "transferOwnership",
      "outputs": [],
      "stateMutability": "nonpayable",
      "type": "function"
    },
    {
      "inputs": [
        {
          "internalType": "address",
          "name": "_tokenAddress",
          "type": "address"
        },
        {
          "internalType": "uint256",
          "name": "_amount",
          "type": "uint256"
        }
      ],
      "name": "withdraw",
      "outputs": [],
      "stateMutability": "nonpayable",
      "type": "function"
    },
    {
      "stateMutability": "payable",
      "type": "receive"
    }
  ],
  "bytecode": "0x6080604052605a600855620f42406009553480156200001d57600080fd5b5060405162001c2f38038062001c2f83398101604081905262000040916200015e565b6200004b33620000f1565b600580546001600160a01b03199081166001600160a01b03958616178255600680548216948616948517905560078054909116928516929092178255600092835260016020819052604080852082815560328184018190556004600280840182905560038085018390558285018a9055938701899055965490981687529186208381559283019190915592810185905591820184905592810182905590910155620001a7565b600080546001600160a01b038381166001600160a01b0319831681178455604051919092169283917f8be0079c531659141344cd1fd0a4f28419497f9722a3daafe3b4186f6b6457e09190a35050565b80516001600160a01b03811681146200015957600080fd5b919050565b60008060006060848603121562000173578283fd5b6200017e8462000141565b92506200018e6020850162000141565b91506200019e6040850162000141565b90509250925092565b611a7880620001b76000396000f3fe6080604052600436106100eb5760003560e01c80636e68b21c11610084578063f2fde38b11610056578063f2fde38b14610288578063f3fef3a3146102a8578063f727c98b146102c8578063fe96973a146102e857005b80636e68b21c146101ff578063715018a6146102365780638da5cb5b1461024b578063cb4584851461027357005b806347e7ef24116100bd57806347e7ef24146101625780634b8a3529146101755780635063e91a146101955780635d8d1585146101b757005b80631698755f146100f457806322867d78146101145780632f86556814610127578063439d8a4f1461013a57005b366100f257005b005b34801561010057600080fd5b506100f261010f366004611826565b610308565b6100f2610122366004611826565b6103b6565b6100f2610135366004611805565b61056e565b34801561014657600080fd5b5061014f6107ce565b6040519081526020015b60405180910390f35b6100f2610170366004611826565b6108a1565b34801561018157600080fd5b506100f2610190366004611826565b610aa4565b3480156101a157600080fd5b506101aa610da5565b6040516101599190611887565b3480156101c357600080fd5b506101cc610e8b565b60405161015991908151815260208083015190820152604080830151908201526060918201519181019190915260800190565b34801561020b57600080fd5b50610214610ed5565b6040805182518152602080840151908201529181015190820152606001610159565b34801561024257600080fd5b506100f26110c3565b34801561025757600080fd5b506000546040516001600160a01b039091168152602001610159565b34801561027f57600080fd5b5061014f6110d7565b34801561029457600080fd5b506100f26102a3366004611805565b611190565b3480156102b457600080fd5b506100f26102c3366004611826565b611209565b3480156102d457600080fd5b5061014f6102e3366004611805565b611370565b3480156102f457600080fd5b506100f261030336600461186f565b61139f565b610310611445565b816001600160a01b031663a9059cbb6103316000546001600160a01b031690565b6040516001600160e01b031960e084901b1681526001600160a01b03909116600482015260248101849052604401602060405180830381600087803b15801561037957600080fd5b505af115801561038d573d6000803e3d6000fd5b505050506040513d601f19601f820116820180604052508101906103b1919061184f565b505050565b600081116103fb5760405162461bcd60e51b815260206004820152600d60248201526c063616e2774207265706179203609c1b60448201526064015b60405180910390fd5b33600090815260046020526040902054806104285760405162461bcd60e51b81526004016103f290611938565b60008181526003602090815260408083206001600160a01b038716845260018101909252822080549192859261045f9084906119fa565b90915550506007546001600160a01b0385811691161415610525576007546040516323b872dd60e01b8152336004820152306024820152604481018590526001600160a01b03909116906323b872dd90606401602060405180830381600087803b1580156104cc57600080fd5b505af11580156104e0573d6000803e3d6000fd5b505050506040513d601f19601f82011682018060405250810190610504919061184f565b6105205760405162461bcd60e51b81526004016103f29061197b565b610568565b823410156105685760405162461bcd60e51b815260206004820152601060248201526f283632b0b9b2903830bc9036b7b9329760811b60448201526064016103f2565b50505050565b6001600160a01b038116600090815260046020526040902054806105a45760405162461bcd60e51b81526004016103f290611938565b60008181526003602090815260408083206006546001600160a01b03168452918290529091205415610731576006546001600160a01b03166000908152602082905260408082205490513391908381818185875af1925050503d8060008114610629576040519150601f19603f3d011682016040523d82523d6000602084013e61062e565b606091505b50509050806106755760405162461bcd60e51b81526020600482015260136024820152723330b4b632b2103a379039b2b7321032ba341760691b60448201526064016103f2565b6007546001600160a01b03166000818152600184016020526040908190205490516323b872dd60e01b815233600482015230602482015260448101919091526323b872dd90606401602060405180830381600087803b1580156106d757600080fd5b505af11580156106eb573d6000803e3d6000fd5b505050506040513d601f19601f8201168201806040525081019061070f919061184f565b61072b5760405162461bcd60e51b81526004016103f29061197b565b506107c5565b6007546001600160a01b03166000818152602083905260409081902054905163a9059cbb60e01b8152336004820152602481019190915263a9059cbb90604401602060405180830381600087803b15801561078b57600080fd5b505af115801561079f573d6000803e3d6000fd5b505050506040513d601f19601f820116820180604052508101906107c3919061184f565b505b6103b18361149f565b33600090815260046020526040812054806107fb5760405162461bcd60e51b81526004016103f290611938565b600081815260036020526040812060065490918291610822906001600160a01b0316611370565b6006546001600160a01b0316600090815260018401602052604090205461084991906119db565b600654909150600090610864906001600160a01b0316611370565b6006546001600160a01b0316600090815260018501602052604090205461088b91906119db565b905061089781836119a3565b9550505050505090565b600081116108e35760405162461bcd60e51b815260206004820152600f60248201526e063616e2774206465706f736974203608c1b60448201526064016103f2565b3360009081526004602052604081205461092b5760016002600082825461090a91906119a3565b90915550506002543360009081526004602052604090208190559050610946565b5033600081815260046020526040902054906109469061149f565b60008181526003602090815260408083206001600160a01b03871684526001810190925290912054156109bb5760405162461bcd60e51b815260206004820152601960248201527f506c6561736520726570617920746f6b656e2066697273742e0000000000000060448201526064016103f2565b6001600160a01b038416600090815260208290526040812080548592906109e39084906119a3565b90915550506007546001600160a01b0385811691161415610568576007546040516323b872dd60e01b8152336004820152306024820152604481018590526001600160a01b03909116906323b872dd90606401602060405180830381600087803b158015610a5057600080fd5b505af1158015610a64573d6000803e3d6000fd5b505050506040513d601f19601f82011682018060405250810190610a88919061184f565b6105685760405162461bcd60e51b81526004016103f29061197b565b60008111610ae55760405162461bcd60e51b815260206004820152600e60248201526d063616e277420626f72726f7720360941b60448201526064016103f2565b3360009081526004602052604090205480610b125760405162461bcd60e51b81526004016103f290611938565b60008181526003602090815260408083206001600160a01b0387168452918290529091205415610b845760405162461bcd60e51b815260206004820152601c60248201527f506c6561736520776974686472617720746f6b656e2066697273742e0000000060448201526064016103f2565b600083610b9086611370565b610b9a91906119db565b90506000610ba66107ce565b610bae6110d7565b610bb891906119fa565b6001600160a01b03871660009081526001602081905260409091200154909150826064610be583856119db565b610bef91906119bb565b11610c335760405162461bcd60e51b8152602060048201526014602482015273283632b0b9b2903232b837b9b4ba1036b7b9329760611b60448201526064016103f2565b6001600160a01b038716600090815260018501602052604081208054889290610c5d9084906119a3565b90915550506006546001600160a01b0388811691161415610d1657604051600090339088908381818185875af1925050503d8060008114610cba576040519150601f19603f3d011682016040523d82523d6000602084013e610cbf565b606091505b5050905080610d105760405162461bcd60e51b815260206004820152601c60248201527f6661696c656420746f2073656e642065746820696e7465726573742e0000000060448201526064016103f2565b50610d9c565b60075460405163a9059cbb60e01b8152336004820152602481018890526001600160a01b039091169063a9059cbb90604401602060405180830381600087803b158015610d6257600080fd5b505af1158015610d76573d6000803e3d6000fd5b505050506040513d601f19601f82011682018060405250810190610d9a919061184f565b505b50505050505050565b6060600060025467ffffffffffffffff811115610dd257634e487b7160e01b600052604160045260246000fd5b604051908082528060200260200182016040528015610e2e57816020015b610e1b6040518060800160405280600081526020016000815260200160008152602001600081525090565b815260200190600190039081610df05790505b50905060005b600254811015610e8557610e47816116d7565b828281518110610e6757634e487b7160e01b600052603260045260246000fd5b60200260200101819052508080610e7d90611a11565b915050610e34565b50919050565b610eb66040518060800160405280600081526020016000815260200160008152602001600081525090565b33600090815260046020526040902054610ecf816116d7565b91505090565b610ef960405180606001604052806000815260200160008152602001600081525090565b3360009081526004602052604090205480610f265760405162461bcd60e51b81526004016103f290611938565b600081815260036020908152604080832081516060810183528481528084018590528083018590526006546001600160a01b03908116808752600186528487206007549092168752848720908752948390529290942054909392849291156110215760095460028301546006546001600160a01b0316600090815260208690526040902054610fb591906119db565b610fbf91906119bb565b84518590610fce9083906119a3565b90525060095460028301546006546001600160a01b0316600090815260208690526040902054610ffe91906119db565b61100891906119bb565b8460400181815161101991906119a3565b9052506110b8565b60095460028201546007546001600160a01b031660009081526020869052604090205461104e91906119db565b61105891906119bb565b8460200181815161106991906119a3565b90525060095460028201546007546001600160a01b031660009081526020869052604090205461109991906119db565b6110a391906119bb565b846040018181516110b491906119a3565b9052505b509195945050505050565b6110cb611445565b6110d5600061179e565b565b33600090815260046020526040812054806111045760405162461bcd60e51b81526004016103f290611938565b60008181526003602052604081206006549091829161112b906001600160a01b0316611370565b6006546001600160a01b031660009081526020849052604090205461115091906119db565b60075490915060009061116b906001600160a01b0316611370565b6007546001600160a01b031660009081526020859052604090205461088b91906119db565b611198611445565b6001600160a01b0381166111fd5760405162461bcd60e51b815260206004820152602660248201527f4f776e61626c653a206e6577206f776e657220697320746865207a65726f206160448201526564647265737360d01b60648201526084016103f2565b6112068161179e565b50565b6000811161124c5760405162461bcd60e51b815260206004820152601060248201526f063616e277420776974686472617720360841b60448201526064016103f2565b33600090815260046020526040902054806112795760405162461bcd60e51b81526004016103f290611938565b6000818152600360205260408120908361129286611370565b61129c91906119db565b905060006112a86107ce565b6112b06110d7565b6112ba91906119fa565b6001600160a01b0387166000908152600160208190526040822001549192506112e16107ce565b1115611321578260646112f483856119db565b6112fe91906119bb565b101561131c5760405162461bcd60e51b81526004016103f2906118f6565b611348565b8261132a6110d7565b10156113485760405162461bcd60e51b81526004016103f2906118f6565b6001600160a01b03871660009081526020859052604081208054889290610c5d9084906119fa565b6007546000906001600160a01b038381169116141561139157506001919050565b506103e8919050565b919050565b6113a7611445565b600080546040516001600160a01b039091169083908381818185875af1925050503d80600081146113f4576040519150601f19603f3d011682016040523d82523d6000602084013e6113f9565b606091505b50509050806114415760405162461bcd60e51b81526020600482015260146024820152732330b4b632b2103a379039b2b7321022ba3432b960611b60448201526064016103f2565b5050565b6000546001600160a01b031633146110d55760405162461bcd60e51b815260206004820181905260248201527f4f776e61626c653a2063616c6c6572206973206e6f7420746865206f776e657260448201526064016103f2565b60006114a9610ed5565b80519091501561155a5780516040516000916001600160a01b038516918381818185875af1925050503d80600081146114fe576040519150601f19603f3d011682016040523d82523d6000602084013e611503565b606091505b50509050806115545760405162461bcd60e51b815260206004820152601c60248201527f6661696c656420746f2073656e642065746820696e7465726573742e0000000060448201526064016103f2565b506115f1565b6020810151156115f157600754602082015160405163a9059cbb60e01b81526001600160a01b038581166004830152602482019290925291169063a9059cbb90604401602060405180830381600087803b1580156115b757600080fd5b505af11580156115cb573d6000803e3d6000fd5b505050506040513d601f19601f820116820180604052508101906115ef919061184f565b505b60408101511561168857600554604082810151905163a9059cbb60e01b81526001600160a01b038581166004830152602482019290925291169063a9059cbb90604401602060405180830381600087803b15801561164e57600080fd5b505af1158015611662573d6000803e3d6000fd5b505050506040513d601f19601f82011682018060405250810190611686919061184f565b505b6001600160a01b038216600090815260046020526040902054806116be5760405162461bcd60e51b81526004016103f290611938565b6000908152600360205260409020426002909101555050565b6117026040518060800160405280600081526020016000815260200160008152602001600081525090565b81156117725750600090815260036020908152604080832081516080810183526006546001600160a01b0390811680875283865284872054835286526001830180865284872054838701526007549091168087529285528386205482850152918552925290912054606082015290565b604051806080016040528060008152602001600081526020016000815260200160008152509050919050565b600080546001600160a01b038381166001600160a01b0319831681178455604051919092169283917f8be0079c531659141344cd1fd0a4f28419497f9722a3daafe3b4186f6b6457e09190a35050565b80356001600160a01b038116811461139a57600080fd5b600060208284031215611816578081fd5b61181f826117ee565b9392505050565b60008060408385031215611838578081fd5b611841836117ee565b946020939093013593505050565b600060208284031215611860578081fd5b8151801515811461181f578182fd5b600060208284031215611880578081fd5b5035919050565b6020808252825182820181905260009190848201906040850190845b818110156118ea576118d7838551805182526020810151602083015260408101516040830152606081015160608301525050565b92840192608092909201916001016118a3565b50909695505050505050565b60208082526022908201527f5769746864726177206661696c65642e506c65736165207265706179206669726040820152611cdd60f21b606082015260800190565b60208082526023908201527f5573657220696e6465782073686f756c6420626520626967676572207468616e60408201526210181760e91b606082015260800190565b6020808252600e908201526d19195c1bdcda5d0819985a5b195960921b604082015260600190565b600082198211156119b6576119b6611a2c565b500190565b6000826119d657634e487b7160e01b81526012600452602481fd5b500490565b60008160001904831182151516156119f5576119f5611a2c565b500290565b600082821015611a0c57611a0c611a2c565b500390565b6000600019821415611a2557611a25611a2c565b5060010190565b634e487b7160e01b600052601160045260246000fdfea26469706673582212202f936ee90e5a8c13f4b0027e079fb12d32355b562fc06df3245c8d9daf79252464736f6c63430008040033",
  "linkReferences": {},
  "deployedLinkReferences": {}
}