{
  "_format": "hh-sol-artifact-1",
  "contractName": "Lending",
  "sourceName": "contracts/Lending.sol",
  "abi": [
    {
      "inputs": [
        {
          "internalType": "address",
          "name": "_rewardAddress",
          "type": "address"
        },
        {
          "internalType": "address",
          "name": "_ethAdddress",
          "type": "address"
        },
        {
          "internalType": "address",
          "name": "_usdtAddress",
          "type": "address"
        }
      ],
      "stateMutability": "nonpayable",
      "type": "constructor"
    },
    {
      "anonymous": false,
      "inputs": [
        {
          "indexed": true,
          "internalType": "address",
          "name": "previousOwner",
          "type": "address"
        },
        {
          "indexed": true,
          "internalType": "address",
          "name": "newOwner",
          "type": "address"
        }
      ],
      "name": "OwnershipTransferred",
      "type": "event"
    },
    {
      "stateMutability": "payable",
      "type": "fallback"
    },
    {
      "inputs": [
        {
          "internalType": "address",
          "name": "_tokenAddress",
          "type": "address"
        },
        {
          "internalType": "uint256",
          "name": "_amount",
          "type": "uint256"
        }
      ],
      "name": "borrow",
      "outputs": [],
      "stateMutability": "nonpayable",
      "type": "function"
    },
    {
      "inputs": [],
      "name": "calcCollater",
      "outputs": [
        {
          "internalType": "uint256",
          "name": "",
          "type": "uint256"
        }
      ],
      "stateMutability": "view",
      "type": "function"
    },
    {
      "inputs": [],
      "name": "calcDebt",
      "outputs": [
        {
          "internalType": "uint256",
          "name": "",
          "type": "uint256"
        }
      ],
      "stateMutability": "view",
      "type": "function"
    },
    {
      "inputs": [
        {
          "internalType": "address",
          "name": "_tokenAddress",
          "type": "address"
        }
      ],
      "name": "calcTokenPrice",
      "outputs": [
        {
          "internalType": "uint256",
          "name": "",
          "type": "uint256"
        }
      ],
      "stateMutability": "view",
      "type": "function"
    },
    {
      "inputs": [
        {
          "internalType": "address",
          "name": "_account",
          "type": "address"
        }
      ],
      "name": "calcuateInterest",
      "outputs": [
        {
          "components": [
            {
              "internalType": "uint256",
              "name": "ethColAmount",
              "type": "uint256"
            },
            {
              "internalType": "uint256",
              "name": "usdtColAmount",
              "type": "uint256"
            },
            {
              "internalType": "uint256",
              "name": "pekoAmount",
              "type": "uint256"
            }
          ],
          "internalType": "struct Lending.Interest",
          "name": "",
          "type": "tuple"
        }
      ],
      "stateMutability": "view",
      "type": "function"
    },
    {
      "inputs": [
        {
          "internalType": "uint256",
          "name": "amount",
          "type": "uint256"
        }
      ],
      "name": "claimETH",
      "outputs": [],
      "stateMutability": "nonpayable",
      "type": "function"
    },
    {
      "inputs": [
        {
          "internalType": "address",
          "name": "tokenAddress",
          "type": "address"
        },
        {
          "internalType": "uint256",
          "name": "amount",
          "type": "uint256"
        }
      ],
      "name": "claimToken",
      "outputs": [],
      "stateMutability": "nonpayable",
      "type": "function"
    },
    {
      "inputs": [
        {
          "internalType": "address",
          "name": "_tokenAddress",
          "type": "address"
        },
        {
          "internalType": "uint256",
          "name": "_amount",
          "type": "uint256"
        }
      ],
      "name": "deposit",
      "outputs": [],
      "stateMutability": "payable",
      "type": "function"
    },
    {
      "inputs": [],
      "name": "getMarketInfo",
      "outputs": [
        {
          "internalType": "uint256",
          "name": "",
          "type": "uint256"
        },
        {
          "internalType": "uint256",
          "name": "",
          "type": "uint256"
        }
      ],
      "stateMutability": "view",
      "type": "function"
    },
    {
      "inputs": [],
      "name": "getUserInfo",
      "outputs": [
        {
          "components": [
            {
              "internalType": "uint256",
              "name": "ehtColAmount",
              "type": "uint256"
            },
            {
              "internalType": "uint256",
              "name": "ehtDebtAmount",
              "type": "uint256"
            },
            {
              "internalType": "uint256",
              "name": "usdtColAmount",
              "type": "uint256"
            },
            {
              "internalType": "uint256",
              "name": "usdtDebtAmount",
              "type": "uint256"
            },
            {
              "internalType": "address",
              "name": "userAddress",
              "type": "address"
            }
          ],
          "internalType": "struct Lending.UserInfoForDisplay",
          "name": "",
          "type": "tuple"
        }
      ],
      "stateMutability": "view",
      "type": "function"
    },
    {
      "inputs": [
        {
          "internalType": "address",
          "name": "_account",
          "type": "address"
        }
      ],
      "name": "liquidate",
      "outputs": [],
      "stateMutability": "payable",
      "type": "function"
    },
    {
      "inputs": [],
      "name": "listUserInfo",
      "outputs": [
        {
          "components": [
            {
              "internalType": "uint256",
              "name": "ehtColAmount",
              "type": "uint256"
            },
            {
              "internalType": "uint256",
              "name": "ehtDebtAmount",
              "type": "uint256"
            },
            {
              "internalType": "uint256",
              "name": "usdtColAmount",
              "type": "uint256"
            },
            {
              "internalType": "uint256",
              "name": "usdtDebtAmount",
              "type": "uint256"
            },
            {
              "internalType": "address",
              "name": "userAddress",
              "type": "address"
            }
          ],
          "internalType": "struct Lending.UserInfoForDisplay[]",
          "name": "",
          "type": "tuple[]"
        }
      ],
      "stateMutability": "view",
      "type": "function"
    },
    {
      "inputs": [],
      "name": "owner",
      "outputs": [
        {
          "internalType": "address",
          "name": "",
          "type": "address"
        }
      ],
      "stateMutability": "view",
      "type": "function"
    },
    {
      "inputs": [],
      "name": "renounceOwnership",
      "outputs": [],
      "stateMutability": "nonpayable",
      "type": "function"
    },
    {
      "inputs": [
        {
          "internalType": "address",
          "name": "_tokenAddress",
          "type": "address"
        },
        {
          "internalType": "uint256",
          "name": "_amount",
          "type": "uint256"
        }
      ],
      "name": "repay",
      "outputs": [],
      "stateMutability": "payable",
      "type": "function"
    },
    {
      "inputs": [
        {
          "internalType": "address",
          "name": "newOwner",
          "type": "address"
        }
      ],
      "name": "transferOwnership",
      "outputs": [],
      "stateMutability": "nonpayable",
      "type": "function"
    },
    {
      "inputs": [
        {
          "internalType": "address",
          "name": "_tokenAddress",
          "type": "address"
        },
        {
          "internalType": "uint256",
          "name": "_amount",
          "type": "uint256"
        }
      ],
      "name": "withdraw",
      "outputs": [],
      "stateMutability": "nonpayable",
      "type": "function"
    },
    {
      "stateMutability": "payable",
      "type": "receive"
    }
  ],
  "bytecode": "0x6080604052605a600855633b9aca006009553480156200001e57600080fd5b50604051620021f1380380620021f1833981016040819052620000419162000196565b6200004c33620000cc565b600580546001600160a01b038086166001600160a01b0319928316178355600680548683169084168117909155600780549286169290931691909117909155620000a191600190603290600a6000806200011c565b600754620000c3906001600160a01b0316600160326005600a6000806200011c565b5050506200020b565b600080546001600160a01b038381166001600160a01b0319831681178455604051919092169283917f8be0079c531659141344cd1fd0a4f28419497f9722a3daafe3b4186f6b6457e09190a35050565b6001600160a01b03871660009081526001602081905260409091208781559081018690556200014d856003620001df565b60028201556200015f846003620001df565b600382015560048101929092556005909101555050505050565b80516001600160a01b03811681146200019157600080fd5b919050565b600080600060608486031215620001ab578283fd5b620001b68462000179565b9250620001c66020850162000179565b9150620001d66040850162000179565b90509250925092565b60008160001904831182151516156200020657634e487b7160e01b81526011600452602481fd5b500290565b611fd6806200021b6000396000f3fe6080604052600436106100f65760003560e01c80635d8d15851161008f578063cb45848511610061578063cb458485146102c6578063f2fde38b146102db578063f3fef3a3146102fb578063f727c98b1461031b578063fe96973a1461033b57005b80635d8d1585146101ec578063715018a6146102475780637dc335c61461025c5780638da5cb5b1461029e57005b8063439d8a4f116100c8578063439d8a4f1461017457806347e7ef24146101975780634b8a3529146101aa5780635063e91a146101ca57005b80631698755f146100ff57806322867d781461011f57806323341a05146101325780632f8655681461016157005b366100fd57005b005b34801561010b57600080fd5b506100fd61011a366004611ce2565b61035b565b6100fd61012d366004611ce2565b610409565b34801561013e57600080fd5b50610147610646565b604080519283526020830191909152015b60405180910390f35b6100fd61016f366004611cc8565b6106a5565b34801561018057600080fd5b506101896109b4565b604051908152602001610158565b6100fd6101a5366004611ce2565b610a87565b3480156101b657600080fd5b506100fd6101c5366004611ce2565b610d09565b3480156101d657600080fd5b506101df61105e565b6040516101589190611d43565b3480156101f857600080fd5b50610201611121565b6040516101589190815181526020808301519082015260408083015190820152606080830151908201526080918201516001600160a01b03169181019190915260a00190565b34801561025357600080fd5b506100fd61114a565b34801561026857600080fd5b5061027c610277366004611cc8565b61115e565b6040805182518152602080840151908201529181015190820152606001610158565b3480156102aa57600080fd5b506000546040516001600160a01b039091168152602001610158565b3480156102d257600080fd5b50610189611422565b3480156102e757600080fd5b506100fd6102f6366004611cc8565b6114db565b34801561030757600080fd5b506100fd610316366004611ce2565b611554565b34801561032757600080fd5b50610189610336366004611cc8565b6117dc565b34801561034757600080fd5b506100fd610356366004611d2b565b61180b565b6103636118b1565b816001600160a01b031663a9059cbb6103846000546001600160a01b031690565b6040516001600160e01b031960e084901b1681526001600160a01b03909116600482015260248101849052604401602060405180830381600087803b1580156103cc57600080fd5b505af11580156103e0573d6000803e3d6000fd5b505050506040513d601f19601f820116820180604052508101906104049190611d0b565b505050565b6000811161044e5760405162461bcd60e51b815260206004820152600d60248201526c063616e2774207265706179203609c1b60448201526064015b60405180910390fd5b336000908152600460205260409020548061047b5760405162461bcd60e51b815260040161044590611e96565b60008181526003602090815260408083206001600160a01b03871684526001810190925282208054919285926104b2908490611f58565b90915550506007546001600160a01b03858116911614156105ab576007546040516323b872dd60e01b8152336004820152306024820152604481018590526001600160a01b03909116906323b872dd90606401602060405180830381600087803b15801561051f57600080fd5b505af1158015610533573d6000803e3d6000fd5b505050506040513d601f19601f820116820180604052508101906105579190611d0b565b6105735760405162461bcd60e51b815260040161044590611ed9565b6007546001600160a01b0316600090815260016020526040812060050180548592906105a0908490611f58565b909155506106409050565b823410156105ee5760405162461bcd60e51b815260206004820152601060248201526f283632b0b9b2903830bc9036b7b9329760811b6044820152606401610445565b600654610603906001600160a01b03166117dc565b61060d9084611f39565b6006546001600160a01b03166000908152600160205260408120600501805490919061063a908490611f58565b90915550505b50505050565b6006546001600160a01b0390811660009081526001602052604080822060075490931682528120600480820154908401549293849390929161068791611f01565b8160050154836005015461069b9190611f01565b9350935050509091565b6001600160a01b038116600090815260046020526040902054806106db5760405162461bcd60e51b815260040161044590611e96565b60008181526003602090815260408083206006546001600160a01b031684529182905290912054156108a9576006546001600160a01b03166000908152602082905260408082205490513391908381818185875af1925050503d8060008114610760576040519150601f19603f3d011682016040523d82523d6000602084013e610765565b606091505b50509050806107ac5760405162461bcd60e51b81526020600482015260136024820152723330b4b632b2103a379039b2b7321032ba341760691b6044820152606401610445565b6007546001600160a01b03166000818152600184016020526040908190205490516323b872dd60e01b815233600482015230602482015260448101919091526323b872dd90606401602060405180830381600087803b15801561080e57600080fd5b505af1158015610822573d6000803e3d6000fd5b505050506040513d601f19601f820116820180604052508101906108469190611d0b565b6108625760405162461bcd60e51b815260040161044590611ed9565b6007546001600160a01b031660009081526001808401602090815260408084205492909152822060050180549192909161089d908490611f58565b909155506109ab915050565b6007546001600160a01b03166000818152602083905260409081902054905163a9059cbb60e01b8152336004820152602481019190915263a9059cbb90604401602060405180830381600087803b15801561090357600080fd5b505af1158015610917573d6000803e3d6000fd5b505050506040513d601f19601f8201168201806040525081019061093b9190611d0b565b50600654610951906001600160a01b03166117dc565b6006546001600160a01b031660009081526001830160205260409020546109789190611f39565b6006546001600160a01b0316600090815260016020526040812060050180549091906109a5908490611f58565b90915550505b6104048361190b565b33600090815260046020526040812054806109e15760405162461bcd60e51b815260040161044590611e96565b600081815260036020526040812060065490918291610a08906001600160a01b03166117dc565b6006546001600160a01b03166000908152600184016020526040902054610a2f9190611f39565b600654909150600090610a4a906001600160a01b03166117dc565b6006546001600160a01b03166000908152600185016020526040902054610a719190611f39565b9050610a7d8183611f01565b9550505050505090565b60008111610ac95760405162461bcd60e51b815260206004820152600f60248201526e063616e2774206465706f736974203608c1b6044820152606401610445565b33600090815260046020526040812054610b1157600160026000828254610af09190611f01565b90915550506002543360009081526004602052604090208190559050610b2c565b503360008181526004602052604090205490610b2c9061190b565b60008181526003602090815260408083204260028201556001600160a01b0387168452600181019092529091205415610ba75760405162461bcd60e51b815260206004820152601960248201527f506c6561736520726570617920746f6b656e2066697273742e000000000000006044820152606401610445565b6001600160a01b03841660009081526020829052604081208054859290610bcf908490611f01565b90915550506007546001600160a01b0385811691161415610cbd576007546040516323b872dd60e01b8152336004820152306024820152604481018590526001600160a01b03909116906323b872dd90606401602060405180830381600087803b158015610c3c57600080fd5b505af1158015610c50573d6000803e3d6000fd5b505050506040513d601f19601f82011682018060405250810190610c749190611d0b565b610c905760405162461bcd60e51b815260040161044590611ed9565b6007546001600160a01b0316600090815260016020526040812060040180548592906105a0908490611f01565b600654610cd2906001600160a01b03166117dc565b610cdc9084611f39565b6006546001600160a01b03166000908152600160205260408120600401805490919061063a908490611f01565b60008111610d4a5760405162461bcd60e51b815260206004820152600e60248201526d063616e277420626f72726f7720360941b6044820152606401610445565b3360009081526004602052604090205480610d775760405162461bcd60e51b815260040161044590611e96565b60008181526003602090815260408083206001600160a01b0387168452918290529091205415610de95760405162461bcd60e51b815260206004820152601c60248201527f506c6561736520776974686472617720746f6b656e2066697273742e000000006044820152606401610445565b600083610df5866117dc565b610dff9190611f39565b90506000610e0b6109b4565b610e13611422565b610e1d9190611f58565b6001600160a01b03871660009081526001602081905260409091200154909150826064610e4a8385611f39565b610e549190611f19565b11610e985760405162461bcd60e51b8152602060048201526014602482015273283632b0b9b2903232b837b9b4ba1036b7b9329760611b6044820152606401610445565b6001600160a01b038716600090815260018501602052604081208054889290610ec2908490611f01565b90915550506006546001600160a01b0388811691161415610f9d57604051600090339088908381818185875af1925050503d8060008114610f1f576040519150601f19603f3d011682016040523d82523d6000602084013e610f24565b606091505b5050905080610f455760405162461bcd60e51b815260040161044590611e1d565b600654610f5a906001600160a01b03166117dc565b610f649088611f39565b6006546001600160a01b031660009081526001602052604081206005018054909190610f91908490611f01565b90915550611055915050565b60075460405163a9059cbb60e01b8152336004820152602481018890526001600160a01b039091169063a9059cbb90604401602060405180830381600087803b158015610fe957600080fd5b505af1158015610ffd573d6000803e3d6000fd5b505050506040513d601f19601f820116820180604052508101906110219190611d0b565b506007546001600160a01b03166000908152600160205260408120600501805488929061104f908490611f01565b90915550505b50505050505050565b6060600060025467ffffffffffffffff81111561108b57634e487b7160e01b600052604160045260246000fd5b6040519080825280602002602001820160405280156110c457816020015b6110b1611c79565b8152602001906001900390816110a95790505b50905060005b60025481101561111b576110dd81611b14565b8282815181106110fd57634e487b7160e01b600052603260045260246000fd5b6020026020010181905250808061111390611f6f565b9150506110ca565b50919050565b611129611c79565b336000908152600460205260408120549061114382611b14565b9392505050565b6111526118b1565b61115c6000611bcd565b565b61118260405180606001604052806000815260200160008152602001600081525090565b6001600160a01b038216600090815260046020526040902054806111b85760405162461bcd60e51b815260040161044590611e96565b600081815260036020908152604080832081516060810183528481528084018590528083019490945260028101548251808401909352600d83526c06c61737454696d657374616d7609c1b93830193909352929183916112189082611c1d565b60006112248242611f58565b90506112516040518060400160405280600981526020016874696d6544656c746160b81b81525082611c1d565b61127f6040518060400160405280600c81526020016b63757272656e742074696d6560a01b81525042611c1d565b6006546001600160a01b039081166000818152600160209081526040808320600754909516835280832093835290879052902054156113675760095460028301546006546001600160a01b031660009081526020889052604090205485916112e691611f39565b6112f09190611f39565b6112fa9190611f19565b86518790611309908390611f01565b90525060095460028301546006546001600160a01b0316600090815260208890526040902054859161133a91611f39565b6113449190611f39565b61134e9190611f19565b8660400181815161135f9190611f01565b905250611414565b60095460028201546007546001600160a01b0316600090815260208890526040902054859161139591611f39565b61139f9190611f39565b6113a99190611f19565b866020018181516113ba9190611f01565b90525060095460028201546007546001600160a01b031660009081526020889052604090205485916113eb91611f39565b6113f59190611f39565b6113ff9190611f19565b866040018181516114109190611f01565b9052505b509398975050505050505050565b336000908152600460205260408120548061144f5760405162461bcd60e51b815260040161044590611e96565b600081815260036020526040812060065490918291611476906001600160a01b03166117dc565b6006546001600160a01b031660009081526020849052604090205461149b9190611f39565b6007549091506000906114b6906001600160a01b03166117dc565b6007546001600160a01b0316600090815260208590526040902054610a719190611f39565b6114e36118b1565b6001600160a01b0381166115485760405162461bcd60e51b815260206004820152602660248201527f4f776e61626c653a206e6577206f776e657220697320746865207a65726f206160448201526564647265737360d01b6064820152608401610445565b61155181611bcd565b50565b600081116115975760405162461bcd60e51b815260206004820152601060248201526f063616e277420776974686472617720360841b6044820152606401610445565b33600090815260046020526040902054806115c45760405162461bcd60e51b815260040161044590611e96565b60008181526003602052604090206115db3361190b565b6000836115e7866117dc565b6115f19190611f39565b905060006115fd6109b4565b611605611422565b61160f9190611f58565b6001600160a01b0387166000908152600160208190526040822001549192506116366109b4565b1115611676578260646116498385611f39565b6116539190611f19565b10156116715760405162461bcd60e51b815260040161044590611e54565b61169d565b8261167f611422565b101561169d5760405162461bcd60e51b815260040161044590611e54565b6001600160a01b038716600090815260208590526040812080548892906116c5908490611f58565b90915550506006546001600160a01b038881169116141561174e57604051600090339088908381818185875af1925050503d8060008114611722576040519150601f19603f3d011682016040523d82523d6000602084013e611727565b606091505b50509050806117485760405162461bcd60e51b815260040161044590611e1d565b50611055565b60075460405163a9059cbb60e01b8152336004820152602481018890526001600160a01b039091169063a9059cbb90604401602060405180830381600087803b15801561179a57600080fd5b505af11580156117ae573d6000803e3d6000fd5b505050506040513d601f19601f820116820180604052508101906117d29190611d0b565b5050505050505050565b6007546000906001600160a01b03838116911614156117fd57506001919050565b506103e8919050565b919050565b6118136118b1565b600080546040516001600160a01b039091169083908381818185875af1925050503d8060008114611860576040519150601f19603f3d011682016040523d82523d6000602084013e611865565b606091505b50509050806118ad5760405162461bcd60e51b81526020600482015260146024820152732330b4b632b2103a379039b2b7321022ba3432b960611b6044820152606401610445565b5050565b6000546001600160a01b0316331461115c5760405162461bcd60e51b815260206004820181905260248201527f4f776e61626c653a2063616c6c6572206973206e6f7420746865206f776e65726044820152606401610445565b60006119168261115e565b8051909150156119975780516040516000916001600160a01b038516918381818185875af1925050503d806000811461196b576040519150601f19603f3d011682016040523d82523d6000602084013e611970565b606091505b50509050806119915760405162461bcd60e51b815260040161044590611e1d565b50611a2e565b602081015115611a2e57600754602082015160405163a9059cbb60e01b81526001600160a01b038581166004830152602482019290925291169063a9059cbb90604401602060405180830381600087803b1580156119f457600080fd5b505af1158015611a08573d6000803e3d6000fd5b505050506040513d601f19601f82011682018060405250810190611a2c9190611d0b565b505b604081015115611ac557600554604082810151905163a9059cbb60e01b81526001600160a01b038581166004830152602482019290925291169063a9059cbb90604401602060405180830381600087803b158015611a8b57600080fd5b505af1158015611a9f573d6000803e3d6000fd5b505050506040513d601f19601f82011682018060405250810190611ac39190611d0b565b505b6001600160a01b03821660009081526004602052604090205480611afb5760405162461bcd60e51b815260040161044590611e96565b6000908152600360205260409020426002909101555050565b611b1c611c79565b8115611b9257506000908152600360209081526040808320815160a0810183526006546001600160a01b0390811680875283865284872054835286526001830180865284872054838701526007549091168087529285528386205482850152918552925290912054606082015233608082015290565b6040518060a0016040528060008152602001600081526020016000815260200160008152602001336001600160a01b03168152509050919050565b600080546001600160a01b038381166001600160a01b0319831681178455604051919092169283917f8be0079c531659141344cd1fd0a4f28419497f9722a3daafe3b4186f6b6457e09190a35050565b6118ad8282604051602401611c33929190611dc2565b60408051601f198184030181529190526020810180516001600160e01b0316632d839cb360e21b17815281516a636f6e736f6c652e6c6f67916000918291845afa505050565b6040518060a001604052806000815260200160008152602001600081526020016000815260200160006001600160a01b031681525090565b80356001600160a01b038116811461180657600080fd5b600060208284031215611cd9578081fd5b61114382611cb1565b60008060408385031215611cf4578081fd5b611cfd83611cb1565b946020939093013593505050565b600060208284031215611d1c578081fd5b81518015158114611143578182fd5b600060208284031215611d3c578081fd5b5035919050565b6020808252825182820181905260009190848201906040850190845b81811015611db657611da3838551805182526020808201519083015260408082015190830152606080820151908301526080908101516001600160a01b0316910152565b9284019260a09290920191600101611d5f565b50909695505050505050565b6040815260008351806040840152815b81811015611def5760208187018101516060868401015201611dd2565b81811115611e005782606083860101525b50602083019390935250601f91909101601f191601606001919050565b6020808252601c908201527f6661696c656420746f2073656e642065746820696e7465726573742e00000000604082015260600190565b60208082526022908201527f5769746864726177206661696c65642e506c65736165207265706179206669726040820152611cdd60f21b606082015260800190565b60208082526023908201527f5573657220696e6465782073686f756c6420626520626967676572207468616e60408201526210181760e91b606082015260800190565b6020808252600e908201526d19195c1bdcda5d0819985a5b195960921b604082015260600190565b60008219821115611f1457611f14611f8a565b500190565b600082611f3457634e487b7160e01b81526012600452602481fd5b500490565b6000816000190483118215151615611f5357611f53611f8a565b500290565b600082821015611f6a57611f6a611f8a565b500390565b6000600019821415611f8357611f83611f8a565b5060010190565b634e487b7160e01b600052601160045260246000fdfea2646970667358221220bd932e96393d8f2024bbbb125257af6f41fc2d80c19742f9715cd340557fb4f664736f6c63430008040033",
  "linkReferences": {},
  "deployedLinkReferences": {}
}