{
  "_format": "hh-sol-artifact-1",
  "contractName": "Lending",
  "sourceName": "contracts/Lending.sol",
  "abi": [
    {
      "inputs": [
        {
          "internalType": "address",
          "name": "_rewardAddress",
          "type": "address"
        },
        {
          "internalType": "address",
          "name": "_ethAdddress",
          "type": "address"
        },
        {
          "internalType": "address",
          "name": "_usdtAddress",
          "type": "address"
        }
      ],
      "stateMutability": "nonpayable",
      "type": "constructor"
    },
    {
      "anonymous": false,
      "inputs": [
        {
          "indexed": true,
          "internalType": "address",
          "name": "previousOwner",
          "type": "address"
        },
        {
          "indexed": true,
          "internalType": "address",
          "name": "newOwner",
          "type": "address"
        }
      ],
      "name": "OwnershipTransferred",
      "type": "event"
    },
    {
      "stateMutability": "payable",
      "type": "fallback"
    },
    {
      "inputs": [
        {
          "internalType": "address",
          "name": "_tokenAddress",
          "type": "address"
        },
        {
          "internalType": "uint256",
          "name": "_amount",
          "type": "uint256"
        }
      ],
      "name": "borrow",
      "outputs": [],
      "stateMutability": "nonpayable",
      "type": "function"
    },
    {
      "inputs": [
        {
          "internalType": "address",
          "name": "_tokenAddress",
          "type": "address"
        },
        {
          "internalType": "uint256",
          "name": "_amount",
          "type": "uint256"
        }
      ],
      "name": "calcTokenPrice",
      "outputs": [
        {
          "internalType": "uint256",
          "name": "",
          "type": "uint256"
        }
      ],
      "stateMutability": "view",
      "type": "function"
    },
    {
      "inputs": [],
      "name": "claimPeko",
      "outputs": [],
      "stateMutability": "nonpayable",
      "type": "function"
    },
    {
      "inputs": [
        {
          "internalType": "address",
          "name": "_tokenAddress",
          "type": "address"
        },
        {
          "internalType": "uint256",
          "name": "_amount",
          "type": "uint256"
        }
      ],
      "name": "claimProfit",
      "outputs": [],
      "stateMutability": "nonpayable",
      "type": "function"
    },
    {
      "inputs": [
        {
          "internalType": "uint256",
          "name": "amount",
          "type": "uint256"
        }
      ],
      "name": "claimRewardToken",
      "outputs": [],
      "stateMutability": "nonpayable",
      "type": "function"
    },
    {
      "inputs": [
        {
          "internalType": "address",
          "name": "_account",
          "type": "address"
        }
      ],
      "name": "collateral",
      "outputs": [
        {
          "internalType": "uint256",
          "name": "",
          "type": "uint256"
        }
      ],
      "stateMutability": "nonpayable",
      "type": "function"
    },
    {
      "inputs": [
        {
          "internalType": "address",
          "name": "_account",
          "type": "address"
        }
      ],
      "name": "debt",
      "outputs": [
        {
          "internalType": "uint256",
          "name": "",
          "type": "uint256"
        }
      ],
      "stateMutability": "nonpayable",
      "type": "function"
    },
    {
      "inputs": [
        {
          "internalType": "address",
          "name": "_tokenAddress",
          "type": "address"
        },
        {
          "internalType": "uint256",
          "name": "_amount",
          "type": "uint256"
        }
      ],
      "name": "deposit",
      "outputs": [],
      "stateMutability": "payable",
      "type": "function"
    },
    {
      "inputs": [],
      "name": "getEthValue",
      "outputs": [
        {
          "internalType": "uint256",
          "name": "",
          "type": "uint256"
        }
      ],
      "stateMutability": "view",
      "type": "function"
    },
    {
      "inputs": [],
      "name": "getLiquidationThreshhold",
      "outputs": [
        {
          "internalType": "uint256",
          "name": "",
          "type": "uint256"
        }
      ],
      "stateMutability": "view",
      "type": "function"
    },
    {
      "inputs": [],
      "name": "getMarketInfo",
      "outputs": [
        {
          "internalType": "uint256",
          "name": "",
          "type": "uint256"
        },
        {
          "internalType": "uint256",
          "name": "",
          "type": "uint256"
        }
      ],
      "stateMutability": "view",
      "type": "function"
    },
    {
      "inputs": [],
      "name": "getMemberNumber",
      "outputs": [
        {
          "internalType": "uint256",
          "name": "",
          "type": "uint256"
        }
      ],
      "stateMutability": "view",
      "type": "function"
    },
    {
      "inputs": [
        {
          "internalType": "address",
          "name": "_poolAddress",
          "type": "address"
        }
      ],
      "name": "getPoolInfo",
      "outputs": [
        {
          "components": [
            {
              "internalType": "uint256",
              "name": "LTV",
              "type": "uint256"
            },
            {
              "internalType": "uint256",
              "name": "depositApy",
              "type": "uint256"
            },
            {
              "internalType": "uint256",
              "name": "borrowApy",
              "type": "uint256"
            },
            {
              "internalType": "uint256",
              "name": "totalAmount",
              "type": "uint256"
            },
            {
              "internalType": "uint256",
              "name": "borrowAmount",
              "type": "uint256"
            }
          ],
          "internalType": "struct Lending.PoolInfo",
          "name": "",
          "type": "tuple"
        }
      ],
      "stateMutability": "view",
      "type": "function"
    },
    {
      "inputs": [
        {
          "internalType": "address",
          "name": "_tokenAddress",
          "type": "address"
        }
      ],
      "name": "getProfit",
      "outputs": [
        {
          "internalType": "uint256",
          "name": "",
          "type": "uint256"
        }
      ],
      "stateMutability": "view",
      "type": "function"
    },
    {
      "inputs": [
        {
          "internalType": "address",
          "name": "_account",
          "type": "address"
        }
      ],
      "name": "getUserInfo",
      "outputs": [
        {
          "components": [
            {
              "internalType": "uint256",
              "name": "ethDepositAmount",
              "type": "uint256"
            },
            {
              "internalType": "uint256",
              "name": "usdtDepositAmount",
              "type": "uint256"
            },
            {
              "internalType": "uint256",
              "name": "ethBorrowAmount",
              "type": "uint256"
            },
            {
              "internalType": "uint256",
              "name": "usdtBorrowAmount",
              "type": "uint256"
            },
            {
              "internalType": "uint256",
              "name": "ethInterestAmount",
              "type": "uint256"
            },
            {
              "internalType": "uint256",
              "name": "usdtInterestAmount",
              "type": "uint256"
            },
            {
              "internalType": "uint256",
              "name": "ethRewardAmount",
              "type": "uint256"
            },
            {
              "internalType": "uint256",
              "name": "usdtRewardAmount",
              "type": "uint256"
            },
            {
              "internalType": "uint256",
              "name": "pekoRewardAmount",
              "type": "uint256"
            },
            {
              "internalType": "uint256",
              "name": "ethDepositTotalInUsdtAmount",
              "type": "uint256"
            },
            {
              "internalType": "uint256",
              "name": "usdtDepositTotalAmount",
              "type": "uint256"
            },
            {
              "internalType": "uint256",
              "name": "ethBorrowTotalInUsdtAmount",
              "type": "uint256"
            },
            {
              "internalType": "uint256",
              "name": "usdtBorrowTotalAmount",
              "type": "uint256"
            },
            {
              "internalType": "address",
              "name": "accountAddress",
              "type": "address"
            }
          ],
          "internalType": "struct Lending.UserInfoForDisplay",
          "name": "",
          "type": "tuple"
        }
      ],
      "stateMutability": "view",
      "type": "function"
    },
    {
      "inputs": [
        {
          "internalType": "address",
          "name": "_account",
          "type": "address"
        }
      ],
      "name": "liquidate",
      "outputs": [],
      "stateMutability": "payable",
      "type": "function"
    },
    {
      "inputs": [],
      "name": "listPools",
      "outputs": [
        {
          "components": [
            {
              "internalType": "uint256",
              "name": "LTV",
              "type": "uint256"
            },
            {
              "internalType": "uint256",
              "name": "depositApy",
              "type": "uint256"
            },
            {
              "internalType": "uint256",
              "name": "borrowApy",
              "type": "uint256"
            },
            {
              "internalType": "uint256",
              "name": "totalAmount",
              "type": "uint256"
            },
            {
              "internalType": "uint256",
              "name": "borrowAmount",
              "type": "uint256"
            }
          ],
          "internalType": "struct Lending.PoolInfo[]",
          "name": "",
          "type": "tuple[]"
        }
      ],
      "stateMutability": "view",
      "type": "function"
    },
    {
      "inputs": [
        {
          "internalType": "uint256",
          "name": "page",
          "type": "uint256"
        }
      ],
      "name": "listUserInfo",
      "outputs": [
        {
          "components": [
            {
              "internalType": "uint256",
              "name": "ethDepositAmount",
              "type": "uint256"
            },
            {
              "internalType": "uint256",
              "name": "usdtDepositAmount",
              "type": "uint256"
            },
            {
              "internalType": "uint256",
              "name": "ethBorrowAmount",
              "type": "uint256"
            },
            {
              "internalType": "uint256",
              "name": "usdtBorrowAmount",
              "type": "uint256"
            },
            {
              "internalType": "uint256",
              "name": "ethInterestAmount",
              "type": "uint256"
            },
            {
              "internalType": "uint256",
              "name": "usdtInterestAmount",
              "type": "uint256"
            },
            {
              "internalType": "uint256",
              "name": "ethRewardAmount",
              "type": "uint256"
            },
            {
              "internalType": "uint256",
              "name": "usdtRewardAmount",
              "type": "uint256"
            },
            {
              "internalType": "uint256",
              "name": "pekoRewardAmount",
              "type": "uint256"
            },
            {
              "internalType": "uint256",
              "name": "ethDepositTotalInUsdtAmount",
              "type": "uint256"
            },
            {
              "internalType": "uint256",
              "name": "usdtDepositTotalAmount",
              "type": "uint256"
            },
            {
              "internalType": "uint256",
              "name": "ethBorrowTotalInUsdtAmount",
              "type": "uint256"
            },
            {
              "internalType": "uint256",
              "name": "usdtBorrowTotalAmount",
              "type": "uint256"
            },
            {
              "internalType": "address",
              "name": "accountAddress",
              "type": "address"
            }
          ],
          "internalType": "struct Lending.UserInfoForDisplay[]",
          "name": "",
          "type": "tuple[]"
        }
      ],
      "stateMutability": "view",
      "type": "function"
    },
    {
      "inputs": [],
      "name": "owner",
      "outputs": [
        {
          "internalType": "address",
          "name": "",
          "type": "address"
        }
      ],
      "stateMutability": "view",
      "type": "function"
    },
    {
      "inputs": [],
      "name": "renounceOwnership",
      "outputs": [],
      "stateMutability": "nonpayable",
      "type": "function"
    },
    {
      "inputs": [
        {
          "internalType": "address",
          "name": "_tokenAddress",
          "type": "address"
        },
        {
          "internalType": "uint256",
          "name": "_amount",
          "type": "uint256"
        }
      ],
      "name": "repay",
      "outputs": [],
      "stateMutability": "payable",
      "type": "function"
    },
    {
      "inputs": [
        {
          "internalType": "uint256",
          "name": "_r0",
          "type": "uint256"
        },
        {
          "internalType": "uint256",
          "name": "_uOption",
          "type": "uint256"
        },
        {
          "internalType": "uint256",
          "name": "_rSlope1",
          "type": "uint256"
        },
        {
          "internalType": "uint256",
          "name": "_rSlope2",
          "type": "uint256"
        }
      ],
      "name": "setBorrowApy",
      "outputs": [],
      "stateMutability": "nonpayable",
      "type": "function"
    },
    {
      "inputs": [
        {
          "internalType": "uint256",
          "name": "limit",
          "type": "uint256"
        }
      ],
      "name": "setLiquidationThreshhold",
      "outputs": [],
      "stateMutability": "nonpayable",
      "type": "function"
    },
    {
      "inputs": [
        {
          "internalType": "uint256",
          "name": "_price",
          "type": "uint256"
        }
      ],
      "name": "setPekoPrice",
      "outputs": [],
      "stateMutability": "nonpayable",
      "type": "function"
    },
    {
      "inputs": [
        {
          "internalType": "uint256",
          "name": "_r0",
          "type": "uint256"
        },
        {
          "internalType": "uint256",
          "name": "_uOption",
          "type": "uint256"
        },
        {
          "internalType": "uint256",
          "name": "_rSlope1",
          "type": "uint256"
        },
        {
          "internalType": "uint256",
          "name": "_rSlope2",
          "type": "uint256"
        }
      ],
      "name": "setSupplyApy",
      "outputs": [],
      "stateMutability": "nonpayable",
      "type": "function"
    },
    {
      "inputs": [
        {
          "internalType": "address",
          "name": "newOwner",
          "type": "address"
        }
      ],
      "name": "transferOwnership",
      "outputs": [],
      "stateMutability": "nonpayable",
      "type": "function"
    },
    {
      "inputs": [
        {
          "internalType": "address",
          "name": "_tokenAddress",
          "type": "address"
        },
        {
          "internalType": "uint256",
          "name": "_amount",
          "type": "uint256"
        }
      ],
      "name": "withdraw",
      "outputs": [],
      "stateMutability": "nonpayable",
      "type": "function"
    },
    {
      "stateMutability": "payable",
      "type": "receive"
    }
  ],
  "bytecode": "0x608060405261271060115560326012556001601355655af3107a400060145561013d601555601680546001600160a01b03191673245e775a46b1aadacbd48279cf0731cf186cf2b21790553480156200005757600080fd5b5060405162003abf38038062003abf8339810160408190526200007a9162000293565b600080546001600160a01b031916339081178255604051909182917f8be0079c531659141344cd1fd0a4f28419497f9722a3daafe3b4186f6b6457e0908290a350600e80546001600160a01b038086166001600160a01b031992831617909255600f8054858416908316811790915560108054938516939092169290921790556200010e906050606460c86000806200015d565b6010546200012e906001600160a01b03166050606460c86000806200015d565b6200014260c860466107d0610ed8620001b4565b62000154600060466103e88062000217565b50505062000309565b6001600160a01b0386166000908152600960205260409020858155601554620001879086620002dd565b60018201556015546200019b9085620002dd565b6002820155600381019290925560049091015550505050565b6000546001600160a01b03163314620002035760405162461bcd60e51b8152602060048201819052602482015260008051602062003a9f83398151915260448201526064015b60405180910390fd5b600593909355600691909155600755600855565b6000546001600160a01b03163314620002625760405162461bcd60e51b8152602060048201819052602482015260008051602062003a9f8339815191526044820152606401620001fa565b600193909355600291909155600355600455565b80516001600160a01b03811681146200028e57600080fd5b919050565b600080600060608486031215620002a957600080fd5b620002b48462000276565b9250620002c46020850162000276565b9150620002d46040850162000276565b90509250925092565b80820281158282048414176200030357634e487b7160e01b600052601160045260246000fd5b92915050565b61378680620003196000396000f3fe60806040526004361061018b5760003560e01c80636386c1c7116100e0578063a079722d11610084578063e124787f11610061578063e124787f14610485578063ed45f39d1461049a578063f2fde38b146104ba578063f3fef3a3146104da57005b8063a079722d1461040f578063a5fdc5de1461042f578063c600e1dc1461044f57005b8063715018a6116100bd578063715018a61461039d578063838afb1e146103b25780638da5cb5b146103c75780639b6c56ec146103ef57005b80636386c1c71461032e578063660fd8311461035b578063687958621461037b57005b80632a902dc5116101475780634b8a3529116101245780634b8a3529146102ae578063602e7e25146102ce578063606752fc146102ee578063616571e71461030e57005b80632a902dc51461025b5780632f8655681461028857806347e7ef241461029b57005b806305cb9fde1461019457806306bfa938146101c7578063076f215c146101f45780631c5a859b1461020957806322867d781461021e57806323341a051461023157005b3661019257005b005b3480156101a057600080fd5b506101b46101af3660046132f6565b6104fa565b6040519081526020015b60405180910390f35b3480156101d357600080fd5b506101e76101e2366004613320565b61054f565b6040516101be919061333b565b34801561020057600080fd5b50600a546101b4565b34801561021557600080fd5b506101b4610601565b61019261022c3660046132f6565b610692565b34801561023d57600080fd5b50610246610a67565b604080519283526020830191909152016101be565b34801561026757600080fd5b5061027b610276366004613374565b610aee565b6040516101be919061342e565b610192610296366004613320565b610c60565b6101926102a93660046132f6565b61145e565b3480156102ba57600080fd5b506101926102c93660046132f6565b6116ba565b3480156102da57600080fd5b506101926102e9366004613374565b6119d8565b3480156102fa57600080fd5b50610192610309366004613374565b611a9a565b34801561031a57600080fd5b50610192610329366004613374565b611ac9565b34801561033a57600080fd5b5061034e610349366004613320565b611af8565b6040516101be919061347d565b34801561036757600080fd5b5061019261037636600461348c565b611b2b565b34801561038757600080fd5b50610390611b69565b6040516101be91906134be565b3480156103a957600080fd5b50610192611d11565b3480156103be57600080fd5b50610192611d85565b3480156103d357600080fd5b506000546040516001600160a01b0390911681526020016101be565b3480156103fb57600080fd5b506101b461040a366004613320565b611e50565b34801561041b57600080fd5b5061019261042a36600461348c565b611efe565b34801561043b57600080fd5b506101b461044a366004613320565b611f3c565b34801561045b57600080fd5b506101b461046a366004613320565b6001600160a01b03166000908152600d602052604090205490565b34801561049157600080fd5b506013546101b4565b3480156104a657600080fd5b506101926104b53660046132f6565b611fd5565b3480156104c657600080fd5b506101926104d5366004613320565b6121e7565b3480156104e657600080fd5b506101926104f53660046132f6565b61221d565b6010546000906001600160a01b039081169084160361051a575080610549565b683635c9adc5dea000006105456c0c9f2c9cd04674edea4000000061053f8584613541565b90612795565b9150505b92915050565b6105816040518060a0016040528060008152602001600081526020016000815260200160008152602001600081525090565b6001600160a01b038216600090815260096020908152604091829020825160a081018452815481526001820154928101839052600282015493810193909352600381015460608401526004015460808301526015546105e09190612795565b602082015260155460408201516105f691612795565b604082015292915050565b600080601660009054906101000a90046001600160a01b03166001600160a01b031663feaf968c6040518163ffffffff1660e01b815260040160a060405180830381865afa158015610657573d6000803e3d6000fd5b505050506040513d601f19601f8201168201806040525081019061067b9190613572565b505050915050806402540be40061054991906135c2565b61069b336127a8565b600081116106e05760405162461bcd60e51b815260206004820152600d60248201526c063616e2774207265706179203609c1b60448201526064015b60405180910390fd5b336000908152600c60205260409020548061070d5760405162461bcd60e51b81526004016106d7906135f2565b6000818152600b602090815260408083206001600160a01b0387168452600581019092528220549091908410156107d0576001600160a01b038516600090815260058301602052604081208054869290610768908490613635565b90915550506001600160a01b03851660009081526009602052604081206003018054869290610798908490613648565b90915550506001600160a01b0385166000908152600d6020526040812080548692906107c5908490613648565b909155506109439050565b6001600160a01b038516600090815260038301602090815260408083205460058601909252909120546108039190613648565b84111561082b57506001600160a01b0384166000908152600382016020526040902054610853565b6001600160a01b03851660009081526005830160205260409020546108509085613635565b90505b6001600160a01b03851660009081526003830160205260408120805483929061087d908490613635565b90915550506001600160a01b0385166000908152600583016020908152604080832054600d90925282208054919290916108b8908490613648565b90915550506001600160a01b03851660009081526005830160205260408120556108e28185613635565b6001600160a01b0386166000908152600960205260408120600301805490919061090d908490613648565b90915550506001600160a01b0385166000908152600960205260408120600401805483929061093d908490613635565b90915550505b6010546001600160a01b0390811690861603610a14576010546040516323b872dd60e01b8152336004820152306024820152604481018690526001600160a01b03909116906323b872dd906064016020604051808303816000875af11580156109b0573d6000803e3d6000fd5b505050506040513d601f19601f820116820180604052508101906109d4919061365b565b610a0f5760405162461bcd60e51b815260206004820152600c60248201526b14995c185e4819985a5b195960a21b60448201526064016106d7565b610a57565b83341015610a575760405162461bcd60e51b815260206004820152601060248201526f283632b0b9b2903830bc9036b7b9329760811b60448201526064016106d7565b610a60336127a8565b5050505050565b600f546001600160a01b039081166000818152600960205260408082206010549094168252812060038082015490850154929485949093610aa891906104fa565b610ab29190613648565b8160040154610ada600f60009054906101000a90046001600160a01b031685600401546104fa565b610ae49190613648565b9350935050509091565b6060610afb826064613541565b600a5410610c28576000610b10836001613648565b610b1b906064613541565b600a5410610b4057610b2e836001613648565b610b39906064613541565b9050610b45565b50600a545b6000610b52846064613541565b610b5c9083613635565b67ffffffffffffffff811115610b7457610b7461367d565b604051908082528060200260200182016040528015610bad57816020015b610b9a613267565b815260200190600190039081610b925790505b5090506000610bbd856064613541565b610bc8906001613648565b90505b610bd6836001613648565b811015610c2057610be681612932565b82610bf2600184613635565b81518110610c0257610c02613693565b60200260200101819052508080610c18906136a9565b915050610bcb565b509392505050565b6040805160008082526020820190925290610c59565b610c46613267565b815260200190600190039081610c3e5790505b5092915050565b6001600160a01b0381166000908152600c602052604090205480610c965760405162461bcd60e51b81526004016106d7906135f2565b6000818152600b6020526040812090610cae84611f3c565b90506000610cbb85611e50565b90506000610ce660135484610cd09190613541565b610cdb846064613541565b61053f906064613541565b905060648111610d385760405162461bcd60e51b815260206004820152601f60248201527f54686973206973206e6f7420656e61626c6564206c69717569646174696f6e0060448201526064016106d7565b600f546001600160a01b0316600090815260048501602090815260408083205460028801909252822054610d6c9190613648565b6010546001600160a01b0316600090815260048701602090815260408083205460028a019092528220549293509091610da59190613648565b600f546001600160a01b0316600090815260058801602090815260408083205460038b019092528220549293509091610dde9190613648565b6010546001600160a01b0316600090815260058901602090815260408083205460038c019092528220549293509091610e179190613648565b600f546001600160a01b0316600090815260058a0160209081526040808320546009909252909120600301549192508591610e529190613648565b610e5c9190613635565b600f546001600160a01b039081166000908152600960208181526040808420600390810196909655601054909416835260058d01815283832054919052919020909101548491610eab91613648565b610eb59190613635565b6010546001600160a01b039081166000908152600960208181526040808420600390810196909655600f549094168352938c0184528282205493529081206004018054909190610f06908490613635565b90915550506010546001600160a01b0316600090815260038901602090815260408083205460099092528220600401805491929091610f46908490613635565b9091555050600f546001600160a01b0316600090815260048901602090815260408083205460058c01835281842054600d909352922054610f879190613648565b610f919190613635565b600f546001600160a01b039081166000908152600d6020818152604080842095909555601054909316825260048c0183528382205460058d0184528483205491909352929020549091610fe391613648565b610fed9190613635565b6010546001600160a01b03166000908152600d602052604090205561101482612710612795565b6110209061270f613541565b3410156110605760405162461bcd60e51b815260206004820152600e60248201526d09cdee840cadcdeeaced040cae8d60931b60448201526064016106d7565b6010546001600160a01b03166323b872dd333061107f85612710612795565b61108b9061270f613541565b6040516001600160e01b031960e086901b1681526001600160a01b03938416600482015292909116602483015260448201526064016020604051808303816000875af11580156110df573d6000803e3d6000fd5b505050506040513d601f19601f82011682018060405250810190611103919061365b565b6111405760405162461bcd60e51b815260206004820152600e60248201526d19195c1bdcda5d0819985a5b195960921b60448201526064016106d7565b6000336001600160a01b031661116c6127106012546127106111629190613635565b61053f9089613541565b604051600081818185875af1925050503d80600081146111a8576040519150601f19603f3d011682016040523d82523d6000602084013e6111ad565b606091505b50509050806111f45760405162461bcd60e51b81526020600482015260136024820152723330b4b632b2103a379039b2b7321032ba341760691b60448201526064016106d7565b600080546001600160a01b03166001600160a01b031661121e6127106012548961053f9190613541565b604051600081818185875af1925050503d806000811461125a576040519150601f19603f3d011682016040523d82523d6000602084013e61125f565b606091505b50509050806112805760405162461bcd60e51b81526004016106d7906136c2565b6010546012546001600160a01b039091169063a9059cbb9033906112b690612710906112ac9082613635565b61053f908b613541565b6040516001600160e01b031960e085901b1681526001600160a01b03909216600483015260248201526044016020604051808303816000875af1158015611301573d6000803e3d6000fd5b505050506040513d601f19601f82011682018060405250810190611325919061365b565b506010546012546001600160a01b039091169063a9059cbb903390611352906127109061053f908b613541565b6040516001600160e01b031960e085901b1681526001600160a01b03909216600483015260248201526044016020604051808303816000875af115801561139d573d6000803e3d6000fd5b505050506040513d601f19601f820116820180604052508101906113c1919061365b565b50600e5460068b015460405163a9059cbb60e01b815233600482015260248101919091526001600160a01b039091169063a9059cbb906044016020604051808303816000875af1158015611419573d6000803e3d6000fd5b505050506040513d601f19601f8201168201806040525081019061143d919061365b565b506114478c612f03565b611450336127a8565b505050505050505050505050565b600081116114a05760405162461bcd60e51b815260206004820152600f60248201526e063616e2774206465706f736974203608c1b60448201526064016106d7565b336000908152600c602052604081205481036114ea576001600a60008282546114c99190613648565b9091555050600a54336000908152600c602052604090208190559050611505565b50336000818152600c602052604090205490611505906127a8565b6000818152600b6020908152604080832080546001600160a01b031916331781554260018201556001600160a01b0387168452600281019092528220805491928592611552908490613648565b90915550506010546001600160a01b039081169085160361162a576010546040516323b872dd60e01b8152336004820152306024820152604481018590526001600160a01b03909116906323b872dd906064016020604051808303816000875af11580156115c4573d6000803e3d6000fd5b505050506040513d601f19601f820116820180604052508101906115e8919061365b565b6116255760405162461bcd60e51b815260206004820152600e60248201526d19195c1bdcda5d0819985a5b195960921b60448201526064016106d7565b61167a565b8234101561167a5760405162461bcd60e51b815260206004820152601960248201527f596f7520646964206e6f742070617920617320616d6f756e740000000000000060448201526064016106d7565b6001600160a01b038416600090815260096020526040812060030180548592906116a5908490613648565b909155506116b49050336127a8565b50505050565b600081116116fb5760405162461bcd60e51b815260206004820152600e60248201526d063616e277420626f72726f7720360941b60448201526064016106d7565b336000908152600c6020526040902054806117285760405162461bcd60e51b81526004016106d7906135f2565b6000818152600b602052604081209061174033611f3c565b9050600061174d33611e50565b90508082101561179f5760405162461bcd60e51b815260206004820152601e60248201527f596f7520646f6e6f74206861766520616e7920636f6c6c61746572616c2e000060448201526064016106d7565b60006117ab87876104fa565b6001600160a01b0388166000908152600960205260409020549091506117d18383613648565b60646117dd8387613541565b6117e791906136f9565b101561182c5760405162461bcd60e51b8152602060048201526014602482015273283632b0b9b2903232b837b9b4ba1036b7b9329760611b60448201526064016106d7565b6001600160a01b038816600090815260038601602052604081208054899290611856908490613648565b909155506118659050336127a8565b600f546001600160a01b039081169089160361191c57604051600090339089908381818185875af1925050503d80600081146118bd576040519150601f19603f3d011682016040523d82523d6000602084013e6118c2565b606091505b50509050806118e35760405162461bcd60e51b81526004016106d7906136c2565b600f546001600160a01b0316600090815260096020526040812060040180548a9290611910908490613648565b909155506119c5915050565b60105460405163a9059cbb60e01b8152336004820152602481018990526001600160a01b039091169063a9059cbb906044016020604051808303816000875af115801561196d573d6000803e3d6000fd5b505050506040513d601f19601f82011682018060405250810190611991919061365b565b506010546001600160a01b0316600090815260096020526040812060040180548992906119bf908490613648565b90915550505b6119ce336127a8565b5050505050505050565b6000546001600160a01b03163314611a025760405162461bcd60e51b81526004016106d79061371b565b600e546001600160a01b031663a9059cbb611a256000546001600160a01b031690565b6040516001600160e01b031960e084901b1681526001600160a01b039091166004820152602481018490526044016020604051808303816000875af1158015611a72573d6000803e3d6000fd5b505050506040513d601f19601f82011682018060405250810190611a96919061365b565b5050565b6000546001600160a01b03163314611ac45760405162461bcd60e51b81526004016106d79061371b565b601155565b6000546001600160a01b03163314611af35760405162461bcd60e51b81526004016106d79061371b565b601355565b611b00613267565b6001600160a01b0382166000908152600c602052604081205490611b2382612932565b949350505050565b6000546001600160a01b03163314611b555760405162461bcd60e51b81526004016106d79061371b565b600593909355600691909155600755600855565b600f546001600160a01b0316600090815260096020908152604091829020825160a08101845281548152600182015492810183905260028201549381019390935260038101546060848101919091526004909101546080840152601554909291611bd291612795565b60208201526015546040820151611be891612795565b6040808301919091526010546001600160a01b031660009081526009602090815290829020825160a08101845281548152600182015492810183905260028201549381019390935260038101546060840152600401546080830152601554611c509190612795565b60208201526015546040820151611c6691612795565b6040828101919091528051600280825260608201909252600091816020015b611cb76040518060a0016040528060008152602001600081526020016000815260200160008152602001600081525090565b815260200190600190039081611c855790505090508281600081518110611ce057611ce0613693565b60200260200101819052508181600181518110611cff57611cff613693565b60209081029190910101529392505050565b6000546001600160a01b03163314611d3b5760405162461bcd60e51b81526004016106d79061371b565b600080546040516001600160a01b03909116907f8be0079c531659141344cd1fd0a4f28419497f9722a3daafe3b4186f6b6457e0908390a3600080546001600160a01b0319169055565b336000908152600c602052604090205480611db25760405162461bcd60e51b81526004016106d7906135f2565b6000818152600b60205260409020611dc9336127a8565b600e54600682015460405163a9059cbb60e01b815233600482015260248101919091526001600160a01b039091169063a9059cbb906044016020604051808303816000875af1158015611e20573d6000803e3d6000fd5b505050506040513d601f19601f82011682018060405250810190611e44919061365b565b50600060069091015550565b6000611e5b826127a8565b6001600160a01b038083166000908152600c60209081526040808320548352600b8252808320600f54909416808452600385018352818420546005860190935290832054611eac926101af91613648565b6010546001600160a01b03166000818152600385016020908152604080832054600588019092528220549394509092611ee992916101af91613648565b9050611ef58183613648565b95945050505050565b6000546001600160a01b03163314611f285760405162461bcd60e51b81526004016106d79061371b565b600193909355600291909155600355600455565b6000611f47826127a8565b6001600160a01b038083166000908152600c60209081526040808320548352600b8252808320600f54909416808452600285018352818420546004860190935290832054611f98926101af91613648565b6010546001600160a01b03166000818152600285016020908152604080832054600488019092528220549394509092611ee992916101af91613648565b6000546001600160a01b03163314611fff5760405162461bcd60e51b81526004016106d79061371b565b6001600160a01b03821660009081526009602052604090206003015481106120695760405162461bcd60e51b815260206004820181905260248201527f43616e6e6f74207769746864726177206d6f7265207468616e2070726f66697460448201526064016106d7565b600f546001600160a01b039081169083160361211f57600080546040516001600160a01b039091169083908381818185875af1925050503d80600081146120cc576040519150601f19603f3d011682016040523d82523d6000602084013e6120d1565b606091505b50509050806121195760405162461bcd60e51b81526020600482015260146024820152732330b4b632b2103a379039b2b7321022ba3432b960611b60448201526064016106d7565b506121b3565b816001600160a01b031663a9059cbb6121406000546001600160a01b031690565b6040516001600160e01b031960e084901b1681526001600160a01b039091166004820152602481018490526044016020604051808303816000875af115801561218d573d6000803e3d6000fd5b505050506040513d601f19601f820116820180604052508101906121b1919061365b565b505b6001600160a01b038216600090815260096020526040812060030180548392906121de908490613635565b90915550505050565b6000546001600160a01b031633146122115760405162461bcd60e51b81526004016106d79061371b565b61221a81613022565b50565b600081116122605760405162461bcd60e51b815260206004820152601060248201526f063616e277420776974686472617720360841b60448201526064016106d7565b336000908152600c60205260409020548061228d5760405162461bcd60e51b81526004016106d7906135f2565b6000818152600b602052604090206122a4336127a8565b60006122af33611f3c565b905060006122bc33611e50565b6001600160a01b03871660009081526009602052604090205490915081906064906122e789896104fa565b6122f19086613635565b6122fb9190613541565b61230591906136f9565b101561236a5760405162461bcd60e51b815260206004820152602e60248201527f5769746864726177206661696c65642e596f7520646f6e6f742068617665206160448201526d373c9031b7b63630ba32b930b61760911b60648201526084016106d7565b6001600160a01b038616600090815260048401602052604090205485101561241e576001600160a01b038616600090815260096020526040812060030180548792906123b7908490613635565b90915550506001600160a01b0386166000908152600484016020526040812080548792906123e6908490613635565b90915550506001600160a01b0386166000908152600d602052604081208054879290612413908490613635565b909155506124e49050565b6001600160a01b03861660009081526004840160205260408120546124439087613635565b6001600160a01b0388166000908152600286016020526040812080549293508392909190612472908490613635565b90915550506001600160a01b03871660009081526004850160209081526040808320839055600d9091528120805482906124ad908290613635565b90915550506001600160a01b038716600090815260096020526040812060030180548892906124dd908490613635565b9091555050505b600f546001600160a01b039081169087160361264b576000336001600160a01b031661252661271060125461271061251c9190613635565b61053f908a613541565b604051600081818185875af1925050503d8060008114612562576040519150601f19603f3d011682016040523d82523d6000602084013e612567565b606091505b50509050806125885760405162461bcd60e51b81526004016106d7906136c2565b600080546001600160a01b03166001600160a01b03166125b26127106012548a61053f9190613541565b604051600081818185875af1925050503d80600081146125ee576040519150601f19603f3d011682016040523d82523d6000602084013e6125f3565b606091505b50509050806126445760405162461bcd60e51b815260206004820181905260248201527f6661696c656420746f2073656e64206665652065746820696e7465726573742e60448201526064016106d7565b5050612784565b6010546012546001600160a01b039091169063a9059cbb90339061267790612710906112ac9082613635565b6040516001600160e01b031960e085901b1681526001600160a01b03909216600483015260248201526044016020604051808303816000875af11580156126c2573d6000803e3d6000fd5b505050506040513d601f19601f820116820180604052508101906126e6919061365b565b506010546012546001600160a01b039091169063a9059cbb903390612713906127109061053f908b613541565b6040516001600160e01b031960e085901b1681526001600160a01b03909216600483015260248201526044016020604051808303816000875af115801561275e573d6000803e3d6000fd5b505050506040513d601f19601f82011682018060405250810190612782919061365b565b505b61278d336127a8565b505050505050565b60006127a182846136f9565b9392505050565b6001600160a01b0381166000908152600c602052604090205461280d5760405162461bcd60e51b815260206004820152601a60248201527f557365722073686f756c64206465706f736974206265666f726500000000000060448201526064016106d7565b6001600160a01b0381166000818152600c6020818152604080842054808552600b835290842094845291905261284290612932565b610100810151600684015560c0810151600f80546001600160a01b039081166000908152600487016020818152604080842096909655608087015185548516845260058a018083528785209190915560e088015160108054871686529383528785205560a0880151925485168452905293902092909255426001860155549192506128cd91166130e2565b600f546001600160a01b039081166000908152600960205260409020600281019290925560019091019190915560105461290791166130e2565b6010546001600160a01b03166000908152600960205260409020600281019190915560010155505050565b61293a613267565b8115612e83576000828152600b602052604081206001810154909161295f8242613635565b601154600f546014546001600160a01b0390911660008181526009602090815260408083206001015460028b0190925282205495965090946129bc939187916129a89190613541565b6129b29190613541565b6101af91906136f9565b6129c69190613541565b84600601546129d59190613648565b601454600f546001600160a01b031660009081526009602090815260408083206001015460028a0190925282205493945090928591612a1391613541565b612a1d9190613541565b612a2791906136f9565b600f546001600160a01b03166000908152600487016020526040902054612a4e9190613648565b601454600f546001600160a01b031660009081526009602090815260408083206002015460038b0190925282205493945090928691612a8c91613541565b612a969190613541565b612aa091906136f9565b600f546001600160a01b03166000908152600588016020526040902054612ac79190613648565b6011546010546014546001600160a01b0390911660008181526009602090815260408083206001015460028e01909252909120549495509293612b139391929189916129a89190613541565b612b1d9190613541565b8660060154612b2c9190613648565b612b369084613648565b6014546010546001600160a01b031660009081526009602090815260408083206001015460028c0190925282205493965090928791612b7491613541565b612b7e9190613541565b612b8891906136f9565b6010546001600160a01b03166000908152600489016020526040902054612baf9190613648565b6014546010546001600160a01b031660009081526009602090815260408083206002015460038d0190925282205493945090928891612bed91613541565b612bf79190613541565b612c0191906136f9565b6010546001600160a01b0316600090815260058a016020526040902054612c289190613648565b90506000604051806101c001604052808a6002016000600f60009054906101000a90046001600160a01b03166001600160a01b03166001600160a01b031681526020019081526020016000205481526020018a6002016000601060009054906101000a90046001600160a01b03166001600160a01b03166001600160a01b031681526020019081526020016000205481526020018a6003016000600f60009054906101000a90046001600160a01b03166001600160a01b03166001600160a01b031681526020019081526020016000205481526020018a6003016000601060009054906101000a90046001600160a01b03166001600160a01b03166001600160a01b03168152602001908152602001600020548152602001858152602001838152602001868152602001848152602001878152602001612dbf600f60009054906101000a90046001600160a01b0316888d6002016000600f60009054906101000a90046001600160a01b03166001600160a01b03166001600160a01b03168152602001908152602001600020546101af9190613648565b81526010546001600160a01b0316600081815260028d016020908152604090912054920191612df491906101af908890613648565b8152600f546001600160a01b0316600081815260038d016020908152604090912054920191612e2991906101af908990613648565b81526010546001600160a01b0316600081815260038d016020908152604090912054920191612e5e91906101af908790613648565b815299546001600160a01b03166020909a019990995250969998505050505050505050565b604051806101c0016040528060008152602001600081526020016000815260200160008152602001600081526020016000815260200160008152602001600081526020016000815260200160008152602001600081526020016000815260200160008152602001336001600160a01b03168152509050919050565b919050565b6001600160a01b0381166000908152600c6020526040902054612f685760405162461bcd60e51b815260206004820152601a60248201527f557365722073686f756c64206465706f736974206265666f726500000000000060448201526064016106d7565b6001600160a01b039081166000908152600c60209081526040808320548352600b8252808320600f80548616855260028201808552838620869055815487168652600383018086528487208790558254881687526004840180875285882088905592548816875260058401808752858820889055601080548a168952928752858820889055825489168852908652848720879055815488168752918552838620869055549095168452939091528120819055600690910155565b6001600160a01b0381166130875760405162461bcd60e51b815260206004820152602660248201527f4f776e61626c653a206e6577206f776e657220697320746865207a65726f206160448201526564647265737360d01b60648201526084016106d7565b600080546040516001600160a01b03808516939216917f8be0079c531659141344cd1fd0a4f28419497f9722a3daafe3b4186f6b6457e091a3600080546001600160a01b0319166001600160a01b0392909216919091179055565b60008060008060006130f38661054f565b6060810151608082015190945092509050600080841561323657600061311e8661053f876064613541565b905080600560010154111561315657600654600754613142919061053f9084613541565b60055461314f9190613648565b925061319f565b60065461318290613168906064613635565b6008546006546131789085613635565b61053f9190613541565b6007546005546131929190613648565b61319c9190613648565b92505b6002548110156131d2576002546003546131be919061053f9084613541565b6001546131cb9190613648565b9150613211565b6002546131f4906131e4906064613635565b6004546002546131789085613635565b6003546001546132049190613648565b61320e9190613648565b91505b60155461321e9083613541565b91506015548361322e9190613541565b92505061325b565b6015546001546132469190613541565b60155460055491925061325891613541565b91505b97909650945050505050565b604051806101c001604052806000815260200160008152602001600081526020016000815260200160008152602001600081526020016000815260200160008152602001600081526020016000815260200160008152602001600081526020016000815260200160006001600160a01b031681525090565b80356001600160a01b0381168114612efe57600080fd5b6000806040838503121561330957600080fd5b613312836132df565b946020939093013593505050565b60006020828403121561333257600080fd5b6127a1826132df565b60a08101610549828480518252602081015160208301526040810151604083015260608101516060830152608081015160808301525050565b60006020828403121561338657600080fd5b5035919050565b805182526020810151602083015260408101516040830152606081015160608301526080810151608083015260a081015160a083015260c081015160c083015260e081015160e08301526101008082015181840152506101208082015181840152506101408082015181840152506101608082015181840152506101808082015181840152506101a0808201516116b4828501826001600160a01b03169052565b6020808252825182820181905260009190848201906040850190845b818110156134715761345d83855161338d565b928401926101c0929092019160010161344a565b50909695505050505050565b6101c08101610549828461338d565b600080600080608085870312156134a257600080fd5b5050823594602084013594506040840135936060013592509050565b6020808252825182820181905260009190848201906040850190845b818110156134715761351883855180518252602081015160208301526040810151604083015260608101516060830152608081015160808301525050565b9284019260a092909201916001016134da565b634e487b7160e01b600052601160045260246000fd5b80820281158282048414176105495761054961352b565b805169ffffffffffffffffffff81168114612efe57600080fd5b600080600080600060a0868803121561358a57600080fd5b61359386613558565b94506020860151935060408601519250606086015191506135b660808701613558565b90509295509295909350565b80820260008212600160ff1b841416156135de576135de61352b565b81810583148215176105495761054961352b565b60208082526023908201527f5573657220696e6465782073686f756c6420626520626967676572207468616e60408201526210181760e91b606082015260800190565b818103818111156105495761054961352b565b808201808211156105495761054961352b565b60006020828403121561366d57600080fd5b815180151581146127a157600080fd5b634e487b7160e01b600052604160045260246000fd5b634e487b7160e01b600052603260045260246000fd5b6000600182016136bb576136bb61352b565b5060010190565b6020808252601c908201527f6661696c656420746f2073656e642065746820696e7465726573742e00000000604082015260600190565b60008261371657634e487b7160e01b600052601260045260246000fd5b500490565b6020808252818101527f4f776e61626c653a2063616c6c6572206973206e6f7420746865206f776e657260408201526060019056fea2646970667358221220ffa4ace632adf5a863db4fca6a227fe75d45248cf4841a2c94dc1a0579c27abb64736f6c634300081200334f776e61626c653a2063616c6c6572206973206e6f7420746865206f776e6572",
  "linkReferences": {},
  "deployedLinkReferences": {}
}