{
  "_format": "hh-sol-artifact-1",
  "contractName": "Lending",
  "sourceName": "contracts/Lending.sol",
  "abi": [
    {
      "inputs": [
        {
          "internalType": "address",
          "name": "_rewardAddress",
          "type": "address"
        },
        {
          "internalType": "address",
          "name": "_ethAdddress",
          "type": "address"
        },
        {
          "internalType": "address",
          "name": "_usdtAddress",
          "type": "address"
        },
        {
          "internalType": "address",
          "name": "_poolAddress",
          "type": "address"
        }
      ],
      "stateMutability": "nonpayable",
      "type": "constructor"
    },
    {
      "anonymous": false,
      "inputs": [
        {
          "indexed": true,
          "internalType": "address",
          "name": "previousOwner",
          "type": "address"
        },
        {
          "indexed": true,
          "internalType": "address",
          "name": "newOwner",
          "type": "address"
        }
      ],
      "name": "OwnershipTransferred",
      "type": "event"
    },
    {
      "stateMutability": "payable",
      "type": "fallback"
    },
    {
      "inputs": [
        {
          "internalType": "address",
          "name": "_tokenAddress",
          "type": "address"
        },
        {
          "internalType": "uint256",
          "name": "_amount",
          "type": "uint256"
        }
      ],
      "name": "borrow",
      "outputs": [],
      "stateMutability": "nonpayable",
      "type": "function"
    },
    {
      "inputs": [
        {
          "internalType": "address",
          "name": "_tokenAddress",
          "type": "address"
        },
        {
          "internalType": "uint256",
          "name": "_amount",
          "type": "uint256"
        }
      ],
      "name": "calcTokenPrice",
      "outputs": [
        {
          "internalType": "uint256",
          "name": "",
          "type": "uint256"
        }
      ],
      "stateMutability": "view",
      "type": "function"
    },
    {
      "inputs": [
        {
          "internalType": "uint256",
          "name": "amount",
          "type": "uint256"
        }
      ],
      "name": "claimETH",
      "outputs": [],
      "stateMutability": "nonpayable",
      "type": "function"
    },
    {
      "inputs": [],
      "name": "claimPeko",
      "outputs": [],
      "stateMutability": "nonpayable",
      "type": "function"
    },
    {
      "inputs": [
        {
          "internalType": "address",
          "name": "tokenAddress",
          "type": "address"
        },
        {
          "internalType": "uint256",
          "name": "amount",
          "type": "uint256"
        }
      ],
      "name": "claimToken",
      "outputs": [],
      "stateMutability": "nonpayable",
      "type": "function"
    },
    {
      "inputs": [
        {
          "internalType": "address",
          "name": "_account",
          "type": "address"
        }
      ],
      "name": "collateral",
      "outputs": [
        {
          "internalType": "uint256",
          "name": "",
          "type": "uint256"
        }
      ],
      "stateMutability": "nonpayable",
      "type": "function"
    },
    {
      "inputs": [
        {
          "internalType": "address",
          "name": "_account",
          "type": "address"
        }
      ],
      "name": "debt",
      "outputs": [
        {
          "internalType": "uint256",
          "name": "",
          "type": "uint256"
        }
      ],
      "stateMutability": "nonpayable",
      "type": "function"
    },
    {
      "inputs": [
        {
          "internalType": "address",
          "name": "_tokenAddress",
          "type": "address"
        },
        {
          "internalType": "uint256",
          "name": "_amount",
          "type": "uint256"
        }
      ],
      "name": "deposit",
      "outputs": [],
      "stateMutability": "payable",
      "type": "function"
    },
    {
      "inputs": [],
      "name": "getEthValue",
      "outputs": [
        {
          "internalType": "uint256",
          "name": "",
          "type": "uint256"
        }
      ],
      "stateMutability": "view",
      "type": "function"
    },
    {
      "inputs": [],
      "name": "getLiquidationThreshhold",
      "outputs": [
        {
          "internalType": "uint256",
          "name": "",
          "type": "uint256"
        }
      ],
      "stateMutability": "view",
      "type": "function"
    },
    {
      "inputs": [],
      "name": "getMarketInfo",
      "outputs": [
        {
          "internalType": "uint256",
          "name": "",
          "type": "uint256"
        },
        {
          "internalType": "uint256",
          "name": "",
          "type": "uint256"
        }
      ],
      "stateMutability": "view",
      "type": "function"
    },
    {
      "inputs": [
        {
          "internalType": "address",
          "name": "_poolAddress",
          "type": "address"
        }
      ],
      "name": "getPoolInfo",
      "outputs": [
        {
          "components": [
            {
              "internalType": "uint256",
              "name": "LTV",
              "type": "uint256"
            },
            {
              "internalType": "uint256",
              "name": "depositApy",
              "type": "uint256"
            },
            {
              "internalType": "uint256",
              "name": "borrowApy",
              "type": "uint256"
            },
            {
              "internalType": "uint256",
              "name": "totalAmount",
              "type": "uint256"
            },
            {
              "internalType": "uint256",
              "name": "borrowAmount",
              "type": "uint256"
            }
          ],
          "internalType": "struct Lending.PoolInfo",
          "name": "",
          "type": "tuple"
        }
      ],
      "stateMutability": "view",
      "type": "function"
    },
    {
      "inputs": [
        {
          "internalType": "address",
          "name": "_account",
          "type": "address"
        }
      ],
      "name": "getUserInfo",
      "outputs": [
        {
          "components": [
            {
              "internalType": "uint256",
              "name": "ethDepositAmount",
              "type": "uint256"
            },
            {
              "internalType": "uint256",
              "name": "usdtDepositAmount",
              "type": "uint256"
            },
            {
              "internalType": "uint256",
              "name": "ethBorrowAmount",
              "type": "uint256"
            },
            {
              "internalType": "uint256",
              "name": "usdtBorrowAmount",
              "type": "uint256"
            },
            {
              "internalType": "uint256",
              "name": "ethInterestAmount",
              "type": "uint256"
            },
            {
              "internalType": "uint256",
              "name": "usdtInterestAmount",
              "type": "uint256"
            },
            {
              "internalType": "uint256",
              "name": "ethRewardAmount",
              "type": "uint256"
            },
            {
              "internalType": "uint256",
              "name": "usdtRewardAmount",
              "type": "uint256"
            },
            {
              "internalType": "uint256",
              "name": "pekoRewardAmount",
              "type": "uint256"
            },
            {
              "internalType": "uint256",
              "name": "ethDepositTotalInUsdtAmount",
              "type": "uint256"
            },
            {
              "internalType": "uint256",
              "name": "usdtDepositTotalAmount",
              "type": "uint256"
            },
            {
              "internalType": "uint256",
              "name": "ethBorrowTotalInUsdtAmount",
              "type": "uint256"
            },
            {
              "internalType": "uint256",
              "name": "usdtBorrowTotalAmount",
              "type": "uint256"
            },
            {
              "internalType": "address",
              "name": "accountAddress",
              "type": "address"
            }
          ],
          "internalType": "struct Lending.UserInfoForDisplay",
          "name": "",
          "type": "tuple"
        }
      ],
      "stateMutability": "view",
      "type": "function"
    },
    {
      "inputs": [
        {
          "internalType": "address",
          "name": "_account",
          "type": "address"
        }
      ],
      "name": "liquidate",
      "outputs": [],
      "stateMutability": "payable",
      "type": "function"
    },
    {
      "inputs": [],
      "name": "listPools",
      "outputs": [
        {
          "components": [
            {
              "internalType": "uint256",
              "name": "LTV",
              "type": "uint256"
            },
            {
              "internalType": "uint256",
              "name": "depositApy",
              "type": "uint256"
            },
            {
              "internalType": "uint256",
              "name": "borrowApy",
              "type": "uint256"
            },
            {
              "internalType": "uint256",
              "name": "totalAmount",
              "type": "uint256"
            },
            {
              "internalType": "uint256",
              "name": "borrowAmount",
              "type": "uint256"
            }
          ],
          "internalType": "struct Lending.PoolInfo[]",
          "name": "",
          "type": "tuple[]"
        }
      ],
      "stateMutability": "view",
      "type": "function"
    },
    {
      "inputs": [],
      "name": "listUserInfo",
      "outputs": [
        {
          "components": [
            {
              "internalType": "uint256",
              "name": "ethDepositAmount",
              "type": "uint256"
            },
            {
              "internalType": "uint256",
              "name": "usdtDepositAmount",
              "type": "uint256"
            },
            {
              "internalType": "uint256",
              "name": "ethBorrowAmount",
              "type": "uint256"
            },
            {
              "internalType": "uint256",
              "name": "usdtBorrowAmount",
              "type": "uint256"
            },
            {
              "internalType": "uint256",
              "name": "ethInterestAmount",
              "type": "uint256"
            },
            {
              "internalType": "uint256",
              "name": "usdtInterestAmount",
              "type": "uint256"
            },
            {
              "internalType": "uint256",
              "name": "ethRewardAmount",
              "type": "uint256"
            },
            {
              "internalType": "uint256",
              "name": "usdtRewardAmount",
              "type": "uint256"
            },
            {
              "internalType": "uint256",
              "name": "pekoRewardAmount",
              "type": "uint256"
            },
            {
              "internalType": "uint256",
              "name": "ethDepositTotalInUsdtAmount",
              "type": "uint256"
            },
            {
              "internalType": "uint256",
              "name": "usdtDepositTotalAmount",
              "type": "uint256"
            },
            {
              "internalType": "uint256",
              "name": "ethBorrowTotalInUsdtAmount",
              "type": "uint256"
            },
            {
              "internalType": "uint256",
              "name": "usdtBorrowTotalAmount",
              "type": "uint256"
            },
            {
              "internalType": "address",
              "name": "accountAddress",
              "type": "address"
            }
          ],
          "internalType": "struct Lending.UserInfoForDisplay[]",
          "name": "",
          "type": "tuple[]"
        }
      ],
      "stateMutability": "view",
      "type": "function"
    },
    {
      "inputs": [],
      "name": "owner",
      "outputs": [
        {
          "internalType": "address",
          "name": "",
          "type": "address"
        }
      ],
      "stateMutability": "view",
      "type": "function"
    },
    {
      "inputs": [],
      "name": "renounceOwnership",
      "outputs": [],
      "stateMutability": "nonpayable",
      "type": "function"
    },
    {
      "inputs": [
        {
          "internalType": "address",
          "name": "_tokenAddress",
          "type": "address"
        },
        {
          "internalType": "uint256",
          "name": "_amount",
          "type": "uint256"
        }
      ],
      "name": "repay",
      "outputs": [],
      "stateMutability": "payable",
      "type": "function"
    },
    {
      "inputs": [
        {
          "internalType": "uint256",
          "name": "_r0",
          "type": "uint256"
        },
        {
          "internalType": "uint256",
          "name": "_uOption",
          "type": "uint256"
        },
        {
          "internalType": "uint256",
          "name": "_rSlope1",
          "type": "uint256"
        },
        {
          "internalType": "uint256",
          "name": "_rSlope2",
          "type": "uint256"
        }
      ],
      "name": "setBorrowApy",
      "outputs": [],
      "stateMutability": "nonpayable",
      "type": "function"
    },
    {
      "inputs": [
        {
          "internalType": "uint256",
          "name": "limit",
          "type": "uint256"
        }
      ],
      "name": "setLiquidationThreshhold",
      "outputs": [],
      "stateMutability": "nonpayable",
      "type": "function"
    },
    {
      "inputs": [
        {
          "internalType": "address",
          "name": "_poolAddress",
          "type": "address"
        }
      ],
      "name": "setPoolAddress",
      "outputs": [],
      "stateMutability": "nonpayable",
      "type": "function"
    },
    {
      "inputs": [
        {
          "internalType": "uint256",
          "name": "_r0",
          "type": "uint256"
        },
        {
          "internalType": "uint256",
          "name": "_uOption",
          "type": "uint256"
        },
        {
          "internalType": "uint256",
          "name": "_rSlope1",
          "type": "uint256"
        },
        {
          "internalType": "uint256",
          "name": "_rSlope2",
          "type": "uint256"
        }
      ],
      "name": "setSupplyApy",
      "outputs": [],
      "stateMutability": "nonpayable",
      "type": "function"
    },
    {
      "inputs": [
        {
          "internalType": "address",
          "name": "newOwner",
          "type": "address"
        }
      ],
      "name": "transferOwnership",
      "outputs": [],
      "stateMutability": "nonpayable",
      "type": "function"
    },
    {
      "inputs": [
        {
          "internalType": "address",
          "name": "_tokenAddress",
          "type": "address"
        },
        {
          "internalType": "uint256",
          "name": "_amount",
          "type": "uint256"
        }
      ],
      "name": "withdraw",
      "outputs": [],
      "stateMutability": "nonpayable",
      "type": "function"
    },
    {
      "stateMutability": "payable",
      "type": "receive"
    }
  ],
  "bytecode": "0x60806040526003601155655af3107a400060125561013d601355601480546001600160a01b03191673245e775a46b1aadacbd48279cf0731cf186cf2b21790553480156200004c57600080fd5b5060405162003336380380620033368339810160408190526200006f9162000298565b600080546001600160a01b031916339081178255604051909182917f8be0079c531659141344cd1fd0a4f28419497f9722a3daafe3b4186f6b6457e0908290a350600d80546001600160a01b038087166001600160a01b031992831617909255600e80548684169083168117909155600f80548685169084161790556010805493851693909216929092179055620001109060506032606460008062000162565b600f5462000130906001600160a01b031660506032606460008062000162565b62000144606460466101f4610a28620001b9565b620001586032604661012c6107d06200021c565b5050505062000321565b6001600160a01b03861660009081526009602052604090208581556013546200018c9086620002f5565b6001820155601354620001a09085620002f5565b6002820155600381019290925560049091015550505050565b6000546001600160a01b03163314620002085760405162461bcd60e51b815260206004820181905260248201526000805160206200331683398151915260448201526064015b60405180910390fd5b600593909355600691909155600755600855565b6000546001600160a01b03163314620002675760405162461bcd60e51b81526020600482018190526024820152600080516020620033168339815191526044820152606401620001ff565b600193909355600291909155600355600455565b80516001600160a01b03811681146200029357600080fd5b919050565b60008060008060808587031215620002af57600080fd5b620002ba856200027b565b9350620002ca602086016200027b565b9250620002da604086016200027b565b9150620002ea606086016200027b565b905092959194509250565b80820281158282048414176200031b57634e487b7160e01b600052601160045260246000fd5b92915050565b612fe580620003316000396000f3fe60806040526004361061015b5760003560e01c8063660fd831116100c8578063a079722d11610084578063e9e15b4f11610061578063e9e15b4f146103f4578063f2fde38b14610414578063f3fef3a314610434578063fe96973a1461045457005b8063a079722d1461039f578063a5fdc5de146103bf578063e124787f146103df57005b8063660fd831146102eb578063687958621461030b578063715018a61461032d578063838afb1e146103425780638da5cb5b146103575780639b6c56ec1461037f57005b80632f865568116101175780632f8655681461023657806347e7ef24146102495780634b8a35291461025c5780635063e91a1461027c578063616571e71461029e5780636386c1c7146102be57005b806305cb9fde1461016457806306bfa938146101975780631698755f146101c45780631c5a859b146101e457806322867d78146101f957806323341a051461020c57005b3661016257005b005b34801561017057600080fd5b5061018461017f366004612b8c565b610474565b6040519081526020015b60405180910390f35b3480156101a357600080fd5b506101b76101b2366004612bb6565b6104cb565b60405161018e9190612bd1565b3480156101d057600080fd5b506101626101df366004612b8c565b61057d565b3480156101f057600080fd5b50610184610647565b610162610207366004612b8c565b6106d8565b34801561021857600080fd5b50610221610a0c565b6040805192835260208301919091520161018e565b610162610244366004612bb6565b610a93565b610162610257366004612b8c565b610f22565b34801561026857600080fd5b50610162610277366004612b8c565b611163565b34801561028857600080fd5b506102916114b0565b60405161018e9190612cab565b3480156102aa57600080fd5b506101626102b9366004612cfa565b61156c565b3480156102ca57600080fd5b506102de6102d9366004612bb6565b61159b565b60405161018e9190612d13565b3480156102f757600080fd5b50610162610306366004612d22565b6115ce565b34801561031757600080fd5b5061032061160c565b60405161018e9190612d54565b34801561033957600080fd5b506101626117b4565b34801561034e57600080fd5b50610162611828565b34801561036357600080fd5b506000546040516001600160a01b03909116815260200161018e565b34801561038b57600080fd5b5061018461039a366004612bb6565b6118f3565b3480156103ab57600080fd5b506101626103ba366004612d22565b6119a1565b3480156103cb57600080fd5b506101846103da366004612bb6565b6119df565b3480156103eb57600080fd5b50601154610184565b34801561040057600080fd5b5061016261040f366004612bb6565b611a78565b34801561042057600080fd5b5061016261042f366004612bb6565b611ac4565b34801561044057600080fd5b5061016261044f366004612b8c565b611afa565b34801561046057600080fd5b5061016261046f366004612cfa565b611e70565b600f546000906001600160a01b03908116908416036104945750806104c5565b600061049e610647565b90506104c16c0c9f2c9cd04674edea400000006104bb8584612dd7565b90611f38565b9150505b92915050565b6104fd6040518060a0016040528060008152602001600081526020016000815260200160008152602001600081525090565b6001600160a01b038216600090815260096020908152604091829020825160a0810184528154815260018201549281018390526002820154938101939093526003810154606084015260040154608083015260135461055c9190611f38565b6020820152601354604082015161057291611f38565b604082015292915050565b6000546001600160a01b031633146105b05760405162461bcd60e51b81526004016105a790612dee565b60405180910390fd5b816001600160a01b031663a9059cbb6105d16000546001600160a01b031690565b6040516001600160e01b031960e084901b1681526001600160a01b039091166004820152602481018490526044016020604051808303816000875af115801561061e573d6000803e3d6000fd5b505050506040513d601f19601f820116820180604052508101906106429190612e23565b505050565b600080601460009054906101000a90046001600160a01b03166001600160a01b031663feaf968c6040518163ffffffff1660e01b815260040160a060405180830381865afa15801561069d573d6000803e3d6000fd5b505050506040513d601f19601f820116820180604052508101906106c19190612e5f565b505050915050806402540be4006104c59190612eaf565b6106e133611f4b565b600081116107215760405162461bcd60e51b815260206004820152600d60248201526c063616e2774207265706179203609c1b60448201526064016105a7565b336000908152600c60205260409020548061074e5760405162461bcd60e51b81526004016105a790612edf565b6000818152600b602090815260408083206001600160a01b0387168452600581019092528220549091908410156107b4576001600160a01b0385166000908152600583016020526040812080548692906107a9908490612f22565b909155506108829050565b6001600160a01b038516600090815260038301602090815260408083205460058601909252909120546107e79190612f35565b84111561080f57506001600160a01b0384166000908152600382016020526040902054610837565b6001600160a01b03851660009081526005830160205260409020546108349085612f22565b90505b6001600160a01b038516600090815260038301602052604081208054839290610861908490612f22565b90915550506001600160a01b03851660009081526005830160205260408120555b600f546001600160a01b039081169086160361098657600f546040516323b872dd60e01b8152336004820152306024820152604481018690526001600160a01b03909116906323b872dd906064016020604051808303816000875af11580156108ef573d6000803e3d6000fd5b505050506040513d601f19601f820116820180604052508101906109139190612e23565b61094e5760405162461bcd60e51b815260206004820152600c60248201526b14995c185e4819985a5b195960a21b60448201526064016105a7565b600f546001600160a01b03166000908152600960205260408120600401805483929061097b908490612f22565b909155506109fc9050565b833410156109c95760405162461bcd60e51b815260206004820152601060248201526f283632b0b9b2903830bc9036b7b9329760811b60448201526064016105a7565b600e546001600160a01b0316600090815260096020526040812060040180548392906109f6908490612f22565b90915550505b610a0533611f4b565b5050505050565b600e546001600160a01b03908116600081815260096020526040808220600f549094168252812060038082015490850154929485949093610a4d9190610474565b610a579190612f35565b8160040154610a7f600e60009054906101000a90046001600160a01b03168560040154610474565b610a899190612f35565b9350935050509091565b6001600160a01b0381166000908152600c602052604090205480610ac95760405162461bcd60e51b81526004016105a790612edf565b6000818152600b6020526040812090610ae1846119df565b90506000610aee856118f3565b90506000610b1960115484610b039190612dd7565b610b0e846064612dd7565b6104bb906064612dd7565b905060648111610b6b5760405162461bcd60e51b815260206004820152601f60248201527f54686973206973206e6f7420656e61626c6564206c69717569646174696f6e0060448201526064016105a7565b600e546001600160a01b0316600090815260048501602090815260408083205460028801909252822054610b9f9190612f35565b600f546001600160a01b0316600090815260048701602090815260408083205460028a019092528220549293509091610bd89190612f35565b600e546001600160a01b0316600090815260058801602090815260408083205460038b019092528220549293509091610c119190612f35565b600f546001600160a01b0316600090815260058901602090815260408083205460038c019092528220549293509091610c4a9190612f35565b9050610c5882612710611f38565b610c649061270f612dd7565b3411610ca35760405162461bcd60e51b815260206004820152600e60248201526d09cdee840cadcdeeaced040cae8d60931b60448201526064016105a7565b600f546001600160a01b03166323b872dd3330610cc285612710611f38565b610cce9061270f612dd7565b6040516001600160e01b031960e086901b1681526001600160a01b03938416600482015292909116602483015260448201526064016020604051808303816000875af1158015610d22573d6000803e3d6000fd5b505050506040513d601f19601f82011682018060405250810190610d469190612e23565b610d835760405162461bcd60e51b815260206004820152600e60248201526d19195c1bdcda5d0819985a5b195960921b60448201526064016105a7565b604051600090339086908381818185875af1925050503d8060008114610dc5576040519150601f19603f3d011682016040523d82523d6000602084013e610dca565b606091505b5050905080610e115760405162461bcd60e51b81526020600482015260136024820152723330b4b632b2103a379039b2b7321032ba341760691b60448201526064016105a7565b600f5460405163a9059cbb60e01b8152336004820152602481018690526001600160a01b039091169063a9059cbb906044016020604051808303816000875af1158015610e62573d6000803e3d6000fd5b505050506040513d601f19601f82011682018060405250810190610e869190612e23565b50600d5460068a015460405163a9059cbb60e01b815233600482015260248101919091526001600160a01b039091169063a9059cbb906044016020604051808303816000875af1158015610ede573d6000803e3d6000fd5b505050506040513d601f19601f82011682018060405250810190610f029190612e23565b50610f0c8b6120d5565b610f1533611f4b565b5050505050505050505050565b60008111610f645760405162461bcd60e51b815260206004820152600f60248201526e063616e2774206465706f736974203608c1b60448201526064016105a7565b336000908152600c60205260408120548103610fae576001600a6000828254610f8d9190612f35565b9091555050600a54336000908152600c602052604090208190559050610fc9565b50336000818152600c602052604090205490610fc990611f4b565b6000818152600b6020908152604080832080546001600160a01b031916331781554260018201556001600160a01b0387168452600281019092528220805491928592611016908490612f35565b9091555050600f546001600160a01b039081169085160361112157600f546040516323b872dd60e01b8152336004820152306024820152604481018590526001600160a01b03909116906323b872dd906064016020604051808303816000875af1158015611088573d6000803e3d6000fd5b505050506040513d601f19601f820116820180604052508101906110ac9190612e23565b6110e95760405162461bcd60e51b815260206004820152600e60248201526d19195c1bdcda5d0819985a5b195960921b60448201526064016105a7565b600f546001600160a01b031660009081526009602052604081206003018054859290611116908490612f35565b909155506111549050565b600e546001600160a01b03166000908152600960205260408120600301805485929061114e908490612f35565b90915550505b61115d33611f4b565b50505050565b600081116111a45760405162461bcd60e51b815260206004820152600e60248201526d063616e277420626f72726f7720360941b60448201526064016105a7565b336000908152600c6020526040902054806111d15760405162461bcd60e51b81526004016105a790612edf565b6000818152600b60205260408120906111e9336119df565b905060006111f6336118f3565b9050808210156112485760405162461bcd60e51b815260206004820152601e60248201527f596f7520646f6e6f74206861766520616e7920636f6c6c61746572616c2e000060448201526064016105a7565b60006112548787610474565b6001600160a01b03881660009081526009602052604090205490915061127a8383612f35565b60646112868387612dd7565b6112909190612f48565b116112d45760405162461bcd60e51b8152602060048201526014602482015273283632b0b9b2903232b837b9b4ba1036b7b9329760611b60448201526064016105a7565b6001600160a01b0388166000908152600386016020526040812080548992906112fe908490612f35565b9091555061130d905033611f4b565b600e546001600160a01b03908116908916036113f457604051600090339089908381818185875af1925050503d8060008114611365576040519150601f19603f3d011682016040523d82523d6000602084013e61136a565b606091505b50509050806113bb5760405162461bcd60e51b815260206004820152601c60248201527f6661696c656420746f2073656e642065746820696e7465726573742e0000000060448201526064016105a7565b600e546001600160a01b0316600090815260096020526040812060040180548a92906113e8908490612f35565b9091555061149d915050565b600f5460405163a9059cbb60e01b8152336004820152602481018990526001600160a01b039091169063a9059cbb906044016020604051808303816000875af1158015611445573d6000803e3d6000fd5b505050506040513d601f19601f820116820180604052508101906114699190612e23565b50600f546001600160a01b031660009081526009602052604081206004018054899290611497908490612f35565b90915550505b6114a633611f4b565b5050505050505050565b60606000600a5467ffffffffffffffff8111156114cf576114cf612f6a565b60405190808252806020026020018201604052801561150857816020015b6114f5612afd565b8152602001906001900390816114ed5790505b50905060015b600a5461151c906001612f35565b8110156115665761152c81612304565b82611538600184612f22565b8151811061154857611548612f80565b6020026020010181905250808061155e90612f96565b91505061150e565b50919050565b6000546001600160a01b031633146115965760405162461bcd60e51b81526004016105a790612dee565b601155565b6115a3612afd565b6001600160a01b0382166000908152600c6020526040812054906115c682612304565b949350505050565b6000546001600160a01b031633146115f85760405162461bcd60e51b81526004016105a790612dee565b600593909355600691909155600755600855565b600e546001600160a01b0316600090815260096020908152604091829020825160a0810184528154815260018201549281018390526002820154938101939093526003810154606084810191909152600490910154608084015260135490929161167591611f38565b6020820152601354604082015161168b91611f38565b604080830191909152600f546001600160a01b031660009081526009602090815290829020825160a081018452815481526001820154928101839052600282015493810193909352600381015460608401526004015460808301526013546116f39190611f38565b6020820152601354604082015161170991611f38565b6040828101919091528051600280825260608201909252600091816020015b61175a6040518060a0016040528060008152602001600081526020016000815260200160008152602001600081525090565b815260200190600190039081611728579050509050828160008151811061178357611783612f80565b602002602001018190525081816001815181106117a2576117a2612f80565b60209081029190910101529392505050565b6000546001600160a01b031633146117de5760405162461bcd60e51b81526004016105a790612dee565b600080546040516001600160a01b03909116907f8be0079c531659141344cd1fd0a4f28419497f9722a3daafe3b4186f6b6457e0908390a3600080546001600160a01b0319169055565b336000908152600c6020526040902054806118555760405162461bcd60e51b81526004016105a790612edf565b6000818152600b6020526040902061186c33611f4b565b600d54600682015460405163a9059cbb60e01b815233600482015260248101919091526001600160a01b039091169063a9059cbb906044016020604051808303816000875af11580156118c3573d6000803e3d6000fd5b505050506040513d601f19601f820116820180604052508101906118e79190612e23565b50600060069091015550565b60006118fe82611f4b565b6001600160a01b038083166000908152600c60209081526040808320548352600b8252808320600e5490941680845260038501835281842054600586019093529083205461194f9261017f91612f35565b600f546001600160a01b0316600081815260038501602090815260408083205460058801909252822054939450909261198c929161017f91612f35565b90506119988183612f35565b95945050505050565b6000546001600160a01b031633146119cb5760405162461bcd60e51b81526004016105a790612dee565b600193909355600291909155600355600455565b60006119ea82611f4b565b6001600160a01b038083166000908152600c60209081526040808320548352600b8252808320600e54909416808452600285018352818420546004860190935290832054611a3b9261017f91612f35565b600f546001600160a01b0316600081815260028501602090815260408083205460048801909252822054939450909261198c929161017f91612f35565b6000546001600160a01b03163314611aa25760405162461bcd60e51b81526004016105a790612dee565b601080546001600160a01b0319166001600160a01b0392909216919091179055565b6000546001600160a01b03163314611aee5760405162461bcd60e51b81526004016105a790612dee565b611af7816128b8565b50565b60008111611b3d5760405162461bcd60e51b815260206004820152601060248201526f063616e277420776974686472617720360841b60448201526064016105a7565b336000908152600c602052604090205480611b6a5760405162461bcd60e51b81526004016105a790612edf565b6000818152600b60205260409020611b8133611f4b565b6000611b8c336119df565b90506000611b99336118f3565b9050611ba58686610474565b611baf9082612f35565b6001600160a01b038716600090815260096020526040902054606490611bd59085612dd7565b611bdf9190612f48565b11611c435760405162461bcd60e51b815260206004820152602e60248201527f5769746864726177206661696c65642e596f7520646f6e6f742068617665206160448201526d373c9031b7b63630ba32b930b61760911b60648201526084016105a7565b6001600160a01b0386166000908152600484016020526040902054851015611c9a576001600160a01b038616600090815260048401602052604081208054879290611c8f908490612f22565b90915550611d349050565b6001600160a01b0386166000908152600484016020526040812054611cbf9087612f22565b6001600160a01b0388166000908152600286016020526040812080549293508392909190611cee908490612f22565b90915550506001600160a01b03871660009081526004850160209081526040808320839055600990915281206003018054839290611d2d908490612f22565b9091555050505b600e546001600160a01b0390811690871603611de857604051600090339087908381818185875af1925050503d8060008114611d8c576040519150601f19603f3d011682016040523d82523d6000602084013e611d91565b606091505b5050905080611de25760405162461bcd60e51b815260206004820152601c60248201527f6661696c656420746f2073656e642065746820696e7465726573742e0000000060448201526064016105a7565b50611e5f565b600f5460405163a9059cbb60e01b8152336004820152602481018790526001600160a01b039091169063a9059cbb906044016020604051808303816000875af1158015611e39573d6000803e3d6000fd5b505050506040513d601f19601f82011682018060405250810190611e5d9190612e23565b505b611e6833611f4b565b505050505050565b6000546001600160a01b03163314611e9a5760405162461bcd60e51b81526004016105a790612dee565b600080546040516001600160a01b039091169083908381818185875af1925050503d8060008114611ee7576040519150601f19603f3d011682016040523d82523d6000602084013e611eec565b606091505b5050905080611f345760405162461bcd60e51b81526020600482015260146024820152732330b4b632b2103a379039b2b7321022ba3432b960611b60448201526064016105a7565b5050565b6000611f448284612f48565b9392505050565b6001600160a01b0381166000908152600c6020526040902054611fb05760405162461bcd60e51b815260206004820152601a60248201527f557365722073686f756c64206465706f736974206265666f726500000000000060448201526064016105a7565b6001600160a01b0381166000818152600c6020818152604080842054808552600b8352908420948452919052611fe590612304565b610100810151600684015560c0810151600e80546001600160a01b039081166000908152600487016020818152604080842096909655608087015185548516845260058a018083528785209190915560e0880151600f8054871686529383528785205560a0880151925485168452905293902092909255426001860155549192506120709116612978565b600e546001600160a01b0390811660009081526009602052604090206002810192909255600190910191909155600f546120aa9116612978565b600f546001600160a01b03166000908152600960205260409020600281019190915560010155505050565b6001600160a01b0381166000908152600c602052604090205461213a5760405162461bcd60e51b815260206004820152601a60248201527f557365722073686f756c64206465706f736974206265666f726500000000000060448201526064016105a7565b6001600160a01b038082166000908152600c60209081526040808320548352600b8252808320600e549094168352600284018252808320546009909252822060030180549192909161218d908490612f22565b9091555050600e546001600160a01b03166000908152600382016020908152604080832054600990925282206004018054919290916121cd908490612f22565b9091555050600e80546001600160a01b039081166000908152600284016020818152604080842084905585548516845260038088018352818520859055865486168552600488018352818520859055955485168452600587018252808420849055600f549094168352908152828220546009909152918120909201805491929091612259908490612f22565b9091555050600f546001600160a01b0316600090815260038201602090815260408083205460099092528220600401805491929091612299908490612f22565b9091555050600f80546001600160a01b0390811660009081526002840160209081526040808320839055845484168352600386018252808320839055845484168352600486018252808320839055935490921681526005840190915290812081905560069091015550565b61230c612afd565b8115612838576000828152600b60205260408120600181015490916123318242612f22565b600e546012546001600160a01b0390911660008181526009602090815260408083206001015460028a01909252822054949550909361238b939186916123779190612dd7565b6123819190612dd7565b61017f9190612f48565b846006015461239a9190612f35565b601254600e546001600160a01b031660009081526009602090815260408083206001015460028a01909252822054939450909285916123d891612dd7565b6123e29190612dd7565b6123ec9190612f48565b600e546001600160a01b031660009081526004870160205260409020546124139190612f35565b601254600e546001600160a01b031660009081526009602090815260408083206002015460038b019092528220549394509092869161245191612dd7565b61245b9190612dd7565b6124659190612f48565b600e546001600160a01b0316600090815260058801602052604090205461248c9190612f35565b600f546012546001600160a01b0390911660008181526009602090815260408083206001015460028d01909252909120549394506124d293919291889161237791612dd7565b86600601546124e19190612f35565b6124eb9084612f35565b601254600f546001600160a01b031660009081526009602090815260408083206001015460028c019092528220549396509092879161252991612dd7565b6125339190612dd7565b61253d9190612f48565b600f546001600160a01b031660009081526004890160205260409020546125649190612f35565b601254600f546001600160a01b031660009081526009602090815260408083206002015460038d01909252822054939450909288916125a291612dd7565b6125ac9190612dd7565b6125b69190612f48565b600f546001600160a01b0316600090815260058a0160205260409020546125dd9190612f35565b90506000604051806101c001604052808a6002016000600e60009054906101000a90046001600160a01b03166001600160a01b03166001600160a01b031681526020019081526020016000205481526020018a6002016000600f60009054906101000a90046001600160a01b03166001600160a01b03166001600160a01b031681526020019081526020016000205481526020018a6003016000600e60009054906101000a90046001600160a01b03166001600160a01b03166001600160a01b031681526020019081526020016000205481526020018a6003016000600f60009054906101000a90046001600160a01b03166001600160a01b03166001600160a01b03168152602001908152602001600020548152602001858152602001838152602001868152602001848152602001878152602001612774600e60009054906101000a90046001600160a01b0316888d6002016000600e60009054906101000a90046001600160a01b03166001600160a01b03166001600160a01b031681526020019081526020016000205461017f9190612f35565b8152600f546001600160a01b0316600081815260028d0160209081526040909120549201916127a9919061017f908890612f35565b8152600e546001600160a01b0316600081815260038d0160209081526040909120549201916127de919061017f908990612f35565b8152600f546001600160a01b0316600081815260038d016020908152604090912054920191612813919061017f908790612f35565b815299546001600160a01b03166020909a019990995250969998505050505050505050565b604051806101c0016040528060008152602001600081526020016000815260200160008152602001600081526020016000815260200160008152602001600081526020016000815260200160008152602001600081526020016000815260200160008152602001336001600160a01b03168152509050919050565b919050565b6001600160a01b03811661291d5760405162461bcd60e51b815260206004820152602660248201527f4f776e61626c653a206e6577206f776e657220697320746865207a65726f206160448201526564647265737360d01b60648201526084016105a7565b600080546040516001600160a01b03808516939216917f8be0079c531659141344cd1fd0a4f28419497f9722a3daafe3b4186f6b6457e091a3600080546001600160a01b0319166001600160a01b0392909216919091179055565b6000806000806000612989866104cb565b60608101516080820151909450925090506000808415612acc5760006129b4866104bb876064612dd7565b90508060056001015411156129ec576006546007546129d891906104bb9084612dd7565b6005546129e59190612f35565b9250612a35565b600654612a18906129fe906064612f22565b600854600654612a0e9085612f22565b6104bb9190612dd7565b600754600554612a289190612f35565b612a329190612f35565b92505b600254811015612a6857600254600354612a5491906104bb9084612dd7565b600154612a619190612f35565b9150612aa7565b600254612a8a90612a7a906064612f22565b600454600254612a0e9085612f22565b600354600154612a9a9190612f35565b612aa49190612f35565b91505b601354612ab49083612dd7565b915060135483612ac49190612dd7565b925050612af1565b601354600154612adc9190612dd7565b601354600554919250612aee91612dd7565b91505b97909650945050505050565b604051806101c001604052806000815260200160008152602001600081526020016000815260200160008152602001600081526020016000815260200160008152602001600081526020016000815260200160008152602001600081526020016000815260200160006001600160a01b031681525090565b80356001600160a01b03811681146128b357600080fd5b60008060408385031215612b9f57600080fd5b612ba883612b75565b946020939093013593505050565b600060208284031215612bc857600080fd5b611f4482612b75565b60a081016104c5828480518252602081015160208301526040810151604083015260608101516060830152608081015160808301525050565b805182526020810151602083015260408101516040830152606081015160608301526080810151608083015260a081015160a083015260c081015160c083015260e081015160e08301526101008082015181840152506101208082015181840152506101408082015181840152506101608082015181840152506101808082015181840152506101a08082015161115d828501826001600160a01b03169052565b6020808252825182820181905260009190848201906040850190845b81811015612cee57612cda838551612c0a565b928401926101c09290920191600101612cc7565b50909695505050505050565b600060208284031215612d0c57600080fd5b5035919050565b6101c081016104c58284612c0a565b60008060008060808587031215612d3857600080fd5b5050823594602084013594506040840135936060013592509050565b6020808252825182820181905260009190848201906040850190845b81811015612cee57612dae83855180518252602081015160208301526040810151604083015260608101516060830152608081015160808301525050565b9284019260a09290920191600101612d70565b634e487b7160e01b600052601160045260246000fd5b80820281158282048414176104c5576104c5612dc1565b6020808252818101527f4f776e61626c653a2063616c6c6572206973206e6f7420746865206f776e6572604082015260600190565b600060208284031215612e3557600080fd5b81518015158114611f4457600080fd5b805169ffffffffffffffffffff811681146128b357600080fd5b600080600080600060a08688031215612e7757600080fd5b612e8086612e45565b9450602086015193506040860151925060608601519150612ea360808701612e45565b90509295509295909350565b80820260008212600160ff1b84141615612ecb57612ecb612dc1565b81810583148215176104c5576104c5612dc1565b60208082526023908201527f5573657220696e6465782073686f756c6420626520626967676572207468616e60408201526210181760e91b606082015260800190565b818103818111156104c5576104c5612dc1565b808201808211156104c5576104c5612dc1565b600082612f6557634e487b7160e01b600052601260045260246000fd5b500490565b634e487b7160e01b600052604160045260246000fd5b634e487b7160e01b600052603260045260246000fd5b600060018201612fa857612fa8612dc1565b506001019056fea26469706673582212203106ac81e799c46d438afe596bdcb9a933106e7f568c3ae6b9c6bdd2449f5ff064736f6c634300081200334f776e61626c653a2063616c6c6572206973206e6f7420746865206f776e6572",
  "linkReferences": {},
  "deployedLinkReferences": {}
}