{
  "_format": "hh-sol-artifact-1",
  "contractName": "Lending",
  "sourceName": "contracts/Lending.sol",
  "abi": [
    {
      "inputs": [
        {
          "internalType": "address",
          "name": "_rewardAddress",
          "type": "address"
        },
        {
          "internalType": "address",
          "name": "_ethAdddress",
          "type": "address"
        },
        {
          "internalType": "address",
          "name": "_usdtAddress",
          "type": "address"
        }
      ],
      "stateMutability": "nonpayable",
      "type": "constructor"
    },
    {
      "anonymous": false,
      "inputs": [
        {
          "indexed": true,
          "internalType": "address",
          "name": "previousOwner",
          "type": "address"
        },
        {
          "indexed": true,
          "internalType": "address",
          "name": "newOwner",
          "type": "address"
        }
      ],
      "name": "OwnershipTransferred",
      "type": "event"
    },
    {
      "stateMutability": "payable",
      "type": "fallback"
    },
    {
      "inputs": [
        {
          "internalType": "address",
          "name": "_tokenAddress",
          "type": "address"
        },
        {
          "internalType": "uint256",
          "name": "_amount",
          "type": "uint256"
        }
      ],
      "name": "borrow",
      "outputs": [],
      "stateMutability": "nonpayable",
      "type": "function"
    },
    {
      "inputs": [
        {
          "internalType": "address",
          "name": "_tokenAddress",
          "type": "address"
        },
        {
          "internalType": "uint256",
          "name": "_amount",
          "type": "uint256"
        }
      ],
      "name": "calcTokenPrice",
      "outputs": [
        {
          "internalType": "uint256",
          "name": "",
          "type": "uint256"
        }
      ],
      "stateMutability": "view",
      "type": "function"
    },
    {
      "inputs": [],
      "name": "claimPeko",
      "outputs": [],
      "stateMutability": "nonpayable",
      "type": "function"
    },
    {
      "inputs": [
        {
          "internalType": "address",
          "name": "_tokenAddress",
          "type": "address"
        },
        {
          "internalType": "uint256",
          "name": "_amount",
          "type": "uint256"
        }
      ],
      "name": "claimProfit",
      "outputs": [],
      "stateMutability": "nonpayable",
      "type": "function"
    },
    {
      "inputs": [
        {
          "internalType": "uint256",
          "name": "amount",
          "type": "uint256"
        }
      ],
      "name": "claimRewardToken",
      "outputs": [],
      "stateMutability": "nonpayable",
      "type": "function"
    },
    {
      "inputs": [
        {
          "internalType": "address",
          "name": "_account",
          "type": "address"
        }
      ],
      "name": "collateral",
      "outputs": [
        {
          "internalType": "uint256",
          "name": "",
          "type": "uint256"
        }
      ],
      "stateMutability": "nonpayable",
      "type": "function"
    },
    {
      "inputs": [
        {
          "internalType": "address",
          "name": "_account",
          "type": "address"
        }
      ],
      "name": "debt",
      "outputs": [
        {
          "internalType": "uint256",
          "name": "",
          "type": "uint256"
        }
      ],
      "stateMutability": "nonpayable",
      "type": "function"
    },
    {
      "inputs": [
        {
          "internalType": "address",
          "name": "_tokenAddress",
          "type": "address"
        },
        {
          "internalType": "uint256",
          "name": "_amount",
          "type": "uint256"
        }
      ],
      "name": "deposit",
      "outputs": [],
      "stateMutability": "payable",
      "type": "function"
    },
    {
      "inputs": [],
      "name": "getEthValue",
      "outputs": [
        {
          "internalType": "uint256",
          "name": "",
          "type": "uint256"
        }
      ],
      "stateMutability": "view",
      "type": "function"
    },
    {
      "inputs": [],
      "name": "getLiquidationThreshhold",
      "outputs": [
        {
          "internalType": "uint256",
          "name": "",
          "type": "uint256"
        }
      ],
      "stateMutability": "view",
      "type": "function"
    },
    {
      "inputs": [],
      "name": "getMarketInfo",
      "outputs": [
        {
          "internalType": "uint256",
          "name": "",
          "type": "uint256"
        },
        {
          "internalType": "uint256",
          "name": "",
          "type": "uint256"
        }
      ],
      "stateMutability": "view",
      "type": "function"
    },
    {
      "inputs": [],
      "name": "getMemberNumber",
      "outputs": [
        {
          "internalType": "uint256",
          "name": "",
          "type": "uint256"
        }
      ],
      "stateMutability": "view",
      "type": "function"
    },
    {
      "inputs": [
        {
          "internalType": "address",
          "name": "_poolAddress",
          "type": "address"
        }
      ],
      "name": "getPoolInfo",
      "outputs": [
        {
          "components": [
            {
              "internalType": "uint256",
              "name": "LTV",
              "type": "uint256"
            },
            {
              "internalType": "uint256",
              "name": "depositApy",
              "type": "uint256"
            },
            {
              "internalType": "uint256",
              "name": "borrowApy",
              "type": "uint256"
            },
            {
              "internalType": "uint256",
              "name": "totalAmount",
              "type": "uint256"
            },
            {
              "internalType": "uint256",
              "name": "borrowAmount",
              "type": "uint256"
            }
          ],
          "internalType": "struct Lending.PoolInfo",
          "name": "",
          "type": "tuple"
        }
      ],
      "stateMutability": "view",
      "type": "function"
    },
    {
      "inputs": [
        {
          "internalType": "address",
          "name": "_tokenAddress",
          "type": "address"
        }
      ],
      "name": "getProfit",
      "outputs": [
        {
          "internalType": "uint256",
          "name": "",
          "type": "uint256"
        }
      ],
      "stateMutability": "view",
      "type": "function"
    },
    {
      "inputs": [
        {
          "internalType": "address",
          "name": "_account",
          "type": "address"
        }
      ],
      "name": "getUserInfo",
      "outputs": [
        {
          "components": [
            {
              "internalType": "uint256",
              "name": "ethDepositAmount",
              "type": "uint256"
            },
            {
              "internalType": "uint256",
              "name": "usdtDepositAmount",
              "type": "uint256"
            },
            {
              "internalType": "uint256",
              "name": "ethBorrowAmount",
              "type": "uint256"
            },
            {
              "internalType": "uint256",
              "name": "usdtBorrowAmount",
              "type": "uint256"
            },
            {
              "internalType": "uint256",
              "name": "ethInterestAmount",
              "type": "uint256"
            },
            {
              "internalType": "uint256",
              "name": "usdtInterestAmount",
              "type": "uint256"
            },
            {
              "internalType": "uint256",
              "name": "ethRewardAmount",
              "type": "uint256"
            },
            {
              "internalType": "uint256",
              "name": "usdtRewardAmount",
              "type": "uint256"
            },
            {
              "internalType": "uint256",
              "name": "pekoRewardAmount",
              "type": "uint256"
            },
            {
              "internalType": "uint256",
              "name": "ethDepositTotalInUsdtAmount",
              "type": "uint256"
            },
            {
              "internalType": "uint256",
              "name": "usdtDepositTotalAmount",
              "type": "uint256"
            },
            {
              "internalType": "uint256",
              "name": "ethBorrowTotalInUsdtAmount",
              "type": "uint256"
            },
            {
              "internalType": "uint256",
              "name": "usdtBorrowTotalAmount",
              "type": "uint256"
            },
            {
              "internalType": "address",
              "name": "accountAddress",
              "type": "address"
            }
          ],
          "internalType": "struct Lending.UserInfoForDisplay",
          "name": "",
          "type": "tuple"
        }
      ],
      "stateMutability": "view",
      "type": "function"
    },
    {
      "inputs": [
        {
          "internalType": "address",
          "name": "_account",
          "type": "address"
        }
      ],
      "name": "liquidate",
      "outputs": [],
      "stateMutability": "payable",
      "type": "function"
    },
    {
      "inputs": [],
      "name": "listPools",
      "outputs": [
        {
          "components": [
            {
              "internalType": "uint256",
              "name": "LTV",
              "type": "uint256"
            },
            {
              "internalType": "uint256",
              "name": "depositApy",
              "type": "uint256"
            },
            {
              "internalType": "uint256",
              "name": "borrowApy",
              "type": "uint256"
            },
            {
              "internalType": "uint256",
              "name": "totalAmount",
              "type": "uint256"
            },
            {
              "internalType": "uint256",
              "name": "borrowAmount",
              "type": "uint256"
            }
          ],
          "internalType": "struct Lending.PoolInfo[]",
          "name": "",
          "type": "tuple[]"
        }
      ],
      "stateMutability": "view",
      "type": "function"
    },
    {
      "inputs": [
        {
          "internalType": "uint256",
          "name": "page",
          "type": "uint256"
        }
      ],
      "name": "listUserInfo",
      "outputs": [
        {
          "components": [
            {
              "internalType": "uint256",
              "name": "ethDepositAmount",
              "type": "uint256"
            },
            {
              "internalType": "uint256",
              "name": "usdtDepositAmount",
              "type": "uint256"
            },
            {
              "internalType": "uint256",
              "name": "ethBorrowAmount",
              "type": "uint256"
            },
            {
              "internalType": "uint256",
              "name": "usdtBorrowAmount",
              "type": "uint256"
            },
            {
              "internalType": "uint256",
              "name": "ethInterestAmount",
              "type": "uint256"
            },
            {
              "internalType": "uint256",
              "name": "usdtInterestAmount",
              "type": "uint256"
            },
            {
              "internalType": "uint256",
              "name": "ethRewardAmount",
              "type": "uint256"
            },
            {
              "internalType": "uint256",
              "name": "usdtRewardAmount",
              "type": "uint256"
            },
            {
              "internalType": "uint256",
              "name": "pekoRewardAmount",
              "type": "uint256"
            },
            {
              "internalType": "uint256",
              "name": "ethDepositTotalInUsdtAmount",
              "type": "uint256"
            },
            {
              "internalType": "uint256",
              "name": "usdtDepositTotalAmount",
              "type": "uint256"
            },
            {
              "internalType": "uint256",
              "name": "ethBorrowTotalInUsdtAmount",
              "type": "uint256"
            },
            {
              "internalType": "uint256",
              "name": "usdtBorrowTotalAmount",
              "type": "uint256"
            },
            {
              "internalType": "address",
              "name": "accountAddress",
              "type": "address"
            }
          ],
          "internalType": "struct Lending.UserInfoForDisplay[]",
          "name": "",
          "type": "tuple[]"
        }
      ],
      "stateMutability": "view",
      "type": "function"
    },
    {
      "inputs": [],
      "name": "owner",
      "outputs": [
        {
          "internalType": "address",
          "name": "",
          "type": "address"
        }
      ],
      "stateMutability": "view",
      "type": "function"
    },
    {
      "inputs": [],
      "name": "renounceOwnership",
      "outputs": [],
      "stateMutability": "nonpayable",
      "type": "function"
    },
    {
      "inputs": [
        {
          "internalType": "address",
          "name": "_tokenAddress",
          "type": "address"
        },
        {
          "internalType": "uint256",
          "name": "_amount",
          "type": "uint256"
        }
      ],
      "name": "repay",
      "outputs": [],
      "stateMutability": "payable",
      "type": "function"
    },
    {
      "inputs": [
        {
          "internalType": "uint256",
          "name": "_r0",
          "type": "uint256"
        },
        {
          "internalType": "uint256",
          "name": "_uOption",
          "type": "uint256"
        },
        {
          "internalType": "uint256",
          "name": "_rSlope1",
          "type": "uint256"
        },
        {
          "internalType": "uint256",
          "name": "_rSlope2",
          "type": "uint256"
        }
      ],
      "name": "setBorrowApy",
      "outputs": [],
      "stateMutability": "nonpayable",
      "type": "function"
    },
    {
      "inputs": [
        {
          "internalType": "uint256",
          "name": "limit",
          "type": "uint256"
        }
      ],
      "name": "setLiquidationThreshhold",
      "outputs": [],
      "stateMutability": "nonpayable",
      "type": "function"
    },
    {
      "inputs": [
        {
          "internalType": "uint256",
          "name": "_price",
          "type": "uint256"
        }
      ],
      "name": "setPekoPrice",
      "outputs": [],
      "stateMutability": "nonpayable",
      "type": "function"
    },
    {
      "inputs": [
        {
          "internalType": "uint256",
          "name": "_r0",
          "type": "uint256"
        },
        {
          "internalType": "uint256",
          "name": "_uOption",
          "type": "uint256"
        },
        {
          "internalType": "uint256",
          "name": "_rSlope1",
          "type": "uint256"
        },
        {
          "internalType": "uint256",
          "name": "_rSlope2",
          "type": "uint256"
        }
      ],
      "name": "setSupplyApy",
      "outputs": [],
      "stateMutability": "nonpayable",
      "type": "function"
    },
    {
      "inputs": [
        {
          "internalType": "address",
          "name": "newOwner",
          "type": "address"
        }
      ],
      "name": "transferOwnership",
      "outputs": [],
      "stateMutability": "nonpayable",
      "type": "function"
    },
    {
      "inputs": [
        {
          "internalType": "address",
          "name": "_tokenAddress",
          "type": "address"
        },
        {
          "internalType": "uint256",
          "name": "_amount",
          "type": "uint256"
        }
      ],
      "name": "withdraw",
      "outputs": [],
      "stateMutability": "nonpayable",
      "type": "function"
    },
    {
      "stateMutability": "payable",
      "type": "receive"
    }
  ],
  "bytecode": "0x608060405261271060115560326012556001601355655af3107a400060145561013d601555601680546001600160a01b03191673245e775a46b1aadacbd48279cf0731cf186cf2b21790553480156200005757600080fd5b5060405162003a2838038062003a288339810160408190526200007a9162000293565b600080546001600160a01b031916339081178255604051909182917f8be0079c531659141344cd1fd0a4f28419497f9722a3daafe3b4186f6b6457e0908290a350600e80546001600160a01b038086166001600160a01b031992831617909255600f8054858416908316811790915560108054938516939092169290921790556200010e906050606460c86000806200015d565b6010546200012e906001600160a01b03166050606460c86000806200015d565b6200014260c860466107d0610ed8620001b4565b62000154600060466103e88062000217565b50505062000309565b6001600160a01b0386166000908152600960205260409020858155601554620001879086620002dd565b60018201556015546200019b9085620002dd565b6002820155600381019290925560049091015550505050565b6000546001600160a01b03163314620002035760405162461bcd60e51b8152602060048201819052602482015260008051602062003a0883398151915260448201526064015b60405180910390fd5b600593909355600691909155600755600855565b6000546001600160a01b03163314620002625760405162461bcd60e51b8152602060048201819052602482015260008051602062003a088339815191526044820152606401620001fa565b600193909355600291909155600355600455565b80516001600160a01b03811681146200028e57600080fd5b919050565b600080600060608486031215620002a957600080fd5b620002b48462000276565b9250620002c46020850162000276565b9150620002d46040850162000276565b90509250925092565b80820281158282048414176200030357634e487b7160e01b600052601160045260246000fd5b92915050565b6136ef80620003196000396000f3fe60806040526004361061018b5760003560e01c80636386c1c7116100e0578063a079722d11610084578063e124787f11610061578063e124787f14610485578063ed45f39d1461049a578063f2fde38b146104ba578063f3fef3a3146104da57005b8063a079722d1461040f578063a5fdc5de1461042f578063c600e1dc1461044f57005b8063715018a6116100bd578063715018a61461039d578063838afb1e146103b25780638da5cb5b146103c75780639b6c56ec146103ef57005b80636386c1c71461032e578063660fd8311461035b578063687958621461037b57005b80632a902dc5116101475780634b8a3529116101245780634b8a3529146102ae578063602e7e25146102ce578063606752fc146102ee578063616571e71461030e57005b80632a902dc51461025b5780632f8655681461028857806347e7ef241461029b57005b806305cb9fde1461019457806306bfa938146101c7578063076f215c146101f45780631c5a859b1461020957806322867d781461021e57806323341a051461023157005b3661019257005b005b3480156101a057600080fd5b506101b46101af366004613275565b6104fa565b6040519081526020015b60405180910390f35b3480156101d357600080fd5b506101e76101e236600461329f565b610551565b6040516101be91906132ba565b34801561020057600080fd5b50600a546101b4565b34801561021557600080fd5b506101b4610603565b61019261022c366004613275565b610694565b34801561023d57600080fd5b50610246610a69565b604080519283526020830191909152016101be565b34801561026757600080fd5b5061027b6102763660046132f3565b610af0565b6040516101be91906133ad565b61019261029636600461329f565b610be1565b6101926102a9366004613275565b6113df565b3480156102ba57600080fd5b506101926102c9366004613275565b61163b565b3480156102da57600080fd5b506101926102e93660046132f3565b611958565b3480156102fa57600080fd5b506101926103093660046132f3565b611a1a565b34801561031a57600080fd5b506101926103293660046132f3565b611a49565b34801561033a57600080fd5b5061034e61034936600461329f565b611a78565b6040516101be91906133fc565b34801561036757600080fd5b5061019261037636600461340b565b611aab565b34801561038757600080fd5b50610390611ae9565b6040516101be919061343d565b3480156103a957600080fd5b50610192611c91565b3480156103be57600080fd5b50610192611d05565b3480156103d357600080fd5b506000546040516001600160a01b0390911681526020016101be565b3480156103fb57600080fd5b506101b461040a36600461329f565b611dd0565b34801561041b57600080fd5b5061019261042a36600461340b565b611e7e565b34801561043b57600080fd5b506101b461044a36600461329f565b611ebc565b34801561045b57600080fd5b506101b461046a36600461329f565b6001600160a01b03166000908152600d602052604090205490565b34801561049157600080fd5b506013546101b4565b3480156104a657600080fd5b506101926104b5366004613275565b611f55565b3480156104c657600080fd5b506101926104d536600461329f565b612167565b3480156104e657600080fd5b506101926104f5366004613275565b61219d565b6010546000906001600160a01b039081169084160361051a57508061054b565b6000610524610603565b90506105476c0c9f2c9cd04674edea4000000061054185846134c0565b90612714565b9150505b92915050565b6105836040518060a0016040528060008152602001600081526020016000815260200160008152602001600081525090565b6001600160a01b038216600090815260096020908152604091829020825160a081018452815481526001820154928101839052600282015493810193909352600381015460608401526004015460808301526015546105e29190612714565b602082015260155460408201516105f891612714565b604082015292915050565b600080601660009054906101000a90046001600160a01b03166001600160a01b031663feaf968c6040518163ffffffff1660e01b815260040160a060405180830381865afa158015610659573d6000803e3d6000fd5b505050506040513d601f19601f8201168201806040525081019061067d91906134f1565b505050915050806402540be40061054b9190613541565b61069d33612727565b600081116106e25760405162461bcd60e51b815260206004820152600d60248201526c063616e2774207265706179203609c1b60448201526064015b60405180910390fd5b336000908152600c60205260409020548061070f5760405162461bcd60e51b81526004016106d990613571565b6000818152600b602090815260408083206001600160a01b0387168452600581019092528220549091908410156107d2576001600160a01b03851660009081526005830160205260408120805486929061076a9084906135b4565b90915550506001600160a01b0385166000908152600960205260408120600301805486929061079a9084906135c7565b90915550506001600160a01b0385166000908152600d6020526040812080548692906107c79084906135c7565b909155506109459050565b6001600160a01b0385166000908152600383016020908152604080832054600586019092529091205461080591906135c7565b84111561082d57506001600160a01b0384166000908152600382016020526040902054610855565b6001600160a01b038516600090815260058301602052604090205461085290856135b4565b90505b6001600160a01b03851660009081526003830160205260408120805483929061087f9084906135b4565b90915550506001600160a01b0385166000908152600583016020908152604080832054600d90925282208054919290916108ba9084906135c7565b90915550506001600160a01b03851660009081526005830160205260408120556108e481856135b4565b6001600160a01b0386166000908152600960205260408120600301805490919061090f9084906135c7565b90915550506001600160a01b0385166000908152600960205260408120600401805483929061093f9084906135b4565b90915550505b6010546001600160a01b0390811690861603610a16576010546040516323b872dd60e01b8152336004820152306024820152604481018690526001600160a01b03909116906323b872dd906064016020604051808303816000875af11580156109b2573d6000803e3d6000fd5b505050506040513d601f19601f820116820180604052508101906109d691906135da565b610a115760405162461bcd60e51b815260206004820152600c60248201526b14995c185e4819985a5b195960a21b60448201526064016106d9565b610a59565b83341015610a595760405162461bcd60e51b815260206004820152601060248201526f283632b0b9b2903830bc9036b7b9329760811b60448201526064016106d9565b610a6233612727565b5050505050565b600f546001600160a01b039081166000818152600960205260408082206010549094168252812060038082015490850154929485949093610aaa91906104fa565b610ab491906135c7565b8160040154610adc600f60009054906101000a90046001600160a01b031685600401546104fa565b610ae691906135c7565b9350935050509091565b604080516064808252610ca0820190925260609160009190816020015b610b156131e6565b815260200190600190039081610b0d579050509050610b358360646134c0565b600a541061054b576000610b4a8460656134c0565b600a5410610b6457610b5d8460656134c0565b9050610b69565b50600a545b6000610b768560646134c0565b610b819060016135c7565b90505b610b8f8260016135c7565b811015610bd957610b9f816128b1565b83610bab6001846135b4565b81518110610bbb57610bbb6135fc565b60200260200101819052508080610bd190613612565b915050610b84565b505092915050565b6001600160a01b0381166000908152600c602052604090205480610c175760405162461bcd60e51b81526004016106d990613571565b6000818152600b6020526040812090610c2f84611ebc565b90506000610c3c85611dd0565b90506000610c6760135484610c5191906134c0565b610c5c8460646134c0565b6105419060646134c0565b905060648111610cb95760405162461bcd60e51b815260206004820152601f60248201527f54686973206973206e6f7420656e61626c6564206c69717569646174696f6e0060448201526064016106d9565b600f546001600160a01b0316600090815260048501602090815260408083205460028801909252822054610ced91906135c7565b6010546001600160a01b0316600090815260048701602090815260408083205460028a019092528220549293509091610d2691906135c7565b600f546001600160a01b0316600090815260058801602090815260408083205460038b019092528220549293509091610d5f91906135c7565b6010546001600160a01b0316600090815260058901602090815260408083205460038c019092528220549293509091610d9891906135c7565b600f546001600160a01b0316600090815260058a0160209081526040808320546009909252909120600301549192508591610dd391906135c7565b610ddd91906135b4565b600f546001600160a01b039081166000908152600960208181526040808420600390810196909655601054909416835260058d01815283832054919052919020909101548491610e2c916135c7565b610e3691906135b4565b6010546001600160a01b039081166000908152600960208181526040808420600390810196909655600f549094168352938c0184528282205493529081206004018054909190610e879084906135b4565b90915550506010546001600160a01b0316600090815260038901602090815260408083205460099092528220600401805491929091610ec79084906135b4565b9091555050600f546001600160a01b0316600090815260048901602090815260408083205460058c01835281842054600d909352922054610f0891906135c7565b610f1291906135b4565b600f546001600160a01b039081166000908152600d6020818152604080842095909555601054909316825260048c0183528382205460058d0184528483205491909352929020549091610f64916135c7565b610f6e91906135b4565b6010546001600160a01b03166000908152600d6020526040902055610f9582612710612714565b610fa19061270f6134c0565b341015610fe15760405162461bcd60e51b815260206004820152600e60248201526d09cdee840cadcdeeaced040cae8d60931b60448201526064016106d9565b6010546001600160a01b03166323b872dd333061100085612710612714565b61100c9061270f6134c0565b6040516001600160e01b031960e086901b1681526001600160a01b03938416600482015292909116602483015260448201526064016020604051808303816000875af1158015611060573d6000803e3d6000fd5b505050506040513d601f19601f8201168201806040525081019061108491906135da565b6110c15760405162461bcd60e51b815260206004820152600e60248201526d19195c1bdcda5d0819985a5b195960921b60448201526064016106d9565b6000336001600160a01b03166110ed6127106012546127106110e391906135b4565b61054190896134c0565b604051600081818185875af1925050503d8060008114611129576040519150601f19603f3d011682016040523d82523d6000602084013e61112e565b606091505b50509050806111755760405162461bcd60e51b81526020600482015260136024820152723330b4b632b2103a379039b2b7321032ba341760691b60448201526064016106d9565b600080546001600160a01b03166001600160a01b031661119f6127106012548961054191906134c0565b604051600081818185875af1925050503d80600081146111db576040519150601f19603f3d011682016040523d82523d6000602084013e6111e0565b606091505b50509050806112015760405162461bcd60e51b81526004016106d99061362b565b6010546012546001600160a01b039091169063a9059cbb903390611237906127109061122d90826135b4565b610541908b6134c0565b6040516001600160e01b031960e085901b1681526001600160a01b03909216600483015260248201526044016020604051808303816000875af1158015611282573d6000803e3d6000fd5b505050506040513d601f19601f820116820180604052508101906112a691906135da565b506010546012546001600160a01b039091169063a9059cbb9033906112d39061271090610541908b6134c0565b6040516001600160e01b031960e085901b1681526001600160a01b03909216600483015260248201526044016020604051808303816000875af115801561131e573d6000803e3d6000fd5b505050506040513d601f19601f8201168201806040525081019061134291906135da565b50600e5460068b015460405163a9059cbb60e01b815233600482015260248101919091526001600160a01b039091169063a9059cbb906044016020604051808303816000875af115801561139a573d6000803e3d6000fd5b505050506040513d601f19601f820116820180604052508101906113be91906135da565b506113c88c612e82565b6113d133612727565b505050505050505050505050565b600081116114215760405162461bcd60e51b815260206004820152600f60248201526e063616e2774206465706f736974203608c1b60448201526064016106d9565b336000908152600c6020526040812054810361146b576001600a600082825461144a91906135c7565b9091555050600a54336000908152600c602052604090208190559050611486565b50336000818152600c60205260409020549061148690612727565b6000818152600b6020908152604080832080546001600160a01b031916331781554260018201556001600160a01b03871684526002810190925282208054919285926114d39084906135c7565b90915550506010546001600160a01b03908116908516036115ab576010546040516323b872dd60e01b8152336004820152306024820152604481018590526001600160a01b03909116906323b872dd906064016020604051808303816000875af1158015611545573d6000803e3d6000fd5b505050506040513d601f19601f8201168201806040525081019061156991906135da565b6115a65760405162461bcd60e51b815260206004820152600e60248201526d19195c1bdcda5d0819985a5b195960921b60448201526064016106d9565b6115fb565b823410156115fb5760405162461bcd60e51b815260206004820152601960248201527f596f7520646964206e6f742070617920617320616d6f756e740000000000000060448201526064016106d9565b6001600160a01b038416600090815260096020526040812060030180548592906116269084906135c7565b90915550611635905033612727565b50505050565b6000811161167c5760405162461bcd60e51b815260206004820152600e60248201526d063616e277420626f72726f7720360941b60448201526064016106d9565b336000908152600c6020526040902054806116a95760405162461bcd60e51b81526004016106d990613571565b6000818152600b60205260408120906116c133611ebc565b905060006116ce33611dd0565b9050808210156117205760405162461bcd60e51b815260206004820152601e60248201527f596f7520646f6e6f74206861766520616e7920636f6c6c61746572616c2e000060448201526064016106d9565b600061172c87876104fa565b6001600160a01b03881660009081526009602052604090205490915061175283836135c7565b606461175e83876134c0565b6117689190613662565b116117ac5760405162461bcd60e51b8152602060048201526014602482015273283632b0b9b2903232b837b9b4ba1036b7b9329760611b60448201526064016106d9565b6001600160a01b0388166000908152600386016020526040812080548992906117d69084906135c7565b909155506117e5905033612727565b600f546001600160a01b039081169089160361189c57604051600090339089908381818185875af1925050503d806000811461183d576040519150601f19603f3d011682016040523d82523d6000602084013e611842565b606091505b50509050806118635760405162461bcd60e51b81526004016106d99061362b565b600f546001600160a01b0316600090815260096020526040812060040180548a92906118909084906135c7565b90915550611945915050565b60105460405163a9059cbb60e01b8152336004820152602481018990526001600160a01b039091169063a9059cbb906044016020604051808303816000875af11580156118ed573d6000803e3d6000fd5b505050506040513d601f19601f8201168201806040525081019061191191906135da565b506010546001600160a01b03166000908152600960205260408120600401805489929061193f9084906135c7565b90915550505b61194e33612727565b5050505050505050565b6000546001600160a01b031633146119825760405162461bcd60e51b81526004016106d990613684565b600e546001600160a01b031663a9059cbb6119a56000546001600160a01b031690565b6040516001600160e01b031960e084901b1681526001600160a01b039091166004820152602481018490526044016020604051808303816000875af11580156119f2573d6000803e3d6000fd5b505050506040513d601f19601f82011682018060405250810190611a1691906135da565b5050565b6000546001600160a01b03163314611a445760405162461bcd60e51b81526004016106d990613684565b601155565b6000546001600160a01b03163314611a735760405162461bcd60e51b81526004016106d990613684565b601355565b611a806131e6565b6001600160a01b0382166000908152600c602052604081205490611aa3826128b1565b949350505050565b6000546001600160a01b03163314611ad55760405162461bcd60e51b81526004016106d990613684565b600593909355600691909155600755600855565b600f546001600160a01b0316600090815260096020908152604091829020825160a08101845281548152600182015492810183905260028201549381019390935260038101546060848101919091526004909101546080840152601554909291611b5291612714565b60208201526015546040820151611b6891612714565b6040808301919091526010546001600160a01b031660009081526009602090815290829020825160a08101845281548152600182015492810183905260028201549381019390935260038101546060840152600401546080830152601554611bd09190612714565b60208201526015546040820151611be691612714565b6040828101919091528051600280825260608201909252600091816020015b611c376040518060a0016040528060008152602001600081526020016000815260200160008152602001600081525090565b815260200190600190039081611c055790505090508281600081518110611c6057611c606135fc565b60200260200101819052508181600181518110611c7f57611c7f6135fc565b60209081029190910101529392505050565b6000546001600160a01b03163314611cbb5760405162461bcd60e51b81526004016106d990613684565b600080546040516001600160a01b03909116907f8be0079c531659141344cd1fd0a4f28419497f9722a3daafe3b4186f6b6457e0908390a3600080546001600160a01b0319169055565b336000908152600c602052604090205480611d325760405162461bcd60e51b81526004016106d990613571565b6000818152600b60205260409020611d4933612727565b600e54600682015460405163a9059cbb60e01b815233600482015260248101919091526001600160a01b039091169063a9059cbb906044016020604051808303816000875af1158015611da0573d6000803e3d6000fd5b505050506040513d601f19601f82011682018060405250810190611dc491906135da565b50600060069091015550565b6000611ddb82612727565b6001600160a01b038083166000908152600c60209081526040808320548352600b8252808320600f54909416808452600385018352818420546005860190935290832054611e2c926101af916135c7565b6010546001600160a01b03166000818152600385016020908152604080832054600588019092528220549394509092611e6992916101af916135c7565b9050611e7581836135c7565b95945050505050565b6000546001600160a01b03163314611ea85760405162461bcd60e51b81526004016106d990613684565b600193909355600291909155600355600455565b6000611ec782612727565b6001600160a01b038083166000908152600c60209081526040808320548352600b8252808320600f54909416808452600285018352818420546004860190935290832054611f18926101af916135c7565b6010546001600160a01b03166000818152600285016020908152604080832054600488019092528220549394509092611e6992916101af916135c7565b6000546001600160a01b03163314611f7f5760405162461bcd60e51b81526004016106d990613684565b6001600160a01b0382166000908152600960205260409020600301548110611fe95760405162461bcd60e51b815260206004820181905260248201527f43616e6e6f74207769746864726177206d6f7265207468616e2070726f66697460448201526064016106d9565b600f546001600160a01b039081169083160361209f57600080546040516001600160a01b039091169083908381818185875af1925050503d806000811461204c576040519150601f19603f3d011682016040523d82523d6000602084013e612051565b606091505b50509050806120995760405162461bcd60e51b81526020600482015260146024820152732330b4b632b2103a379039b2b7321022ba3432b960611b60448201526064016106d9565b50612133565b816001600160a01b031663a9059cbb6120c06000546001600160a01b031690565b6040516001600160e01b031960e084901b1681526001600160a01b039091166004820152602481018490526044016020604051808303816000875af115801561210d573d6000803e3d6000fd5b505050506040513d601f19601f8201168201806040525081019061213191906135da565b505b6001600160a01b0382166000908152600960205260408120600301805483929061215e9084906135b4565b90915550505050565b6000546001600160a01b031633146121915760405162461bcd60e51b81526004016106d990613684565b61219a81612fa1565b50565b600081116121e05760405162461bcd60e51b815260206004820152601060248201526f063616e277420776974686472617720360841b60448201526064016106d9565b336000908152600c60205260409020548061220d5760405162461bcd60e51b81526004016106d990613571565b6000818152600b6020526040902061222433612727565b600061222f33611ebc565b9050600061223c33611dd0565b6001600160a01b038716600090815260096020526040902054909150819060649061226789896104fa565b61227190866135b4565b61227b91906134c0565b6122859190613662565b116122e95760405162461bcd60e51b815260206004820152602e60248201527f5769746864726177206661696c65642e596f7520646f6e6f742068617665206160448201526d373c9031b7b63630ba32b930b61760911b60648201526084016106d9565b6001600160a01b038616600090815260048401602052604090205485101561239d576001600160a01b038616600090815260096020526040812060030180548792906123369084906135b4565b90915550506001600160a01b0386166000908152600484016020526040812080548792906123659084906135b4565b90915550506001600160a01b0386166000908152600d6020526040812080548792906123929084906135b4565b909155506124639050565b6001600160a01b03861660009081526004840160205260408120546123c290876135b4565b6001600160a01b03881660009081526002860160205260408120805492935083929091906123f19084906135b4565b90915550506001600160a01b03871660009081526004850160209081526040808320839055600d90915281208054829061242c9082906135b4565b90915550506001600160a01b0387166000908152600960205260408120600301805488929061245c9084906135b4565b9091555050505b600f546001600160a01b03908116908716036125ca576000336001600160a01b03166124a561271060125461271061249b91906135b4565b610541908a6134c0565b604051600081818185875af1925050503d80600081146124e1576040519150601f19603f3d011682016040523d82523d6000602084013e6124e6565b606091505b50509050806125075760405162461bcd60e51b81526004016106d99061362b565b600080546001600160a01b03166001600160a01b03166125316127106012548a61054191906134c0565b604051600081818185875af1925050503d806000811461256d576040519150601f19603f3d011682016040523d82523d6000602084013e612572565b606091505b50509050806125c35760405162461bcd60e51b815260206004820181905260248201527f6661696c656420746f2073656e64206665652065746820696e7465726573742e60448201526064016106d9565b5050612703565b6010546012546001600160a01b039091169063a9059cbb9033906125f6906127109061122d90826135b4565b6040516001600160e01b031960e085901b1681526001600160a01b03909216600483015260248201526044016020604051808303816000875af1158015612641573d6000803e3d6000fd5b505050506040513d601f19601f8201168201806040525081019061266591906135da565b506010546012546001600160a01b039091169063a9059cbb9033906126929061271090610541908b6134c0565b6040516001600160e01b031960e085901b1681526001600160a01b03909216600483015260248201526044016020604051808303816000875af11580156126dd573d6000803e3d6000fd5b505050506040513d601f19601f8201168201806040525081019061270191906135da565b505b61270c33612727565b505050505050565b60006127208284613662565b9392505050565b6001600160a01b0381166000908152600c602052604090205461278c5760405162461bcd60e51b815260206004820152601a60248201527f557365722073686f756c64206465706f736974206265666f726500000000000060448201526064016106d9565b6001600160a01b0381166000818152600c6020818152604080842054808552600b83529084209484529190526127c1906128b1565b610100810151600684015560c0810151600f80546001600160a01b039081166000908152600487016020818152604080842096909655608087015185548516845260058a018083528785209190915560e088015160108054871686529383528785205560a08801519254851684529052939020929092554260018601555491925061284c9116613061565b600f546001600160a01b03908116600090815260096020526040902060028101929092556001909101919091556010546128869116613061565b6010546001600160a01b03166000908152600960205260409020600281019190915560010155505050565b6128b96131e6565b8115612e02576000828152600b60205260408120600181015490916128de82426135b4565b601154600f546014546001600160a01b0390911660008181526009602090815260408083206001015460028b01909252822054959650909461293b9391879161292791906134c0565b61293191906134c0565b6101af9190613662565b61294591906134c0565b846006015461295491906135c7565b601454600f546001600160a01b031660009081526009602090815260408083206001015460028a0190925282205493945090928591612992916134c0565b61299c91906134c0565b6129a69190613662565b600f546001600160a01b031660009081526004870160205260409020546129cd91906135c7565b601454600f546001600160a01b031660009081526009602090815260408083206002015460038b0190925282205493945090928691612a0b916134c0565b612a1591906134c0565b612a1f9190613662565b600f546001600160a01b03166000908152600588016020526040902054612a4691906135c7565b6011546010546014546001600160a01b0390911660008181526009602090815260408083206001015460028e01909252909120549495509293612a9293919291899161292791906134c0565b612a9c91906134c0565b8660060154612aab91906135c7565b612ab590846135c7565b6014546010546001600160a01b031660009081526009602090815260408083206001015460028c0190925282205493965090928791612af3916134c0565b612afd91906134c0565b612b079190613662565b6010546001600160a01b03166000908152600489016020526040902054612b2e91906135c7565b6014546010546001600160a01b031660009081526009602090815260408083206002015460038d0190925282205493945090928891612b6c916134c0565b612b7691906134c0565b612b809190613662565b6010546001600160a01b0316600090815260058a016020526040902054612ba791906135c7565b90506000604051806101c001604052808a6002016000600f60009054906101000a90046001600160a01b03166001600160a01b03166001600160a01b031681526020019081526020016000205481526020018a6002016000601060009054906101000a90046001600160a01b03166001600160a01b03166001600160a01b031681526020019081526020016000205481526020018a6003016000600f60009054906101000a90046001600160a01b03166001600160a01b03166001600160a01b031681526020019081526020016000205481526020018a6003016000601060009054906101000a90046001600160a01b03166001600160a01b03166001600160a01b03168152602001908152602001600020548152602001858152602001838152602001868152602001848152602001878152602001612d3e600f60009054906101000a90046001600160a01b0316888d6002016000600f60009054906101000a90046001600160a01b03166001600160a01b03166001600160a01b03168152602001908152602001600020546101af91906135c7565b81526010546001600160a01b0316600081815260028d016020908152604090912054920191612d7391906101af9088906135c7565b8152600f546001600160a01b0316600081815260038d016020908152604090912054920191612da891906101af9089906135c7565b81526010546001600160a01b0316600081815260038d016020908152604090912054920191612ddd91906101af9087906135c7565b815299546001600160a01b03166020909a019990995250969998505050505050505050565b604051806101c0016040528060008152602001600081526020016000815260200160008152602001600081526020016000815260200160008152602001600081526020016000815260200160008152602001600081526020016000815260200160008152602001336001600160a01b03168152509050919050565b919050565b6001600160a01b0381166000908152600c6020526040902054612ee75760405162461bcd60e51b815260206004820152601a60248201527f557365722073686f756c64206465706f736974206265666f726500000000000060448201526064016106d9565b6001600160a01b039081166000908152600c60209081526040808320548352600b8252808320600f80548616855260028201808552838620869055815487168652600383018086528487208790558254881687526004840180875285882088905592548816875260058401808752858820889055601080548a168952928752858820889055825489168852908652848720879055815488168752918552838620869055549095168452939091528120819055600690910155565b6001600160a01b0381166130065760405162461bcd60e51b815260206004820152602660248201527f4f776e61626c653a206e6577206f776e657220697320746865207a65726f206160448201526564647265737360d01b60648201526084016106d9565b600080546040516001600160a01b03808516939216917f8be0079c531659141344cd1fd0a4f28419497f9722a3daafe3b4186f6b6457e091a3600080546001600160a01b0319166001600160a01b0392909216919091179055565b600080600080600061307286610551565b606081015160808201519094509250905060008084156131b557600061309d866105418760646134c0565b90508060056001015411156130d5576006546007546130c1919061054190846134c0565b6005546130ce91906135c7565b925061311e565b600654613101906130e79060646135b4565b6008546006546130f790856135b4565b61054191906134c0565b60075460055461311191906135c7565b61311b91906135c7565b92505b6002548110156131515760025460035461313d919061054190846134c0565b60015461314a91906135c7565b9150613190565b600254613173906131639060646135b4565b6004546002546130f790856135b4565b60035460015461318391906135c7565b61318d91906135c7565b91505b60155461319d90836134c0565b9150601554836131ad91906134c0565b9250506131da565b6015546001546131c591906134c0565b6015546005549192506131d7916134c0565b91505b97909650945050505050565b604051806101c001604052806000815260200160008152602001600081526020016000815260200160008152602001600081526020016000815260200160008152602001600081526020016000815260200160008152602001600081526020016000815260200160006001600160a01b031681525090565b80356001600160a01b0381168114612e7d57600080fd5b6000806040838503121561328857600080fd5b6132918361325e565b946020939093013593505050565b6000602082840312156132b157600080fd5b6127208261325e565b60a0810161054b828480518252602081015160208301526040810151604083015260608101516060830152608081015160808301525050565b60006020828403121561330557600080fd5b5035919050565b805182526020810151602083015260408101516040830152606081015160608301526080810151608083015260a081015160a083015260c081015160c083015260e081015160e08301526101008082015181840152506101208082015181840152506101408082015181840152506101608082015181840152506101808082015181840152506101a080820151611635828501826001600160a01b03169052565b6020808252825182820181905260009190848201906040850190845b818110156133f0576133dc83855161330c565b928401926101c092909201916001016133c9565b50909695505050505050565b6101c0810161054b828461330c565b6000806000806080858703121561342157600080fd5b5050823594602084013594506040840135936060013592509050565b6020808252825182820181905260009190848201906040850190845b818110156133f05761349783855180518252602081015160208301526040810151604083015260608101516060830152608081015160808301525050565b9284019260a09290920191600101613459565b634e487b7160e01b600052601160045260246000fd5b808202811582820484141761054b5761054b6134aa565b805169ffffffffffffffffffff81168114612e7d57600080fd5b600080600080600060a0868803121561350957600080fd5b613512866134d7565b9450602086015193506040860151925060608601519150613535608087016134d7565b90509295509295909350565b80820260008212600160ff1b8414161561355d5761355d6134aa565b818105831482151761054b5761054b6134aa565b60208082526023908201527f5573657220696e6465782073686f756c6420626520626967676572207468616e60408201526210181760e91b606082015260800190565b8181038181111561054b5761054b6134aa565b8082018082111561054b5761054b6134aa565b6000602082840312156135ec57600080fd5b8151801515811461272057600080fd5b634e487b7160e01b600052603260045260246000fd5b600060018201613624576136246134aa565b5060010190565b6020808252601c908201527f6661696c656420746f2073656e642065746820696e7465726573742e00000000604082015260600190565b60008261367f57634e487b7160e01b600052601260045260246000fd5b500490565b6020808252818101527f4f776e61626c653a2063616c6c6572206973206e6f7420746865206f776e657260408201526060019056fea264697066735822122047e862814e4b3a8e554fe9a1a476cd6505f6c8589f6086b098a69c7be12ec35f64736f6c634300081200334f776e61626c653a2063616c6c6572206973206e6f7420746865206f776e6572",
  "linkReferences": {},
  "deployedLinkReferences": {}
}