{
  "_format": "hh-sol-artifact-1",
  "contractName": "Lending",
  "sourceName": "contracts/Lending.sol",
  "abi": [
    {
      "inputs": [
        {
          "internalType": "address",
          "name": "_rewardAddress",
          "type": "address"
        },
        {
          "internalType": "address",
          "name": "_ethAdddress",
          "type": "address"
        },
        {
          "internalType": "address",
          "name": "_usdtAddress",
          "type": "address"
        },
        {
          "internalType": "address",
          "name": "_poolAddress",
          "type": "address"
        }
      ],
      "stateMutability": "nonpayable",
      "type": "constructor"
    },
    {
      "anonymous": false,
      "inputs": [
        {
          "indexed": true,
          "internalType": "address",
          "name": "previousOwner",
          "type": "address"
        },
        {
          "indexed": true,
          "internalType": "address",
          "name": "newOwner",
          "type": "address"
        }
      ],
      "name": "OwnershipTransferred",
      "type": "event"
    },
    {
      "stateMutability": "payable",
      "type": "fallback"
    },
    {
      "inputs": [
        {
          "internalType": "address",
          "name": "_tokenAddress",
          "type": "address"
        },
        {
          "internalType": "uint256",
          "name": "_amount",
          "type": "uint256"
        }
      ],
      "name": "borrow",
      "outputs": [],
      "stateMutability": "nonpayable",
      "type": "function"
    },
    {
      "inputs": [
        {
          "internalType": "address",
          "name": "_tokenAddress",
          "type": "address"
        },
        {
          "internalType": "uint256",
          "name": "_amount",
          "type": "uint256"
        }
      ],
      "name": "calcTokenPrice",
      "outputs": [
        {
          "internalType": "uint256",
          "name": "",
          "type": "uint256"
        }
      ],
      "stateMutability": "view",
      "type": "function"
    },
    {
      "inputs": [
        {
          "internalType": "uint256",
          "name": "amount",
          "type": "uint256"
        }
      ],
      "name": "claimETH",
      "outputs": [],
      "stateMutability": "nonpayable",
      "type": "function"
    },
    {
      "inputs": [],
      "name": "claimPeko",
      "outputs": [],
      "stateMutability": "nonpayable",
      "type": "function"
    },
    {
      "inputs": [
        {
          "internalType": "address",
          "name": "tokenAddress",
          "type": "address"
        },
        {
          "internalType": "uint256",
          "name": "amount",
          "type": "uint256"
        }
      ],
      "name": "claimToken",
      "outputs": [],
      "stateMutability": "nonpayable",
      "type": "function"
    },
    {
      "inputs": [
        {
          "internalType": "address",
          "name": "_account",
          "type": "address"
        }
      ],
      "name": "collateral",
      "outputs": [
        {
          "internalType": "uint256",
          "name": "",
          "type": "uint256"
        }
      ],
      "stateMutability": "nonpayable",
      "type": "function"
    },
    {
      "inputs": [
        {
          "internalType": "address",
          "name": "_account",
          "type": "address"
        }
      ],
      "name": "debt",
      "outputs": [
        {
          "internalType": "uint256",
          "name": "",
          "type": "uint256"
        }
      ],
      "stateMutability": "nonpayable",
      "type": "function"
    },
    {
      "inputs": [
        {
          "internalType": "address",
          "name": "_tokenAddress",
          "type": "address"
        },
        {
          "internalType": "uint256",
          "name": "_amount",
          "type": "uint256"
        }
      ],
      "name": "deposit",
      "outputs": [],
      "stateMutability": "payable",
      "type": "function"
    },
    {
      "inputs": [
        {
          "internalType": "address",
          "name": "_pool",
          "type": "address"
        },
        {
          "internalType": "address",
          "name": "_weth",
          "type": "address"
        },
        {
          "internalType": "address",
          "name": "_usdc",
          "type": "address"
        }
      ],
      "name": "getEthValue",
      "outputs": [
        {
          "internalType": "uint256",
          "name": "",
          "type": "uint256"
        }
      ],
      "stateMutability": "view",
      "type": "function"
    },
    {
      "inputs": [],
      "name": "getLiquidationThreshhold",
      "outputs": [
        {
          "internalType": "uint256",
          "name": "",
          "type": "uint256"
        }
      ],
      "stateMutability": "view",
      "type": "function"
    },
    {
      "inputs": [],
      "name": "getMarketInfo",
      "outputs": [
        {
          "internalType": "uint256",
          "name": "",
          "type": "uint256"
        },
        {
          "internalType": "uint256",
          "name": "",
          "type": "uint256"
        }
      ],
      "stateMutability": "view",
      "type": "function"
    },
    {
      "inputs": [
        {
          "internalType": "address",
          "name": "_poolAddress",
          "type": "address"
        }
      ],
      "name": "getPoolInfo",
      "outputs": [
        {
          "components": [
            {
              "internalType": "uint256",
              "name": "LTV",
              "type": "uint256"
            },
            {
              "internalType": "uint256",
              "name": "depositApy",
              "type": "uint256"
            },
            {
              "internalType": "uint256",
              "name": "borrowApy",
              "type": "uint256"
            },
            {
              "internalType": "uint256",
              "name": "totalAmount",
              "type": "uint256"
            },
            {
              "internalType": "uint256",
              "name": "borrowAmount",
              "type": "uint256"
            }
          ],
          "internalType": "struct Lending.PoolInfo",
          "name": "",
          "type": "tuple"
        }
      ],
      "stateMutability": "view",
      "type": "function"
    },
    {
      "inputs": [
        {
          "internalType": "address",
          "name": "_account",
          "type": "address"
        }
      ],
      "name": "getUserInfo",
      "outputs": [
        {
          "components": [
            {
              "internalType": "uint256",
              "name": "ethDepositAmount",
              "type": "uint256"
            },
            {
              "internalType": "uint256",
              "name": "usdtDepositAmount",
              "type": "uint256"
            },
            {
              "internalType": "uint256",
              "name": "ethBorrowAmount",
              "type": "uint256"
            },
            {
              "internalType": "uint256",
              "name": "usdtBorrowAmount",
              "type": "uint256"
            },
            {
              "internalType": "uint256",
              "name": "ethInterestAmount",
              "type": "uint256"
            },
            {
              "internalType": "uint256",
              "name": "usdtInterestAmount",
              "type": "uint256"
            },
            {
              "internalType": "uint256",
              "name": "ethRewardAmount",
              "type": "uint256"
            },
            {
              "internalType": "uint256",
              "name": "usdtRewardAmount",
              "type": "uint256"
            },
            {
              "internalType": "uint256",
              "name": "pekoRewardAmount",
              "type": "uint256"
            },
            {
              "internalType": "uint256",
              "name": "ethDepositTotalInUsdtAmount",
              "type": "uint256"
            },
            {
              "internalType": "uint256",
              "name": "usdtDepositTotalAmount",
              "type": "uint256"
            },
            {
              "internalType": "uint256",
              "name": "ethBorrowTotalInUsdtAmount",
              "type": "uint256"
            },
            {
              "internalType": "uint256",
              "name": "usdtBorrowTotalAmount",
              "type": "uint256"
            },
            {
              "internalType": "address",
              "name": "accountAddress",
              "type": "address"
            }
          ],
          "internalType": "struct Lending.UserInfoForDisplay",
          "name": "",
          "type": "tuple"
        }
      ],
      "stateMutability": "view",
      "type": "function"
    },
    {
      "inputs": [
        {
          "internalType": "address",
          "name": "_account",
          "type": "address"
        }
      ],
      "name": "liquidate",
      "outputs": [],
      "stateMutability": "payable",
      "type": "function"
    },
    {
      "inputs": [],
      "name": "listPools",
      "outputs": [
        {
          "components": [
            {
              "internalType": "uint256",
              "name": "LTV",
              "type": "uint256"
            },
            {
              "internalType": "uint256",
              "name": "depositApy",
              "type": "uint256"
            },
            {
              "internalType": "uint256",
              "name": "borrowApy",
              "type": "uint256"
            },
            {
              "internalType": "uint256",
              "name": "totalAmount",
              "type": "uint256"
            },
            {
              "internalType": "uint256",
              "name": "borrowAmount",
              "type": "uint256"
            }
          ],
          "internalType": "struct Lending.PoolInfo[]",
          "name": "",
          "type": "tuple[]"
        }
      ],
      "stateMutability": "view",
      "type": "function"
    },
    {
      "inputs": [],
      "name": "listUserInfo",
      "outputs": [
        {
          "components": [
            {
              "internalType": "uint256",
              "name": "ethDepositAmount",
              "type": "uint256"
            },
            {
              "internalType": "uint256",
              "name": "usdtDepositAmount",
              "type": "uint256"
            },
            {
              "internalType": "uint256",
              "name": "ethBorrowAmount",
              "type": "uint256"
            },
            {
              "internalType": "uint256",
              "name": "usdtBorrowAmount",
              "type": "uint256"
            },
            {
              "internalType": "uint256",
              "name": "ethInterestAmount",
              "type": "uint256"
            },
            {
              "internalType": "uint256",
              "name": "usdtInterestAmount",
              "type": "uint256"
            },
            {
              "internalType": "uint256",
              "name": "ethRewardAmount",
              "type": "uint256"
            },
            {
              "internalType": "uint256",
              "name": "usdtRewardAmount",
              "type": "uint256"
            },
            {
              "internalType": "uint256",
              "name": "pekoRewardAmount",
              "type": "uint256"
            },
            {
              "internalType": "uint256",
              "name": "ethDepositTotalInUsdtAmount",
              "type": "uint256"
            },
            {
              "internalType": "uint256",
              "name": "usdtDepositTotalAmount",
              "type": "uint256"
            },
            {
              "internalType": "uint256",
              "name": "ethBorrowTotalInUsdtAmount",
              "type": "uint256"
            },
            {
              "internalType": "uint256",
              "name": "usdtBorrowTotalAmount",
              "type": "uint256"
            },
            {
              "internalType": "address",
              "name": "accountAddress",
              "type": "address"
            }
          ],
          "internalType": "struct Lending.UserInfoForDisplay[]",
          "name": "",
          "type": "tuple[]"
        }
      ],
      "stateMutability": "view",
      "type": "function"
    },
    {
      "inputs": [],
      "name": "owner",
      "outputs": [
        {
          "internalType": "address",
          "name": "",
          "type": "address"
        }
      ],
      "stateMutability": "view",
      "type": "function"
    },
    {
      "inputs": [],
      "name": "renounceOwnership",
      "outputs": [],
      "stateMutability": "nonpayable",
      "type": "function"
    },
    {
      "inputs": [
        {
          "internalType": "address",
          "name": "_tokenAddress",
          "type": "address"
        },
        {
          "internalType": "uint256",
          "name": "_amount",
          "type": "uint256"
        }
      ],
      "name": "repay",
      "outputs": [],
      "stateMutability": "payable",
      "type": "function"
    },
    {
      "inputs": [
        {
          "internalType": "uint256",
          "name": "limit",
          "type": "uint256"
        }
      ],
      "name": "setLiquidationThreshhold",
      "outputs": [],
      "stateMutability": "nonpayable",
      "type": "function"
    },
    {
      "inputs": [
        {
          "internalType": "address",
          "name": "_poolAddress",
          "type": "address"
        }
      ],
      "name": "setPoolAddress",
      "outputs": [],
      "stateMutability": "nonpayable",
      "type": "function"
    },
    {
      "inputs": [
        {
          "internalType": "address",
          "name": "newOwner",
          "type": "address"
        }
      ],
      "name": "transferOwnership",
      "outputs": [],
      "stateMutability": "nonpayable",
      "type": "function"
    },
    {
      "inputs": [
        {
          "internalType": "address",
          "name": "_tokenAddress",
          "type": "address"
        },
        {
          "internalType": "uint256",
          "name": "_amount",
          "type": "uint256"
        }
      ],
      "name": "withdraw",
      "outputs": [],
      "stateMutability": "nonpayable",
      "type": "function"
    },
    {
      "stateMutability": "payable",
      "type": "receive"
    }
  ],
  "bytecode": "0x6080604052601e600955633b9aca00600a553480156200001e57600080fd5b5060405162002dd838038062002dd883398101604081905262000041916200017b565b600080546001600160a01b031916339081178255604051909182917f8be0079c531659141344cd1fd0a4f28419497f9722a3daafe3b4186f6b6457e0908290a350600580546001600160a01b038087166001600160a01b031992831617835560068054878316908416811790915560078054878416908516179055600880549286169290931691909117909155620000e191605090600a6000806200010b565b60075462000101906001600160a01b031660506005600a6000806200010b565b5050505062000203565b6001600160a01b038616600090815260016020526040902085815562000133856003620001d7565b600182015562000145846003620001d7565b6002820155600381019290925560049091015550505050565b80516001600160a01b03811681146200017657600080fd5b919050565b6000806000806080858703121562000191578384fd5b6200019c856200015e565b9350620001ac602086016200015e565b9250620001bc604086016200015e565b9150620001cc606086016200015e565b905092959194509250565b6000816000190483118215151615620001fe57634e487b7160e01b81526011600452602481fd5b500290565b612bc580620002136000396000f3fe6080604052600436106101385760003560e01c80636386c1c7116100b0578063a5fdc5de1161006c578063a5fdc5de14610367578063e124787f14610387578063e9e15b4f1461039c578063f2fde38b146103d9578063f3fef3a3146103f9578063fe96973a1461041957005b80636386c1c7146102a657806368795862146102d3578063715018a6146102f5578063838afb1e1461030a5780638da5cb5b1461031f5780639b6c56ec1461034757005b806323341a05116100ff57806323341a05146101f45780632f8655681461021e57806347e7ef24146102315780634b8a3529146102445780635063e91a14610264578063616571e71461028657005b806305cb9fde1461014157806306bfa9381461017457806314658ac7146101a15780631698755f146101c157806322867d78146101e157005b3661013f57005b005b34801561014d57600080fd5b5061016161015c36600461274e565b610439565b6040519081526020015b60405180910390f35b34801561018057600080fd5b5061019461018f3660046126f2565b61048e565b60405161016b91906129bd565b3480156101ad57600080fd5b506101616101bc36600461270c565b610540565b3480156101cd57600080fd5b5061013f6101dc36600461274e565b6106e9565b61013f6101ef36600461274e565b6107c2565b34801561020057600080fd5b50610209610a7f565b6040805192835260208301919091520161016b565b61013f61022c3660046126f2565b610b06565b61013f61023f36600461274e565b610fb7565b34801561025057600080fd5b5061013f61025f36600461274e565b6111fb565b34801561027057600080fd5b5061027961154e565b60405161016b9190612902565b34801561029257600080fd5b5061013f6102a1366004612797565b600955565b3480156102b257600080fd5b506102c66102c13660046126f2565b611626565b60405161016b91906129f6565b3480156102df57600080fd5b506102e8611659565b60405161016b9190612889565b34801561030157600080fd5b5061013f611816565b34801561031657600080fd5b5061013f61188a565b34801561032b57600080fd5b506000546040516001600160a01b03909116815260200161016b565b34801561035357600080fd5b506101616103623660046126f2565b611964565b34801561037357600080fd5b506101616103823660046126f2565b611a12565b34801561039357600080fd5b50600954610161565b3480156103a857600080fd5b5061013f6103b73660046126f2565b600880546001600160a01b0319166001600160a01b0392909216919091179055565b3480156103e557600080fd5b5061013f6103f43660046126f2565b611aa9565b34801561040557600080fd5b5061013f61041436600461274e565b611adf565b34801561042557600080fd5b5061013f610434366004612797565b611df9565b6007546000906001600160a01b0384811691161415610459575080610488565b683635c9adc5dea000006104846c0c9f2c9cd04674edea4000000061047e8584612b28565b90611ec1565b9150505b92915050565b6104c06040518060a0016040528060008152602001600081526020016000815260200160008152602001600081525090565b6001600160a01b038216600090815260016020818152604092839020835160a08101855281548152928101549183018290526002810154938301939093526003808401546060840152600490930154608083015290916105209190611ec1565b60208201526040810151610535906003611ec1565b604082015292915050565b6040516370a0823160e01b81526001600160a01b03848116600483015260009182918516906370a082319060240160206040518083038186803b15801561058657600080fd5b505afa15801561059a573d6000803e3d6000fd5b505050506040513d601f19601f820116820180604052508101906105be91906127af565b6040516370a0823160e01b81526001600160a01b0387811660048301529192506000918516906370a082319060240160206040518083038186803b15801561060557600080fd5b505afa158015610619573d6000803e3d6000fd5b505050506040513d601f19601f8201168201806040525081019061063d91906127af565b90506000846001600160a01b031663313ce5676040518163ffffffff1660e01b815260040160206040518083038186803b15801561067a57600080fd5b505afa15801561068e573d6000803e3d6000fd5b505050506040513d601f19601f820116820180604052508101906106b291906127c7565b60ff16905060006106dd8461047e6106cb856024612b47565b6106d690600a612a80565b8690611ed4565b98975050505050505050565b6000546001600160a01b0316331461071c5760405162461bcd60e51b815260040161071390612945565b60405180910390fd5b816001600160a01b031663a9059cbb61073d6000546001600160a01b031690565b6040516001600160e01b031960e084901b1681526001600160a01b03909116600482015260248101849052604401602060405180830381600087803b15801561078557600080fd5b505af1158015610799573d6000803e3d6000fd5b505050506040513d601f19601f820116820180604052508101906107bd9190612777565b505050565b6107cb33611ee0565b6000811161080b5760405162461bcd60e51b815260206004820152600d60248201526c063616e2774207265706179203609c1b6044820152606401610713565b33600090815260046020526040902054806108385760405162461bcd60e51b81526004016107139061297a565b60008181526003602090815260408083206001600160a01b0387168452600581019092529091205483116108b85760405162461bcd60e51b815260206004820152602160248201527f5265706179206e65656420746f20626520626967676572207468616e206465626044820152601d60fa1b6064820152608401610713565b6001600160a01b0384166000908152600382016020526040812080548592906108e2908490612b47565b90915550506007546001600160a01b03858116911614156109fa576007546040516323b872dd60e01b8152336004820152306024820152604481018590526001600160a01b03909116906323b872dd90606401602060405180830381600087803b15801561094f57600080fd5b505af1158015610963573d6000803e3d6000fd5b505050506040513d601f19601f820116820180604052508101906109879190612777565b6109c25760405162461bcd60e51b815260206004820152600c60248201526b14995c185e4819985a5b195960a21b6044820152606401610713565b6007546001600160a01b0316600090815260016020526040812060040180548592906109ef908490612b47565b90915550610a709050565b82341015610a3d5760405162461bcd60e51b815260206004820152601060248201526f283632b0b9b2903830bc9036b7b9329760811b6044820152606401610713565b6006546001600160a01b031660009081526001602052604081206004018054859290610a6a908490612b47565b90915550505b610a7933611ee0565b50505050565b6006546001600160a01b039081166000818152600160205260408082206007549094168252812060038082015490850154929485949093610ac09190610439565b610aca9190612a05565b8160040154610af2600660009054906101000a90046001600160a01b03168560040154610439565b610afc9190612a05565b9350935050509091565b6001600160a01b03811660009081526004602052604090205480610b3c5760405162461bcd60e51b81526004016107139061297a565b600081815260036020526040812090610b5484611a12565b90506000610b6185611964565b90506000610b89610b7384605a612b28565b610b7e846064612b28565b61047e906064612b28565b90506009548111610bdc5760405162461bcd60e51b815260206004820152601f60248201527f54686973206973206e6f7420656e61626c6564206c69717569646174696f6e006044820152606401610713565b6006546001600160a01b0316600090815260048501602090815260408083205460028801909252822054610c109190612a05565b6007546001600160a01b0316600090815260048701602090815260408083205460028a019092528220549293509091610c499190612a05565b6006546001600160a01b0316600090815260058801602090815260408083205460038b019092528220549293509091610c829190612a05565b6007546001600160a01b0316600090815260058901602090815260408083205460038c019092528220549293509091610cbb9190612a05565b9050610cc982612710611ec1565b610cd59061270f612b28565b3411610d145760405162461bcd60e51b815260206004820152600e60248201526d09cdee840cadcdeeaced040cae8d60931b6044820152606401610713565b6007546001600160a01b03166323b872dd3330610d3385612710611ec1565b610d3f9061270f612b28565b6040516001600160e01b031960e086901b1681526001600160a01b0393841660048201529290911660248301526044820152606401602060405180830381600087803b158015610d8e57600080fd5b505af1158015610da2573d6000803e3d6000fd5b505050506040513d601f19601f82011682018060405250810190610dc69190612777565b610e035760405162461bcd60e51b815260206004820152600e60248201526d19195c1bdcda5d0819985a5b195960921b6044820152606401610713565b604051600090339086908381818185875af1925050503d8060008114610e45576040519150601f19603f3d011682016040523d82523d6000602084013e610e4a565b606091505b5050905080610e915760405162461bcd60e51b81526020600482015260136024820152723330b4b632b2103a379039b2b7321032ba341760691b6044820152606401610713565b60075460405163a9059cbb60e01b8152336004820152602481018690526001600160a01b039091169063a9059cbb90604401602060405180830381600087803b158015610edd57600080fd5b505af1158015610ef1573d6000803e3d6000fd5b505050506040513d601f19601f82011682018060405250810190610f159190612777565b5060055460068a015460405163a9059cbb60e01b815233600482015260248101919091526001600160a01b039091169063a9059cbb90604401602060405180830381600087803b158015610f6857600080fd5b505af1158015610f7c573d6000803e3d6000fd5b505050506040513d601f19601f82011682018060405250810190610fa09190612777565b50610faa8b61224e565b5050505050505050505050565b60008111610ff95760405162461bcd60e51b815260206004820152600f60248201526e063616e2774206465706f736974203608c1b6044820152606401610713565b33600090815260046020526040812054611041576001600260008282546110209190612a05565b9091555050600254336000908152600460205260409020819055905061105c565b50336000818152600460205260409020549061105c90611ee0565b600081815260036020908152604080832080546001600160a01b031916331781554260018201556001600160a01b03871684526002810190925282208054919285926110a9908490612a05565b90915550506007546001600160a01b03858116911614156111c3576007546040516323b872dd60e01b8152336004820152306024820152604481018590526001600160a01b03909116906323b872dd90606401602060405180830381600087803b15801561111657600080fd5b505af115801561112a573d6000803e3d6000fd5b505050506040513d601f19601f8201168201806040525081019061114e9190612777565b61118b5760405162461bcd60e51b815260206004820152600e60248201526d19195c1bdcda5d0819985a5b195960921b6044820152606401610713565b6007546001600160a01b0316600090815260016020526040812060030180548592906111b8908490612a05565b90915550610a799050565b6006546001600160a01b0316600090815260016020526040812060030180548592906111f0908490612a05565b909155505050505050565b6000811161123c5760405162461bcd60e51b815260206004820152600e60248201526d063616e277420626f72726f7720360941b6044820152606401610713565b33600090815260046020526040902054806112695760405162461bcd60e51b81526004016107139061297a565b60008181526003602052604081209061128133611a12565b9050600061128e33611964565b9050808210156112e05760405162461bcd60e51b815260206004820152601e60248201527f596f7520646f6e6f74206861766520616e7920636f6c6c61746572616c2e00006044820152606401610713565b60006112ec8787610439565b6001600160a01b0388166000908152600160205260409020549091506113128383612a05565b606461131e8387612b28565b6113289190612a1d565b1161136c5760405162461bcd60e51b8152602060048201526014602482015273283632b0b9b2903232b837b9b4ba1036b7b9329760611b6044820152606401610713565b6001600160a01b038816600090815260038601602052604081208054899290611396908490612a05565b909155506113a5905033611ee0565b6006546001600160a01b038981169116141561148c57604051600090339089908381818185875af1925050503d80600081146113fd576040519150601f19603f3d011682016040523d82523d6000602084013e611402565b606091505b50509050806114535760405162461bcd60e51b815260206004820152601c60248201527f6661696c656420746f2073656e642065746820696e7465726573742e000000006044820152606401610713565b6006546001600160a01b0316600090815260016020526040812060040180548a9290611480908490612a05565b90915550611544915050565b60075460405163a9059cbb60e01b8152336004820152602481018990526001600160a01b039091169063a9059cbb90604401602060405180830381600087803b1580156114d857600080fd5b505af11580156114ec573d6000803e3d6000fd5b505050506040513d601f19601f820116820180604052508101906115109190612777565b506007546001600160a01b03166000908152600160205260408120600401805489929061153e908490612a05565b90915550505b5050505050505050565b6060600060025467ffffffffffffffff81111561157b57634e487b7160e01b600052604160045260246000fd5b6040519080825280602002602001820160405280156115b457816020015b6115a1612663565b8152602001906001900390816115995790505b50905060015b6002546115c8906001612a05565b811015611620576115d88161236a565b826115e4600184612b47565b8151811061160257634e487b7160e01b600052603260045260246000fd5b6020026020010181905250808061161890612b5e565b9150506115ba565b50919050565b61162e612663565b6001600160a01b038216600090815260046020526040812054906116518261236a565b949350505050565b6006546001600160a01b0316600090815260016020818152604092839020835160a081018552815481529281015491830182905260028101549383019390935260038084015460608481019190915260049094015460808401526116bd9190611ec1565b602082015260408101516116d2906003611ec1565b6040808301919091526007546001600160a01b031660009081526001602081815291839020835160a0810185528154815291810154928201839052600281015493820193909352600380840154606083015260049093015460808201529161173a9190611ec1565b6020820152604081015161174f906003611ec1565b6040828101919091528051600280825260608201909252600091816020015b6117a06040518060a0016040528060008152602001600081526020016000815260200160008152602001600081525090565b81526020019060019003908161176e57905050905082816000815181106117d757634e487b7160e01b600052603260045260246000fd5b6020026020010181905250818160018151811061180457634e487b7160e01b600052603260045260246000fd5b60209081029190910101529392505050565b6000546001600160a01b031633146118405760405162461bcd60e51b815260040161071390612945565b600080546040516001600160a01b03909116907f8be0079c531659141344cd1fd0a4f28419497f9722a3daafe3b4186f6b6457e0908390a3600080546001600160a01b0319169055565b33600090815260046020526040902054806118b75760405162461bcd60e51b81526004016107139061297a565b60008181526003602052604090206118ce33611ee0565b600554600682015460405163a9059cbb60e01b815233600482015260248101919091526001600160a01b039091169063a9059cbb90604401602060405180830381600087803b15801561192057600080fd5b505af1158015611934573d6000803e3d6000fd5b505050506040513d601f19601f820116820180604052508101906119589190612777565b50600060069091015550565b600061196f82611ee0565b6001600160a01b038083166000908152600460209081526040808320548352600380835281842060065490951680855290850183528184205460058601909352908320546119c09261015c91612a05565b6007546001600160a01b031660008181526003850160209081526040808320546005880190925282205493945090926119fd929161015c91612a05565b9050611a098183612a05565b95945050505050565b6000611a1d82611ee0565b6001600160a01b0380831660009081526004602081815260408084205484526003825280842060065490951680855260028601835281852054938601909252832054611a6c9261015c91612a05565b6007546001600160a01b031660008181526002850160209081526040808320546004880190925282205493945090926119fd929161015c91612a05565b6000546001600160a01b03163314611ad35760405162461bcd60e51b815260040161071390612945565b611adc816125a3565b50565b60008111611b225760405162461bcd60e51b815260206004820152601060248201526f063616e277420776974686472617720360841b6044820152606401610713565b3360009081526004602052604090205480611b4f5760405162461bcd60e51b81526004016107139061297a565b6000818152600360205260409020611b6633611ee0565b6000611b7133611a12565b90506000611b7e33611964565b9050611b8a8686610439565b611b949082612a05565b6001600160a01b038716600090815260016020526040902054606490611bba9085612b28565b611bc49190612a1d565b11611c285760405162461bcd60e51b815260206004820152602e60248201527f5769746864726177206661696c65642e596f7520646f6e6f742068617665206160448201526d373c9031b7b63630ba32b930b61760911b6064820152608401610713565b6001600160a01b038616600090815260048401602090815260408083208390556002860190915281208054879290611c61908490612b47565b90915550506006546001600160a01b0387811691161415611d3c576001600160a01b03861660009081526004840160205260408120543390611ca4908890612a05565b604051600081818185875af1925050503d8060008114611ce0576040519150601f19603f3d011682016040523d82523d6000602084013e611ce5565b606091505b5050905080611d365760405162461bcd60e51b815260206004820152601c60248201527f6661696c656420746f2073656e642065746820696e7465726573742e000000006044820152606401610713565b50611df1565b6007546001600160a01b03878116600090815260048601602052604090205491169063a9059cbb903390611d71908990612a05565b6040516001600160e01b031960e085901b1681526001600160a01b0390921660048301526024820152604401602060405180830381600087803b158015611db757600080fd5b505af1158015611dcb573d6000803e3d6000fd5b505050506040513d601f19601f82011682018060405250810190611def9190612777565b505b505050505050565b6000546001600160a01b03163314611e235760405162461bcd60e51b815260040161071390612945565b600080546040516001600160a01b039091169083908381818185875af1925050503d8060008114611e70576040519150601f19603f3d011682016040523d82523d6000602084013e611e75565b606091505b5050905080611ebd5760405162461bcd60e51b81526020600482015260146024820152732330b4b632b2103a379039b2b7321022ba3432b960611b6044820152606401610713565b5050565b6000611ecd8284612a1d565b9392505050565b6000611ecd8284612b28565b6001600160a01b038116600090815260046020526040902054611f455760405162461bcd60e51b815260206004820152601a60248201527f557365722073686f756c64206465706f736974206265666f72650000000000006044820152606401610713565b6001600160a01b03811660009081526004602090815260408083205483526003909152812060018101549091611f7b8242612b47565b600654600a546001600160a01b0390911660008181526001602081815260408084209092015460028a01909152912054939450611fd4939192918591611fc091612b28565b611fca9190612b28565b61015c9190612a1d565b836006016000828254611fe79190612a05565b9091555050600a546006546001600160a01b031660009081526001602081815260408084209092015460028801909152912054839161202591612b28565b61202f9190612b28565b6120399190612a1d565b6006546001600160a01b0316600090815260048501602052604081208054909190612065908490612a05565b9091555050600a546006546001600160a01b0316600090815260016020908152604080832060020154600388019092529091205483916120a491612b28565b6120ae9190612b28565b6120b89190612a1d565b6006546001600160a01b03166000908152600585016020526040812080549091906120e4908490612a05565b9091555050600754600a546001600160a01b039091166000818152600160208181526040808420909201546002890190915291205461212a93918591611fc09190612b28565b83600601600082825461213d9190612a05565b9091555050600a546007546001600160a01b031660009081526001602081815260408084209092015460028801909152912054839161217b91612b28565b6121859190612b28565b61218f9190612a1d565b6007546001600160a01b03166000908152600485016020526040812080549091906121bb908490612a05565b9091555050600a546007546001600160a01b0316600090815260016020908152604080832060020154600388019092529091205483916121fa91612b28565b6122049190612b28565b61220e9190612a1d565b6007546001600160a01b031660009081526005850160205260408120805490919061223a908490612a05565b909155505042600190930192909255505050565b6001600160a01b0381166000908152600460205260409020546122b35760405162461bcd60e51b815260206004820152601a60248201527f557365722073686f756c64206465706f736974206265666f72650000000000006044820152606401610713565b6001600160a01b039081166000908152600460208181526040808420548452600380835281852060068054881687526002820180865284882088905581548916885292820180865284882088905581548916885295820180865284882088905581548916885260058301808752858920899055600780548b168a5294875285892089905584548a16895296865284882088905583548916885285528387208790559154909616855292909152822082905590910155565b612372612663565b811561252357600082815260036020818152604080842081516101c081018352600680546001600160a01b0390811680895260028501808852868a2054808652600754909316808b52818952878b2054868a0152828b52988601808952878b205486890152898b528852868a20546060860152818a5260058601808952878b20546080870152898b528852868a205460a0860152818a5260048601808952878b205460c08701819052998b5288529589205460e0850152918401546101008401528188529390945290949390926101208401926124529261015c91612a05565b81526007546001600160a01b0316600081815260048601602090815260408083205460028901835292205493019261248e929161015c91612a05565b81526006546001600160a01b031660008181526005860160209081526040808320546003890183529220549301926124ca929161015c91612a05565b81526007546001600160a01b03166000818152600586016020908152604080832054600389018352922054930192612506929161015c91612a05565b815292546001600160a01b03166020909301929092525092915050565b604051806101c0016040528060008152602001600081526020016000815260200160008152602001600081526020016000815260200160008152602001600081526020016000815260200160008152602001600081526020016000815260200160008152602001336001600160a01b03168152509050919050565b919050565b6001600160a01b0381166126085760405162461bcd60e51b815260206004820152602660248201527f4f776e61626c653a206e6577206f776e657220697320746865207a65726f206160448201526564647265737360d01b6064820152608401610713565b600080546040516001600160a01b03808516939216917f8be0079c531659141344cd1fd0a4f28419497f9722a3daafe3b4186f6b6457e091a3600080546001600160a01b0319166001600160a01b0392909216919091179055565b604051806101c001604052806000815260200160008152602001600081526020016000815260200160008152602001600081526020016000815260200160008152602001600081526020016000815260200160008152602001600081526020016000815260200160006001600160a01b031681525090565b80356001600160a01b038116811461259e57600080fd5b600060208284031215612703578081fd5b611ecd826126db565b600080600060608486031215612720578182fd5b612729846126db565b9250612737602085016126db565b9150612745604085016126db565b90509250925092565b60008060408385031215612760578182fd5b612769836126db565b946020939093013593505050565b600060208284031215612788578081fd5b81518015158114611ecd578182fd5b6000602082840312156127a8578081fd5b5035919050565b6000602082840312156127c0578081fd5b5051919050565b6000602082840312156127d8578081fd5b815160ff81168114611ecd578182fd5b805182526020810151602083015260408101516040830152606081015160608301526080810151608083015260a081015160a083015260c081015160c083015260e081015160e08301526101008082015181840152506101208082015181840152506101408082015181840152506101608082015181840152506101808082015181840152506101a080820151610a79828501826001600160a01b03169052565b6020808252825182820181905260009190848201906040850190845b818110156128f6576128e383855180518252602081015160208301526040810151604083015260608101516060830152608081015160808301525050565b9284019260a092909201916001016128a5565b50909695505050505050565b6020808252825182820181905260009190848201906040850190845b818110156128f6576129318385516127e8565b928401926101c0929092019160010161291e565b6020808252818101527f4f776e61626c653a2063616c6c6572206973206e6f7420746865206f776e6572604082015260600190565b60208082526023908201527f5573657220696e6465782073686f756c6420626520626967676572207468616e60408201526210181760e91b606082015260800190565b60a08101610488828480518252602081015160208301526040810151604083015260608101516060830152608081015160808301525050565b6101c0810161048882846127e8565b60008219821115612a1857612a18612b79565b500190565b600082612a3857634e487b7160e01b81526012600452602481fd5b500490565b600181815b80851115612a78578160001904821115612a5e57612a5e612b79565b80851615612a6b57918102915b93841c9390800290612a42565b509250929050565b6000611ecd8383600082612a9657506001610488565b81612aa357506000610488565b8160018114612ab95760028114612ac357612adf565b6001915050610488565b60ff841115612ad457612ad4612b79565b50506001821b610488565b5060208310610133831016604e8410600b8410161715612b02575081810a610488565b612b0c8383612a3d565b8060001904821115612b2057612b20612b79565b029392505050565b6000816000190483118215151615612b4257612b42612b79565b500290565b600082821015612b5957612b59612b79565b500390565b6000600019821415612b7257612b72612b79565b5060010190565b634e487b7160e01b600052601160045260246000fdfea264697066735822122011794a6911274dbb8f9a1ecf0f5d3e6197851d2bc7a37a242c8abfb1bf55762964736f6c63430008040033",
  "linkReferences": {},
  "deployedLinkReferences": {}
}