{
  "_format": "hh-sol-artifact-1",
  "contractName": "Lending",
  "sourceName": "contracts/Lending.sol",
  "abi": [
    {
      "inputs": [
        {
          "internalType": "address",
          "name": "_rewardAddress",
          "type": "address"
        },
        {
          "internalType": "address",
          "name": "_ethAdddress",
          "type": "address"
        },
        {
          "internalType": "address",
          "name": "_usdtAddress",
          "type": "address"
        }
      ],
      "stateMutability": "nonpayable",
      "type": "constructor"
    },
    {
      "anonymous": false,
      "inputs": [
        {
          "indexed": true,
          "internalType": "address",
          "name": "previousOwner",
          "type": "address"
        },
        {
          "indexed": true,
          "internalType": "address",
          "name": "newOwner",
          "type": "address"
        }
      ],
      "name": "OwnershipTransferred",
      "type": "event"
    },
    {
      "stateMutability": "payable",
      "type": "fallback"
    },
    {
      "inputs": [
        {
          "internalType": "address",
          "name": "_tokenAddress",
          "type": "address"
        },
        {
          "internalType": "uint256",
          "name": "_amount",
          "type": "uint256"
        }
      ],
      "name": "borrow",
      "outputs": [],
      "stateMutability": "nonpayable",
      "type": "function"
    },
    {
      "inputs": [
        {
          "internalType": "address",
          "name": "_tokenAddress",
          "type": "address"
        },
        {
          "internalType": "uint256",
          "name": "_amount",
          "type": "uint256"
        }
      ],
      "name": "calcTokenPrice",
      "outputs": [
        {
          "internalType": "uint256",
          "name": "",
          "type": "uint256"
        }
      ],
      "stateMutability": "view",
      "type": "function"
    },
    {
      "inputs": [
        {
          "internalType": "uint256",
          "name": "amount",
          "type": "uint256"
        }
      ],
      "name": "claimETH",
      "outputs": [],
      "stateMutability": "nonpayable",
      "type": "function"
    },
    {
      "inputs": [],
      "name": "claimPeko",
      "outputs": [],
      "stateMutability": "nonpayable",
      "type": "function"
    },
    {
      "inputs": [
        {
          "internalType": "address",
          "name": "tokenAddress",
          "type": "address"
        },
        {
          "internalType": "uint256",
          "name": "amount",
          "type": "uint256"
        }
      ],
      "name": "claimToken",
      "outputs": [],
      "stateMutability": "nonpayable",
      "type": "function"
    },
    {
      "inputs": [
        {
          "internalType": "address",
          "name": "_account",
          "type": "address"
        }
      ],
      "name": "collateral",
      "outputs": [
        {
          "internalType": "uint256",
          "name": "",
          "type": "uint256"
        }
      ],
      "stateMutability": "nonpayable",
      "type": "function"
    },
    {
      "inputs": [
        {
          "internalType": "address",
          "name": "_account",
          "type": "address"
        }
      ],
      "name": "debt",
      "outputs": [
        {
          "internalType": "uint256",
          "name": "",
          "type": "uint256"
        }
      ],
      "stateMutability": "nonpayable",
      "type": "function"
    },
    {
      "inputs": [
        {
          "internalType": "address",
          "name": "_tokenAddress",
          "type": "address"
        },
        {
          "internalType": "uint256",
          "name": "_amount",
          "type": "uint256"
        }
      ],
      "name": "deposit",
      "outputs": [],
      "stateMutability": "payable",
      "type": "function"
    },
    {
      "inputs": [],
      "name": "getEthValue",
      "outputs": [
        {
          "internalType": "uint256",
          "name": "",
          "type": "uint256"
        }
      ],
      "stateMutability": "view",
      "type": "function"
    },
    {
      "inputs": [],
      "name": "getLiquidationThreshhold",
      "outputs": [
        {
          "internalType": "uint256",
          "name": "",
          "type": "uint256"
        }
      ],
      "stateMutability": "view",
      "type": "function"
    },
    {
      "inputs": [],
      "name": "getMarketInfo",
      "outputs": [
        {
          "internalType": "uint256",
          "name": "",
          "type": "uint256"
        },
        {
          "internalType": "uint256",
          "name": "",
          "type": "uint256"
        }
      ],
      "stateMutability": "view",
      "type": "function"
    },
    {
      "inputs": [
        {
          "internalType": "address",
          "name": "_poolAddress",
          "type": "address"
        }
      ],
      "name": "getPoolInfo",
      "outputs": [
        {
          "components": [
            {
              "internalType": "uint256",
              "name": "LTV",
              "type": "uint256"
            },
            {
              "internalType": "uint256",
              "name": "depositApy",
              "type": "uint256"
            },
            {
              "internalType": "uint256",
              "name": "borrowApy",
              "type": "uint256"
            },
            {
              "internalType": "uint256",
              "name": "totalAmount",
              "type": "uint256"
            },
            {
              "internalType": "uint256",
              "name": "borrowAmount",
              "type": "uint256"
            }
          ],
          "internalType": "struct Lending.PoolInfo",
          "name": "",
          "type": "tuple"
        }
      ],
      "stateMutability": "view",
      "type": "function"
    },
    {
      "inputs": [
        {
          "internalType": "address",
          "name": "_account",
          "type": "address"
        }
      ],
      "name": "getUserInfo",
      "outputs": [
        {
          "components": [
            {
              "internalType": "uint256",
              "name": "ethDepositAmount",
              "type": "uint256"
            },
            {
              "internalType": "uint256",
              "name": "usdtDepositAmount",
              "type": "uint256"
            },
            {
              "internalType": "uint256",
              "name": "ethBorrowAmount",
              "type": "uint256"
            },
            {
              "internalType": "uint256",
              "name": "usdtBorrowAmount",
              "type": "uint256"
            },
            {
              "internalType": "uint256",
              "name": "ethInterestAmount",
              "type": "uint256"
            },
            {
              "internalType": "uint256",
              "name": "usdtInterestAmount",
              "type": "uint256"
            },
            {
              "internalType": "uint256",
              "name": "ethRewardAmount",
              "type": "uint256"
            },
            {
              "internalType": "uint256",
              "name": "usdtRewardAmount",
              "type": "uint256"
            },
            {
              "internalType": "uint256",
              "name": "pekoRewardAmount",
              "type": "uint256"
            },
            {
              "internalType": "uint256",
              "name": "ethDepositTotalInUsdtAmount",
              "type": "uint256"
            },
            {
              "internalType": "uint256",
              "name": "usdtDepositTotalAmount",
              "type": "uint256"
            },
            {
              "internalType": "uint256",
              "name": "ethBorrowTotalInUsdtAmount",
              "type": "uint256"
            },
            {
              "internalType": "uint256",
              "name": "usdtBorrowTotalAmount",
              "type": "uint256"
            },
            {
              "internalType": "address",
              "name": "accountAddress",
              "type": "address"
            }
          ],
          "internalType": "struct Lending.UserInfoForDisplay",
          "name": "",
          "type": "tuple"
        }
      ],
      "stateMutability": "view",
      "type": "function"
    },
    {
      "inputs": [
        {
          "internalType": "address",
          "name": "_account",
          "type": "address"
        }
      ],
      "name": "liquidate",
      "outputs": [],
      "stateMutability": "payable",
      "type": "function"
    },
    {
      "inputs": [],
      "name": "listPools",
      "outputs": [
        {
          "components": [
            {
              "internalType": "uint256",
              "name": "LTV",
              "type": "uint256"
            },
            {
              "internalType": "uint256",
              "name": "depositApy",
              "type": "uint256"
            },
            {
              "internalType": "uint256",
              "name": "borrowApy",
              "type": "uint256"
            },
            {
              "internalType": "uint256",
              "name": "totalAmount",
              "type": "uint256"
            },
            {
              "internalType": "uint256",
              "name": "borrowAmount",
              "type": "uint256"
            }
          ],
          "internalType": "struct Lending.PoolInfo[]",
          "name": "",
          "type": "tuple[]"
        }
      ],
      "stateMutability": "view",
      "type": "function"
    },
    {
      "inputs": [],
      "name": "listUserInfo",
      "outputs": [
        {
          "components": [
            {
              "internalType": "uint256",
              "name": "ethDepositAmount",
              "type": "uint256"
            },
            {
              "internalType": "uint256",
              "name": "usdtDepositAmount",
              "type": "uint256"
            },
            {
              "internalType": "uint256",
              "name": "ethBorrowAmount",
              "type": "uint256"
            },
            {
              "internalType": "uint256",
              "name": "usdtBorrowAmount",
              "type": "uint256"
            },
            {
              "internalType": "uint256",
              "name": "ethInterestAmount",
              "type": "uint256"
            },
            {
              "internalType": "uint256",
              "name": "usdtInterestAmount",
              "type": "uint256"
            },
            {
              "internalType": "uint256",
              "name": "ethRewardAmount",
              "type": "uint256"
            },
            {
              "internalType": "uint256",
              "name": "usdtRewardAmount",
              "type": "uint256"
            },
            {
              "internalType": "uint256",
              "name": "pekoRewardAmount",
              "type": "uint256"
            },
            {
              "internalType": "uint256",
              "name": "ethDepositTotalInUsdtAmount",
              "type": "uint256"
            },
            {
              "internalType": "uint256",
              "name": "usdtDepositTotalAmount",
              "type": "uint256"
            },
            {
              "internalType": "uint256",
              "name": "ethBorrowTotalInUsdtAmount",
              "type": "uint256"
            },
            {
              "internalType": "uint256",
              "name": "usdtBorrowTotalAmount",
              "type": "uint256"
            },
            {
              "internalType": "address",
              "name": "accountAddress",
              "type": "address"
            }
          ],
          "internalType": "struct Lending.UserInfoForDisplay[]",
          "name": "",
          "type": "tuple[]"
        }
      ],
      "stateMutability": "view",
      "type": "function"
    },
    {
      "inputs": [],
      "name": "owner",
      "outputs": [
        {
          "internalType": "address",
          "name": "",
          "type": "address"
        }
      ],
      "stateMutability": "view",
      "type": "function"
    },
    {
      "inputs": [],
      "name": "renounceOwnership",
      "outputs": [],
      "stateMutability": "nonpayable",
      "type": "function"
    },
    {
      "inputs": [
        {
          "internalType": "address",
          "name": "_tokenAddress",
          "type": "address"
        },
        {
          "internalType": "uint256",
          "name": "_amount",
          "type": "uint256"
        }
      ],
      "name": "repay",
      "outputs": [],
      "stateMutability": "payable",
      "type": "function"
    },
    {
      "inputs": [
        {
          "internalType": "uint256",
          "name": "_r0",
          "type": "uint256"
        },
        {
          "internalType": "uint256",
          "name": "_uOption",
          "type": "uint256"
        },
        {
          "internalType": "uint256",
          "name": "_rSlope1",
          "type": "uint256"
        },
        {
          "internalType": "uint256",
          "name": "_rSlope2",
          "type": "uint256"
        }
      ],
      "name": "setBorrowApy",
      "outputs": [],
      "stateMutability": "nonpayable",
      "type": "function"
    },
    {
      "inputs": [
        {
          "internalType": "uint256",
          "name": "limit",
          "type": "uint256"
        }
      ],
      "name": "setLiquidationThreshhold",
      "outputs": [],
      "stateMutability": "nonpayable",
      "type": "function"
    },
    {
      "inputs": [
        {
          "internalType": "uint256",
          "name": "_r0",
          "type": "uint256"
        },
        {
          "internalType": "uint256",
          "name": "_uOption",
          "type": "uint256"
        },
        {
          "internalType": "uint256",
          "name": "_rSlope1",
          "type": "uint256"
        },
        {
          "internalType": "uint256",
          "name": "_rSlope2",
          "type": "uint256"
        }
      ],
      "name": "setSupplyApy",
      "outputs": [],
      "stateMutability": "nonpayable",
      "type": "function"
    },
    {
      "inputs": [
        {
          "internalType": "address",
          "name": "newOwner",
          "type": "address"
        }
      ],
      "name": "transferOwnership",
      "outputs": [],
      "stateMutability": "nonpayable",
      "type": "function"
    },
    {
      "inputs": [
        {
          "internalType": "address",
          "name": "_tokenAddress",
          "type": "address"
        },
        {
          "internalType": "uint256",
          "name": "_amount",
          "type": "uint256"
        }
      ],
      "name": "withdraw",
      "outputs": [],
      "stateMutability": "nonpayable",
      "type": "function"
    },
    {
      "stateMutability": "payable",
      "type": "receive"
    }
  ],
  "bytecode": "0x60806040526003601055655af3107a400060115561013d601255601380546001600160a01b03191673245e775a46b1aadacbd48279cf0731cf186cf2b21790553480156200004c57600080fd5b5060405162003295380380620032958339810160408190526200006f916200028a565b600080546001600160a01b031916339081178255604051909182917f8be0079c531659141344cd1fd0a4f28419497f9722a3daafe3b4186f6b6457e0908290a350600d80546001600160a01b038086166001600160a01b031992831617909255600e80548584169083168117909155600f80549385169390921692909217905562000103906050606460c860008062000154565b600f5462000123906001600160a01b03166050606460c860008062000154565b6200013760c860466107d0611770620001ab565b6200014b606460466103e86107d06200020e565b50505062000300565b6001600160a01b03861660009081526009602052604090208581556012546200017e9086620002d4565b6001820155601254620001929085620002d4565b6002820155600381019290925560049091015550505050565b6000546001600160a01b03163314620001fa5760405162461bcd60e51b815260206004820181905260248201526000805160206200327583398151915260448201526064015b60405180910390fd5b600593909355600691909155600755600855565b6000546001600160a01b03163314620002595760405162461bcd60e51b81526020600482018190526024820152600080516020620032758339815191526044820152606401620001f1565b600193909355600291909155600355600455565b80516001600160a01b03811681146200028557600080fd5b919050565b600080600060608486031215620002a057600080fd5b620002ab846200026d565b9250620002bb602085016200026d565b9150620002cb604085016200026d565b90509250925092565b8082028115828204841417620002fa57634e487b7160e01b600052601160045260246000fd5b92915050565b612f6580620003106000396000f3fe6080604052600436106101435760003560e01c8063660fd831116100b0578063a079722d1161006c578063a079722d14610387578063a5fdc5de146103a7578063e124787f146103c7578063f2fde38b146103dc578063f3fef3a3146103fc578063fe96973a1461041c57005b8063660fd831146102d357806368795862146102f3578063715018a614610315578063838afb1e1461032a5780638da5cb5b1461033f5780639b6c56ec1461036757005b80632f865568116100ff5780632f8655681461021e57806347e7ef24146102315780634b8a3529146102445780635063e91a14610264578063616571e7146102865780636386c1c7146102a657005b806305cb9fde1461014c57806306bfa9381461017f5780631698755f146101ac5780631c5a859b146101cc57806322867d78146101e157806323341a05146101f457005b3661014a57005b005b34801561015857600080fd5b5061016c610167366004612b0c565b61043c565b6040519081526020015b60405180910390f35b34801561018b57600080fd5b5061019f61019a366004612b36565b610493565b6040516101769190612b51565b3480156101b857600080fd5b5061014a6101c7366004612b0c565b610545565b3480156101d857600080fd5b5061016c61060f565b61014a6101ef366004612b0c565b6106a0565b34801561020057600080fd5b506102096109d4565b60408051928352602083019190915201610176565b61014a61022c366004612b36565b610a5b565b61014a61023f366004612b0c565b610eeb565b34801561025057600080fd5b5061014a61025f366004612b0c565b61112c565b34801561027057600080fd5b50610279611479565b6040516101769190612c2b565b34801561029257600080fd5b5061014a6102a1366004612c7a565b611535565b3480156102b257600080fd5b506102c66102c1366004612b36565b611564565b6040516101769190612c93565b3480156102df57600080fd5b5061014a6102ee366004612ca2565b611597565b3480156102ff57600080fd5b506103086115d5565b6040516101769190612cd4565b34801561032157600080fd5b5061014a61177d565b34801561033657600080fd5b5061014a6117f1565b34801561034b57600080fd5b506000546040516001600160a01b039091168152602001610176565b34801561037357600080fd5b5061016c610382366004612b36565b6118bc565b34801561039357600080fd5b5061014a6103a2366004612ca2565b61196a565b3480156103b357600080fd5b5061016c6103c2366004612b36565b6119a8565b3480156103d357600080fd5b5060105461016c565b3480156103e857600080fd5b5061014a6103f7366004612b36565b611a41565b34801561040857600080fd5b5061014a610417366004612b0c565b611a77565b34801561042857600080fd5b5061014a610437366004612c7a565b611df0565b600f546000906001600160a01b039081169084160361045c57508061048d565b600061046661060f565b90506104896c0c9f2c9cd04674edea400000006104838584612d57565b90611eb8565b9150505b92915050565b6104c56040518060a0016040528060008152602001600081526020016000815260200160008152602001600081525090565b6001600160a01b038216600090815260096020908152604091829020825160a081018452815481526001820154928101839052600282015493810193909352600381015460608401526004015460808301526012546105249190611eb8565b6020820152601254604082015161053a91611eb8565b604082015292915050565b6000546001600160a01b031633146105785760405162461bcd60e51b815260040161056f90612d6e565b60405180910390fd5b816001600160a01b031663a9059cbb6105996000546001600160a01b031690565b6040516001600160e01b031960e084901b1681526001600160a01b039091166004820152602481018490526044016020604051808303816000875af11580156105e6573d6000803e3d6000fd5b505050506040513d601f19601f8201168201806040525081019061060a9190612da3565b505050565b600080601360009054906101000a90046001600160a01b03166001600160a01b031663feaf968c6040518163ffffffff1660e01b815260040160a060405180830381865afa158015610665573d6000803e3d6000fd5b505050506040513d601f19601f820116820180604052508101906106899190612ddf565b505050915050806402540be40061048d9190612e2f565b6106a933611ecb565b600081116106e95760405162461bcd60e51b815260206004820152600d60248201526c063616e2774207265706179203609c1b604482015260640161056f565b336000908152600c6020526040902054806107165760405162461bcd60e51b815260040161056f90612e5f565b6000818152600b602090815260408083206001600160a01b03871684526005810190925282205490919084101561077c576001600160a01b038516600090815260058301602052604081208054869290610771908490612ea2565b9091555061084a9050565b6001600160a01b038516600090815260038301602090815260408083205460058601909252909120546107af9190612eb5565b8411156107d757506001600160a01b03841660009081526003820160205260409020546107ff565b6001600160a01b03851660009081526005830160205260409020546107fc9085612ea2565b90505b6001600160a01b038516600090815260038301602052604081208054839290610829908490612ea2565b90915550506001600160a01b03851660009081526005830160205260408120555b600f546001600160a01b039081169086160361094e57600f546040516323b872dd60e01b8152336004820152306024820152604481018690526001600160a01b03909116906323b872dd906064016020604051808303816000875af11580156108b7573d6000803e3d6000fd5b505050506040513d601f19601f820116820180604052508101906108db9190612da3565b6109165760405162461bcd60e51b815260206004820152600c60248201526b14995c185e4819985a5b195960a21b604482015260640161056f565b600f546001600160a01b031660009081526009602052604081206004018054839290610943908490612ea2565b909155506109c49050565b833410156109915760405162461bcd60e51b815260206004820152601060248201526f283632b0b9b2903830bc9036b7b9329760811b604482015260640161056f565b600e546001600160a01b0316600090815260096020526040812060040180548392906109be908490612ea2565b90915550505b6109cd33611ecb565b5050505050565b600e546001600160a01b03908116600081815260096020526040808220600f549094168252812060038082015490850154929485949093610a15919061043c565b610a1f9190612eb5565b8160040154610a47600e60009054906101000a90046001600160a01b0316856004015461043c565b610a519190612eb5565b9350935050509091565b6001600160a01b0381166000908152600c602052604090205480610a915760405162461bcd60e51b815260040161056f90612e5f565b6000818152600b6020526040812090610aa9846119a8565b90506000610ab6856118bc565b90506000610ae160105484610acb9190612d57565b610ad6846064612d57565b610483906064612d57565b905060648111610b335760405162461bcd60e51b815260206004820152601f60248201527f54686973206973206e6f7420656e61626c6564206c69717569646174696f6e00604482015260640161056f565b600e546001600160a01b0316600090815260048501602090815260408083205460028801909252822054610b679190612eb5565b600f546001600160a01b0316600090815260048701602090815260408083205460028a019092528220549293509091610ba09190612eb5565b600e546001600160a01b0316600090815260058801602090815260408083205460038b019092528220549293509091610bd99190612eb5565b600f546001600160a01b0316600090815260058901602090815260408083205460038c019092528220549293509091610c129190612eb5565b9050610c2082612710611eb8565b610c2c9061270f612d57565b341015610c6c5760405162461bcd60e51b815260206004820152600e60248201526d09cdee840cadcdeeaced040cae8d60931b604482015260640161056f565b600f546001600160a01b03166323b872dd3330610c8b85612710611eb8565b610c979061270f612d57565b6040516001600160e01b031960e086901b1681526001600160a01b03938416600482015292909116602483015260448201526064016020604051808303816000875af1158015610ceb573d6000803e3d6000fd5b505050506040513d601f19601f82011682018060405250810190610d0f9190612da3565b610d4c5760405162461bcd60e51b815260206004820152600e60248201526d19195c1bdcda5d0819985a5b195960921b604482015260640161056f565b604051600090339086908381818185875af1925050503d8060008114610d8e576040519150601f19603f3d011682016040523d82523d6000602084013e610d93565b606091505b5050905080610dda5760405162461bcd60e51b81526020600482015260136024820152723330b4b632b2103a379039b2b7321032ba341760691b604482015260640161056f565b600f5460405163a9059cbb60e01b8152336004820152602481018690526001600160a01b039091169063a9059cbb906044016020604051808303816000875af1158015610e2b573d6000803e3d6000fd5b505050506040513d601f19601f82011682018060405250810190610e4f9190612da3565b50600d5460068a015460405163a9059cbb60e01b815233600482015260248101919091526001600160a01b039091169063a9059cbb906044016020604051808303816000875af1158015610ea7573d6000803e3d6000fd5b505050506040513d601f19601f82011682018060405250810190610ecb9190612da3565b50610ed58b612055565b610ede33611ecb565b5050505050505050505050565b60008111610f2d5760405162461bcd60e51b815260206004820152600f60248201526e063616e2774206465706f736974203608c1b604482015260640161056f565b336000908152600c60205260408120548103610f77576001600a6000828254610f569190612eb5565b9091555050600a54336000908152600c602052604090208190559050610f92565b50336000818152600c602052604090205490610f9290611ecb565b6000818152600b6020908152604080832080546001600160a01b031916331781554260018201556001600160a01b0387168452600281019092528220805491928592610fdf908490612eb5565b9091555050600f546001600160a01b03908116908516036110ea57600f546040516323b872dd60e01b8152336004820152306024820152604481018590526001600160a01b03909116906323b872dd906064016020604051808303816000875af1158015611051573d6000803e3d6000fd5b505050506040513d601f19601f820116820180604052508101906110759190612da3565b6110b25760405162461bcd60e51b815260206004820152600e60248201526d19195c1bdcda5d0819985a5b195960921b604482015260640161056f565b600f546001600160a01b0316600090815260096020526040812060030180548592906110df908490612eb5565b9091555061111d9050565b600e546001600160a01b031660009081526009602052604081206003018054859290611117908490612eb5565b90915550505b61112633611ecb565b50505050565b6000811161116d5760405162461bcd60e51b815260206004820152600e60248201526d063616e277420626f72726f7720360941b604482015260640161056f565b336000908152600c60205260409020548061119a5760405162461bcd60e51b815260040161056f90612e5f565b6000818152600b60205260408120906111b2336119a8565b905060006111bf336118bc565b9050808210156112115760405162461bcd60e51b815260206004820152601e60248201527f596f7520646f6e6f74206861766520616e7920636f6c6c61746572616c2e0000604482015260640161056f565b600061121d878761043c565b6001600160a01b0388166000908152600960205260409020549091506112438383612eb5565b606461124f8387612d57565b6112599190612ec8565b1161129d5760405162461bcd60e51b8152602060048201526014602482015273283632b0b9b2903232b837b9b4ba1036b7b9329760611b604482015260640161056f565b6001600160a01b0388166000908152600386016020526040812080548992906112c7908490612eb5565b909155506112d6905033611ecb565b600e546001600160a01b03908116908916036113bd57604051600090339089908381818185875af1925050503d806000811461132e576040519150601f19603f3d011682016040523d82523d6000602084013e611333565b606091505b50509050806113845760405162461bcd60e51b815260206004820152601c60248201527f6661696c656420746f2073656e642065746820696e7465726573742e00000000604482015260640161056f565b600e546001600160a01b0316600090815260096020526040812060040180548a92906113b1908490612eb5565b90915550611466915050565b600f5460405163a9059cbb60e01b8152336004820152602481018990526001600160a01b039091169063a9059cbb906044016020604051808303816000875af115801561140e573d6000803e3d6000fd5b505050506040513d601f19601f820116820180604052508101906114329190612da3565b50600f546001600160a01b031660009081526009602052604081206004018054899290611460908490612eb5565b90915550505b61146f33611ecb565b5050505050505050565b60606000600a5467ffffffffffffffff81111561149857611498612eea565b6040519080825280602002602001820160405280156114d157816020015b6114be612a7d565b8152602001906001900390816114b65790505b50905060015b600a546114e5906001612eb5565b81101561152f576114f581612284565b82611501600184612ea2565b8151811061151157611511612f00565b6020026020010181905250808061152790612f16565b9150506114d7565b50919050565b6000546001600160a01b0316331461155f5760405162461bcd60e51b815260040161056f90612d6e565b601055565b61156c612a7d565b6001600160a01b0382166000908152600c60205260408120549061158f82612284565b949350505050565b6000546001600160a01b031633146115c15760405162461bcd60e51b815260040161056f90612d6e565b600593909355600691909155600755600855565b600e546001600160a01b0316600090815260096020908152604091829020825160a0810184528154815260018201549281018390526002820154938101939093526003810154606084810191909152600490910154608084015260125490929161163e91611eb8565b6020820152601254604082015161165491611eb8565b604080830191909152600f546001600160a01b031660009081526009602090815290829020825160a081018452815481526001820154928101839052600282015493810193909352600381015460608401526004015460808301526012546116bc9190611eb8565b602082015260125460408201516116d291611eb8565b6040828101919091528051600280825260608201909252600091816020015b6117236040518060a0016040528060008152602001600081526020016000815260200160008152602001600081525090565b8152602001906001900390816116f1579050509050828160008151811061174c5761174c612f00565b6020026020010181905250818160018151811061176b5761176b612f00565b60209081029190910101529392505050565b6000546001600160a01b031633146117a75760405162461bcd60e51b815260040161056f90612d6e565b600080546040516001600160a01b03909116907f8be0079c531659141344cd1fd0a4f28419497f9722a3daafe3b4186f6b6457e0908390a3600080546001600160a01b0319169055565b336000908152600c60205260409020548061181e5760405162461bcd60e51b815260040161056f90612e5f565b6000818152600b6020526040902061183533611ecb565b600d54600682015460405163a9059cbb60e01b815233600482015260248101919091526001600160a01b039091169063a9059cbb906044016020604051808303816000875af115801561188c573d6000803e3d6000fd5b505050506040513d601f19601f820116820180604052508101906118b09190612da3565b50600060069091015550565b60006118c782611ecb565b6001600160a01b038083166000908152600c60209081526040808320548352600b8252808320600e549094168084526003850183528184205460058601909352908320546119189261016791612eb5565b600f546001600160a01b03166000818152600385016020908152604080832054600588019092528220549394509092611955929161016791612eb5565b90506119618183612eb5565b95945050505050565b6000546001600160a01b031633146119945760405162461bcd60e51b815260040161056f90612d6e565b600193909355600291909155600355600455565b60006119b382611ecb565b6001600160a01b038083166000908152600c60209081526040808320548352600b8252808320600e54909416808452600285018352818420546004860190935290832054611a049261016791612eb5565b600f546001600160a01b03166000818152600285016020908152604080832054600488019092528220549394509092611955929161016791612eb5565b6000546001600160a01b03163314611a6b5760405162461bcd60e51b815260040161056f90612d6e565b611a7481612838565b50565b60008111611aba5760405162461bcd60e51b815260206004820152601060248201526f063616e277420776974686472617720360841b604482015260640161056f565b336000908152600c602052604090205480611ae75760405162461bcd60e51b815260040161056f90612e5f565b6000818152600b60205260409020611afe33611ecb565b6000611b09336119a8565b90506000611b16336118bc565b6001600160a01b0387166000908152600960205260409020549091508190606490611b41898961043c565b611b4b9086612ea2565b611b559190612d57565b611b5f9190612ec8565b11611bc35760405162461bcd60e51b815260206004820152602e60248201527f5769746864726177206661696c65642e596f7520646f6e6f742068617665206160448201526d373c9031b7b63630ba32b930b61760911b606482015260840161056f565b6001600160a01b0386166000908152600484016020526040902054851015611c1a576001600160a01b038616600090815260048401602052604081208054879290611c0f908490612ea2565b90915550611cb49050565b6001600160a01b0386166000908152600484016020526040812054611c3f9087612ea2565b6001600160a01b0388166000908152600286016020526040812080549293508392909190611c6e908490612ea2565b90915550506001600160a01b03871660009081526004850160209081526040808320839055600990915281206003018054839290611cad908490612ea2565b9091555050505b600e546001600160a01b0390811690871603611d6857604051600090339087908381818185875af1925050503d8060008114611d0c576040519150601f19603f3d011682016040523d82523d6000602084013e611d11565b606091505b5050905080611d625760405162461bcd60e51b815260206004820152601c60248201527f6661696c656420746f2073656e642065746820696e7465726573742e00000000604482015260640161056f565b50611ddf565b600f5460405163a9059cbb60e01b8152336004820152602481018790526001600160a01b039091169063a9059cbb906044016020604051808303816000875af1158015611db9573d6000803e3d6000fd5b505050506040513d601f19601f82011682018060405250810190611ddd9190612da3565b505b611de833611ecb565b505050505050565b6000546001600160a01b03163314611e1a5760405162461bcd60e51b815260040161056f90612d6e565b600080546040516001600160a01b039091169083908381818185875af1925050503d8060008114611e67576040519150601f19603f3d011682016040523d82523d6000602084013e611e6c565b606091505b5050905080611eb45760405162461bcd60e51b81526020600482015260146024820152732330b4b632b2103a379039b2b7321022ba3432b960611b604482015260640161056f565b5050565b6000611ec48284612ec8565b9392505050565b6001600160a01b0381166000908152600c6020526040902054611f305760405162461bcd60e51b815260206004820152601a60248201527f557365722073686f756c64206465706f736974206265666f7265000000000000604482015260640161056f565b6001600160a01b0381166000818152600c6020818152604080842054808552600b8352908420948452919052611f6590612284565b610100810151600684015560c0810151600e80546001600160a01b039081166000908152600487016020818152604080842096909655608087015185548516845260058a018083528785209190915560e0880151600f8054871686529383528785205560a088015192548516845290529390209290925542600186015554919250611ff091166128f8565b600e546001600160a01b0390811660009081526009602052604090206002810192909255600190910191909155600f5461202a91166128f8565b600f546001600160a01b03166000908152600960205260409020600281019190915560010155505050565b6001600160a01b0381166000908152600c60205260409020546120ba5760405162461bcd60e51b815260206004820152601a60248201527f557365722073686f756c64206465706f736974206265666f7265000000000000604482015260640161056f565b6001600160a01b038082166000908152600c60209081526040808320548352600b8252808320600e549094168352600284018252808320546009909252822060030180549192909161210d908490612ea2565b9091555050600e546001600160a01b031660009081526003820160209081526040808320546009909252822060040180549192909161214d908490612ea2565b9091555050600e80546001600160a01b039081166000908152600284016020818152604080842084905585548516845260038088018352818520859055865486168552600488018352818520859055955485168452600587018252808420849055600f5490941683529081528282205460099091529181209092018054919290916121d9908490612ea2565b9091555050600f546001600160a01b0316600090815260038201602090815260408083205460099092528220600401805491929091612219908490612ea2565b9091555050600f80546001600160a01b0390811660009081526002840160209081526040808320839055845484168352600386018252808320839055845484168352600486018252808320839055935490921681526005840190915290812081905560069091015550565b61228c612a7d565b81156127b8576000828152600b60205260408120600181015490916122b18242612ea2565b600e546011546001600160a01b0390911660008181526009602090815260408083206001015460028a01909252822054949550909361230b939186916122f79190612d57565b6123019190612d57565b6101679190612ec8565b846006015461231a9190612eb5565b601154600e546001600160a01b031660009081526009602090815260408083206001015460028a019092528220549394509092859161235891612d57565b6123629190612d57565b61236c9190612ec8565b600e546001600160a01b031660009081526004870160205260409020546123939190612eb5565b601154600e546001600160a01b031660009081526009602090815260408083206002015460038b01909252822054939450909286916123d191612d57565b6123db9190612d57565b6123e59190612ec8565b600e546001600160a01b0316600090815260058801602052604090205461240c9190612eb5565b600f546011546001600160a01b0390911660008181526009602090815260408083206001015460028d01909252909120549394506124529391929188916122f791612d57565b86600601546124619190612eb5565b61246b9084612eb5565b601154600f546001600160a01b031660009081526009602090815260408083206001015460028c01909252822054939650909287916124a991612d57565b6124b39190612d57565b6124bd9190612ec8565b600f546001600160a01b031660009081526004890160205260409020546124e49190612eb5565b601154600f546001600160a01b031660009081526009602090815260408083206002015460038d019092528220549394509092889161252291612d57565b61252c9190612d57565b6125369190612ec8565b600f546001600160a01b0316600090815260058a01602052604090205461255d9190612eb5565b90506000604051806101c001604052808a6002016000600e60009054906101000a90046001600160a01b03166001600160a01b03166001600160a01b031681526020019081526020016000205481526020018a6002016000600f60009054906101000a90046001600160a01b03166001600160a01b03166001600160a01b031681526020019081526020016000205481526020018a6003016000600e60009054906101000a90046001600160a01b03166001600160a01b03166001600160a01b031681526020019081526020016000205481526020018a6003016000600f60009054906101000a90046001600160a01b03166001600160a01b03166001600160a01b031681526020019081526020016000205481526020018581526020018381526020018681526020018481526020018781526020016126f4600e60009054906101000a90046001600160a01b0316888d6002016000600e60009054906101000a90046001600160a01b03166001600160a01b03166001600160a01b03168152602001908152602001600020546101679190612eb5565b8152600f546001600160a01b0316600081815260028d0160209081526040909120549201916127299190610167908890612eb5565b8152600e546001600160a01b0316600081815260038d01602090815260409091205492019161275e9190610167908990612eb5565b8152600f546001600160a01b0316600081815260038d0160209081526040909120549201916127939190610167908790612eb5565b815299546001600160a01b03166020909a019990995250969998505050505050505050565b604051806101c0016040528060008152602001600081526020016000815260200160008152602001600081526020016000815260200160008152602001600081526020016000815260200160008152602001600081526020016000815260200160008152602001336001600160a01b03168152509050919050565b919050565b6001600160a01b03811661289d5760405162461bcd60e51b815260206004820152602660248201527f4f776e61626c653a206e6577206f776e657220697320746865207a65726f206160448201526564647265737360d01b606482015260840161056f565b600080546040516001600160a01b03808516939216917f8be0079c531659141344cd1fd0a4f28419497f9722a3daafe3b4186f6b6457e091a3600080546001600160a01b0319166001600160a01b0392909216919091179055565b600080600080600061290986610493565b60608101516080820151909450925090506000808415612a4c57600061293486610483876064612d57565b905080600560010154111561296c5760065460075461295891906104839084612d57565b6005546129659190612eb5565b92506129b5565b6006546129989061297e906064612ea2565b60085460065461298e9085612ea2565b6104839190612d57565b6007546005546129a89190612eb5565b6129b29190612eb5565b92505b6002548110156129e8576002546003546129d491906104839084612d57565b6001546129e19190612eb5565b9150612a27565b600254612a0a906129fa906064612ea2565b60045460025461298e9085612ea2565b600354600154612a1a9190612eb5565b612a249190612eb5565b91505b601254612a349083612d57565b915060125483612a449190612d57565b925050612a71565b601254600154612a5c9190612d57565b601254600554919250612a6e91612d57565b91505b97909650945050505050565b604051806101c001604052806000815260200160008152602001600081526020016000815260200160008152602001600081526020016000815260200160008152602001600081526020016000815260200160008152602001600081526020016000815260200160006001600160a01b031681525090565b80356001600160a01b038116811461283357600080fd5b60008060408385031215612b1f57600080fd5b612b2883612af5565b946020939093013593505050565b600060208284031215612b4857600080fd5b611ec482612af5565b60a0810161048d828480518252602081015160208301526040810151604083015260608101516060830152608081015160808301525050565b805182526020810151602083015260408101516040830152606081015160608301526080810151608083015260a081015160a083015260c081015160c083015260e081015160e08301526101008082015181840152506101208082015181840152506101408082015181840152506101608082015181840152506101808082015181840152506101a080820151611126828501826001600160a01b03169052565b6020808252825182820181905260009190848201906040850190845b81811015612c6e57612c5a838551612b8a565b928401926101c09290920191600101612c47565b50909695505050505050565b600060208284031215612c8c57600080fd5b5035919050565b6101c0810161048d8284612b8a565b60008060008060808587031215612cb857600080fd5b5050823594602084013594506040840135936060013592509050565b6020808252825182820181905260009190848201906040850190845b81811015612c6e57612d2e83855180518252602081015160208301526040810151604083015260608101516060830152608081015160808301525050565b9284019260a09290920191600101612cf0565b634e487b7160e01b600052601160045260246000fd5b808202811582820484141761048d5761048d612d41565b6020808252818101527f4f776e61626c653a2063616c6c6572206973206e6f7420746865206f776e6572604082015260600190565b600060208284031215612db557600080fd5b81518015158114611ec457600080fd5b805169ffffffffffffffffffff8116811461283357600080fd5b600080600080600060a08688031215612df757600080fd5b612e0086612dc5565b9450602086015193506040860151925060608601519150612e2360808701612dc5565b90509295509295909350565b80820260008212600160ff1b84141615612e4b57612e4b612d41565b818105831482151761048d5761048d612d41565b60208082526023908201527f5573657220696e6465782073686f756c6420626520626967676572207468616e60408201526210181760e91b606082015260800190565b8181038181111561048d5761048d612d41565b8082018082111561048d5761048d612d41565b600082612ee557634e487b7160e01b600052601260045260246000fd5b500490565b634e487b7160e01b600052604160045260246000fd5b634e487b7160e01b600052603260045260246000fd5b600060018201612f2857612f28612d41565b506001019056fea26469706673582212203d6b5f5a8a106a13df75f21f622c873097392dcb94afda9f249ff538df4e481c64736f6c634300081200334f776e61626c653a2063616c6c6572206973206e6f7420746865206f776e6572",
  "linkReferences": {},
  "deployedLinkReferences": {}
}