{
  "_format": "hh-sol-artifact-1",
  "contractName": "Lending",
  "sourceName": "contracts/Lending.sol",
  "abi": [
    {
      "inputs": [
        {
          "internalType": "address",
          "name": "_rewardAddress",
          "type": "address"
        },
        {
          "internalType": "address",
          "name": "_ethAdddress",
          "type": "address"
        },
        {
          "internalType": "address",
          "name": "_usdtAddress",
          "type": "address"
        },
        {
          "internalType": "address",
          "name": "_poolAddress",
          "type": "address"
        }
      ],
      "stateMutability": "nonpayable",
      "type": "constructor"
    },
    {
      "anonymous": false,
      "inputs": [
        {
          "indexed": true,
          "internalType": "address",
          "name": "previousOwner",
          "type": "address"
        },
        {
          "indexed": true,
          "internalType": "address",
          "name": "newOwner",
          "type": "address"
        }
      ],
      "name": "OwnershipTransferred",
      "type": "event"
    },
    {
      "stateMutability": "payable",
      "type": "fallback"
    },
    {
      "inputs": [
        {
          "internalType": "address",
          "name": "_tokenAddress",
          "type": "address"
        },
        {
          "internalType": "uint256",
          "name": "_amount",
          "type": "uint256"
        }
      ],
      "name": "borrow",
      "outputs": [],
      "stateMutability": "nonpayable",
      "type": "function"
    },
    {
      "inputs": [
        {
          "internalType": "address",
          "name": "_tokenAddress",
          "type": "address"
        },
        {
          "internalType": "uint256",
          "name": "_amount",
          "type": "uint256"
        }
      ],
      "name": "calcTokenPrice",
      "outputs": [
        {
          "internalType": "uint256",
          "name": "",
          "type": "uint256"
        }
      ],
      "stateMutability": "view",
      "type": "function"
    },
    {
      "inputs": [
        {
          "internalType": "uint256",
          "name": "amount",
          "type": "uint256"
        }
      ],
      "name": "claimETH",
      "outputs": [],
      "stateMutability": "nonpayable",
      "type": "function"
    },
    {
      "inputs": [],
      "name": "claimPeko",
      "outputs": [],
      "stateMutability": "nonpayable",
      "type": "function"
    },
    {
      "inputs": [
        {
          "internalType": "address",
          "name": "tokenAddress",
          "type": "address"
        },
        {
          "internalType": "uint256",
          "name": "amount",
          "type": "uint256"
        }
      ],
      "name": "claimToken",
      "outputs": [],
      "stateMutability": "nonpayable",
      "type": "function"
    },
    {
      "inputs": [
        {
          "internalType": "address",
          "name": "_account",
          "type": "address"
        }
      ],
      "name": "collateral",
      "outputs": [
        {
          "internalType": "uint256",
          "name": "",
          "type": "uint256"
        }
      ],
      "stateMutability": "nonpayable",
      "type": "function"
    },
    {
      "inputs": [
        {
          "internalType": "address",
          "name": "_account",
          "type": "address"
        }
      ],
      "name": "debt",
      "outputs": [
        {
          "internalType": "uint256",
          "name": "",
          "type": "uint256"
        }
      ],
      "stateMutability": "nonpayable",
      "type": "function"
    },
    {
      "inputs": [
        {
          "internalType": "address",
          "name": "_tokenAddress",
          "type": "address"
        },
        {
          "internalType": "uint256",
          "name": "_amount",
          "type": "uint256"
        }
      ],
      "name": "deposit",
      "outputs": [],
      "stateMutability": "payable",
      "type": "function"
    },
    {
      "inputs": [
        {
          "internalType": "address",
          "name": "_pool",
          "type": "address"
        },
        {
          "internalType": "address",
          "name": "_weth",
          "type": "address"
        },
        {
          "internalType": "address",
          "name": "_usdc",
          "type": "address"
        }
      ],
      "name": "getEthValue",
      "outputs": [
        {
          "internalType": "uint256",
          "name": "",
          "type": "uint256"
        }
      ],
      "stateMutability": "view",
      "type": "function"
    },
    {
      "inputs": [],
      "name": "getMarketInfo",
      "outputs": [
        {
          "internalType": "uint256",
          "name": "",
          "type": "uint256"
        },
        {
          "internalType": "uint256",
          "name": "",
          "type": "uint256"
        }
      ],
      "stateMutability": "view",
      "type": "function"
    },
    {
      "inputs": [
        {
          "internalType": "address",
          "name": "_account",
          "type": "address"
        }
      ],
      "name": "getUserInfo",
      "outputs": [
        {
          "components": [
            {
              "internalType": "uint256",
              "name": "ethDepositAmount",
              "type": "uint256"
            },
            {
              "internalType": "uint256",
              "name": "usdtDepositAmount",
              "type": "uint256"
            },
            {
              "internalType": "uint256",
              "name": "ethBorrowAmount",
              "type": "uint256"
            },
            {
              "internalType": "uint256",
              "name": "usdtBorrowAmount",
              "type": "uint256"
            },
            {
              "internalType": "uint256",
              "name": "ethInterestAmount",
              "type": "uint256"
            },
            {
              "internalType": "uint256",
              "name": "usdtInterestAmount",
              "type": "uint256"
            },
            {
              "internalType": "uint256",
              "name": "ethRewardAmount",
              "type": "uint256"
            },
            {
              "internalType": "uint256",
              "name": "usdtRewardAmount",
              "type": "uint256"
            },
            {
              "internalType": "uint256",
              "name": "pekoRewardAmount",
              "type": "uint256"
            },
            {
              "internalType": "uint256",
              "name": "ethDepositTotalInUsdtAmount",
              "type": "uint256"
            },
            {
              "internalType": "uint256",
              "name": "usdtDepositTotalAmount",
              "type": "uint256"
            },
            {
              "internalType": "uint256",
              "name": "ethBorrowTotalInUsdtAmount",
              "type": "uint256"
            },
            {
              "internalType": "uint256",
              "name": "usdtBorrowTotalAmount",
              "type": "uint256"
            },
            {
              "internalType": "address",
              "name": "accountAddress",
              "type": "address"
            }
          ],
          "internalType": "struct Lending.UserInfoForDisplay",
          "name": "",
          "type": "tuple"
        }
      ],
      "stateMutability": "view",
      "type": "function"
    },
    {
      "inputs": [
        {
          "internalType": "address",
          "name": "_account",
          "type": "address"
        }
      ],
      "name": "liquidate",
      "outputs": [],
      "stateMutability": "payable",
      "type": "function"
    },
    {
      "inputs": [],
      "name": "listUserInfo",
      "outputs": [
        {
          "components": [
            {
              "internalType": "uint256",
              "name": "ethDepositAmount",
              "type": "uint256"
            },
            {
              "internalType": "uint256",
              "name": "usdtDepositAmount",
              "type": "uint256"
            },
            {
              "internalType": "uint256",
              "name": "ethBorrowAmount",
              "type": "uint256"
            },
            {
              "internalType": "uint256",
              "name": "usdtBorrowAmount",
              "type": "uint256"
            },
            {
              "internalType": "uint256",
              "name": "ethInterestAmount",
              "type": "uint256"
            },
            {
              "internalType": "uint256",
              "name": "usdtInterestAmount",
              "type": "uint256"
            },
            {
              "internalType": "uint256",
              "name": "ethRewardAmount",
              "type": "uint256"
            },
            {
              "internalType": "uint256",
              "name": "usdtRewardAmount",
              "type": "uint256"
            },
            {
              "internalType": "uint256",
              "name": "pekoRewardAmount",
              "type": "uint256"
            },
            {
              "internalType": "uint256",
              "name": "ethDepositTotalInUsdtAmount",
              "type": "uint256"
            },
            {
              "internalType": "uint256",
              "name": "usdtDepositTotalAmount",
              "type": "uint256"
            },
            {
              "internalType": "uint256",
              "name": "ethBorrowTotalInUsdtAmount",
              "type": "uint256"
            },
            {
              "internalType": "uint256",
              "name": "usdtBorrowTotalAmount",
              "type": "uint256"
            },
            {
              "internalType": "address",
              "name": "accountAddress",
              "type": "address"
            }
          ],
          "internalType": "struct Lending.UserInfoForDisplay[]",
          "name": "",
          "type": "tuple[]"
        }
      ],
      "stateMutability": "view",
      "type": "function"
    },
    {
      "inputs": [],
      "name": "owner",
      "outputs": [
        {
          "internalType": "address",
          "name": "",
          "type": "address"
        }
      ],
      "stateMutability": "view",
      "type": "function"
    },
    {
      "inputs": [],
      "name": "renounceOwnership",
      "outputs": [],
      "stateMutability": "nonpayable",
      "type": "function"
    },
    {
      "inputs": [
        {
          "internalType": "address",
          "name": "_tokenAddress",
          "type": "address"
        },
        {
          "internalType": "uint256",
          "name": "_amount",
          "type": "uint256"
        }
      ],
      "name": "repay",
      "outputs": [],
      "stateMutability": "payable",
      "type": "function"
    },
    {
      "inputs": [
        {
          "internalType": "uint256",
          "name": "limit",
          "type": "uint256"
        }
      ],
      "name": "setLiquidationThreshhold",
      "outputs": [],
      "stateMutability": "nonpayable",
      "type": "function"
    },
    {
      "inputs": [
        {
          "internalType": "address",
          "name": "_poolAddress",
          "type": "address"
        }
      ],
      "name": "setPoolAddress",
      "outputs": [],
      "stateMutability": "nonpayable",
      "type": "function"
    },
    {
      "inputs": [
        {
          "internalType": "address",
          "name": "newOwner",
          "type": "address"
        }
      ],
      "name": "transferOwnership",
      "outputs": [],
      "stateMutability": "nonpayable",
      "type": "function"
    },
    {
      "inputs": [
        {
          "internalType": "address",
          "name": "_tokenAddress",
          "type": "address"
        },
        {
          "internalType": "uint256",
          "name": "_amount",
          "type": "uint256"
        }
      ],
      "name": "withdraw",
      "outputs": [],
      "stateMutability": "nonpayable",
      "type": "function"
    },
    {
      "stateMutability": "payable",
      "type": "receive"
    }
  ],
  "bytecode": "0x6080604052601e600955633b9aca00600a553480156200001e57600080fd5b5060405162002bb238038062002bb2833981016040819052620000419162000180565b600080546001600160a01b031916339081178255604051909182917f8be0079c531659141344cd1fd0a4f28419497f9722a3daafe3b4186f6b6457e0908290a350600580546001600160a01b038087166001600160a01b031992831617909255600680548684169083168117909155600780548685169084161790556008805493851693909216929092179055620000e49060326101f461271060008062000110565b60075462000106906001600160a01b031660326101f461271060008062000110565b5050505062000208565b6001600160a01b038616600090815260016020526040902085815562000138856003620001dc565b60018201556200014a846003620001dc565b6002820155600381019290925560049091015550505050565b80516001600160a01b03811681146200017b57600080fd5b919050565b6000806000806080858703121562000196578384fd5b620001a18562000163565b9350620001b16020860162000163565b9250620001c16040860162000163565b9150620001d16060860162000163565b905092959194509250565b60008160001904831182151516156200020357634e487b7160e01b81526011600452602481fd5b500290565b61299a80620002186000396000f3fe6080604052600436106101175760003560e01c80636386c1c71161009a578063a5fdc5de11610061578063a5fdc5de146102f7578063e9e15b4f14610317578063f2fde38b14610354578063f3fef3a314610374578063fe96973a1461039457005b80636386c1c714610258578063715018a614610285578063838afb1e1461029a5780638da5cb5b146102af5780639b6c56ec146102d757005b80632f865568116100de5780632f865568146101d057806347e7ef24146101e35780634b8a3529146101f65780635063e91a14610216578063616571e71461023857005b806305cb9fde1461012057806314658ac7146101535780631698755f1461017357806322867d781461019357806323341a05146101a657005b3661011e57005b005b34801561012c57600080fd5b5061014061013b36600461252d565b6103b4565b6040519081526020015b60405180910390f35b34801561015f57600080fd5b5061014061016e3660046124eb565b610409565b34801561017f57600080fd5b5061011e61018e36600461252d565b6105b2565b61011e6101a136600461252d565b61068b565b3480156101b257600080fd5b506101bb610948565b6040805192835260208301919091520161014a565b61011e6101de3660046124d1565b6109cf565b61011e6101f136600461252d565b610e79565b34801561020257600080fd5b5061011e61021136600461252d565b6110bd565b34801561022257600080fd5b5061022b611443565b60405161014a91906126b3565b34801561024457600080fd5b5061011e610253366004612576565b600955565b34801561026457600080fd5b506102786102733660046124d1565b61151b565b60405161014a91906127cb565b34801561029157600080fd5b5061011e61154e565b3480156102a657600080fd5b5061011e6115c2565b3480156102bb57600080fd5b506000546040516001600160a01b03909116815260200161014a565b3480156102e357600080fd5b506101406102f23660046124d1565b61169c565b34801561030357600080fd5b506101406103123660046124d1565b61174a565b34801561032357600080fd5b5061011e6103323660046124d1565b600880546001600160a01b0319166001600160a01b0392909216919091179055565b34801561036057600080fd5b5061011e61036f3660046124d1565b6117e1565b34801561038057600080fd5b5061011e61038f36600461252d565b611817565b3480156103a057600080fd5b5061011e6103af366004612576565b611b31565b6007546000906001600160a01b03848116911614156103d4575080610403565b683635c9adc5dea000006103ff6c0c9f2c9cd04674edea400000006103f985846128fd565b90611bf9565b9150505b92915050565b6040516370a0823160e01b81526001600160a01b03848116600483015260009182918516906370a082319060240160206040518083038186803b15801561044f57600080fd5b505afa158015610463573d6000803e3d6000fd5b505050506040513d601f19601f82011682018060405250810190610487919061258e565b6040516370a0823160e01b81526001600160a01b0387811660048301529192506000918516906370a082319060240160206040518083038186803b1580156104ce57600080fd5b505afa1580156104e2573d6000803e3d6000fd5b505050506040513d601f19601f82011682018060405250810190610506919061258e565b90506000846001600160a01b031663313ce5676040518163ffffffff1660e01b815260040160206040518083038186803b15801561054357600080fd5b505afa158015610557573d6000803e3d6000fd5b505050506040513d601f19601f8201168201806040525081019061057b91906125a6565b60ff16905060006105a6846103f961059485602461291c565b61059f90600a612855565b8690611c0c565b98975050505050505050565b6000546001600160a01b031633146105e55760405162461bcd60e51b81526004016105dc90612753565b60405180910390fd5b816001600160a01b031663a9059cbb6106066000546001600160a01b031690565b6040516001600160e01b031960e084901b1681526001600160a01b03909116600482015260248101849052604401602060405180830381600087803b15801561064e57600080fd5b505af1158015610662573d6000803e3d6000fd5b505050506040513d601f19601f820116820180604052508101906106869190612556565b505050565b61069433611c18565b600081116106d45760405162461bcd60e51b815260206004820152600d60248201526c063616e2774207265706179203609c1b60448201526064016105dc565b33600090815260046020526040902054806107015760405162461bcd60e51b81526004016105dc90612788565b60008181526003602090815260408083206001600160a01b0387168452600581019092529091205483116107815760405162461bcd60e51b815260206004820152602160248201527f5265706179206e65656420746f20626520626967676572207468616e206465626044820152601d60fa1b60648201526084016105dc565b6001600160a01b0384166000908152600382016020526040812080548592906107ab90849061291c565b90915550506007546001600160a01b03858116911614156108c3576007546040516323b872dd60e01b8152336004820152306024820152604481018590526001600160a01b03909116906323b872dd90606401602060405180830381600087803b15801561081857600080fd5b505af115801561082c573d6000803e3d6000fd5b505050506040513d601f19601f820116820180604052508101906108509190612556565b61088b5760405162461bcd60e51b815260206004820152600c60248201526b14995c185e4819985a5b195960a21b60448201526064016105dc565b6007546001600160a01b0316600090815260016020526040812060040180548592906108b890849061291c565b909155506109399050565b823410156109065760405162461bcd60e51b815260206004820152601060248201526f283632b0b9b2903830bc9036b7b9329760811b60448201526064016105dc565b6006546001600160a01b03166000908152600160205260408120600401805485929061093390849061291c565b90915550505b61094233611c18565b50505050565b6006546001600160a01b03908116600081815260016020526040808220600754909416825281206003808201549085015492948594909361098991906103b4565b61099391906127da565b81600401546109bb600660009054906101000a90046001600160a01b031685600401546103b4565b6109c591906127da565b9350935050509091565b6001600160a01b03811660009081526004602052604090205480610a055760405162461bcd60e51b81526004016105dc90612788565b600081815260036020526040812090610a1d8461174a565b90506000610a2a8561169c565b90506000610a52610a3c84605a6128fd565b610a478460646128fd565b6103f99060646128fd565b9050610a81604051806040016040528060098152602001681c9a5cdac8199858dd60ba1b815250848484611f86565b6009548111610ad25760405162461bcd60e51b815260206004820152601f60248201527f54686973206973206e6f7420656e61626c6564206c69717569646174696f6e0060448201526064016105dc565b6006546001600160a01b0316600090815260048501602090815260408083205460028801909252822054610b0691906127da565b6007546001600160a01b0316600090815260048701602090815260408083205460028a019092528220549293509091610b3f91906127da565b6006546001600160a01b0316600090815260058801602090815260408083205460038b019092528220549293509091610b7891906127da565b6007546001600160a01b0316600090815260058901602090815260408083205460038c019092528220549293509091610bb191906127da565b905034610bc083612710611bf9565b610bcc9061270f6128fd565b11610bd657600080fd5b6007546001600160a01b03166323b872dd3330610bf585612710611bf9565b610c019061270f6128fd565b6040516001600160e01b031960e086901b1681526001600160a01b0393841660048201529290911660248301526044820152606401602060405180830381600087803b158015610c5057600080fd5b505af1158015610c64573d6000803e3d6000fd5b505050506040513d601f19601f82011682018060405250810190610c889190612556565b610cc55760405162461bcd60e51b815260206004820152600e60248201526d19195c1bdcda5d0819985a5b195960921b60448201526064016105dc565b604051600090339086908381818185875af1925050503d8060008114610d07576040519150601f19603f3d011682016040523d82523d6000602084013e610d0c565b606091505b5050905080610d535760405162461bcd60e51b81526020600482015260136024820152723330b4b632b2103a379039b2b7321032ba341760691b60448201526064016105dc565b60075460405163a9059cbb60e01b8152336004820152602481018690526001600160a01b039091169063a9059cbb90604401602060405180830381600087803b158015610d9f57600080fd5b505af1158015610db3573d6000803e3d6000fd5b505050506040513d601f19601f82011682018060405250810190610dd79190612556565b5060055460068a015460405163a9059cbb60e01b815233600482015260248101919091526001600160a01b039091169063a9059cbb90604401602060405180830381600087803b158015610e2a57600080fd5b505af1158015610e3e573d6000803e3d6000fd5b505050506040513d601f19601f82011682018060405250810190610e629190612556565b50610e6c8b611fcf565b5050505050505050505050565b60008111610ebb5760405162461bcd60e51b815260206004820152600f60248201526e063616e2774206465706f736974203608c1b60448201526064016105dc565b33600090815260046020526040812054610f0357600160026000828254610ee291906127da565b90915550506002543360009081526004602052604090208190559050610f1e565b503360008181526004602052604090205490610f1e90611c18565b600081815260036020908152604080832080546001600160a01b031916331781554260018201556001600160a01b0387168452600281019092528220805491928592610f6b9084906127da565b90915550506007546001600160a01b0385811691161415611085576007546040516323b872dd60e01b8152336004820152306024820152604481018590526001600160a01b03909116906323b872dd90606401602060405180830381600087803b158015610fd857600080fd5b505af1158015610fec573d6000803e3d6000fd5b505050506040513d601f19601f820116820180604052508101906110109190612556565b61104d5760405162461bcd60e51b815260206004820152600e60248201526d19195c1bdcda5d0819985a5b195960921b60448201526064016105dc565b6007546001600160a01b03166000908152600160205260408120600301805485929061107a9084906127da565b909155506109429050565b6006546001600160a01b0316600090815260016020526040812060030180548592906110b29084906127da565b909155505050505050565b600081116110fe5760405162461bcd60e51b815260206004820152600e60248201526d063616e277420626f72726f7720360941b60448201526064016105dc565b336000908152600460205260409020548061112b5760405162461bcd60e51b81526004016105dc90612788565b6000818152600360205260408120906111433361174a565b905060006111503361169c565b9050611185604051806040016040528060118152602001701858d8dbdd5b9d10dbdb1b185d195c985b607a1b815250836120e3565b808210156111d55760405162461bcd60e51b815260206004820152601e60248201527f596f7520646f6e6f74206861766520616e7920636f6c6c61746572616c2e000060448201526064016105dc565b60006111e187876103b4565b6001600160a01b03881660009081526001602052604090205490915061120783836127da565b606461121383876128fd565b61121d91906127f2565b116112615760405162461bcd60e51b8152602060048201526014602482015273283632b0b9b2903232b837b9b4ba1036b7b9329760611b60448201526064016105dc565b6001600160a01b03881660009081526003860160205260408120805489929061128b9084906127da565b9091555061129a905033611c18565b6006546001600160a01b038981169116141561138157604051600090339089908381818185875af1925050503d80600081146112f2576040519150601f19603f3d011682016040523d82523d6000602084013e6112f7565b606091505b50509050806113485760405162461bcd60e51b815260206004820152601c60248201527f6661696c656420746f2073656e642065746820696e7465726573742e0000000060448201526064016105dc565b6006546001600160a01b0316600090815260016020526040812060040180548a92906113759084906127da565b90915550611439915050565b60075460405163a9059cbb60e01b8152336004820152602481018990526001600160a01b039091169063a9059cbb90604401602060405180830381600087803b1580156113cd57600080fd5b505af11580156113e1573d6000803e3d6000fd5b505050506040513d601f19601f820116820180604052508101906114059190612556565b506007546001600160a01b0316600090815260016020526040812060040180548992906114339084906127da565b90915550505b5050505050505050565b6060600060025467ffffffffffffffff81111561147057634e487b7160e01b600052604160045260246000fd5b6040519080825280602002602001820160405280156114a957816020015b611496612442565b81526020019060019003908161148e5790505b50905060015b6002546114bd9060016127da565b811015611515576114cd81612128565b826114d960018461291c565b815181106114f757634e487b7160e01b600052603260045260246000fd5b6020026020010181905250808061150d90612933565b9150506114af565b50919050565b611523612442565b6001600160a01b0382166000908152600460205260408120549061154682612128565b949350505050565b6000546001600160a01b031633146115785760405162461bcd60e51b81526004016105dc90612753565b600080546040516001600160a01b03909116907f8be0079c531659141344cd1fd0a4f28419497f9722a3daafe3b4186f6b6457e0908390a3600080546001600160a01b0319169055565b33600090815260046020526040902054806115ef5760405162461bcd60e51b81526004016105dc90612788565b600081815260036020526040902061160633611c18565b600554600682015460405163a9059cbb60e01b815233600482015260248101919091526001600160a01b039091169063a9059cbb90604401602060405180830381600087803b15801561165857600080fd5b505af115801561166c573d6000803e3d6000fd5b505050506040513d601f19601f820116820180604052508101906116909190612556565b50600060069091015550565b60006116a782611c18565b6001600160a01b038083166000908152600460209081526040808320548352600380835281842060065490951680855290850183528184205460058601909352908320546116f89261013b916127da565b6007546001600160a01b03166000818152600385016020908152604080832054600588019092528220549394509092611735929161013b916127da565b905061174181836127da565b95945050505050565b600061175582611c18565b6001600160a01b03808316600090815260046020818152604080842054845260038252808420600654909516808552600286018352818520549386019092528320546117a49261013b916127da565b6007546001600160a01b03166000818152600285016020908152604080832054600488019092528220549394509092611735929161013b916127da565b6000546001600160a01b0316331461180b5760405162461bcd60e51b81526004016105dc90612753565b61181481612361565b50565b6000811161185a5760405162461bcd60e51b815260206004820152601060248201526f063616e277420776974686472617720360841b60448201526064016105dc565b33600090815260046020526040902054806118875760405162461bcd60e51b81526004016105dc90612788565b600081815260036020526040902061189e33611c18565b60006118a93361174a565b905060006118b63361169c565b90506118c286866103b4565b6118cc90826127da565b6001600160a01b0387166000908152600160205260409020546064906118f290856128fd565b6118fc91906127f2565b116119605760405162461bcd60e51b815260206004820152602e60248201527f5769746864726177206661696c65642e596f7520646f6e6f742068617665206160448201526d373c9031b7b63630ba32b930b61760911b60648201526084016105dc565b6001600160a01b03861660009081526004840160209081526040808320839055600286019091528120805487929061199990849061291c565b90915550506006546001600160a01b0387811691161415611a74576001600160a01b038616600090815260048401602052604081205433906119dc9088906127da565b604051600081818185875af1925050503d8060008114611a18576040519150601f19603f3d011682016040523d82523d6000602084013e611a1d565b606091505b5050905080611a6e5760405162461bcd60e51b815260206004820152601c60248201527f6661696c656420746f2073656e642065746820696e7465726573742e0000000060448201526064016105dc565b50611b29565b6007546001600160a01b03878116600090815260048601602052604090205491169063a9059cbb903390611aa99089906127da565b6040516001600160e01b031960e085901b1681526001600160a01b0390921660048301526024820152604401602060405180830381600087803b158015611aef57600080fd5b505af1158015611b03573d6000803e3d6000fd5b505050506040513d601f19601f82011682018060405250810190611b279190612556565b505b505050505050565b6000546001600160a01b03163314611b5b5760405162461bcd60e51b81526004016105dc90612753565b600080546040516001600160a01b039091169083908381818185875af1925050503d8060008114611ba8576040519150601f19603f3d011682016040523d82523d6000602084013e611bad565b606091505b5050905080611bf55760405162461bcd60e51b81526020600482015260146024820152732330b4b632b2103a379039b2b7321022ba3432b960611b60448201526064016105dc565b5050565b6000611c0582846127f2565b9392505050565b6000611c0582846128fd565b6001600160a01b038116600090815260046020526040902054611c7d5760405162461bcd60e51b815260206004820152601a60248201527f557365722073686f756c64206465706f736974206265666f726500000000000060448201526064016105dc565b6001600160a01b03811660009081526004602090815260408083205483526003909152812060018101549091611cb3824261291c565b600654600a546001600160a01b0390911660008181526001602081815260408084209092015460028a01909152912054939450611d0c939192918591611cf8916128fd565b611d0291906128fd565b61013b91906127f2565b836006016000828254611d1f91906127da565b9091555050600a546006546001600160a01b0316600090815260016020818152604080842090920154600288019091529120548391611d5d916128fd565b611d6791906128fd565b611d7191906127f2565b6006546001600160a01b0316600090815260048501602052604081208054909190611d9d9084906127da565b9091555050600a546006546001600160a01b031660009081526001602090815260408083206002015460038801909252909120548391611ddc916128fd565b611de691906128fd565b611df091906127f2565b6006546001600160a01b0316600090815260058501602052604081208054909190611e1c9084906127da565b9091555050600754600a546001600160a01b0390911660008181526001602081815260408084209092015460028901909152912054611e6293918591611cf891906128fd565b836006016000828254611e7591906127da565b9091555050600a546007546001600160a01b0316600090815260016020818152604080842090920154600288019091529120548391611eb3916128fd565b611ebd91906128fd565b611ec791906127f2565b6007546001600160a01b0316600090815260048501602052604081208054909190611ef39084906127da565b9091555050600a546007546001600160a01b031660009081526001602090815260408083206002015460038801909252909120548391611f32916128fd565b611f3c91906128fd565b611f4691906127f2565b6007546001600160a01b0316600090815260058501602052604081208054909190611f729084906127da565b909155505042600190930192909255505050565b61094284848484604051602401611fa09493929190612724565b60408051601f198184030181529190526020810180516001600160e01b031663a7a8785360e01b179052612421565b6001600160a01b0381166000908152600460205260409020546120345760405162461bcd60e51b815260206004820152601a60248201527f557365722073686f756c64206465706f736974206265666f726500000000000060448201526064016105dc565b6001600160a01b03908116600090815260046020818152604080842054845260038083528185206006805488168752600282018086528488208890558154891688529282018086528488208890558154891688529582018086528488208890559054881687526005909101808552838720879055600780548916885292855283872087905582548816875294845282862086905581548716865283528185208590555490941683525290812055565b611bf582826040516024016120f9929190612702565b60408051601f198184030181529190526020810180516001600160e01b0316632d839cb360e21b179052612421565b612130612442565b81156122e157600082815260036020818152604080842081516101c081018352600680546001600160a01b0390811680895260028501808852868a2054808652600754909316808b52818952878b2054868a0152828b52988601808952878b205486890152898b528852868a20546060860152818a5260058601808952878b20546080870152898b528852868a205460a0860152818a5260048601808952878b205460c08701819052998b5288529589205460e0850152918401546101008401528188529390945290949390926101208401926122109261013b916127da565b81526007546001600160a01b0316600081815260048601602090815260408083205460028901835292205493019261224c929161013b916127da565b81526006546001600160a01b03166000818152600586016020908152604080832054600389018352922054930192612288929161013b916127da565b81526007546001600160a01b031660008181526005860160209081526040808320546003890183529220549301926122c4929161013b916127da565b815292546001600160a01b03166020909301929092525092915050565b604051806101c0016040528060008152602001600081526020016000815260200160008152602001600081526020016000815260200160008152602001600081526020016000815260200160008152602001600081526020016000815260200160008152602001336001600160a01b03168152509050919050565b919050565b6001600160a01b0381166123c65760405162461bcd60e51b815260206004820152602660248201527f4f776e61626c653a206e6577206f776e657220697320746865207a65726f206160448201526564647265737360d01b60648201526084016105dc565b600080546040516001600160a01b03808516939216917f8be0079c531659141344cd1fd0a4f28419497f9722a3daafe3b4186f6b6457e091a3600080546001600160a01b0319166001600160a01b0392909216919091179055565b60006a636f6e736f6c652e6c6f679050600080835160208501845afa505050565b604051806101c001604052806000815260200160008152602001600081526020016000815260200160008152602001600081526020016000815260200160008152602001600081526020016000815260200160008152602001600081526020016000815260200160006001600160a01b031681525090565b80356001600160a01b038116811461235c57600080fd5b6000602082840312156124e2578081fd5b611c05826124ba565b6000806000606084860312156124ff578182fd5b612508846124ba565b9250612516602085016124ba565b9150612524604085016124ba565b90509250925092565b6000806040838503121561253f578182fd5b612548836124ba565b946020939093013593505050565b600060208284031215612567578081fd5b81518015158114611c05578182fd5b600060208284031215612587578081fd5b5035919050565b60006020828403121561259f578081fd5b5051919050565b6000602082840312156125b7578081fd5b815160ff81168114611c05578182fd5b60008151808452815b818110156125ec576020818501810151868301820152016125d0565b818111156125fd5782602083870101525b50601f01601f19169290920160200192915050565b805182526020810151602083015260408101516040830152606081015160608301526080810151608083015260a081015160a083015260c081015160c083015260e081015160e08301526101008082015181840152506101208082015181840152506101408082015181840152506101608082015181840152506101808082015181840152506101a080820151610942828501826001600160a01b03169052565b6020808252825182820181905260009190848201906040850190845b818110156126f6576126e2838551612612565b928401926101c092909201916001016126cf565b50909695505050505050565b60408152600061271560408301856125c7565b90508260208301529392505050565b60808152600061273760808301876125c7565b6020830195909552506040810192909252606090910152919050565b6020808252818101527f4f776e61626c653a2063616c6c6572206973206e6f7420746865206f776e6572604082015260600190565b60208082526023908201527f5573657220696e6465782073686f756c6420626520626967676572207468616e60408201526210181760e91b606082015260800190565b6101c081016104038284612612565b600082198211156127ed576127ed61294e565b500190565b60008261280d57634e487b7160e01b81526012600452602481fd5b500490565b600181815b8085111561284d5781600019048211156128335761283361294e565b8085161561284057918102915b93841c9390800290612817565b509250929050565b6000611c05838360008261286b57506001610403565b8161287857506000610403565b816001811461288e5760028114612898576128b4565b6001915050610403565b60ff8411156128a9576128a961294e565b50506001821b610403565b5060208310610133831016604e8410600b84101617156128d7575081810a610403565b6128e18383612812565b80600019048211156128f5576128f561294e565b029392505050565b60008160001904831182151516156129175761291761294e565b500290565b60008282101561292e5761292e61294e565b500390565b60006000198214156129475761294761294e565b5060010190565b634e487b7160e01b600052601160045260246000fdfea2646970667358221220b709513e72320bcfd28a9efa1148da98892f73931f9c5e6a0e063fe1db15a24564736f6c63430008040033",
  "linkReferences": {},
  "deployedLinkReferences": {}
}