{
  "_format": "hh-sol-artifact-1",
  "contractName": "Price",
  "sourceName": "contracts/price.sol",
  "abi": [
    {
      "inputs": [],
      "stateMutability": "nonpayable",
      "type": "constructor"
    },
    {
      "inputs": [],
      "name": "getLatestPrice",
      "outputs": [
        {
          "internalType": "uint256",
          "name": "",
          "type": "uint256"
        }
      ],
      "stateMutability": "view",
      "type": "function"
    }
  ],
  "bytecode": "0x6080604052600080546001600160a01b03191673245e775a46b1aadacbd48279cf0731cf186cf2b217905534801561003657600080fd5b506101c0806100466000396000f3fe608060405234801561001057600080fd5b506004361061002b5760003560e01c80638e15f47314610030575b600080fd5b61003861004a565b60405190815260200160405180910390f35b6000805460408051633fabe5a360e21b8152905183926001600160a01b03169163feaf968c9160048083019260a09291908290030181865afa158015610094573d6000803e3d6000fd5b505050506040513d601f19601f820116820180604052508101906100b891906100f4565b505050915050806402540be4006100cf919061015a565b92915050565b805169ffffffffffffffffffff811681146100ef57600080fd5b919050565b600080600080600060a0868803121561010c57600080fd5b610115866100d5565b9450602086015193506040860151925060608601519150610138608087016100d5565b90509295509295909350565b634e487b7160e01b600052601160045260246000fd5b80820260008212600160ff1b8414161561017657610176610144565b81810583148215176100cf576100cf61014456fea26469706673582212207c909be663cc0bcab4c04d813b198837ccaec9d7f33dd526fa949d35abf13d7f64736f6c63430008120033",
  "linkReferences": {},
  "deployedLinkReferences": {}
}