{
  "_format": "hh-sol-artifact-1",
  "contractName": "Claimable",
  "sourceName": "contracts/IDO.sol",
  "abi": [
    {
      "anonymous": false,
      "inputs": [
        {
          "indexed": true,
          "internalType": "address",
          "name": "previousOwner",
          "type": "address"
        },
        {
          "indexed": true,
          "internalType": "address",
          "name": "newOwner",
          "type": "address"
        }
      ],
      "name": "OwnershipTransferred",
      "type": "event"
    },
    {
      "inputs": [
        {
          "internalType": "uint256",
          "name": "amount",
          "type": "uint256"
        }
      ],
      "name": "claimETH",
      "outputs": [],
      "stateMutability": "nonpayable",
      "type": "function"
    },
    {
      "inputs": [
        {
          "internalType": "address",
          "name": "tokenAddress",
          "type": "address"
        },
        {
          "internalType": "uint256",
          "name": "amount",
          "type": "uint256"
        }
      ],
      "name": "claimToken",
      "outputs": [],
      "stateMutability": "nonpayable",
      "type": "function"
    },
    {
      "inputs": [],
      "name": "owner",
      "outputs": [
        {
          "internalType": "address",
          "name": "",
          "type": "address"
        }
      ],
      "stateMutability": "view",
      "type": "function"
    },
    {
      "inputs": [],
      "name": "renounceOwnership",
      "outputs": [],
      "stateMutability": "nonpayable",
      "type": "function"
    },
    {
      "inputs": [],
      "name": "saleIndex",
      "outputs": [
        {
          "internalType": "uint256",
          "name": "",
          "type": "uint256"
        }
      ],
      "stateMutability": "view",
      "type": "function"
    },
    {
      "inputs": [],
      "name": "stopSale",
      "outputs": [],
      "stateMutability": "nonpayable",
      "type": "function"
    },
    {
      "inputs": [
        {
          "internalType": "address",
          "name": "newOwner",
          "type": "address"
        }
      ],
      "name": "transferOwnership",
      "outputs": [],
      "stateMutability": "nonpayable",
      "type": "function"
    }
  ],
  "bytecode": "0x6080604052600060015534801561001557600080fd5b50600080546001600160a01b031916339081178255604051909182917f8be0079c531659141344cd1fd0a4f28419497f9722a3daafe3b4186f6b6457e0908290a35061053f806100666000396000f3fe608060405234801561001057600080fd5b506004361061007d5760003560e01c80638da5cb5b1161005b5780638da5cb5b146100bb578063e36b0b37146100d6578063f2fde38b146100de578063fe96973a146100f157600080fd5b80631698755f146100825780636ec012e714610097578063715018a6146100b3575b600080fd5b61009561009036600461044d565b610104565b005b6100a060015481565b6040519081526020015b60405180910390f35b6100956101ce565b6000546040516001600160a01b0390911681526020016100aa565b610095610242565b6100956100ec366004610477565b610273565b6100956100ff366004610499565b6102a9565b6000546001600160a01b031633146101375760405162461bcd60e51b815260040161012e906104b2565b60405180910390fd5b816001600160a01b031663a9059cbb6101586000546001600160a01b031690565b6040516001600160e01b031960e084901b1681526001600160a01b039091166004820152602481018490526044016020604051808303816000875af11580156101a5573d6000803e3d6000fd5b505050506040513d601f19601f820116820180604052508101906101c991906104e7565b505050565b6000546001600160a01b031633146101f85760405162461bcd60e51b815260040161012e906104b2565b600080546040516001600160a01b03909116907f8be0079c531659141344cd1fd0a4f28419497f9722a3daafe3b4186f6b6457e0908390a3600080546001600160a01b0319169055565b6000546001600160a01b0316331461026c5760405162461bcd60e51b815260040161012e906104b2565b6003600155565b6000546001600160a01b0316331461029d5760405162461bcd60e51b815260040161012e906104b2565b6102a681610371565b50565b6000546001600160a01b031633146102d35760405162461bcd60e51b815260040161012e906104b2565b600080546040516001600160a01b039091169083908381818185875af1925050503d8060008114610320576040519150601f19603f3d011682016040523d82523d6000602084013e610325565b606091505b505090508061036d5760405162461bcd60e51b81526020600482015260146024820152732330b4b632b2103a379039b2b7321022ba3432b960611b604482015260640161012e565b5050565b6001600160a01b0381166103d65760405162461bcd60e51b815260206004820152602660248201527f4f776e61626c653a206e6577206f776e657220697320746865207a65726f206160448201526564647265737360d01b606482015260840161012e565b600080546040516001600160a01b03808516939216917f8be0079c531659141344cd1fd0a4f28419497f9722a3daafe3b4186f6b6457e091a3600080546001600160a01b0319166001600160a01b0392909216919091179055565b80356001600160a01b038116811461044857600080fd5b919050565b6000806040838503121561046057600080fd5b61046983610431565b946020939093013593505050565b60006020828403121561048957600080fd5b61049282610431565b9392505050565b6000602082840312156104ab57600080fd5b5035919050565b6020808252818101527f4f776e61626c653a2063616c6c6572206973206e6f7420746865206f776e6572604082015260600190565b6000602082840312156104f957600080fd5b8151801515811461049257600080fdfea2646970667358221220aff7edb0aeefbe583cf39056419410f49930549368f498c7687123250036175d64736f6c63430008120033",
  "linkReferences": {},
  "deployedLinkReferences": {}
}