{
  "_format": "hh-sol-artifact-1",
  "contractName": "Claimable",
  "sourceName": "contracts/IDO.sol",
  "abi": [
    {
      "anonymous": false,
      "inputs": [
        {
          "indexed": true,
          "internalType": "address",
          "name": "previousOwner",
          "type": "address"
        },
        {
          "indexed": true,
          "internalType": "address",
          "name": "newOwner",
          "type": "address"
        }
      ],
      "name": "OwnershipTransferred",
      "type": "event"
    },
    {
      "inputs": [
        {
          "internalType": "uint256",
          "name": "amount",
          "type": "uint256"
        }
      ],
      "name": "claimETH",
      "outputs": [],
      "stateMutability": "nonpayable",
      "type": "function"
    },
    {
      "inputs": [
        {
          "internalType": "address",
          "name": "tokenAddress",
          "type": "address"
        },
        {
          "internalType": "uint256",
          "name": "amount",
          "type": "uint256"
        }
      ],
      "name": "claimToken",
      "outputs": [],
      "stateMutability": "nonpayable",
      "type": "function"
    },
    {
      "inputs": [],
      "name": "getClaimStatus",
      "outputs": [
        {
          "internalType": "bool",
          "name": "",
          "type": "bool"
        }
      ],
      "stateMutability": "view",
      "type": "function"
    },
    {
      "inputs": [],
      "name": "owner",
      "outputs": [
        {
          "internalType": "address",
          "name": "",
          "type": "address"
        }
      ],
      "stateMutability": "view",
      "type": "function"
    },
    {
      "inputs": [],
      "name": "renounceOwnership",
      "outputs": [],
      "stateMutability": "nonpayable",
      "type": "function"
    },
    {
      "inputs": [],
      "name": "startClaim",
      "outputs": [],
      "stateMutability": "nonpayable",
      "type": "function"
    },
    {
      "inputs": [],
      "name": "stopClaim",
      "outputs": [],
      "stateMutability": "nonpayable",
      "type": "function"
    },
    {
      "inputs": [
        {
          "internalType": "address",
          "name": "newOwner",
          "type": "address"
        }
      ],
      "name": "transferOwnership",
      "outputs": [],
      "stateMutability": "nonpayable",
      "type": "function"
    }
  ],
  "bytecode": "0x60806040526000805460ff60a01b1916905534801561001d57600080fd5b50600080546001600160a01b031916339081178255604051909182917f8be0079c531659141344cd1fd0a4f28419497f9722a3daafe3b4186f6b6457e0908290a35061059f8061006e6000396000f3fe608060405234801561001057600080fd5b50600436106100885760003560e01c8063ecbfc0771161005b578063ecbfc077146100e7578063f2fde38b146100ef578063fe96973a14610102578063ff6c9bc91461011557600080fd5b80631698755f1461008d578063715018a6146100a25780638da5cb5b146100aa5780639b77c21a146100ca575b600080fd5b6100a061009b3660046104ad565b61011d565b005b6100a06101e7565b6000546040516001600160a01b0390911681526020015b60405180910390f35b600054600160a01b900460ff1660405190151581526020016100c1565b6100a061025b565b6100a06100fd3660046104d7565b61029a565b6100a06101103660046104f9565b6102d0565b6100a0610398565b6000546001600160a01b031633146101505760405162461bcd60e51b815260040161014790610512565b60405180910390fd5b816001600160a01b031663a9059cbb6101716000546001600160a01b031690565b6040516001600160e01b031960e084901b1681526001600160a01b039091166004820152602481018490526044016020604051808303816000875af11580156101be573d6000803e3d6000fd5b505050506040513d601f19601f820116820180604052508101906101e29190610547565b505050565b6000546001600160a01b031633146102115760405162461bcd60e51b815260040161014790610512565b600080546040516001600160a01b03909116907f8be0079c531659141344cd1fd0a4f28419497f9722a3daafe3b4186f6b6457e0908390a3600080546001600160a01b0319169055565b6000546001600160a01b031633146102855760405162461bcd60e51b815260040161014790610512565b6000805460ff60a01b1916600160a01b179055565b6000546001600160a01b031633146102c45760405162461bcd60e51b815260040161014790610512565b6102cd816103d1565b50565b6000546001600160a01b031633146102fa5760405162461bcd60e51b815260040161014790610512565b600080546040516001600160a01b039091169083908381818185875af1925050503d8060008114610347576040519150601f19603f3d011682016040523d82523d6000602084013e61034c565b606091505b50509050806103945760405162461bcd60e51b81526020600482015260146024820152732330b4b632b2103a379039b2b7321022ba3432b960611b6044820152606401610147565b5050565b6000546001600160a01b031633146103c25760405162461bcd60e51b815260040161014790610512565b6000805460ff60a01b19169055565b6001600160a01b0381166104365760405162461bcd60e51b815260206004820152602660248201527f4f776e61626c653a206e6577206f776e657220697320746865207a65726f206160448201526564647265737360d01b6064820152608401610147565b600080546040516001600160a01b03808516939216917f8be0079c531659141344cd1fd0a4f28419497f9722a3daafe3b4186f6b6457e091a3600080546001600160a01b0319166001600160a01b0392909216919091179055565b80356001600160a01b03811681146104a857600080fd5b919050565b600080604083850312156104c057600080fd5b6104c983610491565b946020939093013593505050565b6000602082840312156104e957600080fd5b6104f282610491565b9392505050565b60006020828403121561050b57600080fd5b5035919050565b6020808252818101527f4f776e61626c653a2063616c6c6572206973206e6f7420746865206f776e6572604082015260600190565b60006020828403121561055957600080fd5b815180151581146104f257600080fdfea264697066735822122042e5d47c393346c5fb4a67df3fd98772019e606219d164cb348f1d810ef2488c64736f6c63430008120033",
  "linkReferences": {},
  "deployedLinkReferences": {}
}