{
  "_format": "hh-sol-artifact-1",
  "contractName": "IDO",
  "sourceName": "contracts/IDO.sol",
  "abi": [
    {
      "inputs": [
        {
          "internalType": "address",
          "name": "_rewardAddress",
          "type": "address"
        },
        {
          "internalType": "address",
          "name": "_usdtAddress",
          "type": "address"
        }
      ],
      "stateMutability": "nonpayable",
      "type": "constructor"
    },
    {
      "anonymous": false,
      "inputs": [
        {
          "indexed": false,
          "internalType": "address",
          "name": "to",
          "type": "address"
        },
        {
          "indexed": false,
          "internalType": "uint256",
          "name": "amount",
          "type": "uint256"
        }
      ],
      "name": "Buy",
      "type": "event"
    },
    {
      "anonymous": false,
      "inputs": [
        {
          "indexed": false,
          "internalType": "address",
          "name": "to",
          "type": "address"
        },
        {
          "indexed": false,
          "internalType": "uint256",
          "name": "amount",
          "type": "uint256"
        }
      ],
      "name": "Claim",
      "type": "event"
    },
    {
      "anonymous": false,
      "inputs": [
        {
          "indexed": true,
          "internalType": "address",
          "name": "previousOwner",
          "type": "address"
        },
        {
          "indexed": true,
          "internalType": "address",
          "name": "newOwner",
          "type": "address"
        }
      ],
      "name": "OwnershipTransferred",
      "type": "event"
    },
    {
      "stateMutability": "payable",
      "type": "fallback"
    },
    {
      "inputs": [],
      "name": "baseDecimal",
      "outputs": [
        {
          "internalType": "uint256",
          "name": "",
          "type": "uint256"
        }
      ],
      "stateMutability": "view",
      "type": "function"
    },
    {
      "inputs": [
        {
          "internalType": "uint256",
          "name": "usdtAmount",
          "type": "uint256"
        }
      ],
      "name": "buyWithUSDT",
      "outputs": [
        {
          "internalType": "bool",
          "name": "",
          "type": "bool"
        }
      ],
      "stateMutability": "nonpayable",
      "type": "function"
    },
    {
      "inputs": [
        {
          "internalType": "uint256",
          "name": "usdAmount",
          "type": "uint256"
        }
      ],
      "name": "calcTokenAmount",
      "outputs": [
        {
          "internalType": "uint256",
          "name": "amount",
          "type": "uint256"
        }
      ],
      "stateMutability": "nonpayable",
      "type": "function"
    },
    {
      "inputs": [
        {
          "internalType": "uint256",
          "name": "amount",
          "type": "uint256"
        }
      ],
      "name": "claimETH",
      "outputs": [],
      "stateMutability": "nonpayable",
      "type": "function"
    },
    {
      "inputs": [],
      "name": "claimRewardToken",
      "outputs": [],
      "stateMutability": "nonpayable",
      "type": "function"
    },
    {
      "inputs": [
        {
          "internalType": "address",
          "name": "tokenAddress",
          "type": "address"
        },
        {
          "internalType": "uint256",
          "name": "amount",
          "type": "uint256"
        }
      ],
      "name": "claimToken",
      "outputs": [],
      "stateMutability": "nonpayable",
      "type": "function"
    },
    {
      "inputs": [
        {
          "internalType": "address",
          "name": "userAddress",
          "type": "address"
        }
      ],
      "name": "getClaimAmount",
      "outputs": [
        {
          "internalType": "uint256",
          "name": "claimAmount",
          "type": "uint256"
        }
      ],
      "stateMutability": "view",
      "type": "function"
    },
    {
      "inputs": [],
      "name": "getClaimStatus",
      "outputs": [
        {
          "internalType": "bool",
          "name": "",
          "type": "bool"
        }
      ],
      "stateMutability": "view",
      "type": "function"
    },
    {
      "inputs": [],
      "name": "getPrice",
      "outputs": [
        {
          "internalType": "uint256",
          "name": "tokenPrice",
          "type": "uint256"
        }
      ],
      "stateMutability": "view",
      "type": "function"
    },
    {
      "inputs": [],
      "name": "owner",
      "outputs": [
        {
          "internalType": "address",
          "name": "",
          "type": "address"
        }
      ],
      "stateMutability": "view",
      "type": "function"
    },
    {
      "inputs": [],
      "name": "renounceOwnership",
      "outputs": [],
      "stateMutability": "nonpayable",
      "type": "function"
    },
    {
      "inputs": [],
      "name": "resetStartTime",
      "outputs": [],
      "stateMutability": "nonpayable",
      "type": "function"
    },
    {
      "inputs": [],
      "name": "startClaim",
      "outputs": [],
      "stateMutability": "nonpayable",
      "type": "function"
    },
    {
      "inputs": [],
      "name": "startTime",
      "outputs": [
        {
          "internalType": "uint256",
          "name": "",
          "type": "uint256"
        }
      ],
      "stateMutability": "view",
      "type": "function"
    },
    {
      "inputs": [],
      "name": "stopClaim",
      "outputs": [],
      "stateMutability": "nonpayable",
      "type": "function"
    },
    {
      "inputs": [],
      "name": "totalSaled",
      "outputs": [
        {
          "internalType": "uint256",
          "name": "",
          "type": "uint256"
        }
      ],
      "stateMutability": "view",
      "type": "function"
    },
    {
      "inputs": [
        {
          "internalType": "address",
          "name": "newOwner",
          "type": "address"
        }
      ],
      "name": "transferOwnership",
      "outputs": [],
      "stateMutability": "nonpayable",
      "type": "function"
    },
    {
      "inputs": [],
      "name": "usdtTotalSaled",
      "outputs": [
        {
          "internalType": "uint256",
          "name": "",
          "type": "uint256"
        }
      ],
      "stateMutability": "view",
      "type": "function"
    },
    {
      "inputs": [
        {
          "internalType": "address",
          "name": "",
          "type": "address"
        }
      ],
      "name": "userRewards",
      "outputs": [
        {
          "internalType": "uint256",
          "name": "",
          "type": "uint256"
        }
      ],
      "stateMutability": "view",
      "type": "function"
    },
    {
      "stateMutability": "payable",
      "type": "receive"
    }
  ],
  "bytecode": "0x60806040526000805460ff60a01b1916905562030d406001556305f5e10060025560646003556103e8600455620f424060095534801561003e57600080fd5b50604051610da7380380610da783398101604081905261005d91610135565b600080546001600160a01b031916339081178255604051909182917f8be0079c531659141344cd1fd0a4f28419497f9722a3daafe3b4186f6b6457e0908290a3504260065560006007556002546009546001546100d092916100be91610168565b61010460201b6109ad1790919060201c565b600555600a80546001600160a01b039384166001600160a01b031991821617909155600b80549290931691161790556101af565b6000610110828461018d565b90505b92915050565b80516001600160a01b038116811461013057600080fd5b919050565b6000806040838503121561014857600080fd5b61015183610119565b915061015f60208401610119565b90509250929050565b808202811582820484141761011357634e487b7160e01b600052601160045260246000fd5b6000826101aa57634e487b7160e01b600052601260045260246000fd5b500490565b610be9806101be6000396000f3fe60806040526004361061010c5760003560e01c8063a7c601601161009a578063ecbfc07711610061578063ecbfc077146102d5578063f2fde38b146102ea578063f42958be1461030a578063fe96973a1461031f578063ff6c9bc91461033f57005b8063a7c601601461023e578063afd189161461025e578063db7b373e14610273578063dc13f7b514610289578063dde070e81461029f57005b806378e97925116100de57806378e97925146101a05780637b7902dd146101b65780638da5cb5b146101d657806398d5fdca146101fe5780639b77c21a1461021357005b80630660f1e8146101155780631698755f1461015557806368e453ed14610175578063715018a61461018b57005b3661011357005b005b34801561012157600080fd5b50610142610130366004610a9c565b600c6020526000908152604090205481565b6040519081526020015b60405180910390f35b34801561016157600080fd5b50610113610170366004610ab7565b610354565b34801561018157600080fd5b5061014260075481565b34801561019757600080fd5b5061011361041e565b3480156101ac57600080fd5b5061014260065481565b3480156101c257600080fd5b506101426101d1366004610ae1565b610492565b3480156101e257600080fd5b506000546040516001600160a01b03909116815260200161014c565b34801561020a57600080fd5b50600554610142565b34801561021f57600080fd5b50600054600160a01b900460ff165b604051901515815260200161014c565b34801561024a57600080fd5b5061022e610259366004610ae1565b6104ef565b34801561026a57600080fd5b50610113610729565b34801561027f57600080fd5b5061014260095481565b34801561029557600080fd5b5061014260085481565b3480156102ab57600080fd5b506101426102ba366004610a9c565b6001600160a01b03166000908152600c602052604090205490565b3480156102e157600080fd5b50610113610807565b3480156102f657600080fd5b50610113610305366004610a9c565b610846565b34801561031657600080fd5b5061011361087c565b34801561032b57600080fd5b5061011361033a366004610ae1565b6108ac565b34801561034b57600080fd5b50610113610974565b6000546001600160a01b031633146103875760405162461bcd60e51b815260040161037e90610afa565b60405180910390fd5b816001600160a01b031663a9059cbb6103a86000546001600160a01b031690565b6040516001600160e01b031960e084901b1681526001600160a01b039091166004820152602481018490526044016020604051808303816000875af11580156103f5573d6000803e3d6000fd5b505050506040513d601f19601f820116820180604052508101906104199190610b2f565b505050565b6000546001600160a01b031633146104485760405162461bcd60e51b815260040161037e90610afa565b600080546040516001600160a01b03909116907f8be0079c531659141344cd1fd0a4f28419497f9722a3daafe3b4186f6b6457e0908390a3600080546001600160a01b0319169055565b60006009546001546104a49190610b67565b60085411156104c0576002546008546104bc916109ad565b6005555b6104da600554600954846104d49190610b67565b906109ad565b6104e99064e8d4a51000610b67565b92915050565b6000610506600954836109ad90919063ffffffff16565b6004541015801561052657506003546009546105239084906109ad565b10155b6105725760405162461bcd60e51b815260206004820152601d60248201527f416d6f756e7420697320616c6c6f77656420313030202d20313030302e000000604482015260640161037e565b600061057d83610492565b905080600760008282546105919190610b7e565b9250508190555082600860008282546105aa9190610b7e565b9091555050600b546040516323b872dd60e01b8152336004820152306024820152604481018590526001600160a01b03909116906323b872dd906064016020604051808303816000875af1158015610606573d6000803e3d6000fd5b505050506040513d601f19601f8201168201806040525081019061062a9190610b2f565b6106675760405162461bcd60e51b815260206004820152600e60248201526d19195c1bdcda5d0819985a5b195960921b604482015260640161037e565b336000908152600c602052604081208054839290610686908490610b7e565b9091555050600b546001600160a01b031663a9059cbb6106ae6000546001600160a01b031690565b6040516001600160e01b031960e084901b1681526001600160a01b039091166004820152602481018690526044016020604051808303816000875af11580156106fb573d6000803e3d6000fd5b505050506040513d601f19601f8201168201806040525081019061071f9190610b2f565b5060019392505050565b33600052600c602052600a54336000818152600c60205260409081902054905163a9059cbb60e01b8152600481019290925260248201526001600160a01b039091169063a9059cbb906044016020604051808303816000875af1158015610794573d6000803e3d6000fd5b505050506040513d601f19601f820116820180604052508101906107b89190610b2f565b50336000818152600c602090815260408083208390558051938452908301919091527f47cee97cb7acd717b3c0aa1435d004cd5b3c8c57d70dbceb4e4458bbd60e39d4910160405180910390a1565b6000546001600160a01b031633146108315760405162461bcd60e51b815260040161037e90610afa565b6000805460ff60a01b1916600160a01b179055565b6000546001600160a01b031633146108705760405162461bcd60e51b815260040161037e90610afa565b610879816109c0565b50565b6000546001600160a01b031633146108a65760405162461bcd60e51b815260040161037e90610afa565b42600655565b6000546001600160a01b031633146108d65760405162461bcd60e51b815260040161037e90610afa565b600080546040516001600160a01b039091169083908381818185875af1925050503d8060008114610923576040519150601f19603f3d011682016040523d82523d6000602084013e610928565b606091505b50509050806109705760405162461bcd60e51b81526020600482015260146024820152732330b4b632b2103a379039b2b7321022ba3432b960611b604482015260640161037e565b5050565b6000546001600160a01b0316331461099e5760405162461bcd60e51b815260040161037e90610afa565b6000805460ff60a01b19169055565b60006109b98284610b91565b9392505050565b6001600160a01b038116610a255760405162461bcd60e51b815260206004820152602660248201527f4f776e61626c653a206e6577206f776e657220697320746865207a65726f206160448201526564647265737360d01b606482015260840161037e565b600080546040516001600160a01b03808516939216917f8be0079c531659141344cd1fd0a4f28419497f9722a3daafe3b4186f6b6457e091a3600080546001600160a01b0319166001600160a01b0392909216919091179055565b80356001600160a01b0381168114610a9757600080fd5b919050565b600060208284031215610aae57600080fd5b6109b982610a80565b60008060408385031215610aca57600080fd5b610ad383610a80565b946020939093013593505050565b600060208284031215610af357600080fd5b5035919050565b6020808252818101527f4f776e61626c653a2063616c6c6572206973206e6f7420746865206f776e6572604082015260600190565b600060208284031215610b4157600080fd5b815180151581146109b957600080fd5b634e487b7160e01b600052601160045260246000fd5b80820281158282048414176104e9576104e9610b51565b808201808211156104e9576104e9610b51565b600082610bae57634e487b7160e01b600052601260045260246000fd5b50049056fea2646970667358221220aee46d59419f734680aba1ee868f2ff0371c296dbbef53993802b1fe4bd6505a64736f6c63430008120033",
  "linkReferences": {},
  "deployedLinkReferences": {}
}