{
  "_format": "hh-sol-artifact-1",
  "contractName": "IDO",
  "sourceName": "contracts/IDO.sol",
  "abi": [
    {
      "inputs": [
        {
          "internalType": "address",
          "name": "_rewardAddress",
          "type": "address"
        },
        {
          "internalType": "address",
          "name": "_usdtAddress",
          "type": "address"
        }
      ],
      "stateMutability": "nonpayable",
      "type": "constructor"
    },
    {
      "anonymous": false,
      "inputs": [
        {
          "indexed": false,
          "internalType": "address",
          "name": "to",
          "type": "address"
        },
        {
          "indexed": false,
          "internalType": "uint256",
          "name": "amount",
          "type": "uint256"
        }
      ],
      "name": "Buy",
      "type": "event"
    },
    {
      "anonymous": false,
      "inputs": [
        {
          "indexed": false,
          "internalType": "address",
          "name": "to",
          "type": "address"
        },
        {
          "indexed": false,
          "internalType": "uint256",
          "name": "amount",
          "type": "uint256"
        }
      ],
      "name": "Claim",
      "type": "event"
    },
    {
      "anonymous": false,
      "inputs": [
        {
          "indexed": true,
          "internalType": "address",
          "name": "previousOwner",
          "type": "address"
        },
        {
          "indexed": true,
          "internalType": "address",
          "name": "newOwner",
          "type": "address"
        }
      ],
      "name": "OwnershipTransferred",
      "type": "event"
    },
    {
      "stateMutability": "payable",
      "type": "fallback"
    },
    {
      "inputs": [],
      "name": "baseDecimal",
      "outputs": [
        {
          "internalType": "uint256",
          "name": "",
          "type": "uint256"
        }
      ],
      "stateMutability": "view",
      "type": "function"
    },
    {
      "inputs": [
        {
          "internalType": "uint256",
          "name": "usdtAmount",
          "type": "uint256"
        }
      ],
      "name": "buyWithUSDT",
      "outputs": [
        {
          "internalType": "bool",
          "name": "",
          "type": "bool"
        }
      ],
      "stateMutability": "nonpayable",
      "type": "function"
    },
    {
      "inputs": [
        {
          "internalType": "uint256",
          "name": "usdAmount",
          "type": "uint256"
        }
      ],
      "name": "calcTokenAmount",
      "outputs": [
        {
          "internalType": "uint256",
          "name": "amount",
          "type": "uint256"
        }
      ],
      "stateMutability": "nonpayable",
      "type": "function"
    },
    {
      "inputs": [
        {
          "internalType": "uint256",
          "name": "amount",
          "type": "uint256"
        }
      ],
      "name": "claimETH",
      "outputs": [],
      "stateMutability": "nonpayable",
      "type": "function"
    },
    {
      "inputs": [],
      "name": "claimRewardToken",
      "outputs": [],
      "stateMutability": "nonpayable",
      "type": "function"
    },
    {
      "inputs": [
        {
          "internalType": "address",
          "name": "tokenAddress",
          "type": "address"
        },
        {
          "internalType": "uint256",
          "name": "amount",
          "type": "uint256"
        }
      ],
      "name": "claimToken",
      "outputs": [],
      "stateMutability": "nonpayable",
      "type": "function"
    },
    {
      "inputs": [
        {
          "internalType": "address",
          "name": "userAddress",
          "type": "address"
        }
      ],
      "name": "getClaimAmount",
      "outputs": [
        {
          "internalType": "uint256",
          "name": "claimAmount",
          "type": "uint256"
        }
      ],
      "stateMutability": "view",
      "type": "function"
    },
    {
      "inputs": [],
      "name": "getClaimStatus",
      "outputs": [
        {
          "internalType": "bool",
          "name": "",
          "type": "bool"
        }
      ],
      "stateMutability": "view",
      "type": "function"
    },
    {
      "inputs": [],
      "name": "getPrice",
      "outputs": [
        {
          "internalType": "uint256",
          "name": "tokenPrice",
          "type": "uint256"
        }
      ],
      "stateMutability": "view",
      "type": "function"
    },
    {
      "inputs": [],
      "name": "owner",
      "outputs": [
        {
          "internalType": "address",
          "name": "",
          "type": "address"
        }
      ],
      "stateMutability": "view",
      "type": "function"
    },
    {
      "inputs": [],
      "name": "renounceOwnership",
      "outputs": [],
      "stateMutability": "nonpayable",
      "type": "function"
    },
    {
      "inputs": [],
      "name": "resetStartTime",
      "outputs": [],
      "stateMutability": "nonpayable",
      "type": "function"
    },
    {
      "inputs": [],
      "name": "startClaim",
      "outputs": [],
      "stateMutability": "nonpayable",
      "type": "function"
    },
    {
      "inputs": [],
      "name": "startTime",
      "outputs": [
        {
          "internalType": "uint256",
          "name": "",
          "type": "uint256"
        }
      ],
      "stateMutability": "view",
      "type": "function"
    },
    {
      "inputs": [],
      "name": "stopClaim",
      "outputs": [],
      "stateMutability": "nonpayable",
      "type": "function"
    },
    {
      "inputs": [],
      "name": "totalSaled",
      "outputs": [
        {
          "internalType": "uint256",
          "name": "",
          "type": "uint256"
        }
      ],
      "stateMutability": "view",
      "type": "function"
    },
    {
      "inputs": [
        {
          "internalType": "address",
          "name": "newOwner",
          "type": "address"
        }
      ],
      "name": "transferOwnership",
      "outputs": [],
      "stateMutability": "nonpayable",
      "type": "function"
    },
    {
      "inputs": [],
      "name": "usdtTotalSaled",
      "outputs": [
        {
          "internalType": "uint256",
          "name": "",
          "type": "uint256"
        }
      ],
      "stateMutability": "view",
      "type": "function"
    },
    {
      "inputs": [
        {
          "internalType": "address",
          "name": "",
          "type": "address"
        }
      ],
      "name": "userDeposited",
      "outputs": [
        {
          "internalType": "uint256",
          "name": "",
          "type": "uint256"
        }
      ],
      "stateMutability": "view",
      "type": "function"
    },
    {
      "inputs": [
        {
          "internalType": "address",
          "name": "",
          "type": "address"
        }
      ],
      "name": "userRewards",
      "outputs": [
        {
          "internalType": "uint256",
          "name": "",
          "type": "uint256"
        }
      ],
      "stateMutability": "view",
      "type": "function"
    },
    {
      "stateMutability": "payable",
      "type": "receive"
    }
  ],
  "bytecode": "0x60806040526000805460ff60a01b1916905562030d406001556305f5e10060025560646003556103e8600455620f424060095534801561003e57600080fd5b5060405162000e3238038062000e3283398101604081905261005f91610137565b600080546001600160a01b031916339081178255604051909182917f8be0079c531659141344cd1fd0a4f28419497f9722a3daafe3b4186f6b6457e0908290a3504260065560006007556002546009546001546100d292916100c09161016a565b61010660201b610a351790919060201c565b600555600a80546001600160a01b039384166001600160a01b031991821617909155600b80549290931691161790556101b1565b6000610112828461018f565b90505b92915050565b80516001600160a01b038116811461013257600080fd5b919050565b6000806040838503121561014a57600080fd5b6101538361011b565b91506101616020840161011b565b90509250929050565b808202811582820484141761011557634e487b7160e01b600052601160045260246000fd5b6000826101ac57634e487b7160e01b600052601260045260246000fd5b500490565b610c7180620001c16000396000f3fe6080604052600436106101175760003560e01c8063a7c601601161009a578063ecbfc07711610061578063ecbfc0771461030d578063f2fde38b14610322578063f42958be14610342578063fe96973a14610357578063ff6c9bc91461037757005b8063a7c6016014610276578063afd1891614610296578063db7b373e146102ab578063dc13f7b5146102c1578063dde070e8146102d757005b80637b7902dd116100de5780637b7902dd146101c15780638092be4a146101e15780638da5cb5b1461020e57806398d5fdca146102365780639b77c21a1461024b57005b80630660f1e8146101205780631698755f1461016057806368e453ed14610180578063715018a61461019657806378e97925146101ab57005b3661011e57005b005b34801561012c57600080fd5b5061014d61013b366004610b24565b600c6020526000908152604090205481565b6040519081526020015b60405180910390f35b34801561016c57600080fd5b5061011e61017b366004610b3f565b61038c565b34801561018c57600080fd5b5061014d60075481565b3480156101a257600080fd5b5061011e610456565b3480156101b757600080fd5b5061014d60065481565b3480156101cd57600080fd5b5061014d6101dc366004610b69565b6104ca565b3480156101ed57600080fd5b5061014d6101fc366004610b24565b600d6020526000908152604090205481565b34801561021a57600080fd5b506000546040516001600160a01b039091168152602001610157565b34801561024257600080fd5b5060055461014d565b34801561025757600080fd5b50600054600160a01b900460ff165b6040519015158152602001610157565b34801561028257600080fd5b50610266610291366004610b69565b610527565b3480156102a257600080fd5b5061011e6107b1565b3480156102b757600080fd5b5061014d60095481565b3480156102cd57600080fd5b5061014d60085481565b3480156102e357600080fd5b5061014d6102f2366004610b24565b6001600160a01b03166000908152600c602052604090205490565b34801561031957600080fd5b5061011e61088f565b34801561032e57600080fd5b5061011e61033d366004610b24565b6108ce565b34801561034e57600080fd5b5061011e610904565b34801561036357600080fd5b5061011e610372366004610b69565b610934565b34801561038357600080fd5b5061011e6109fc565b6000546001600160a01b031633146103bf5760405162461bcd60e51b81526004016103b690610b82565b60405180910390fd5b816001600160a01b031663a9059cbb6103e06000546001600160a01b031690565b6040516001600160e01b031960e084901b1681526001600160a01b039091166004820152602481018490526044016020604051808303816000875af115801561042d573d6000803e3d6000fd5b505050506040513d601f19601f820116820180604052508101906104519190610bb7565b505050565b6000546001600160a01b031633146104805760405162461bcd60e51b81526004016103b690610b82565b600080546040516001600160a01b03909116907f8be0079c531659141344cd1fd0a4f28419497f9722a3daafe3b4186f6b6457e0908390a3600080546001600160a01b0319169055565b60006009546001546104dc9190610bef565b60085411156104f8576002546008546104f491610a35565b6005555b6105126005546009548461050c9190610bef565b90610a35565b6105219064e8d4a51000610bef565b92915050565b600061056660095483600d600061053b3390565b6001600160a01b03166001600160a01b031681526020019081526020016000205461050c9190610c06565b6004541015801561058a575060035461058760095484600d600061053b3390565b10155b6105d65760405162461bcd60e51b815260206004820152601d60248201527f416d6f756e7420697320616c6c6f77656420313030202d20313030302e00000060448201526064016103b6565b60006105e1836104ca565b905080600760008282546105f59190610c06565b92505081905550826008600082825461060e9190610c06565b9091555050600b546040516323b872dd60e01b8152336004820152306024820152604481018590526001600160a01b03909116906323b872dd906064016020604051808303816000875af115801561066a573d6000803e3d6000fd5b505050506040513d601f19601f8201168201806040525081019061068e9190610bb7565b6106cb5760405162461bcd60e51b815260206004820152600e60248201526d19195c1bdcda5d0819985a5b195960921b60448201526064016103b6565b336000908152600c6020526040812080548392906106ea908490610c06565b9091555050336000908152600d60205260408120805485929061070e908490610c06565b9091555050600b546001600160a01b031663a9059cbb6107366000546001600160a01b031690565b6040516001600160e01b031960e084901b1681526001600160a01b039091166004820152602481018690526044016020604051808303816000875af1158015610783573d6000803e3d6000fd5b505050506040513d601f19601f820116820180604052508101906107a79190610bb7565b5060019392505050565b33600052600c602052600a54336000818152600c60205260409081902054905163a9059cbb60e01b8152600481019290925260248201526001600160a01b039091169063a9059cbb906044016020604051808303816000875af115801561081c573d6000803e3d6000fd5b505050506040513d601f19601f820116820180604052508101906108409190610bb7565b50336000818152600c602090815260408083208390558051938452908301919091527f47cee97cb7acd717b3c0aa1435d004cd5b3c8c57d70dbceb4e4458bbd60e39d4910160405180910390a1565b6000546001600160a01b031633146108b95760405162461bcd60e51b81526004016103b690610b82565b6000805460ff60a01b1916600160a01b179055565b6000546001600160a01b031633146108f85760405162461bcd60e51b81526004016103b690610b82565b61090181610a48565b50565b6000546001600160a01b0316331461092e5760405162461bcd60e51b81526004016103b690610b82565b42600655565b6000546001600160a01b0316331461095e5760405162461bcd60e51b81526004016103b690610b82565b600080546040516001600160a01b039091169083908381818185875af1925050503d80600081146109ab576040519150601f19603f3d011682016040523d82523d6000602084013e6109b0565b606091505b50509050806109f85760405162461bcd60e51b81526020600482015260146024820152732330b4b632b2103a379039b2b7321022ba3432b960611b60448201526064016103b6565b5050565b6000546001600160a01b03163314610a265760405162461bcd60e51b81526004016103b690610b82565b6000805460ff60a01b19169055565b6000610a418284610c19565b9392505050565b6001600160a01b038116610aad5760405162461bcd60e51b815260206004820152602660248201527f4f776e61626c653a206e6577206f776e657220697320746865207a65726f206160448201526564647265737360d01b60648201526084016103b6565b600080546040516001600160a01b03808516939216917f8be0079c531659141344cd1fd0a4f28419497f9722a3daafe3b4186f6b6457e091a3600080546001600160a01b0319166001600160a01b0392909216919091179055565b80356001600160a01b0381168114610b1f57600080fd5b919050565b600060208284031215610b3657600080fd5b610a4182610b08565b60008060408385031215610b5257600080fd5b610b5b83610b08565b946020939093013593505050565b600060208284031215610b7b57600080fd5b5035919050565b6020808252818101527f4f776e61626c653a2063616c6c6572206973206e6f7420746865206f776e6572604082015260600190565b600060208284031215610bc957600080fd5b81518015158114610a4157600080fd5b634e487b7160e01b600052601160045260246000fd5b808202811582820484141761052157610521610bd9565b8082018082111561052157610521610bd9565b600082610c3657634e487b7160e01b600052601260045260246000fd5b50049056fea264697066735822122077f2bd0b4057c21554e7e2f712fef1c232ac7739f9cc8a83224f1c0fbf2c6c9964736f6c63430008120033",
  "linkReferences": {},
  "deployedLinkReferences": {}
}