{
  "_format": "hh-sol-artifact-1",
  "contractName": "IDO",
  "sourceName": "contracts/IDO.sol",
  "abi": [
    {
      "inputs": [
        {
          "internalType": "address",
          "name": "_rewardAddress",
          "type": "address"
        }
      ],
      "stateMutability": "nonpayable",
      "type": "constructor"
    },
    {
      "anonymous": false,
      "inputs": [
        {
          "indexed": false,
          "internalType": "address",
          "name": "to",
          "type": "address"
        },
        {
          "indexed": false,
          "internalType": "uint256",
          "name": "amount",
          "type": "uint256"
        }
      ],
      "name": "Buy",
      "type": "event"
    },
    {
      "anonymous": false,
      "inputs": [
        {
          "indexed": false,
          "internalType": "address",
          "name": "to",
          "type": "address"
        },
        {
          "indexed": false,
          "internalType": "uint256",
          "name": "amount",
          "type": "uint256"
        }
      ],
      "name": "Claim",
      "type": "event"
    },
    {
      "anonymous": false,
      "inputs": [
        {
          "indexed": true,
          "internalType": "address",
          "name": "previousOwner",
          "type": "address"
        },
        {
          "indexed": true,
          "internalType": "address",
          "name": "newOwner",
          "type": "address"
        }
      ],
      "name": "OwnershipTransferred",
      "type": "event"
    },
    {
      "stateMutability": "payable",
      "type": "fallback"
    },
    {
      "inputs": [
        {
          "internalType": "address[]",
          "name": "addressesToAdd",
          "type": "address[]"
        }
      ],
      "name": "addToWhitelist",
      "outputs": [],
      "stateMutability": "nonpayable",
      "type": "function"
    },
    {
      "inputs": [],
      "name": "buy",
      "outputs": [],
      "stateMutability": "payable",
      "type": "function"
    },
    {
      "inputs": [
        {
          "internalType": "uint256",
          "name": "_ethAmount",
          "type": "uint256"
        }
      ],
      "name": "calcTokenAmount",
      "outputs": [
        {
          "internalType": "uint256",
          "name": "amount",
          "type": "uint256"
        }
      ],
      "stateMutability": "nonpayable",
      "type": "function"
    },
    {
      "inputs": [
        {
          "internalType": "uint256",
          "name": "amount",
          "type": "uint256"
        }
      ],
      "name": "claimETH",
      "outputs": [],
      "stateMutability": "nonpayable",
      "type": "function"
    },
    {
      "inputs": [],
      "name": "claimRewardToken",
      "outputs": [],
      "stateMutability": "nonpayable",
      "type": "function"
    },
    {
      "inputs": [
        {
          "internalType": "address",
          "name": "tokenAddress",
          "type": "address"
        },
        {
          "internalType": "uint256",
          "name": "amount",
          "type": "uint256"
        }
      ],
      "name": "claimToken",
      "outputs": [],
      "stateMutability": "nonpayable",
      "type": "function"
    },
    {
      "inputs": [
        {
          "internalType": "address",
          "name": "userAddress",
          "type": "address"
        }
      ],
      "name": "getClaimAmount",
      "outputs": [
        {
          "internalType": "uint256",
          "name": "claimAmount",
          "type": "uint256"
        }
      ],
      "stateMutability": "view",
      "type": "function"
    },
    {
      "inputs": [],
      "name": "getPrice",
      "outputs": [
        {
          "internalType": "uint256",
          "name": "price",
          "type": "uint256"
        }
      ],
      "stateMutability": "view",
      "type": "function"
    },
    {
      "inputs": [],
      "name": "owner",
      "outputs": [
        {
          "internalType": "address",
          "name": "",
          "type": "address"
        }
      ],
      "stateMutability": "view",
      "type": "function"
    },
    {
      "inputs": [],
      "name": "privateSaleAllocation",
      "outputs": [
        {
          "internalType": "uint256",
          "name": "",
          "type": "uint256"
        }
      ],
      "stateMutability": "view",
      "type": "function"
    },
    {
      "inputs": [],
      "name": "privateSaleTotalSaled",
      "outputs": [
        {
          "internalType": "uint256",
          "name": "",
          "type": "uint256"
        }
      ],
      "stateMutability": "view",
      "type": "function"
    },
    {
      "inputs": [],
      "name": "publicSaleAllocation",
      "outputs": [
        {
          "internalType": "uint256",
          "name": "",
          "type": "uint256"
        }
      ],
      "stateMutability": "view",
      "type": "function"
    },
    {
      "inputs": [],
      "name": "publicSaleTotalSaled",
      "outputs": [
        {
          "internalType": "uint256",
          "name": "",
          "type": "uint256"
        }
      ],
      "stateMutability": "view",
      "type": "function"
    },
    {
      "inputs": [],
      "name": "renounceOwnership",
      "outputs": [],
      "stateMutability": "nonpayable",
      "type": "function"
    },
    {
      "inputs": [
        {
          "internalType": "uint256",
          "name": "_price",
          "type": "uint256"
        }
      ],
      "name": "resetPrice",
      "outputs": [],
      "stateMutability": "nonpayable",
      "type": "function"
    },
    {
      "inputs": [],
      "name": "saleIndex",
      "outputs": [
        {
          "internalType": "uint256",
          "name": "",
          "type": "uint256"
        }
      ],
      "stateMutability": "view",
      "type": "function"
    },
    {
      "inputs": [
        {
          "internalType": "uint256",
          "name": "_saleIndex",
          "type": "uint256"
        }
      ],
      "name": "startSale",
      "outputs": [],
      "stateMutability": "nonpayable",
      "type": "function"
    },
    {
      "inputs": [],
      "name": "stopSale",
      "outputs": [],
      "stateMutability": "nonpayable",
      "type": "function"
    },
    {
      "inputs": [
        {
          "internalType": "address",
          "name": "newOwner",
          "type": "address"
        }
      ],
      "name": "transferOwnership",
      "outputs": [],
      "stateMutability": "nonpayable",
      "type": "function"
    },
    {
      "inputs": [
        {
          "internalType": "address",
          "name": "",
          "type": "address"
        }
      ],
      "name": "userDeposited",
      "outputs": [
        {
          "internalType": "uint256",
          "name": "",
          "type": "uint256"
        }
      ],
      "stateMutability": "view",
      "type": "function"
    },
    {
      "inputs": [
        {
          "internalType": "address",
          "name": "",
          "type": "address"
        }
      ],
      "name": "userRewards",
      "outputs": [
        {
          "internalType": "uint256",
          "name": "",
          "type": "uint256"
        }
      ],
      "stateMutability": "view",
      "type": "function"
    },
    {
      "stateMutability": "payable",
      "type": "receive"
    }
  ],
  "bytecode": "0x608060405260006001556802df85d331a7b40000600355662386f26fc10000600455678ac7230489e800006005556803860e639d8064000060065560006008556504944d62ee006009556000600a5565047e2ef1f800600b5534801561006457600080fd5b50604051610fed380380610fed8339810160408190526100839161011a565b600080546001600160a01b031916339081178255604051909182917f8be0079c531659141344cd1fd0a4f28419497f9722a3daafe3b4186f6b6457e0908290a3506100df60095460035461010760201b610b4a1790919060201c565b600755600c80546001600160a01b0319166001600160a01b0392909216919091179055610165565b60006101138284610143565b9392505050565b60006020828403121561012c57600080fd5b81516001600160a01b038116811461011357600080fd5b60008261016057634e487b7160e01b600052601260045260246000fd5b500490565b610e79806101746000396000f3fe60806040526004361061012e5760003560e01c80638da5cb5b116100ab578063dde070e81161006f578063dde070e8146102f1578063de8e81ed14610327578063e36b0b3714610347578063e7a6ac551461035c578063f2fde38b14610372578063fe96973a146103925761013d565b80638da5cb5b1461028957806398d5fdca146102b1578063a6f2ae3a1461013d578063afd18916146102c6578063c8aad250146102db5761013d565b8063715018a6116100f2578063715018a6146101f157806378442876146102065780637b7902dd1461021c5780637f6497831461023c5780638092be4a1461025c5761013d565b80630660f1e8146101455780630e3ab61d146101855780631698755f146101a557806334ad1f32146101c55780636ec012e7146101db5761013d565b3661013d5761013b6103b2565b005b61013b6103b2565b34801561015157600080fd5b50610172610160366004610c39565b600d6020526000908152604090205481565b6040519081526020015b60405180910390f35b34801561019157600080fd5b5061013b6101a0366004610c54565b610680565b3480156101b157600080fd5b5061013b6101c0366004610c6d565b6106e7565b3480156101d157600080fd5b50610172600b5481565b3480156101e757600080fd5b5061017260015481565b3480156101fd57600080fd5b5061013b6107a8565b34801561021257600080fd5b5061017260085481565b34801561022857600080fd5b50610172610237366004610c54565b61081c565b34801561024857600080fd5b5061013b610257366004610cad565b61087f565b34801561026857600080fd5b50610172610277366004610c39565b600e6020526000908152604090205481565b34801561029557600080fd5b506000546040516001600160a01b03909116815260200161017c565b3480156102bd57600080fd5b50600754610172565b3480156102d257600080fd5b5061013b610915565b3480156102e757600080fd5b5061017260095481565b3480156102fd57600080fd5b5061017261030c366004610c39565b6001600160a01b03166000908152600d602052604090205490565b34801561033357600080fd5b5061013b610342366004610c54565b6109f3565b34801561035357600080fd5b5061013b610a22565b34801561036857600080fd5b50610172600a5481565b34801561037e57600080fd5b5061013b61038d366004610c39565b610a53565b34801561039e57600080fd5b5061013b6103ad366004610c54565b610a86565b60006001541180156103c657506003600154105b6104175760405162461bcd60e51b815260206004820152601760248201527f4e6f7420616c6c6f77656420746f20627579206e6f772e00000000000000000060448201526064015b60405180910390fd5b60015460010361054e57336000908152600e602052604090205461043c903490610d88565b600554101580156104695750600454336000908152600e6020526040902054610466903490610d88565b10155b801561048457503360009081526002602052604090205460ff165b6104f65760405162461bcd60e51b815260206004820152603d60248201527f416d6f756e7420697320616c6c6f77656420302e30312065746820746f20313060448201527f2065746820666f72206f6e6c79206c697374656420616464726573732e000000606482015260840161040e565b346008546105049190610d88565b600354101561054e5760405162461bcd60e51b815260206004820152601660248201527510d85b9b9bdd08189d5e481d1a1a5cc8185b5bdd5b9d60521b604482015260640161040e565b60006105593461081c565b90506001546001036105825734600860008282546105779190610d88565b9091555061059a9050565b34600a60008282546105949190610d88565b90915550505b600080546040516001600160a01b039091169034908381818185875af1925050503d80600081146105e7576040519150601f19603f3d011682016040523d82523d6000602084013e6105ec565b606091505b50509050806106345760405162461bcd60e51b81526020600482015260146024820152732330b4b632b2103a379039b2b7321022ba3432b960611b604482015260640161040e565b336000908152600d602052604081208054849290610653908490610d88565b9091555050336000908152600e602052604081208054349290610677908490610d88565b90915550505050565b6000546001600160a01b031633146106aa5760405162461bcd60e51b815260040161040e90610d9b565b60018181558190036106cb576009546003546106c591610b4a565b60075550565b6001546002036106e457600b546006546106c591610b4a565b50565b6000546001600160a01b031633146107115760405162461bcd60e51b815260040161040e90610d9b565b816001600160a01b031663a9059cbb6107326000546001600160a01b031690565b6040516001600160e01b031960e084901b1681526001600160a01b039091166004820152602481018490526044016020604051808303816000875af115801561077f573d6000803e3d6000fd5b505050506040513d601f19601f820116820180604052508101906107a39190610dd0565b505050565b6000546001600160a01b031633146107d25760405162461bcd60e51b815260040161040e90610d9b565b600080546040516001600160a01b03909116907f8be0079c531659141344cd1fd0a4f28419497f9722a3daafe3b4186f6b6457e0908390a3600080546001600160a01b0319169055565b6000600154600214801561083e575060065482600a5461083c9190610d88565b115b1561086b5761085d600b5483600a546108579190610d88565b90610b4a565b600781905561086b906109f3565b600754610879908390610b4a565b92915050565b6000546001600160a01b031633146108a95760405162461bcd60e51b815260040161040e90610d9b565b60005b8151811015610911576001600260008484815181106108cd576108cd610df2565b6020908102919091018101516001600160a01b03168252810191909152604001600020805460ff19169115159190911790558061090981610e08565b9150506108ac565b5050565b33600052600d602052600c54336000818152600d60205260409081902054905163a9059cbb60e01b8152600481019290925260248201526001600160a01b039091169063a9059cbb906044016020604051808303816000875af1158015610980573d6000803e3d6000fd5b505050506040513d601f19601f820116820180604052508101906109a49190610dd0565b50336000818152600d602090815260408083208390558051938452908301919091527f47cee97cb7acd717b3c0aa1435d004cd5b3c8c57d70dbceb4e4458bbd60e39d4910160405180910390a1565b6000546001600160a01b03163314610a1d5760405162461bcd60e51b815260040161040e90610d9b565b600755565b6000546001600160a01b03163314610a4c5760405162461bcd60e51b815260040161040e90610d9b565b6003600155565b6000546001600160a01b03163314610a7d5760405162461bcd60e51b815260040161040e90610d9b565b6106e481610b5d565b6000546001600160a01b03163314610ab05760405162461bcd60e51b815260040161040e90610d9b565b600080546040516001600160a01b039091169083908381818185875af1925050503d8060008114610afd576040519150601f19603f3d011682016040523d82523d6000602084013e610b02565b606091505b50509050806109115760405162461bcd60e51b81526020600482015260146024820152732330b4b632b2103a379039b2b7321022ba3432b960611b604482015260640161040e565b6000610b568284610e21565b9392505050565b6001600160a01b038116610bc25760405162461bcd60e51b815260206004820152602660248201527f4f776e61626c653a206e6577206f776e657220697320746865207a65726f206160448201526564647265737360d01b606482015260840161040e565b600080546040516001600160a01b03808516939216917f8be0079c531659141344cd1fd0a4f28419497f9722a3daafe3b4186f6b6457e091a3600080546001600160a01b0319166001600160a01b0392909216919091179055565b80356001600160a01b0381168114610c3457600080fd5b919050565b600060208284031215610c4b57600080fd5b610b5682610c1d565b600060208284031215610c6657600080fd5b5035919050565b60008060408385031215610c8057600080fd5b610c8983610c1d565b946020939093013593505050565b634e487b7160e01b600052604160045260246000fd5b60006020808385031215610cc057600080fd5b823567ffffffffffffffff80821115610cd857600080fd5b818501915085601f830112610cec57600080fd5b813581811115610cfe57610cfe610c97565b8060051b604051601f19603f83011681018181108582111715610d2357610d23610c97565b604052918252848201925083810185019188831115610d4157600080fd5b938501935b82851015610d6657610d5785610c1d565b84529385019392850192610d46565b98975050505050505050565b634e487b7160e01b600052601160045260246000fd5b8082018082111561087957610879610d72565b6020808252818101527f4f776e61626c653a2063616c6c6572206973206e6f7420746865206f776e6572604082015260600190565b600060208284031215610de257600080fd5b81518015158114610b5657600080fd5b634e487b7160e01b600052603260045260246000fd5b600060018201610e1a57610e1a610d72565b5060010190565b600082610e3e57634e487b7160e01b600052601260045260246000fd5b50049056fea2646970667358221220cf6222ee974e3efc9e054063d7f70375152f8b08e27b588fe7993d477004879064736f6c63430008120033",
  "linkReferences": {},
  "deployedLinkReferences": {}
}