{
  "_format": "hh-sol-artifact-1",
  "contractName": "IDO",
  "sourceName": "contracts/IDO.sol",
  "abi": [
    {
      "inputs": [
        {
          "internalType": "address",
          "name": "_rewardAddress",
          "type": "address"
        },
        {
          "internalType": "bytes32",
          "name": "_rootHash",
          "type": "bytes32"
        }
      ],
      "stateMutability": "nonpayable",
      "type": "constructor"
    },
    {
      "anonymous": false,
      "inputs": [
        {
          "indexed": false,
          "internalType": "address",
          "name": "to",
          "type": "address"
        },
        {
          "indexed": false,
          "internalType": "uint256",
          "name": "amount",
          "type": "uint256"
        }
      ],
      "name": "Buy",
      "type": "event"
    },
    {
      "anonymous": false,
      "inputs": [
        {
          "indexed": false,
          "internalType": "address",
          "name": "to",
          "type": "address"
        },
        {
          "indexed": false,
          "internalType": "uint256",
          "name": "amount",
          "type": "uint256"
        }
      ],
      "name": "Claim",
      "type": "event"
    },
    {
      "anonymous": false,
      "inputs": [
        {
          "indexed": true,
          "internalType": "address",
          "name": "previousOwner",
          "type": "address"
        },
        {
          "indexed": true,
          "internalType": "address",
          "name": "newOwner",
          "type": "address"
        }
      ],
      "name": "OwnershipTransferred",
      "type": "event"
    },
    {
      "stateMutability": "payable",
      "type": "fallback"
    },
    {
      "inputs": [
        {
          "internalType": "bytes32[]",
          "name": "proof",
          "type": "bytes32[]"
        }
      ],
      "name": "buy",
      "outputs": [],
      "stateMutability": "payable",
      "type": "function"
    },
    {
      "inputs": [
        {
          "internalType": "uint256",
          "name": "_ethAmount",
          "type": "uint256"
        }
      ],
      "name": "calcTokenAmount",
      "outputs": [
        {
          "internalType": "uint256",
          "name": "amount",
          "type": "uint256"
        }
      ],
      "stateMutability": "nonpayable",
      "type": "function"
    },
    {
      "inputs": [
        {
          "internalType": "uint256",
          "name": "amount",
          "type": "uint256"
        }
      ],
      "name": "claimETH",
      "outputs": [],
      "stateMutability": "nonpayable",
      "type": "function"
    },
    {
      "inputs": [],
      "name": "claimRewardToken",
      "outputs": [],
      "stateMutability": "nonpayable",
      "type": "function"
    },
    {
      "inputs": [
        {
          "internalType": "address",
          "name": "tokenAddress",
          "type": "address"
        },
        {
          "internalType": "uint256",
          "name": "amount",
          "type": "uint256"
        }
      ],
      "name": "claimToken",
      "outputs": [],
      "stateMutability": "nonpayable",
      "type": "function"
    },
    {
      "inputs": [
        {
          "internalType": "address",
          "name": "userAddress",
          "type": "address"
        }
      ],
      "name": "getClaimAmount",
      "outputs": [
        {
          "internalType": "uint256",
          "name": "claimAmount",
          "type": "uint256"
        }
      ],
      "stateMutability": "view",
      "type": "function"
    },
    {
      "inputs": [],
      "name": "getPrice",
      "outputs": [
        {
          "internalType": "uint256",
          "name": "price",
          "type": "uint256"
        }
      ],
      "stateMutability": "view",
      "type": "function"
    },
    {
      "inputs": [],
      "name": "owner",
      "outputs": [
        {
          "internalType": "address",
          "name": "",
          "type": "address"
        }
      ],
      "stateMutability": "view",
      "type": "function"
    },
    {
      "inputs": [],
      "name": "privateSaleAllocation",
      "outputs": [
        {
          "internalType": "uint256",
          "name": "",
          "type": "uint256"
        }
      ],
      "stateMutability": "view",
      "type": "function"
    },
    {
      "inputs": [],
      "name": "privateSaleTotalSaled",
      "outputs": [
        {
          "internalType": "uint256",
          "name": "",
          "type": "uint256"
        }
      ],
      "stateMutability": "view",
      "type": "function"
    },
    {
      "inputs": [],
      "name": "publicSaleAllocation",
      "outputs": [
        {
          "internalType": "uint256",
          "name": "",
          "type": "uint256"
        }
      ],
      "stateMutability": "view",
      "type": "function"
    },
    {
      "inputs": [],
      "name": "publicSaleTotalSaled",
      "outputs": [
        {
          "internalType": "uint256",
          "name": "",
          "type": "uint256"
        }
      ],
      "stateMutability": "view",
      "type": "function"
    },
    {
      "inputs": [],
      "name": "renounceOwnership",
      "outputs": [],
      "stateMutability": "nonpayable",
      "type": "function"
    },
    {
      "inputs": [
        {
          "internalType": "uint256",
          "name": "_price",
          "type": "uint256"
        }
      ],
      "name": "resetPrice",
      "outputs": [],
      "stateMutability": "nonpayable",
      "type": "function"
    },
    {
      "inputs": [],
      "name": "rootHash",
      "outputs": [
        {
          "internalType": "bytes32",
          "name": "",
          "type": "bytes32"
        }
      ],
      "stateMutability": "view",
      "type": "function"
    },
    {
      "inputs": [],
      "name": "saleIndex",
      "outputs": [
        {
          "internalType": "uint256",
          "name": "",
          "type": "uint256"
        }
      ],
      "stateMutability": "view",
      "type": "function"
    },
    {
      "inputs": [
        {
          "internalType": "bytes32",
          "name": "_rootHash",
          "type": "bytes32"
        }
      ],
      "name": "setRootHash",
      "outputs": [],
      "stateMutability": "nonpayable",
      "type": "function"
    },
    {
      "inputs": [
        {
          "internalType": "uint256",
          "name": "_saleIndex",
          "type": "uint256"
        }
      ],
      "name": "startSale",
      "outputs": [],
      "stateMutability": "nonpayable",
      "type": "function"
    },
    {
      "inputs": [],
      "name": "stopSale",
      "outputs": [],
      "stateMutability": "nonpayable",
      "type": "function"
    },
    {
      "inputs": [
        {
          "internalType": "address",
          "name": "newOwner",
          "type": "address"
        }
      ],
      "name": "transferOwnership",
      "outputs": [],
      "stateMutability": "nonpayable",
      "type": "function"
    },
    {
      "inputs": [
        {
          "internalType": "address",
          "name": "",
          "type": "address"
        }
      ],
      "name": "userDeposited",
      "outputs": [
        {
          "internalType": "uint256",
          "name": "",
          "type": "uint256"
        }
      ],
      "stateMutability": "view",
      "type": "function"
    },
    {
      "inputs": [
        {
          "internalType": "address",
          "name": "",
          "type": "address"
        }
      ],
      "name": "userRewards",
      "outputs": [
        {
          "internalType": "uint256",
          "name": "",
          "type": "uint256"
        }
      ],
      "stateMutability": "view",
      "type": "function"
    },
    {
      "stateMutability": "payable",
      "type": "receive"
    }
  ],
  "bytecode": "0x608060405260006001556802df85d331a7b40000600355662386f26fc10000600455678ac7230489e800006005556803860e639d8064000060065560006008556504944d62ee006009556000600a5565047e2ef1f800600b5534801561006457600080fd5b506040516110bb3803806110bb8339810160408190526100839161011e565b600080546001600160a01b031916339081178255604051909182917f8be0079c531659141344cd1fd0a4f28419497f9722a3daafe3b4186f6b6457e0908290a3506100df60095460035461010b60201b610b8c1790919060201c565b600755600c80546001600160a01b0319166001600160a01b03939093169290921790915560025561017a565b60006101178284610158565b9392505050565b6000806040838503121561013157600080fd5b82516001600160a01b038116811461014857600080fd5b6020939093015192949293505050565b60008261017557634e487b7160e01b600052601260045260246000fd5b500490565b610f32806101896000396000f3fe60806040526004361061012d5760003560e01c80638092be4a116100a5578063dde070e81161006c578063dde070e81461030b578063de8e81ed14610341578063e36b0b3714610361578063e7a6ac5514610376578063f2fde38b1461038c578063fe96973a146103ac57005b80638092be4a146102765780638da5cb5b146102a357806398d5fdca146102cb578063afd18916146102e0578063c8aad250146102f557005b80632d7eae66116100f45780632d7eae66146101df57806334ad1f32146101ff5780636ec012e714610215578063715018a61461022b57806378442876146102405780637b7902dd1461025657005b80630660f1e8146101365780630e3ab61d146101765780631698755f146101965780631d80009a146101b657806329ec7eed146101cc57005b3661013457005b005b34801561014257600080fd5b50610163610151366004610d58565b600d6020526000908152604090205481565b6040519081526020015b60405180910390f35b34801561018257600080fd5b50610134610191366004610d73565b6103cc565b3480156101a257600080fd5b506101346101b1366004610d8c565b61043c565b3480156101c257600080fd5b5061016360025481565b6101346101da366004610db6565b6104fd565b3480156101eb57600080fd5b506101346101fa366004610d73565b61084d565b34801561020b57600080fd5b50610163600b5481565b34801561022157600080fd5b5061016360015481565b34801561023757600080fd5b5061013461087c565b34801561024c57600080fd5b5061016360085481565b34801561026257600080fd5b50610163610271366004610d73565b6108f0565b34801561028257600080fd5b50610163610291366004610d58565b600e6020526000908152604090205481565b3480156102af57600080fd5b506000546040516001600160a01b03909116815260200161016d565b3480156102d757600080fd5b50600754610163565b3480156102ec57600080fd5b50610134610953565b34801561030157600080fd5b5061016360095481565b34801561031757600080fd5b50610163610326366004610d58565b6001600160a01b03166000908152600d602052604090205490565b34801561034d57600080fd5b5061013461035c366004610d73565b610a31565b34801561036d57600080fd5b50610134610a60565b34801561038257600080fd5b50610163600a5481565b34801561039857600080fd5b506101346103a7366004610d58565b610a91565b3480156103b857600080fd5b506101346103c7366004610d73565b610ac4565b6000546001600160a01b031633146103ff5760405162461bcd60e51b81526004016103f690610e2b565b60405180910390fd5b60018181558190036104205760095460035461041a91610b8c565b60075550565b60015460020361043957600b5460065461041a91610b8c565b50565b6000546001600160a01b031633146104665760405162461bcd60e51b81526004016103f690610e2b565b816001600160a01b031663a9059cbb6104876000546001600160a01b031690565b6040516001600160e01b031960e084901b1681526001600160a01b039091166004820152602481018490526044016020604051808303816000875af11580156104d4573d6000803e3d6000fd5b505050506040513d601f19601f820116820180604052508101906104f89190610e60565b505050565b6040516bffffffffffffffffffffffff193360601b16602082015282908290610542908390839060340160405160208183030381529060405280519060200120610b9f565b8061054f57506001546002145b61059b5760405162461bcd60e51b815260206004820152601760248201527f4e6f742057686974654c6973746564204164647265737300000000000000000060448201526064016103f6565b60006001541180156105af57506003600154105b6105fb5760405162461bcd60e51b815260206004820152601760248201527f4e6f7420616c6c6f77656420746f20627579206e6f772e00000000000000000060448201526064016103f6565b60015460010361071757336000908152600e6020526040902054610620903490610e98565b6005541015801561064d5750600454336000908152600e602052604090205461064a903490610e98565b10155b6106bf5760405162461bcd60e51b815260206004820152603d60248201527f416d6f756e7420697320616c6c6f77656420302e30312065746820746f20313060448201527f2065746820666f72206f6e6c79206c697374656420616464726573732e00000060648201526084016103f6565b346008546106cd9190610e98565b60035410156107175760405162461bcd60e51b815260206004820152601660248201527510d85b9b9bdd08189d5e481d1a1a5cc8185b5bdd5b9d60521b60448201526064016103f6565b6000610722346108f0565b905060015460010361074b5734600860008282546107409190610e98565b909155506107639050565b34600a600082825461075d9190610e98565b90915550505b600080546040516001600160a01b039091169034908381818185875af1925050503d80600081146107b0576040519150601f19603f3d011682016040523d82523d6000602084013e6107b5565b606091505b50509050806107fd5760405162461bcd60e51b81526020600482015260146024820152732330b4b632b2103a379039b2b7321022ba3432b960611b60448201526064016103f6565b336000908152600d60205260408120805484929061081c908490610e98565b9091555050336000908152600e602052604081208054349290610840908490610e98565b9091555050505050505050565b6000546001600160a01b031633146108775760405162461bcd60e51b81526004016103f690610e2b565b600255565b6000546001600160a01b031633146108a65760405162461bcd60e51b81526004016103f690610e2b565b600080546040516001600160a01b03909116907f8be0079c531659141344cd1fd0a4f28419497f9722a3daafe3b4186f6b6457e0908390a3600080546001600160a01b0319169055565b60006001546002148015610912575060065482600a546109109190610e98565b115b1561093f57610931600b5483600a5461092b9190610e98565b90610b8c565b600781905561093f90610a31565b60075461094d908390610b8c565b92915050565b33600052600d602052600c54336000818152600d60205260409081902054905163a9059cbb60e01b8152600481019290925260248201526001600160a01b039091169063a9059cbb906044016020604051808303816000875af11580156109be573d6000803e3d6000fd5b505050506040513d601f19601f820116820180604052508101906109e29190610e60565b50336000818152600d602090815260408083208390558051938452908301919091527f47cee97cb7acd717b3c0aa1435d004cd5b3c8c57d70dbceb4e4458bbd60e39d4910160405180910390a1565b6000546001600160a01b03163314610a5b5760405162461bcd60e51b81526004016103f690610e2b565b600755565b6000546001600160a01b03163314610a8a5760405162461bcd60e51b81526004016103f690610e2b565b6003600155565b6000546001600160a01b03163314610abb5760405162461bcd60e51b81526004016103f690610e2b565b61043981610bea565b6000546001600160a01b03163314610aee5760405162461bcd60e51b81526004016103f690610e2b565b600080546040516001600160a01b039091169083908381818185875af1925050503d8060008114610b3b576040519150601f19603f3d011682016040523d82523d6000602084013e610b40565b606091505b5050905080610b885760405162461bcd60e51b81526020600482015260146024820152732330b4b632b2103a379039b2b7321022ba3432b960611b60448201526064016103f6565b5050565b6000610b988284610eab565b9392505050565b6000610be2848480806020026020016040519081016040528093929190818152602001838360200280828437600092019190915250506002549150859050610caa565b949350505050565b6001600160a01b038116610c4f5760405162461bcd60e51b815260206004820152602660248201527f4f776e61626c653a206e6577206f776e657220697320746865207a65726f206160448201526564647265737360d01b60648201526084016103f6565b600080546040516001600160a01b03808516939216917f8be0079c531659141344cd1fd0a4f28419497f9722a3daafe3b4186f6b6457e091a3600080546001600160a01b0319166001600160a01b0392909216919091179055565b600082610cb78584610cc0565b14949350505050565b600081815b8451811015610d0557610cf182868381518110610ce457610ce4610ecd565b6020026020010151610d0d565b915080610cfd81610ee3565b915050610cc5565b509392505050565b6000818310610d29576000828152602084905260409020610b98565b6000838152602083905260409020610b98565b80356001600160a01b0381168114610d5357600080fd5b919050565b600060208284031215610d6a57600080fd5b610b9882610d3c565b600060208284031215610d8557600080fd5b5035919050565b60008060408385031215610d9f57600080fd5b610da883610d3c565b946020939093013593505050565b60008060208385031215610dc957600080fd5b823567ffffffffffffffff80821115610de157600080fd5b818501915085601f830112610df557600080fd5b813581811115610e0457600080fd5b8660208260051b8501011115610e1957600080fd5b60209290920196919550909350505050565b6020808252818101527f4f776e61626c653a2063616c6c6572206973206e6f7420746865206f776e6572604082015260600190565b600060208284031215610e7257600080fd5b81518015158114610b9857600080fd5b634e487b7160e01b600052601160045260246000fd5b8082018082111561094d5761094d610e82565b600082610ec857634e487b7160e01b600052601260045260246000fd5b500490565b634e487b7160e01b600052603260045260246000fd5b600060018201610ef557610ef5610e82565b506001019056fea2646970667358221220e5deae4b837dbb786c0d7b1e7823031fc68431b503adbb0d85274b51a37818f964736f6c63430008120033",
  "linkReferences": {},
  "deployedLinkReferences": {}
}